{
	"FTOTrading.sol": {
		"FTOTrading": {
			"abi": [
				{
					"inputs": [
						{
							"internalType": "address",
							"name": "ftoToken",
							"type": "address"
						}
					],
					"stateMutability": "nonpayable",
					"type": "constructor"
				},
				{
					"anonymous": false,
					"inputs": [
						{
							"indexed": false,
							"internalType": "enum FTOTrading.TokenType",
							"name": "tokenType",
							"type": "uint8"
						},
						{
							"indexed": true,
							"internalType": "uint256",
							"name": "tokenId",
							"type": "uint256"
						},
						{
							"indexed": false,
							"internalType": "uint256",
							"name": "treeCount",
							"type": "uint256"
						},
						{
							"indexed": true,
							"internalType": "address",
							"name": "seller",
							"type": "address"
						}
					],
					"name": "OrderCancelled",
					"type": "event"
				},
				{
					"anonymous": false,
					"inputs": [
						{
							"indexed": false,
							"internalType": "enum FTOTrading.TokenType",
							"name": "tokenType",
							"type": "uint8"
						},
						{
							"indexed": true,
							"internalType": "uint256",
							"name": "tokenId",
							"type": "uint256"
						},
						{
							"indexed": false,
							"internalType": "uint256",
							"name": "treeCount",
							"type": "uint256"
						},
						{
							"indexed": true,
							"internalType": "address",
							"name": "seller",
							"type": "address"
						},
						{
							"indexed": true,
							"internalType": "address",
							"name": "buyer",
							"type": "address"
						}
					],
					"name": "OrderFulfilled",
					"type": "event"
				},
				{
					"anonymous": false,
					"inputs": [
						{
							"indexed": false,
							"internalType": "enum FTOTrading.TokenType",
							"name": "tokenType",
							"type": "uint8"
						},
						{
							"indexed": true,
							"internalType": "uint256",
							"name": "tokenId",
							"type": "uint256"
						},
						{
							"indexed": false,
							"internalType": "uint256",
							"name": "treeCount",
							"type": "uint256"
						},
						{
							"indexed": false,
							"internalType": "uint256",
							"name": "price",
							"type": "uint256"
						},
						{
							"indexed": true,
							"internalType": "address",
							"name": "seller",
							"type": "address"
						}
					],
					"name": "OrderPlaced",
					"type": "event"
				},
				{
					"anonymous": false,
					"inputs": [
						{
							"indexed": true,
							"internalType": "address",
							"name": "previousOwner",
							"type": "address"
						},
						{
							"indexed": true,
							"internalType": "address",
							"name": "newOwner",
							"type": "address"
						}
					],
					"name": "OwnershipTransferred",
					"type": "event"
				},
				{
					"inputs": [
						{
							"internalType": "uint256",
							"name": "tokenId",
							"type": "uint256"
						}
					],
					"name": "cancelOrder",
					"outputs": [],
					"stateMutability": "nonpayable",
					"type": "function"
				},
				{
					"inputs": [
						{
							"internalType": "uint256",
							"name": "tokenId",
							"type": "uint256"
						}
					],
					"name": "fulfillOrder",
					"outputs": [],
					"stateMutability": "nonpayable",
					"type": "function"
				},
				{
					"inputs": [
						{
							"internalType": "uint256",
							"name": "tokenId",
							"type": "uint256"
						}
					],
					"name": "getOrder",
					"outputs": [
						{
							"components": [
								{
									"internalType": "enum FTOTrading.TokenType",
									"name": "tokenType",
									"type": "uint8"
								},
								{
									"internalType": "address",
									"name": "seller",
									"type": "address"
								},
								{
									"internalType": "uint256",
									"name": "tokenId",
									"type": "uint256"
								},
								{
									"internalType": "uint256",
									"name": "treeCount",
									"type": "uint256"
								},
								{
									"internalType": "uint256",
									"name": "price",
									"type": "uint256"
								},
								{
									"internalType": "bool",
									"name": "active",
									"type": "bool"
								}
							],
							"internalType": "struct FTOTrading.Order",
							"name": "",
							"type": "tuple"
						}
					],
					"stateMutability": "view",
					"type": "function"
				},
				{
					"inputs": [
						{
							"internalType": "uint256",
							"name": "tokenId",
							"type": "uint256"
						}
					],
					"name": "isOrderActive",
					"outputs": [
						{
							"internalType": "bool",
							"name": "",
							"type": "bool"
						}
					],
					"stateMutability": "view",
					"type": "function"
				},
				{
					"inputs": [
						{
							"internalType": "uint256",
							"name": "tokenId",
							"type": "uint256"
						},
						{
							"internalType": "uint256",
							"name": "price",
							"type": "uint256"
						}
					],
					"name": "listTokenForSale",
					"outputs": [
						{
							"internalType": "address",
							"name": "",
							"type": "address"
						}
					],
					"stateMutability": "nonpayable",
					"type": "function"
				},
				{
					"inputs": [],
					"name": "owner",
					"outputs": [
						{
							"internalType": "address",
							"name": "",
							"type": "address"
						}
					],
					"stateMutability": "view",
					"type": "function"
				},
				{
					"inputs": [
						{
							"internalType": "enum FTOTrading.TokenType",
							"name": "tokenType",
							"type": "uint8"
						},
						{
							"internalType": "uint256",
							"name": "tokenId",
							"type": "uint256"
						},
						{
							"internalType": "uint256",
							"name": "treeCount",
							"type": "uint256"
						},
						{
							"internalType": "uint256",
							"name": "price",
							"type": "uint256"
						}
					],
					"name": "placeOrder",
					"outputs": [],
					"stateMutability": "nonpayable",
					"type": "function"
				},
				{
					"inputs": [],
					"name": "renounceOwnership",
					"outputs": [],
					"stateMutability": "nonpayable",
					"type": "function"
				},
				{
					"inputs": [
						{
							"internalType": "address",
							"name": "newOwner",
							"type": "address"
						}
					],
					"name": "transferOwnership",
					"outputs": [],
					"stateMutability": "nonpayable",
					"type": "function"
				}
			],
			"devdoc": {
				"kind": "dev",
				"methods": {
					"owner()": {
						"details": "Returns the address of the current owner."
					},
					"renounceOwnership()": {
						"details": "Leaves the contract without owner. It will not be possible to call `onlyOwner` functions anymore. Can only be called by the current owner. NOTE: Renouncing ownership will leave the contract without an owner, thereby removing any functionality that is only available to the owner."
					},
					"transferOwnership(address)": {
						"details": "Transfers ownership of the contract to a new account (`newOwner`). Can only be called by the current owner."
					}
				},
				"version": 1
			},
			"evm": {
				"assembly": "    /* \"FTOTrading.sol\":176:3069  contract FTOTrading is Ownable {... */\n  mstore(0x40, 0x80)\n    /* \"FTOTrading.sol\":901:978  constructor(address ftoToken) {... */\n  callvalue\n  dup1\n  iszero\n  tag_1\n  jumpi\n  0x00\n  dup1\n  revert\ntag_1:\n  pop\n  mload(0x40)\n  sub(codesize, bytecodeSize)\n  dup1\n  bytecodeSize\n  dup4\n  codecopy\n  dup2\n  dup2\n  add\n  0x40\n  mstore\n  dup2\n  add\n  swap1\n  tag_2\n  swap2\n  swap1\n  tag_3\n  jump\t// in\ntag_2:\n    /* \"@openzeppelin/contracts/access/Ownable.sol\":936:968  _transferOwnership(_msgSender()) */\n  tag_7\n    /* \"@openzeppelin/contracts/access/Ownable.sol\":955:967  _msgSender() */\n  tag_8\n    /* \"@openzeppelin/contracts/access/Ownable.sol\":955:965  _msgSender */\n  shl(0x20, tag_9)\n    /* \"@openzeppelin/contracts/access/Ownable.sol\":955:967  _msgSender() */\n  0x20\n  shr\n  jump\t// in\ntag_8:\n    /* \"@openzeppelin/contracts/access/Ownable.sol\":936:954  _transferOwnership */\n  shl(0x20, tag_10)\n    /* \"@openzeppelin/contracts/access/Ownable.sol\":936:968  _transferOwnership(_msgSender()) */\n  0x20\n  shr\n  jump\t// in\ntag_7:\n    /* \"FTOTrading.sol\":961:969  ftoToken */\n  dup1\n    /* \"FTOTrading.sol\":942:951  _ftoToken */\n  0x02\n  0x00\n    /* \"FTOTrading.sol\":942:970  _ftoToken = IERC20(ftoToken) */\n  0x0100\n  exp\n  dup2\n  sload\n  dup2\n  0xffffffffffffffffffffffffffffffffffffffff\n  mul\n  not\n  and\n  swap1\n  dup4\n  0xffffffffffffffffffffffffffffffffffffffff\n  and\n  mul\n  or\n  swap1\n  sstore\n  pop\n    /* \"FTOTrading.sol\":901:978  constructor(address ftoToken) {... */\n  pop\n    /* \"FTOTrading.sol\":176:3069  contract FTOTrading is Ownable {... */\n  jump(tag_12)\n    /* \"@openzeppelin/contracts/utils/Context.sol\":640:736  function _msgSender() internal view virtual returns (address) {... */\ntag_9:\n    /* \"@openzeppelin/contracts/utils/Context.sol\":693:700  address */\n  0x00\n    /* \"@openzeppelin/contracts/utils/Context.sol\":719:729  msg.sender */\n  caller\n    /* \"@openzeppelin/contracts/utils/Context.sol\":712:729  return msg.sender */\n  swap1\n  pop\n    /* \"@openzeppelin/contracts/utils/Context.sol\":640:736  function _msgSender() internal view virtual returns (address) {... */\n  swap1\n  jump\t// out\n    /* \"@openzeppelin/contracts/access/Ownable.sol\":2433:2620  function _transferOwnership(address newOwner) internal virtual {... */\ntag_10:\n    /* \"@openzeppelin/contracts/access/Ownable.sol\":2506:2522  address oldOwner */\n  0x00\n    /* \"@openzeppelin/contracts/access/Ownable.sol\":2525:2531  _owner */\n  dup1\n  0x00\n  swap1\n  sload\n  swap1\n  0x0100\n  exp\n  swap1\n  div\n  0xffffffffffffffffffffffffffffffffffffffff\n  and\n    /* \"@openzeppelin/contracts/access/Ownable.sol\":2506:2531  address oldOwner = _owner */\n  swap1\n  pop\n    /* \"@openzeppelin/contracts/access/Ownable.sol\":2550:2558  newOwner */\n  dup2\n    /* \"@openzeppelin/contracts/access/Ownable.sol\":2541:2547  _owner */\n  0x00\n  dup1\n    /* \"@openzeppelin/contracts/access/Ownable.sol\":2541:2558  _owner = newOwner */\n  0x0100\n  exp\n  dup2\n  sload\n  dup2\n  0xffffffffffffffffffffffffffffffffffffffff\n  mul\n  not\n  and\n  swap1\n  dup4\n  0xffffffffffffffffffffffffffffffffffffffff\n  and\n  mul\n  or\n  swap1\n  sstore\n  pop\n    /* \"@openzeppelin/contracts/access/Ownable.sol\":2604:2612  newOwner */\n  dup2\n    /* \"@openzeppelin/contracts/access/Ownable.sol\":2573:2613  OwnershipTransferred(oldOwner, newOwner) */\n  0xffffffffffffffffffffffffffffffffffffffff\n  and\n    /* \"@openzeppelin/contracts/access/Ownable.sol\":2594:2602  oldOwner */\n  dup2\n    /* \"@openzeppelin/contracts/access/Ownable.sol\":2573:2613  OwnershipTransferred(oldOwner, newOwner) */\n  0xffffffffffffffffffffffffffffffffffffffff\n  and\n  0x8be0079c531659141344cd1fd0a4f28419497f9722a3daafe3b4186f6b6457e0\n  mload(0x40)\n  mload(0x40)\n  dup1\n  swap2\n  sub\n  swap1\n  log3\n    /* \"@openzeppelin/contracts/access/Ownable.sol\":2496:2620  {... */\n  pop\n    /* \"@openzeppelin/contracts/access/Ownable.sol\":2433:2620  function _transferOwnership(address newOwner) internal virtual {... */\n  pop\n  jump\t// out\n    /* \"#utility.yul\":88:205   */\ntag_16:\n    /* \"#utility.yul\":197:198   */\n  0x00\n    /* \"#utility.yul\":194:195   */\n  dup1\n    /* \"#utility.yul\":187:199   */\n  revert\n    /* \"#utility.yul\":334:460   */\ntag_18:\n    /* \"#utility.yul\":371:378   */\n  0x00\n    /* \"#utility.yul\":411:453   */\n  0xffffffffffffffffffffffffffffffffffffffff\n    /* \"#utility.yul\":404:409   */\n  dup3\n    /* \"#utility.yul\":400:454   */\n  and\n    /* \"#utility.yul\":389:454   */\n  swap1\n  pop\n    /* \"#utility.yul\":334:460   */\n  swap2\n  swap1\n  pop\n  jump\t// out\n    /* \"#utility.yul\":466:562   */\ntag_19:\n    /* \"#utility.yul\":503:510   */\n  0x00\n    /* \"#utility.yul\":532:556   */\n  tag_28\n    /* \"#utility.yul\":550:555   */\n  dup3\n    /* \"#utility.yul\":532:556   */\n  tag_18\n  jump\t// in\ntag_28:\n    /* \"#utility.yul\":521:556   */\n  swap1\n  pop\n    /* \"#utility.yul\":466:562   */\n  swap2\n  swap1\n  pop\n  jump\t// out\n    /* \"#utility.yul\":568:690   */\ntag_20:\n    /* \"#utility.yul\":641:665   */\n  tag_30\n    /* \"#utility.yul\":659:664   */\n  dup2\n    /* \"#utility.yul\":641:665   */\n  tag_19\n  jump\t// in\ntag_30:\n    /* \"#utility.yul\":634:639   */\n  dup2\n    /* \"#utility.yul\":631:666   */\n  eq\n    /* \"#utility.yul\":621:684   */\n  tag_31\n  jumpi\n    /* \"#utility.yul\":680:681   */\n  0x00\n    /* \"#utility.yul\":677:678   */\n  dup1\n    /* \"#utility.yul\":670:682   */\n  revert\n    /* \"#utility.yul\":621:684   */\ntag_31:\n    /* \"#utility.yul\":568:690   */\n  pop\n  jump\t// out\n    /* \"#utility.yul\":696:839   */\ntag_21:\n    /* \"#utility.yul\":753:758   */\n  0x00\n    /* \"#utility.yul\":784:790   */\n  dup2\n    /* \"#utility.yul\":778:791   */\n  mload\n    /* \"#utility.yul\":769:791   */\n  swap1\n  pop\n    /* \"#utility.yul\":800:833   */\n  tag_33\n    /* \"#utility.yul\":827:832   */\n  dup2\n    /* \"#utility.yul\":800:833   */\n  tag_20\n  jump\t// in\ntag_33:\n    /* \"#utility.yul\":696:839   */\n  swap3\n  swap2\n  pop\n  pop\n  jump\t// out\n    /* \"#utility.yul\":845:1196   */\ntag_3:\n    /* \"#utility.yul\":915:921   */\n  0x00\n    /* \"#utility.yul\":964:966   */\n  0x20\n    /* \"#utility.yul\":952:961   */\n  dup3\n    /* \"#utility.yul\":943:950   */\n  dup5\n    /* \"#utility.yul\":939:962   */\n  sub\n    /* \"#utility.yul\":935:967   */\n  slt\n    /* \"#utility.yul\":932:1051   */\n  iszero\n  tag_35\n  jumpi\n    /* \"#utility.yul\":970:1049   */\n  tag_36\n  tag_16\n  jump\t// in\ntag_36:\n    /* \"#utility.yul\":932:1051   */\ntag_35:\n    /* \"#utility.yul\":1090:1091   */\n  0x00\n    /* \"#utility.yul\":1115:1179   */\n  tag_37\n    /* \"#utility.yul\":1171:1178   */\n  dup5\n    /* \"#utility.yul\":1162:1168   */\n  dup3\n    /* \"#utility.yul\":1151:1160   */\n  dup6\n    /* \"#utility.yul\":1147:1169   */\n  add\n    /* \"#utility.yul\":1115:1179   */\n  tag_21\n  jump\t// in\ntag_37:\n    /* \"#utility.yul\":1105:1179   */\n  swap2\n  pop\n    /* \"#utility.yul\":1061:1189   */\n  pop\n    /* \"#utility.yul\":845:1196   */\n  swap3\n  swap2\n  pop\n  pop\n  jump\t// out\n    /* \"FTOTrading.sol\":176:3069  contract FTOTrading is Ownable {... */\ntag_12:\n  dataSize(sub_0)\n  dup1\n  dataOffset(sub_0)\n  0x00\n  codecopy\n  0x00\n  return\nstop\n\nsub_0: assembly {\n        /* \"FTOTrading.sol\":176:3069  contract FTOTrading is Ownable {... */\n      mstore(0x40, 0x80)\n      callvalue\n      dup1\n      iszero\n      tag_1\n      jumpi\n      0x00\n      dup1\n      revert\n    tag_1:\n      pop\n      jumpi(tag_2, lt(calldatasize, 0x04))\n      shr(0xe0, calldataload(0x00))\n      dup1\n      0x715018a6\n      gt\n      tag_12\n      jumpi\n      dup1\n      0x715018a6\n      eq\n      tag_7\n      jumpi\n      dup1\n      0x8da5cb5b\n      eq\n      tag_8\n      jumpi\n      dup1\n      0xd09ef241\n      eq\n      tag_9\n      jumpi\n      dup1\n      0xd6e43585\n      eq\n      tag_10\n      jumpi\n      dup1\n      0xf2fde38b\n      eq\n      tag_11\n      jumpi\n      jump(tag_2)\n    tag_12:\n      dup1\n      0x2406e677\n      eq\n      tag_3\n      jumpi\n      dup1\n      0x4622c218\n      eq\n      tag_4\n      jumpi\n      dup1\n      0x514fcac7\n      eq\n      tag_5\n      jumpi\n      dup1\n      0x6311e830\n      eq\n      tag_6\n      jumpi\n    tag_2:\n      0x00\n      dup1\n      revert\n        /* \"FTOTrading.sol\":2706:3066  function listTokenForSale(uint256 tokenId, uint256 price) public returns (address) {... */\n    tag_3:\n      tag_13\n      0x04\n      dup1\n      calldatasize\n      sub\n      dup2\n      add\n      swap1\n      tag_14\n      swap2\n      swap1\n      tag_15\n      jump\t// in\n    tag_14:\n      tag_16\n      jump\t// in\n    tag_13:\n      mload(0x40)\n      tag_17\n      swap2\n      swap1\n      tag_18\n      jump\t// in\n    tag_17:\n      mload(0x40)\n      dup1\n      swap2\n      sub\n      swap1\n      return\n        /* \"FTOTrading.sol\":986:1535  function placeOrder(TokenType tokenType, uint256 tokenId, uint256 treeCount, uint256 price) public {... */\n    tag_4:\n      tag_19\n      0x04\n      dup1\n      calldatasize\n      sub\n      dup2\n      add\n      swap1\n      tag_20\n      swap2\n      swap1\n      tag_21\n      jump\t// in\n    tag_20:\n      tag_22\n      jump\t// in\n    tag_19:\n      stop\n        /* \"FTOTrading.sol\":1543:1920  function cancelOrder(uint256 tokenId) public {... */\n    tag_5:\n      tag_23\n      0x04\n      dup1\n      calldatasize\n      sub\n      dup2\n      add\n      swap1\n      tag_24\n      swap2\n      swap1\n      tag_25\n      jump\t// in\n    tag_24:\n      tag_26\n      jump\t// in\n    tag_23:\n      stop\n        /* \"FTOTrading.sol\":1928:2454  function fulfillOrder(uint256 tokenId) public {... */\n    tag_6:\n      tag_27\n      0x04\n      dup1\n      calldatasize\n      sub\n      dup2\n      add\n      swap1\n      tag_28\n      swap2\n      swap1\n      tag_25\n      jump\t// in\n    tag_28:\n      tag_29\n      jump\t// in\n    tag_27:\n      stop\n        /* \"@openzeppelin/contracts/access/Ownable.sol\":1831:1932  function renounceOwnership() public virtual onlyOwner {... */\n    tag_7:\n      tag_30\n      tag_31\n      jump\t// in\n    tag_30:\n      stop\n        /* \"@openzeppelin/contracts/access/Ownable.sol\":1201:1286  function owner() public view virtual returns (address) {... */\n    tag_8:\n      tag_32\n      tag_33\n      jump\t// in\n    tag_32:\n      mload(0x40)\n      tag_34\n      swap2\n      swap1\n      tag_18\n      jump\t// in\n    tag_34:\n      mload(0x40)\n      dup1\n      swap2\n      sub\n      swap1\n      return\n        /* \"FTOTrading.sol\":2462:2574  function getOrder(uint256 tokenId) public view returns (Order memory) {... */\n    tag_9:\n      tag_35\n      0x04\n      dup1\n      calldatasize\n      sub\n      dup2\n      add\n      swap1\n      tag_36\n      swap2\n      swap1\n      tag_25\n      jump\t// in\n    tag_36:\n      tag_37\n      jump\t// in\n    tag_35:\n      mload(0x40)\n      tag_38\n      swap2\n      swap1\n      tag_39\n      jump\t// in\n    tag_38:\n      mload(0x40)\n      dup1\n      swap2\n      sub\n      swap1\n      return\n        /* \"FTOTrading.sol\":2582:2698  function isOrderActive(uint256 tokenId) public view returns (bool) {... */\n    tag_10:\n      tag_40\n      0x04\n      dup1\n      calldatasize\n      sub\n      dup2\n      add\n      swap1\n      tag_41\n      swap2\n      swap1\n      tag_25\n      jump\t// in\n    tag_41:\n      tag_42\n      jump\t// in\n    tag_40:\n      mload(0x40)\n      tag_43\n      swap2\n      swap1\n      tag_44\n      jump\t// in\n    tag_43:\n      mload(0x40)\n      dup1\n      swap2\n      sub\n      swap1\n      return\n        /* \"@openzeppelin/contracts/access/Ownable.sol\":2081:2279  function transferOwnership(address newOwner) public virtual onlyOwner {... */\n    tag_11:\n      tag_45\n      0x04\n      dup1\n      calldatasize\n      sub\n      dup2\n      add\n      swap1\n      tag_46\n      swap2\n      swap1\n      tag_47\n      jump\t// in\n    tag_46:\n      tag_48\n      jump\t// in\n    tag_45:\n      stop\n        /* \"FTOTrading.sol\":2706:3066  function listTokenForSale(uint256 tokenId, uint256 price) public returns (address) {... */\n    tag_16:\n        /* \"FTOTrading.sol\":2780:2787  address */\n      0x00\n        /* \"FTOTrading.sol\":2800:2819  Order storage order */\n      dup1\n        /* \"FTOTrading.sol\":2822:2829  _orders */\n      0x01\n        /* \"FTOTrading.sol\":2822:2838  _orders[tokenId] */\n      0x00\n        /* \"FTOTrading.sol\":2830:2837  tokenId */\n      dup6\n        /* \"FTOTrading.sol\":2822:2838  _orders[tokenId] */\n      dup2\n      mstore\n      0x20\n      add\n      swap1\n      dup2\n      mstore\n      0x20\n      add\n      0x00\n      keccak256\n        /* \"FTOTrading.sol\":2800:2838  Order storage order = _orders[tokenId] */\n      swap1\n      pop\n        /* \"FTOTrading.sol\":2859:2864  order */\n      dup1\n        /* \"FTOTrading.sol\":2859:2871  order.active */\n      0x04\n      add\n      0x00\n      swap1\n      sload\n      swap1\n      0x0100\n      exp\n      swap1\n      div\n      0xff\n      and\n        /* \"FTOTrading.sol\":2851:2907  require(order.active, \"FTOTrading: Order is not active\") */\n      tag_50\n      jumpi\n      mload(0x40)\n      0x08c379a000000000000000000000000000000000000000000000000000000000\n      dup2\n      mstore\n      0x04\n      add\n      tag_51\n      swap1\n      tag_52\n      jump\t// in\n    tag_51:\n      mload(0x40)\n      dup1\n      swap2\n      sub\n      swap1\n      revert\n    tag_50:\n        /* \"FTOTrading.sol\":2942:2952  msg.sender */\n      caller\n        /* \"FTOTrading.sol\":2926:2952  order.seller == msg.sender */\n      0xffffffffffffffffffffffffffffffffffffffff\n      and\n        /* \"FTOTrading.sol\":2926:2931  order */\n      dup2\n        /* \"FTOTrading.sol\":2926:2938  order.seller */\n      0x00\n      add\n      0x01\n      swap1\n      sload\n      swap1\n      0x0100\n      exp\n      swap1\n      div\n      0xffffffffffffffffffffffffffffffffffffffff\n      and\n        /* \"FTOTrading.sol\":2926:2952  order.seller == msg.sender */\n      0xffffffffffffffffffffffffffffffffffffffff\n      and\n      eq\n        /* \"FTOTrading.sol\":2918:2993  require(order.seller == msg.sender, \"FTOTrading: Caller is not the seller\") */\n      tag_53\n      jumpi\n      mload(0x40)\n      0x08c379a000000000000000000000000000000000000000000000000000000000\n      dup2\n      mstore\n      0x04\n      add\n      tag_54\n      swap1\n      tag_55\n      jump\t// in\n    tag_54:\n      mload(0x40)\n      dup1\n      swap2\n      sub\n      swap1\n      revert\n    tag_53:\n        /* \"FTOTrading.sol\":3020:3025  price */\n      dup3\n        /* \"FTOTrading.sol\":3006:3011  order */\n      dup2\n        /* \"FTOTrading.sol\":3006:3017  order.price */\n      0x03\n      add\n        /* \"FTOTrading.sol\":3006:3025  order.price = price */\n      dup2\n      swap1\n      sstore\n      pop\n        /* \"FTOTrading.sol\":3053:3057  this */\n      address\n        /* \"FTOTrading.sol\":3038:3058  return address(this) */\n      swap2\n      pop\n      pop\n        /* \"FTOTrading.sol\":2706:3066  function listTokenForSale(uint256 tokenId, uint256 price) public returns (address) {... */\n      swap3\n      swap2\n      pop\n      pop\n      jump\t// out\n        /* \"FTOTrading.sol\":986:1535  function placeOrder(TokenType tokenType, uint256 tokenId, uint256 treeCount, uint256 price) public {... */\n    tag_22:\n        /* \"FTOTrading.sol\":1116:1117  0 */\n      0x00\n        /* \"FTOTrading.sol\":1104:1113  treeCount */\n      dup3\n        /* \"FTOTrading.sol\":1104:1117  treeCount > 0 */\n      gt\n        /* \"FTOTrading.sol\":1096:1152  require(treeCount > 0, \"FTOTrading: Invalid tree count\") */\n      tag_57\n      jumpi\n      mload(0x40)\n      0x08c379a000000000000000000000000000000000000000000000000000000000\n      dup2\n      mstore\n      0x04\n      add\n      tag_58\n      swap1\n      tag_59\n      jump\t// in\n    tag_58:\n      mload(0x40)\n      dup1\n      swap2\n      sub\n      swap1\n      revert\n    tag_57:\n        /* \"FTOTrading.sol\":1179:1180  0 */\n      0x00\n        /* \"FTOTrading.sol\":1171:1176  price */\n      dup2\n        /* \"FTOTrading.sol\":1171:1180  price > 0 */\n      gt\n        /* \"FTOTrading.sol\":1163:1210  require(price > 0, \"FTOTrading: Invalid price\") */\n      tag_60\n      jumpi\n      mload(0x40)\n      0x08c379a000000000000000000000000000000000000000000000000000000000\n      dup2\n      mstore\n      0x04\n      add\n      tag_61\n      swap1\n      tag_62\n      jump\t// in\n    tag_61:\n      mload(0x40)\n      dup1\n      swap2\n      sub\n      swap1\n      revert\n    tag_60:\n        /* \"FTOTrading.sol\":1242:1448  Order({... */\n      mload(0x40)\n      dup1\n      0xc0\n      add\n      0x40\n      mstore\n      dup1\n        /* \"FTOTrading.sol\":1274:1283  tokenType */\n      dup6\n        /* \"FTOTrading.sol\":1242:1448  Order({... */\n      0x01\n      dup2\n      gt\n      iszero\n      tag_63\n      jumpi\n      tag_64\n      tag_65\n      jump\t// in\n    tag_64:\n    tag_63:\n      dup2\n      mstore\n      0x20\n      add\n        /* \"FTOTrading.sol\":1306:1316  msg.sender */\n      caller\n        /* \"FTOTrading.sol\":1242:1448  Order({... */\n      0xffffffffffffffffffffffffffffffffffffffff\n      and\n      dup2\n      mstore\n      0x20\n      add\n        /* \"FTOTrading.sol\":1340:1347  tokenId */\n      dup5\n        /* \"FTOTrading.sol\":1242:1448  Order({... */\n      dup2\n      mstore\n      0x20\n      add\n        /* \"FTOTrading.sol\":1373:1382  treeCount */\n      dup4\n        /* \"FTOTrading.sol\":1242:1448  Order({... */\n      dup2\n      mstore\n      0x20\n      add\n        /* \"FTOTrading.sol\":1404:1409  price */\n      dup3\n        /* \"FTOTrading.sol\":1242:1448  Order({... */\n      dup2\n      mstore\n      0x20\n      add\n        /* \"FTOTrading.sol\":1432:1436  true */\n      0x01\n        /* \"FTOTrading.sol\":1242:1448  Order({... */\n      iszero\n      iszero\n      dup2\n      mstore\n      pop\n        /* \"FTOTrading.sol\":1223:1230  _orders */\n      0x01\n        /* \"FTOTrading.sol\":1223:1239  _orders[tokenId] */\n      0x00\n        /* \"FTOTrading.sol\":1231:1238  tokenId */\n      dup6\n        /* \"FTOTrading.sol\":1223:1239  _orders[tokenId] */\n      dup2\n      mstore\n      0x20\n      add\n      swap1\n      dup2\n      mstore\n      0x20\n      add\n      0x00\n      keccak256\n        /* \"FTOTrading.sol\":1223:1448  _orders[tokenId] = Order({... */\n      0x00\n      dup3\n      add\n      mload\n      dup2\n      0x00\n      add\n      exp(0x0100, 0x00)\n      dup2\n      sload\n      dup2\n      0xff\n      mul\n      not\n      and\n      swap1\n      dup4\n      0x01\n      dup2\n      gt\n      iszero\n      tag_66\n      jumpi\n      tag_67\n      tag_65\n      jump\t// in\n    tag_67:\n    tag_66:\n      mul\n      or\n      swap1\n      sstore\n      pop\n      0x20\n      dup3\n      add\n      mload\n      dup2\n      0x00\n      add\n      exp(0x0100, 0x01)\n      dup2\n      sload\n      dup2\n      0xffffffffffffffffffffffffffffffffffffffff\n      mul\n      not\n      and\n      swap1\n      dup4\n      0xffffffffffffffffffffffffffffffffffffffff\n      and\n      mul\n      or\n      swap1\n      sstore\n      pop\n      0x40\n      dup3\n      add\n      mload\n      dup2\n      0x01\n      add\n      sstore\n      0x60\n      dup3\n      add\n      mload\n      dup2\n      0x02\n      add\n      sstore\n      0x80\n      dup3\n      add\n      mload\n      dup2\n      0x03\n      add\n      sstore\n      0xa0\n      dup3\n      add\n      mload\n      dup2\n      0x04\n      add\n      exp(0x0100, 0x00)\n      dup2\n      sload\n      dup2\n      0xff\n      mul\n      not\n      and\n      swap1\n      dup4\n      iszero\n      iszero\n      mul\n      or\n      swap1\n      sstore\n      pop\n      swap1\n      pop\n      pop\n        /* \"FTOTrading.sol\":1516:1526  msg.sender */\n      caller\n        /* \"FTOTrading.sol\":1466:1527  OrderPlaced(tokenType, tokenId, treeCount, price, msg.sender) */\n      0xffffffffffffffffffffffffffffffffffffffff\n      and\n        /* \"FTOTrading.sol\":1489:1496  tokenId */\n      dup4\n        /* \"FTOTrading.sol\":1466:1527  OrderPlaced(tokenType, tokenId, treeCount, price, msg.sender) */\n      0x3bb14533dd010fdebae74ce4d0c92933a390fc1d1019ac0cd1466b52d1aad455\n        /* \"FTOTrading.sol\":1478:1487  tokenType */\n      dup7\n        /* \"FTOTrading.sol\":1498:1507  treeCount */\n      dup6\n        /* \"FTOTrading.sol\":1509:1514  price */\n      dup6\n        /* \"FTOTrading.sol\":1466:1527  OrderPlaced(tokenType, tokenId, treeCount, price, msg.sender) */\n      mload(0x40)\n      tag_68\n      swap4\n      swap3\n      swap2\n      swap1\n      tag_69\n      jump\t// in\n    tag_68:\n      mload(0x40)\n      dup1\n      swap2\n      sub\n      swap1\n      log3\n        /* \"FTOTrading.sol\":986:1535  function placeOrder(TokenType tokenType, uint256 tokenId, uint256 treeCount, uint256 price) public {... */\n      pop\n      pop\n      pop\n      pop\n      jump\t// out\n        /* \"FTOTrading.sol\":1543:1920  function cancelOrder(uint256 tokenId) public {... */\n    tag_26:\n        /* \"FTOTrading.sol\":1599:1618  Order storage order */\n      0x00\n        /* \"FTOTrading.sol\":1621:1628  _orders */\n      0x01\n        /* \"FTOTrading.sol\":1621:1637  _orders[tokenId] */\n      0x00\n        /* \"FTOTrading.sol\":1629:1636  tokenId */\n      dup4\n        /* \"FTOTrading.sol\":1621:1637  _orders[tokenId] */\n      dup2\n      mstore\n      0x20\n      add\n      swap1\n      dup2\n      mstore\n      0x20\n      add\n      0x00\n      keccak256\n        /* \"FTOTrading.sol\":1599:1637  Order storage order = _orders[tokenId] */\n      swap1\n      pop\n        /* \"FTOTrading.sol\":1658:1663  order */\n      dup1\n        /* \"FTOTrading.sol\":1658:1670  order.active */\n      0x04\n      add\n      0x00\n      swap1\n      sload\n      swap1\n      0x0100\n      exp\n      swap1\n      div\n      0xff\n      and\n        /* \"FTOTrading.sol\":1650:1706  require(order.active, \"FTOTrading: Order is not active\") */\n      tag_71\n      jumpi\n      mload(0x40)\n      0x08c379a000000000000000000000000000000000000000000000000000000000\n      dup2\n      mstore\n      0x04\n      add\n      tag_72\n      swap1\n      tag_52\n      jump\t// in\n    tag_72:\n      mload(0x40)\n      dup1\n      swap2\n      sub\n      swap1\n      revert\n    tag_71:\n        /* \"FTOTrading.sol\":1741:1751  msg.sender */\n      caller\n        /* \"FTOTrading.sol\":1725:1751  order.seller == msg.sender */\n      0xffffffffffffffffffffffffffffffffffffffff\n      and\n        /* \"FTOTrading.sol\":1725:1730  order */\n      dup2\n        /* \"FTOTrading.sol\":1725:1737  order.seller */\n      0x00\n      add\n      0x01\n      swap1\n      sload\n      swap1\n      0x0100\n      exp\n      swap1\n      div\n      0xffffffffffffffffffffffffffffffffffffffff\n      and\n        /* \"FTOTrading.sol\":1725:1751  order.seller == msg.sender */\n      0xffffffffffffffffffffffffffffffffffffffff\n      and\n      eq\n        /* \"FTOTrading.sol\":1717:1792  require(order.seller == msg.sender, \"FTOTrading: Caller is not the seller\") */\n      tag_73\n      jumpi\n      mload(0x40)\n      0x08c379a000000000000000000000000000000000000000000000000000000000\n      dup2\n      mstore\n      0x04\n      add\n      tag_74\n      swap1\n      tag_55\n      jump\t// in\n    tag_74:\n      mload(0x40)\n      dup1\n      swap2\n      sub\n      swap1\n      revert\n    tag_73:\n        /* \"FTOTrading.sol\":1820:1825  false */\n      0x00\n        /* \"FTOTrading.sol\":1805:1810  order */\n      dup2\n        /* \"FTOTrading.sol\":1805:1817  order.active */\n      0x04\n      add\n      0x00\n        /* \"FTOTrading.sol\":1805:1825  order.active = false */\n      0x0100\n      exp\n      dup2\n      sload\n      dup2\n      0xff\n      mul\n      not\n      and\n      swap1\n      dup4\n      iszero\n      iszero\n      mul\n      or\n      swap1\n      sstore\n      pop\n        /* \"FTOTrading.sol\":1901:1911  msg.sender */\n      caller\n        /* \"FTOTrading.sol\":1843:1912  OrderCancelled(order.tokenType, tokenId, order.treeCount, msg.sender) */\n      0xffffffffffffffffffffffffffffffffffffffff\n      and\n        /* \"FTOTrading.sol\":1875:1882  tokenId */\n      dup3\n        /* \"FTOTrading.sol\":1843:1912  OrderCancelled(order.tokenType, tokenId, order.treeCount, msg.sender) */\n      0x64d4b370403f8b7936be15f54e718f3230214e115ff3e05e524f7021212f0685\n        /* \"FTOTrading.sol\":1858:1863  order */\n      dup4\n        /* \"FTOTrading.sol\":1858:1873  order.tokenType */\n      0x00\n      add\n      0x00\n      swap1\n      sload\n      swap1\n      0x0100\n      exp\n      swap1\n      div\n      0xff\n      and\n        /* \"FTOTrading.sol\":1884:1889  order */\n      dup5\n        /* \"FTOTrading.sol\":1884:1899  order.treeCount */\n      0x02\n      add\n      sload\n        /* \"FTOTrading.sol\":1843:1912  OrderCancelled(order.tokenType, tokenId, order.treeCount, msg.sender) */\n      mload(0x40)\n      tag_75\n      swap3\n      swap2\n      swap1\n      tag_76\n      jump\t// in\n    tag_75:\n      mload(0x40)\n      dup1\n      swap2\n      sub\n      swap1\n      log3\n        /* \"FTOTrading.sol\":1588:1920  {... */\n      pop\n        /* \"FTOTrading.sol\":1543:1920  function cancelOrder(uint256 tokenId) public {... */\n      pop\n      jump\t// out\n        /* \"FTOTrading.sol\":1928:2454  function fulfillOrder(uint256 tokenId) public {... */\n    tag_29:\n        /* \"FTOTrading.sol\":1985:2004  Order storage order */\n      0x00\n        /* \"FTOTrading.sol\":2007:2014  _orders */\n      0x01\n        /* \"FTOTrading.sol\":2007:2023  _orders[tokenId] */\n      0x00\n        /* \"FTOTrading.sol\":2015:2022  tokenId */\n      dup4\n        /* \"FTOTrading.sol\":2007:2023  _orders[tokenId] */\n      dup2\n      mstore\n      0x20\n      add\n      swap1\n      dup2\n      mstore\n      0x20\n      add\n      0x00\n      keccak256\n        /* \"FTOTrading.sol\":1985:2023  Order storage order = _orders[tokenId] */\n      swap1\n      pop\n        /* \"FTOTrading.sol\":2044:2049  order */\n      dup1\n        /* \"FTOTrading.sol\":2044:2056  order.active */\n      0x04\n      add\n      0x00\n      swap1\n      sload\n      swap1\n      0x0100\n      exp\n      swap1\n      div\n      0xff\n      and\n        /* \"FTOTrading.sol\":2036:2092  require(order.active, \"FTOTrading: Order is not active\") */\n      tag_78\n      jumpi\n      mload(0x40)\n      0x08c379a000000000000000000000000000000000000000000000000000000000\n      dup2\n      mstore\n      0x04\n      add\n      tag_79\n      swap1\n      tag_52\n      jump\t// in\n    tag_79:\n      mload(0x40)\n      dup1\n      swap2\n      sub\n      swap1\n      revert\n    tag_78:\n        /* \"FTOTrading.sol\":2127:2137  msg.sender */\n      caller\n        /* \"FTOTrading.sol\":2111:2137  order.seller != msg.sender */\n      0xffffffffffffffffffffffffffffffffffffffff\n      and\n        /* \"FTOTrading.sol\":2111:2116  order */\n      dup2\n        /* \"FTOTrading.sol\":2111:2123  order.seller */\n      0x00\n      add\n      0x01\n      swap1\n      sload\n      swap1\n      0x0100\n      exp\n      swap1\n      div\n      0xffffffffffffffffffffffffffffffffffffffff\n      and\n        /* \"FTOTrading.sol\":2111:2137  order.seller != msg.sender */\n      0xffffffffffffffffffffffffffffffffffffffff\n      and\n      sub\n        /* \"FTOTrading.sol\":2103:2174  require(order.seller != msg.sender, \"FTOTrading: Caller is the seller\") */\n      tag_80\n      jumpi\n      mload(0x40)\n      0x08c379a000000000000000000000000000000000000000000000000000000000\n      dup2\n      mstore\n      0x04\n      add\n      tag_81\n      swap1\n      tag_82\n      jump\t// in\n    tag_81:\n      mload(0x40)\n      dup1\n      swap2\n      sub\n      swap1\n      revert\n    tag_80:\n        /* \"FTOTrading.sol\":2187:2206  uint256 totalAmount */\n      0x00\n        /* \"FTOTrading.sol\":2223:2228  order */\n      dup2\n        /* \"FTOTrading.sol\":2223:2238  order.treeCount */\n      0x02\n      add\n      sload\n        /* \"FTOTrading.sol\":2209:2214  order */\n      dup3\n        /* \"FTOTrading.sol\":2209:2220  order.price */\n      0x03\n      add\n      sload\n        /* \"FTOTrading.sol\":2209:2238  order.price * order.treeCount */\n      tag_83\n      swap2\n      swap1\n      tag_84\n      jump\t// in\n    tag_83:\n        /* \"FTOTrading.sol\":2187:2238  uint256 totalAmount = order.price * order.treeCount */\n      swap1\n      pop\n        /* \"FTOTrading.sol\":2251:2260  _ftoToken */\n      0x02\n      0x00\n      swap1\n      sload\n      swap1\n      0x0100\n      exp\n      swap1\n      div\n      0xffffffffffffffffffffffffffffffffffffffff\n      and\n        /* \"FTOTrading.sol\":2251:2273  _ftoToken.transferFrom */\n      0xffffffffffffffffffffffffffffffffffffffff\n      and\n      0x23b872dd\n        /* \"FTOTrading.sol\":2274:2284  msg.sender */\n      caller\n        /* \"FTOTrading.sol\":2286:2291  order */\n      dup5\n        /* \"FTOTrading.sol\":2286:2298  order.seller */\n      0x00\n      add\n      0x01\n      swap1\n      sload\n      swap1\n      0x0100\n      exp\n      swap1\n      div\n      0xffffffffffffffffffffffffffffffffffffffff\n      and\n        /* \"FTOTrading.sol\":2300:2311  totalAmount */\n      dup5\n        /* \"FTOTrading.sol\":2251:2312  _ftoToken.transferFrom(msg.sender, order.seller, totalAmount) */\n      mload(0x40)\n      dup5\n      0xffffffff\n      and\n      0xe0\n      shl\n      dup2\n      mstore\n      0x04\n      add\n      tag_85\n      swap4\n      swap3\n      swap2\n      swap1\n      tag_86\n      jump\t// in\n    tag_85:\n      0x20\n      mload(0x40)\n      dup1\n      dup4\n      sub\n      dup2\n      0x00\n      dup8\n      gas\n      call\n      iszero\n      dup1\n      iszero\n      tag_88\n      jumpi\n      returndatasize\n      0x00\n      dup1\n      returndatacopy\n      revert(0x00, returndatasize)\n    tag_88:\n      pop\n      pop\n      pop\n      pop\n      mload(0x40)\n      returndatasize\n      not(0x1f)\n      0x1f\n      dup3\n      add\n      and\n      dup3\n      add\n      dup1\n      0x40\n      mstore\n      pop\n      dup2\n      add\n      swap1\n      tag_89\n      swap2\n      swap1\n      tag_90\n      jump\t// in\n    tag_89:\n      pop\n        /* \"FTOTrading.sol\":2340:2345  false */\n      0x00\n        /* \"FTOTrading.sol\":2325:2330  order */\n      dup3\n        /* \"FTOTrading.sol\":2325:2337  order.active */\n      0x04\n      add\n      0x00\n        /* \"FTOTrading.sol\":2325:2345  order.active = false */\n      0x0100\n      exp\n      dup2\n      sload\n      dup2\n      0xff\n      mul\n      not\n      and\n      swap1\n      dup4\n      iszero\n      iszero\n      mul\n      or\n      swap1\n      sstore\n      pop\n        /* \"FTOTrading.sol\":2435:2445  msg.sender */\n      caller\n        /* \"FTOTrading.sol\":2363:2446  OrderFulfilled(order.tokenType, tokenId, order.treeCount, order.seller, msg.sender) */\n      0xffffffffffffffffffffffffffffffffffffffff\n      and\n        /* \"FTOTrading.sol\":2421:2426  order */\n      dup3\n        /* \"FTOTrading.sol\":2421:2433  order.seller */\n      0x00\n      add\n      0x01\n      swap1\n      sload\n      swap1\n      0x0100\n      exp\n      swap1\n      div\n      0xffffffffffffffffffffffffffffffffffffffff\n      and\n        /* \"FTOTrading.sol\":2363:2446  OrderFulfilled(order.tokenType, tokenId, order.treeCount, order.seller, msg.sender) */\n      0xffffffffffffffffffffffffffffffffffffffff\n      and\n        /* \"FTOTrading.sol\":2395:2402  tokenId */\n      dup5\n        /* \"FTOTrading.sol\":2363:2446  OrderFulfilled(order.tokenType, tokenId, order.treeCount, order.seller, msg.sender) */\n      0x705a7c908bf1604651e9a1b99dc166aba2660891e3d584c0edaea07a47b215bb\n        /* \"FTOTrading.sol\":2378:2383  order */\n      dup6\n        /* \"FTOTrading.sol\":2378:2393  order.tokenType */\n      0x00\n      add\n      0x00\n      swap1\n      sload\n      swap1\n      0x0100\n      exp\n      swap1\n      div\n      0xff\n      and\n        /* \"FTOTrading.sol\":2404:2409  order */\n      dup7\n        /* \"FTOTrading.sol\":2404:2419  order.treeCount */\n      0x02\n      add\n      sload\n        /* \"FTOTrading.sol\":2363:2446  OrderFulfilled(order.tokenType, tokenId, order.treeCount, order.seller, msg.sender) */\n      mload(0x40)\n      tag_91\n      swap3\n      swap2\n      swap1\n      tag_76\n      jump\t// in\n    tag_91:\n      mload(0x40)\n      dup1\n      swap2\n      sub\n      swap1\n      log4\n        /* \"FTOTrading.sol\":1974:2454  {... */\n      pop\n      pop\n        /* \"FTOTrading.sol\":1928:2454  function fulfillOrder(uint256 tokenId) public {... */\n      pop\n      jump\t// out\n        /* \"@openzeppelin/contracts/access/Ownable.sol\":1831:1932  function renounceOwnership() public virtual onlyOwner {... */\n    tag_31:\n        /* \"@openzeppelin/contracts/access/Ownable.sol\":1094:1107  _checkOwner() */\n      tag_93\n        /* \"@openzeppelin/contracts/access/Ownable.sol\":1094:1105  _checkOwner */\n      tag_94\n        /* \"@openzeppelin/contracts/access/Ownable.sol\":1094:1107  _checkOwner() */\n      jump\t// in\n    tag_93:\n        /* \"@openzeppelin/contracts/access/Ownable.sol\":1895:1925  _transferOwnership(address(0)) */\n      tag_96\n        /* \"@openzeppelin/contracts/access/Ownable.sol\":1922:1923  0 */\n      0x00\n        /* \"@openzeppelin/contracts/access/Ownable.sol\":1895:1913  _transferOwnership */\n      tag_97\n        /* \"@openzeppelin/contracts/access/Ownable.sol\":1895:1925  _transferOwnership(address(0)) */\n      jump\t// in\n    tag_96:\n        /* \"@openzeppelin/contracts/access/Ownable.sol\":1831:1932  function renounceOwnership() public virtual onlyOwner {... */\n      jump\t// out\n        /* \"@openzeppelin/contracts/access/Ownable.sol\":1201:1286  function owner() public view virtual returns (address) {... */\n    tag_33:\n        /* \"@openzeppelin/contracts/access/Ownable.sol\":1247:1254  address */\n      0x00\n        /* \"@openzeppelin/contracts/access/Ownable.sol\":1273:1279  _owner */\n      dup1\n      0x00\n      swap1\n      sload\n      swap1\n      0x0100\n      exp\n      swap1\n      div\n      0xffffffffffffffffffffffffffffffffffffffff\n      and\n        /* \"@openzeppelin/contracts/access/Ownable.sol\":1266:1279  return _owner */\n      swap1\n      pop\n        /* \"@openzeppelin/contracts/access/Ownable.sol\":1201:1286  function owner() public view virtual returns (address) {... */\n      swap1\n      jump\t// out\n        /* \"FTOTrading.sol\":2462:2574  function getOrder(uint256 tokenId) public view returns (Order memory) {... */\n    tag_37:\n        /* \"FTOTrading.sol\":2518:2530  Order memory */\n      tag_99\n      tag_100\n      jump\t// in\n    tag_99:\n        /* \"FTOTrading.sol\":2550:2557  _orders */\n      0x01\n        /* \"FTOTrading.sol\":2550:2566  _orders[tokenId] */\n      0x00\n        /* \"FTOTrading.sol\":2558:2565  tokenId */\n      dup4\n        /* \"FTOTrading.sol\":2550:2566  _orders[tokenId] */\n      dup2\n      mstore\n      0x20\n      add\n      swap1\n      dup2\n      mstore\n      0x20\n      add\n      0x00\n      keccak256\n        /* \"FTOTrading.sol\":2543:2566  return _orders[tokenId] */\n      mload(0x40)\n      dup1\n      0xc0\n      add\n      0x40\n      mstore\n      swap1\n      dup2\n      0x00\n      dup3\n      add\n      0x00\n      swap1\n      sload\n      swap1\n      0x0100\n      exp\n      swap1\n      div\n      0xff\n      and\n      0x01\n      dup2\n      gt\n      iszero\n      tag_102\n      jumpi\n      tag_103\n      tag_65\n      jump\t// in\n    tag_103:\n    tag_102:\n      0x01\n      dup2\n      gt\n      iszero\n      tag_104\n      jumpi\n      tag_105\n      tag_65\n      jump\t// in\n    tag_105:\n    tag_104:\n      dup2\n      mstore\n      0x20\n      add\n      0x00\n      dup3\n      add\n      0x01\n      swap1\n      sload\n      swap1\n      0x0100\n      exp\n      swap1\n      div\n      0xffffffffffffffffffffffffffffffffffffffff\n      and\n      0xffffffffffffffffffffffffffffffffffffffff\n      and\n      0xffffffffffffffffffffffffffffffffffffffff\n      and\n      dup2\n      mstore\n      0x20\n      add\n      0x01\n      dup3\n      add\n      sload\n      dup2\n      mstore\n      0x20\n      add\n      0x02\n      dup3\n      add\n      sload\n      dup2\n      mstore\n      0x20\n      add\n      0x03\n      dup3\n      add\n      sload\n      dup2\n      mstore\n      0x20\n      add\n      0x04\n      dup3\n      add\n      0x00\n      swap1\n      sload\n      swap1\n      0x0100\n      exp\n      swap1\n      div\n      0xff\n      and\n      iszero\n      iszero\n      iszero\n      iszero\n      dup2\n      mstore\n      pop\n      pop\n      swap1\n      pop\n        /* \"FTOTrading.sol\":2462:2574  function getOrder(uint256 tokenId) public view returns (Order memory) {... */\n      swap2\n      swap1\n      pop\n      jump\t// out\n        /* \"FTOTrading.sol\":2582:2698  function isOrderActive(uint256 tokenId) public view returns (bool) {... */\n    tag_42:\n        /* \"FTOTrading.sol\":2643:2647  bool */\n      0x00\n        /* \"FTOTrading.sol\":2667:2674  _orders */\n      0x01\n        /* \"FTOTrading.sol\":2667:2683  _orders[tokenId] */\n      0x00\n        /* \"FTOTrading.sol\":2675:2682  tokenId */\n      dup4\n        /* \"FTOTrading.sol\":2667:2683  _orders[tokenId] */\n      dup2\n      mstore\n      0x20\n      add\n      swap1\n      dup2\n      mstore\n      0x20\n      add\n      0x00\n      keccak256\n        /* \"FTOTrading.sol\":2667:2690  _orders[tokenId].active */\n      0x04\n      add\n      0x00\n      swap1\n      sload\n      swap1\n      0x0100\n      exp\n      swap1\n      div\n      0xff\n      and\n        /* \"FTOTrading.sol\":2660:2690  return _orders[tokenId].active */\n      swap1\n      pop\n        /* \"FTOTrading.sol\":2582:2698  function isOrderActive(uint256 tokenId) public view returns (bool) {... */\n      swap2\n      swap1\n      pop\n      jump\t// out\n        /* \"@openzeppelin/contracts/access/Ownable.sol\":2081:2279  function transferOwnership(address newOwner) public virtual onlyOwner {... */\n    tag_48:\n        /* \"@openzeppelin/contracts/access/Ownable.sol\":1094:1107  _checkOwner() */\n      tag_108\n        /* \"@openzeppelin/contracts/access/Ownable.sol\":1094:1105  _checkOwner */\n      tag_94\n        /* \"@openzeppelin/contracts/access/Ownable.sol\":1094:1107  _checkOwner() */\n      jump\t// in\n    tag_108:\n        /* \"@openzeppelin/contracts/access/Ownable.sol\":2189:2190  0 */\n      0x00\n        /* \"@openzeppelin/contracts/access/Ownable.sol\":2169:2191  newOwner != address(0) */\n      0xffffffffffffffffffffffffffffffffffffffff\n      and\n        /* \"@openzeppelin/contracts/access/Ownable.sol\":2169:2177  newOwner */\n      dup2\n        /* \"@openzeppelin/contracts/access/Ownable.sol\":2169:2191  newOwner != address(0) */\n      0xffffffffffffffffffffffffffffffffffffffff\n      and\n      sub\n        /* \"@openzeppelin/contracts/access/Ownable.sol\":2161:2234  require(newOwner != address(0), \"Ownable: new owner is the zero address\") */\n      tag_110\n      jumpi\n      mload(0x40)\n      0x08c379a000000000000000000000000000000000000000000000000000000000\n      dup2\n      mstore\n      0x04\n      add\n      tag_111\n      swap1\n      tag_112\n      jump\t// in\n    tag_111:\n      mload(0x40)\n      dup1\n      swap2\n      sub\n      swap1\n      revert\n    tag_110:\n        /* \"@openzeppelin/contracts/access/Ownable.sol\":2244:2272  _transferOwnership(newOwner) */\n      tag_113\n        /* \"@openzeppelin/contracts/access/Ownable.sol\":2263:2271  newOwner */\n      dup2\n        /* \"@openzeppelin/contracts/access/Ownable.sol\":2244:2262  _transferOwnership */\n      tag_97\n        /* \"@openzeppelin/contracts/access/Ownable.sol\":2244:2272  _transferOwnership(newOwner) */\n      jump\t// in\n    tag_113:\n        /* \"@openzeppelin/contracts/access/Ownable.sol\":2081:2279  function transferOwnership(address newOwner) public virtual onlyOwner {... */\n      pop\n      jump\t// out\n        /* \"@openzeppelin/contracts/access/Ownable.sol\":1359:1489  function _checkOwner() internal view virtual {... */\n    tag_94:\n        /* \"@openzeppelin/contracts/access/Ownable.sol\":1433:1445  _msgSender() */\n      tag_115\n        /* \"@openzeppelin/contracts/access/Ownable.sol\":1433:1443  _msgSender */\n      tag_116\n        /* \"@openzeppelin/contracts/access/Ownable.sol\":1433:1445  _msgSender() */\n      jump\t// in\n    tag_115:\n        /* \"@openzeppelin/contracts/access/Ownable.sol\":1422:1445  owner() == _msgSender() */\n      0xffffffffffffffffffffffffffffffffffffffff\n      and\n        /* \"@openzeppelin/contracts/access/Ownable.sol\":1422:1429  owner() */\n      tag_117\n        /* \"@openzeppelin/contracts/access/Ownable.sol\":1422:1427  owner */\n      tag_33\n        /* \"@openzeppelin/contracts/access/Ownable.sol\":1422:1429  owner() */\n      jump\t// in\n    tag_117:\n        /* \"@openzeppelin/contracts/access/Ownable.sol\":1422:1445  owner() == _msgSender() */\n      0xffffffffffffffffffffffffffffffffffffffff\n      and\n      eq\n        /* \"@openzeppelin/contracts/access/Ownable.sol\":1414:1482  require(owner() == _msgSender(), \"Ownable: caller is not the owner\") */\n      tag_118\n      jumpi\n      mload(0x40)\n      0x08c379a000000000000000000000000000000000000000000000000000000000\n      dup2\n      mstore\n      0x04\n      add\n      tag_119\n      swap1\n      tag_120\n      jump\t// in\n    tag_119:\n      mload(0x40)\n      dup1\n      swap2\n      sub\n      swap1\n      revert\n    tag_118:\n        /* \"@openzeppelin/contracts/access/Ownable.sol\":1359:1489  function _checkOwner() internal view virtual {... */\n      jump\t// out\n        /* \"@openzeppelin/contracts/access/Ownable.sol\":2433:2620  function _transferOwnership(address newOwner) internal virtual {... */\n    tag_97:\n        /* \"@openzeppelin/contracts/access/Ownable.sol\":2506:2522  address oldOwner */\n      0x00\n        /* \"@openzeppelin/contracts/access/Ownable.sol\":2525:2531  _owner */\n      dup1\n      0x00\n      swap1\n      sload\n      swap1\n      0x0100\n      exp\n      swap1\n      div\n      0xffffffffffffffffffffffffffffffffffffffff\n      and\n        /* \"@openzeppelin/contracts/access/Ownable.sol\":2506:2531  address oldOwner = _owner */\n      swap1\n      pop\n        /* \"@openzeppelin/contracts/access/Ownable.sol\":2550:2558  newOwner */\n      dup2\n        /* \"@openzeppelin/contracts/access/Ownable.sol\":2541:2547  _owner */\n      0x00\n      dup1\n        /* \"@openzeppelin/contracts/access/Ownable.sol\":2541:2558  _owner = newOwner */\n      0x0100\n      exp\n      dup2\n      sload\n      dup2\n      0xffffffffffffffffffffffffffffffffffffffff\n      mul\n      not\n      and\n      swap1\n      dup4\n      0xffffffffffffffffffffffffffffffffffffffff\n      and\n      mul\n      or\n      swap1\n      sstore\n      pop\n        /* \"@openzeppelin/contracts/access/Ownable.sol\":2604:2612  newOwner */\n      dup2\n        /* \"@openzeppelin/contracts/access/Ownable.sol\":2573:2613  OwnershipTransferred(oldOwner, newOwner) */\n      0xffffffffffffffffffffffffffffffffffffffff\n      and\n        /* \"@openzeppelin/contracts/access/Ownable.sol\":2594:2602  oldOwner */\n      dup2\n        /* \"@openzeppelin/contracts/access/Ownable.sol\":2573:2613  OwnershipTransferred(oldOwner, newOwner) */\n      0xffffffffffffffffffffffffffffffffffffffff\n      and\n      0x8be0079c531659141344cd1fd0a4f28419497f9722a3daafe3b4186f6b6457e0\n      mload(0x40)\n      mload(0x40)\n      dup1\n      swap2\n      sub\n      swap1\n      log3\n        /* \"@openzeppelin/contracts/access/Ownable.sol\":2496:2620  {... */\n      pop\n        /* \"@openzeppelin/contracts/access/Ownable.sol\":2433:2620  function _transferOwnership(address newOwner) internal virtual {... */\n      pop\n      jump\t// out\n        /* \"@openzeppelin/contracts/utils/Context.sol\":640:736  function _msgSender() internal view virtual returns (address) {... */\n    tag_116:\n        /* \"@openzeppelin/contracts/utils/Context.sol\":693:700  address */\n      0x00\n        /* \"@openzeppelin/contracts/utils/Context.sol\":719:729  msg.sender */\n      caller\n        /* \"@openzeppelin/contracts/utils/Context.sol\":712:729  return msg.sender */\n      swap1\n      pop\n        /* \"@openzeppelin/contracts/utils/Context.sol\":640:736  function _msgSender() internal view virtual returns (address) {... */\n      swap1\n      jump\t// out\n    tag_100:\n      mload(0x40)\n      dup1\n      0xc0\n      add\n      0x40\n      mstore\n      dup1\n      0x00\n      0x01\n      dup2\n      gt\n      iszero\n      tag_123\n      jumpi\n      tag_124\n      tag_65\n      jump\t// in\n    tag_124:\n    tag_123:\n      dup2\n      mstore\n      0x20\n      add\n      and(0xffffffffffffffffffffffffffffffffffffffff, 0x00)\n      dup2\n      mstore\n      0x20\n      add\n      0x00\n      dup2\n      mstore\n      0x20\n      add\n      0x00\n      dup2\n      mstore\n      0x20\n      add\n      0x00\n      dup2\n      mstore\n      0x20\n      add\n      iszero(iszero(0x00))\n      dup2\n      mstore\n      pop\n      swap1\n      jump\t// out\n        /* \"#utility.yul\":88:205   */\n    tag_126:\n        /* \"#utility.yul\":197:198   */\n      0x00\n        /* \"#utility.yul\":194:195   */\n      dup1\n        /* \"#utility.yul\":187:199   */\n      revert\n        /* \"#utility.yul\":334:411   */\n    tag_128:\n        /* \"#utility.yul\":371:378   */\n      0x00\n        /* \"#utility.yul\":400:405   */\n      dup2\n        /* \"#utility.yul\":389:405   */\n      swap1\n      pop\n        /* \"#utility.yul\":334:411   */\n      swap2\n      swap1\n      pop\n      jump\t// out\n        /* \"#utility.yul\":417:539   */\n    tag_129:\n        /* \"#utility.yul\":490:514   */\n      tag_174\n        /* \"#utility.yul\":508:513   */\n      dup2\n        /* \"#utility.yul\":490:514   */\n      tag_128\n      jump\t// in\n    tag_174:\n        /* \"#utility.yul\":483:488   */\n      dup2\n        /* \"#utility.yul\":480:515   */\n      eq\n        /* \"#utility.yul\":470:533   */\n      tag_175\n      jumpi\n        /* \"#utility.yul\":529:530   */\n      0x00\n        /* \"#utility.yul\":526:527   */\n      dup1\n        /* \"#utility.yul\":519:531   */\n      revert\n        /* \"#utility.yul\":470:533   */\n    tag_175:\n        /* \"#utility.yul\":417:539   */\n      pop\n      jump\t// out\n        /* \"#utility.yul\":545:684   */\n    tag_130:\n        /* \"#utility.yul\":591:596   */\n      0x00\n        /* \"#utility.yul\":629:635   */\n      dup2\n        /* \"#utility.yul\":616:636   */\n      calldataload\n        /* \"#utility.yul\":607:636   */\n      swap1\n      pop\n        /* \"#utility.yul\":645:678   */\n      tag_177\n        /* \"#utility.yul\":672:677   */\n      dup2\n        /* \"#utility.yul\":645:678   */\n      tag_129\n      jump\t// in\n    tag_177:\n        /* \"#utility.yul\":545:684   */\n      swap3\n      swap2\n      pop\n      pop\n      jump\t// out\n        /* \"#utility.yul\":690:1164   */\n    tag_15:\n        /* \"#utility.yul\":758:764   */\n      0x00\n        /* \"#utility.yul\":766:772   */\n      dup1\n        /* \"#utility.yul\":815:817   */\n      0x40\n        /* \"#utility.yul\":803:812   */\n      dup4\n        /* \"#utility.yul\":794:801   */\n      dup6\n        /* \"#utility.yul\":790:813   */\n      sub\n        /* \"#utility.yul\":786:818   */\n      slt\n        /* \"#utility.yul\":783:902   */\n      iszero\n      tag_179\n      jumpi\n        /* \"#utility.yul\":821:900   */\n      tag_180\n      tag_126\n      jump\t// in\n    tag_180:\n        /* \"#utility.yul\":783:902   */\n    tag_179:\n        /* \"#utility.yul\":941:942   */\n      0x00\n        /* \"#utility.yul\":966:1019   */\n      tag_181\n        /* \"#utility.yul\":1011:1018   */\n      dup6\n        /* \"#utility.yul\":1002:1008   */\n      dup3\n        /* \"#utility.yul\":991:1000   */\n      dup7\n        /* \"#utility.yul\":987:1009   */\n      add\n        /* \"#utility.yul\":966:1019   */\n      tag_130\n      jump\t// in\n    tag_181:\n        /* \"#utility.yul\":956:1019   */\n      swap3\n      pop\n        /* \"#utility.yul\":912:1029   */\n      pop\n        /* \"#utility.yul\":1068:1070   */\n      0x20\n        /* \"#utility.yul\":1094:1147   */\n      tag_182\n        /* \"#utility.yul\":1139:1146   */\n      dup6\n        /* \"#utility.yul\":1130:1136   */\n      dup3\n        /* \"#utility.yul\":1119:1128   */\n      dup7\n        /* \"#utility.yul\":1115:1137   */\n      add\n        /* \"#utility.yul\":1094:1147   */\n      tag_130\n      jump\t// in\n    tag_182:\n        /* \"#utility.yul\":1084:1147   */\n      swap2\n      pop\n        /* \"#utility.yul\":1039:1157   */\n      pop\n        /* \"#utility.yul\":690:1164   */\n      swap3\n      pop\n      swap3\n      swap1\n      pop\n      jump\t// out\n        /* \"#utility.yul\":1170:1296   */\n    tag_131:\n        /* \"#utility.yul\":1207:1214   */\n      0x00\n        /* \"#utility.yul\":1247:1289   */\n      0xffffffffffffffffffffffffffffffffffffffff\n        /* \"#utility.yul\":1240:1245   */\n      dup3\n        /* \"#utility.yul\":1236:1290   */\n      and\n        /* \"#utility.yul\":1225:1290   */\n      swap1\n      pop\n        /* \"#utility.yul\":1170:1296   */\n      swap2\n      swap1\n      pop\n      jump\t// out\n        /* \"#utility.yul\":1302:1398   */\n    tag_132:\n        /* \"#utility.yul\":1339:1346   */\n      0x00\n        /* \"#utility.yul\":1368:1392   */\n      tag_185\n        /* \"#utility.yul\":1386:1391   */\n      dup3\n        /* \"#utility.yul\":1368:1392   */\n      tag_131\n      jump\t// in\n    tag_185:\n        /* \"#utility.yul\":1357:1392   */\n      swap1\n      pop\n        /* \"#utility.yul\":1302:1398   */\n      swap2\n      swap1\n      pop\n      jump\t// out\n        /* \"#utility.yul\":1404:1522   */\n    tag_133:\n        /* \"#utility.yul\":1491:1515   */\n      tag_187\n        /* \"#utility.yul\":1509:1514   */\n      dup2\n        /* \"#utility.yul\":1491:1515   */\n      tag_132\n      jump\t// in\n    tag_187:\n        /* \"#utility.yul\":1486:1489   */\n      dup3\n        /* \"#utility.yul\":1479:1516   */\n      mstore\n        /* \"#utility.yul\":1404:1522   */\n      pop\n      pop\n      jump\t// out\n        /* \"#utility.yul\":1528:1750   */\n    tag_18:\n        /* \"#utility.yul\":1621:1625   */\n      0x00\n        /* \"#utility.yul\":1659:1661   */\n      0x20\n        /* \"#utility.yul\":1648:1657   */\n      dup3\n        /* \"#utility.yul\":1644:1662   */\n      add\n        /* \"#utility.yul\":1636:1662   */\n      swap1\n      pop\n        /* \"#utility.yul\":1672:1743   */\n      tag_189\n        /* \"#utility.yul\":1740:1741   */\n      0x00\n        /* \"#utility.yul\":1729:1738   */\n      dup4\n        /* \"#utility.yul\":1725:1742   */\n      add\n        /* \"#utility.yul\":1716:1722   */\n      dup5\n        /* \"#utility.yul\":1672:1743   */\n      tag_133\n      jump\t// in\n    tag_189:\n        /* \"#utility.yul\":1528:1750   */\n      swap3\n      swap2\n      pop\n      pop\n      jump\t// out\n        /* \"#utility.yul\":1756:1868   */\n    tag_134:\n        /* \"#utility.yul\":1842:1843   */\n      0x02\n        /* \"#utility.yul\":1835:1840   */\n      dup2\n        /* \"#utility.yul\":1832:1844   */\n      lt\n        /* \"#utility.yul\":1822:1862   */\n      tag_191\n      jumpi\n        /* \"#utility.yul\":1858:1859   */\n      0x00\n        /* \"#utility.yul\":1855:1856   */\n      dup1\n        /* \"#utility.yul\":1848:1860   */\n      revert\n        /* \"#utility.yul\":1822:1862   */\n    tag_191:\n        /* \"#utility.yul\":1756:1868   */\n      pop\n      jump\t// out\n        /* \"#utility.yul\":1874:2039   */\n    tag_135:\n        /* \"#utility.yul\":1933:1938   */\n      0x00\n        /* \"#utility.yul\":1971:1977   */\n      dup2\n        /* \"#utility.yul\":1958:1978   */\n      calldataload\n        /* \"#utility.yul\":1949:1978   */\n      swap1\n      pop\n        /* \"#utility.yul\":1987:2033   */\n      tag_193\n        /* \"#utility.yul\":2027:2032   */\n      dup2\n        /* \"#utility.yul\":1987:2033   */\n      tag_134\n      jump\t// in\n    tag_193:\n        /* \"#utility.yul\":1874:2039   */\n      swap3\n      swap2\n      pop\n      pop\n      jump\t// out\n        /* \"#utility.yul\":2045:2836   */\n    tag_21:\n        /* \"#utility.yul\":2144:2150   */\n      0x00\n        /* \"#utility.yul\":2152:2158   */\n      dup1\n        /* \"#utility.yul\":2160:2166   */\n      0x00\n        /* \"#utility.yul\":2168:2174   */\n      dup1\n        /* \"#utility.yul\":2217:2220   */\n      0x80\n        /* \"#utility.yul\":2205:2214   */\n      dup6\n        /* \"#utility.yul\":2196:2203   */\n      dup8\n        /* \"#utility.yul\":2192:2215   */\n      sub\n        /* \"#utility.yul\":2188:2221   */\n      slt\n        /* \"#utility.yul\":2185:2305   */\n      iszero\n      tag_195\n      jumpi\n        /* \"#utility.yul\":2224:2303   */\n      tag_196\n      tag_126\n      jump\t// in\n    tag_196:\n        /* \"#utility.yul\":2185:2305   */\n    tag_195:\n        /* \"#utility.yul\":2344:2345   */\n      0x00\n        /* \"#utility.yul\":2369:2435   */\n      tag_197\n        /* \"#utility.yul\":2427:2434   */\n      dup8\n        /* \"#utility.yul\":2418:2424   */\n      dup3\n        /* \"#utility.yul\":2407:2416   */\n      dup9\n        /* \"#utility.yul\":2403:2425   */\n      add\n        /* \"#utility.yul\":2369:2435   */\n      tag_135\n      jump\t// in\n    tag_197:\n        /* \"#utility.yul\":2359:2435   */\n      swap5\n      pop\n        /* \"#utility.yul\":2315:2445   */\n      pop\n        /* \"#utility.yul\":2484:2486   */\n      0x20\n        /* \"#utility.yul\":2510:2563   */\n      tag_198\n        /* \"#utility.yul\":2555:2562   */\n      dup8\n        /* \"#utility.yul\":2546:2552   */\n      dup3\n        /* \"#utility.yul\":2535:2544   */\n      dup9\n        /* \"#utility.yul\":2531:2553   */\n      add\n        /* \"#utility.yul\":2510:2563   */\n      tag_130\n      jump\t// in\n    tag_198:\n        /* \"#utility.yul\":2500:2563   */\n      swap4\n      pop\n        /* \"#utility.yul\":2455:2573   */\n      pop\n        /* \"#utility.yul\":2612:2614   */\n      0x40\n        /* \"#utility.yul\":2638:2691   */\n      tag_199\n        /* \"#utility.yul\":2683:2690   */\n      dup8\n        /* \"#utility.yul\":2674:2680   */\n      dup3\n        /* \"#utility.yul\":2663:2672   */\n      dup9\n        /* \"#utility.yul\":2659:2681   */\n      add\n        /* \"#utility.yul\":2638:2691   */\n      tag_130\n      jump\t// in\n    tag_199:\n        /* \"#utility.yul\":2628:2691   */\n      swap3\n      pop\n        /* \"#utility.yul\":2583:2701   */\n      pop\n        /* \"#utility.yul\":2740:2742   */\n      0x60\n        /* \"#utility.yul\":2766:2819   */\n      tag_200\n        /* \"#utility.yul\":2811:2818   */\n      dup8\n        /* \"#utility.yul\":2802:2808   */\n      dup3\n        /* \"#utility.yul\":2791:2800   */\n      dup9\n        /* \"#utility.yul\":2787:2809   */\n      add\n        /* \"#utility.yul\":2766:2819   */\n      tag_130\n      jump\t// in\n    tag_200:\n        /* \"#utility.yul\":2756:2819   */\n      swap2\n      pop\n        /* \"#utility.yul\":2711:2829   */\n      pop\n        /* \"#utility.yul\":2045:2836   */\n      swap3\n      swap6\n      swap2\n      swap5\n      pop\n      swap3\n      pop\n      jump\t// out\n        /* \"#utility.yul\":2842:3171   */\n    tag_25:\n        /* \"#utility.yul\":2901:2907   */\n      0x00\n        /* \"#utility.yul\":2950:2952   */\n      0x20\n        /* \"#utility.yul\":2938:2947   */\n      dup3\n        /* \"#utility.yul\":2929:2936   */\n      dup5\n        /* \"#utility.yul\":2925:2948   */\n      sub\n        /* \"#utility.yul\":2921:2953   */\n      slt\n        /* \"#utility.yul\":2918:3037   */\n      iszero\n      tag_202\n      jumpi\n        /* \"#utility.yul\":2956:3035   */\n      tag_203\n      tag_126\n      jump\t// in\n    tag_203:\n        /* \"#utility.yul\":2918:3037   */\n    tag_202:\n        /* \"#utility.yul\":3076:3077   */\n      0x00\n        /* \"#utility.yul\":3101:3154   */\n      tag_204\n        /* \"#utility.yul\":3146:3153   */\n      dup5\n        /* \"#utility.yul\":3137:3143   */\n      dup3\n        /* \"#utility.yul\":3126:3135   */\n      dup6\n        /* \"#utility.yul\":3122:3144   */\n      add\n        /* \"#utility.yul\":3101:3154   */\n      tag_130\n      jump\t// in\n    tag_204:\n        /* \"#utility.yul\":3091:3154   */\n      swap2\n      pop\n        /* \"#utility.yul\":3047:3164   */\n      pop\n        /* \"#utility.yul\":2842:3171   */\n      swap3\n      swap2\n      pop\n      pop\n      jump\t// out\n        /* \"#utility.yul\":3177:3357   */\n    tag_65:\n        /* \"#utility.yul\":3225:3302   */\n      0x4e487b7100000000000000000000000000000000000000000000000000000000\n        /* \"#utility.yul\":3222:3223   */\n      0x00\n        /* \"#utility.yul\":3215:3303   */\n      mstore\n        /* \"#utility.yul\":3322:3326   */\n      0x21\n        /* \"#utility.yul\":3319:3320   */\n      0x04\n        /* \"#utility.yul\":3312:3327   */\n      mstore\n        /* \"#utility.yul\":3346:3350   */\n      0x24\n        /* \"#utility.yul\":3343:3344   */\n      0x00\n        /* \"#utility.yul\":3336:3351   */\n      revert\n        /* \"#utility.yul\":3363:3481   */\n    tag_136:\n        /* \"#utility.yul\":3449:3450   */\n      0x02\n        /* \"#utility.yul\":3442:3447   */\n      dup2\n        /* \"#utility.yul\":3439:3451   */\n      lt\n        /* \"#utility.yul\":3429:3475   */\n      tag_207\n      jumpi\n        /* \"#utility.yul\":3455:3473   */\n      tag_208\n      tag_65\n      jump\t// in\n    tag_208:\n        /* \"#utility.yul\":3429:3475   */\n    tag_207:\n        /* \"#utility.yul\":3363:3481   */\n      pop\n      jump\t// out\n        /* \"#utility.yul\":3487:3624   */\n    tag_137:\n        /* \"#utility.yul\":3537:3544   */\n      0x00\n        /* \"#utility.yul\":3566:3571   */\n      dup2\n        /* \"#utility.yul\":3555:3571   */\n      swap1\n      pop\n        /* \"#utility.yul\":3572:3618   */\n      tag_210\n        /* \"#utility.yul\":3612:3617   */\n      dup3\n        /* \"#utility.yul\":3572:3618   */\n      tag_136\n      jump\t// in\n    tag_210:\n        /* \"#utility.yul\":3487:3624   */\n      swap2\n      swap1\n      pop\n      jump\t// out\n        /* \"#utility.yul\":3630:3767   */\n    tag_138:\n        /* \"#utility.yul\":3691:3700   */\n      0x00\n        /* \"#utility.yul\":3724:3761   */\n      tag_212\n        /* \"#utility.yul\":3755:3760   */\n      dup3\n        /* \"#utility.yul\":3724:3761   */\n      tag_137\n      jump\t// in\n    tag_212:\n        /* \"#utility.yul\":3711:3761   */\n      swap1\n      pop\n        /* \"#utility.yul\":3630:3767   */\n      swap2\n      swap1\n      pop\n      jump\t// out\n        /* \"#utility.yul\":3773:3916   */\n    tag_139:\n        /* \"#utility.yul\":3861:3909   */\n      tag_214\n        /* \"#utility.yul\":3903:3908   */\n      dup2\n        /* \"#utility.yul\":3861:3909   */\n      tag_138\n      jump\t// in\n    tag_214:\n        /* \"#utility.yul\":3856:3859   */\n      dup3\n        /* \"#utility.yul\":3849:3910   */\n      mstore\n        /* \"#utility.yul\":3773:3916   */\n      pop\n      pop\n      jump\t// out\n        /* \"#utility.yul\":3922:4030   */\n    tag_140:\n        /* \"#utility.yul\":3999:4023   */\n      tag_216\n        /* \"#utility.yul\":4017:4022   */\n      dup2\n        /* \"#utility.yul\":3999:4023   */\n      tag_132\n      jump\t// in\n    tag_216:\n        /* \"#utility.yul\":3994:3997   */\n      dup3\n        /* \"#utility.yul\":3987:4024   */\n      mstore\n        /* \"#utility.yul\":3922:4030   */\n      pop\n      pop\n      jump\t// out\n        /* \"#utility.yul\":4036:4144   */\n    tag_141:\n        /* \"#utility.yul\":4113:4137   */\n      tag_218\n        /* \"#utility.yul\":4131:4136   */\n      dup2\n        /* \"#utility.yul\":4113:4137   */\n      tag_128\n      jump\t// in\n    tag_218:\n        /* \"#utility.yul\":4108:4111   */\n      dup3\n        /* \"#utility.yul\":4101:4138   */\n      mstore\n        /* \"#utility.yul\":4036:4144   */\n      pop\n      pop\n      jump\t// out\n        /* \"#utility.yul\":4150:4240   */\n    tag_142:\n        /* \"#utility.yul\":4184:4191   */\n      0x00\n        /* \"#utility.yul\":4227:4232   */\n      dup2\n        /* \"#utility.yul\":4220:4233   */\n      iszero\n        /* \"#utility.yul\":4213:4234   */\n      iszero\n        /* \"#utility.yul\":4202:4234   */\n      swap1\n      pop\n        /* \"#utility.yul\":4150:4240   */\n      swap2\n      swap1\n      pop\n      jump\t// out\n        /* \"#utility.yul\":4246:4345   */\n    tag_143:\n        /* \"#utility.yul\":4317:4338   */\n      tag_221\n        /* \"#utility.yul\":4332:4337   */\n      dup2\n        /* \"#utility.yul\":4317:4338   */\n      tag_142\n      jump\t// in\n    tag_221:\n        /* \"#utility.yul\":4312:4315   */\n      dup3\n        /* \"#utility.yul\":4305:4339   */\n      mstore\n        /* \"#utility.yul\":4246:4345   */\n      pop\n      pop\n      jump\t// out\n        /* \"#utility.yul\":4409:5629   */\n    tag_144:\n        /* \"#utility.yul\":4550:4554   */\n      0xc0\n        /* \"#utility.yul\":4545:4548   */\n      dup3\n        /* \"#utility.yul\":4541:4555   */\n      add\n        /* \"#utility.yul\":4642:4646   */\n      0x00\n        /* \"#utility.yul\":4635:4640   */\n      dup3\n        /* \"#utility.yul\":4631:4647   */\n      add\n        /* \"#utility.yul\":4625:4648   */\n      mload\n        /* \"#utility.yul\":4661:4735   */\n      tag_223\n        /* \"#utility.yul\":4729:4733   */\n      0x00\n        /* \"#utility.yul\":4724:4727   */\n      dup6\n        /* \"#utility.yul\":4720:4734   */\n      add\n        /* \"#utility.yul\":4706:4718   */\n      dup3\n        /* \"#utility.yul\":4661:4735   */\n      tag_139\n      jump\t// in\n    tag_223:\n        /* \"#utility.yul\":4565:4745   */\n      pop\n        /* \"#utility.yul\":4829:4833   */\n      0x20\n        /* \"#utility.yul\":4822:4827   */\n      dup3\n        /* \"#utility.yul\":4818:4834   */\n      add\n        /* \"#utility.yul\":4812:4835   */\n      mload\n        /* \"#utility.yul\":4848:4911   */\n      tag_224\n        /* \"#utility.yul\":4905:4909   */\n      0x20\n        /* \"#utility.yul\":4900:4903   */\n      dup6\n        /* \"#utility.yul\":4896:4910   */\n      add\n        /* \"#utility.yul\":4882:4894   */\n      dup3\n        /* \"#utility.yul\":4848:4911   */\n      tag_140\n      jump\t// in\n    tag_224:\n        /* \"#utility.yul\":4755:4921   */\n      pop\n        /* \"#utility.yul\":5006:5010   */\n      0x40\n        /* \"#utility.yul\":4999:5004   */\n      dup3\n        /* \"#utility.yul\":4995:5011   */\n      add\n        /* \"#utility.yul\":4989:5012   */\n      mload\n        /* \"#utility.yul\":5025:5088   */\n      tag_225\n        /* \"#utility.yul\":5082:5086   */\n      0x40\n        /* \"#utility.yul\":5077:5080   */\n      dup6\n        /* \"#utility.yul\":5073:5087   */\n      add\n        /* \"#utility.yul\":5059:5071   */\n      dup3\n        /* \"#utility.yul\":5025:5088   */\n      tag_141\n      jump\t// in\n    tag_225:\n        /* \"#utility.yul\":4931:5098   */\n      pop\n        /* \"#utility.yul\":5185:5189   */\n      0x60\n        /* \"#utility.yul\":5178:5183   */\n      dup3\n        /* \"#utility.yul\":5174:5190   */\n      add\n        /* \"#utility.yul\":5168:5191   */\n      mload\n        /* \"#utility.yul\":5204:5267   */\n      tag_226\n        /* \"#utility.yul\":5261:5265   */\n      0x60\n        /* \"#utility.yul\":5256:5259   */\n      dup6\n        /* \"#utility.yul\":5252:5266   */\n      add\n        /* \"#utility.yul\":5238:5250   */\n      dup3\n        /* \"#utility.yul\":5204:5267   */\n      tag_141\n      jump\t// in\n    tag_226:\n        /* \"#utility.yul\":5108:5277   */\n      pop\n        /* \"#utility.yul\":5360:5364   */\n      0x80\n        /* \"#utility.yul\":5353:5358   */\n      dup3\n        /* \"#utility.yul\":5349:5365   */\n      add\n        /* \"#utility.yul\":5343:5366   */\n      mload\n        /* \"#utility.yul\":5379:5442   */\n      tag_227\n        /* \"#utility.yul\":5436:5440   */\n      0x80\n        /* \"#utility.yul\":5431:5434   */\n      dup6\n        /* \"#utility.yul\":5427:5441   */\n      add\n        /* \"#utility.yul\":5413:5425   */\n      dup3\n        /* \"#utility.yul\":5379:5442   */\n      tag_141\n      jump\t// in\n    tag_227:\n        /* \"#utility.yul\":5287:5452   */\n      pop\n        /* \"#utility.yul\":5536:5540   */\n      0xa0\n        /* \"#utility.yul\":5529:5534   */\n      dup3\n        /* \"#utility.yul\":5525:5541   */\n      add\n        /* \"#utility.yul\":5519:5542   */\n      mload\n        /* \"#utility.yul\":5555:5612   */\n      tag_228\n        /* \"#utility.yul\":5606:5610   */\n      0xa0\n        /* \"#utility.yul\":5601:5604   */\n      dup6\n        /* \"#utility.yul\":5597:5611   */\n      add\n        /* \"#utility.yul\":5583:5595   */\n      dup3\n        /* \"#utility.yul\":5555:5612   */\n      tag_143\n      jump\t// in\n    tag_228:\n        /* \"#utility.yul\":5462:5622   */\n      pop\n        /* \"#utility.yul\":4519:5629   */\n      pop\n        /* \"#utility.yul\":4409:5629   */\n      pop\n      pop\n      jump\t// out\n        /* \"#utility.yul\":5635:5946   */\n    tag_39:\n        /* \"#utility.yul\":5772:5776   */\n      0x00\n        /* \"#utility.yul\":5810:5813   */\n      0xc0\n        /* \"#utility.yul\":5799:5808   */\n      dup3\n        /* \"#utility.yul\":5795:5814   */\n      add\n        /* \"#utility.yul\":5787:5814   */\n      swap1\n      pop\n        /* \"#utility.yul\":5824:5939   */\n      tag_230\n        /* \"#utility.yul\":5936:5937   */\n      0x00\n        /* \"#utility.yul\":5925:5934   */\n      dup4\n        /* \"#utility.yul\":5921:5938   */\n      add\n        /* \"#utility.yul\":5912:5918   */\n      dup5\n        /* \"#utility.yul\":5824:5939   */\n      tag_144\n      jump\t// in\n    tag_230:\n        /* \"#utility.yul\":5635:5946   */\n      swap3\n      swap2\n      pop\n      pop\n      jump\t// out\n        /* \"#utility.yul\":5952:6061   */\n    tag_145:\n        /* \"#utility.yul\":6033:6054   */\n      tag_232\n        /* \"#utility.yul\":6048:6053   */\n      dup2\n        /* \"#utility.yul\":6033:6054   */\n      tag_142\n      jump\t// in\n    tag_232:\n        /* \"#utility.yul\":6028:6031   */\n      dup3\n        /* \"#utility.yul\":6021:6055   */\n      mstore\n        /* \"#utility.yul\":5952:6061   */\n      pop\n      pop\n      jump\t// out\n        /* \"#utility.yul\":6067:6277   */\n    tag_44:\n        /* \"#utility.yul\":6154:6158   */\n      0x00\n        /* \"#utility.yul\":6192:6194   */\n      0x20\n        /* \"#utility.yul\":6181:6190   */\n      dup3\n        /* \"#utility.yul\":6177:6195   */\n      add\n        /* \"#utility.yul\":6169:6195   */\n      swap1\n      pop\n        /* \"#utility.yul\":6205:6270   */\n      tag_234\n        /* \"#utility.yul\":6267:6268   */\n      0x00\n        /* \"#utility.yul\":6256:6265   */\n      dup4\n        /* \"#utility.yul\":6252:6269   */\n      add\n        /* \"#utility.yul\":6243:6249   */\n      dup5\n        /* \"#utility.yul\":6205:6270   */\n      tag_145\n      jump\t// in\n    tag_234:\n        /* \"#utility.yul\":6067:6277   */\n      swap3\n      swap2\n      pop\n      pop\n      jump\t// out\n        /* \"#utility.yul\":6283:6405   */\n    tag_146:\n        /* \"#utility.yul\":6356:6380   */\n      tag_236\n        /* \"#utility.yul\":6374:6379   */\n      dup2\n        /* \"#utility.yul\":6356:6380   */\n      tag_132\n      jump\t// in\n    tag_236:\n        /* \"#utility.yul\":6349:6354   */\n      dup2\n        /* \"#utility.yul\":6346:6381   */\n      eq\n        /* \"#utility.yul\":6336:6399   */\n      tag_237\n      jumpi\n        /* \"#utility.yul\":6395:6396   */\n      0x00\n        /* \"#utility.yul\":6392:6393   */\n      dup1\n        /* \"#utility.yul\":6385:6397   */\n      revert\n        /* \"#utility.yul\":6336:6399   */\n    tag_237:\n        /* \"#utility.yul\":6283:6405   */\n      pop\n      jump\t// out\n        /* \"#utility.yul\":6411:6550   */\n    tag_147:\n        /* \"#utility.yul\":6457:6462   */\n      0x00\n        /* \"#utility.yul\":6495:6501   */\n      dup2\n        /* \"#utility.yul\":6482:6502   */\n      calldataload\n        /* \"#utility.yul\":6473:6502   */\n      swap1\n      pop\n        /* \"#utility.yul\":6511:6544   */\n      tag_239\n        /* \"#utility.yul\":6538:6543   */\n      dup2\n        /* \"#utility.yul\":6511:6544   */\n      tag_146\n      jump\t// in\n    tag_239:\n        /* \"#utility.yul\":6411:6550   */\n      swap3\n      swap2\n      pop\n      pop\n      jump\t// out\n        /* \"#utility.yul\":6556:6885   */\n    tag_47:\n        /* \"#utility.yul\":6615:6621   */\n      0x00\n        /* \"#utility.yul\":6664:6666   */\n      0x20\n        /* \"#utility.yul\":6652:6661   */\n      dup3\n        /* \"#utility.yul\":6643:6650   */\n      dup5\n        /* \"#utility.yul\":6639:6662   */\n      sub\n        /* \"#utility.yul\":6635:6667   */\n      slt\n        /* \"#utility.yul\":6632:6751   */\n      iszero\n      tag_241\n      jumpi\n        /* \"#utility.yul\":6670:6749   */\n      tag_242\n      tag_126\n      jump\t// in\n    tag_242:\n        /* \"#utility.yul\":6632:6751   */\n    tag_241:\n        /* \"#utility.yul\":6790:6791   */\n      0x00\n        /* \"#utility.yul\":6815:6868   */\n      tag_243\n        /* \"#utility.yul\":6860:6867   */\n      dup5\n        /* \"#utility.yul\":6851:6857   */\n      dup3\n        /* \"#utility.yul\":6840:6849   */\n      dup6\n        /* \"#utility.yul\":6836:6858   */\n      add\n        /* \"#utility.yul\":6815:6868   */\n      tag_147\n      jump\t// in\n    tag_243:\n        /* \"#utility.yul\":6805:6868   */\n      swap2\n      pop\n        /* \"#utility.yul\":6761:6878   */\n      pop\n        /* \"#utility.yul\":6556:6885   */\n      swap3\n      swap2\n      pop\n      pop\n      jump\t// out\n        /* \"#utility.yul\":6891:7060   */\n    tag_148:\n        /* \"#utility.yul\":6975:6986   */\n      0x00\n        /* \"#utility.yul\":7009:7015   */\n      dup3\n        /* \"#utility.yul\":7004:7007   */\n      dup3\n        /* \"#utility.yul\":6997:7016   */\n      mstore\n        /* \"#utility.yul\":7049:7053   */\n      0x20\n        /* \"#utility.yul\":7044:7047   */\n      dup3\n        /* \"#utility.yul\":7040:7054   */\n      add\n        /* \"#utility.yul\":7025:7054   */\n      swap1\n      pop\n        /* \"#utility.yul\":6891:7060   */\n      swap3\n      swap2\n      pop\n      pop\n      jump\t// out\n        /* \"#utility.yul\":7066:7247   */\n    tag_149:\n        /* \"#utility.yul\":7206:7239   */\n      0x46544f54726164696e673a204f72646572206973206e6f742061637469766500\n        /* \"#utility.yul\":7202:7203   */\n      0x00\n        /* \"#utility.yul\":7194:7200   */\n      dup3\n        /* \"#utility.yul\":7190:7204   */\n      add\n        /* \"#utility.yul\":7183:7240   */\n      mstore\n        /* \"#utility.yul\":7066:7247   */\n      pop\n      jump\t// out\n        /* \"#utility.yul\":7253:7619   */\n    tag_150:\n        /* \"#utility.yul\":7395:7398   */\n      0x00\n        /* \"#utility.yul\":7416:7483   */\n      tag_247\n        /* \"#utility.yul\":7480:7482   */\n      0x1f\n        /* \"#utility.yul\":7475:7478   */\n      dup4\n        /* \"#utility.yul\":7416:7483   */\n      tag_148\n      jump\t// in\n    tag_247:\n        /* \"#utility.yul\":7409:7483   */\n      swap2\n      pop\n        /* \"#utility.yul\":7492:7585   */\n      tag_248\n        /* \"#utility.yul\":7581:7584   */\n      dup3\n        /* \"#utility.yul\":7492:7585   */\n      tag_149\n      jump\t// in\n    tag_248:\n        /* \"#utility.yul\":7610:7612   */\n      0x20\n        /* \"#utility.yul\":7605:7608   */\n      dup3\n        /* \"#utility.yul\":7601:7613   */\n      add\n        /* \"#utility.yul\":7594:7613   */\n      swap1\n      pop\n        /* \"#utility.yul\":7253:7619   */\n      swap2\n      swap1\n      pop\n      jump\t// out\n        /* \"#utility.yul\":7625:8044   */\n    tag_52:\n        /* \"#utility.yul\":7791:7795   */\n      0x00\n        /* \"#utility.yul\":7829:7831   */\n      0x20\n        /* \"#utility.yul\":7818:7827   */\n      dup3\n        /* \"#utility.yul\":7814:7832   */\n      add\n        /* \"#utility.yul\":7806:7832   */\n      swap1\n      pop\n        /* \"#utility.yul\":7878:7887   */\n      dup2\n        /* \"#utility.yul\":7872:7876   */\n      dup2\n        /* \"#utility.yul\":7868:7888   */\n      sub\n        /* \"#utility.yul\":7864:7865   */\n      0x00\n        /* \"#utility.yul\":7853:7862   */\n      dup4\n        /* \"#utility.yul\":7849:7866   */\n      add\n        /* \"#utility.yul\":7842:7889   */\n      mstore\n        /* \"#utility.yul\":7906:8037   */\n      tag_250\n        /* \"#utility.yul\":8032:8036   */\n      dup2\n        /* \"#utility.yul\":7906:8037   */\n      tag_150\n      jump\t// in\n    tag_250:\n        /* \"#utility.yul\":7898:8037   */\n      swap1\n      pop\n        /* \"#utility.yul\":7625:8044   */\n      swap2\n      swap1\n      pop\n      jump\t// out\n        /* \"#utility.yul\":8050:8273   */\n    tag_151:\n        /* \"#utility.yul\":8190:8224   */\n      0x46544f54726164696e673a2043616c6c6572206973206e6f7420746865207365\n        /* \"#utility.yul\":8186:8187   */\n      0x00\n        /* \"#utility.yul\":8178:8184   */\n      dup3\n        /* \"#utility.yul\":8174:8188   */\n      add\n        /* \"#utility.yul\":8167:8225   */\n      mstore\n        /* \"#utility.yul\":8259:8265   */\n      0x6c6c657200000000000000000000000000000000000000000000000000000000\n        /* \"#utility.yul\":8254:8256   */\n      0x20\n        /* \"#utility.yul\":8246:8252   */\n      dup3\n        /* \"#utility.yul\":8242:8257   */\n      add\n        /* \"#utility.yul\":8235:8266   */\n      mstore\n        /* \"#utility.yul\":8050:8273   */\n      pop\n      jump\t// out\n        /* \"#utility.yul\":8279:8645   */\n    tag_152:\n        /* \"#utility.yul\":8421:8424   */\n      0x00\n        /* \"#utility.yul\":8442:8509   */\n      tag_253\n        /* \"#utility.yul\":8506:8508   */\n      0x24\n        /* \"#utility.yul\":8501:8504   */\n      dup4\n        /* \"#utility.yul\":8442:8509   */\n      tag_148\n      jump\t// in\n    tag_253:\n        /* \"#utility.yul\":8435:8509   */\n      swap2\n      pop\n        /* \"#utility.yul\":8518:8611   */\n      tag_254\n        /* \"#utility.yul\":8607:8610   */\n      dup3\n        /* \"#utility.yul\":8518:8611   */\n      tag_151\n      jump\t// in\n    tag_254:\n        /* \"#utility.yul\":8636:8638   */\n      0x40\n        /* \"#utility.yul\":8631:8634   */\n      dup3\n        /* \"#utility.yul\":8627:8639   */\n      add\n        /* \"#utility.yul\":8620:8639   */\n      swap1\n      pop\n        /* \"#utility.yul\":8279:8645   */\n      swap2\n      swap1\n      pop\n      jump\t// out\n        /* \"#utility.yul\":8651:9070   */\n    tag_55:\n        /* \"#utility.yul\":8817:8821   */\n      0x00\n        /* \"#utility.yul\":8855:8857   */\n      0x20\n        /* \"#utility.yul\":8844:8853   */\n      dup3\n        /* \"#utility.yul\":8840:8858   */\n      add\n        /* \"#utility.yul\":8832:8858   */\n      swap1\n      pop\n        /* \"#utility.yul\":8904:8913   */\n      dup2\n        /* \"#utility.yul\":8898:8902   */\n      dup2\n        /* \"#utility.yul\":8894:8914   */\n      sub\n        /* \"#utility.yul\":8890:8891   */\n      0x00\n        /* \"#utility.yul\":8879:8888   */\n      dup4\n        /* \"#utility.yul\":8875:8892   */\n      add\n        /* \"#utility.yul\":8868:8915   */\n      mstore\n        /* \"#utility.yul\":8932:9063   */\n      tag_256\n        /* \"#utility.yul\":9058:9062   */\n      dup2\n        /* \"#utility.yul\":8932:9063   */\n      tag_152\n      jump\t// in\n    tag_256:\n        /* \"#utility.yul\":8924:9063   */\n      swap1\n      pop\n        /* \"#utility.yul\":8651:9070   */\n      swap2\n      swap1\n      pop\n      jump\t// out\n        /* \"#utility.yul\":9076:9256   */\n    tag_153:\n        /* \"#utility.yul\":9216:9248   */\n      0x46544f54726164696e673a20496e76616c6964207472656520636f756e740000\n        /* \"#utility.yul\":9212:9213   */\n      0x00\n        /* \"#utility.yul\":9204:9210   */\n      dup3\n        /* \"#utility.yul\":9200:9214   */\n      add\n        /* \"#utility.yul\":9193:9249   */\n      mstore\n        /* \"#utility.yul\":9076:9256   */\n      pop\n      jump\t// out\n        /* \"#utility.yul\":9262:9628   */\n    tag_154:\n        /* \"#utility.yul\":9404:9407   */\n      0x00\n        /* \"#utility.yul\":9425:9492   */\n      tag_259\n        /* \"#utility.yul\":9489:9491   */\n      0x1e\n        /* \"#utility.yul\":9484:9487   */\n      dup4\n        /* \"#utility.yul\":9425:9492   */\n      tag_148\n      jump\t// in\n    tag_259:\n        /* \"#utility.yul\":9418:9492   */\n      swap2\n      pop\n        /* \"#utility.yul\":9501:9594   */\n      tag_260\n        /* \"#utility.yul\":9590:9593   */\n      dup3\n        /* \"#utility.yul\":9501:9594   */\n      tag_153\n      jump\t// in\n    tag_260:\n        /* \"#utility.yul\":9619:9621   */\n      0x20\n        /* \"#utility.yul\":9614:9617   */\n      dup3\n        /* \"#utility.yul\":9610:9622   */\n      add\n        /* \"#utility.yul\":9603:9622   */\n      swap1\n      pop\n        /* \"#utility.yul\":9262:9628   */\n      swap2\n      swap1\n      pop\n      jump\t// out\n        /* \"#utility.yul\":9634:10053   */\n    tag_59:\n        /* \"#utility.yul\":9800:9804   */\n      0x00\n        /* \"#utility.yul\":9838:9840   */\n      0x20\n        /* \"#utility.yul\":9827:9836   */\n      dup3\n        /* \"#utility.yul\":9823:9841   */\n      add\n        /* \"#utility.yul\":9815:9841   */\n      swap1\n      pop\n        /* \"#utility.yul\":9887:9896   */\n      dup2\n        /* \"#utility.yul\":9881:9885   */\n      dup2\n        /* \"#utility.yul\":9877:9897   */\n      sub\n        /* \"#utility.yul\":9873:9874   */\n      0x00\n        /* \"#utility.yul\":9862:9871   */\n      dup4\n        /* \"#utility.yul\":9858:9875   */\n      add\n        /* \"#utility.yul\":9851:9898   */\n      mstore\n        /* \"#utility.yul\":9915:10046   */\n      tag_262\n        /* \"#utility.yul\":10041:10045   */\n      dup2\n        /* \"#utility.yul\":9915:10046   */\n      tag_154\n      jump\t// in\n    tag_262:\n        /* \"#utility.yul\":9907:10046   */\n      swap1\n      pop\n        /* \"#utility.yul\":9634:10053   */\n      swap2\n      swap1\n      pop\n      jump\t// out\n        /* \"#utility.yul\":10059:10234   */\n    tag_155:\n        /* \"#utility.yul\":10199:10226   */\n      0x46544f54726164696e673a20496e76616c696420707269636500000000000000\n        /* \"#utility.yul\":10195:10196   */\n      0x00\n        /* \"#utility.yul\":10187:10193   */\n      dup3\n        /* \"#utility.yul\":10183:10197   */\n      add\n        /* \"#utility.yul\":10176:10227   */\n      mstore\n        /* \"#utility.yul\":10059:10234   */\n      pop\n      jump\t// out\n        /* \"#utility.yul\":10240:10606   */\n    tag_156:\n        /* \"#utility.yul\":10382:10385   */\n      0x00\n        /* \"#utility.yul\":10403:10470   */\n      tag_265\n        /* \"#utility.yul\":10467:10469   */\n      0x19\n        /* \"#utility.yul\":10462:10465   */\n      dup4\n        /* \"#utility.yul\":10403:10470   */\n      tag_148\n      jump\t// in\n    tag_265:\n        /* \"#utility.yul\":10396:10470   */\n      swap2\n      pop\n        /* \"#utility.yul\":10479:10572   */\n      tag_266\n        /* \"#utility.yul\":10568:10571   */\n      dup3\n        /* \"#utility.yul\":10479:10572   */\n      tag_155\n      jump\t// in\n    tag_266:\n        /* \"#utility.yul\":10597:10599   */\n      0x20\n        /* \"#utility.yul\":10592:10595   */\n      dup3\n        /* \"#utility.yul\":10588:10600   */\n      add\n        /* \"#utility.yul\":10581:10600   */\n      swap1\n      pop\n        /* \"#utility.yul\":10240:10606   */\n      swap2\n      swap1\n      pop\n      jump\t// out\n        /* \"#utility.yul\":10612:11031   */\n    tag_62:\n        /* \"#utility.yul\":10778:10782   */\n      0x00\n        /* \"#utility.yul\":10816:10818   */\n      0x20\n        /* \"#utility.yul\":10805:10814   */\n      dup3\n        /* \"#utility.yul\":10801:10819   */\n      add\n        /* \"#utility.yul\":10793:10819   */\n      swap1\n      pop\n        /* \"#utility.yul\":10865:10874   */\n      dup2\n        /* \"#utility.yul\":10859:10863   */\n      dup2\n        /* \"#utility.yul\":10855:10875   */\n      sub\n        /* \"#utility.yul\":10851:10852   */\n      0x00\n        /* \"#utility.yul\":10840:10849   */\n      dup4\n        /* \"#utility.yul\":10836:10853   */\n      add\n        /* \"#utility.yul\":10829:10876   */\n      mstore\n        /* \"#utility.yul\":10893:11024   */\n      tag_268\n        /* \"#utility.yul\":11019:11023   */\n      dup2\n        /* \"#utility.yul\":10893:11024   */\n      tag_156\n      jump\t// in\n    tag_268:\n        /* \"#utility.yul\":10885:11024   */\n      swap1\n      pop\n        /* \"#utility.yul\":10612:11031   */\n      swap2\n      swap1\n      pop\n      jump\t// out\n        /* \"#utility.yul\":11037:11190   */\n    tag_157:\n        /* \"#utility.yul\":11135:11183   */\n      tag_270\n        /* \"#utility.yul\":11177:11182   */\n      dup2\n        /* \"#utility.yul\":11135:11183   */\n      tag_138\n      jump\t// in\n    tag_270:\n        /* \"#utility.yul\":11130:11133   */\n      dup3\n        /* \"#utility.yul\":11123:11184   */\n      mstore\n        /* \"#utility.yul\":11037:11190   */\n      pop\n      pop\n      jump\t// out\n        /* \"#utility.yul\":11196:11314   */\n    tag_158:\n        /* \"#utility.yul\":11283:11307   */\n      tag_272\n        /* \"#utility.yul\":11301:11306   */\n      dup2\n        /* \"#utility.yul\":11283:11307   */\n      tag_128\n      jump\t// in\n    tag_272:\n        /* \"#utility.yul\":11278:11281   */\n      dup3\n        /* \"#utility.yul\":11271:11308   */\n      mstore\n        /* \"#utility.yul\":11196:11314   */\n      pop\n      pop\n      jump\t// out\n        /* \"#utility.yul\":11320:11784   */\n    tag_69:\n        /* \"#utility.yul\":11480:11484   */\n      0x00\n        /* \"#utility.yul\":11518:11520   */\n      0x60\n        /* \"#utility.yul\":11507:11516   */\n      dup3\n        /* \"#utility.yul\":11503:11521   */\n      add\n        /* \"#utility.yul\":11495:11521   */\n      swap1\n      pop\n        /* \"#utility.yul\":11531:11613   */\n      tag_274\n        /* \"#utility.yul\":11610:11611   */\n      0x00\n        /* \"#utility.yul\":11599:11608   */\n      dup4\n        /* \"#utility.yul\":11595:11612   */\n      add\n        /* \"#utility.yul\":11586:11592   */\n      dup7\n        /* \"#utility.yul\":11531:11613   */\n      tag_157\n      jump\t// in\n    tag_274:\n        /* \"#utility.yul\":11623:11695   */\n      tag_275\n        /* \"#utility.yul\":11691:11693   */\n      0x20\n        /* \"#utility.yul\":11680:11689   */\n      dup4\n        /* \"#utility.yul\":11676:11694   */\n      add\n        /* \"#utility.yul\":11667:11673   */\n      dup6\n        /* \"#utility.yul\":11623:11695   */\n      tag_158\n      jump\t// in\n    tag_275:\n        /* \"#utility.yul\":11705:11777   */\n      tag_276\n        /* \"#utility.yul\":11773:11775   */\n      0x40\n        /* \"#utility.yul\":11762:11771   */\n      dup4\n        /* \"#utility.yul\":11758:11776   */\n      add\n        /* \"#utility.yul\":11749:11755   */\n      dup5\n        /* \"#utility.yul\":11705:11777   */\n      tag_158\n      jump\t// in\n    tag_276:\n        /* \"#utility.yul\":11320:11784   */\n      swap5\n      swap4\n      pop\n      pop\n      pop\n      pop\n      jump\t// out\n        /* \"#utility.yul\":11790:12144   */\n    tag_76:\n        /* \"#utility.yul\":11922:11926   */\n      0x00\n        /* \"#utility.yul\":11960:11962   */\n      0x40\n        /* \"#utility.yul\":11949:11958   */\n      dup3\n        /* \"#utility.yul\":11945:11963   */\n      add\n        /* \"#utility.yul\":11937:11963   */\n      swap1\n      pop\n        /* \"#utility.yul\":11973:12055   */\n      tag_278\n        /* \"#utility.yul\":12052:12053   */\n      0x00\n        /* \"#utility.yul\":12041:12050   */\n      dup4\n        /* \"#utility.yul\":12037:12054   */\n      add\n        /* \"#utility.yul\":12028:12034   */\n      dup6\n        /* \"#utility.yul\":11973:12055   */\n      tag_157\n      jump\t// in\n    tag_278:\n        /* \"#utility.yul\":12065:12137   */\n      tag_279\n        /* \"#utility.yul\":12133:12135   */\n      0x20\n        /* \"#utility.yul\":12122:12131   */\n      dup4\n        /* \"#utility.yul\":12118:12136   */\n      add\n        /* \"#utility.yul\":12109:12115   */\n      dup5\n        /* \"#utility.yul\":12065:12137   */\n      tag_158\n      jump\t// in\n    tag_279:\n        /* \"#utility.yul\":11790:12144   */\n      swap4\n      swap3\n      pop\n      pop\n      pop\n      jump\t// out\n        /* \"#utility.yul\":12150:12332   */\n    tag_159:\n        /* \"#utility.yul\":12290:12324   */\n      0x46544f54726164696e673a2043616c6c6572206973207468652073656c6c6572\n        /* \"#utility.yul\":12286:12287   */\n      0x00\n        /* \"#utility.yul\":12278:12284   */\n      dup3\n        /* \"#utility.yul\":12274:12288   */\n      add\n        /* \"#utility.yul\":12267:12325   */\n      mstore\n        /* \"#utility.yul\":12150:12332   */\n      pop\n      jump\t// out\n        /* \"#utility.yul\":12338:12704   */\n    tag_160:\n        /* \"#utility.yul\":12480:12483   */\n      0x00\n        /* \"#utility.yul\":12501:12568   */\n      tag_282\n        /* \"#utility.yul\":12565:12567   */\n      0x20\n        /* \"#utility.yul\":12560:12563   */\n      dup4\n        /* \"#utility.yul\":12501:12568   */\n      tag_148\n      jump\t// in\n    tag_282:\n        /* \"#utility.yul\":12494:12568   */\n      swap2\n      pop\n        /* \"#utility.yul\":12577:12670   */\n      tag_283\n        /* \"#utility.yul\":12666:12669   */\n      dup3\n        /* \"#utility.yul\":12577:12670   */\n      tag_159\n      jump\t// in\n    tag_283:\n        /* \"#utility.yul\":12695:12697   */\n      0x20\n        /* \"#utility.yul\":12690:12693   */\n      dup3\n        /* \"#utility.yul\":12686:12698   */\n      add\n        /* \"#utility.yul\":12679:12698   */\n      swap1\n      pop\n        /* \"#utility.yul\":12338:12704   */\n      swap2\n      swap1\n      pop\n      jump\t// out\n        /* \"#utility.yul\":12710:13129   */\n    tag_82:\n        /* \"#utility.yul\":12876:12880   */\n      0x00\n        /* \"#utility.yul\":12914:12916   */\n      0x20\n        /* \"#utility.yul\":12903:12912   */\n      dup3\n        /* \"#utility.yul\":12899:12917   */\n      add\n        /* \"#utility.yul\":12891:12917   */\n      swap1\n      pop\n        /* \"#utility.yul\":12963:12972   */\n      dup2\n        /* \"#utility.yul\":12957:12961   */\n      dup2\n        /* \"#utility.yul\":12953:12973   */\n      sub\n        /* \"#utility.yul\":12949:12950   */\n      0x00\n        /* \"#utility.yul\":12938:12947   */\n      dup4\n        /* \"#utility.yul\":12934:12951   */\n      add\n        /* \"#utility.yul\":12927:12974   */\n      mstore\n        /* \"#utility.yul\":12991:13122   */\n      tag_285\n        /* \"#utility.yul\":13117:13121   */\n      dup2\n        /* \"#utility.yul\":12991:13122   */\n      tag_160\n      jump\t// in\n    tag_285:\n        /* \"#utility.yul\":12983:13122   */\n      swap1\n      pop\n        /* \"#utility.yul\":12710:13129   */\n      swap2\n      swap1\n      pop\n      jump\t// out\n        /* \"#utility.yul\":13135:13315   */\n    tag_161:\n        /* \"#utility.yul\":13183:13260   */\n      0x4e487b7100000000000000000000000000000000000000000000000000000000\n        /* \"#utility.yul\":13180:13181   */\n      0x00\n        /* \"#utility.yul\":13173:13261   */\n      mstore\n        /* \"#utility.yul\":13280:13284   */\n      0x11\n        /* \"#utility.yul\":13277:13278   */\n      0x04\n        /* \"#utility.yul\":13270:13285   */\n      mstore\n        /* \"#utility.yul\":13304:13308   */\n      0x24\n        /* \"#utility.yul\":13301:13302   */\n      0x00\n        /* \"#utility.yul\":13294:13309   */\n      revert\n        /* \"#utility.yul\":13321:13731   */\n    tag_84:\n        /* \"#utility.yul\":13361:13368   */\n      0x00\n        /* \"#utility.yul\":13384:13404   */\n      tag_288\n        /* \"#utility.yul\":13402:13403   */\n      dup3\n        /* \"#utility.yul\":13384:13404   */\n      tag_128\n      jump\t// in\n    tag_288:\n        /* \"#utility.yul\":13379:13404   */\n      swap2\n      pop\n        /* \"#utility.yul\":13418:13438   */\n      tag_289\n        /* \"#utility.yul\":13436:13437   */\n      dup4\n        /* \"#utility.yul\":13418:13438   */\n      tag_128\n      jump\t// in\n    tag_289:\n        /* \"#utility.yul\":13413:13438   */\n      swap3\n      pop\n        /* \"#utility.yul\":13473:13474   */\n      dup3\n        /* \"#utility.yul\":13470:13471   */\n      dup3\n        /* \"#utility.yul\":13466:13475   */\n      mul\n        /* \"#utility.yul\":13495:13525   */\n      tag_290\n        /* \"#utility.yul\":13513:13524   */\n      dup2\n        /* \"#utility.yul\":13495:13525   */\n      tag_128\n      jump\t// in\n    tag_290:\n        /* \"#utility.yul\":13484:13525   */\n      swap2\n      pop\n        /* \"#utility.yul\":13674:13675   */\n      dup3\n        /* \"#utility.yul\":13665:13672   */\n      dup3\n        /* \"#utility.yul\":13661:13676   */\n      div\n        /* \"#utility.yul\":13658:13659   */\n      dup5\n        /* \"#utility.yul\":13655:13677   */\n      eq\n        /* \"#utility.yul\":13635:13636   */\n      dup4\n        /* \"#utility.yul\":13628:13637   */\n      iszero\n        /* \"#utility.yul\":13608:13691   */\n      or\n        /* \"#utility.yul\":13585:13724   */\n      tag_291\n      jumpi\n        /* \"#utility.yul\":13704:13722   */\n      tag_292\n      tag_161\n      jump\t// in\n    tag_292:\n        /* \"#utility.yul\":13585:13724   */\n    tag_291:\n        /* \"#utility.yul\":13369:13731   */\n      pop\n        /* \"#utility.yul\":13321:13731   */\n      swap3\n      swap2\n      pop\n      pop\n      jump\t// out\n        /* \"#utility.yul\":13737:14179   */\n    tag_86:\n        /* \"#utility.yul\":13886:13890   */\n      0x00\n        /* \"#utility.yul\":13924:13926   */\n      0x60\n        /* \"#utility.yul\":13913:13922   */\n      dup3\n        /* \"#utility.yul\":13909:13927   */\n      add\n        /* \"#utility.yul\":13901:13927   */\n      swap1\n      pop\n        /* \"#utility.yul\":13937:14008   */\n      tag_294\n        /* \"#utility.yul\":14005:14006   */\n      0x00\n        /* \"#utility.yul\":13994:14003   */\n      dup4\n        /* \"#utility.yul\":13990:14007   */\n      add\n        /* \"#utility.yul\":13981:13987   */\n      dup7\n        /* \"#utility.yul\":13937:14008   */\n      tag_133\n      jump\t// in\n    tag_294:\n        /* \"#utility.yul\":14018:14090   */\n      tag_295\n        /* \"#utility.yul\":14086:14088   */\n      0x20\n        /* \"#utility.yul\":14075:14084   */\n      dup4\n        /* \"#utility.yul\":14071:14089   */\n      add\n        /* \"#utility.yul\":14062:14068   */\n      dup6\n        /* \"#utility.yul\":14018:14090   */\n      tag_133\n      jump\t// in\n    tag_295:\n        /* \"#utility.yul\":14100:14172   */\n      tag_296\n        /* \"#utility.yul\":14168:14170   */\n      0x40\n        /* \"#utility.yul\":14157:14166   */\n      dup4\n        /* \"#utility.yul\":14153:14171   */\n      add\n        /* \"#utility.yul\":14144:14150   */\n      dup5\n        /* \"#utility.yul\":14100:14172   */\n      tag_158\n      jump\t// in\n    tag_296:\n        /* \"#utility.yul\":13737:14179   */\n      swap5\n      swap4\n      pop\n      pop\n      pop\n      pop\n      jump\t// out\n        /* \"#utility.yul\":14185:14301   */\n    tag_162:\n        /* \"#utility.yul\":14255:14276   */\n      tag_298\n        /* \"#utility.yul\":14270:14275   */\n      dup2\n        /* \"#utility.yul\":14255:14276   */\n      tag_142\n      jump\t// in\n    tag_298:\n        /* \"#utility.yul\":14248:14253   */\n      dup2\n        /* \"#utility.yul\":14245:14277   */\n      eq\n        /* \"#utility.yul\":14235:14295   */\n      tag_299\n      jumpi\n        /* \"#utility.yul\":14291:14292   */\n      0x00\n        /* \"#utility.yul\":14288:14289   */\n      dup1\n        /* \"#utility.yul\":14281:14293   */\n      revert\n        /* \"#utility.yul\":14235:14295   */\n    tag_299:\n        /* \"#utility.yul\":14185:14301   */\n      pop\n      jump\t// out\n        /* \"#utility.yul\":14307:14444   */\n    tag_163:\n        /* \"#utility.yul\":14361:14366   */\n      0x00\n        /* \"#utility.yul\":14392:14398   */\n      dup2\n        /* \"#utility.yul\":14386:14399   */\n      mload\n        /* \"#utility.yul\":14377:14399   */\n      swap1\n      pop\n        /* \"#utility.yul\":14408:14438   */\n      tag_301\n        /* \"#utility.yul\":14432:14437   */\n      dup2\n        /* \"#utility.yul\":14408:14438   */\n      tag_162\n      jump\t// in\n    tag_301:\n        /* \"#utility.yul\":14307:14444   */\n      swap3\n      swap2\n      pop\n      pop\n      jump\t// out\n        /* \"#utility.yul\":14450:14795   */\n    tag_90:\n        /* \"#utility.yul\":14517:14523   */\n      0x00\n        /* \"#utility.yul\":14566:14568   */\n      0x20\n        /* \"#utility.yul\":14554:14563   */\n      dup3\n        /* \"#utility.yul\":14545:14552   */\n      dup5\n        /* \"#utility.yul\":14541:14564   */\n      sub\n        /* \"#utility.yul\":14537:14569   */\n      slt\n        /* \"#utility.yul\":14534:14653   */\n      iszero\n      tag_303\n      jumpi\n        /* \"#utility.yul\":14572:14651   */\n      tag_304\n      tag_126\n      jump\t// in\n    tag_304:\n        /* \"#utility.yul\":14534:14653   */\n    tag_303:\n        /* \"#utility.yul\":14692:14693   */\n      0x00\n        /* \"#utility.yul\":14717:14778   */\n      tag_305\n        /* \"#utility.yul\":14770:14777   */\n      dup5\n        /* \"#utility.yul\":14761:14767   */\n      dup3\n        /* \"#utility.yul\":14750:14759   */\n      dup6\n        /* \"#utility.yul\":14746:14768   */\n      add\n        /* \"#utility.yul\":14717:14778   */\n      tag_163\n      jump\t// in\n    tag_305:\n        /* \"#utility.yul\":14707:14778   */\n      swap2\n      pop\n        /* \"#utility.yul\":14663:14788   */\n      pop\n        /* \"#utility.yul\":14450:14795   */\n      swap3\n      swap2\n      pop\n      pop\n      jump\t// out\n        /* \"#utility.yul\":14801:15026   */\n    tag_164:\n        /* \"#utility.yul\":14941:14975   */\n      0x4f776e61626c653a206e6577206f776e657220697320746865207a65726f2061\n        /* \"#utility.yul\":14937:14938   */\n      0x00\n        /* \"#utility.yul\":14929:14935   */\n      dup3\n        /* \"#utility.yul\":14925:14939   */\n      add\n        /* \"#utility.yul\":14918:14976   */\n      mstore\n        /* \"#utility.yul\":15010:15018   */\n      0x6464726573730000000000000000000000000000000000000000000000000000\n        /* \"#utility.yul\":15005:15007   */\n      0x20\n        /* \"#utility.yul\":14997:15003   */\n      dup3\n        /* \"#utility.yul\":14993:15008   */\n      add\n        /* \"#utility.yul\":14986:15019   */\n      mstore\n        /* \"#utility.yul\":14801:15026   */\n      pop\n      jump\t// out\n        /* \"#utility.yul\":15032:15398   */\n    tag_165:\n        /* \"#utility.yul\":15174:15177   */\n      0x00\n        /* \"#utility.yul\":15195:15262   */\n      tag_308\n        /* \"#utility.yul\":15259:15261   */\n      0x26\n        /* \"#utility.yul\":15254:15257   */\n      dup4\n        /* \"#utility.yul\":15195:15262   */\n      tag_148\n      jump\t// in\n    tag_308:\n        /* \"#utility.yul\":15188:15262   */\n      swap2\n      pop\n        /* \"#utility.yul\":15271:15364   */\n      tag_309\n        /* \"#utility.yul\":15360:15363   */\n      dup3\n        /* \"#utility.yul\":15271:15364   */\n      tag_164\n      jump\t// in\n    tag_309:\n        /* \"#utility.yul\":15389:15391   */\n      0x40\n        /* \"#utility.yul\":15384:15387   */\n      dup3\n        /* \"#utility.yul\":15380:15392   */\n      add\n        /* \"#utility.yul\":15373:15392   */\n      swap1\n      pop\n        /* \"#utility.yul\":15032:15398   */\n      swap2\n      swap1\n      pop\n      jump\t// out\n        /* \"#utility.yul\":15404:15823   */\n    tag_112:\n        /* \"#utility.yul\":15570:15574   */\n      0x00\n        /* \"#utility.yul\":15608:15610   */\n      0x20\n        /* \"#utility.yul\":15597:15606   */\n      dup3\n        /* \"#utility.yul\":15593:15611   */\n      add\n        /* \"#utility.yul\":15585:15611   */\n      swap1\n      pop\n        /* \"#utility.yul\":15657:15666   */\n      dup2\n        /* \"#utility.yul\":15651:15655   */\n      dup2\n        /* \"#utility.yul\":15647:15667   */\n      sub\n        /* \"#utility.yul\":15643:15644   */\n      0x00\n        /* \"#utility.yul\":15632:15641   */\n      dup4\n        /* \"#utility.yul\":15628:15645   */\n      add\n        /* \"#utility.yul\":15621:15668   */\n      mstore\n        /* \"#utility.yul\":15685:15816   */\n      tag_311\n        /* \"#utility.yul\":15811:15815   */\n      dup2\n        /* \"#utility.yul\":15685:15816   */\n      tag_165\n      jump\t// in\n    tag_311:\n        /* \"#utility.yul\":15677:15816   */\n      swap1\n      pop\n        /* \"#utility.yul\":15404:15823   */\n      swap2\n      swap1\n      pop\n      jump\t// out\n        /* \"#utility.yul\":15829:16011   */\n    tag_166:\n        /* \"#utility.yul\":15969:16003   */\n      0x4f776e61626c653a2063616c6c6572206973206e6f7420746865206f776e6572\n        /* \"#utility.yul\":15965:15966   */\n      0x00\n        /* \"#utility.yul\":15957:15963   */\n      dup3\n        /* \"#utility.yul\":15953:15967   */\n      add\n        /* \"#utility.yul\":15946:16004   */\n      mstore\n        /* \"#utility.yul\":15829:16011   */\n      pop\n      jump\t// out\n        /* \"#utility.yul\":16017:16383   */\n    tag_167:\n        /* \"#utility.yul\":16159:16162   */\n      0x00\n        /* \"#utility.yul\":16180:16247   */\n      tag_314\n        /* \"#utility.yul\":16244:16246   */\n      0x20\n        /* \"#utility.yul\":16239:16242   */\n      dup4\n        /* \"#utility.yul\":16180:16247   */\n      tag_148\n      jump\t// in\n    tag_314:\n        /* \"#utility.yul\":16173:16247   */\n      swap2\n      pop\n        /* \"#utility.yul\":16256:16349   */\n      tag_315\n        /* \"#utility.yul\":16345:16348   */\n      dup3\n        /* \"#utility.yul\":16256:16349   */\n      tag_166\n      jump\t// in\n    tag_315:\n        /* \"#utility.yul\":16374:16376   */\n      0x20\n        /* \"#utility.yul\":16369:16372   */\n      dup3\n        /* \"#utility.yul\":16365:16377   */\n      add\n        /* \"#utility.yul\":16358:16377   */\n      swap1\n      pop\n        /* \"#utility.yul\":16017:16383   */\n      swap2\n      swap1\n      pop\n      jump\t// out\n        /* \"#utility.yul\":16389:16808   */\n    tag_120:\n        /* \"#utility.yul\":16555:16559   */\n      0x00\n        /* \"#utility.yul\":16593:16595   */\n      0x20\n        /* \"#utility.yul\":16582:16591   */\n      dup3\n        /* \"#utility.yul\":16578:16596   */\n      add\n        /* \"#utility.yul\":16570:16596   */\n      swap1\n      pop\n        /* \"#utility.yul\":16642:16651   */\n      dup2\n        /* \"#utility.yul\":16636:16640   */\n      dup2\n        /* \"#utility.yul\":16632:16652   */\n      sub\n        /* \"#utility.yul\":16628:16629   */\n      0x00\n        /* \"#utility.yul\":16617:16626   */\n      dup4\n        /* \"#utility.yul\":16613:16630   */\n      add\n        /* \"#utility.yul\":16606:16653   */\n      mstore\n        /* \"#utility.yul\":16670:16801   */\n      tag_317\n        /* \"#utility.yul\":16796:16800   */\n      dup2\n        /* \"#utility.yul\":16670:16801   */\n      tag_167\n      jump\t// in\n    tag_317:\n        /* \"#utility.yul\":16662:16801   */\n      swap1\n      pop\n        /* \"#utility.yul\":16389:16808   */\n      swap2\n      swap1\n      pop\n      jump\t// out\n\n    auxdata: 0xa26469706673582212209ce694600ec95a2c5d2d0c578ed0de5e5dc193d1bd48a647d13f9dd828def15e64736f6c63430008120033\n}\n",
				"bytecode": {
					"linkReferences": {},
					"object": "60806040523480156200001157600080fd5b50604051620016f1380380620016f18339818101604052810190620000379190620001d5565b620000576200004b6200009f60201b60201c565b620000a760201b60201c565b80600260006101000a81548173ffffffffffffffffffffffffffffffffffffffff021916908373ffffffffffffffffffffffffffffffffffffffff1602179055505062000207565b600033905090565b60008060009054906101000a900473ffffffffffffffffffffffffffffffffffffffff169050816000806101000a81548173ffffffffffffffffffffffffffffffffffffffff021916908373ffffffffffffffffffffffffffffffffffffffff1602179055508173ffffffffffffffffffffffffffffffffffffffff168173ffffffffffffffffffffffffffffffffffffffff167f8be0079c531659141344cd1fd0a4f28419497f9722a3daafe3b4186f6b6457e060405160405180910390a35050565b600080fd5b600073ffffffffffffffffffffffffffffffffffffffff82169050919050565b60006200019d8262000170565b9050919050565b620001af8162000190565b8114620001bb57600080fd5b50565b600081519050620001cf81620001a4565b92915050565b600060208284031215620001ee57620001ed6200016b565b5b6000620001fe84828501620001be565b91505092915050565b6114da80620002176000396000f3fe608060405234801561001057600080fd5b50600436106100935760003560e01c8063715018a611610066578063715018a61461011c5780638da5cb5b14610126578063d09ef24114610144578063d6e4358514610174578063f2fde38b146101a457610093565b80632406e677146100985780634622c218146100c8578063514fcac7146100e45780636311e83014610100575b600080fd5b6100b260048036038101906100ad9190610cb6565b6101c0565b6040516100bf9190610d37565b60405180910390f35b6100e260048036038101906100dd9190610d77565b6102ce565b005b6100fe60048036038101906100f99190610dde565b6104d0565b005b61011a60048036038101906101159190610dde565b610651565b005b6101246108ed565b005b61012e610901565b60405161013b9190610d37565b60405180910390f35b61015e60048036038101906101599190610dde565b61092a565b60405161016b9190610f36565b60405180910390f35b61018e60048036038101906101899190610dde565b610a21565b60405161019b9190610f60565b60405180910390f35b6101be60048036038101906101b99190610fa7565b610a4e565b005b6000806001600085815260200190815260200160002090508060040160009054906101000a900460ff16610229576040517f08c379a000000000000000000000000000000000000000000000000000000000815260040161022090611031565b60405180910390fd5b3373ffffffffffffffffffffffffffffffffffffffff168160000160019054906101000a900473ffffffffffffffffffffffffffffffffffffffff1673ffffffffffffffffffffffffffffffffffffffff16146102bb576040517f08c379a00000000000000000000000000000000000000000000000000000000081526004016102b2906110c3565b60405180910390fd5b8281600301819055503091505092915050565b60008211610311576040517f08c379a00000000000000000000000000000000000000000000000000000000081526004016103089061112f565b60405180910390fd5b60008111610354576040517f08c379a000000000000000000000000000000000000000000000000000000000815260040161034b9061119b565b60405180910390fd5b6040518060c0016040528085600181111561037257610371610e0b565b5b81526020013373ffffffffffffffffffffffffffffffffffffffff168152602001848152602001838152602001828152602001600115158152506001600085815260200190815260200160002060008201518160000160006101000a81548160ff021916908360018111156103ea576103e9610e0b565b5b021790555060208201518160000160016101000a81548173ffffffffffffffffffffffffffffffffffffffff021916908373ffffffffffffffffffffffffffffffffffffffff16021790555060408201518160010155606082015181600201556080820151816003015560a08201518160040160006101000a81548160ff0219169083151502179055509050503373ffffffffffffffffffffffffffffffffffffffff16837f3bb14533dd010fdebae74ce4d0c92933a390fc1d1019ac0cd1466b52d1aad4558685856040516104c2939291906111d9565b60405180910390a350505050565b60006001600083815260200190815260200160002090508060040160009054906101000a900460ff16610538576040517f08c379a000000000000000000000000000000000000000000000000000000000815260040161052f90611031565b60405180910390fd5b3373ffffffffffffffffffffffffffffffffffffffff168160000160019054906101000a900473ffffffffffffffffffffffffffffffffffffffff1673ffffffffffffffffffffffffffffffffffffffff16146105ca576040517f08c379a00000000000000000000000000000000000000000000000000000000081526004016105c1906110c3565b60405180910390fd5b60008160040160006101000a81548160ff0219169083151502179055503373ffffffffffffffffffffffffffffffffffffffff16827f64d4b370403f8b7936be15f54e718f3230214e115ff3e05e524f7021212f06858360000160009054906101000a900460ff168460020154604051610645929190611210565b60405180910390a35050565b60006001600083815260200190815260200160002090508060040160009054906101000a900460ff166106b9576040517f08c379a00000000000000000000000000000000000000000000000000000000081526004016106b090611031565b60405180910390fd5b3373ffffffffffffffffffffffffffffffffffffffff168160000160019054906101000a900473ffffffffffffffffffffffffffffffffffffffff1673ffffffffffffffffffffffffffffffffffffffff160361074b576040517f08c379a000000000000000000000000000000000000000000000000000000000815260040161074290611285565b60405180910390fd5b60008160020154826003015461076191906112d4565b9050600260009054906101000a900473ffffffffffffffffffffffffffffffffffffffff1673ffffffffffffffffffffffffffffffffffffffff166323b872dd338460000160019054906101000a900473ffffffffffffffffffffffffffffffffffffffff16846040518463ffffffff1660e01b81526004016107e693929190611316565b6020604051808303816000875af1158015610805573d6000803e3d6000fd5b505050506040513d601f19601f820116820180604052508101906108299190611379565b5060008260040160006101000a81548160ff0219169083151502179055503373ffffffffffffffffffffffffffffffffffffffff168260000160019054906101000a900473ffffffffffffffffffffffffffffffffffffffff1673ffffffffffffffffffffffffffffffffffffffff16847f705a7c908bf1604651e9a1b99dc166aba2660891e3d584c0edaea07a47b215bb8560000160009054906101000a900460ff1686600201546040516108e0929190611210565b60405180910390a4505050565b6108f5610ad1565b6108ff6000610b4f565b565b60008060009054906101000a900473ffffffffffffffffffffffffffffffffffffffff16905090565b610932610c1b565b600160008381526020019081526020016000206040518060c00160405290816000820160009054906101000a900460ff16600181111561097557610974610e0b565b5b600181111561098757610986610e0b565b5b81526020016000820160019054906101000a900473ffffffffffffffffffffffffffffffffffffffff1673ffffffffffffffffffffffffffffffffffffffff1673ffffffffffffffffffffffffffffffffffffffff1681526020016001820154815260200160028201548152602001600382015481526020016004820160009054906101000a900460ff1615151515815250509050919050565b60006001600083815260200190815260200160002060040160009054906101000a900460ff169050919050565b610a56610ad1565b600073ffffffffffffffffffffffffffffffffffffffff168173ffffffffffffffffffffffffffffffffffffffff1603610ac5576040517f08c379a0000000000000000000000000000000000000000000000000000000008152600401610abc90611418565b60405180910390fd5b610ace81610b4f565b50565b610ad9610c13565b73ffffffffffffffffffffffffffffffffffffffff16610af7610901565b73ffffffffffffffffffffffffffffffffffffffff1614610b4d576040517f08c379a0000000000000000000000000000000000000000000000000000000008152600401610b4490611484565b60405180910390fd5b565b60008060009054906101000a900473ffffffffffffffffffffffffffffffffffffffff169050816000806101000a81548173ffffffffffffffffffffffffffffffffffffffff021916908373ffffffffffffffffffffffffffffffffffffffff1602179055508173ffffffffffffffffffffffffffffffffffffffff168173ffffffffffffffffffffffffffffffffffffffff167f8be0079c531659141344cd1fd0a4f28419497f9722a3daafe3b4186f6b6457e060405160405180910390a35050565b600033905090565b6040518060c0016040528060006001811115610c3a57610c39610e0b565b5b8152602001600073ffffffffffffffffffffffffffffffffffffffff1681526020016000815260200160008152602001600081526020016000151581525090565b600080fd5b6000819050919050565b610c9381610c80565b8114610c9e57600080fd5b50565b600081359050610cb081610c8a565b92915050565b60008060408385031215610ccd57610ccc610c7b565b5b6000610cdb85828601610ca1565b9250506020610cec85828601610ca1565b9150509250929050565b600073ffffffffffffffffffffffffffffffffffffffff82169050919050565b6000610d2182610cf6565b9050919050565b610d3181610d16565b82525050565b6000602082019050610d4c6000830184610d28565b92915050565b60028110610d5f57600080fd5b50565b600081359050610d7181610d52565b92915050565b60008060008060808587031215610d9157610d90610c7b565b5b6000610d9f87828801610d62565b9450506020610db087828801610ca1565b9350506040610dc187828801610ca1565b9250506060610dd287828801610ca1565b91505092959194509250565b600060208284031215610df457610df3610c7b565b5b6000610e0284828501610ca1565b91505092915050565b7f4e487b7100000000000000000000000000000000000000000000000000000000600052602160045260246000fd5b60028110610e4b57610e4a610e0b565b5b50565b6000819050610e5c82610e3a565b919050565b6000610e6c82610e4e565b9050919050565b610e7c81610e61565b82525050565b610e8b81610d16565b82525050565b610e9a81610c80565b82525050565b60008115159050919050565b610eb581610ea0565b82525050565b60c082016000820151610ed16000850182610e73565b506020820151610ee46020850182610e82565b506040820151610ef76040850182610e91565b506060820151610f0a6060850182610e91565b506080820151610f1d6080850182610e91565b5060a0820151610f3060a0850182610eac565b50505050565b600060c082019050610f4b6000830184610ebb565b92915050565b610f5a81610ea0565b82525050565b6000602082019050610f756000830184610f51565b92915050565b610f8481610d16565b8114610f8f57600080fd5b50565b600081359050610fa181610f7b565b92915050565b600060208284031215610fbd57610fbc610c7b565b5b6000610fcb84828501610f92565b91505092915050565b600082825260208201905092915050565b7f46544f54726164696e673a204f72646572206973206e6f742061637469766500600082015250565b600061101b601f83610fd4565b915061102682610fe5565b602082019050919050565b6000602082019050818103600083015261104a8161100e565b9050919050565b7f46544f54726164696e673a2043616c6c6572206973206e6f742074686520736560008201527f6c6c657200000000000000000000000000000000000000000000000000000000602082015250565b60006110ad602483610fd4565b91506110b882611051565b604082019050919050565b600060208201905081810360008301526110dc816110a0565b9050919050565b7f46544f54726164696e673a20496e76616c6964207472656520636f756e740000600082015250565b6000611119601e83610fd4565b9150611124826110e3565b602082019050919050565b600060208201905081810360008301526111488161110c565b9050919050565b7f46544f54726164696e673a20496e76616c696420707269636500000000000000600082015250565b6000611185601983610fd4565b91506111908261114f565b602082019050919050565b600060208201905081810360008301526111b481611178565b9050919050565b6111c481610e61565b82525050565b6111d381610c80565b82525050565b60006060820190506111ee60008301866111bb565b6111fb60208301856111ca565b61120860408301846111ca565b949350505050565b600060408201905061122560008301856111bb565b61123260208301846111ca565b9392505050565b7f46544f54726164696e673a2043616c6c6572206973207468652073656c6c6572600082015250565b600061126f602083610fd4565b915061127a82611239565b602082019050919050565b6000602082019050818103600083015261129e81611262565b9050919050565b7f4e487b7100000000000000000000000000000000000000000000000000000000600052601160045260246000fd5b60006112df82610c80565b91506112ea83610c80565b92508282026112f881610c80565b9150828204841483151761130f5761130e6112a5565b5b5092915050565b600060608201905061132b6000830186610d28565b6113386020830185610d28565b61134560408301846111ca565b949350505050565b61135681610ea0565b811461136157600080fd5b50565b6000815190506113738161134d565b92915050565b60006020828403121561138f5761138e610c7b565b5b600061139d84828501611364565b91505092915050565b7f4f776e61626c653a206e6577206f776e657220697320746865207a65726f206160008201527f6464726573730000000000000000000000000000000000000000000000000000602082015250565b6000611402602683610fd4565b915061140d826113a6565b604082019050919050565b60006020820190508181036000830152611431816113f5565b9050919050565b7f4f776e61626c653a2063616c6c6572206973206e6f7420746865206f776e6572600082015250565b600061146e602083610fd4565b915061147982611438565b602082019050919050565b6000602082019050818103600083015261149d81611461565b905091905056fea26469706673582212209ce694600ec95a2c5d2d0c578ed0de5e5dc193d1bd48a647d13f9dd828def15e64736f6c63430008120033",
					"opcodes": "PUSH1 0x80 PUSH1 0x40 MSTORE CALLVALUE DUP1 ISZERO PUSH3 0x11 JUMPI PUSH1 0x0 DUP1 REVERT JUMPDEST POP PUSH1 0x40 MLOAD PUSH3 0x16F1 CODESIZE SUB DUP1 PUSH3 0x16F1 DUP4 CODECOPY DUP2 DUP2 ADD PUSH1 0x40 MSTORE DUP2 ADD SWAP1 PUSH3 0x37 SWAP2 SWAP1 PUSH3 0x1D5 JUMP JUMPDEST PUSH3 0x57 PUSH3 0x4B PUSH3 0x9F PUSH1 0x20 SHL PUSH1 0x20 SHR JUMP JUMPDEST PUSH3 0xA7 PUSH1 0x20 SHL PUSH1 0x20 SHR JUMP JUMPDEST DUP1 PUSH1 0x2 PUSH1 0x0 PUSH2 0x100 EXP DUP2 SLOAD DUP2 PUSH20 0xFFFFFFFFFFFFFFFFFFFFFFFFFFFFFFFFFFFFFFFF MUL NOT AND SWAP1 DUP4 PUSH20 0xFFFFFFFFFFFFFFFFFFFFFFFFFFFFFFFFFFFFFFFF AND MUL OR SWAP1 SSTORE POP POP PUSH3 0x207 JUMP JUMPDEST PUSH1 0x0 CALLER SWAP1 POP SWAP1 JUMP JUMPDEST PUSH1 0x0 DUP1 PUSH1 0x0 SWAP1 SLOAD SWAP1 PUSH2 0x100 EXP SWAP1 DIV PUSH20 0xFFFFFFFFFFFFFFFFFFFFFFFFFFFFFFFFFFFFFFFF AND SWAP1 POP DUP2 PUSH1 0x0 DUP1 PUSH2 0x100 EXP DUP2 SLOAD DUP2 PUSH20 0xFFFFFFFFFFFFFFFFFFFFFFFFFFFFFFFFFFFFFFFF MUL NOT AND SWAP1 DUP4 PUSH20 0xFFFFFFFFFFFFFFFFFFFFFFFFFFFFFFFFFFFFFFFF AND MUL OR SWAP1 SSTORE POP DUP2 PUSH20 0xFFFFFFFFFFFFFFFFFFFFFFFFFFFFFFFFFFFFFFFF AND DUP2 PUSH20 0xFFFFFFFFFFFFFFFFFFFFFFFFFFFFFFFFFFFFFFFF AND PUSH32 0x8BE0079C531659141344CD1FD0A4F28419497F9722A3DAAFE3B4186F6B6457E0 PUSH1 0x40 MLOAD PUSH1 0x40 MLOAD DUP1 SWAP2 SUB SWAP1 LOG3 POP POP JUMP JUMPDEST PUSH1 0x0 DUP1 REVERT JUMPDEST PUSH1 0x0 PUSH20 0xFFFFFFFFFFFFFFFFFFFFFFFFFFFFFFFFFFFFFFFF DUP3 AND SWAP1 POP SWAP2 SWAP1 POP JUMP JUMPDEST PUSH1 0x0 PUSH3 0x19D DUP3 PUSH3 0x170 JUMP JUMPDEST SWAP1 POP SWAP2 SWAP1 POP JUMP JUMPDEST PUSH3 0x1AF DUP2 PUSH3 0x190 JUMP JUMPDEST DUP2 EQ PUSH3 0x1BB JUMPI PUSH1 0x0 DUP1 REVERT JUMPDEST POP JUMP JUMPDEST PUSH1 0x0 DUP2 MLOAD SWAP1 POP PUSH3 0x1CF DUP2 PUSH3 0x1A4 JUMP JUMPDEST SWAP3 SWAP2 POP POP JUMP JUMPDEST PUSH1 0x0 PUSH1 0x20 DUP3 DUP5 SUB SLT ISZERO PUSH3 0x1EE JUMPI PUSH3 0x1ED PUSH3 0x16B JUMP JUMPDEST JUMPDEST PUSH1 0x0 PUSH3 0x1FE DUP5 DUP3 DUP6 ADD PUSH3 0x1BE JUMP JUMPDEST SWAP2 POP POP SWAP3 SWAP2 POP POP JUMP JUMPDEST PUSH2 0x14DA DUP1 PUSH3 0x217 PUSH1 0x0 CODECOPY PUSH1 0x0 RETURN INVALID PUSH1 0x80 PUSH1 0x40 MSTORE CALLVALUE DUP1 ISZERO PUSH2 0x10 JUMPI PUSH1 0x0 DUP1 REVERT JUMPDEST POP PUSH1 0x4 CALLDATASIZE LT PUSH2 0x93 JUMPI PUSH1 0x0 CALLDATALOAD PUSH1 0xE0 SHR DUP1 PUSH4 0x715018A6 GT PUSH2 0x66 JUMPI DUP1 PUSH4 0x715018A6 EQ PUSH2 0x11C JUMPI DUP1 PUSH4 0x8DA5CB5B EQ PUSH2 0x126 JUMPI DUP1 PUSH4 0xD09EF241 EQ PUSH2 0x144 JUMPI DUP1 PUSH4 0xD6E43585 EQ PUSH2 0x174 JUMPI DUP1 PUSH4 0xF2FDE38B EQ PUSH2 0x1A4 JUMPI PUSH2 0x93 JUMP JUMPDEST DUP1 PUSH4 0x2406E677 EQ PUSH2 0x98 JUMPI DUP1 PUSH4 0x4622C218 EQ PUSH2 0xC8 JUMPI DUP1 PUSH4 0x514FCAC7 EQ PUSH2 0xE4 JUMPI DUP1 PUSH4 0x6311E830 EQ PUSH2 0x100 JUMPI JUMPDEST PUSH1 0x0 DUP1 REVERT JUMPDEST PUSH2 0xB2 PUSH1 0x4 DUP1 CALLDATASIZE SUB DUP2 ADD SWAP1 PUSH2 0xAD SWAP2 SWAP1 PUSH2 0xCB6 JUMP JUMPDEST PUSH2 0x1C0 JUMP JUMPDEST PUSH1 0x40 MLOAD PUSH2 0xBF SWAP2 SWAP1 PUSH2 0xD37 JUMP JUMPDEST PUSH1 0x40 MLOAD DUP1 SWAP2 SUB SWAP1 RETURN JUMPDEST PUSH2 0xE2 PUSH1 0x4 DUP1 CALLDATASIZE SUB DUP2 ADD SWAP1 PUSH2 0xDD SWAP2 SWAP1 PUSH2 0xD77 JUMP JUMPDEST PUSH2 0x2CE JUMP JUMPDEST STOP JUMPDEST PUSH2 0xFE PUSH1 0x4 DUP1 CALLDATASIZE SUB DUP2 ADD SWAP1 PUSH2 0xF9 SWAP2 SWAP1 PUSH2 0xDDE JUMP JUMPDEST PUSH2 0x4D0 JUMP JUMPDEST STOP JUMPDEST PUSH2 0x11A PUSH1 0x4 DUP1 CALLDATASIZE SUB DUP2 ADD SWAP1 PUSH2 0x115 SWAP2 SWAP1 PUSH2 0xDDE JUMP JUMPDEST PUSH2 0x651 JUMP JUMPDEST STOP JUMPDEST PUSH2 0x124 PUSH2 0x8ED JUMP JUMPDEST STOP JUMPDEST PUSH2 0x12E PUSH2 0x901 JUMP JUMPDEST PUSH1 0x40 MLOAD PUSH2 0x13B SWAP2 SWAP1 PUSH2 0xD37 JUMP JUMPDEST PUSH1 0x40 MLOAD DUP1 SWAP2 SUB SWAP1 RETURN JUMPDEST PUSH2 0x15E PUSH1 0x4 DUP1 CALLDATASIZE SUB DUP2 ADD SWAP1 PUSH2 0x159 SWAP2 SWAP1 PUSH2 0xDDE JUMP JUMPDEST PUSH2 0x92A JUMP JUMPDEST PUSH1 0x40 MLOAD PUSH2 0x16B SWAP2 SWAP1 PUSH2 0xF36 JUMP JUMPDEST PUSH1 0x40 MLOAD DUP1 SWAP2 SUB SWAP1 RETURN JUMPDEST PUSH2 0x18E PUSH1 0x4 DUP1 CALLDATASIZE SUB DUP2 ADD SWAP1 PUSH2 0x189 SWAP2 SWAP1 PUSH2 0xDDE JUMP JUMPDEST PUSH2 0xA21 JUMP JUMPDEST PUSH1 0x40 MLOAD PUSH2 0x19B SWAP2 SWAP1 PUSH2 0xF60 JUMP JUMPDEST PUSH1 0x40 MLOAD DUP1 SWAP2 SUB SWAP1 RETURN JUMPDEST PUSH2 0x1BE PUSH1 0x4 DUP1 CALLDATASIZE SUB DUP2 ADD SWAP1 PUSH2 0x1B9 SWAP2 SWAP1 PUSH2 0xFA7 JUMP JUMPDEST PUSH2 0xA4E JUMP JUMPDEST STOP JUMPDEST PUSH1 0x0 DUP1 PUSH1 0x1 PUSH1 0x0 DUP6 DUP2 MSTORE PUSH1 0x20 ADD SWAP1 DUP2 MSTORE PUSH1 0x20 ADD PUSH1 0x0 KECCAK256 SWAP1 POP DUP1 PUSH1 0x4 ADD PUSH1 0x0 SWAP1 SLOAD SWAP1 PUSH2 0x100 EXP SWAP1 DIV PUSH1 0xFF AND PUSH2 0x229 JUMPI PUSH1 0x40 MLOAD PUSH32 0x8C379A000000000000000000000000000000000000000000000000000000000 DUP2 MSTORE PUSH1 0x4 ADD PUSH2 0x220 SWAP1 PUSH2 0x1031 JUMP JUMPDEST PUSH1 0x40 MLOAD DUP1 SWAP2 SUB SWAP1 REVERT JUMPDEST CALLER PUSH20 0xFFFFFFFFFFFFFFFFFFFFFFFFFFFFFFFFFFFFFFFF AND DUP2 PUSH1 0x0 ADD PUSH1 0x1 SWAP1 SLOAD SWAP1 PUSH2 0x100 EXP SWAP1 DIV PUSH20 0xFFFFFFFFFFFFFFFFFFFFFFFFFFFFFFFFFFFFFFFF AND PUSH20 0xFFFFFFFFFFFFFFFFFFFFFFFFFFFFFFFFFFFFFFFF AND EQ PUSH2 0x2BB JUMPI PUSH1 0x40 MLOAD PUSH32 0x8C379A000000000000000000000000000000000000000000000000000000000 DUP2 MSTORE PUSH1 0x4 ADD PUSH2 0x2B2 SWAP1 PUSH2 0x10C3 JUMP JUMPDEST PUSH1 0x40 MLOAD DUP1 SWAP2 SUB SWAP1 REVERT JUMPDEST DUP3 DUP2 PUSH1 0x3 ADD DUP2 SWAP1 SSTORE POP ADDRESS SWAP2 POP POP SWAP3 SWAP2 POP POP JUMP JUMPDEST PUSH1 0x0 DUP3 GT PUSH2 0x311 JUMPI PUSH1 0x40 MLOAD PUSH32 0x8C379A000000000000000000000000000000000000000000000000000000000 DUP2 MSTORE PUSH1 0x4 ADD PUSH2 0x308 SWAP1 PUSH2 0x112F JUMP JUMPDEST PUSH1 0x40 MLOAD DUP1 SWAP2 SUB SWAP1 REVERT JUMPDEST PUSH1 0x0 DUP2 GT PUSH2 0x354 JUMPI PUSH1 0x40 MLOAD PUSH32 0x8C379A000000000000000000000000000000000000000000000000000000000 DUP2 MSTORE PUSH1 0x4 ADD PUSH2 0x34B SWAP1 PUSH2 0x119B JUMP JUMPDEST PUSH1 0x40 MLOAD DUP1 SWAP2 SUB SWAP1 REVERT JUMPDEST PUSH1 0x40 MLOAD DUP1 PUSH1 0xC0 ADD PUSH1 0x40 MSTORE DUP1 DUP6 PUSH1 0x1 DUP2 GT ISZERO PUSH2 0x372 JUMPI PUSH2 0x371 PUSH2 0xE0B JUMP JUMPDEST JUMPDEST DUP2 MSTORE PUSH1 0x20 ADD CALLER PUSH20 0xFFFFFFFFFFFFFFFFFFFFFFFFFFFFFFFFFFFFFFFF AND DUP2 MSTORE PUSH1 0x20 ADD DUP5 DUP2 MSTORE PUSH1 0x20 ADD DUP4 DUP2 MSTORE PUSH1 0x20 ADD DUP3 DUP2 MSTORE PUSH1 0x20 ADD PUSH1 0x1 ISZERO ISZERO DUP2 MSTORE POP PUSH1 0x1 PUSH1 0x0 DUP6 DUP2 MSTORE PUSH1 0x20 ADD SWAP1 DUP2 MSTORE PUSH1 0x20 ADD PUSH1 0x0 KECCAK256 PUSH1 0x0 DUP3 ADD MLOAD DUP2 PUSH1 0x0 ADD PUSH1 0x0 PUSH2 0x100 EXP DUP2 SLOAD DUP2 PUSH1 0xFF MUL NOT AND SWAP1 DUP4 PUSH1 0x1 DUP2 GT ISZERO PUSH2 0x3EA JUMPI PUSH2 0x3E9 PUSH2 0xE0B JUMP JUMPDEST JUMPDEST MUL OR SWAP1 SSTORE POP PUSH1 0x20 DUP3 ADD MLOAD DUP2 PUSH1 0x0 ADD PUSH1 0x1 PUSH2 0x100 EXP DUP2 SLOAD DUP2 PUSH20 0xFFFFFFFFFFFFFFFFFFFFFFFFFFFFFFFFFFFFFFFF MUL NOT AND SWAP1 DUP4 PUSH20 0xFFFFFFFFFFFFFFFFFFFFFFFFFFFFFFFFFFFFFFFF AND MUL OR SWAP1 SSTORE POP PUSH1 0x40 DUP3 ADD MLOAD DUP2 PUSH1 0x1 ADD SSTORE PUSH1 0x60 DUP3 ADD MLOAD DUP2 PUSH1 0x2 ADD SSTORE PUSH1 0x80 DUP3 ADD MLOAD DUP2 PUSH1 0x3 ADD SSTORE PUSH1 0xA0 DUP3 ADD MLOAD DUP2 PUSH1 0x4 ADD PUSH1 0x0 PUSH2 0x100 EXP DUP2 SLOAD DUP2 PUSH1 0xFF MUL NOT AND SWAP1 DUP4 ISZERO ISZERO MUL OR SWAP1 SSTORE POP SWAP1 POP POP CALLER PUSH20 0xFFFFFFFFFFFFFFFFFFFFFFFFFFFFFFFFFFFFFFFF AND DUP4 PUSH32 0x3BB14533DD010FDEBAE74CE4D0C92933A390FC1D1019AC0CD1466B52D1AAD455 DUP7 DUP6 DUP6 PUSH1 0x40 MLOAD PUSH2 0x4C2 SWAP4 SWAP3 SWAP2 SWAP1 PUSH2 0x11D9 JUMP JUMPDEST PUSH1 0x40 MLOAD DUP1 SWAP2 SUB SWAP1 LOG3 POP POP POP POP JUMP JUMPDEST PUSH1 0x0 PUSH1 0x1 PUSH1 0x0 DUP4 DUP2 MSTORE PUSH1 0x20 ADD SWAP1 DUP2 MSTORE PUSH1 0x20 ADD PUSH1 0x0 KECCAK256 SWAP1 POP DUP1 PUSH1 0x4 ADD PUSH1 0x0 SWAP1 SLOAD SWAP1 PUSH2 0x100 EXP SWAP1 DIV PUSH1 0xFF AND PUSH2 0x538 JUMPI PUSH1 0x40 MLOAD PUSH32 0x8C379A000000000000000000000000000000000000000000000000000000000 DUP2 MSTORE PUSH1 0x4 ADD PUSH2 0x52F SWAP1 PUSH2 0x1031 JUMP JUMPDEST PUSH1 0x40 MLOAD DUP1 SWAP2 SUB SWAP1 REVERT JUMPDEST CALLER PUSH20 0xFFFFFFFFFFFFFFFFFFFFFFFFFFFFFFFFFFFFFFFF AND DUP2 PUSH1 0x0 ADD PUSH1 0x1 SWAP1 SLOAD SWAP1 PUSH2 0x100 EXP SWAP1 DIV PUSH20 0xFFFFFFFFFFFFFFFFFFFFFFFFFFFFFFFFFFFFFFFF AND PUSH20 0xFFFFFFFFFFFFFFFFFFFFFFFFFFFFFFFFFFFFFFFF AND EQ PUSH2 0x5CA JUMPI PUSH1 0x40 MLOAD PUSH32 0x8C379A000000000000000000000000000000000000000000000000000000000 DUP2 MSTORE PUSH1 0x4 ADD PUSH2 0x5C1 SWAP1 PUSH2 0x10C3 JUMP JUMPDEST PUSH1 0x40 MLOAD DUP1 SWAP2 SUB SWAP1 REVERT JUMPDEST PUSH1 0x0 DUP2 PUSH1 0x4 ADD PUSH1 0x0 PUSH2 0x100 EXP DUP2 SLOAD DUP2 PUSH1 0xFF MUL NOT AND SWAP1 DUP4 ISZERO ISZERO MUL OR SWAP1 SSTORE POP CALLER PUSH20 0xFFFFFFFFFFFFFFFFFFFFFFFFFFFFFFFFFFFFFFFF AND DUP3 PUSH32 0x64D4B370403F8B7936BE15F54E718F3230214E115FF3E05E524F7021212F0685 DUP4 PUSH1 0x0 ADD PUSH1 0x0 SWAP1 SLOAD SWAP1 PUSH2 0x100 EXP SWAP1 DIV PUSH1 0xFF AND DUP5 PUSH1 0x2 ADD SLOAD PUSH1 0x40 MLOAD PUSH2 0x645 SWAP3 SWAP2 SWAP1 PUSH2 0x1210 JUMP JUMPDEST PUSH1 0x40 MLOAD DUP1 SWAP2 SUB SWAP1 LOG3 POP POP JUMP JUMPDEST PUSH1 0x0 PUSH1 0x1 PUSH1 0x0 DUP4 DUP2 MSTORE PUSH1 0x20 ADD SWAP1 DUP2 MSTORE PUSH1 0x20 ADD PUSH1 0x0 KECCAK256 SWAP1 POP DUP1 PUSH1 0x4 ADD PUSH1 0x0 SWAP1 SLOAD SWAP1 PUSH2 0x100 EXP SWAP1 DIV PUSH1 0xFF AND PUSH2 0x6B9 JUMPI PUSH1 0x40 MLOAD PUSH32 0x8C379A000000000000000000000000000000000000000000000000000000000 DUP2 MSTORE PUSH1 0x4 ADD PUSH2 0x6B0 SWAP1 PUSH2 0x1031 JUMP JUMPDEST PUSH1 0x40 MLOAD DUP1 SWAP2 SUB SWAP1 REVERT JUMPDEST CALLER PUSH20 0xFFFFFFFFFFFFFFFFFFFFFFFFFFFFFFFFFFFFFFFF AND DUP2 PUSH1 0x0 ADD PUSH1 0x1 SWAP1 SLOAD SWAP1 PUSH2 0x100 EXP SWAP1 DIV PUSH20 0xFFFFFFFFFFFFFFFFFFFFFFFFFFFFFFFFFFFFFFFF AND PUSH20 0xFFFFFFFFFFFFFFFFFFFFFFFFFFFFFFFFFFFFFFFF AND SUB PUSH2 0x74B JUMPI PUSH1 0x40 MLOAD PUSH32 0x8C379A000000000000000000000000000000000000000000000000000000000 DUP2 MSTORE PUSH1 0x4 ADD PUSH2 0x742 SWAP1 PUSH2 0x1285 JUMP JUMPDEST PUSH1 0x40 MLOAD DUP1 SWAP2 SUB SWAP1 REVERT JUMPDEST PUSH1 0x0 DUP2 PUSH1 0x2 ADD SLOAD DUP3 PUSH1 0x3 ADD SLOAD PUSH2 0x761 SWAP2 SWAP1 PUSH2 0x12D4 JUMP JUMPDEST SWAP1 POP PUSH1 0x2 PUSH1 0x0 SWAP1 SLOAD SWAP1 PUSH2 0x100 EXP SWAP1 DIV PUSH20 0xFFFFFFFFFFFFFFFFFFFFFFFFFFFFFFFFFFFFFFFF AND PUSH20 0xFFFFFFFFFFFFFFFFFFFFFFFFFFFFFFFFFFFFFFFF AND PUSH4 0x23B872DD CALLER DUP5 PUSH1 0x0 ADD PUSH1 0x1 SWAP1 SLOAD SWAP1 PUSH2 0x100 EXP SWAP1 DIV PUSH20 0xFFFFFFFFFFFFFFFFFFFFFFFFFFFFFFFFFFFFFFFF AND DUP5 PUSH1 0x40 MLOAD DUP5 PUSH4 0xFFFFFFFF AND PUSH1 0xE0 SHL DUP2 MSTORE PUSH1 0x4 ADD PUSH2 0x7E6 SWAP4 SWAP3 SWAP2 SWAP1 PUSH2 0x1316 JUMP JUMPDEST PUSH1 0x20 PUSH1 0x40 MLOAD DUP1 DUP4 SUB DUP2 PUSH1 0x0 DUP8 GAS CALL ISZERO DUP1 ISZERO PUSH2 0x805 JUMPI RETURNDATASIZE PUSH1 0x0 DUP1 RETURNDATACOPY RETURNDATASIZE PUSH1 0x0 REVERT JUMPDEST POP POP POP POP PUSH1 0x40 MLOAD RETURNDATASIZE PUSH1 0x1F NOT PUSH1 0x1F DUP3 ADD AND DUP3 ADD DUP1 PUSH1 0x40 MSTORE POP DUP2 ADD SWAP1 PUSH2 0x829 SWAP2 SWAP1 PUSH2 0x1379 JUMP JUMPDEST POP PUSH1 0x0 DUP3 PUSH1 0x4 ADD PUSH1 0x0 PUSH2 0x100 EXP DUP2 SLOAD DUP2 PUSH1 0xFF MUL NOT AND SWAP1 DUP4 ISZERO ISZERO MUL OR SWAP1 SSTORE POP CALLER PUSH20 0xFFFFFFFFFFFFFFFFFFFFFFFFFFFFFFFFFFFFFFFF AND DUP3 PUSH1 0x0 ADD PUSH1 0x1 SWAP1 SLOAD SWAP1 PUSH2 0x100 EXP SWAP1 DIV PUSH20 0xFFFFFFFFFFFFFFFFFFFFFFFFFFFFFFFFFFFFFFFF AND PUSH20 0xFFFFFFFFFFFFFFFFFFFFFFFFFFFFFFFFFFFFFFFF AND DUP5 PUSH32 0x705A7C908BF1604651E9A1B99DC166ABA2660891E3D584C0EDAEA07A47B215BB DUP6 PUSH1 0x0 ADD PUSH1 0x0 SWAP1 SLOAD SWAP1 PUSH2 0x100 EXP SWAP1 DIV PUSH1 0xFF AND DUP7 PUSH1 0x2 ADD SLOAD PUSH1 0x40 MLOAD PUSH2 0x8E0 SWAP3 SWAP2 SWAP1 PUSH2 0x1210 JUMP JUMPDEST PUSH1 0x40 MLOAD DUP1 SWAP2 SUB SWAP1 LOG4 POP POP POP JUMP JUMPDEST PUSH2 0x8F5 PUSH2 0xAD1 JUMP JUMPDEST PUSH2 0x8FF PUSH1 0x0 PUSH2 0xB4F JUMP JUMPDEST JUMP JUMPDEST PUSH1 0x0 DUP1 PUSH1 0x0 SWAP1 SLOAD SWAP1 PUSH2 0x100 EXP SWAP1 DIV PUSH20 0xFFFFFFFFFFFFFFFFFFFFFFFFFFFFFFFFFFFFFFFF AND SWAP1 POP SWAP1 JUMP JUMPDEST PUSH2 0x932 PUSH2 0xC1B JUMP JUMPDEST PUSH1 0x1 PUSH1 0x0 DUP4 DUP2 MSTORE PUSH1 0x20 ADD SWAP1 DUP2 MSTORE PUSH1 0x20 ADD PUSH1 0x0 KECCAK256 PUSH1 0x40 MLOAD DUP1 PUSH1 0xC0 ADD PUSH1 0x40 MSTORE SWAP1 DUP2 PUSH1 0x0 DUP3 ADD PUSH1 0x0 SWAP1 SLOAD SWAP1 PUSH2 0x100 EXP SWAP1 DIV PUSH1 0xFF AND PUSH1 0x1 DUP2 GT ISZERO PUSH2 0x975 JUMPI PUSH2 0x974 PUSH2 0xE0B JUMP JUMPDEST JUMPDEST PUSH1 0x1 DUP2 GT ISZERO PUSH2 0x987 JUMPI PUSH2 0x986 PUSH2 0xE0B JUMP JUMPDEST JUMPDEST DUP2 MSTORE PUSH1 0x20 ADD PUSH1 0x0 DUP3 ADD PUSH1 0x1 SWAP1 SLOAD SWAP1 PUSH2 0x100 EXP SWAP1 DIV PUSH20 0xFFFFFFFFFFFFFFFFFFFFFFFFFFFFFFFFFFFFFFFF AND PUSH20 0xFFFFFFFFFFFFFFFFFFFFFFFFFFFFFFFFFFFFFFFF AND PUSH20 0xFFFFFFFFFFFFFFFFFFFFFFFFFFFFFFFFFFFFFFFF AND DUP2 MSTORE PUSH1 0x20 ADD PUSH1 0x1 DUP3 ADD SLOAD DUP2 MSTORE PUSH1 0x20 ADD PUSH1 0x2 DUP3 ADD SLOAD DUP2 MSTORE PUSH1 0x20 ADD PUSH1 0x3 DUP3 ADD SLOAD DUP2 MSTORE PUSH1 0x20 ADD PUSH1 0x4 DUP3 ADD PUSH1 0x0 SWAP1 SLOAD SWAP1 PUSH2 0x100 EXP SWAP1 DIV PUSH1 0xFF AND ISZERO ISZERO ISZERO ISZERO DUP2 MSTORE POP POP SWAP1 POP SWAP2 SWAP1 POP JUMP JUMPDEST PUSH1 0x0 PUSH1 0x1 PUSH1 0x0 DUP4 DUP2 MSTORE PUSH1 0x20 ADD SWAP1 DUP2 MSTORE PUSH1 0x20 ADD PUSH1 0x0 KECCAK256 PUSH1 0x4 ADD PUSH1 0x0 SWAP1 SLOAD SWAP1 PUSH2 0x100 EXP SWAP1 DIV PUSH1 0xFF AND SWAP1 POP SWAP2 SWAP1 POP JUMP JUMPDEST PUSH2 0xA56 PUSH2 0xAD1 JUMP JUMPDEST PUSH1 0x0 PUSH20 0xFFFFFFFFFFFFFFFFFFFFFFFFFFFFFFFFFFFFFFFF AND DUP2 PUSH20 0xFFFFFFFFFFFFFFFFFFFFFFFFFFFFFFFFFFFFFFFF AND SUB PUSH2 0xAC5 JUMPI PUSH1 0x40 MLOAD PUSH32 0x8C379A000000000000000000000000000000000000000000000000000000000 DUP2 MSTORE PUSH1 0x4 ADD PUSH2 0xABC SWAP1 PUSH2 0x1418 JUMP JUMPDEST PUSH1 0x40 MLOAD DUP1 SWAP2 SUB SWAP1 REVERT JUMPDEST PUSH2 0xACE DUP2 PUSH2 0xB4F JUMP JUMPDEST POP JUMP JUMPDEST PUSH2 0xAD9 PUSH2 0xC13 JUMP JUMPDEST PUSH20 0xFFFFFFFFFFFFFFFFFFFFFFFFFFFFFFFFFFFFFFFF AND PUSH2 0xAF7 PUSH2 0x901 JUMP JUMPDEST PUSH20 0xFFFFFFFFFFFFFFFFFFFFFFFFFFFFFFFFFFFFFFFF AND EQ PUSH2 0xB4D JUMPI PUSH1 0x40 MLOAD PUSH32 0x8C379A000000000000000000000000000000000000000000000000000000000 DUP2 MSTORE PUSH1 0x4 ADD PUSH2 0xB44 SWAP1 PUSH2 0x1484 JUMP JUMPDEST PUSH1 0x40 MLOAD DUP1 SWAP2 SUB SWAP1 REVERT JUMPDEST JUMP JUMPDEST PUSH1 0x0 DUP1 PUSH1 0x0 SWAP1 SLOAD SWAP1 PUSH2 0x100 EXP SWAP1 DIV PUSH20 0xFFFFFFFFFFFFFFFFFFFFFFFFFFFFFFFFFFFFFFFF AND SWAP1 POP DUP2 PUSH1 0x0 DUP1 PUSH2 0x100 EXP DUP2 SLOAD DUP2 PUSH20 0xFFFFFFFFFFFFFFFFFFFFFFFFFFFFFFFFFFFFFFFF MUL NOT AND SWAP1 DUP4 PUSH20 0xFFFFFFFFFFFFFFFFFFFFFFFFFFFFFFFFFFFFFFFF AND MUL OR SWAP1 SSTORE POP DUP2 PUSH20 0xFFFFFFFFFFFFFFFFFFFFFFFFFFFFFFFFFFFFFFFF AND DUP2 PUSH20 0xFFFFFFFFFFFFFFFFFFFFFFFFFFFFFFFFFFFFFFFF AND PUSH32 0x8BE0079C531659141344CD1FD0A4F28419497F9722A3DAAFE3B4186F6B6457E0 PUSH1 0x40 MLOAD PUSH1 0x40 MLOAD DUP1 SWAP2 SUB SWAP1 LOG3 POP POP JUMP JUMPDEST PUSH1 0x0 CALLER SWAP1 POP SWAP1 JUMP JUMPDEST PUSH1 0x40 MLOAD DUP1 PUSH1 0xC0 ADD PUSH1 0x40 MSTORE DUP1 PUSH1 0x0 PUSH1 0x1 DUP2 GT ISZERO PUSH2 0xC3A JUMPI PUSH2 0xC39 PUSH2 0xE0B JUMP JUMPDEST JUMPDEST DUP2 MSTORE PUSH1 0x20 ADD PUSH1 0x0 PUSH20 0xFFFFFFFFFFFFFFFFFFFFFFFFFFFFFFFFFFFFFFFF AND DUP2 MSTORE PUSH1 0x20 ADD PUSH1 0x0 DUP2 MSTORE PUSH1 0x20 ADD PUSH1 0x0 DUP2 MSTORE PUSH1 0x20 ADD PUSH1 0x0 DUP2 MSTORE PUSH1 0x20 ADD PUSH1 0x0 ISZERO ISZERO DUP2 MSTORE POP SWAP1 JUMP JUMPDEST PUSH1 0x0 DUP1 REVERT JUMPDEST PUSH1 0x0 DUP2 SWAP1 POP SWAP2 SWAP1 POP JUMP JUMPDEST PUSH2 0xC93 DUP2 PUSH2 0xC80 JUMP JUMPDEST DUP2 EQ PUSH2 0xC9E JUMPI PUSH1 0x0 DUP1 REVERT JUMPDEST POP JUMP JUMPDEST PUSH1 0x0 DUP2 CALLDATALOAD SWAP1 POP PUSH2 0xCB0 DUP2 PUSH2 0xC8A JUMP JUMPDEST SWAP3 SWAP2 POP POP JUMP JUMPDEST PUSH1 0x0 DUP1 PUSH1 0x40 DUP4 DUP6 SUB SLT ISZERO PUSH2 0xCCD JUMPI PUSH2 0xCCC PUSH2 0xC7B JUMP JUMPDEST JUMPDEST PUSH1 0x0 PUSH2 0xCDB DUP6 DUP3 DUP7 ADD PUSH2 0xCA1 JUMP JUMPDEST SWAP3 POP POP PUSH1 0x20 PUSH2 0xCEC DUP6 DUP3 DUP7 ADD PUSH2 0xCA1 JUMP JUMPDEST SWAP2 POP POP SWAP3 POP SWAP3 SWAP1 POP JUMP JUMPDEST PUSH1 0x0 PUSH20 0xFFFFFFFFFFFFFFFFFFFFFFFFFFFFFFFFFFFFFFFF DUP3 AND SWAP1 POP SWAP2 SWAP1 POP JUMP JUMPDEST PUSH1 0x0 PUSH2 0xD21 DUP3 PUSH2 0xCF6 JUMP JUMPDEST SWAP1 POP SWAP2 SWAP1 POP JUMP JUMPDEST PUSH2 0xD31 DUP2 PUSH2 0xD16 JUMP JUMPDEST DUP3 MSTORE POP POP JUMP JUMPDEST PUSH1 0x0 PUSH1 0x20 DUP3 ADD SWAP1 POP PUSH2 0xD4C PUSH1 0x0 DUP4 ADD DUP5 PUSH2 0xD28 JUMP JUMPDEST SWAP3 SWAP2 POP POP JUMP JUMPDEST PUSH1 0x2 DUP2 LT PUSH2 0xD5F JUMPI PUSH1 0x0 DUP1 REVERT JUMPDEST POP JUMP JUMPDEST PUSH1 0x0 DUP2 CALLDATALOAD SWAP1 POP PUSH2 0xD71 DUP2 PUSH2 0xD52 JUMP JUMPDEST SWAP3 SWAP2 POP POP JUMP JUMPDEST PUSH1 0x0 DUP1 PUSH1 0x0 DUP1 PUSH1 0x80 DUP6 DUP8 SUB SLT ISZERO PUSH2 0xD91 JUMPI PUSH2 0xD90 PUSH2 0xC7B JUMP JUMPDEST JUMPDEST PUSH1 0x0 PUSH2 0xD9F DUP8 DUP3 DUP9 ADD PUSH2 0xD62 JUMP JUMPDEST SWAP5 POP POP PUSH1 0x20 PUSH2 0xDB0 DUP8 DUP3 DUP9 ADD PUSH2 0xCA1 JUMP JUMPDEST SWAP4 POP POP PUSH1 0x40 PUSH2 0xDC1 DUP8 DUP3 DUP9 ADD PUSH2 0xCA1 JUMP JUMPDEST SWAP3 POP POP PUSH1 0x60 PUSH2 0xDD2 DUP8 DUP3 DUP9 ADD PUSH2 0xCA1 JUMP JUMPDEST SWAP2 POP POP SWAP3 SWAP6 SWAP2 SWAP5 POP SWAP3 POP JUMP JUMPDEST PUSH1 0x0 PUSH1 0x20 DUP3 DUP5 SUB SLT ISZERO PUSH2 0xDF4 JUMPI PUSH2 0xDF3 PUSH2 0xC7B JUMP JUMPDEST JUMPDEST PUSH1 0x0 PUSH2 0xE02 DUP5 DUP3 DUP6 ADD PUSH2 0xCA1 JUMP JUMPDEST SWAP2 POP POP SWAP3 SWAP2 POP POP JUMP JUMPDEST PUSH32 0x4E487B7100000000000000000000000000000000000000000000000000000000 PUSH1 0x0 MSTORE PUSH1 0x21 PUSH1 0x4 MSTORE PUSH1 0x24 PUSH1 0x0 REVERT JUMPDEST PUSH1 0x2 DUP2 LT PUSH2 0xE4B JUMPI PUSH2 0xE4A PUSH2 0xE0B JUMP JUMPDEST JUMPDEST POP JUMP JUMPDEST PUSH1 0x0 DUP2 SWAP1 POP PUSH2 0xE5C DUP3 PUSH2 0xE3A JUMP JUMPDEST SWAP2 SWAP1 POP JUMP JUMPDEST PUSH1 0x0 PUSH2 0xE6C DUP3 PUSH2 0xE4E JUMP JUMPDEST SWAP1 POP SWAP2 SWAP1 POP JUMP JUMPDEST PUSH2 0xE7C DUP2 PUSH2 0xE61 JUMP JUMPDEST DUP3 MSTORE POP POP JUMP JUMPDEST PUSH2 0xE8B DUP2 PUSH2 0xD16 JUMP JUMPDEST DUP3 MSTORE POP POP JUMP JUMPDEST PUSH2 0xE9A DUP2 PUSH2 0xC80 JUMP JUMPDEST DUP3 MSTORE POP POP JUMP JUMPDEST PUSH1 0x0 DUP2 ISZERO ISZERO SWAP1 POP SWAP2 SWAP1 POP JUMP JUMPDEST PUSH2 0xEB5 DUP2 PUSH2 0xEA0 JUMP JUMPDEST DUP3 MSTORE POP POP JUMP JUMPDEST PUSH1 0xC0 DUP3 ADD PUSH1 0x0 DUP3 ADD MLOAD PUSH2 0xED1 PUSH1 0x0 DUP6 ADD DUP3 PUSH2 0xE73 JUMP JUMPDEST POP PUSH1 0x20 DUP3 ADD MLOAD PUSH2 0xEE4 PUSH1 0x20 DUP6 ADD DUP3 PUSH2 0xE82 JUMP JUMPDEST POP PUSH1 0x40 DUP3 ADD MLOAD PUSH2 0xEF7 PUSH1 0x40 DUP6 ADD DUP3 PUSH2 0xE91 JUMP JUMPDEST POP PUSH1 0x60 DUP3 ADD MLOAD PUSH2 0xF0A PUSH1 0x60 DUP6 ADD DUP3 PUSH2 0xE91 JUMP JUMPDEST POP PUSH1 0x80 DUP3 ADD MLOAD PUSH2 0xF1D PUSH1 0x80 DUP6 ADD DUP3 PUSH2 0xE91 JUMP JUMPDEST POP PUSH1 0xA0 DUP3 ADD MLOAD PUSH2 0xF30 PUSH1 0xA0 DUP6 ADD DUP3 PUSH2 0xEAC JUMP JUMPDEST POP POP POP POP JUMP JUMPDEST PUSH1 0x0 PUSH1 0xC0 DUP3 ADD SWAP1 POP PUSH2 0xF4B PUSH1 0x0 DUP4 ADD DUP5 PUSH2 0xEBB JUMP JUMPDEST SWAP3 SWAP2 POP POP JUMP JUMPDEST PUSH2 0xF5A DUP2 PUSH2 0xEA0 JUMP JUMPDEST DUP3 MSTORE POP POP JUMP JUMPDEST PUSH1 0x0 PUSH1 0x20 DUP3 ADD SWAP1 POP PUSH2 0xF75 PUSH1 0x0 DUP4 ADD DUP5 PUSH2 0xF51 JUMP JUMPDEST SWAP3 SWAP2 POP POP JUMP JUMPDEST PUSH2 0xF84 DUP2 PUSH2 0xD16 JUMP JUMPDEST DUP2 EQ PUSH2 0xF8F JUMPI PUSH1 0x0 DUP1 REVERT JUMPDEST POP JUMP JUMPDEST PUSH1 0x0 DUP2 CALLDATALOAD SWAP1 POP PUSH2 0xFA1 DUP2 PUSH2 0xF7B JUMP JUMPDEST SWAP3 SWAP2 POP POP JUMP JUMPDEST PUSH1 0x0 PUSH1 0x20 DUP3 DUP5 SUB SLT ISZERO PUSH2 0xFBD JUMPI PUSH2 0xFBC PUSH2 0xC7B JUMP JUMPDEST JUMPDEST PUSH1 0x0 PUSH2 0xFCB DUP5 DUP3 DUP6 ADD PUSH2 0xF92 JUMP JUMPDEST SWAP2 POP POP SWAP3 SWAP2 POP POP JUMP JUMPDEST PUSH1 0x0 DUP3 DUP3 MSTORE PUSH1 0x20 DUP3 ADD SWAP1 POP SWAP3 SWAP2 POP POP JUMP JUMPDEST PUSH32 0x46544F54726164696E673A204F72646572206973206E6F742061637469766500 PUSH1 0x0 DUP3 ADD MSTORE POP JUMP JUMPDEST PUSH1 0x0 PUSH2 0x101B PUSH1 0x1F DUP4 PUSH2 0xFD4 JUMP JUMPDEST SWAP2 POP PUSH2 0x1026 DUP3 PUSH2 0xFE5 JUMP JUMPDEST PUSH1 0x20 DUP3 ADD SWAP1 POP SWAP2 SWAP1 POP JUMP JUMPDEST PUSH1 0x0 PUSH1 0x20 DUP3 ADD SWAP1 POP DUP2 DUP2 SUB PUSH1 0x0 DUP4 ADD MSTORE PUSH2 0x104A DUP2 PUSH2 0x100E JUMP JUMPDEST SWAP1 POP SWAP2 SWAP1 POP JUMP JUMPDEST PUSH32 0x46544F54726164696E673A2043616C6C6572206973206E6F7420746865207365 PUSH1 0x0 DUP3 ADD MSTORE PUSH32 0x6C6C657200000000000000000000000000000000000000000000000000000000 PUSH1 0x20 DUP3 ADD MSTORE POP JUMP JUMPDEST PUSH1 0x0 PUSH2 0x10AD PUSH1 0x24 DUP4 PUSH2 0xFD4 JUMP JUMPDEST SWAP2 POP PUSH2 0x10B8 DUP3 PUSH2 0x1051 JUMP JUMPDEST PUSH1 0x40 DUP3 ADD SWAP1 POP SWAP2 SWAP1 POP JUMP JUMPDEST PUSH1 0x0 PUSH1 0x20 DUP3 ADD SWAP1 POP DUP2 DUP2 SUB PUSH1 0x0 DUP4 ADD MSTORE PUSH2 0x10DC DUP2 PUSH2 0x10A0 JUMP JUMPDEST SWAP1 POP SWAP2 SWAP1 POP JUMP JUMPDEST PUSH32 0x46544F54726164696E673A20496E76616C6964207472656520636F756E740000 PUSH1 0x0 DUP3 ADD MSTORE POP JUMP JUMPDEST PUSH1 0x0 PUSH2 0x1119 PUSH1 0x1E DUP4 PUSH2 0xFD4 JUMP JUMPDEST SWAP2 POP PUSH2 0x1124 DUP3 PUSH2 0x10E3 JUMP JUMPDEST PUSH1 0x20 DUP3 ADD SWAP1 POP SWAP2 SWAP1 POP JUMP JUMPDEST PUSH1 0x0 PUSH1 0x20 DUP3 ADD SWAP1 POP DUP2 DUP2 SUB PUSH1 0x0 DUP4 ADD MSTORE PUSH2 0x1148 DUP2 PUSH2 0x110C JUMP JUMPDEST SWAP1 POP SWAP2 SWAP1 POP JUMP JUMPDEST PUSH32 0x46544F54726164696E673A20496E76616C696420707269636500000000000000 PUSH1 0x0 DUP3 ADD MSTORE POP JUMP JUMPDEST PUSH1 0x0 PUSH2 0x1185 PUSH1 0x19 DUP4 PUSH2 0xFD4 JUMP JUMPDEST SWAP2 POP PUSH2 0x1190 DUP3 PUSH2 0x114F JUMP JUMPDEST PUSH1 0x20 DUP3 ADD SWAP1 POP SWAP2 SWAP1 POP JUMP JUMPDEST PUSH1 0x0 PUSH1 0x20 DUP3 ADD SWAP1 POP DUP2 DUP2 SUB PUSH1 0x0 DUP4 ADD MSTORE PUSH2 0x11B4 DUP2 PUSH2 0x1178 JUMP JUMPDEST SWAP1 POP SWAP2 SWAP1 POP JUMP JUMPDEST PUSH2 0x11C4 DUP2 PUSH2 0xE61 JUMP JUMPDEST DUP3 MSTORE POP POP JUMP JUMPDEST PUSH2 0x11D3 DUP2 PUSH2 0xC80 JUMP JUMPDEST DUP3 MSTORE POP POP JUMP JUMPDEST PUSH1 0x0 PUSH1 0x60 DUP3 ADD SWAP1 POP PUSH2 0x11EE PUSH1 0x0 DUP4 ADD DUP7 PUSH2 0x11BB JUMP JUMPDEST PUSH2 0x11FB PUSH1 0x20 DUP4 ADD DUP6 PUSH2 0x11CA JUMP JUMPDEST PUSH2 0x1208 PUSH1 0x40 DUP4 ADD DUP5 PUSH2 0x11CA JUMP JUMPDEST SWAP5 SWAP4 POP POP POP POP JUMP JUMPDEST PUSH1 0x0 PUSH1 0x40 DUP3 ADD SWAP1 POP PUSH2 0x1225 PUSH1 0x0 DUP4 ADD DUP6 PUSH2 0x11BB JUMP JUMPDEST PUSH2 0x1232 PUSH1 0x20 DUP4 ADD DUP5 PUSH2 0x11CA JUMP JUMPDEST SWAP4 SWAP3 POP POP POP JUMP JUMPDEST PUSH32 0x46544F54726164696E673A2043616C6C6572206973207468652073656C6C6572 PUSH1 0x0 DUP3 ADD MSTORE POP JUMP JUMPDEST PUSH1 0x0 PUSH2 0x126F PUSH1 0x20 DUP4 PUSH2 0xFD4 JUMP JUMPDEST SWAP2 POP PUSH2 0x127A DUP3 PUSH2 0x1239 JUMP JUMPDEST PUSH1 0x20 DUP3 ADD SWAP1 POP SWAP2 SWAP1 POP JUMP JUMPDEST PUSH1 0x0 PUSH1 0x20 DUP3 ADD SWAP1 POP DUP2 DUP2 SUB PUSH1 0x0 DUP4 ADD MSTORE PUSH2 0x129E DUP2 PUSH2 0x1262 JUMP JUMPDEST SWAP1 POP SWAP2 SWAP1 POP JUMP JUMPDEST PUSH32 0x4E487B7100000000000000000000000000000000000000000000000000000000 PUSH1 0x0 MSTORE PUSH1 0x11 PUSH1 0x4 MSTORE PUSH1 0x24 PUSH1 0x0 REVERT JUMPDEST PUSH1 0x0 PUSH2 0x12DF DUP3 PUSH2 0xC80 JUMP JUMPDEST SWAP2 POP PUSH2 0x12EA DUP4 PUSH2 0xC80 JUMP JUMPDEST SWAP3 POP DUP3 DUP3 MUL PUSH2 0x12F8 DUP2 PUSH2 0xC80 JUMP JUMPDEST SWAP2 POP DUP3 DUP3 DIV DUP5 EQ DUP4 ISZERO OR PUSH2 0x130F JUMPI PUSH2 0x130E PUSH2 0x12A5 JUMP JUMPDEST JUMPDEST POP SWAP3 SWAP2 POP POP JUMP JUMPDEST PUSH1 0x0 PUSH1 0x60 DUP3 ADD SWAP1 POP PUSH2 0x132B PUSH1 0x0 DUP4 ADD DUP7 PUSH2 0xD28 JUMP JUMPDEST PUSH2 0x1338 PUSH1 0x20 DUP4 ADD DUP6 PUSH2 0xD28 JUMP JUMPDEST PUSH2 0x1345 PUSH1 0x40 DUP4 ADD DUP5 PUSH2 0x11CA JUMP JUMPDEST SWAP5 SWAP4 POP POP POP POP JUMP JUMPDEST PUSH2 0x1356 DUP2 PUSH2 0xEA0 JUMP JUMPDEST DUP2 EQ PUSH2 0x1361 JUMPI PUSH1 0x0 DUP1 REVERT JUMPDEST POP JUMP JUMPDEST PUSH1 0x0 DUP2 MLOAD SWAP1 POP PUSH2 0x1373 DUP2 PUSH2 0x134D JUMP JUMPDEST SWAP3 SWAP2 POP POP JUMP JUMPDEST PUSH1 0x0 PUSH1 0x20 DUP3 DUP5 SUB SLT ISZERO PUSH2 0x138F JUMPI PUSH2 0x138E PUSH2 0xC7B JUMP JUMPDEST JUMPDEST PUSH1 0x0 PUSH2 0x139D DUP5 DUP3 DUP6 ADD PUSH2 0x1364 JUMP JUMPDEST SWAP2 POP POP SWAP3 SWAP2 POP POP JUMP JUMPDEST PUSH32 0x4F776E61626C653A206E6577206F776E657220697320746865207A65726F2061 PUSH1 0x0 DUP3 ADD MSTORE PUSH32 0x6464726573730000000000000000000000000000000000000000000000000000 PUSH1 0x20 DUP3 ADD MSTORE POP JUMP JUMPDEST PUSH1 0x0 PUSH2 0x1402 PUSH1 0x26 DUP4 PUSH2 0xFD4 JUMP JUMPDEST SWAP2 POP PUSH2 0x140D DUP3 PUSH2 0x13A6 JUMP JUMPDEST PUSH1 0x40 DUP3 ADD SWAP1 POP SWAP2 SWAP1 POP JUMP JUMPDEST PUSH1 0x0 PUSH1 0x20 DUP3 ADD SWAP1 POP DUP2 DUP2 SUB PUSH1 0x0 DUP4 ADD MSTORE PUSH2 0x1431 DUP2 PUSH2 0x13F5 JUMP JUMPDEST SWAP1 POP SWAP2 SWAP1 POP JUMP JUMPDEST PUSH32 0x4F776E61626C653A2063616C6C6572206973206E6F7420746865206F776E6572 PUSH1 0x0 DUP3 ADD MSTORE POP JUMP JUMPDEST PUSH1 0x0 PUSH2 0x146E PUSH1 0x20 DUP4 PUSH2 0xFD4 JUMP JUMPDEST SWAP2 POP PUSH2 0x1479 DUP3 PUSH2 0x1438 JUMP JUMPDEST PUSH1 0x20 DUP3 ADD SWAP1 POP SWAP2 SWAP1 POP JUMP JUMPDEST PUSH1 0x0 PUSH1 0x20 DUP3 ADD SWAP1 POP DUP2 DUP2 SUB PUSH1 0x0 DUP4 ADD MSTORE PUSH2 0x149D DUP2 PUSH2 0x1461 JUMP JUMPDEST SWAP1 POP SWAP2 SWAP1 POP JUMP INVALID LOG2 PUSH5 0x6970667358 0x22 SLT KECCAK256 SWAP13 0xE6 SWAP5 PUSH1 0xE 0xC9 GAS 0x2C 0x5D 0x2D 0xC JUMPI DUP15 0xD0 0xDE 0x5E 0x5D 0xC1 SWAP4 0xD1 0xBD BASEFEE 0xA6 SELFBALANCE 0xD1 EXTCODEHASH SWAP14 0xD8 0x28 0xDE CALL 0x5E PUSH5 0x736F6C6343 STOP ADDMOD SLT STOP CALLER "
				},
				"gasEstimates": {
					"creation": {
						"codeDepositCost": "1067600",
						"executionCost": "infinite",
						"totalCost": "infinite"
					},
					"external": {
						"cancelOrder(uint256)": "infinite",
						"fulfillOrder(uint256)": "infinite",
						"getOrder(uint256)": "infinite",
						"isOrderActive(uint256)": "2894",
						"listTokenForSale(uint256,uint256)": "infinite",
						"owner()": "2544",
						"placeOrder(uint8,uint256,uint256,uint256)": "infinite",
						"renounceOwnership()": "30398",
						"transferOwnership(address)": "30832"
					}
				},
				"methodIdentifiers": {
					"cancelOrder(uint256)": "514fcac7",
					"fulfillOrder(uint256)": "6311e830",
					"getOrder(uint256)": "d09ef241",
					"isOrderActive(uint256)": "d6e43585",
					"listTokenForSale(uint256,uint256)": "2406e677",
					"owner()": "8da5cb5b",
					"placeOrder(uint8,uint256,uint256,uint256)": "4622c218",
					"renounceOwnership()": "715018a6",
					"transferOwnership(address)": "f2fde38b"
				}
			},
			"storageLayout": {
				"storage": [
					{
						"astId": 7,
						"contract": "FTOTrading.sol:FTOTrading",
						"label": "_owner",
						"offset": 0,
						"slot": "0",
						"type": "t_address"
					},
					{
						"astId": 240,
						"contract": "FTOTrading.sol:FTOTrading",
						"label": "_orders",
						"offset": 0,
						"slot": "1",
						"type": "t_mapping(t_uint256,t_struct(Order)235_storage)"
					},
					{
						"astId": 243,
						"contract": "FTOTrading.sol:FTOTrading",
						"label": "_ftoToken",
						"offset": 0,
						"slot": "2",
						"type": "t_contract(IERC20)190"
					}
				],
				"types": {
					"t_address": {
						"encoding": "inplace",
						"label": "address",
						"numberOfBytes": "20"
					},
					"t_bool": {
						"encoding": "inplace",
						"label": "bool",
						"numberOfBytes": "1"
					},
					"t_contract(IERC20)190": {
						"encoding": "inplace",
						"label": "contract IERC20",
						"numberOfBytes": "20"
					},
					"t_enum(TokenType)221": {
						"encoding": "inplace",
						"label": "enum FTOTrading.TokenType",
						"numberOfBytes": "1"
					},
					"t_mapping(t_uint256,t_struct(Order)235_storage)": {
						"encoding": "mapping",
						"key": "t_uint256",
						"label": "mapping(uint256 => struct FTOTrading.Order)",
						"numberOfBytes": "32",
						"value": "t_struct(Order)235_storage"
					},
					"t_struct(Order)235_storage": {
						"encoding": "inplace",
						"label": "struct FTOTrading.Order",
						"members": [
							{
								"astId": 224,
								"contract": "FTOTrading.sol:FTOTrading",
								"label": "tokenType",
								"offset": 0,
								"slot": "0",
								"type": "t_enum(TokenType)221"
							},
							{
								"astId": 226,
								"contract": "FTOTrading.sol:FTOTrading",
								"label": "seller",
								"offset": 1,
								"slot": "0",
								"type": "t_address"
							},
							{
								"astId": 228,
								"contract": "FTOTrading.sol:FTOTrading",
								"label": "tokenId",
								"offset": 0,
								"slot": "1",
								"type": "t_uint256"
							},
							{
								"astId": 230,
								"contract": "FTOTrading.sol:FTOTrading",
								"label": "treeCount",
								"offset": 0,
								"slot": "2",
								"type": "t_uint256"
							},
							{
								"astId": 232,
								"contract": "FTOTrading.sol:FTOTrading",
								"label": "price",
								"offset": 0,
								"slot": "3",
								"type": "t_uint256"
							},
							{
								"astId": 234,
								"contract": "FTOTrading.sol:FTOTrading",
								"label": "active",
								"offset": 0,
								"slot": "4",
								"type": "t_bool"
							}
						],
						"numberOfBytes": "160"
					},
					"t_uint256": {
						"encoding": "inplace",
						"label": "uint256",
						"numberOfBytes": "32"
					}
				}
			},
			"userdoc": {
				"kind": "user",
				"methods": {},
				"version": 1
			}
		}
	}
}