{
	"contracts/TEX.sol": {
		"TEX": {
			"abi": [
				{
					"inputs": [
						{
							"internalType": "uint256",
							"name": "initialSupply",
							"type": "uint256"
						}
					],
					"stateMutability": "nonpayable",
					"type": "constructor"
				},
				{
					"anonymous": false,
					"inputs": [
						{
							"indexed": true,
							"internalType": "address",
							"name": "owner",
							"type": "address"
						},
						{
							"indexed": true,
							"internalType": "address",
							"name": "spender",
							"type": "address"
						},
						{
							"indexed": false,
							"internalType": "uint256",
							"name": "value",
							"type": "uint256"
						}
					],
					"name": "Approval",
					"type": "event"
				},
				{
					"anonymous": false,
					"inputs": [
						{
							"indexed": true,
							"internalType": "address",
							"name": "previousOwner",
							"type": "address"
						},
						{
							"indexed": true,
							"internalType": "address",
							"name": "newOwner",
							"type": "address"
						}
					],
					"name": "OwnershipTransferred",
					"type": "event"
				},
				{
					"anonymous": false,
					"inputs": [
						{
							"indexed": false,
							"internalType": "address",
							"name": "account",
							"type": "address"
						}
					],
					"name": "Paused",
					"type": "event"
				},
				{
					"anonymous": false,
					"inputs": [
						{
							"indexed": true,
							"internalType": "address",
							"name": "from",
							"type": "address"
						},
						{
							"indexed": true,
							"internalType": "address",
							"name": "to",
							"type": "address"
						},
						{
							"indexed": false,
							"internalType": "uint256",
							"name": "value",
							"type": "uint256"
						}
					],
					"name": "Transfer",
					"type": "event"
				},
				{
					"anonymous": false,
					"inputs": [
						{
							"indexed": false,
							"internalType": "address",
							"name": "account",
							"type": "address"
						}
					],
					"name": "Unpaused",
					"type": "event"
				},
				{
					"inputs": [
						{
							"internalType": "address",
							"name": "owner",
							"type": "address"
						},
						{
							"internalType": "address",
							"name": "spender",
							"type": "address"
						}
					],
					"name": "allowance",
					"outputs": [
						{
							"internalType": "uint256",
							"name": "",
							"type": "uint256"
						}
					],
					"stateMutability": "view",
					"type": "function"
				},
				{
					"inputs": [
						{
							"internalType": "address",
							"name": "spender",
							"type": "address"
						},
						{
							"internalType": "uint256",
							"name": "amount",
							"type": "uint256"
						}
					],
					"name": "approve",
					"outputs": [
						{
							"internalType": "bool",
							"name": "",
							"type": "bool"
						}
					],
					"stateMutability": "nonpayable",
					"type": "function"
				},
				{
					"inputs": [
						{
							"internalType": "address",
							"name": "account",
							"type": "address"
						}
					],
					"name": "balanceOf",
					"outputs": [
						{
							"internalType": "uint256",
							"name": "",
							"type": "uint256"
						}
					],
					"stateMutability": "view",
					"type": "function"
				},
				{
					"inputs": [
						{
							"internalType": "uint256",
							"name": "amount",
							"type": "uint256"
						}
					],
					"name": "burn",
					"outputs": [],
					"stateMutability": "nonpayable",
					"type": "function"
				},
				{
					"inputs": [
						{
							"internalType": "string",
							"name": "description",
							"type": "string"
						}
					],
					"name": "createProposal",
					"outputs": [],
					"stateMutability": "nonpayable",
					"type": "function"
				},
				{
					"inputs": [],
					"name": "decimals",
					"outputs": [
						{
							"internalType": "uint8",
							"name": "",
							"type": "uint8"
						}
					],
					"stateMutability": "view",
					"type": "function"
				},
				{
					"inputs": [
						{
							"internalType": "address",
							"name": "spender",
							"type": "address"
						},
						{
							"internalType": "uint256",
							"name": "subtractedValue",
							"type": "uint256"
						}
					],
					"name": "decreaseAllowance",
					"outputs": [
						{
							"internalType": "bool",
							"name": "",
							"type": "bool"
						}
					],
					"stateMutability": "nonpayable",
					"type": "function"
				},
				{
					"inputs": [
						{
							"internalType": "uint256",
							"name": "proposalId",
							"type": "uint256"
						}
					],
					"name": "getProposal",
					"outputs": [
						{
							"internalType": "uint256",
							"name": "id",
							"type": "uint256"
						},
						{
							"internalType": "address",
							"name": "creator",
							"type": "address"
						},
						{
							"internalType": "string",
							"name": "description",
							"type": "string"
						},
						{
							"internalType": "uint256",
							"name": "yesVotes",
							"type": "uint256"
						},
						{
							"internalType": "uint256",
							"name": "noVotes",
							"type": "uint256"
						}
					],
					"stateMutability": "view",
					"type": "function"
				},
				{
					"inputs": [
						{
							"internalType": "address",
							"name": "spender",
							"type": "address"
						},
						{
							"internalType": "uint256",
							"name": "addedValue",
							"type": "uint256"
						}
					],
					"name": "increaseAllowance",
					"outputs": [
						{
							"internalType": "bool",
							"name": "",
							"type": "bool"
						}
					],
					"stateMutability": "nonpayable",
					"type": "function"
				},
				{
					"inputs": [
						{
							"internalType": "address",
							"name": "recipient",
							"type": "address"
						},
						{
							"internalType": "uint256",
							"name": "amount",
							"type": "uint256"
						}
					],
					"name": "mint",
					"outputs": [],
					"stateMutability": "nonpayable",
					"type": "function"
				},
				{
					"inputs": [],
					"name": "name",
					"outputs": [
						{
							"internalType": "string",
							"name": "",
							"type": "string"
						}
					],
					"stateMutability": "view",
					"type": "function"
				},
				{
					"inputs": [],
					"name": "owner",
					"outputs": [
						{
							"internalType": "address",
							"name": "",
							"type": "address"
						}
					],
					"stateMutability": "view",
					"type": "function"
				},
				{
					"inputs": [],
					"name": "pause",
					"outputs": [],
					"stateMutability": "nonpayable",
					"type": "function"
				},
				{
					"inputs": [],
					"name": "paused",
					"outputs": [
						{
							"internalType": "bool",
							"name": "",
							"type": "bool"
						}
					],
					"stateMutability": "view",
					"type": "function"
				},
				{
					"inputs": [],
					"name": "proposalCount",
					"outputs": [
						{
							"internalType": "uint256",
							"name": "",
							"type": "uint256"
						}
					],
					"stateMutability": "view",
					"type": "function"
				},
				{
					"inputs": [
						{
							"internalType": "uint256",
							"name": "",
							"type": "uint256"
						}
					],
					"name": "proposals",
					"outputs": [
						{
							"internalType": "uint256",
							"name": "id",
							"type": "uint256"
						},
						{
							"internalType": "address",
							"name": "creator",
							"type": "address"
						},
						{
							"internalType": "string",
							"name": "description",
							"type": "string"
						},
						{
							"internalType": "uint256",
							"name": "yesVotes",
							"type": "uint256"
						},
						{
							"internalType": "uint256",
							"name": "noVotes",
							"type": "uint256"
						}
					],
					"stateMutability": "view",
					"type": "function"
				},
				{
					"inputs": [],
					"name": "renounceOwnership",
					"outputs": [],
					"stateMutability": "nonpayable",
					"type": "function"
				},
				{
					"inputs": [],
					"name": "symbol",
					"outputs": [
						{
							"internalType": "string",
							"name": "",
							"type": "string"
						}
					],
					"stateMutability": "view",
					"type": "function"
				},
				{
					"inputs": [],
					"name": "totalSupply",
					"outputs": [
						{
							"internalType": "uint256",
							"name": "",
							"type": "uint256"
						}
					],
					"stateMutability": "view",
					"type": "function"
				},
				{
					"inputs": [
						{
							"internalType": "address",
							"name": "recipient",
							"type": "address"
						},
						{
							"internalType": "uint256",
							"name": "amount",
							"type": "uint256"
						}
					],
					"name": "transfer",
					"outputs": [
						{
							"internalType": "bool",
							"name": "",
							"type": "bool"
						}
					],
					"stateMutability": "nonpayable",
					"type": "function"
				},
				{
					"inputs": [
						{
							"internalType": "address",
							"name": "sender",
							"type": "address"
						},
						{
							"internalType": "address",
							"name": "recipient",
							"type": "address"
						},
						{
							"internalType": "uint256",
							"name": "amount",
							"type": "uint256"
						}
					],
					"name": "transferFrom",
					"outputs": [
						{
							"internalType": "bool",
							"name": "",
							"type": "bool"
						}
					],
					"stateMutability": "nonpayable",
					"type": "function"
				},
				{
					"inputs": [
						{
							"internalType": "address",
							"name": "newOwner",
							"type": "address"
						}
					],
					"name": "transferOwnership",
					"outputs": [],
					"stateMutability": "nonpayable",
					"type": "function"
				},
				{
					"inputs": [],
					"name": "unpause",
					"outputs": [],
					"stateMutability": "nonpayable",
					"type": "function"
				},
				{
					"inputs": [
						{
							"internalType": "uint256",
							"name": "proposalId",
							"type": "uint256"
						},
						{
							"internalType": "bool",
							"name": "yesVote",
							"type": "bool"
						}
					],
					"name": "vote",
					"outputs": [],
					"stateMutability": "nonpayable",
					"type": "function"
				}
			],
			"devdoc": {
				"events": {
					"Approval(address,address,uint256)": {
						"details": "Emitted when the allowance of a `spender` for an `owner` is set by a call to {approve}. `value` is the new allowance."
					},
					"Paused(address)": {
						"details": "Emitted when the pause is triggered by `account`."
					},
					"Transfer(address,address,uint256)": {
						"details": "Emitted when `value` tokens are moved from one account (`from`) to another (`to`). Note that `value` may be zero."
					},
					"Unpaused(address)": {
						"details": "Emitted when the pause is lifted by `account`."
					}
				},
				"kind": "dev",
				"methods": {
					"allowance(address,address)": {
						"details": "See {IERC20-allowance}."
					},
					"approve(address,uint256)": {
						"details": "See {IERC20-approve}. NOTE: If `amount` is the maximum `uint256`, the allowance is not updated on `transferFrom`. This is semantically equivalent to an infinite approval. Requirements: - `spender` cannot be the zero address."
					},
					"balanceOf(address)": {
						"details": "See {IERC20-balanceOf}."
					},
					"decimals()": {
						"details": "Returns the number of decimals used to get its user representation. For example, if `decimals` equals `2`, a balance of `505` tokens should be displayed to a user as `5.05` (`505 / 10 ** 2`). Tokens usually opt for a value of 18, imitating the relationship between Ether and Wei. This is the value {ERC20} uses, unless this function is overridden; NOTE: This information is only used for _display_ purposes: it in no way affects any of the arithmetic of the contract, including {IERC20-balanceOf} and {IERC20-transfer}."
					},
					"decreaseAllowance(address,uint256)": {
						"details": "Atomically decreases the allowance granted to `spender` by the caller. This is an alternative to {approve} that can be used as a mitigation for problems described in {IERC20-approve}. Emits an {Approval} event indicating the updated allowance. Requirements: - `spender` cannot be the zero address. - `spender` must have allowance for the caller of at least `subtractedValue`."
					},
					"increaseAllowance(address,uint256)": {
						"details": "Atomically increases the allowance granted to `spender` by the caller. This is an alternative to {approve} that can be used as a mitigation for problems described in {IERC20-approve}. Emits an {Approval} event indicating the updated allowance. Requirements: - `spender` cannot be the zero address."
					},
					"name()": {
						"details": "Returns the name of the token."
					},
					"owner()": {
						"details": "Returns the address of the current owner."
					},
					"paused()": {
						"details": "Returns true if the contract is paused, and false otherwise."
					},
					"renounceOwnership()": {
						"details": "Leaves the contract without owner. It will not be possible to call `onlyOwner` functions anymore. Can only be called by the current owner. NOTE: Renouncing ownership will leave the contract without an owner, thereby removing any functionality that is only available to the owner."
					},
					"symbol()": {
						"details": "Returns the symbol of the token, usually a shorter version of the name."
					},
					"totalSupply()": {
						"details": "See {IERC20-totalSupply}."
					},
					"transferOwnership(address)": {
						"details": "Transfers ownership of the contract to a new account (`newOwner`). Can only be called by the current owner."
					}
				},
				"version": 1
			},
			"evm": {
				"assembly": "    /* \"contracts/TEX.sol\":230:2950  contract TEX is ERC20, Ownable, Pausable {... */\n  mstore(0x40, 0x80)\n    /* \"contracts/TEX.sol\":499:500  0 */\n  0x00\n    /* \"contracts/TEX.sol\":471:500  uint public proposalCount = 0 */\n  0x06\n  sstore\n    /* \"contracts/TEX.sol\":556:686  constructor(uint256 initialSupply) ERC20(\"Fruittex Currency Token\", \"TEX\") {... */\n  callvalue\n  dup1\n  iszero\n  tag_1\n  jumpi\n  0x00\n  dup1\n  revert\ntag_1:\n  pop\n  mload(0x40)\n  sub(codesize, bytecodeSize)\n  dup1\n  bytecodeSize\n  dup4\n  codecopy\n  dup2\n  dup2\n  add\n  0x40\n  mstore\n  dup2\n  add\n  swap1\n  tag_2\n  swap2\n  swap1\n  tag_3\n  jump\t// in\ntag_2:\n    /* \"@openzeppelin/contracts/token/ERC20/ERC20.sol\":1976:2089  constructor(string memory name_, string memory symbol_) {... */\n  mload(0x40)\n  dup1\n  0x40\n  add\n  0x40\n  mstore\n  dup1\n  0x17\n  dup2\n  mstore\n  0x20\n  add\n  0x46727569747465782043757272656e637920546f6b656e000000000000000000\n  dup2\n  mstore\n  pop\n  mload(0x40)\n  dup1\n  0x40\n  add\n  0x40\n  mstore\n  dup1\n  0x03\n  dup2\n  mstore\n  0x20\n  add\n  0x5445580000000000000000000000000000000000000000000000000000000000\n  dup2\n  mstore\n  pop\n    /* \"@openzeppelin/contracts/token/ERC20/ERC20.sol\":2050:2055  name_ */\n  dup2\n    /* \"@openzeppelin/contracts/token/ERC20/ERC20.sol\":2042:2047  _name */\n  0x03\n    /* \"@openzeppelin/contracts/token/ERC20/ERC20.sol\":2042:2055  _name = name_ */\n  swap1\n  dup2\n  tag_9\n  swap2\n  swap1\n  tag_10\n  jump\t// in\ntag_9:\n  pop\n    /* \"@openzeppelin/contracts/token/ERC20/ERC20.sol\":2075:2082  symbol_ */\n  dup1\n    /* \"@openzeppelin/contracts/token/ERC20/ERC20.sol\":2065:2072  _symbol */\n  0x04\n    /* \"@openzeppelin/contracts/token/ERC20/ERC20.sol\":2065:2082  _symbol = symbol_ */\n  swap1\n  dup2\n  tag_11\n  swap2\n  swap1\n  tag_10\n  jump\t// in\ntag_11:\n  pop\n    /* \"@openzeppelin/contracts/token/ERC20/ERC20.sol\":1976:2089  constructor(string memory name_, string memory symbol_) {... */\n  pop\n  pop\n    /* \"@openzeppelin/contracts/access/Ownable.sol\":936:968  _transferOwnership(_msgSender()) */\n  tag_13\n    /* \"@openzeppelin/contracts/access/Ownable.sol\":955:967  _msgSender() */\n  tag_14\n    /* \"@openzeppelin/contracts/access/Ownable.sol\":955:965  _msgSender */\n  shl(0x20, tag_15)\n    /* \"@openzeppelin/contracts/access/Ownable.sol\":955:967  _msgSender() */\n  0x20\n  shr\n  jump\t// in\ntag_14:\n    /* \"@openzeppelin/contracts/access/Ownable.sol\":936:954  _transferOwnership */\n  shl(0x20, tag_16)\n    /* \"@openzeppelin/contracts/access/Ownable.sol\":936:968  _transferOwnership(_msgSender()) */\n  0x20\n  shr\n  jump\t// in\ntag_13:\n    /* \"@openzeppelin/contracts/security/Pausable.sol\":1006:1011  false */\n  0x00\n    /* \"@openzeppelin/contracts/security/Pausable.sol\":996:1003  _paused */\n  0x05\n  0x14\n    /* \"@openzeppelin/contracts/security/Pausable.sol\":996:1011  _paused = false */\n  0x0100\n  exp\n  dup2\n  sload\n  dup2\n  0xff\n  mul\n  not\n  and\n  swap1\n  dup4\n  iszero\n  iszero\n  mul\n  or\n  swap1\n  sstore\n  pop\n    /* \"contracts/TEX.sol\":638:682  _mint(msg.sender, initialSupply * (10 ** 5)) */\n  tag_19\n    /* \"contracts/TEX.sol\":644:654  msg.sender */\n  caller\n    /* \"contracts/TEX.sol\":673:680  10 ** 5 */\n  0x0186a0\n    /* \"contracts/TEX.sol\":656:669  initialSupply */\n  dup4\n    /* \"contracts/TEX.sol\":656:681  initialSupply * (10 ** 5) */\n  tag_20\n  swap2\n  swap1\n  tag_21\n  jump\t// in\ntag_20:\n    /* \"contracts/TEX.sol\":638:643  _mint */\n  shl(0x20, tag_22)\n    /* \"contracts/TEX.sol\":638:682  _mint(msg.sender, initialSupply * (10 ** 5)) */\n  0x20\n  shr\n  jump\t// in\ntag_19:\n    /* \"contracts/TEX.sol\":556:686  constructor(uint256 initialSupply) ERC20(\"Fruittex Currency Token\", \"TEX\") {... */\n  pop\n    /* \"contracts/TEX.sol\":230:2950  contract TEX is ERC20, Ownable, Pausable {... */\n  jump(tag_23)\n    /* \"@openzeppelin/contracts/utils/Context.sol\":640:736  function _msgSender() internal view virtual returns (address) {... */\ntag_15:\n    /* \"@openzeppelin/contracts/utils/Context.sol\":693:700  address */\n  0x00\n    /* \"@openzeppelin/contracts/utils/Context.sol\":719:729  msg.sender */\n  caller\n    /* \"@openzeppelin/contracts/utils/Context.sol\":712:729  return msg.sender */\n  swap1\n  pop\n    /* \"@openzeppelin/contracts/utils/Context.sol\":640:736  function _msgSender() internal view virtual returns (address) {... */\n  swap1\n  jump\t// out\n    /* \"@openzeppelin/contracts/access/Ownable.sol\":2433:2620  function _transferOwnership(address newOwner) internal virtual {... */\ntag_16:\n    /* \"@openzeppelin/contracts/access/Ownable.sol\":2506:2522  address oldOwner */\n  0x00\n    /* \"@openzeppelin/contracts/access/Ownable.sol\":2525:2531  _owner */\n  0x05\n  0x00\n  swap1\n  sload\n  swap1\n  0x0100\n  exp\n  swap1\n  div\n  0xffffffffffffffffffffffffffffffffffffffff\n  and\n    /* \"@openzeppelin/contracts/access/Ownable.sol\":2506:2531  address oldOwner = _owner */\n  swap1\n  pop\n    /* \"@openzeppelin/contracts/access/Ownable.sol\":2550:2558  newOwner */\n  dup2\n    /* \"@openzeppelin/contracts/access/Ownable.sol\":2541:2547  _owner */\n  0x05\n  0x00\n    /* \"@openzeppelin/contracts/access/Ownable.sol\":2541:2558  _owner = newOwner */\n  0x0100\n  exp\n  dup2\n  sload\n  dup2\n  0xffffffffffffffffffffffffffffffffffffffff\n  mul\n  not\n  and\n  swap1\n  dup4\n  0xffffffffffffffffffffffffffffffffffffffff\n  and\n  mul\n  or\n  swap1\n  sstore\n  pop\n    /* \"@openzeppelin/contracts/access/Ownable.sol\":2604:2612  newOwner */\n  dup2\n    /* \"@openzeppelin/contracts/access/Ownable.sol\":2573:2613  OwnershipTransferred(oldOwner, newOwner) */\n  0xffffffffffffffffffffffffffffffffffffffff\n  and\n    /* \"@openzeppelin/contracts/access/Ownable.sol\":2594:2602  oldOwner */\n  dup2\n    /* \"@openzeppelin/contracts/access/Ownable.sol\":2573:2613  OwnershipTransferred(oldOwner, newOwner) */\n  0xffffffffffffffffffffffffffffffffffffffff\n  and\n  0x8be0079c531659141344cd1fd0a4f28419497f9722a3daafe3b4186f6b6457e0\n  mload(0x40)\n  mload(0x40)\n  dup1\n  swap2\n  sub\n  swap1\n  log3\n    /* \"@openzeppelin/contracts/access/Ownable.sol\":2496:2620  {... */\n  pop\n    /* \"@openzeppelin/contracts/access/Ownable.sol\":2433:2620  function _transferOwnership(address newOwner) internal virtual {... */\n  pop\n  jump\t// out\n    /* \"@openzeppelin/contracts/token/ERC20/ERC20.sol\":8567:9102  function _mint(address account, uint256 amount) internal virtual {... */\ntag_22:\n    /* \"@openzeppelin/contracts/token/ERC20/ERC20.sol\":8669:8670  0 */\n  0x00\n    /* \"@openzeppelin/contracts/token/ERC20/ERC20.sol\":8650:8671  account != address(0) */\n  0xffffffffffffffffffffffffffffffffffffffff\n  and\n    /* \"@openzeppelin/contracts/token/ERC20/ERC20.sol\":8650:8657  account */\n  dup3\n    /* \"@openzeppelin/contracts/token/ERC20/ERC20.sol\":8650:8671  account != address(0) */\n  0xffffffffffffffffffffffffffffffffffffffff\n  and\n  sub\n    /* \"@openzeppelin/contracts/token/ERC20/ERC20.sol\":8642:8707  require(account != address(0), \"ERC20: mint to the zero address\") */\n  tag_27\n  jumpi\n  mload(0x40)\n  0x08c379a000000000000000000000000000000000000000000000000000000000\n  dup2\n  mstore\n  0x04\n  add\n  tag_28\n  swap1\n  tag_29\n  jump\t// in\ntag_28:\n  mload(0x40)\n  dup1\n  swap2\n  sub\n  swap1\n  revert\ntag_27:\n    /* \"@openzeppelin/contracts/token/ERC20/ERC20.sol\":8718:8767  _beforeTokenTransfer(address(0), account, amount) */\n  tag_30\n    /* \"@openzeppelin/contracts/token/ERC20/ERC20.sol\":8747:8748  0 */\n  0x00\n    /* \"@openzeppelin/contracts/token/ERC20/ERC20.sol\":8751:8758  account */\n  dup4\n    /* \"@openzeppelin/contracts/token/ERC20/ERC20.sol\":8760:8766  amount */\n  dup4\n    /* \"@openzeppelin/contracts/token/ERC20/ERC20.sol\":8718:8738  _beforeTokenTransfer */\n  shl(0x20, tag_31)\n    /* \"@openzeppelin/contracts/token/ERC20/ERC20.sol\":8718:8767  _beforeTokenTransfer(address(0), account, amount) */\n  0x20\n  shr\n  jump\t// in\ntag_30:\n    /* \"@openzeppelin/contracts/token/ERC20/ERC20.sol\":8794:8800  amount */\n  dup1\n    /* \"@openzeppelin/contracts/token/ERC20/ERC20.sol\":8778:8790  _totalSupply */\n  0x02\n  0x00\n    /* \"@openzeppelin/contracts/token/ERC20/ERC20.sol\":8778:8800  _totalSupply += amount */\n  dup3\n  dup3\n  sload\n  tag_32\n  swap2\n  swap1\n  tag_33\n  jump\t// in\ntag_32:\n  swap3\n  pop\n  pop\n  dup2\n  swap1\n  sstore\n  pop\n    /* \"@openzeppelin/contracts/token/ERC20/ERC20.sol\":8968:8974  amount */\n  dup1\n    /* \"@openzeppelin/contracts/token/ERC20/ERC20.sol\":8946:8955  _balances */\n  0x00\n    /* \"@openzeppelin/contracts/token/ERC20/ERC20.sol\":8946:8964  _balances[account] */\n  dup1\n    /* \"@openzeppelin/contracts/token/ERC20/ERC20.sol\":8956:8963  account */\n  dup5\n    /* \"@openzeppelin/contracts/token/ERC20/ERC20.sol\":8946:8964  _balances[account] */\n  0xffffffffffffffffffffffffffffffffffffffff\n  and\n  0xffffffffffffffffffffffffffffffffffffffff\n  and\n  dup2\n  mstore\n  0x20\n  add\n  swap1\n  dup2\n  mstore\n  0x20\n  add\n  0x00\n  keccak256\n  0x00\n    /* \"@openzeppelin/contracts/token/ERC20/ERC20.sol\":8946:8974  _balances[account] += amount */\n  dup3\n  dup3\n  sload\n  add\n  swap3\n  pop\n  pop\n  dup2\n  swap1\n  sstore\n  pop\n    /* \"@openzeppelin/contracts/token/ERC20/ERC20.sol\":9020:9027  account */\n  dup2\n    /* \"@openzeppelin/contracts/token/ERC20/ERC20.sol\":8999:9036  Transfer(address(0), account, amount) */\n  0xffffffffffffffffffffffffffffffffffffffff\n  and\n    /* \"@openzeppelin/contracts/token/ERC20/ERC20.sol\":9016:9017  0 */\n  0x00\n    /* \"@openzeppelin/contracts/token/ERC20/ERC20.sol\":8999:9036  Transfer(address(0), account, amount) */\n  0xffffffffffffffffffffffffffffffffffffffff\n  and\n  0xddf252ad1be2c89b69c2b068fc378daa952ba7f163c4a11628f55a4df523b3ef\n    /* \"@openzeppelin/contracts/token/ERC20/ERC20.sol\":9029:9035  amount */\n  dup4\n    /* \"@openzeppelin/contracts/token/ERC20/ERC20.sol\":8999:9036  Transfer(address(0), account, amount) */\n  mload(0x40)\n  tag_34\n  swap2\n  swap1\n  tag_35\n  jump\t// in\ntag_34:\n  mload(0x40)\n  dup1\n  swap2\n  sub\n  swap1\n  log3\n    /* \"@openzeppelin/contracts/token/ERC20/ERC20.sol\":9047:9095  _afterTokenTransfer(address(0), account, amount) */\n  tag_36\n    /* \"@openzeppelin/contracts/token/ERC20/ERC20.sol\":9075:9076  0 */\n  0x00\n    /* \"@openzeppelin/contracts/token/ERC20/ERC20.sol\":9079:9086  account */\n  dup4\n    /* \"@openzeppelin/contracts/token/ERC20/ERC20.sol\":9088:9094  amount */\n  dup4\n    /* \"@openzeppelin/contracts/token/ERC20/ERC20.sol\":9047:9066  _afterTokenTransfer */\n  shl(0x20, tag_37)\n    /* \"@openzeppelin/contracts/token/ERC20/ERC20.sol\":9047:9095  _afterTokenTransfer(address(0), account, amount) */\n  0x20\n  shr\n  jump\t// in\ntag_36:\n    /* \"@openzeppelin/contracts/token/ERC20/ERC20.sol\":8567:9102  function _mint(address account, uint256 amount) internal virtual {... */\n  pop\n  pop\n  jump\t// out\n    /* \"@openzeppelin/contracts/token/ERC20/ERC20.sol\":12180:12301  function _beforeTokenTransfer(... */\ntag_31:\n  pop\n  pop\n  pop\n  jump\t// out\n    /* \"@openzeppelin/contracts/token/ERC20/ERC20.sol\":12889:13009  function _afterTokenTransfer(... */\ntag_37:\n  pop\n  pop\n  pop\n  jump\t// out\n    /* \"#utility.yul\":88:205   */\ntag_41:\n    /* \"#utility.yul\":197:198   */\n  0x00\n    /* \"#utility.yul\":194:195   */\n  dup1\n    /* \"#utility.yul\":187:199   */\n  revert\n    /* \"#utility.yul\":334:411   */\ntag_43:\n    /* \"#utility.yul\":371:378   */\n  0x00\n    /* \"#utility.yul\":400:405   */\n  dup2\n    /* \"#utility.yul\":389:405   */\n  swap1\n  pop\n    /* \"#utility.yul\":334:411   */\n  swap2\n  swap1\n  pop\n  jump\t// out\n    /* \"#utility.yul\":417:539   */\ntag_44:\n    /* \"#utility.yul\":490:514   */\n  tag_76\n    /* \"#utility.yul\":508:513   */\n  dup2\n    /* \"#utility.yul\":490:514   */\n  tag_43\n  jump\t// in\ntag_76:\n    /* \"#utility.yul\":483:488   */\n  dup2\n    /* \"#utility.yul\":480:515   */\n  eq\n    /* \"#utility.yul\":470:533   */\n  tag_77\n  jumpi\n    /* \"#utility.yul\":529:530   */\n  0x00\n    /* \"#utility.yul\":526:527   */\n  dup1\n    /* \"#utility.yul\":519:531   */\n  revert\n    /* \"#utility.yul\":470:533   */\ntag_77:\n    /* \"#utility.yul\":417:539   */\n  pop\n  jump\t// out\n    /* \"#utility.yul\":545:688   */\ntag_45:\n    /* \"#utility.yul\":602:607   */\n  0x00\n    /* \"#utility.yul\":633:639   */\n  dup2\n    /* \"#utility.yul\":627:640   */\n  mload\n    /* \"#utility.yul\":618:640   */\n  swap1\n  pop\n    /* \"#utility.yul\":649:682   */\n  tag_79\n    /* \"#utility.yul\":676:681   */\n  dup2\n    /* \"#utility.yul\":649:682   */\n  tag_44\n  jump\t// in\ntag_79:\n    /* \"#utility.yul\":545:688   */\n  swap3\n  swap2\n  pop\n  pop\n  jump\t// out\n    /* \"#utility.yul\":694:1045   */\ntag_3:\n    /* \"#utility.yul\":764:770   */\n  0x00\n    /* \"#utility.yul\":813:815   */\n  0x20\n    /* \"#utility.yul\":801:810   */\n  dup3\n    /* \"#utility.yul\":792:799   */\n  dup5\n    /* \"#utility.yul\":788:811   */\n  sub\n    /* \"#utility.yul\":784:816   */\n  slt\n    /* \"#utility.yul\":781:900   */\n  iszero\n  tag_81\n  jumpi\n    /* \"#utility.yul\":819:898   */\n  tag_82\n  tag_41\n  jump\t// in\ntag_82:\n    /* \"#utility.yul\":781:900   */\ntag_81:\n    /* \"#utility.yul\":939:940   */\n  0x00\n    /* \"#utility.yul\":964:1028   */\n  tag_83\n    /* \"#utility.yul\":1020:1027   */\n  dup5\n    /* \"#utility.yul\":1011:1017   */\n  dup3\n    /* \"#utility.yul\":1000:1009   */\n  dup6\n    /* \"#utility.yul\":996:1018   */\n  add\n    /* \"#utility.yul\":964:1028   */\n  tag_45\n  jump\t// in\ntag_83:\n    /* \"#utility.yul\":954:1028   */\n  swap2\n  pop\n    /* \"#utility.yul\":910:1038   */\n  pop\n    /* \"#utility.yul\":694:1045   */\n  swap3\n  swap2\n  pop\n  pop\n  jump\t// out\n    /* \"#utility.yul\":1051:1150   */\ntag_46:\n    /* \"#utility.yul\":1103:1109   */\n  0x00\n    /* \"#utility.yul\":1137:1142   */\n  dup2\n    /* \"#utility.yul\":1131:1143   */\n  mload\n    /* \"#utility.yul\":1121:1143   */\n  swap1\n  pop\n    /* \"#utility.yul\":1051:1150   */\n  swap2\n  swap1\n  pop\n  jump\t// out\n    /* \"#utility.yul\":1156:1336   */\ntag_47:\n    /* \"#utility.yul\":1204:1281   */\n  0x4e487b7100000000000000000000000000000000000000000000000000000000\n    /* \"#utility.yul\":1201:1202   */\n  0x00\n    /* \"#utility.yul\":1194:1282   */\n  mstore\n    /* \"#utility.yul\":1301:1305   */\n  0x41\n    /* \"#utility.yul\":1298:1299   */\n  0x04\n    /* \"#utility.yul\":1291:1306   */\n  mstore\n    /* \"#utility.yul\":1325:1329   */\n  0x24\n    /* \"#utility.yul\":1322:1323   */\n  0x00\n    /* \"#utility.yul\":1315:1330   */\n  revert\n    /* \"#utility.yul\":1342:1522   */\ntag_48:\n    /* \"#utility.yul\":1390:1467   */\n  0x4e487b7100000000000000000000000000000000000000000000000000000000\n    /* \"#utility.yul\":1387:1388   */\n  0x00\n    /* \"#utility.yul\":1380:1468   */\n  mstore\n    /* \"#utility.yul\":1487:1491   */\n  0x22\n    /* \"#utility.yul\":1484:1485   */\n  0x04\n    /* \"#utility.yul\":1477:1492   */\n  mstore\n    /* \"#utility.yul\":1511:1515   */\n  0x24\n    /* \"#utility.yul\":1508:1509   */\n  0x00\n    /* \"#utility.yul\":1501:1516   */\n  revert\n    /* \"#utility.yul\":1528:1848   */\ntag_49:\n    /* \"#utility.yul\":1572:1578   */\n  0x00\n    /* \"#utility.yul\":1609:1610   */\n  0x02\n    /* \"#utility.yul\":1603:1607   */\n  dup3\n    /* \"#utility.yul\":1599:1611   */\n  div\n    /* \"#utility.yul\":1589:1611   */\n  swap1\n  pop\n    /* \"#utility.yul\":1656:1657   */\n  0x01\n    /* \"#utility.yul\":1650:1654   */\n  dup3\n    /* \"#utility.yul\":1646:1658   */\n  and\n    /* \"#utility.yul\":1677:1695   */\n  dup1\n    /* \"#utility.yul\":1667:1748   */\n  tag_88\n  jumpi\n    /* \"#utility.yul\":1733:1737   */\n  0x7f\n    /* \"#utility.yul\":1725:1731   */\n  dup3\n    /* \"#utility.yul\":1721:1738   */\n  and\n    /* \"#utility.yul\":1711:1738   */\n  swap2\n  pop\n    /* \"#utility.yul\":1667:1748   */\ntag_88:\n    /* \"#utility.yul\":1795:1797   */\n  0x20\n    /* \"#utility.yul\":1787:1793   */\n  dup3\n    /* \"#utility.yul\":1784:1798   */\n  lt\n    /* \"#utility.yul\":1764:1782   */\n  dup2\n    /* \"#utility.yul\":1761:1799   */\n  sub\n    /* \"#utility.yul\":1758:1842   */\n  tag_89\n  jumpi\n    /* \"#utility.yul\":1814:1832   */\n  tag_90\n  tag_48\n  jump\t// in\ntag_90:\n    /* \"#utility.yul\":1758:1842   */\ntag_89:\n    /* \"#utility.yul\":1579:1848   */\n  pop\n    /* \"#utility.yul\":1528:1848   */\n  swap2\n  swap1\n  pop\n  jump\t// out\n    /* \"#utility.yul\":1854:1995   */\ntag_50:\n    /* \"#utility.yul\":1903:1907   */\n  0x00\n    /* \"#utility.yul\":1926:1929   */\n  dup2\n    /* \"#utility.yul\":1918:1929   */\n  swap1\n  pop\n    /* \"#utility.yul\":1949:1952   */\n  dup2\n    /* \"#utility.yul\":1946:1947   */\n  0x00\n    /* \"#utility.yul\":1939:1953   */\n  mstore\n    /* \"#utility.yul\":1983:1987   */\n  0x20\n    /* \"#utility.yul\":1980:1981   */\n  0x00\n    /* \"#utility.yul\":1970:1988   */\n  keccak256\n    /* \"#utility.yul\":1962:1988   */\n  swap1\n  pop\n    /* \"#utility.yul\":1854:1995   */\n  swap2\n  swap1\n  pop\n  jump\t// out\n    /* \"#utility.yul\":2001:2094   */\ntag_51:\n    /* \"#utility.yul\":2038:2044   */\n  0x00\n    /* \"#utility.yul\":2085:2087   */\n  0x20\n    /* \"#utility.yul\":2080:2082   */\n  0x1f\n    /* \"#utility.yul\":2073:2078   */\n  dup4\n    /* \"#utility.yul\":2069:2083   */\n  add\n    /* \"#utility.yul\":2065:2088   */\n  div\n    /* \"#utility.yul\":2055:2088   */\n  swap1\n  pop\n    /* \"#utility.yul\":2001:2094   */\n  swap2\n  swap1\n  pop\n  jump\t// out\n    /* \"#utility.yul\":2100:2207   */\ntag_52:\n    /* \"#utility.yul\":2144:2152   */\n  0x00\n    /* \"#utility.yul\":2194:2199   */\n  dup3\n    /* \"#utility.yul\":2188:2192   */\n  dup3\n    /* \"#utility.yul\":2184:2200   */\n  shl\n    /* \"#utility.yul\":2163:2200   */\n  swap1\n  pop\n    /* \"#utility.yul\":2100:2207   */\n  swap3\n  swap2\n  pop\n  pop\n  jump\t// out\n    /* \"#utility.yul\":2213:2606   */\ntag_53:\n    /* \"#utility.yul\":2282:2288   */\n  0x00\n    /* \"#utility.yul\":2332:2333   */\n  0x08\n    /* \"#utility.yul\":2320:2330   */\n  dup4\n    /* \"#utility.yul\":2316:2334   */\n  mul\n    /* \"#utility.yul\":2355:2452   */\n  tag_95\n    /* \"#utility.yul\":2385:2451   */\n  0xffffffffffffffffffffffffffffffffffffffffffffffffffffffffffffffff\n    /* \"#utility.yul\":2374:2383   */\n  dup3\n    /* \"#utility.yul\":2355:2452   */\n  tag_52\n  jump\t// in\ntag_95:\n    /* \"#utility.yul\":2473:2512   */\n  tag_96\n    /* \"#utility.yul\":2503:2511   */\n  dup7\n    /* \"#utility.yul\":2492:2501   */\n  dup4\n    /* \"#utility.yul\":2473:2512   */\n  tag_52\n  jump\t// in\ntag_96:\n    /* \"#utility.yul\":2461:2512   */\n  swap6\n  pop\n    /* \"#utility.yul\":2545:2549   */\n  dup1\n    /* \"#utility.yul\":2541:2550   */\n  not\n    /* \"#utility.yul\":2534:2539   */\n  dup5\n    /* \"#utility.yul\":2530:2551   */\n  and\n    /* \"#utility.yul\":2521:2551   */\n  swap4\n  pop\n    /* \"#utility.yul\":2594:2598   */\n  dup1\n    /* \"#utility.yul\":2584:2592   */\n  dup7\n    /* \"#utility.yul\":2580:2599   */\n  and\n    /* \"#utility.yul\":2573:2578   */\n  dup5\n    /* \"#utility.yul\":2570:2600   */\n  or\n    /* \"#utility.yul\":2560:2600   */\n  swap3\n  pop\n    /* \"#utility.yul\":2289:2606   */\n  pop\n  pop\n    /* \"#utility.yul\":2213:2606   */\n  swap4\n  swap3\n  pop\n  pop\n  pop\n  jump\t// out\n    /* \"#utility.yul\":2612:2672   */\ntag_54:\n    /* \"#utility.yul\":2640:2643   */\n  0x00\n    /* \"#utility.yul\":2661:2666   */\n  dup2\n    /* \"#utility.yul\":2654:2666   */\n  swap1\n  pop\n    /* \"#utility.yul\":2612:2672   */\n  swap2\n  swap1\n  pop\n  jump\t// out\n    /* \"#utility.yul\":2678:2820   */\ntag_55:\n    /* \"#utility.yul\":2728:2737   */\n  0x00\n    /* \"#utility.yul\":2761:2814   */\n  tag_99\n    /* \"#utility.yul\":2779:2813   */\n  tag_100\n    /* \"#utility.yul\":2788:2812   */\n  tag_101\n    /* \"#utility.yul\":2806:2811   */\n  dup5\n    /* \"#utility.yul\":2788:2812   */\n  tag_43\n  jump\t// in\ntag_101:\n    /* \"#utility.yul\":2779:2813   */\n  tag_54\n  jump\t// in\ntag_100:\n    /* \"#utility.yul\":2761:2814   */\n  tag_43\n  jump\t// in\ntag_99:\n    /* \"#utility.yul\":2748:2814   */\n  swap1\n  pop\n    /* \"#utility.yul\":2678:2820   */\n  swap2\n  swap1\n  pop\n  jump\t// out\n    /* \"#utility.yul\":2826:2901   */\ntag_56:\n    /* \"#utility.yul\":2869:2872   */\n  0x00\n    /* \"#utility.yul\":2890:2895   */\n  dup2\n    /* \"#utility.yul\":2883:2895   */\n  swap1\n  pop\n    /* \"#utility.yul\":2826:2901   */\n  swap2\n  swap1\n  pop\n  jump\t// out\n    /* \"#utility.yul\":2907:3176   */\ntag_57:\n    /* \"#utility.yul\":3017:3056   */\n  tag_104\n    /* \"#utility.yul\":3048:3055   */\n  dup4\n    /* \"#utility.yul\":3017:3056   */\n  tag_55\n  jump\t// in\ntag_104:\n    /* \"#utility.yul\":3078:3169   */\n  tag_105\n    /* \"#utility.yul\":3127:3168   */\n  tag_106\n    /* \"#utility.yul\":3151:3167   */\n  dup3\n    /* \"#utility.yul\":3127:3168   */\n  tag_56\n  jump\t// in\ntag_106:\n    /* \"#utility.yul\":3119:3125   */\n  dup5\n    /* \"#utility.yul\":3112:3116   */\n  dup5\n    /* \"#utility.yul\":3106:3117   */\n  sload\n    /* \"#utility.yul\":3078:3169   */\n  tag_53\n  jump\t// in\ntag_105:\n    /* \"#utility.yul\":3072:3076   */\n  dup3\n    /* \"#utility.yul\":3065:3170   */\n  sstore\n    /* \"#utility.yul\":2983:3176   */\n  pop\n    /* \"#utility.yul\":2907:3176   */\n  pop\n  pop\n  pop\n  jump\t// out\n    /* \"#utility.yul\":3182:3255   */\ntag_58:\n    /* \"#utility.yul\":3227:3230   */\n  0x00\n    /* \"#utility.yul\":3182:3255   */\n  swap1\n  jump\t// out\n    /* \"#utility.yul\":3261:3450   */\ntag_59:\n    /* \"#utility.yul\":3338:3370   */\n  tag_109\n  tag_58\n  jump\t// in\ntag_109:\n    /* \"#utility.yul\":3379:3444   */\n  tag_110\n    /* \"#utility.yul\":3437:3443   */\n  dup2\n    /* \"#utility.yul\":3429:3435   */\n  dup5\n    /* \"#utility.yul\":3423:3427   */\n  dup5\n    /* \"#utility.yul\":3379:3444   */\n  tag_57\n  jump\t// in\ntag_110:\n    /* \"#utility.yul\":3314:3450   */\n  pop\n    /* \"#utility.yul\":3261:3450   */\n  pop\n  pop\n  jump\t// out\n    /* \"#utility.yul\":3456:3642   */\ntag_60:\n    /* \"#utility.yul\":3516:3636   */\ntag_112:\n    /* \"#utility.yul\":3533:3536   */\n  dup2\n    /* \"#utility.yul\":3526:3531   */\n  dup2\n    /* \"#utility.yul\":3523:3537   */\n  lt\n    /* \"#utility.yul\":3516:3636   */\n  iszero\n  tag_114\n  jumpi\n    /* \"#utility.yul\":3587:3626   */\n  tag_115\n    /* \"#utility.yul\":3624:3625   */\n  0x00\n    /* \"#utility.yul\":3617:3622   */\n  dup3\n    /* \"#utility.yul\":3587:3626   */\n  tag_59\n  jump\t// in\ntag_115:\n    /* \"#utility.yul\":3560:3561   */\n  0x01\n    /* \"#utility.yul\":3553:3558   */\n  dup2\n    /* \"#utility.yul\":3549:3562   */\n  add\n    /* \"#utility.yul\":3540:3562   */\n  swap1\n  pop\n    /* \"#utility.yul\":3516:3636   */\n  jump(tag_112)\ntag_114:\n    /* \"#utility.yul\":3456:3642   */\n  pop\n  pop\n  jump\t// out\n    /* \"#utility.yul\":3648:4191   */\ntag_61:\n    /* \"#utility.yul\":3749:3751   */\n  0x1f\n    /* \"#utility.yul\":3744:3747   */\n  dup3\n    /* \"#utility.yul\":3741:3752   */\n  gt\n    /* \"#utility.yul\":3738:4184   */\n  iszero\n  tag_117\n  jumpi\n    /* \"#utility.yul\":3783:3821   */\n  tag_118\n    /* \"#utility.yul\":3815:3820   */\n  dup2\n    /* \"#utility.yul\":3783:3821   */\n  tag_50\n  jump\t// in\ntag_118:\n    /* \"#utility.yul\":3867:3896   */\n  tag_119\n    /* \"#utility.yul\":3885:3895   */\n  dup5\n    /* \"#utility.yul\":3867:3896   */\n  tag_51\n  jump\t// in\ntag_119:\n    /* \"#utility.yul\":3857:3865   */\n  dup2\n    /* \"#utility.yul\":3853:3897   */\n  add\n    /* \"#utility.yul\":4050:4052   */\n  0x20\n    /* \"#utility.yul\":4038:4048   */\n  dup6\n    /* \"#utility.yul\":4035:4053   */\n  lt\n    /* \"#utility.yul\":4032:4081   */\n  iszero\n  tag_120\n  jumpi\n    /* \"#utility.yul\":4071:4079   */\n  dup2\n    /* \"#utility.yul\":4056:4079   */\n  swap1\n  pop\n    /* \"#utility.yul\":4032:4081   */\ntag_120:\n    /* \"#utility.yul\":4094:4174   */\n  tag_121\n    /* \"#utility.yul\":4150:4172   */\n  tag_122\n    /* \"#utility.yul\":4168:4171   */\n  dup6\n    /* \"#utility.yul\":4150:4172   */\n  tag_51\n  jump\t// in\ntag_122:\n    /* \"#utility.yul\":4140:4148   */\n  dup4\n    /* \"#utility.yul\":4136:4173   */\n  add\n    /* \"#utility.yul\":4123:4134   */\n  dup3\n    /* \"#utility.yul\":4094:4174   */\n  tag_60\n  jump\t// in\ntag_121:\n    /* \"#utility.yul\":3753:4184   */\n  pop\n  pop\n    /* \"#utility.yul\":3738:4184   */\ntag_117:\n    /* \"#utility.yul\":3648:4191   */\n  pop\n  pop\n  pop\n  jump\t// out\n    /* \"#utility.yul\":4197:4314   */\ntag_62:\n    /* \"#utility.yul\":4251:4259   */\n  0x00\n    /* \"#utility.yul\":4301:4306   */\n  dup3\n    /* \"#utility.yul\":4295:4299   */\n  dup3\n    /* \"#utility.yul\":4291:4307   */\n  shr\n    /* \"#utility.yul\":4270:4307   */\n  swap1\n  pop\n    /* \"#utility.yul\":4197:4314   */\n  swap3\n  swap2\n  pop\n  pop\n  jump\t// out\n    /* \"#utility.yul\":4320:4489   */\ntag_63:\n    /* \"#utility.yul\":4364:4370   */\n  0x00\n    /* \"#utility.yul\":4397:4448   */\n  tag_125\n    /* \"#utility.yul\":4445:4446   */\n  0x00\n    /* \"#utility.yul\":4441:4447   */\n  not\n    /* \"#utility.yul\":4433:4438   */\n  dup5\n    /* \"#utility.yul\":4430:4431   */\n  0x08\n    /* \"#utility.yul\":4426:4439   */\n  mul\n    /* \"#utility.yul\":4397:4448   */\n  tag_62\n  jump\t// in\ntag_125:\n    /* \"#utility.yul\":4393:4449   */\n  not\n    /* \"#utility.yul\":4478:4482   */\n  dup1\n    /* \"#utility.yul\":4472:4476   */\n  dup4\n    /* \"#utility.yul\":4468:4483   */\n  and\n    /* \"#utility.yul\":4458:4483   */\n  swap2\n  pop\n    /* \"#utility.yul\":4371:4489   */\n  pop\n    /* \"#utility.yul\":4320:4489   */\n  swap3\n  swap2\n  pop\n  pop\n  jump\t// out\n    /* \"#utility.yul\":4494:4789   */\ntag_64:\n    /* \"#utility.yul\":4570:4574   */\n  0x00\n    /* \"#utility.yul\":4716:4745   */\n  tag_127\n    /* \"#utility.yul\":4741:4744   */\n  dup4\n    /* \"#utility.yul\":4735:4739   */\n  dup4\n    /* \"#utility.yul\":4716:4745   */\n  tag_63\n  jump\t// in\ntag_127:\n    /* \"#utility.yul\":4708:4745   */\n  swap2\n  pop\n    /* \"#utility.yul\":4778:4781   */\n  dup3\n    /* \"#utility.yul\":4775:4776   */\n  0x02\n    /* \"#utility.yul\":4771:4782   */\n  mul\n    /* \"#utility.yul\":4765:4769   */\n  dup3\n    /* \"#utility.yul\":4762:4783   */\n  or\n    /* \"#utility.yul\":4754:4783   */\n  swap1\n  pop\n    /* \"#utility.yul\":4494:4789   */\n  swap3\n  swap2\n  pop\n  pop\n  jump\t// out\n    /* \"#utility.yul\":4794:6189   */\ntag_10:\n    /* \"#utility.yul\":4911:4948   */\n  tag_129\n    /* \"#utility.yul\":4944:4947   */\n  dup3\n    /* \"#utility.yul\":4911:4948   */\n  tag_46\n  jump\t// in\ntag_129:\n    /* \"#utility.yul\":5013:5031   */\n  0xffffffffffffffff\n    /* \"#utility.yul\":5005:5011   */\n  dup2\n    /* \"#utility.yul\":5002:5032   */\n  gt\n    /* \"#utility.yul\":4999:5055   */\n  iszero\n  tag_130\n  jumpi\n    /* \"#utility.yul\":5035:5053   */\n  tag_131\n  tag_47\n  jump\t// in\ntag_131:\n    /* \"#utility.yul\":4999:5055   */\ntag_130:\n    /* \"#utility.yul\":5079:5117   */\n  tag_132\n    /* \"#utility.yul\":5111:5115   */\n  dup3\n    /* \"#utility.yul\":5105:5116   */\n  sload\n    /* \"#utility.yul\":5079:5117   */\n  tag_49\n  jump\t// in\ntag_132:\n    /* \"#utility.yul\":5164:5231   */\n  tag_133\n    /* \"#utility.yul\":5224:5230   */\n  dup3\n    /* \"#utility.yul\":5216:5222   */\n  dup3\n    /* \"#utility.yul\":5210:5214   */\n  dup6\n    /* \"#utility.yul\":5164:5231   */\n  tag_61\n  jump\t// in\ntag_133:\n    /* \"#utility.yul\":5258:5259   */\n  0x00\n    /* \"#utility.yul\":5282:5286   */\n  0x20\n    /* \"#utility.yul\":5269:5286   */\n  swap1\n  pop\n    /* \"#utility.yul\":5314:5316   */\n  0x1f\n    /* \"#utility.yul\":5306:5312   */\n  dup4\n    /* \"#utility.yul\":5303:5317   */\n  gt\n    /* \"#utility.yul\":5331:5332   */\n  0x01\n    /* \"#utility.yul\":5326:5944   */\n  dup2\n  eq\n  tag_135\n  jumpi\n    /* \"#utility.yul\":5988:5989   */\n  0x00\n    /* \"#utility.yul\":6005:6011   */\n  dup5\n    /* \"#utility.yul\":6002:6079   */\n  iszero\n  tag_136\n  jumpi\n    /* \"#utility.yul\":6054:6063   */\n  dup3\n    /* \"#utility.yul\":6049:6052   */\n  dup8\n    /* \"#utility.yul\":6045:6064   */\n  add\n    /* \"#utility.yul\":6039:6065   */\n  mload\n    /* \"#utility.yul\":6030:6065   */\n  swap1\n  pop\n    /* \"#utility.yul\":6002:6079   */\ntag_136:\n    /* \"#utility.yul\":6105:6172   */\n  tag_137\n    /* \"#utility.yul\":6165:6171   */\n  dup6\n    /* \"#utility.yul\":6158:6163   */\n  dup3\n    /* \"#utility.yul\":6105:6172   */\n  tag_64\n  jump\t// in\ntag_137:\n    /* \"#utility.yul\":6099:6103   */\n  dup7\n    /* \"#utility.yul\":6092:6173   */\n  sstore\n    /* \"#utility.yul\":5961:6183   */\n  pop\n    /* \"#utility.yul\":5296:6183   */\n  jump(tag_134)\n    /* \"#utility.yul\":5326:5944   */\ntag_135:\n    /* \"#utility.yul\":5378:5382   */\n  0x1f\n    /* \"#utility.yul\":5374:5383   */\n  not\n    /* \"#utility.yul\":5366:5372   */\n  dup5\n    /* \"#utility.yul\":5362:5384   */\n  and\n    /* \"#utility.yul\":5412:5449   */\n  tag_138\n    /* \"#utility.yul\":5444:5448   */\n  dup7\n    /* \"#utility.yul\":5412:5449   */\n  tag_50\n  jump\t// in\ntag_138:\n    /* \"#utility.yul\":5471:5472   */\n  0x00\n    /* \"#utility.yul\":5485:5693   */\ntag_139:\n    /* \"#utility.yul\":5499:5506   */\n  dup3\n    /* \"#utility.yul\":5496:5497   */\n  dup2\n    /* \"#utility.yul\":5493:5507   */\n  lt\n    /* \"#utility.yul\":5485:5693   */\n  iszero\n  tag_141\n  jumpi\n    /* \"#utility.yul\":5578:5587   */\n  dup5\n    /* \"#utility.yul\":5573:5576   */\n  dup10\n    /* \"#utility.yul\":5569:5588   */\n  add\n    /* \"#utility.yul\":5563:5589   */\n  mload\n    /* \"#utility.yul\":5555:5561   */\n  dup3\n    /* \"#utility.yul\":5548:5590   */\n  sstore\n    /* \"#utility.yul\":5629:5630   */\n  0x01\n    /* \"#utility.yul\":5621:5627   */\n  dup3\n    /* \"#utility.yul\":5617:5631   */\n  add\n    /* \"#utility.yul\":5607:5631   */\n  swap2\n  pop\n    /* \"#utility.yul\":5676:5678   */\n  0x20\n    /* \"#utility.yul\":5665:5674   */\n  dup6\n    /* \"#utility.yul\":5661:5679   */\n  add\n    /* \"#utility.yul\":5648:5679   */\n  swap5\n  pop\n    /* \"#utility.yul\":5522:5526   */\n  0x20\n    /* \"#utility.yul\":5519:5520   */\n  dup2\n    /* \"#utility.yul\":5515:5527   */\n  add\n    /* \"#utility.yul\":5510:5527   */\n  swap1\n  pop\n    /* \"#utility.yul\":5485:5693   */\n  jump(tag_139)\ntag_141:\n    /* \"#utility.yul\":5721:5727   */\n  dup7\n    /* \"#utility.yul\":5712:5719   */\n  dup4\n    /* \"#utility.yul\":5709:5728   */\n  lt\n    /* \"#utility.yul\":5706:5885   */\n  iszero\n  tag_142\n  jumpi\n    /* \"#utility.yul\":5779:5788   */\n  dup5\n    /* \"#utility.yul\":5774:5777   */\n  dup10\n    /* \"#utility.yul\":5770:5789   */\n  add\n    /* \"#utility.yul\":5764:5790   */\n  mload\n    /* \"#utility.yul\":5822:5870   */\n  tag_143\n    /* \"#utility.yul\":5864:5868   */\n  0x1f\n    /* \"#utility.yul\":5856:5862   */\n  dup10\n    /* \"#utility.yul\":5852:5869   */\n  and\n    /* \"#utility.yul\":5841:5850   */\n  dup3\n    /* \"#utility.yul\":5822:5870   */\n  tag_63\n  jump\t// in\ntag_143:\n    /* \"#utility.yul\":5814:5820   */\n  dup4\n    /* \"#utility.yul\":5807:5871   */\n  sstore\n    /* \"#utility.yul\":5729:5885   */\n  pop\n    /* \"#utility.yul\":5706:5885   */\ntag_142:\n    /* \"#utility.yul\":5931:5932   */\n  0x01\n    /* \"#utility.yul\":5927:5928   */\n  0x02\n    /* \"#utility.yul\":5919:5925   */\n  dup9\n    /* \"#utility.yul\":5915:5929   */\n  mul\n    /* \"#utility.yul\":5911:5933   */\n  add\n    /* \"#utility.yul\":5905:5909   */\n  dup9\n    /* \"#utility.yul\":5898:5934   */\n  sstore\n    /* \"#utility.yul\":5333:5944   */\n  pop\n  pop\n  pop\n    /* \"#utility.yul\":5296:6183   */\ntag_134:\n  pop\n    /* \"#utility.yul\":4886:6189   */\n  pop\n  pop\n  pop\n    /* \"#utility.yul\":4794:6189   */\n  pop\n  pop\n  jump\t// out\n    /* \"#utility.yul\":6195:6375   */\ntag_65:\n    /* \"#utility.yul\":6243:6320   */\n  0x4e487b7100000000000000000000000000000000000000000000000000000000\n    /* \"#utility.yul\":6240:6241   */\n  0x00\n    /* \"#utility.yul\":6233:6321   */\n  mstore\n    /* \"#utility.yul\":6340:6344   */\n  0x11\n    /* \"#utility.yul\":6337:6338   */\n  0x04\n    /* \"#utility.yul\":6330:6345   */\n  mstore\n    /* \"#utility.yul\":6364:6368   */\n  0x24\n    /* \"#utility.yul\":6361:6362   */\n  0x00\n    /* \"#utility.yul\":6354:6369   */\n  revert\n    /* \"#utility.yul\":6381:6791   */\ntag_21:\n    /* \"#utility.yul\":6421:6428   */\n  0x00\n    /* \"#utility.yul\":6444:6464   */\n  tag_146\n    /* \"#utility.yul\":6462:6463   */\n  dup3\n    /* \"#utility.yul\":6444:6464   */\n  tag_43\n  jump\t// in\ntag_146:\n    /* \"#utility.yul\":6439:6464   */\n  swap2\n  pop\n    /* \"#utility.yul\":6478:6498   */\n  tag_147\n    /* \"#utility.yul\":6496:6497   */\n  dup4\n    /* \"#utility.yul\":6478:6498   */\n  tag_43\n  jump\t// in\ntag_147:\n    /* \"#utility.yul\":6473:6498   */\n  swap3\n  pop\n    /* \"#utility.yul\":6533:6534   */\n  dup3\n    /* \"#utility.yul\":6530:6531   */\n  dup3\n    /* \"#utility.yul\":6526:6535   */\n  mul\n    /* \"#utility.yul\":6555:6585   */\n  tag_148\n    /* \"#utility.yul\":6573:6584   */\n  dup2\n    /* \"#utility.yul\":6555:6585   */\n  tag_43\n  jump\t// in\ntag_148:\n    /* \"#utility.yul\":6544:6585   */\n  swap2\n  pop\n    /* \"#utility.yul\":6734:6735   */\n  dup3\n    /* \"#utility.yul\":6725:6732   */\n  dup3\n    /* \"#utility.yul\":6721:6736   */\n  div\n    /* \"#utility.yul\":6718:6719   */\n  dup5\n    /* \"#utility.yul\":6715:6737   */\n  eq\n    /* \"#utility.yul\":6695:6696   */\n  dup4\n    /* \"#utility.yul\":6688:6697   */\n  iszero\n    /* \"#utility.yul\":6668:6751   */\n  or\n    /* \"#utility.yul\":6645:6784   */\n  tag_149\n  jumpi\n    /* \"#utility.yul\":6764:6782   */\n  tag_150\n  tag_65\n  jump\t// in\ntag_150:\n    /* \"#utility.yul\":6645:6784   */\ntag_149:\n    /* \"#utility.yul\":6429:6791   */\n  pop\n    /* \"#utility.yul\":6381:6791   */\n  swap3\n  swap2\n  pop\n  pop\n  jump\t// out\n    /* \"#utility.yul\":6797:6966   */\ntag_66:\n    /* \"#utility.yul\":6881:6892   */\n  0x00\n    /* \"#utility.yul\":6915:6921   */\n  dup3\n    /* \"#utility.yul\":6910:6913   */\n  dup3\n    /* \"#utility.yul\":6903:6922   */\n  mstore\n    /* \"#utility.yul\":6955:6959   */\n  0x20\n    /* \"#utility.yul\":6950:6953   */\n  dup3\n    /* \"#utility.yul\":6946:6960   */\n  add\n    /* \"#utility.yul\":6931:6960   */\n  swap1\n  pop\n    /* \"#utility.yul\":6797:6966   */\n  swap3\n  swap2\n  pop\n  pop\n  jump\t// out\n    /* \"#utility.yul\":6972:7153   */\ntag_67:\n    /* \"#utility.yul\":7112:7145   */\n  0x45524332303a206d696e7420746f20746865207a65726f206164647265737300\n    /* \"#utility.yul\":7108:7109   */\n  0x00\n    /* \"#utility.yul\":7100:7106   */\n  dup3\n    /* \"#utility.yul\":7096:7110   */\n  add\n    /* \"#utility.yul\":7089:7146   */\n  mstore\n    /* \"#utility.yul\":6972:7153   */\n  pop\n  jump\t// out\n    /* \"#utility.yul\":7159:7525   */\ntag_68:\n    /* \"#utility.yul\":7301:7304   */\n  0x00\n    /* \"#utility.yul\":7322:7389   */\n  tag_154\n    /* \"#utility.yul\":7386:7388   */\n  0x1f\n    /* \"#utility.yul\":7381:7384   */\n  dup4\n    /* \"#utility.yul\":7322:7389   */\n  tag_66\n  jump\t// in\ntag_154:\n    /* \"#utility.yul\":7315:7389   */\n  swap2\n  pop\n    /* \"#utility.yul\":7398:7491   */\n  tag_155\n    /* \"#utility.yul\":7487:7490   */\n  dup3\n    /* \"#utility.yul\":7398:7491   */\n  tag_67\n  jump\t// in\ntag_155:\n    /* \"#utility.yul\":7516:7518   */\n  0x20\n    /* \"#utility.yul\":7511:7514   */\n  dup3\n    /* \"#utility.yul\":7507:7519   */\n  add\n    /* \"#utility.yul\":7500:7519   */\n  swap1\n  pop\n    /* \"#utility.yul\":7159:7525   */\n  swap2\n  swap1\n  pop\n  jump\t// out\n    /* \"#utility.yul\":7531:7950   */\ntag_29:\n    /* \"#utility.yul\":7697:7701   */\n  0x00\n    /* \"#utility.yul\":7735:7737   */\n  0x20\n    /* \"#utility.yul\":7724:7733   */\n  dup3\n    /* \"#utility.yul\":7720:7738   */\n  add\n    /* \"#utility.yul\":7712:7738   */\n  swap1\n  pop\n    /* \"#utility.yul\":7784:7793   */\n  dup2\n    /* \"#utility.yul\":7778:7782   */\n  dup2\n    /* \"#utility.yul\":7774:7794   */\n  sub\n    /* \"#utility.yul\":7770:7771   */\n  0x00\n    /* \"#utility.yul\":7759:7768   */\n  dup4\n    /* \"#utility.yul\":7755:7772   */\n  add\n    /* \"#utility.yul\":7748:7795   */\n  mstore\n    /* \"#utility.yul\":7812:7943   */\n  tag_157\n    /* \"#utility.yul\":7938:7942   */\n  dup2\n    /* \"#utility.yul\":7812:7943   */\n  tag_68\n  jump\t// in\ntag_157:\n    /* \"#utility.yul\":7804:7943   */\n  swap1\n  pop\n    /* \"#utility.yul\":7531:7950   */\n  swap2\n  swap1\n  pop\n  jump\t// out\n    /* \"#utility.yul\":7956:8147   */\ntag_33:\n    /* \"#utility.yul\":7996:7999   */\n  0x00\n    /* \"#utility.yul\":8015:8035   */\n  tag_159\n    /* \"#utility.yul\":8033:8034   */\n  dup3\n    /* \"#utility.yul\":8015:8035   */\n  tag_43\n  jump\t// in\ntag_159:\n    /* \"#utility.yul\":8010:8035   */\n  swap2\n  pop\n    /* \"#utility.yul\":8049:8069   */\n  tag_160\n    /* \"#utility.yul\":8067:8068   */\n  dup4\n    /* \"#utility.yul\":8049:8069   */\n  tag_43\n  jump\t// in\ntag_160:\n    /* \"#utility.yul\":8044:8069   */\n  swap3\n  pop\n    /* \"#utility.yul\":8092:8093   */\n  dup3\n    /* \"#utility.yul\":8089:8090   */\n  dup3\n    /* \"#utility.yul\":8085:8094   */\n  add\n    /* \"#utility.yul\":8078:8094   */\n  swap1\n  pop\n    /* \"#utility.yul\":8113:8116   */\n  dup1\n    /* \"#utility.yul\":8110:8111   */\n  dup3\n    /* \"#utility.yul\":8107:8117   */\n  gt\n    /* \"#utility.yul\":8104:8140   */\n  iszero\n  tag_161\n  jumpi\n    /* \"#utility.yul\":8120:8138   */\n  tag_162\n  tag_65\n  jump\t// in\ntag_162:\n    /* \"#utility.yul\":8104:8140   */\ntag_161:\n    /* \"#utility.yul\":7956:8147   */\n  swap3\n  swap2\n  pop\n  pop\n  jump\t// out\n    /* \"#utility.yul\":8153:8271   */\ntag_69:\n    /* \"#utility.yul\":8240:8264   */\n  tag_164\n    /* \"#utility.yul\":8258:8263   */\n  dup2\n    /* \"#utility.yul\":8240:8264   */\n  tag_43\n  jump\t// in\ntag_164:\n    /* \"#utility.yul\":8235:8238   */\n  dup3\n    /* \"#utility.yul\":8228:8265   */\n  mstore\n    /* \"#utility.yul\":8153:8271   */\n  pop\n  pop\n  jump\t// out\n    /* \"#utility.yul\":8277:8499   */\ntag_35:\n    /* \"#utility.yul\":8370:8374   */\n  0x00\n    /* \"#utility.yul\":8408:8410   */\n  0x20\n    /* \"#utility.yul\":8397:8406   */\n  dup3\n    /* \"#utility.yul\":8393:8411   */\n  add\n    /* \"#utility.yul\":8385:8411   */\n  swap1\n  pop\n    /* \"#utility.yul\":8421:8492   */\n  tag_166\n    /* \"#utility.yul\":8489:8490   */\n  0x00\n    /* \"#utility.yul\":8478:8487   */\n  dup4\n    /* \"#utility.yul\":8474:8491   */\n  add\n    /* \"#utility.yul\":8465:8471   */\n  dup5\n    /* \"#utility.yul\":8421:8492   */\n  tag_69\n  jump\t// in\ntag_166:\n    /* \"#utility.yul\":8277:8499   */\n  swap3\n  swap2\n  pop\n  pop\n  jump\t// out\n    /* \"contracts/TEX.sol\":230:2950  contract TEX is ERC20, Ownable, Pausable {... */\ntag_23:\n  dataSize(sub_0)\n  dup1\n  dataOffset(sub_0)\n  0x00\n  codecopy\n  0x00\n  return\nstop\n\nsub_0: assembly {\n        /* \"contracts/TEX.sol\":230:2950  contract TEX is ERC20, Ownable, Pausable {... */\n      mstore(0x40, 0x80)\n      callvalue\n      dup1\n      iszero\n      tag_1\n      jumpi\n      0x00\n      dup1\n      revert\n    tag_1:\n      pop\n      jumpi(tag_2, lt(calldatasize, 0x04))\n      shr(0xe0, calldataload(0x00))\n      dup1\n      0x70a08231\n      gt\n      tag_27\n      jumpi\n      dup1\n      0xa9059cbb\n      gt\n      tag_28\n      jumpi\n      dup1\n      0xa9059cbb\n      eq\n      tag_21\n      jumpi\n      dup1\n      0xc7f758a8\n      eq\n      tag_22\n      jumpi\n      dup1\n      0xc9d27afe\n      eq\n      tag_23\n      jumpi\n      dup1\n      0xda35c664\n      eq\n      tag_24\n      jumpi\n      dup1\n      0xdd62ed3e\n      eq\n      tag_25\n      jumpi\n      dup1\n      0xf2fde38b\n      eq\n      tag_26\n      jumpi\n      jump(tag_2)\n    tag_28:\n      dup1\n      0x70a08231\n      eq\n      tag_15\n      jumpi\n      dup1\n      0x715018a6\n      eq\n      tag_16\n      jumpi\n      dup1\n      0x8456cb59\n      eq\n      tag_17\n      jumpi\n      dup1\n      0x8da5cb5b\n      eq\n      tag_18\n      jumpi\n      dup1\n      0x95d89b41\n      eq\n      tag_19\n      jumpi\n      dup1\n      0xa457c2d7\n      eq\n      tag_20\n      jumpi\n      jump(tag_2)\n    tag_27:\n      dup1\n      0x39509351\n      gt\n      tag_29\n      jumpi\n      dup1\n      0x39509351\n      eq\n      tag_9\n      jumpi\n      dup1\n      0x3f4ba83a\n      eq\n      tag_10\n      jumpi\n      dup1\n      0x40c10f19\n      eq\n      tag_11\n      jumpi\n      dup1\n      0x42966c68\n      eq\n      tag_12\n      jumpi\n      dup1\n      0x49c2a1a6\n      eq\n      tag_13\n      jumpi\n      dup1\n      0x5c975abb\n      eq\n      tag_14\n      jumpi\n      jump(tag_2)\n    tag_29:\n      dup1\n      0x013cf08b\n      eq\n      tag_3\n      jumpi\n      dup1\n      0x06fdde03\n      eq\n      tag_4\n      jumpi\n      dup1\n      0x095ea7b3\n      eq\n      tag_5\n      jumpi\n      dup1\n      0x18160ddd\n      eq\n      tag_6\n      jumpi\n      dup1\n      0x23b872dd\n      eq\n      tag_7\n      jumpi\n      dup1\n      0x313ce567\n      eq\n      tag_8\n      jumpi\n    tag_2:\n      0x00\n      dup1\n      revert\n        /* \"contracts/TEX.sol\":507:549  mapping(uint => Proposal) public proposals */\n    tag_3:\n      tag_30\n      0x04\n      dup1\n      calldatasize\n      sub\n      dup2\n      add\n      swap1\n      tag_31\n      swap2\n      swap1\n      tag_32\n      jump\t// in\n    tag_31:\n      tag_33\n      jump\t// in\n    tag_30:\n      mload(0x40)\n      tag_34\n      swap6\n      swap5\n      swap4\n      swap3\n      swap2\n      swap1\n      tag_35\n      jump\t// in\n    tag_34:\n      mload(0x40)\n      dup1\n      swap2\n      sub\n      swap1\n      return\n        /* \"@openzeppelin/contracts/token/ERC20/ERC20.sol\":2154:2252  function name() public view virtual override returns (string memory) {... */\n    tag_4:\n      tag_36\n      tag_37\n      jump\t// in\n    tag_36:\n      mload(0x40)\n      tag_38\n      swap2\n      swap1\n      tag_39\n      jump\t// in\n    tag_38:\n      mload(0x40)\n      dup1\n      swap2\n      sub\n      swap1\n      return\n        /* \"contracts/TEX.sol\":949:1110  function approve(address spender, uint256 amount) public override returns (bool) {... */\n    tag_5:\n      tag_40\n      0x04\n      dup1\n      calldatasize\n      sub\n      dup2\n      add\n      swap1\n      tag_41\n      swap2\n      swap1\n      tag_42\n      jump\t// in\n    tag_41:\n      tag_43\n      jump\t// in\n    tag_40:\n      mload(0x40)\n      tag_44\n      swap2\n      swap1\n      tag_45\n      jump\t// in\n    tag_44:\n      mload(0x40)\n      dup1\n      swap2\n      sub\n      swap1\n      return\n        /* \"@openzeppelin/contracts/token/ERC20/ERC20.sol\":3242:3348  function totalSupply() public view virtual override returns (uint256) {... */\n    tag_6:\n      tag_46\n      tag_47\n      jump\t// in\n    tag_46:\n      mload(0x40)\n      tag_48\n      swap2\n      swap1\n      tag_49\n      jump\t// in\n    tag_48:\n      mload(0x40)\n      dup1\n      swap2\n      sub\n      swap1\n      return\n        /* \"contracts/TEX.sol\":1118:1462  function transferFrom(address sender, address recipient, uint256 amount) public override returns (bool) {... */\n    tag_7:\n      tag_50\n      0x04\n      dup1\n      calldatasize\n      sub\n      dup2\n      add\n      swap1\n      tag_51\n      swap2\n      swap1\n      tag_52\n      jump\t// in\n    tag_51:\n      tag_53\n      jump\t// in\n    tag_50:\n      mload(0x40)\n      tag_54\n      swap2\n      swap1\n      tag_45\n      jump\t// in\n    tag_54:\n      mload(0x40)\n      dup1\n      swap2\n      sub\n      swap1\n      return\n        /* \"@openzeppelin/contracts/token/ERC20/ERC20.sol\":3091:3182  function decimals() public view virtual override returns (uint8) {... */\n    tag_8:\n      tag_55\n      tag_56\n      jump\t// in\n    tag_55:\n      mload(0x40)\n      tag_57\n      swap2\n      swap1\n      tag_58\n      jump\t// in\n    tag_57:\n      mload(0x40)\n      dup1\n      swap2\n      sub\n      swap1\n      return\n        /* \"@openzeppelin/contracts/token/ERC20/ERC20.sol\":5871:6105  function increaseAllowance(address spender, uint256 addedValue) public virtual returns (bool) {... */\n    tag_9:\n      tag_59\n      0x04\n      dup1\n      calldatasize\n      sub\n      dup2\n      add\n      swap1\n      tag_60\n      swap2\n      swap1\n      tag_42\n      jump\t// in\n    tag_60:\n      tag_61\n      jump\t// in\n    tag_59:\n      mload(0x40)\n      tag_62\n      swap2\n      swap1\n      tag_45\n      jump\t// in\n    tag_62:\n      mload(0x40)\n      dup1\n      swap2\n      sub\n      swap1\n      return\n        /* \"contracts/TEX.sol\":1747:1812  function unpause() public onlyOwner {... */\n    tag_10:\n      tag_63\n      tag_64\n      jump\t// in\n    tag_63:\n      stop\n        /* \"contracts/TEX.sol\":1561:1670  function mint(address recipient, uint256 amount) public onlyOwner {... */\n    tag_11:\n      tag_65\n      0x04\n      dup1\n      calldatasize\n      sub\n      dup2\n      add\n      swap1\n      tag_66\n      swap2\n      swap1\n      tag_42\n      jump\t// in\n    tag_66:\n      tag_67\n      jump\t// in\n    tag_65:\n      stop\n        /* \"contracts/TEX.sol\":1470:1553  function burn(uint256 amount) public {... */\n    tag_12:\n      tag_68\n      0x04\n      dup1\n      calldatasize\n      sub\n      dup2\n      add\n      swap1\n      tag_69\n      swap2\n      swap1\n      tag_32\n      jump\t// in\n    tag_69:\n      tag_70\n      jump\t// in\n    tag_68:\n      stop\n        /* \"contracts/TEX.sol\":1820:2098  function createProposal(string memory description) public {... */\n    tag_13:\n      tag_71\n      0x04\n      dup1\n      calldatasize\n      sub\n      dup2\n      add\n      swap1\n      tag_72\n      swap2\n      swap1\n      tag_73\n      jump\t// in\n    tag_72:\n      tag_74\n      jump\t// in\n    tag_71:\n      stop\n        /* \"@openzeppelin/contracts/security/Pausable.sol\":1615:1699  function paused() public view virtual returns (bool) {... */\n    tag_14:\n      tag_75\n      tag_76\n      jump\t// in\n    tag_75:\n      mload(0x40)\n      tag_77\n      swap2\n      swap1\n      tag_45\n      jump\t// in\n    tag_77:\n      mload(0x40)\n      dup1\n      swap2\n      sub\n      swap1\n      return\n        /* \"@openzeppelin/contracts/token/ERC20/ERC20.sol\":3406:3531  function balanceOf(address account) public view virtual override returns (uint256) {... */\n    tag_15:\n      tag_78\n      0x04\n      dup1\n      calldatasize\n      sub\n      dup2\n      add\n      swap1\n      tag_79\n      swap2\n      swap1\n      tag_80\n      jump\t// in\n    tag_79:\n      tag_81\n      jump\t// in\n    tag_78:\n      mload(0x40)\n      tag_82\n      swap2\n      swap1\n      tag_49\n      jump\t// in\n    tag_82:\n      mload(0x40)\n      dup1\n      swap2\n      sub\n      swap1\n      return\n        /* \"@openzeppelin/contracts/access/Ownable.sol\":1831:1932  function renounceOwnership() public virtual onlyOwner {... */\n    tag_16:\n      tag_83\n      tag_84\n      jump\t// in\n    tag_83:\n      stop\n        /* \"contracts/TEX.sol\":1678:1739  function pause() public onlyOwner {... */\n    tag_17:\n      tag_85\n      tag_86\n      jump\t// in\n    tag_85:\n      stop\n        /* \"@openzeppelin/contracts/access/Ownable.sol\":1201:1286  function owner() public view virtual returns (address) {... */\n    tag_18:\n      tag_87\n      tag_88\n      jump\t// in\n    tag_87:\n      mload(0x40)\n      tag_89\n      swap2\n      swap1\n      tag_90\n      jump\t// in\n    tag_89:\n      mload(0x40)\n      dup1\n      swap2\n      sub\n      swap1\n      return\n        /* \"@openzeppelin/contracts/token/ERC20/ERC20.sol\":2365:2467  function symbol() public view virtual override returns (string memory) {... */\n    tag_19:\n      tag_91\n      tag_92\n      jump\t// in\n    tag_91:\n      mload(0x40)\n      tag_93\n      swap2\n      swap1\n      tag_39\n      jump\t// in\n    tag_93:\n      mload(0x40)\n      dup1\n      swap2\n      sub\n      swap1\n      return\n        /* \"@openzeppelin/contracts/token/ERC20/ERC20.sol\":6592:7019  function decreaseAllowance(address spender, uint256 subtractedValue) public virtual returns (bool) {... */\n    tag_20:\n      tag_94\n      0x04\n      dup1\n      calldatasize\n      sub\n      dup2\n      add\n      swap1\n      tag_95\n      swap2\n      swap1\n      tag_42\n      jump\t// in\n    tag_95:\n      tag_96\n      jump\t// in\n    tag_94:\n      mload(0x40)\n      tag_97\n      swap2\n      swap1\n      tag_45\n      jump\t// in\n    tag_97:\n      mload(0x40)\n      dup1\n      swap2\n      sub\n      swap1\n      return\n        /* \"contracts/TEX.sol\":694:941  function transfer(address recipient, uint256 amount) public override returns (bool) {... */\n    tag_21:\n      tag_98\n      0x04\n      dup1\n      calldatasize\n      sub\n      dup2\n      add\n      swap1\n      tag_99\n      swap2\n      swap1\n      tag_42\n      jump\t// in\n    tag_99:\n      tag_100\n      jump\t// in\n    tag_98:\n      mload(0x40)\n      tag_101\n      swap2\n      swap1\n      tag_45\n      jump\t// in\n    tag_101:\n      mload(0x40)\n      dup1\n      swap2\n      sub\n      swap1\n      return\n        /* \"contracts/TEX.sol\":2630:2947  function getProposal(uint proposalId) public view returns (uint id, address creator, string memory description, uint yesVotes, uint noVotes) {... */\n    tag_22:\n      tag_102\n      0x04\n      dup1\n      calldatasize\n      sub\n      dup2\n      add\n      swap1\n      tag_103\n      swap2\n      swap1\n      tag_32\n      jump\t// in\n    tag_103:\n      tag_104\n      jump\t// in\n    tag_102:\n      mload(0x40)\n      tag_105\n      swap6\n      swap5\n      swap4\n      swap3\n      swap2\n      swap1\n      tag_35\n      jump\t// in\n    tag_105:\n      mload(0x40)\n      dup1\n      swap2\n      sub\n      swap1\n      return\n        /* \"contracts/TEX.sol\":2106:2622  function vote(uint proposalId, bool yesVote) public {... */\n    tag_23:\n      tag_106\n      0x04\n      dup1\n      calldatasize\n      sub\n      dup2\n      add\n      swap1\n      tag_107\n      swap2\n      swap1\n      tag_108\n      jump\t// in\n    tag_107:\n      tag_109\n      jump\t// in\n    tag_106:\n      stop\n        /* \"contracts/TEX.sol\":471:500  uint public proposalCount = 0 */\n    tag_24:\n      tag_110\n      tag_111\n      jump\t// in\n    tag_110:\n      mload(0x40)\n      tag_112\n      swap2\n      swap1\n      tag_49\n      jump\t// in\n    tag_112:\n      mload(0x40)\n      dup1\n      swap2\n      sub\n      swap1\n      return\n        /* \"@openzeppelin/contracts/token/ERC20/ERC20.sol\":3974:4123  function allowance(address owner, address spender) public view virtual override returns (uint256) {... */\n    tag_25:\n      tag_113\n      0x04\n      dup1\n      calldatasize\n      sub\n      dup2\n      add\n      swap1\n      tag_114\n      swap2\n      swap1\n      tag_115\n      jump\t// in\n    tag_114:\n      tag_116\n      jump\t// in\n    tag_113:\n      mload(0x40)\n      tag_117\n      swap2\n      swap1\n      tag_49\n      jump\t// in\n    tag_117:\n      mload(0x40)\n      dup1\n      swap2\n      sub\n      swap1\n      return\n        /* \"@openzeppelin/contracts/access/Ownable.sol\":2081:2279  function transferOwnership(address newOwner) public virtual onlyOwner {... */\n    tag_26:\n      tag_118\n      0x04\n      dup1\n      calldatasize\n      sub\n      dup2\n      add\n      swap1\n      tag_119\n      swap2\n      swap1\n      tag_80\n      jump\t// in\n    tag_119:\n      tag_120\n      jump\t// in\n    tag_118:\n      stop\n        /* \"contracts/TEX.sol\":507:549  mapping(uint => Proposal) public proposals */\n    tag_33:\n      mstore(0x20, 0x07)\n      dup1\n      0x00\n      mstore\n      keccak256(0x00, 0x40)\n      0x00\n      swap2\n      pop\n      swap1\n      pop\n      dup1\n      0x00\n      add\n      sload\n      swap1\n      dup1\n      0x01\n      add\n      0x00\n      swap1\n      sload\n      swap1\n      0x0100\n      exp\n      swap1\n      div\n      0xffffffffffffffffffffffffffffffffffffffff\n      and\n      swap1\n      dup1\n      0x02\n      add\n      dup1\n      sload\n      tag_121\n      swap1\n      tag_122\n      jump\t// in\n    tag_121:\n      dup1\n      0x1f\n      add\n      0x20\n      dup1\n      swap2\n      div\n      mul\n      0x20\n      add\n      mload(0x40)\n      swap1\n      dup2\n      add\n      0x40\n      mstore\n      dup1\n      swap3\n      swap2\n      swap1\n      dup2\n      dup2\n      mstore\n      0x20\n      add\n      dup3\n      dup1\n      sload\n      tag_123\n      swap1\n      tag_122\n      jump\t// in\n    tag_123:\n      dup1\n      iszero\n      tag_124\n      jumpi\n      dup1\n      0x1f\n      lt\n      tag_125\n      jumpi\n      0x0100\n      dup1\n      dup4\n      sload\n      div\n      mul\n      dup4\n      mstore\n      swap2\n      0x20\n      add\n      swap2\n      jump(tag_124)\n    tag_125:\n      dup3\n      add\n      swap2\n      swap1\n      0x00\n      mstore\n      keccak256(0x00, 0x20)\n      swap1\n    tag_126:\n      dup2\n      sload\n      dup2\n      mstore\n      swap1\n      0x01\n      add\n      swap1\n      0x20\n      add\n      dup1\n      dup4\n      gt\n      tag_126\n      jumpi\n      dup3\n      swap1\n      sub\n      0x1f\n      and\n      dup3\n      add\n      swap2\n    tag_124:\n      pop\n      pop\n      pop\n      pop\n      pop\n      swap1\n      dup1\n      0x03\n      add\n      sload\n      swap1\n      dup1\n      0x04\n      add\n      sload\n      swap1\n      pop\n      dup6\n      jump\t// out\n        /* \"@openzeppelin/contracts/token/ERC20/ERC20.sol\":2154:2252  function name() public view virtual override returns (string memory) {... */\n    tag_37:\n        /* \"@openzeppelin/contracts/token/ERC20/ERC20.sol\":2208:2221  string memory */\n      0x60\n        /* \"@openzeppelin/contracts/token/ERC20/ERC20.sol\":2240:2245  _name */\n      0x03\n        /* \"@openzeppelin/contracts/token/ERC20/ERC20.sol\":2233:2245  return _name */\n      dup1\n      sload\n      tag_128\n      swap1\n      tag_122\n      jump\t// in\n    tag_128:\n      dup1\n      0x1f\n      add\n      0x20\n      dup1\n      swap2\n      div\n      mul\n      0x20\n      add\n      mload(0x40)\n      swap1\n      dup2\n      add\n      0x40\n      mstore\n      dup1\n      swap3\n      swap2\n      swap1\n      dup2\n      dup2\n      mstore\n      0x20\n      add\n      dup3\n      dup1\n      sload\n      tag_129\n      swap1\n      tag_122\n      jump\t// in\n    tag_129:\n      dup1\n      iszero\n      tag_130\n      jumpi\n      dup1\n      0x1f\n      lt\n      tag_131\n      jumpi\n      0x0100\n      dup1\n      dup4\n      sload\n      div\n      mul\n      dup4\n      mstore\n      swap2\n      0x20\n      add\n      swap2\n      jump(tag_130)\n    tag_131:\n      dup3\n      add\n      swap2\n      swap1\n      0x00\n      mstore\n      keccak256(0x00, 0x20)\n      swap1\n    tag_132:\n      dup2\n      sload\n      dup2\n      mstore\n      swap1\n      0x01\n      add\n      swap1\n      0x20\n      add\n      dup1\n      dup4\n      gt\n      tag_132\n      jumpi\n      dup3\n      swap1\n      sub\n      0x1f\n      and\n      dup3\n      add\n      swap2\n    tag_130:\n      pop\n      pop\n      pop\n      pop\n      pop\n      swap1\n      pop\n        /* \"@openzeppelin/contracts/token/ERC20/ERC20.sol\":2154:2252  function name() public view virtual override returns (string memory) {... */\n      swap1\n      jump\t// out\n        /* \"contracts/TEX.sol\":949:1110  function approve(address spender, uint256 amount) public override returns (bool) {... */\n    tag_43:\n        /* \"contracts/TEX.sol\":1024:1028  bool */\n      0x00\n        /* \"contracts/TEX.sol\":1041:1080  _approve(_msgSender(), spender, amount) */\n      tag_134\n        /* \"contracts/TEX.sol\":1050:1062  _msgSender() */\n      tag_135\n        /* \"contracts/TEX.sol\":1050:1060  _msgSender */\n      tag_136\n        /* \"contracts/TEX.sol\":1050:1062  _msgSender() */\n      jump\t// in\n    tag_135:\n        /* \"contracts/TEX.sol\":1064:1071  spender */\n      dup5\n        /* \"contracts/TEX.sol\":1073:1079  amount */\n      dup5\n        /* \"contracts/TEX.sol\":1041:1049  _approve */\n      tag_137\n        /* \"contracts/TEX.sol\":1041:1080  _approve(_msgSender(), spender, amount) */\n      jump\t// in\n    tag_134:\n        /* \"contracts/TEX.sol\":1098:1102  true */\n      0x01\n        /* \"contracts/TEX.sol\":1091:1102  return true */\n      swap1\n      pop\n        /* \"contracts/TEX.sol\":949:1110  function approve(address spender, uint256 amount) public override returns (bool) {... */\n      swap3\n      swap2\n      pop\n      pop\n      jump\t// out\n        /* \"@openzeppelin/contracts/token/ERC20/ERC20.sol\":3242:3348  function totalSupply() public view virtual override returns (uint256) {... */\n    tag_47:\n        /* \"@openzeppelin/contracts/token/ERC20/ERC20.sol\":3303:3310  uint256 */\n      0x00\n        /* \"@openzeppelin/contracts/token/ERC20/ERC20.sol\":3329:3341  _totalSupply */\n      sload(0x02)\n        /* \"@openzeppelin/contracts/token/ERC20/ERC20.sol\":3322:3341  return _totalSupply */\n      swap1\n      pop\n        /* \"@openzeppelin/contracts/token/ERC20/ERC20.sol\":3242:3348  function totalSupply() public view virtual override returns (uint256) {... */\n      swap1\n      jump\t// out\n        /* \"contracts/TEX.sol\":1118:1462  function transferFrom(address sender, address recipient, uint256 amount) public override returns (bool) {... */\n    tag_53:\n        /* \"contracts/TEX.sol\":1216:1220  bool */\n      0x00\n        /* \"contracts/TEX.sol\":1262:1263  0 */\n      dup1\n        /* \"contracts/TEX.sol\":1241:1264  recipient != address(0) */\n      0xffffffffffffffffffffffffffffffffffffffff\n      and\n        /* \"contracts/TEX.sol\":1241:1250  recipient */\n      dup4\n        /* \"contracts/TEX.sol\":1241:1264  recipient != address(0) */\n      0xffffffffffffffffffffffffffffffffffffffff\n      and\n      sub\n        /* \"contracts/TEX.sol\":1233:1302  require(recipient != address(0), \"TEX: transfer to the zero address\") */\n      tag_140\n      jumpi\n      mload(0x40)\n      0x08c379a000000000000000000000000000000000000000000000000000000000\n      dup2\n      mstore\n      0x04\n      add\n      tag_141\n      swap1\n      tag_142\n      jump\t// in\n    tag_141:\n      mload(0x40)\n      dup1\n      swap2\n      sub\n      swap1\n      revert\n    tag_140:\n        /* \"contracts/TEX.sol\":1313:1349  _transfer(sender, recipient, amount) */\n      tag_143\n        /* \"contracts/TEX.sol\":1323:1329  sender */\n      dup5\n        /* \"contracts/TEX.sol\":1331:1340  recipient */\n      dup5\n        /* \"contracts/TEX.sol\":1342:1348  amount */\n      dup5\n        /* \"contracts/TEX.sol\":1313:1322  _transfer */\n      tag_144\n        /* \"contracts/TEX.sol\":1313:1349  _transfer(sender, recipient, amount) */\n      jump\t// in\n    tag_143:\n        /* \"contracts/TEX.sol\":1360:1432  _approve(sender, _msgSender(), allowance(sender, _msgSender()) - amount) */\n      tag_145\n        /* \"contracts/TEX.sol\":1369:1375  sender */\n      dup5\n        /* \"contracts/TEX.sol\":1377:1389  _msgSender() */\n      tag_146\n        /* \"contracts/TEX.sol\":1377:1387  _msgSender */\n      tag_136\n        /* \"contracts/TEX.sol\":1377:1389  _msgSender() */\n      jump\t// in\n    tag_146:\n        /* \"contracts/TEX.sol\":1425:1431  amount */\n      dup5\n        /* \"contracts/TEX.sol\":1391:1422  allowance(sender, _msgSender()) */\n      tag_147\n        /* \"contracts/TEX.sol\":1401:1407  sender */\n      dup9\n        /* \"contracts/TEX.sol\":1409:1421  _msgSender() */\n      tag_148\n        /* \"contracts/TEX.sol\":1409:1419  _msgSender */\n      tag_136\n        /* \"contracts/TEX.sol\":1409:1421  _msgSender() */\n      jump\t// in\n    tag_148:\n        /* \"contracts/TEX.sol\":1391:1400  allowance */\n      tag_116\n        /* \"contracts/TEX.sol\":1391:1422  allowance(sender, _msgSender()) */\n      jump\t// in\n    tag_147:\n        /* \"contracts/TEX.sol\":1391:1431  allowance(sender, _msgSender()) - amount */\n      tag_149\n      swap2\n      swap1\n      tag_150\n      jump\t// in\n    tag_149:\n        /* \"contracts/TEX.sol\":1360:1368  _approve */\n      tag_137\n        /* \"contracts/TEX.sol\":1360:1432  _approve(sender, _msgSender(), allowance(sender, _msgSender()) - amount) */\n      jump\t// in\n    tag_145:\n        /* \"contracts/TEX.sol\":1450:1454  true */\n      0x01\n        /* \"contracts/TEX.sol\":1443:1454  return true */\n      swap1\n      pop\n        /* \"contracts/TEX.sol\":1118:1462  function transferFrom(address sender, address recipient, uint256 amount) public override returns (bool) {... */\n      swap4\n      swap3\n      pop\n      pop\n      pop\n      jump\t// out\n        /* \"@openzeppelin/contracts/token/ERC20/ERC20.sol\":3091:3182  function decimals() public view virtual override returns (uint8) {... */\n    tag_56:\n        /* \"@openzeppelin/contracts/token/ERC20/ERC20.sol\":3149:3154  uint8 */\n      0x00\n        /* \"@openzeppelin/contracts/token/ERC20/ERC20.sol\":3173:3175  18 */\n      0x12\n        /* \"@openzeppelin/contracts/token/ERC20/ERC20.sol\":3166:3175  return 18 */\n      swap1\n      pop\n        /* \"@openzeppelin/contracts/token/ERC20/ERC20.sol\":3091:3182  function decimals() public view virtual override returns (uint8) {... */\n      swap1\n      jump\t// out\n        /* \"@openzeppelin/contracts/token/ERC20/ERC20.sol\":5871:6105  function increaseAllowance(address spender, uint256 addedValue) public virtual returns (bool) {... */\n    tag_61:\n        /* \"@openzeppelin/contracts/token/ERC20/ERC20.sol\":5959:5963  bool */\n      0x00\n        /* \"@openzeppelin/contracts/token/ERC20/ERC20.sol\":5975:5988  address owner */\n      dup1\n        /* \"@openzeppelin/contracts/token/ERC20/ERC20.sol\":5991:6003  _msgSender() */\n      tag_153\n        /* \"@openzeppelin/contracts/token/ERC20/ERC20.sol\":5991:6001  _msgSender */\n      tag_136\n        /* \"@openzeppelin/contracts/token/ERC20/ERC20.sol\":5991:6003  _msgSender() */\n      jump\t// in\n    tag_153:\n        /* \"@openzeppelin/contracts/token/ERC20/ERC20.sol\":5975:6003  address owner = _msgSender() */\n      swap1\n      pop\n        /* \"@openzeppelin/contracts/token/ERC20/ERC20.sol\":6013:6077  _approve(owner, spender, allowance(owner, spender) + addedValue) */\n      tag_154\n        /* \"@openzeppelin/contracts/token/ERC20/ERC20.sol\":6022:6027  owner */\n      dup2\n        /* \"@openzeppelin/contracts/token/ERC20/ERC20.sol\":6029:6036  spender */\n      dup6\n        /* \"@openzeppelin/contracts/token/ERC20/ERC20.sol\":6066:6076  addedValue */\n      dup6\n        /* \"@openzeppelin/contracts/token/ERC20/ERC20.sol\":6038:6063  allowance(owner, spender) */\n      tag_155\n        /* \"@openzeppelin/contracts/token/ERC20/ERC20.sol\":6048:6053  owner */\n      dup6\n        /* \"@openzeppelin/contracts/token/ERC20/ERC20.sol\":6055:6062  spender */\n      dup10\n        /* \"@openzeppelin/contracts/token/ERC20/ERC20.sol\":6038:6047  allowance */\n      tag_116\n        /* \"@openzeppelin/contracts/token/ERC20/ERC20.sol\":6038:6063  allowance(owner, spender) */\n      jump\t// in\n    tag_155:\n        /* \"@openzeppelin/contracts/token/ERC20/ERC20.sol\":6038:6076  allowance(owner, spender) + addedValue */\n      tag_156\n      swap2\n      swap1\n      tag_157\n      jump\t// in\n    tag_156:\n        /* \"@openzeppelin/contracts/token/ERC20/ERC20.sol\":6013:6021  _approve */\n      tag_137\n        /* \"@openzeppelin/contracts/token/ERC20/ERC20.sol\":6013:6077  _approve(owner, spender, allowance(owner, spender) + addedValue) */\n      jump\t// in\n    tag_154:\n        /* \"@openzeppelin/contracts/token/ERC20/ERC20.sol\":6094:6098  true */\n      0x01\n        /* \"@openzeppelin/contracts/token/ERC20/ERC20.sol\":6087:6098  return true */\n      swap2\n      pop\n      pop\n        /* \"@openzeppelin/contracts/token/ERC20/ERC20.sol\":5871:6105  function increaseAllowance(address spender, uint256 addedValue) public virtual returns (bool) {... */\n      swap3\n      swap2\n      pop\n      pop\n      jump\t// out\n        /* \"contracts/TEX.sol\":1747:1812  function unpause() public onlyOwner {... */\n    tag_64:\n        /* \"@openzeppelin/contracts/access/Ownable.sol\":1094:1107  _checkOwner() */\n      tag_159\n        /* \"@openzeppelin/contracts/access/Ownable.sol\":1094:1105  _checkOwner */\n      tag_160\n        /* \"@openzeppelin/contracts/access/Ownable.sol\":1094:1107  _checkOwner() */\n      jump\t// in\n    tag_159:\n        /* \"contracts/TEX.sol\":1794:1804  _unpause() */\n      tag_162\n        /* \"contracts/TEX.sol\":1794:1802  _unpause */\n      tag_163\n        /* \"contracts/TEX.sol\":1794:1804  _unpause() */\n      jump\t// in\n    tag_162:\n        /* \"contracts/TEX.sol\":1747:1812  function unpause() public onlyOwner {... */\n      jump\t// out\n        /* \"contracts/TEX.sol\":1561:1670  function mint(address recipient, uint256 amount) public onlyOwner {... */\n    tag_67:\n        /* \"@openzeppelin/contracts/access/Ownable.sol\":1094:1107  _checkOwner() */\n      tag_165\n        /* \"@openzeppelin/contracts/access/Ownable.sol\":1094:1105  _checkOwner */\n      tag_160\n        /* \"@openzeppelin/contracts/access/Ownable.sol\":1094:1107  _checkOwner() */\n      jump\t// in\n    tag_165:\n        /* \"contracts/TEX.sol\":1638:1662  _mint(recipient, amount) */\n      tag_167\n        /* \"contracts/TEX.sol\":1644:1653  recipient */\n      dup3\n        /* \"contracts/TEX.sol\":1655:1661  amount */\n      dup3\n        /* \"contracts/TEX.sol\":1638:1643  _mint */\n      tag_168\n        /* \"contracts/TEX.sol\":1638:1662  _mint(recipient, amount) */\n      jump\t// in\n    tag_167:\n        /* \"contracts/TEX.sol\":1561:1670  function mint(address recipient, uint256 amount) public onlyOwner {... */\n      pop\n      pop\n      jump\t// out\n        /* \"contracts/TEX.sol\":1470:1553  function burn(uint256 amount) public {... */\n    tag_70:\n        /* \"contracts/TEX.sol\":1518:1545  _burn(_msgSender(), amount) */\n      tag_170\n        /* \"contracts/TEX.sol\":1524:1536  _msgSender() */\n      tag_171\n        /* \"contracts/TEX.sol\":1524:1534  _msgSender */\n      tag_136\n        /* \"contracts/TEX.sol\":1524:1536  _msgSender() */\n      jump\t// in\n    tag_171:\n        /* \"contracts/TEX.sol\":1538:1544  amount */\n      dup3\n        /* \"contracts/TEX.sol\":1518:1523  _burn */\n      tag_172\n        /* \"contracts/TEX.sol\":1518:1545  _burn(_msgSender(), amount) */\n      jump\t// in\n    tag_170:\n        /* \"contracts/TEX.sol\":1470:1553  function burn(uint256 amount) public {... */\n      pop\n      jump\t// out\n        /* \"contracts/TEX.sol\":1820:2098  function createProposal(string memory description) public {... */\n    tag_74:\n        /* \"contracts/TEX.sol\":1889:1902  proposalCount */\n      0x06\n      0x00\n        /* \"contracts/TEX.sol\":1889:1904  proposalCount++ */\n      dup2\n      sload\n      dup1\n      swap3\n      swap2\n      swap1\n      tag_174\n      swap1\n      tag_175\n      jump\t// in\n    tag_174:\n      swap2\n      swap1\n      pop\n      sstore\n      pop\n        /* \"contracts/TEX.sol\":1915:1940  Proposal storage proposal */\n      0x00\n        /* \"contracts/TEX.sol\":1943:1952  proposals */\n      0x07\n        /* \"contracts/TEX.sol\":1943:1967  proposals[proposalCount] */\n      0x00\n        /* \"contracts/TEX.sol\":1953:1966  proposalCount */\n      sload(0x06)\n        /* \"contracts/TEX.sol\":1943:1967  proposals[proposalCount] */\n      dup2\n      mstore\n      0x20\n      add\n      swap1\n      dup2\n      mstore\n      0x20\n      add\n      0x00\n      keccak256\n        /* \"contracts/TEX.sol\":1915:1967  Proposal storage proposal = proposals[proposalCount] */\n      swap1\n      pop\n        /* \"contracts/TEX.sol\":1992:2005  proposalCount */\n      sload(0x06)\n        /* \"contracts/TEX.sol\":1978:1986  proposal */\n      dup2\n        /* \"contracts/TEX.sol\":1978:1989  proposal.id */\n      0x00\n      add\n        /* \"contracts/TEX.sol\":1978:2005  proposal.id = proposalCount */\n      dup2\n      swap1\n      sstore\n      pop\n        /* \"contracts/TEX.sol\":2035:2045  msg.sender */\n      caller\n        /* \"contracts/TEX.sol\":2016:2024  proposal */\n      dup2\n        /* \"contracts/TEX.sol\":2016:2032  proposal.creator */\n      0x01\n      add\n      0x00\n        /* \"contracts/TEX.sol\":2016:2045  proposal.creator = msg.sender */\n      0x0100\n      exp\n      dup2\n      sload\n      dup2\n      0xffffffffffffffffffffffffffffffffffffffff\n      mul\n      not\n      and\n      swap1\n      dup4\n      0xffffffffffffffffffffffffffffffffffffffff\n      and\n      mul\n      or\n      swap1\n      sstore\n      pop\n        /* \"contracts/TEX.sol\":2079:2090  description */\n      dup2\n        /* \"contracts/TEX.sol\":2056:2064  proposal */\n      dup2\n        /* \"contracts/TEX.sol\":2056:2076  proposal.description */\n      0x02\n      add\n        /* \"contracts/TEX.sol\":2056:2090  proposal.description = description */\n      swap1\n      dup2\n      tag_176\n      swap2\n      swap1\n      tag_177\n      jump\t// in\n    tag_176:\n      pop\n        /* \"contracts/TEX.sol\":1878:2098  {... */\n      pop\n        /* \"contracts/TEX.sol\":1820:2098  function createProposal(string memory description) public {... */\n      pop\n      jump\t// out\n        /* \"@openzeppelin/contracts/security/Pausable.sol\":1615:1699  function paused() public view virtual returns (bool) {... */\n    tag_76:\n        /* \"@openzeppelin/contracts/security/Pausable.sol\":1662:1666  bool */\n      0x00\n        /* \"@openzeppelin/contracts/security/Pausable.sol\":1685:1692  _paused */\n      0x05\n      0x14\n      swap1\n      sload\n      swap1\n      0x0100\n      exp\n      swap1\n      div\n      0xff\n      and\n        /* \"@openzeppelin/contracts/security/Pausable.sol\":1678:1692  return _paused */\n      swap1\n      pop\n        /* \"@openzeppelin/contracts/security/Pausable.sol\":1615:1699  function paused() public view virtual returns (bool) {... */\n      swap1\n      jump\t// out\n        /* \"@openzeppelin/contracts/token/ERC20/ERC20.sol\":3406:3531  function balanceOf(address account) public view virtual override returns (uint256) {... */\n    tag_81:\n        /* \"@openzeppelin/contracts/token/ERC20/ERC20.sol\":3480:3487  uint256 */\n      0x00\n        /* \"@openzeppelin/contracts/token/ERC20/ERC20.sol\":3506:3515  _balances */\n      dup1\n        /* \"@openzeppelin/contracts/token/ERC20/ERC20.sol\":3506:3524  _balances[account] */\n      0x00\n        /* \"@openzeppelin/contracts/token/ERC20/ERC20.sol\":3516:3523  account */\n      dup4\n        /* \"@openzeppelin/contracts/token/ERC20/ERC20.sol\":3506:3524  _balances[account] */\n      0xffffffffffffffffffffffffffffffffffffffff\n      and\n      0xffffffffffffffffffffffffffffffffffffffff\n      and\n      dup2\n      mstore\n      0x20\n      add\n      swap1\n      dup2\n      mstore\n      0x20\n      add\n      0x00\n      keccak256\n      sload\n        /* \"@openzeppelin/contracts/token/ERC20/ERC20.sol\":3499:3524  return _balances[account] */\n      swap1\n      pop\n        /* \"@openzeppelin/contracts/token/ERC20/ERC20.sol\":3406:3531  function balanceOf(address account) public view virtual override returns (uint256) {... */\n      swap2\n      swap1\n      pop\n      jump\t// out\n        /* \"@openzeppelin/contracts/access/Ownable.sol\":1831:1932  function renounceOwnership() public virtual onlyOwner {... */\n    tag_84:\n        /* \"@openzeppelin/contracts/access/Ownable.sol\":1094:1107  _checkOwner() */\n      tag_181\n        /* \"@openzeppelin/contracts/access/Ownable.sol\":1094:1105  _checkOwner */\n      tag_160\n        /* \"@openzeppelin/contracts/access/Ownable.sol\":1094:1107  _checkOwner() */\n      jump\t// in\n    tag_181:\n        /* \"@openzeppelin/contracts/access/Ownable.sol\":1895:1925  _transferOwnership(address(0)) */\n      tag_183\n        /* \"@openzeppelin/contracts/access/Ownable.sol\":1922:1923  0 */\n      0x00\n        /* \"@openzeppelin/contracts/access/Ownable.sol\":1895:1913  _transferOwnership */\n      tag_184\n        /* \"@openzeppelin/contracts/access/Ownable.sol\":1895:1925  _transferOwnership(address(0)) */\n      jump\t// in\n    tag_183:\n        /* \"@openzeppelin/contracts/access/Ownable.sol\":1831:1932  function renounceOwnership() public virtual onlyOwner {... */\n      jump\t// out\n        /* \"contracts/TEX.sol\":1678:1739  function pause() public onlyOwner {... */\n    tag_86:\n        /* \"@openzeppelin/contracts/access/Ownable.sol\":1094:1107  _checkOwner() */\n      tag_186\n        /* \"@openzeppelin/contracts/access/Ownable.sol\":1094:1105  _checkOwner */\n      tag_160\n        /* \"@openzeppelin/contracts/access/Ownable.sol\":1094:1107  _checkOwner() */\n      jump\t// in\n    tag_186:\n        /* \"contracts/TEX.sol\":1723:1731  _pause() */\n      tag_188\n        /* \"contracts/TEX.sol\":1723:1729  _pause */\n      tag_189\n        /* \"contracts/TEX.sol\":1723:1731  _pause() */\n      jump\t// in\n    tag_188:\n        /* \"contracts/TEX.sol\":1678:1739  function pause() public onlyOwner {... */\n      jump\t// out\n        /* \"@openzeppelin/contracts/access/Ownable.sol\":1201:1286  function owner() public view virtual returns (address) {... */\n    tag_88:\n        /* \"@openzeppelin/contracts/access/Ownable.sol\":1247:1254  address */\n      0x00\n        /* \"@openzeppelin/contracts/access/Ownable.sol\":1273:1279  _owner */\n      0x05\n      0x00\n      swap1\n      sload\n      swap1\n      0x0100\n      exp\n      swap1\n      div\n      0xffffffffffffffffffffffffffffffffffffffff\n      and\n        /* \"@openzeppelin/contracts/access/Ownable.sol\":1266:1279  return _owner */\n      swap1\n      pop\n        /* \"@openzeppelin/contracts/access/Ownable.sol\":1201:1286  function owner() public view virtual returns (address) {... */\n      swap1\n      jump\t// out\n        /* \"@openzeppelin/contracts/token/ERC20/ERC20.sol\":2365:2467  function symbol() public view virtual override returns (string memory) {... */\n    tag_92:\n        /* \"@openzeppelin/contracts/token/ERC20/ERC20.sol\":2421:2434  string memory */\n      0x60\n        /* \"@openzeppelin/contracts/token/ERC20/ERC20.sol\":2453:2460  _symbol */\n      0x04\n        /* \"@openzeppelin/contracts/token/ERC20/ERC20.sol\":2446:2460  return _symbol */\n      dup1\n      sload\n      tag_192\n      swap1\n      tag_122\n      jump\t// in\n    tag_192:\n      dup1\n      0x1f\n      add\n      0x20\n      dup1\n      swap2\n      div\n      mul\n      0x20\n      add\n      mload(0x40)\n      swap1\n      dup2\n      add\n      0x40\n      mstore\n      dup1\n      swap3\n      swap2\n      swap1\n      dup2\n      dup2\n      mstore\n      0x20\n      add\n      dup3\n      dup1\n      sload\n      tag_193\n      swap1\n      tag_122\n      jump\t// in\n    tag_193:\n      dup1\n      iszero\n      tag_194\n      jumpi\n      dup1\n      0x1f\n      lt\n      tag_195\n      jumpi\n      0x0100\n      dup1\n      dup4\n      sload\n      div\n      mul\n      dup4\n      mstore\n      swap2\n      0x20\n      add\n      swap2\n      jump(tag_194)\n    tag_195:\n      dup3\n      add\n      swap2\n      swap1\n      0x00\n      mstore\n      keccak256(0x00, 0x20)\n      swap1\n    tag_196:\n      dup2\n      sload\n      dup2\n      mstore\n      swap1\n      0x01\n      add\n      swap1\n      0x20\n      add\n      dup1\n      dup4\n      gt\n      tag_196\n      jumpi\n      dup3\n      swap1\n      sub\n      0x1f\n      and\n      dup3\n      add\n      swap2\n    tag_194:\n      pop\n      pop\n      pop\n      pop\n      pop\n      swap1\n      pop\n        /* \"@openzeppelin/contracts/token/ERC20/ERC20.sol\":2365:2467  function symbol() public view virtual override returns (string memory) {... */\n      swap1\n      jump\t// out\n        /* \"@openzeppelin/contracts/token/ERC20/ERC20.sol\":6592:7019  function decreaseAllowance(address spender, uint256 subtractedValue) public virtual returns (bool) {... */\n    tag_96:\n        /* \"@openzeppelin/contracts/token/ERC20/ERC20.sol\":6685:6689  bool */\n      0x00\n        /* \"@openzeppelin/contracts/token/ERC20/ERC20.sol\":6701:6714  address owner */\n      dup1\n        /* \"@openzeppelin/contracts/token/ERC20/ERC20.sol\":6717:6729  _msgSender() */\n      tag_198\n        /* \"@openzeppelin/contracts/token/ERC20/ERC20.sol\":6717:6727  _msgSender */\n      tag_136\n        /* \"@openzeppelin/contracts/token/ERC20/ERC20.sol\":6717:6729  _msgSender() */\n      jump\t// in\n    tag_198:\n        /* \"@openzeppelin/contracts/token/ERC20/ERC20.sol\":6701:6729  address owner = _msgSender() */\n      swap1\n      pop\n        /* \"@openzeppelin/contracts/token/ERC20/ERC20.sol\":6739:6763  uint256 currentAllowance */\n      0x00\n        /* \"@openzeppelin/contracts/token/ERC20/ERC20.sol\":6766:6791  allowance(owner, spender) */\n      tag_199\n        /* \"@openzeppelin/contracts/token/ERC20/ERC20.sol\":6776:6781  owner */\n      dup3\n        /* \"@openzeppelin/contracts/token/ERC20/ERC20.sol\":6783:6790  spender */\n      dup7\n        /* \"@openzeppelin/contracts/token/ERC20/ERC20.sol\":6766:6775  allowance */\n      tag_116\n        /* \"@openzeppelin/contracts/token/ERC20/ERC20.sol\":6766:6791  allowance(owner, spender) */\n      jump\t// in\n    tag_199:\n        /* \"@openzeppelin/contracts/token/ERC20/ERC20.sol\":6739:6791  uint256 currentAllowance = allowance(owner, spender) */\n      swap1\n      pop\n        /* \"@openzeppelin/contracts/token/ERC20/ERC20.sol\":6829:6844  subtractedValue */\n      dup4\n        /* \"@openzeppelin/contracts/token/ERC20/ERC20.sol\":6809:6825  currentAllowance */\n      dup2\n        /* \"@openzeppelin/contracts/token/ERC20/ERC20.sol\":6809:6844  currentAllowance >= subtractedValue */\n      lt\n      iszero\n        /* \"@openzeppelin/contracts/token/ERC20/ERC20.sol\":6801:6886  require(currentAllowance >= subtractedValue, \"ERC20: decreased allowance below zero\") */\n      tag_200\n      jumpi\n      mload(0x40)\n      0x08c379a000000000000000000000000000000000000000000000000000000000\n      dup2\n      mstore\n      0x04\n      add\n      tag_201\n      swap1\n      tag_202\n      jump\t// in\n    tag_201:\n      mload(0x40)\n      dup1\n      swap2\n      sub\n      swap1\n      revert\n    tag_200:\n        /* \"@openzeppelin/contracts/token/ERC20/ERC20.sol\":6920:6980  _approve(owner, spender, currentAllowance - subtractedValue) */\n      tag_203\n        /* \"@openzeppelin/contracts/token/ERC20/ERC20.sol\":6929:6934  owner */\n      dup3\n        /* \"@openzeppelin/contracts/token/ERC20/ERC20.sol\":6936:6943  spender */\n      dup7\n        /* \"@openzeppelin/contracts/token/ERC20/ERC20.sol\":6964:6979  subtractedValue */\n      dup7\n        /* \"@openzeppelin/contracts/token/ERC20/ERC20.sol\":6945:6961  currentAllowance */\n      dup5\n        /* \"@openzeppelin/contracts/token/ERC20/ERC20.sol\":6945:6979  currentAllowance - subtractedValue */\n      sub\n        /* \"@openzeppelin/contracts/token/ERC20/ERC20.sol\":6920:6928  _approve */\n      tag_137\n        /* \"@openzeppelin/contracts/token/ERC20/ERC20.sol\":6920:6980  _approve(owner, spender, currentAllowance - subtractedValue) */\n      jump\t// in\n    tag_203:\n        /* \"@openzeppelin/contracts/token/ERC20/ERC20.sol\":7008:7012  true */\n      0x01\n        /* \"@openzeppelin/contracts/token/ERC20/ERC20.sol\":7001:7012  return true */\n      swap3\n      pop\n      pop\n      pop\n        /* \"@openzeppelin/contracts/token/ERC20/ERC20.sol\":6592:7019  function decreaseAllowance(address spender, uint256 subtractedValue) public virtual returns (bool) {... */\n      swap3\n      swap2\n      pop\n      pop\n      jump\t// out\n        /* \"contracts/TEX.sol\":694:941  function transfer(address recipient, uint256 amount) public override returns (bool) {... */\n    tag_100:\n        /* \"contracts/TEX.sol\":772:776  bool */\n      0x00\n        /* \"contracts/TEX.sol\":818:819  0 */\n      dup1\n        /* \"contracts/TEX.sol\":797:820  recipient != address(0) */\n      0xffffffffffffffffffffffffffffffffffffffff\n      and\n        /* \"contracts/TEX.sol\":797:806  recipient */\n      dup4\n        /* \"contracts/TEX.sol\":797:820  recipient != address(0) */\n      0xffffffffffffffffffffffffffffffffffffffff\n      and\n      sub\n        /* \"contracts/TEX.sol\":789:858  require(recipient != address(0), \"TEX: transfer to the zero address\") */\n      tag_205\n      jumpi\n      mload(0x40)\n      0x08c379a000000000000000000000000000000000000000000000000000000000\n      dup2\n      mstore\n      0x04\n      add\n      tag_206\n      swap1\n      tag_142\n      jump\t// in\n    tag_206:\n      mload(0x40)\n      dup1\n      swap2\n      sub\n      swap1\n      revert\n    tag_205:\n        /* \"contracts/TEX.sol\":869:911  _transfer(_msgSender(), recipient, amount) */\n      tag_207\n        /* \"contracts/TEX.sol\":879:891  _msgSender() */\n      tag_208\n        /* \"contracts/TEX.sol\":879:889  _msgSender */\n      tag_136\n        /* \"contracts/TEX.sol\":879:891  _msgSender() */\n      jump\t// in\n    tag_208:\n        /* \"contracts/TEX.sol\":893:902  recipient */\n      dup5\n        /* \"contracts/TEX.sol\":904:910  amount */\n      dup5\n        /* \"contracts/TEX.sol\":869:878  _transfer */\n      tag_144\n        /* \"contracts/TEX.sol\":869:911  _transfer(_msgSender(), recipient, amount) */\n      jump\t// in\n    tag_207:\n        /* \"contracts/TEX.sol\":929:933  true */\n      0x01\n        /* \"contracts/TEX.sol\":922:933  return true */\n      swap1\n      pop\n        /* \"contracts/TEX.sol\":694:941  function transfer(address recipient, uint256 amount) public override returns (bool) {... */\n      swap3\n      swap2\n      pop\n      pop\n      jump\t// out\n        /* \"contracts/TEX.sol\":2630:2947  function getProposal(uint proposalId) public view returns (uint id, address creator, string memory description, uint yesVotes, uint noVotes) {... */\n    tag_104:\n        /* \"contracts/TEX.sol\":2689:2696  uint id */\n      0x00\n        /* \"contracts/TEX.sol\":2698:2713  address creator */\n      dup1\n        /* \"contracts/TEX.sol\":2715:2740  string memory description */\n      0x60\n        /* \"contracts/TEX.sol\":2742:2755  uint yesVotes */\n      0x00\n        /* \"contracts/TEX.sol\":2757:2769  uint noVotes */\n      dup1\n        /* \"contracts/TEX.sol\":2782:2807  Proposal storage proposal */\n      0x00\n        /* \"contracts/TEX.sol\":2810:2819  proposals */\n      0x07\n        /* \"contracts/TEX.sol\":2810:2831  proposals[proposalId] */\n      0x00\n        /* \"contracts/TEX.sol\":2820:2830  proposalId */\n      dup9\n        /* \"contracts/TEX.sol\":2810:2831  proposals[proposalId] */\n      dup2\n      mstore\n      0x20\n      add\n      swap1\n      dup2\n      mstore\n      0x20\n      add\n      0x00\n      keccak256\n        /* \"contracts/TEX.sol\":2782:2831  Proposal storage proposal = proposals[proposalId] */\n      swap1\n      pop\n        /* \"contracts/TEX.sol\":2850:2858  proposal */\n      dup1\n        /* \"contracts/TEX.sol\":2850:2861  proposal.id */\n      0x00\n      add\n      sload\n        /* \"contracts/TEX.sol\":2863:2871  proposal */\n      dup2\n        /* \"contracts/TEX.sol\":2863:2879  proposal.creator */\n      0x01\n      add\n      0x00\n      swap1\n      sload\n      swap1\n      0x0100\n      exp\n      swap1\n      div\n      0xffffffffffffffffffffffffffffffffffffffff\n      and\n        /* \"contracts/TEX.sol\":2881:2889  proposal */\n      dup3\n        /* \"contracts/TEX.sol\":2881:2901  proposal.description */\n      0x02\n      add\n        /* \"contracts/TEX.sol\":2903:2911  proposal */\n      dup4\n        /* \"contracts/TEX.sol\":2903:2920  proposal.yesVotes */\n      0x03\n      add\n      sload\n        /* \"contracts/TEX.sol\":2922:2930  proposal */\n      dup5\n        /* \"contracts/TEX.sol\":2922:2938  proposal.noVotes */\n      0x04\n      add\n      sload\n        /* \"contracts/TEX.sol\":2842:2939  return (proposal.id, proposal.creator, proposal.description, proposal.yesVotes, proposal.noVotes) */\n      dup3\n      dup1\n      sload\n      tag_210\n      swap1\n      tag_122\n      jump\t// in\n    tag_210:\n      dup1\n      0x1f\n      add\n      0x20\n      dup1\n      swap2\n      div\n      mul\n      0x20\n      add\n      mload(0x40)\n      swap1\n      dup2\n      add\n      0x40\n      mstore\n      dup1\n      swap3\n      swap2\n      swap1\n      dup2\n      dup2\n      mstore\n      0x20\n      add\n      dup3\n      dup1\n      sload\n      tag_211\n      swap1\n      tag_122\n      jump\t// in\n    tag_211:\n      dup1\n      iszero\n      tag_212\n      jumpi\n      dup1\n      0x1f\n      lt\n      tag_213\n      jumpi\n      0x0100\n      dup1\n      dup4\n      sload\n      div\n      mul\n      dup4\n      mstore\n      swap2\n      0x20\n      add\n      swap2\n      jump(tag_212)\n    tag_213:\n      dup3\n      add\n      swap2\n      swap1\n      0x00\n      mstore\n      keccak256(0x00, 0x20)\n      swap1\n    tag_214:\n      dup2\n      sload\n      dup2\n      mstore\n      swap1\n      0x01\n      add\n      swap1\n      0x20\n      add\n      dup1\n      dup4\n      gt\n      tag_214\n      jumpi\n      dup3\n      swap1\n      sub\n      0x1f\n      and\n      dup3\n      add\n      swap2\n    tag_212:\n      pop\n      pop\n      pop\n      pop\n      pop\n      swap3\n      pop\n      swap6\n      pop\n      swap6\n      pop\n      swap6\n      pop\n      swap6\n      pop\n      swap6\n      pop\n      pop\n        /* \"contracts/TEX.sol\":2630:2947  function getProposal(uint proposalId) public view returns (uint id, address creator, string memory description, uint yesVotes, uint noVotes) {... */\n      swap2\n      swap4\n      swap6\n      swap1\n      swap3\n      swap5\n      pop\n      jump\t// out\n        /* \"contracts/TEX.sol\":2106:2622  function vote(uint proposalId, bool yesVote) public {... */\n    tag_109:\n        /* \"contracts/TEX.sol\":2169:2194  Proposal storage proposal */\n      0x00\n        /* \"contracts/TEX.sol\":2197:2206  proposals */\n      0x07\n        /* \"contracts/TEX.sol\":2197:2218  proposals[proposalId] */\n      0x00\n        /* \"contracts/TEX.sol\":2207:2217  proposalId */\n      dup5\n        /* \"contracts/TEX.sol\":2197:2218  proposals[proposalId] */\n      dup2\n      mstore\n      0x20\n      add\n      swap1\n      dup2\n      mstore\n      0x20\n      add\n      0x00\n      keccak256\n        /* \"contracts/TEX.sol\":2169:2218  Proposal storage proposal = proposals[proposalId] */\n      swap1\n      pop\n        /* \"contracts/TEX.sol\":2238:2246  proposal */\n      dup1\n        /* \"contracts/TEX.sol\":2238:2252  proposal.voted */\n      0x05\n      add\n        /* \"contracts/TEX.sol\":2238:2264  proposal.voted[msg.sender] */\n      0x00\n        /* \"contracts/TEX.sol\":2253:2263  msg.sender */\n      caller\n        /* \"contracts/TEX.sol\":2238:2264  proposal.voted[msg.sender] */\n      0xffffffffffffffffffffffffffffffffffffffff\n      and\n      0xffffffffffffffffffffffffffffffffffffffff\n      and\n      dup2\n      mstore\n      0x20\n      add\n      swap1\n      dup2\n      mstore\n      0x20\n      add\n      0x00\n      keccak256\n      0x00\n      swap1\n      sload\n      swap1\n      0x0100\n      exp\n      swap1\n      div\n      0xff\n      and\n        /* \"contracts/TEX.sol\":2237:2264  !proposal.voted[msg.sender] */\n      iszero\n        /* \"contracts/TEX.sol\":2229:2314  require(!proposal.voted[msg.sender], \"TEX: voter has already voted on this proposal\") */\n      tag_216\n      jumpi\n      mload(0x40)\n      0x08c379a000000000000000000000000000000000000000000000000000000000\n      dup2\n      mstore\n      0x04\n      add\n      tag_217\n      swap1\n      tag_218\n      jump\t// in\n    tag_217:\n      mload(0x40)\n      dup1\n      swap2\n      sub\n      swap1\n      revert\n    tag_216:\n        /* \"contracts/TEX.sol\":2357:2358  0 */\n      0x00\n        /* \"contracts/TEX.sol\":2333:2354  balanceOf(msg.sender) */\n      tag_219\n        /* \"contracts/TEX.sol\":2343:2353  msg.sender */\n      caller\n        /* \"contracts/TEX.sol\":2333:2342  balanceOf */\n      tag_81\n        /* \"contracts/TEX.sol\":2333:2354  balanceOf(msg.sender) */\n      jump\t// in\n    tag_219:\n        /* \"contracts/TEX.sol\":2333:2358  balanceOf(msg.sender) > 0 */\n      gt\n        /* \"contracts/TEX.sol\":2325:2400  require(balanceOf(msg.sender) > 0, \"TEX: voter has no tokens to vote with\") */\n      tag_220\n      jumpi\n      mload(0x40)\n      0x08c379a000000000000000000000000000000000000000000000000000000000\n      dup2\n      mstore\n      0x04\n      add\n      tag_221\n      swap1\n      tag_222\n      jump\t// in\n    tag_221:\n      mload(0x40)\n      dup1\n      swap2\n      sub\n      swap1\n      revert\n    tag_220:\n        /* \"contracts/TEX.sol\":2417:2424  yesVote */\n      dup2\n        /* \"contracts/TEX.sol\":2413:2569  if (yesVote) {... */\n      iszero\n      tag_223\n      jumpi\n        /* \"contracts/TEX.sol\":2462:2483  balanceOf(msg.sender) */\n      tag_224\n        /* \"contracts/TEX.sol\":2472:2482  msg.sender */\n      caller\n        /* \"contracts/TEX.sol\":2462:2471  balanceOf */\n      tag_81\n        /* \"contracts/TEX.sol\":2462:2483  balanceOf(msg.sender) */\n      jump\t// in\n    tag_224:\n        /* \"contracts/TEX.sol\":2441:2449  proposal */\n      dup2\n        /* \"contracts/TEX.sol\":2441:2458  proposal.yesVotes */\n      0x03\n      add\n      0x00\n        /* \"contracts/TEX.sol\":2441:2483  proposal.yesVotes += balanceOf(msg.sender) */\n      dup3\n      dup3\n      sload\n      tag_225\n      swap2\n      swap1\n      tag_157\n      jump\t// in\n    tag_225:\n      swap3\n      pop\n      pop\n      dup2\n      swap1\n      sstore\n      pop\n        /* \"contracts/TEX.sol\":2413:2569  if (yesVote) {... */\n      jump(tag_226)\n    tag_223:\n        /* \"contracts/TEX.sol\":2536:2557  balanceOf(msg.sender) */\n      tag_227\n        /* \"contracts/TEX.sol\":2546:2556  msg.sender */\n      caller\n        /* \"contracts/TEX.sol\":2536:2545  balanceOf */\n      tag_81\n        /* \"contracts/TEX.sol\":2536:2557  balanceOf(msg.sender) */\n      jump\t// in\n    tag_227:\n        /* \"contracts/TEX.sol\":2516:2524  proposal */\n      dup2\n        /* \"contracts/TEX.sol\":2516:2532  proposal.noVotes */\n      0x04\n      add\n      0x00\n        /* \"contracts/TEX.sol\":2516:2557  proposal.noVotes += balanceOf(msg.sender) */\n      dup3\n      dup3\n      sload\n      tag_228\n      swap2\n      swap1\n      tag_157\n      jump\t// in\n    tag_228:\n      swap3\n      pop\n      pop\n      dup2\n      swap1\n      sstore\n      pop\n        /* \"contracts/TEX.sol\":2413:2569  if (yesVote) {... */\n    tag_226:\n        /* \"contracts/TEX.sol\":2610:2614  true */\n      0x01\n        /* \"contracts/TEX.sol\":2581:2589  proposal */\n      dup2\n        /* \"contracts/TEX.sol\":2581:2595  proposal.voted */\n      0x05\n      add\n        /* \"contracts/TEX.sol\":2581:2607  proposal.voted[msg.sender] */\n      0x00\n        /* \"contracts/TEX.sol\":2596:2606  msg.sender */\n      caller\n        /* \"contracts/TEX.sol\":2581:2607  proposal.voted[msg.sender] */\n      0xffffffffffffffffffffffffffffffffffffffff\n      and\n      0xffffffffffffffffffffffffffffffffffffffff\n      and\n      dup2\n      mstore\n      0x20\n      add\n      swap1\n      dup2\n      mstore\n      0x20\n      add\n      0x00\n      keccak256\n      0x00\n        /* \"contracts/TEX.sol\":2581:2614  proposal.voted[msg.sender] = true */\n      0x0100\n      exp\n      dup2\n      sload\n      dup2\n      0xff\n      mul\n      not\n      and\n      swap1\n      dup4\n      iszero\n      iszero\n      mul\n      or\n      swap1\n      sstore\n      pop\n        /* \"contracts/TEX.sol\":2158:2622  {... */\n      pop\n        /* \"contracts/TEX.sol\":2106:2622  function vote(uint proposalId, bool yesVote) public {... */\n      pop\n      pop\n      jump\t// out\n        /* \"contracts/TEX.sol\":471:500  uint public proposalCount = 0 */\n    tag_111:\n      sload(0x06)\n      dup2\n      jump\t// out\n        /* \"@openzeppelin/contracts/token/ERC20/ERC20.sol\":3974:4123  function allowance(address owner, address spender) public view virtual override returns (uint256) {... */\n    tag_116:\n        /* \"@openzeppelin/contracts/token/ERC20/ERC20.sol\":4063:4070  uint256 */\n      0x00\n        /* \"@openzeppelin/contracts/token/ERC20/ERC20.sol\":4089:4100  _allowances */\n      0x01\n        /* \"@openzeppelin/contracts/token/ERC20/ERC20.sol\":4089:4107  _allowances[owner] */\n      0x00\n        /* \"@openzeppelin/contracts/token/ERC20/ERC20.sol\":4101:4106  owner */\n      dup5\n        /* \"@openzeppelin/contracts/token/ERC20/ERC20.sol\":4089:4107  _allowances[owner] */\n      0xffffffffffffffffffffffffffffffffffffffff\n      and\n      0xffffffffffffffffffffffffffffffffffffffff\n      and\n      dup2\n      mstore\n      0x20\n      add\n      swap1\n      dup2\n      mstore\n      0x20\n      add\n      0x00\n      keccak256\n        /* \"@openzeppelin/contracts/token/ERC20/ERC20.sol\":4089:4116  _allowances[owner][spender] */\n      0x00\n        /* \"@openzeppelin/contracts/token/ERC20/ERC20.sol\":4108:4115  spender */\n      dup4\n        /* \"@openzeppelin/contracts/token/ERC20/ERC20.sol\":4089:4116  _allowances[owner][spender] */\n      0xffffffffffffffffffffffffffffffffffffffff\n      and\n      0xffffffffffffffffffffffffffffffffffffffff\n      and\n      dup2\n      mstore\n      0x20\n      add\n      swap1\n      dup2\n      mstore\n      0x20\n      add\n      0x00\n      keccak256\n      sload\n        /* \"@openzeppelin/contracts/token/ERC20/ERC20.sol\":4082:4116  return _allowances[owner][spender] */\n      swap1\n      pop\n        /* \"@openzeppelin/contracts/token/ERC20/ERC20.sol\":3974:4123  function allowance(address owner, address spender) public view virtual override returns (uint256) {... */\n      swap3\n      swap2\n      pop\n      pop\n      jump\t// out\n        /* \"@openzeppelin/contracts/access/Ownable.sol\":2081:2279  function transferOwnership(address newOwner) public virtual onlyOwner {... */\n    tag_120:\n        /* \"@openzeppelin/contracts/access/Ownable.sol\":1094:1107  _checkOwner() */\n      tag_231\n        /* \"@openzeppelin/contracts/access/Ownable.sol\":1094:1105  _checkOwner */\n      tag_160\n        /* \"@openzeppelin/contracts/access/Ownable.sol\":1094:1107  _checkOwner() */\n      jump\t// in\n    tag_231:\n        /* \"@openzeppelin/contracts/access/Ownable.sol\":2189:2190  0 */\n      0x00\n        /* \"@openzeppelin/contracts/access/Ownable.sol\":2169:2191  newOwner != address(0) */\n      0xffffffffffffffffffffffffffffffffffffffff\n      and\n        /* \"@openzeppelin/contracts/access/Ownable.sol\":2169:2177  newOwner */\n      dup2\n        /* \"@openzeppelin/contracts/access/Ownable.sol\":2169:2191  newOwner != address(0) */\n      0xffffffffffffffffffffffffffffffffffffffff\n      and\n      sub\n        /* \"@openzeppelin/contracts/access/Ownable.sol\":2161:2234  require(newOwner != address(0), \"Ownable: new owner is the zero address\") */\n      tag_233\n      jumpi\n      mload(0x40)\n      0x08c379a000000000000000000000000000000000000000000000000000000000\n      dup2\n      mstore\n      0x04\n      add\n      tag_234\n      swap1\n      tag_235\n      jump\t// in\n    tag_234:\n      mload(0x40)\n      dup1\n      swap2\n      sub\n      swap1\n      revert\n    tag_233:\n        /* \"@openzeppelin/contracts/access/Ownable.sol\":2244:2272  _transferOwnership(newOwner) */\n      tag_236\n        /* \"@openzeppelin/contracts/access/Ownable.sol\":2263:2271  newOwner */\n      dup2\n        /* \"@openzeppelin/contracts/access/Ownable.sol\":2244:2262  _transferOwnership */\n      tag_184\n        /* \"@openzeppelin/contracts/access/Ownable.sol\":2244:2272  _transferOwnership(newOwner) */\n      jump\t// in\n    tag_236:\n        /* \"@openzeppelin/contracts/access/Ownable.sol\":2081:2279  function transferOwnership(address newOwner) public virtual onlyOwner {... */\n      pop\n      jump\t// out\n        /* \"@openzeppelin/contracts/utils/Context.sol\":640:736  function _msgSender() internal view virtual returns (address) {... */\n    tag_136:\n        /* \"@openzeppelin/contracts/utils/Context.sol\":693:700  address */\n      0x00\n        /* \"@openzeppelin/contracts/utils/Context.sol\":719:729  msg.sender */\n      caller\n        /* \"@openzeppelin/contracts/utils/Context.sol\":712:729  return msg.sender */\n      swap1\n      pop\n        /* \"@openzeppelin/contracts/utils/Context.sol\":640:736  function _msgSender() internal view virtual returns (address) {... */\n      swap1\n      jump\t// out\n        /* \"@openzeppelin/contracts/token/ERC20/ERC20.sol\":10504:10874  function _approve(... */\n    tag_137:\n        /* \"@openzeppelin/contracts/token/ERC20/ERC20.sol\":10652:10653  0 */\n      0x00\n        /* \"@openzeppelin/contracts/token/ERC20/ERC20.sol\":10635:10654  owner != address(0) */\n      0xffffffffffffffffffffffffffffffffffffffff\n      and\n        /* \"@openzeppelin/contracts/token/ERC20/ERC20.sol\":10635:10640  owner */\n      dup4\n        /* \"@openzeppelin/contracts/token/ERC20/ERC20.sol\":10635:10654  owner != address(0) */\n      0xffffffffffffffffffffffffffffffffffffffff\n      and\n      sub\n        /* \"@openzeppelin/contracts/token/ERC20/ERC20.sol\":10627:10695  require(owner != address(0), \"ERC20: approve from the zero address\") */\n      tag_239\n      jumpi\n      mload(0x40)\n      0x08c379a000000000000000000000000000000000000000000000000000000000\n      dup2\n      mstore\n      0x04\n      add\n      tag_240\n      swap1\n      tag_241\n      jump\t// in\n    tag_240:\n      mload(0x40)\n      dup1\n      swap2\n      sub\n      swap1\n      revert\n    tag_239:\n        /* \"@openzeppelin/contracts/token/ERC20/ERC20.sol\":10732:10733  0 */\n      0x00\n        /* \"@openzeppelin/contracts/token/ERC20/ERC20.sol\":10713:10734  spender != address(0) */\n      0xffffffffffffffffffffffffffffffffffffffff\n      and\n        /* \"@openzeppelin/contracts/token/ERC20/ERC20.sol\":10713:10720  spender */\n      dup3\n        /* \"@openzeppelin/contracts/token/ERC20/ERC20.sol\":10713:10734  spender != address(0) */\n      0xffffffffffffffffffffffffffffffffffffffff\n      and\n      sub\n        /* \"@openzeppelin/contracts/token/ERC20/ERC20.sol\":10705:10773  require(spender != address(0), \"ERC20: approve to the zero address\") */\n      tag_242\n      jumpi\n      mload(0x40)\n      0x08c379a000000000000000000000000000000000000000000000000000000000\n      dup2\n      mstore\n      0x04\n      add\n      tag_243\n      swap1\n      tag_244\n      jump\t// in\n    tag_243:\n      mload(0x40)\n      dup1\n      swap2\n      sub\n      swap1\n      revert\n    tag_242:\n        /* \"@openzeppelin/contracts/token/ERC20/ERC20.sol\":10814:10820  amount */\n      dup1\n        /* \"@openzeppelin/contracts/token/ERC20/ERC20.sol\":10784:10795  _allowances */\n      0x01\n        /* \"@openzeppelin/contracts/token/ERC20/ERC20.sol\":10784:10802  _allowances[owner] */\n      0x00\n        /* \"@openzeppelin/contracts/token/ERC20/ERC20.sol\":10796:10801  owner */\n      dup6\n        /* \"@openzeppelin/contracts/token/ERC20/ERC20.sol\":10784:10802  _allowances[owner] */\n      0xffffffffffffffffffffffffffffffffffffffff\n      and\n      0xffffffffffffffffffffffffffffffffffffffff\n      and\n      dup2\n      mstore\n      0x20\n      add\n      swap1\n      dup2\n      mstore\n      0x20\n      add\n      0x00\n      keccak256\n        /* \"@openzeppelin/contracts/token/ERC20/ERC20.sol\":10784:10811  _allowances[owner][spender] */\n      0x00\n        /* \"@openzeppelin/contracts/token/ERC20/ERC20.sol\":10803:10810  spender */\n      dup5\n        /* \"@openzeppelin/contracts/token/ERC20/ERC20.sol\":10784:10811  _allowances[owner][spender] */\n      0xffffffffffffffffffffffffffffffffffffffff\n      and\n      0xffffffffffffffffffffffffffffffffffffffff\n      and\n      dup2\n      mstore\n      0x20\n      add\n      swap1\n      dup2\n      mstore\n      0x20\n      add\n      0x00\n      keccak256\n        /* \"@openzeppelin/contracts/token/ERC20/ERC20.sol\":10784:10820  _allowances[owner][spender] = amount */\n      dup2\n      swap1\n      sstore\n      pop\n        /* \"@openzeppelin/contracts/token/ERC20/ERC20.sol\":10851:10858  spender */\n      dup2\n        /* \"@openzeppelin/contracts/token/ERC20/ERC20.sol\":10835:10867  Approval(owner, spender, amount) */\n      0xffffffffffffffffffffffffffffffffffffffff\n      and\n        /* \"@openzeppelin/contracts/token/ERC20/ERC20.sol\":10844:10849  owner */\n      dup4\n        /* \"@openzeppelin/contracts/token/ERC20/ERC20.sol\":10835:10867  Approval(owner, spender, amount) */\n      0xffffffffffffffffffffffffffffffffffffffff\n      and\n      0x8c5be1e5ebec7d5bd14f71427d1e84f3dd0314c0f7b2291e5b200ac8c7c3b925\n        /* \"@openzeppelin/contracts/token/ERC20/ERC20.sol\":10860:10866  amount */\n      dup4\n        /* \"@openzeppelin/contracts/token/ERC20/ERC20.sol\":10835:10867  Approval(owner, spender, amount) */\n      mload(0x40)\n      tag_245\n      swap2\n      swap1\n      tag_49\n      jump\t// in\n    tag_245:\n      mload(0x40)\n      dup1\n      swap2\n      sub\n      swap1\n      log3\n        /* \"@openzeppelin/contracts/token/ERC20/ERC20.sol\":10504:10874  function _approve(... */\n      pop\n      pop\n      pop\n      jump\t// out\n        /* \"@openzeppelin/contracts/token/ERC20/ERC20.sol\":7473:8291  function _transfer(... */\n    tag_144:\n        /* \"@openzeppelin/contracts/token/ERC20/ERC20.sol\":7615:7616  0 */\n      0x00\n        /* \"@openzeppelin/contracts/token/ERC20/ERC20.sol\":7599:7617  from != address(0) */\n      0xffffffffffffffffffffffffffffffffffffffff\n      and\n        /* \"@openzeppelin/contracts/token/ERC20/ERC20.sol\":7599:7603  from */\n      dup4\n        /* \"@openzeppelin/contracts/token/ERC20/ERC20.sol\":7599:7617  from != address(0) */\n      0xffffffffffffffffffffffffffffffffffffffff\n      and\n      sub\n        /* \"@openzeppelin/contracts/token/ERC20/ERC20.sol\":7591:7659  require(from != address(0), \"ERC20: transfer from the zero address\") */\n      tag_247\n      jumpi\n      mload(0x40)\n      0x08c379a000000000000000000000000000000000000000000000000000000000\n      dup2\n      mstore\n      0x04\n      add\n      tag_248\n      swap1\n      tag_249\n      jump\t// in\n    tag_248:\n      mload(0x40)\n      dup1\n      swap2\n      sub\n      swap1\n      revert\n    tag_247:\n        /* \"@openzeppelin/contracts/token/ERC20/ERC20.sol\":7691:7692  0 */\n      0x00\n        /* \"@openzeppelin/contracts/token/ERC20/ERC20.sol\":7677:7693  to != address(0) */\n      0xffffffffffffffffffffffffffffffffffffffff\n      and\n        /* \"@openzeppelin/contracts/token/ERC20/ERC20.sol\":7677:7679  to */\n      dup3\n        /* \"@openzeppelin/contracts/token/ERC20/ERC20.sol\":7677:7693  to != address(0) */\n      0xffffffffffffffffffffffffffffffffffffffff\n      and\n      sub\n        /* \"@openzeppelin/contracts/token/ERC20/ERC20.sol\":7669:7733  require(to != address(0), \"ERC20: transfer to the zero address\") */\n      tag_250\n      jumpi\n      mload(0x40)\n      0x08c379a000000000000000000000000000000000000000000000000000000000\n      dup2\n      mstore\n      0x04\n      add\n      tag_251\n      swap1\n      tag_252\n      jump\t// in\n    tag_251:\n      mload(0x40)\n      dup1\n      swap2\n      sub\n      swap1\n      revert\n    tag_250:\n        /* \"@openzeppelin/contracts/token/ERC20/ERC20.sol\":7744:7782  _beforeTokenTransfer(from, to, amount) */\n      tag_253\n        /* \"@openzeppelin/contracts/token/ERC20/ERC20.sol\":7765:7769  from */\n      dup4\n        /* \"@openzeppelin/contracts/token/ERC20/ERC20.sol\":7771:7773  to */\n      dup4\n        /* \"@openzeppelin/contracts/token/ERC20/ERC20.sol\":7775:7781  amount */\n      dup4\n        /* \"@openzeppelin/contracts/token/ERC20/ERC20.sol\":7744:7764  _beforeTokenTransfer */\n      tag_254\n        /* \"@openzeppelin/contracts/token/ERC20/ERC20.sol\":7744:7782  _beforeTokenTransfer(from, to, amount) */\n      jump\t// in\n    tag_253:\n        /* \"@openzeppelin/contracts/token/ERC20/ERC20.sol\":7793:7812  uint256 fromBalance */\n      0x00\n        /* \"@openzeppelin/contracts/token/ERC20/ERC20.sol\":7815:7824  _balances */\n      dup1\n        /* \"@openzeppelin/contracts/token/ERC20/ERC20.sol\":7815:7830  _balances[from] */\n      0x00\n        /* \"@openzeppelin/contracts/token/ERC20/ERC20.sol\":7825:7829  from */\n      dup6\n        /* \"@openzeppelin/contracts/token/ERC20/ERC20.sol\":7815:7830  _balances[from] */\n      0xffffffffffffffffffffffffffffffffffffffff\n      and\n      0xffffffffffffffffffffffffffffffffffffffff\n      and\n      dup2\n      mstore\n      0x20\n      add\n      swap1\n      dup2\n      mstore\n      0x20\n      add\n      0x00\n      keccak256\n      sload\n        /* \"@openzeppelin/contracts/token/ERC20/ERC20.sol\":7793:7830  uint256 fromBalance = _balances[from] */\n      swap1\n      pop\n        /* \"@openzeppelin/contracts/token/ERC20/ERC20.sol\":7863:7869  amount */\n      dup2\n        /* \"@openzeppelin/contracts/token/ERC20/ERC20.sol\":7848:7859  fromBalance */\n      dup2\n        /* \"@openzeppelin/contracts/token/ERC20/ERC20.sol\":7848:7869  fromBalance >= amount */\n      lt\n      iszero\n        /* \"@openzeppelin/contracts/token/ERC20/ERC20.sol\":7840:7912  require(fromBalance >= amount, \"ERC20: transfer amount exceeds balance\") */\n      tag_255\n      jumpi\n      mload(0x40)\n      0x08c379a000000000000000000000000000000000000000000000000000000000\n      dup2\n      mstore\n      0x04\n      add\n      tag_256\n      swap1\n      tag_257\n      jump\t// in\n    tag_256:\n      mload(0x40)\n      dup1\n      swap2\n      sub\n      swap1\n      revert\n    tag_255:\n        /* \"@openzeppelin/contracts/token/ERC20/ERC20.sol\":7978:7984  amount */\n      dup2\n        /* \"@openzeppelin/contracts/token/ERC20/ERC20.sol\":7964:7975  fromBalance */\n      dup2\n        /* \"@openzeppelin/contracts/token/ERC20/ERC20.sol\":7964:7984  fromBalance - amount */\n      sub\n        /* \"@openzeppelin/contracts/token/ERC20/ERC20.sol\":7946:7955  _balances */\n      0x00\n        /* \"@openzeppelin/contracts/token/ERC20/ERC20.sol\":7946:7961  _balances[from] */\n      dup1\n        /* \"@openzeppelin/contracts/token/ERC20/ERC20.sol\":7956:7960  from */\n      dup7\n        /* \"@openzeppelin/contracts/token/ERC20/ERC20.sol\":7946:7961  _balances[from] */\n      0xffffffffffffffffffffffffffffffffffffffff\n      and\n      0xffffffffffffffffffffffffffffffffffffffff\n      and\n      dup2\n      mstore\n      0x20\n      add\n      swap1\n      dup2\n      mstore\n      0x20\n      add\n      0x00\n      keccak256\n        /* \"@openzeppelin/contracts/token/ERC20/ERC20.sol\":7946:7984  _balances[from] = fromBalance - amount */\n      dup2\n      swap1\n      sstore\n      pop\n        /* \"@openzeppelin/contracts/token/ERC20/ERC20.sol\":8178:8184  amount */\n      dup2\n        /* \"@openzeppelin/contracts/token/ERC20/ERC20.sol\":8161:8170  _balances */\n      0x00\n        /* \"@openzeppelin/contracts/token/ERC20/ERC20.sol\":8161:8174  _balances[to] */\n      dup1\n        /* \"@openzeppelin/contracts/token/ERC20/ERC20.sol\":8171:8173  to */\n      dup6\n        /* \"@openzeppelin/contracts/token/ERC20/ERC20.sol\":8161:8174  _balances[to] */\n      0xffffffffffffffffffffffffffffffffffffffff\n      and\n      0xffffffffffffffffffffffffffffffffffffffff\n      and\n      dup2\n      mstore\n      0x20\n      add\n      swap1\n      dup2\n      mstore\n      0x20\n      add\n      0x00\n      keccak256\n      0x00\n        /* \"@openzeppelin/contracts/token/ERC20/ERC20.sol\":8161:8184  _balances[to] += amount */\n      dup3\n      dup3\n      sload\n      add\n      swap3\n      pop\n      pop\n      dup2\n      swap1\n      sstore\n      pop\n        /* \"@openzeppelin/contracts/token/ERC20/ERC20.sol\":8225:8227  to */\n      dup3\n        /* \"@openzeppelin/contracts/token/ERC20/ERC20.sol\":8210:8236  Transfer(from, to, amount) */\n      0xffffffffffffffffffffffffffffffffffffffff\n      and\n        /* \"@openzeppelin/contracts/token/ERC20/ERC20.sol\":8219:8223  from */\n      dup5\n        /* \"@openzeppelin/contracts/token/ERC20/ERC20.sol\":8210:8236  Transfer(from, to, amount) */\n      0xffffffffffffffffffffffffffffffffffffffff\n      and\n      0xddf252ad1be2c89b69c2b068fc378daa952ba7f163c4a11628f55a4df523b3ef\n        /* \"@openzeppelin/contracts/token/ERC20/ERC20.sol\":8229:8235  amount */\n      dup5\n        /* \"@openzeppelin/contracts/token/ERC20/ERC20.sol\":8210:8236  Transfer(from, to, amount) */\n      mload(0x40)\n      tag_258\n      swap2\n      swap1\n      tag_49\n      jump\t// in\n    tag_258:\n      mload(0x40)\n      dup1\n      swap2\n      sub\n      swap1\n      log3\n        /* \"@openzeppelin/contracts/token/ERC20/ERC20.sol\":8247:8284  _afterTokenTransfer(from, to, amount) */\n      tag_259\n        /* \"@openzeppelin/contracts/token/ERC20/ERC20.sol\":8267:8271  from */\n      dup5\n        /* \"@openzeppelin/contracts/token/ERC20/ERC20.sol\":8273:8275  to */\n      dup5\n        /* \"@openzeppelin/contracts/token/ERC20/ERC20.sol\":8277:8283  amount */\n      dup5\n        /* \"@openzeppelin/contracts/token/ERC20/ERC20.sol\":8247:8266  _afterTokenTransfer */\n      tag_260\n        /* \"@openzeppelin/contracts/token/ERC20/ERC20.sol\":8247:8284  _afterTokenTransfer(from, to, amount) */\n      jump\t// in\n    tag_259:\n        /* \"@openzeppelin/contracts/token/ERC20/ERC20.sol\":7581:8291  {... */\n      pop\n        /* \"@openzeppelin/contracts/token/ERC20/ERC20.sol\":7473:8291  function _transfer(... */\n      pop\n      pop\n      pop\n      jump\t// out\n        /* \"@openzeppelin/contracts/access/Ownable.sol\":1359:1489  function _checkOwner() internal view virtual {... */\n    tag_160:\n        /* \"@openzeppelin/contracts/access/Ownable.sol\":1433:1445  _msgSender() */\n      tag_262\n        /* \"@openzeppelin/contracts/access/Ownable.sol\":1433:1443  _msgSender */\n      tag_136\n        /* \"@openzeppelin/contracts/access/Ownable.sol\":1433:1445  _msgSender() */\n      jump\t// in\n    tag_262:\n        /* \"@openzeppelin/contracts/access/Ownable.sol\":1422:1445  owner() == _msgSender() */\n      0xffffffffffffffffffffffffffffffffffffffff\n      and\n        /* \"@openzeppelin/contracts/access/Ownable.sol\":1422:1429  owner() */\n      tag_263\n        /* \"@openzeppelin/contracts/access/Ownable.sol\":1422:1427  owner */\n      tag_88\n        /* \"@openzeppelin/contracts/access/Ownable.sol\":1422:1429  owner() */\n      jump\t// in\n    tag_263:\n        /* \"@openzeppelin/contracts/access/Ownable.sol\":1422:1445  owner() == _msgSender() */\n      0xffffffffffffffffffffffffffffffffffffffff\n      and\n      eq\n        /* \"@openzeppelin/contracts/access/Ownable.sol\":1414:1482  require(owner() == _msgSender(), \"Ownable: caller is not the owner\") */\n      tag_264\n      jumpi\n      mload(0x40)\n      0x08c379a000000000000000000000000000000000000000000000000000000000\n      dup2\n      mstore\n      0x04\n      add\n      tag_265\n      swap1\n      tag_266\n      jump\t// in\n    tag_265:\n      mload(0x40)\n      dup1\n      swap2\n      sub\n      swap1\n      revert\n    tag_264:\n        /* \"@openzeppelin/contracts/access/Ownable.sol\":1359:1489  function _checkOwner() internal view virtual {... */\n      jump\t// out\n        /* \"@openzeppelin/contracts/security/Pausable.sol\":2433:2550  function _unpause() internal virtual whenPaused {... */\n    tag_163:\n        /* \"@openzeppelin/contracts/security/Pausable.sol\":1486:1502  _requirePaused() */\n      tag_268\n        /* \"@openzeppelin/contracts/security/Pausable.sol\":1486:1500  _requirePaused */\n      tag_269\n        /* \"@openzeppelin/contracts/security/Pausable.sol\":1486:1502  _requirePaused() */\n      jump\t// in\n    tag_268:\n        /* \"@openzeppelin/contracts/security/Pausable.sol\":2501:2506  false */\n      0x00\n        /* \"@openzeppelin/contracts/security/Pausable.sol\":2491:2498  _paused */\n      0x05\n      0x14\n        /* \"@openzeppelin/contracts/security/Pausable.sol\":2491:2506  _paused = false */\n      0x0100\n      exp\n      dup2\n      sload\n      dup2\n      0xff\n      mul\n      not\n      and\n      swap1\n      dup4\n      iszero\n      iszero\n      mul\n      or\n      swap1\n      sstore\n      pop\n        /* \"@openzeppelin/contracts/security/Pausable.sol\":2521:2543  Unpaused(_msgSender()) */\n      0x5db9ee0a495bf2e6ff9c91a7834c1ba4fdd244a5e8aa4e537bd38aeae4b073aa\n        /* \"@openzeppelin/contracts/security/Pausable.sol\":2530:2542  _msgSender() */\n      tag_271\n        /* \"@openzeppelin/contracts/security/Pausable.sol\":2530:2540  _msgSender */\n      tag_136\n        /* \"@openzeppelin/contracts/security/Pausable.sol\":2530:2542  _msgSender() */\n      jump\t// in\n    tag_271:\n        /* \"@openzeppelin/contracts/security/Pausable.sol\":2521:2543  Unpaused(_msgSender()) */\n      mload(0x40)\n      tag_272\n      swap2\n      swap1\n      tag_90\n      jump\t// in\n    tag_272:\n      mload(0x40)\n      dup1\n      swap2\n      sub\n      swap1\n      log1\n        /* \"@openzeppelin/contracts/security/Pausable.sol\":2433:2550  function _unpause() internal virtual whenPaused {... */\n      jump\t// out\n        /* \"@openzeppelin/contracts/token/ERC20/ERC20.sol\":8567:9102  function _mint(address account, uint256 amount) internal virtual {... */\n    tag_168:\n        /* \"@openzeppelin/contracts/token/ERC20/ERC20.sol\":8669:8670  0 */\n      0x00\n        /* \"@openzeppelin/contracts/token/ERC20/ERC20.sol\":8650:8671  account != address(0) */\n      0xffffffffffffffffffffffffffffffffffffffff\n      and\n        /* \"@openzeppelin/contracts/token/ERC20/ERC20.sol\":8650:8657  account */\n      dup3\n        /* \"@openzeppelin/contracts/token/ERC20/ERC20.sol\":8650:8671  account != address(0) */\n      0xffffffffffffffffffffffffffffffffffffffff\n      and\n      sub\n        /* \"@openzeppelin/contracts/token/ERC20/ERC20.sol\":8642:8707  require(account != address(0), \"ERC20: mint to the zero address\") */\n      tag_274\n      jumpi\n      mload(0x40)\n      0x08c379a000000000000000000000000000000000000000000000000000000000\n      dup2\n      mstore\n      0x04\n      add\n      tag_275\n      swap1\n      tag_276\n      jump\t// in\n    tag_275:\n      mload(0x40)\n      dup1\n      swap2\n      sub\n      swap1\n      revert\n    tag_274:\n        /* \"@openzeppelin/contracts/token/ERC20/ERC20.sol\":8718:8767  _beforeTokenTransfer(address(0), account, amount) */\n      tag_277\n        /* \"@openzeppelin/contracts/token/ERC20/ERC20.sol\":8747:8748  0 */\n      0x00\n        /* \"@openzeppelin/contracts/token/ERC20/ERC20.sol\":8751:8758  account */\n      dup4\n        /* \"@openzeppelin/contracts/token/ERC20/ERC20.sol\":8760:8766  amount */\n      dup4\n        /* \"@openzeppelin/contracts/token/ERC20/ERC20.sol\":8718:8738  _beforeTokenTransfer */\n      tag_254\n        /* \"@openzeppelin/contracts/token/ERC20/ERC20.sol\":8718:8767  _beforeTokenTransfer(address(0), account, amount) */\n      jump\t// in\n    tag_277:\n        /* \"@openzeppelin/contracts/token/ERC20/ERC20.sol\":8794:8800  amount */\n      dup1\n        /* \"@openzeppelin/contracts/token/ERC20/ERC20.sol\":8778:8790  _totalSupply */\n      0x02\n      0x00\n        /* \"@openzeppelin/contracts/token/ERC20/ERC20.sol\":8778:8800  _totalSupply += amount */\n      dup3\n      dup3\n      sload\n      tag_278\n      swap2\n      swap1\n      tag_157\n      jump\t// in\n    tag_278:\n      swap3\n      pop\n      pop\n      dup2\n      swap1\n      sstore\n      pop\n        /* \"@openzeppelin/contracts/token/ERC20/ERC20.sol\":8968:8974  amount */\n      dup1\n        /* \"@openzeppelin/contracts/token/ERC20/ERC20.sol\":8946:8955  _balances */\n      0x00\n        /* \"@openzeppelin/contracts/token/ERC20/ERC20.sol\":8946:8964  _balances[account] */\n      dup1\n        /* \"@openzeppelin/contracts/token/ERC20/ERC20.sol\":8956:8963  account */\n      dup5\n        /* \"@openzeppelin/contracts/token/ERC20/ERC20.sol\":8946:8964  _balances[account] */\n      0xffffffffffffffffffffffffffffffffffffffff\n      and\n      0xffffffffffffffffffffffffffffffffffffffff\n      and\n      dup2\n      mstore\n      0x20\n      add\n      swap1\n      dup2\n      mstore\n      0x20\n      add\n      0x00\n      keccak256\n      0x00\n        /* \"@openzeppelin/contracts/token/ERC20/ERC20.sol\":8946:8974  _balances[account] += amount */\n      dup3\n      dup3\n      sload\n      add\n      swap3\n      pop\n      pop\n      dup2\n      swap1\n      sstore\n      pop\n        /* \"@openzeppelin/contracts/token/ERC20/ERC20.sol\":9020:9027  account */\n      dup2\n        /* \"@openzeppelin/contracts/token/ERC20/ERC20.sol\":8999:9036  Transfer(address(0), account, amount) */\n      0xffffffffffffffffffffffffffffffffffffffff\n      and\n        /* \"@openzeppelin/contracts/token/ERC20/ERC20.sol\":9016:9017  0 */\n      0x00\n        /* \"@openzeppelin/contracts/token/ERC20/ERC20.sol\":8999:9036  Transfer(address(0), account, amount) */\n      0xffffffffffffffffffffffffffffffffffffffff\n      and\n      0xddf252ad1be2c89b69c2b068fc378daa952ba7f163c4a11628f55a4df523b3ef\n        /* \"@openzeppelin/contracts/token/ERC20/ERC20.sol\":9029:9035  amount */\n      dup4\n        /* \"@openzeppelin/contracts/token/ERC20/ERC20.sol\":8999:9036  Transfer(address(0), account, amount) */\n      mload(0x40)\n      tag_279\n      swap2\n      swap1\n      tag_49\n      jump\t// in\n    tag_279:\n      mload(0x40)\n      dup1\n      swap2\n      sub\n      swap1\n      log3\n        /* \"@openzeppelin/contracts/token/ERC20/ERC20.sol\":9047:9095  _afterTokenTransfer(address(0), account, amount) */\n      tag_280\n        /* \"@openzeppelin/contracts/token/ERC20/ERC20.sol\":9075:9076  0 */\n      0x00\n        /* \"@openzeppelin/contracts/token/ERC20/ERC20.sol\":9079:9086  account */\n      dup4\n        /* \"@openzeppelin/contracts/token/ERC20/ERC20.sol\":9088:9094  amount */\n      dup4\n        /* \"@openzeppelin/contracts/token/ERC20/ERC20.sol\":9047:9066  _afterTokenTransfer */\n      tag_260\n        /* \"@openzeppelin/contracts/token/ERC20/ERC20.sol\":9047:9095  _afterTokenTransfer(address(0), account, amount) */\n      jump\t// in\n    tag_280:\n        /* \"@openzeppelin/contracts/token/ERC20/ERC20.sol\":8567:9102  function _mint(address account, uint256 amount) internal virtual {... */\n      pop\n      pop\n      jump\t// out\n        /* \"@openzeppelin/contracts/token/ERC20/ERC20.sol\":9422:10081  function _burn(address account, uint256 amount) internal virtual {... */\n    tag_172:\n        /* \"@openzeppelin/contracts/token/ERC20/ERC20.sol\":9524:9525  0 */\n      0x00\n        /* \"@openzeppelin/contracts/token/ERC20/ERC20.sol\":9505:9526  account != address(0) */\n      0xffffffffffffffffffffffffffffffffffffffff\n      and\n        /* \"@openzeppelin/contracts/token/ERC20/ERC20.sol\":9505:9512  account */\n      dup3\n        /* \"@openzeppelin/contracts/token/ERC20/ERC20.sol\":9505:9526  account != address(0) */\n      0xffffffffffffffffffffffffffffffffffffffff\n      and\n      sub\n        /* \"@openzeppelin/contracts/token/ERC20/ERC20.sol\":9497:9564  require(account != address(0), \"ERC20: burn from the zero address\") */\n      tag_282\n      jumpi\n      mload(0x40)\n      0x08c379a000000000000000000000000000000000000000000000000000000000\n      dup2\n      mstore\n      0x04\n      add\n      tag_283\n      swap1\n      tag_284\n      jump\t// in\n    tag_283:\n      mload(0x40)\n      dup1\n      swap2\n      sub\n      swap1\n      revert\n    tag_282:\n        /* \"@openzeppelin/contracts/token/ERC20/ERC20.sol\":9575:9624  _beforeTokenTransfer(account, address(0), amount) */\n      tag_285\n        /* \"@openzeppelin/contracts/token/ERC20/ERC20.sol\":9596:9603  account */\n      dup3\n        /* \"@openzeppelin/contracts/token/ERC20/ERC20.sol\":9613:9614  0 */\n      0x00\n        /* \"@openzeppelin/contracts/token/ERC20/ERC20.sol\":9617:9623  amount */\n      dup4\n        /* \"@openzeppelin/contracts/token/ERC20/ERC20.sol\":9575:9595  _beforeTokenTransfer */\n      tag_254\n        /* \"@openzeppelin/contracts/token/ERC20/ERC20.sol\":9575:9624  _beforeTokenTransfer(account, address(0), amount) */\n      jump\t// in\n    tag_285:\n        /* \"@openzeppelin/contracts/token/ERC20/ERC20.sol\":9635:9657  uint256 accountBalance */\n      0x00\n        /* \"@openzeppelin/contracts/token/ERC20/ERC20.sol\":9660:9669  _balances */\n      dup1\n        /* \"@openzeppelin/contracts/token/ERC20/ERC20.sol\":9660:9678  _balances[account] */\n      0x00\n        /* \"@openzeppelin/contracts/token/ERC20/ERC20.sol\":9670:9677  account */\n      dup5\n        /* \"@openzeppelin/contracts/token/ERC20/ERC20.sol\":9660:9678  _balances[account] */\n      0xffffffffffffffffffffffffffffffffffffffff\n      and\n      0xffffffffffffffffffffffffffffffffffffffff\n      and\n      dup2\n      mstore\n      0x20\n      add\n      swap1\n      dup2\n      mstore\n      0x20\n      add\n      0x00\n      keccak256\n      sload\n        /* \"@openzeppelin/contracts/token/ERC20/ERC20.sol\":9635:9678  uint256 accountBalance = _balances[account] */\n      swap1\n      pop\n        /* \"@openzeppelin/contracts/token/ERC20/ERC20.sol\":9714:9720  amount */\n      dup2\n        /* \"@openzeppelin/contracts/token/ERC20/ERC20.sol\":9696:9710  accountBalance */\n      dup2\n        /* \"@openzeppelin/contracts/token/ERC20/ERC20.sol\":9696:9720  accountBalance >= amount */\n      lt\n      iszero\n        /* \"@openzeppelin/contracts/token/ERC20/ERC20.sol\":9688:9759  require(accountBalance >= amount, \"ERC20: burn amount exceeds balance\") */\n      tag_286\n      jumpi\n      mload(0x40)\n      0x08c379a000000000000000000000000000000000000000000000000000000000\n      dup2\n      mstore\n      0x04\n      add\n      tag_287\n      swap1\n      tag_288\n      jump\t// in\n    tag_287:\n      mload(0x40)\n      dup1\n      swap2\n      sub\n      swap1\n      revert\n    tag_286:\n        /* \"@openzeppelin/contracts/token/ERC20/ERC20.sol\":9831:9837  amount */\n      dup2\n        /* \"@openzeppelin/contracts/token/ERC20/ERC20.sol\":9814:9828  accountBalance */\n      dup2\n        /* \"@openzeppelin/contracts/token/ERC20/ERC20.sol\":9814:9837  accountBalance - amount */\n      sub\n        /* \"@openzeppelin/contracts/token/ERC20/ERC20.sol\":9793:9802  _balances */\n      0x00\n        /* \"@openzeppelin/contracts/token/ERC20/ERC20.sol\":9793:9811  _balances[account] */\n      dup1\n        /* \"@openzeppelin/contracts/token/ERC20/ERC20.sol\":9803:9810  account */\n      dup6\n        /* \"@openzeppelin/contracts/token/ERC20/ERC20.sol\":9793:9811  _balances[account] */\n      0xffffffffffffffffffffffffffffffffffffffff\n      and\n      0xffffffffffffffffffffffffffffffffffffffff\n      and\n      dup2\n      mstore\n      0x20\n      add\n      swap1\n      dup2\n      mstore\n      0x20\n      add\n      0x00\n      keccak256\n        /* \"@openzeppelin/contracts/token/ERC20/ERC20.sol\":9793:9837  _balances[account] = accountBalance - amount */\n      dup2\n      swap1\n      sstore\n      pop\n        /* \"@openzeppelin/contracts/token/ERC20/ERC20.sol\":9946:9952  amount */\n      dup2\n        /* \"@openzeppelin/contracts/token/ERC20/ERC20.sol\":9930:9942  _totalSupply */\n      0x02\n      0x00\n        /* \"@openzeppelin/contracts/token/ERC20/ERC20.sol\":9930:9952  _totalSupply -= amount */\n      dup3\n      dup3\n      sload\n      sub\n      swap3\n      pop\n      pop\n      dup2\n      swap1\n      sstore\n      pop\n        /* \"@openzeppelin/contracts/token/ERC20/ERC20.sol\":10004:10005  0 */\n      0x00\n        /* \"@openzeppelin/contracts/token/ERC20/ERC20.sol\":9978:10015  Transfer(account, address(0), amount) */\n      0xffffffffffffffffffffffffffffffffffffffff\n      and\n        /* \"@openzeppelin/contracts/token/ERC20/ERC20.sol\":9987:9994  account */\n      dup4\n        /* \"@openzeppelin/contracts/token/ERC20/ERC20.sol\":9978:10015  Transfer(account, address(0), amount) */\n      0xffffffffffffffffffffffffffffffffffffffff\n      and\n      0xddf252ad1be2c89b69c2b068fc378daa952ba7f163c4a11628f55a4df523b3ef\n        /* \"@openzeppelin/contracts/token/ERC20/ERC20.sol\":10008:10014  amount */\n      dup5\n        /* \"@openzeppelin/contracts/token/ERC20/ERC20.sol\":9978:10015  Transfer(account, address(0), amount) */\n      mload(0x40)\n      tag_289\n      swap2\n      swap1\n      tag_49\n      jump\t// in\n    tag_289:\n      mload(0x40)\n      dup1\n      swap2\n      sub\n      swap1\n      log3\n        /* \"@openzeppelin/contracts/token/ERC20/ERC20.sol\":10026:10074  _afterTokenTransfer(account, address(0), amount) */\n      tag_290\n        /* \"@openzeppelin/contracts/token/ERC20/ERC20.sol\":10046:10053  account */\n      dup4\n        /* \"@openzeppelin/contracts/token/ERC20/ERC20.sol\":10063:10064  0 */\n      0x00\n        /* \"@openzeppelin/contracts/token/ERC20/ERC20.sol\":10067:10073  amount */\n      dup5\n        /* \"@openzeppelin/contracts/token/ERC20/ERC20.sol\":10026:10045  _afterTokenTransfer */\n      tag_260\n        /* \"@openzeppelin/contracts/token/ERC20/ERC20.sol\":10026:10074  _afterTokenTransfer(account, address(0), amount) */\n      jump\t// in\n    tag_290:\n        /* \"@openzeppelin/contracts/token/ERC20/ERC20.sol\":9487:10081  {... */\n      pop\n        /* \"@openzeppelin/contracts/token/ERC20/ERC20.sol\":9422:10081  function _burn(address account, uint256 amount) internal virtual {... */\n      pop\n      pop\n      jump\t// out\n        /* \"@openzeppelin/contracts/access/Ownable.sol\":2433:2620  function _transferOwnership(address newOwner) internal virtual {... */\n    tag_184:\n        /* \"@openzeppelin/contracts/access/Ownable.sol\":2506:2522  address oldOwner */\n      0x00\n        /* \"@openzeppelin/contracts/access/Ownable.sol\":2525:2531  _owner */\n      0x05\n      0x00\n      swap1\n      sload\n      swap1\n      0x0100\n      exp\n      swap1\n      div\n      0xffffffffffffffffffffffffffffffffffffffff\n      and\n        /* \"@openzeppelin/contracts/access/Ownable.sol\":2506:2531  address oldOwner = _owner */\n      swap1\n      pop\n        /* \"@openzeppelin/contracts/access/Ownable.sol\":2550:2558  newOwner */\n      dup2\n        /* \"@openzeppelin/contracts/access/Ownable.sol\":2541:2547  _owner */\n      0x05\n      0x00\n        /* \"@openzeppelin/contracts/access/Ownable.sol\":2541:2558  _owner = newOwner */\n      0x0100\n      exp\n      dup2\n      sload\n      dup2\n      0xffffffffffffffffffffffffffffffffffffffff\n      mul\n      not\n      and\n      swap1\n      dup4\n      0xffffffffffffffffffffffffffffffffffffffff\n      and\n      mul\n      or\n      swap1\n      sstore\n      pop\n        /* \"@openzeppelin/contracts/access/Ownable.sol\":2604:2612  newOwner */\n      dup2\n        /* \"@openzeppelin/contracts/access/Ownable.sol\":2573:2613  OwnershipTransferred(oldOwner, newOwner) */\n      0xffffffffffffffffffffffffffffffffffffffff\n      and\n        /* \"@openzeppelin/contracts/access/Ownable.sol\":2594:2602  oldOwner */\n      dup2\n        /* \"@openzeppelin/contracts/access/Ownable.sol\":2573:2613  OwnershipTransferred(oldOwner, newOwner) */\n      0xffffffffffffffffffffffffffffffffffffffff\n      and\n      0x8be0079c531659141344cd1fd0a4f28419497f9722a3daafe3b4186f6b6457e0\n      mload(0x40)\n      mload(0x40)\n      dup1\n      swap2\n      sub\n      swap1\n      log3\n        /* \"@openzeppelin/contracts/access/Ownable.sol\":2496:2620  {... */\n      pop\n        /* \"@openzeppelin/contracts/access/Ownable.sol\":2433:2620  function _transferOwnership(address newOwner) internal virtual {... */\n      pop\n      jump\t// out\n        /* \"@openzeppelin/contracts/security/Pausable.sol\":2186:2301  function _pause() internal virtual whenNotPaused {... */\n    tag_189:\n        /* \"@openzeppelin/contracts/security/Pausable.sol\":1239:1258  _requireNotPaused() */\n      tag_293\n        /* \"@openzeppelin/contracts/security/Pausable.sol\":1239:1256  _requireNotPaused */\n      tag_294\n        /* \"@openzeppelin/contracts/security/Pausable.sol\":1239:1258  _requireNotPaused() */\n      jump\t// in\n    tag_293:\n        /* \"@openzeppelin/contracts/security/Pausable.sol\":2255:2259  true */\n      0x01\n        /* \"@openzeppelin/contracts/security/Pausable.sol\":2245:2252  _paused */\n      0x05\n      0x14\n        /* \"@openzeppelin/contracts/security/Pausable.sol\":2245:2259  _paused = true */\n      0x0100\n      exp\n      dup2\n      sload\n      dup2\n      0xff\n      mul\n      not\n      and\n      swap1\n      dup4\n      iszero\n      iszero\n      mul\n      or\n      swap1\n      sstore\n      pop\n        /* \"@openzeppelin/contracts/security/Pausable.sol\":2274:2294  Paused(_msgSender()) */\n      0x62e78cea01bee320cd4e420270b5ea74000d11b0c9f74754ebdbfc544b05a258\n        /* \"@openzeppelin/contracts/security/Pausable.sol\":2281:2293  _msgSender() */\n      tag_296\n        /* \"@openzeppelin/contracts/security/Pausable.sol\":2281:2291  _msgSender */\n      tag_136\n        /* \"@openzeppelin/contracts/security/Pausable.sol\":2281:2293  _msgSender() */\n      jump\t// in\n    tag_296:\n        /* \"@openzeppelin/contracts/security/Pausable.sol\":2274:2294  Paused(_msgSender()) */\n      mload(0x40)\n      tag_297\n      swap2\n      swap1\n      tag_90\n      jump\t// in\n    tag_297:\n      mload(0x40)\n      dup1\n      swap2\n      sub\n      swap1\n      log1\n        /* \"@openzeppelin/contracts/security/Pausable.sol\":2186:2301  function _pause() internal virtual whenNotPaused {... */\n      jump\t// out\n        /* \"@openzeppelin/contracts/token/ERC20/ERC20.sol\":12180:12301  function _beforeTokenTransfer(... */\n    tag_254:\n      pop\n      pop\n      pop\n      jump\t// out\n        /* \"@openzeppelin/contracts/token/ERC20/ERC20.sol\":12889:13009  function _afterTokenTransfer(... */\n    tag_260:\n      pop\n      pop\n      pop\n      jump\t// out\n        /* \"@openzeppelin/contracts/security/Pausable.sol\":1945:2051  function _requirePaused() internal view virtual {... */\n    tag_269:\n        /* \"@openzeppelin/contracts/security/Pausable.sol\":2011:2019  paused() */\n      tag_301\n        /* \"@openzeppelin/contracts/security/Pausable.sol\":2011:2017  paused */\n      tag_76\n        /* \"@openzeppelin/contracts/security/Pausable.sol\":2011:2019  paused() */\n      jump\t// in\n    tag_301:\n        /* \"@openzeppelin/contracts/security/Pausable.sol\":2003:2044  require(paused(), \"Pausable: not paused\") */\n      tag_302\n      jumpi\n      mload(0x40)\n      0x08c379a000000000000000000000000000000000000000000000000000000000\n      dup2\n      mstore\n      0x04\n      add\n      tag_303\n      swap1\n      tag_304\n      jump\t// in\n    tag_303:\n      mload(0x40)\n      dup1\n      swap2\n      sub\n      swap1\n      revert\n    tag_302:\n        /* \"@openzeppelin/contracts/security/Pausable.sol\":1945:2051  function _requirePaused() internal view virtual {... */\n      jump\t// out\n        /* \"@openzeppelin/contracts/security/Pausable.sol\":1767:1873  function _requireNotPaused() internal view virtual {... */\n    tag_294:\n        /* \"@openzeppelin/contracts/security/Pausable.sol\":1837:1845  paused() */\n      tag_306\n        /* \"@openzeppelin/contracts/security/Pausable.sol\":1837:1843  paused */\n      tag_76\n        /* \"@openzeppelin/contracts/security/Pausable.sol\":1837:1845  paused() */\n      jump\t// in\n    tag_306:\n        /* \"@openzeppelin/contracts/security/Pausable.sol\":1836:1845  !paused() */\n      iszero\n        /* \"@openzeppelin/contracts/security/Pausable.sol\":1828:1866  require(!paused(), \"Pausable: paused\") */\n      tag_307\n      jumpi\n      mload(0x40)\n      0x08c379a000000000000000000000000000000000000000000000000000000000\n      dup2\n      mstore\n      0x04\n      add\n      tag_308\n      swap1\n      tag_309\n      jump\t// in\n    tag_308:\n      mload(0x40)\n      dup1\n      swap2\n      sub\n      swap1\n      revert\n    tag_307:\n        /* \"@openzeppelin/contracts/security/Pausable.sol\":1767:1873  function _requireNotPaused() internal view virtual {... */\n      jump\t// out\n        /* \"#utility.yul\":7:82   */\n    tag_310:\n        /* \"#utility.yul\":40:46   */\n      0x00\n        /* \"#utility.yul\":73:75   */\n      0x40\n        /* \"#utility.yul\":67:76   */\n      mload\n        /* \"#utility.yul\":57:76   */\n      swap1\n      pop\n        /* \"#utility.yul\":7:82   */\n      swap1\n      jump\t// out\n        /* \"#utility.yul\":88:205   */\n    tag_311:\n        /* \"#utility.yul\":197:198   */\n      0x00\n        /* \"#utility.yul\":194:195   */\n      dup1\n        /* \"#utility.yul\":187:199   */\n      revert\n        /* \"#utility.yul\":211:328   */\n    tag_312:\n        /* \"#utility.yul\":320:321   */\n      0x00\n        /* \"#utility.yul\":317:318   */\n      dup1\n        /* \"#utility.yul\":310:322   */\n      revert\n        /* \"#utility.yul\":334:411   */\n    tag_313:\n        /* \"#utility.yul\":371:378   */\n      0x00\n        /* \"#utility.yul\":400:405   */\n      dup2\n        /* \"#utility.yul\":389:405   */\n      swap1\n      pop\n        /* \"#utility.yul\":334:411   */\n      swap2\n      swap1\n      pop\n      jump\t// out\n        /* \"#utility.yul\":417:539   */\n    tag_314:\n        /* \"#utility.yul\":490:514   */\n      tag_397\n        /* \"#utility.yul\":508:513   */\n      dup2\n        /* \"#utility.yul\":490:514   */\n      tag_313\n      jump\t// in\n    tag_397:\n        /* \"#utility.yul\":483:488   */\n      dup2\n        /* \"#utility.yul\":480:515   */\n      eq\n        /* \"#utility.yul\":470:533   */\n      tag_398\n      jumpi\n        /* \"#utility.yul\":529:530   */\n      0x00\n        /* \"#utility.yul\":526:527   */\n      dup1\n        /* \"#utility.yul\":519:531   */\n      revert\n        /* \"#utility.yul\":470:533   */\n    tag_398:\n        /* \"#utility.yul\":417:539   */\n      pop\n      jump\t// out\n        /* \"#utility.yul\":545:684   */\n    tag_315:\n        /* \"#utility.yul\":591:596   */\n      0x00\n        /* \"#utility.yul\":629:635   */\n      dup2\n        /* \"#utility.yul\":616:636   */\n      calldataload\n        /* \"#utility.yul\":607:636   */\n      swap1\n      pop\n        /* \"#utility.yul\":645:678   */\n      tag_400\n        /* \"#utility.yul\":672:677   */\n      dup2\n        /* \"#utility.yul\":645:678   */\n      tag_314\n      jump\t// in\n    tag_400:\n        /* \"#utility.yul\":545:684   */\n      swap3\n      swap2\n      pop\n      pop\n      jump\t// out\n        /* \"#utility.yul\":690:1019   */\n    tag_32:\n        /* \"#utility.yul\":749:755   */\n      0x00\n        /* \"#utility.yul\":798:800   */\n      0x20\n        /* \"#utility.yul\":786:795   */\n      dup3\n        /* \"#utility.yul\":777:784   */\n      dup5\n        /* \"#utility.yul\":773:796   */\n      sub\n        /* \"#utility.yul\":769:801   */\n      slt\n        /* \"#utility.yul\":766:885   */\n      iszero\n      tag_402\n      jumpi\n        /* \"#utility.yul\":804:883   */\n      tag_403\n      tag_311\n      jump\t// in\n    tag_403:\n        /* \"#utility.yul\":766:885   */\n    tag_402:\n        /* \"#utility.yul\":924:925   */\n      0x00\n        /* \"#utility.yul\":949:1002   */\n      tag_404\n        /* \"#utility.yul\":994:1001   */\n      dup5\n        /* \"#utility.yul\":985:991   */\n      dup3\n        /* \"#utility.yul\":974:983   */\n      dup6\n        /* \"#utility.yul\":970:992   */\n      add\n        /* \"#utility.yul\":949:1002   */\n      tag_315\n      jump\t// in\n    tag_404:\n        /* \"#utility.yul\":939:1002   */\n      swap2\n      pop\n        /* \"#utility.yul\":895:1012   */\n      pop\n        /* \"#utility.yul\":690:1019   */\n      swap3\n      swap2\n      pop\n      pop\n      jump\t// out\n        /* \"#utility.yul\":1025:1143   */\n    tag_316:\n        /* \"#utility.yul\":1112:1136   */\n      tag_406\n        /* \"#utility.yul\":1130:1135   */\n      dup2\n        /* \"#utility.yul\":1112:1136   */\n      tag_313\n      jump\t// in\n    tag_406:\n        /* \"#utility.yul\":1107:1110   */\n      dup3\n        /* \"#utility.yul\":1100:1137   */\n      mstore\n        /* \"#utility.yul\":1025:1143   */\n      pop\n      pop\n      jump\t// out\n        /* \"#utility.yul\":1149:1275   */\n    tag_317:\n        /* \"#utility.yul\":1186:1193   */\n      0x00\n        /* \"#utility.yul\":1226:1268   */\n      0xffffffffffffffffffffffffffffffffffffffff\n        /* \"#utility.yul\":1219:1224   */\n      dup3\n        /* \"#utility.yul\":1215:1269   */\n      and\n        /* \"#utility.yul\":1204:1269   */\n      swap1\n      pop\n        /* \"#utility.yul\":1149:1275   */\n      swap2\n      swap1\n      pop\n      jump\t// out\n        /* \"#utility.yul\":1281:1377   */\n    tag_318:\n        /* \"#utility.yul\":1318:1325   */\n      0x00\n        /* \"#utility.yul\":1347:1371   */\n      tag_409\n        /* \"#utility.yul\":1365:1370   */\n      dup3\n        /* \"#utility.yul\":1347:1371   */\n      tag_317\n      jump\t// in\n    tag_409:\n        /* \"#utility.yul\":1336:1371   */\n      swap1\n      pop\n        /* \"#utility.yul\":1281:1377   */\n      swap2\n      swap1\n      pop\n      jump\t// out\n        /* \"#utility.yul\":1383:1501   */\n    tag_319:\n        /* \"#utility.yul\":1470:1494   */\n      tag_411\n        /* \"#utility.yul\":1488:1493   */\n      dup2\n        /* \"#utility.yul\":1470:1494   */\n      tag_318\n      jump\t// in\n    tag_411:\n        /* \"#utility.yul\":1465:1468   */\n      dup3\n        /* \"#utility.yul\":1458:1495   */\n      mstore\n        /* \"#utility.yul\":1383:1501   */\n      pop\n      pop\n      jump\t// out\n        /* \"#utility.yul\":1507:1606   */\n    tag_320:\n        /* \"#utility.yul\":1559:1565   */\n      0x00\n        /* \"#utility.yul\":1593:1598   */\n      dup2\n        /* \"#utility.yul\":1587:1599   */\n      mload\n        /* \"#utility.yul\":1577:1599   */\n      swap1\n      pop\n        /* \"#utility.yul\":1507:1606   */\n      swap2\n      swap1\n      pop\n      jump\t// out\n        /* \"#utility.yul\":1612:1781   */\n    tag_321:\n        /* \"#utility.yul\":1696:1707   */\n      0x00\n        /* \"#utility.yul\":1730:1736   */\n      dup3\n        /* \"#utility.yul\":1725:1728   */\n      dup3\n        /* \"#utility.yul\":1718:1737   */\n      mstore\n        /* \"#utility.yul\":1770:1774   */\n      0x20\n        /* \"#utility.yul\":1765:1768   */\n      dup3\n        /* \"#utility.yul\":1761:1775   */\n      add\n        /* \"#utility.yul\":1746:1775   */\n      swap1\n      pop\n        /* \"#utility.yul\":1612:1781   */\n      swap3\n      swap2\n      pop\n      pop\n      jump\t// out\n        /* \"#utility.yul\":1787:2033   */\n    tag_322:\n        /* \"#utility.yul\":1868:1869   */\n      0x00\n        /* \"#utility.yul\":1878:1991   */\n    tag_415:\n        /* \"#utility.yul\":1892:1898   */\n      dup4\n        /* \"#utility.yul\":1889:1890   */\n      dup2\n        /* \"#utility.yul\":1886:1899   */\n      lt\n        /* \"#utility.yul\":1878:1991   */\n      iszero\n      tag_417\n      jumpi\n        /* \"#utility.yul\":1977:1978   */\n      dup1\n        /* \"#utility.yul\":1972:1975   */\n      dup3\n        /* \"#utility.yul\":1968:1979   */\n      add\n        /* \"#utility.yul\":1962:1980   */\n      mload\n        /* \"#utility.yul\":1958:1959   */\n      dup2\n        /* \"#utility.yul\":1953:1956   */\n      dup5\n        /* \"#utility.yul\":1949:1960   */\n      add\n        /* \"#utility.yul\":1942:1981   */\n      mstore\n        /* \"#utility.yul\":1914:1916   */\n      0x20\n        /* \"#utility.yul\":1911:1912   */\n      dup2\n        /* \"#utility.yul\":1907:1917   */\n      add\n        /* \"#utility.yul\":1902:1917   */\n      swap1\n      pop\n        /* \"#utility.yul\":1878:1991   */\n      jump(tag_415)\n    tag_417:\n        /* \"#utility.yul\":2025:2026   */\n      0x00\n        /* \"#utility.yul\":2016:2022   */\n      dup5\n        /* \"#utility.yul\":2011:2014   */\n      dup5\n        /* \"#utility.yul\":2007:2023   */\n      add\n        /* \"#utility.yul\":2000:2027   */\n      mstore\n        /* \"#utility.yul\":1849:2033   */\n      pop\n        /* \"#utility.yul\":1787:2033   */\n      pop\n      pop\n      pop\n      jump\t// out\n        /* \"#utility.yul\":2039:2141   */\n    tag_323:\n        /* \"#utility.yul\":2080:2086   */\n      0x00\n        /* \"#utility.yul\":2131:2133   */\n      0x1f\n        /* \"#utility.yul\":2127:2134   */\n      not\n        /* \"#utility.yul\":2122:2124   */\n      0x1f\n        /* \"#utility.yul\":2115:2120   */\n      dup4\n        /* \"#utility.yul\":2111:2125   */\n      add\n        /* \"#utility.yul\":2107:2135   */\n      and\n        /* \"#utility.yul\":2097:2135   */\n      swap1\n      pop\n        /* \"#utility.yul\":2039:2141   */\n      swap2\n      swap1\n      pop\n      jump\t// out\n        /* \"#utility.yul\":2147:2524   */\n    tag_324:\n        /* \"#utility.yul\":2235:2238   */\n      0x00\n        /* \"#utility.yul\":2263:2302   */\n      tag_420\n        /* \"#utility.yul\":2296:2301   */\n      dup3\n        /* \"#utility.yul\":2263:2302   */\n      tag_320\n      jump\t// in\n    tag_420:\n        /* \"#utility.yul\":2318:2389   */\n      tag_421\n        /* \"#utility.yul\":2382:2388   */\n      dup2\n        /* \"#utility.yul\":2377:2380   */\n      dup6\n        /* \"#utility.yul\":2318:2389   */\n      tag_321\n      jump\t// in\n    tag_421:\n        /* \"#utility.yul\":2311:2389   */\n      swap4\n      pop\n        /* \"#utility.yul\":2398:2463   */\n      tag_422\n        /* \"#utility.yul\":2456:2462   */\n      dup2\n        /* \"#utility.yul\":2451:2454   */\n      dup6\n        /* \"#utility.yul\":2444:2448   */\n      0x20\n        /* \"#utility.yul\":2437:2442   */\n      dup7\n        /* \"#utility.yul\":2433:2449   */\n      add\n        /* \"#utility.yul\":2398:2463   */\n      tag_322\n      jump\t// in\n    tag_422:\n        /* \"#utility.yul\":2488:2517   */\n      tag_423\n        /* \"#utility.yul\":2510:2516   */\n      dup2\n        /* \"#utility.yul\":2488:2517   */\n      tag_323\n      jump\t// in\n    tag_423:\n        /* \"#utility.yul\":2483:2486   */\n      dup5\n        /* \"#utility.yul\":2479:2518   */\n      add\n        /* \"#utility.yul\":2472:2518   */\n      swap2\n      pop\n        /* \"#utility.yul\":2239:2524   */\n      pop\n        /* \"#utility.yul\":2147:2524   */\n      swap3\n      swap2\n      pop\n      pop\n      jump\t// out\n        /* \"#utility.yul\":2530:3285   */\n    tag_35:\n        /* \"#utility.yul\":2755:2759   */\n      0x00\n        /* \"#utility.yul\":2793:2796   */\n      0xa0\n        /* \"#utility.yul\":2782:2791   */\n      dup3\n        /* \"#utility.yul\":2778:2797   */\n      add\n        /* \"#utility.yul\":2770:2797   */\n      swap1\n      pop\n        /* \"#utility.yul\":2807:2878   */\n      tag_425\n        /* \"#utility.yul\":2875:2876   */\n      0x00\n        /* \"#utility.yul\":2864:2873   */\n      dup4\n        /* \"#utility.yul\":2860:2877   */\n      add\n        /* \"#utility.yul\":2851:2857   */\n      dup9\n        /* \"#utility.yul\":2807:2878   */\n      tag_316\n      jump\t// in\n    tag_425:\n        /* \"#utility.yul\":2888:2960   */\n      tag_426\n        /* \"#utility.yul\":2956:2958   */\n      0x20\n        /* \"#utility.yul\":2945:2954   */\n      dup4\n        /* \"#utility.yul\":2941:2959   */\n      add\n        /* \"#utility.yul\":2932:2938   */\n      dup8\n        /* \"#utility.yul\":2888:2960   */\n      tag_319\n      jump\t// in\n    tag_426:\n        /* \"#utility.yul\":3007:3016   */\n      dup2\n        /* \"#utility.yul\":3001:3005   */\n      dup2\n        /* \"#utility.yul\":2997:3017   */\n      sub\n        /* \"#utility.yul\":2992:2994   */\n      0x40\n        /* \"#utility.yul\":2981:2990   */\n      dup4\n        /* \"#utility.yul\":2977:2995   */\n      add\n        /* \"#utility.yul\":2970:3018   */\n      mstore\n        /* \"#utility.yul\":3035:3113   */\n      tag_427\n        /* \"#utility.yul\":3108:3112   */\n      dup2\n        /* \"#utility.yul\":3099:3105   */\n      dup7\n        /* \"#utility.yul\":3035:3113   */\n      tag_324\n      jump\t// in\n    tag_427:\n        /* \"#utility.yul\":3027:3113   */\n      swap1\n      pop\n        /* \"#utility.yul\":3123:3195   */\n      tag_428\n        /* \"#utility.yul\":3191:3193   */\n      0x60\n        /* \"#utility.yul\":3180:3189   */\n      dup4\n        /* \"#utility.yul\":3176:3194   */\n      add\n        /* \"#utility.yul\":3167:3173   */\n      dup6\n        /* \"#utility.yul\":3123:3195   */\n      tag_316\n      jump\t// in\n    tag_428:\n        /* \"#utility.yul\":3205:3278   */\n      tag_429\n        /* \"#utility.yul\":3273:3276   */\n      0x80\n        /* \"#utility.yul\":3262:3271   */\n      dup4\n        /* \"#utility.yul\":3258:3277   */\n      add\n        /* \"#utility.yul\":3249:3255   */\n      dup5\n        /* \"#utility.yul\":3205:3278   */\n      tag_316\n      jump\t// in\n    tag_429:\n        /* \"#utility.yul\":2530:3285   */\n      swap7\n      swap6\n      pop\n      pop\n      pop\n      pop\n      pop\n      pop\n      jump\t// out\n        /* \"#utility.yul\":3291:3604   */\n    tag_39:\n        /* \"#utility.yul\":3404:3408   */\n      0x00\n        /* \"#utility.yul\":3442:3444   */\n      0x20\n        /* \"#utility.yul\":3431:3440   */\n      dup3\n        /* \"#utility.yul\":3427:3445   */\n      add\n        /* \"#utility.yul\":3419:3445   */\n      swap1\n      pop\n        /* \"#utility.yul\":3491:3500   */\n      dup2\n        /* \"#utility.yul\":3485:3489   */\n      dup2\n        /* \"#utility.yul\":3481:3501   */\n      sub\n        /* \"#utility.yul\":3477:3478   */\n      0x00\n        /* \"#utility.yul\":3466:3475   */\n      dup4\n        /* \"#utility.yul\":3462:3479   */\n      add\n        /* \"#utility.yul\":3455:3502   */\n      mstore\n        /* \"#utility.yul\":3519:3597   */\n      tag_431\n        /* \"#utility.yul\":3592:3596   */\n      dup2\n        /* \"#utility.yul\":3583:3589   */\n      dup5\n        /* \"#utility.yul\":3519:3597   */\n      tag_324\n      jump\t// in\n    tag_431:\n        /* \"#utility.yul\":3511:3597   */\n      swap1\n      pop\n        /* \"#utility.yul\":3291:3604   */\n      swap3\n      swap2\n      pop\n      pop\n      jump\t// out\n        /* \"#utility.yul\":3610:3732   */\n    tag_325:\n        /* \"#utility.yul\":3683:3707   */\n      tag_433\n        /* \"#utility.yul\":3701:3706   */\n      dup2\n        /* \"#utility.yul\":3683:3707   */\n      tag_318\n      jump\t// in\n    tag_433:\n        /* \"#utility.yul\":3676:3681   */\n      dup2\n        /* \"#utility.yul\":3673:3708   */\n      eq\n        /* \"#utility.yul\":3663:3726   */\n      tag_434\n      jumpi\n        /* \"#utility.yul\":3722:3723   */\n      0x00\n        /* \"#utility.yul\":3719:3720   */\n      dup1\n        /* \"#utility.yul\":3712:3724   */\n      revert\n        /* \"#utility.yul\":3663:3726   */\n    tag_434:\n        /* \"#utility.yul\":3610:3732   */\n      pop\n      jump\t// out\n        /* \"#utility.yul\":3738:3877   */\n    tag_326:\n        /* \"#utility.yul\":3784:3789   */\n      0x00\n        /* \"#utility.yul\":3822:3828   */\n      dup2\n        /* \"#utility.yul\":3809:3829   */\n      calldataload\n        /* \"#utility.yul\":3800:3829   */\n      swap1\n      pop\n        /* \"#utility.yul\":3838:3871   */\n      tag_436\n        /* \"#utility.yul\":3865:3870   */\n      dup2\n        /* \"#utility.yul\":3838:3871   */\n      tag_325\n      jump\t// in\n    tag_436:\n        /* \"#utility.yul\":3738:3877   */\n      swap3\n      swap2\n      pop\n      pop\n      jump\t// out\n        /* \"#utility.yul\":3883:4357   */\n    tag_42:\n        /* \"#utility.yul\":3951:3957   */\n      0x00\n        /* \"#utility.yul\":3959:3965   */\n      dup1\n        /* \"#utility.yul\":4008:4010   */\n      0x40\n        /* \"#utility.yul\":3996:4005   */\n      dup4\n        /* \"#utility.yul\":3987:3994   */\n      dup6\n        /* \"#utility.yul\":3983:4006   */\n      sub\n        /* \"#utility.yul\":3979:4011   */\n      slt\n        /* \"#utility.yul\":3976:4095   */\n      iszero\n      tag_438\n      jumpi\n        /* \"#utility.yul\":4014:4093   */\n      tag_439\n      tag_311\n      jump\t// in\n    tag_439:\n        /* \"#utility.yul\":3976:4095   */\n    tag_438:\n        /* \"#utility.yul\":4134:4135   */\n      0x00\n        /* \"#utility.yul\":4159:4212   */\n      tag_440\n        /* \"#utility.yul\":4204:4211   */\n      dup6\n        /* \"#utility.yul\":4195:4201   */\n      dup3\n        /* \"#utility.yul\":4184:4193   */\n      dup7\n        /* \"#utility.yul\":4180:4202   */\n      add\n        /* \"#utility.yul\":4159:4212   */\n      tag_326\n      jump\t// in\n    tag_440:\n        /* \"#utility.yul\":4149:4212   */\n      swap3\n      pop\n        /* \"#utility.yul\":4105:4222   */\n      pop\n        /* \"#utility.yul\":4261:4263   */\n      0x20\n        /* \"#utility.yul\":4287:4340   */\n      tag_441\n        /* \"#utility.yul\":4332:4339   */\n      dup6\n        /* \"#utility.yul\":4323:4329   */\n      dup3\n        /* \"#utility.yul\":4312:4321   */\n      dup7\n        /* \"#utility.yul\":4308:4330   */\n      add\n        /* \"#utility.yul\":4287:4340   */\n      tag_315\n      jump\t// in\n    tag_441:\n        /* \"#utility.yul\":4277:4340   */\n      swap2\n      pop\n        /* \"#utility.yul\":4232:4350   */\n      pop\n        /* \"#utility.yul\":3883:4357   */\n      swap3\n      pop\n      swap3\n      swap1\n      pop\n      jump\t// out\n        /* \"#utility.yul\":4363:4453   */\n    tag_327:\n        /* \"#utility.yul\":4397:4404   */\n      0x00\n        /* \"#utility.yul\":4440:4445   */\n      dup2\n        /* \"#utility.yul\":4433:4446   */\n      iszero\n        /* \"#utility.yul\":4426:4447   */\n      iszero\n        /* \"#utility.yul\":4415:4447   */\n      swap1\n      pop\n        /* \"#utility.yul\":4363:4453   */\n      swap2\n      swap1\n      pop\n      jump\t// out\n        /* \"#utility.yul\":4459:4568   */\n    tag_328:\n        /* \"#utility.yul\":4540:4561   */\n      tag_444\n        /* \"#utility.yul\":4555:4560   */\n      dup2\n        /* \"#utility.yul\":4540:4561   */\n      tag_327\n      jump\t// in\n    tag_444:\n        /* \"#utility.yul\":4535:4538   */\n      dup3\n        /* \"#utility.yul\":4528:4562   */\n      mstore\n        /* \"#utility.yul\":4459:4568   */\n      pop\n      pop\n      jump\t// out\n        /* \"#utility.yul\":4574:4784   */\n    tag_45:\n        /* \"#utility.yul\":4661:4665   */\n      0x00\n        /* \"#utility.yul\":4699:4701   */\n      0x20\n        /* \"#utility.yul\":4688:4697   */\n      dup3\n        /* \"#utility.yul\":4684:4702   */\n      add\n        /* \"#utility.yul\":4676:4702   */\n      swap1\n      pop\n        /* \"#utility.yul\":4712:4777   */\n      tag_446\n        /* \"#utility.yul\":4774:4775   */\n      0x00\n        /* \"#utility.yul\":4763:4772   */\n      dup4\n        /* \"#utility.yul\":4759:4776   */\n      add\n        /* \"#utility.yul\":4750:4756   */\n      dup5\n        /* \"#utility.yul\":4712:4777   */\n      tag_328\n      jump\t// in\n    tag_446:\n        /* \"#utility.yul\":4574:4784   */\n      swap3\n      swap2\n      pop\n      pop\n      jump\t// out\n        /* \"#utility.yul\":4790:5012   */\n    tag_49:\n        /* \"#utility.yul\":4883:4887   */\n      0x00\n        /* \"#utility.yul\":4921:4923   */\n      0x20\n        /* \"#utility.yul\":4910:4919   */\n      dup3\n        /* \"#utility.yul\":4906:4924   */\n      add\n        /* \"#utility.yul\":4898:4924   */\n      swap1\n      pop\n        /* \"#utility.yul\":4934:5005   */\n      tag_448\n        /* \"#utility.yul\":5002:5003   */\n      0x00\n        /* \"#utility.yul\":4991:5000   */\n      dup4\n        /* \"#utility.yul\":4987:5004   */\n      add\n        /* \"#utility.yul\":4978:4984   */\n      dup5\n        /* \"#utility.yul\":4934:5005   */\n      tag_316\n      jump\t// in\n    tag_448:\n        /* \"#utility.yul\":4790:5012   */\n      swap3\n      swap2\n      pop\n      pop\n      jump\t// out\n        /* \"#utility.yul\":5018:5637   */\n    tag_52:\n        /* \"#utility.yul\":5095:5101   */\n      0x00\n        /* \"#utility.yul\":5103:5109   */\n      dup1\n        /* \"#utility.yul\":5111:5117   */\n      0x00\n        /* \"#utility.yul\":5160:5162   */\n      0x60\n        /* \"#utility.yul\":5148:5157   */\n      dup5\n        /* \"#utility.yul\":5139:5146   */\n      dup7\n        /* \"#utility.yul\":5135:5158   */\n      sub\n        /* \"#utility.yul\":5131:5163   */\n      slt\n        /* \"#utility.yul\":5128:5247   */\n      iszero\n      tag_450\n      jumpi\n        /* \"#utility.yul\":5166:5245   */\n      tag_451\n      tag_311\n      jump\t// in\n    tag_451:\n        /* \"#utility.yul\":5128:5247   */\n    tag_450:\n        /* \"#utility.yul\":5286:5287   */\n      0x00\n        /* \"#utility.yul\":5311:5364   */\n      tag_452\n        /* \"#utility.yul\":5356:5363   */\n      dup7\n        /* \"#utility.yul\":5347:5353   */\n      dup3\n        /* \"#utility.yul\":5336:5345   */\n      dup8\n        /* \"#utility.yul\":5332:5354   */\n      add\n        /* \"#utility.yul\":5311:5364   */\n      tag_326\n      jump\t// in\n    tag_452:\n        /* \"#utility.yul\":5301:5364   */\n      swap4\n      pop\n        /* \"#utility.yul\":5257:5374   */\n      pop\n        /* \"#utility.yul\":5413:5415   */\n      0x20\n        /* \"#utility.yul\":5439:5492   */\n      tag_453\n        /* \"#utility.yul\":5484:5491   */\n      dup7\n        /* \"#utility.yul\":5475:5481   */\n      dup3\n        /* \"#utility.yul\":5464:5473   */\n      dup8\n        /* \"#utility.yul\":5460:5482   */\n      add\n        /* \"#utility.yul\":5439:5492   */\n      tag_326\n      jump\t// in\n    tag_453:\n        /* \"#utility.yul\":5429:5492   */\n      swap3\n      pop\n        /* \"#utility.yul\":5384:5502   */\n      pop\n        /* \"#utility.yul\":5541:5543   */\n      0x40\n        /* \"#utility.yul\":5567:5620   */\n      tag_454\n        /* \"#utility.yul\":5612:5619   */\n      dup7\n        /* \"#utility.yul\":5603:5609   */\n      dup3\n        /* \"#utility.yul\":5592:5601   */\n      dup8\n        /* \"#utility.yul\":5588:5610   */\n      add\n        /* \"#utility.yul\":5567:5620   */\n      tag_315\n      jump\t// in\n    tag_454:\n        /* \"#utility.yul\":5557:5620   */\n      swap2\n      pop\n        /* \"#utility.yul\":5512:5630   */\n      pop\n        /* \"#utility.yul\":5018:5637   */\n      swap3\n      pop\n      swap3\n      pop\n      swap3\n      jump\t// out\n        /* \"#utility.yul\":5643:5729   */\n    tag_329:\n        /* \"#utility.yul\":5678:5685   */\n      0x00\n        /* \"#utility.yul\":5718:5722   */\n      0xff\n        /* \"#utility.yul\":5711:5716   */\n      dup3\n        /* \"#utility.yul\":5707:5723   */\n      and\n        /* \"#utility.yul\":5696:5723   */\n      swap1\n      pop\n        /* \"#utility.yul\":5643:5729   */\n      swap2\n      swap1\n      pop\n      jump\t// out\n        /* \"#utility.yul\":5735:5847   */\n    tag_330:\n        /* \"#utility.yul\":5818:5840   */\n      tag_457\n        /* \"#utility.yul\":5834:5839   */\n      dup2\n        /* \"#utility.yul\":5818:5840   */\n      tag_329\n      jump\t// in\n    tag_457:\n        /* \"#utility.yul\":5813:5816   */\n      dup3\n        /* \"#utility.yul\":5806:5841   */\n      mstore\n        /* \"#utility.yul\":5735:5847   */\n      pop\n      pop\n      jump\t// out\n        /* \"#utility.yul\":5853:6067   */\n    tag_58:\n        /* \"#utility.yul\":5942:5946   */\n      0x00\n        /* \"#utility.yul\":5980:5982   */\n      0x20\n        /* \"#utility.yul\":5969:5978   */\n      dup3\n        /* \"#utility.yul\":5965:5983   */\n      add\n        /* \"#utility.yul\":5957:5983   */\n      swap1\n      pop\n        /* \"#utility.yul\":5993:6060   */\n      tag_459\n        /* \"#utility.yul\":6057:6058   */\n      0x00\n        /* \"#utility.yul\":6046:6055   */\n      dup4\n        /* \"#utility.yul\":6042:6059   */\n      add\n        /* \"#utility.yul\":6033:6039   */\n      dup5\n        /* \"#utility.yul\":5993:6060   */\n      tag_330\n      jump\t// in\n    tag_459:\n        /* \"#utility.yul\":5853:6067   */\n      swap3\n      swap2\n      pop\n      pop\n      jump\t// out\n        /* \"#utility.yul\":6073:6190   */\n    tag_331:\n        /* \"#utility.yul\":6182:6183   */\n      0x00\n        /* \"#utility.yul\":6179:6180   */\n      dup1\n        /* \"#utility.yul\":6172:6184   */\n      revert\n        /* \"#utility.yul\":6196:6313   */\n    tag_332:\n        /* \"#utility.yul\":6305:6306   */\n      0x00\n        /* \"#utility.yul\":6302:6303   */\n      dup1\n        /* \"#utility.yul\":6295:6307   */\n      revert\n        /* \"#utility.yul\":6319:6499   */\n    tag_333:\n        /* \"#utility.yul\":6367:6444   */\n      0x4e487b7100000000000000000000000000000000000000000000000000000000\n        /* \"#utility.yul\":6364:6365   */\n      0x00\n        /* \"#utility.yul\":6357:6445   */\n      mstore\n        /* \"#utility.yul\":6464:6468   */\n      0x41\n        /* \"#utility.yul\":6461:6462   */\n      0x04\n        /* \"#utility.yul\":6454:6469   */\n      mstore\n        /* \"#utility.yul\":6488:6492   */\n      0x24\n        /* \"#utility.yul\":6485:6486   */\n      0x00\n        /* \"#utility.yul\":6478:6493   */\n      revert\n        /* \"#utility.yul\":6505:6786   */\n    tag_334:\n        /* \"#utility.yul\":6588:6615   */\n      tag_464\n        /* \"#utility.yul\":6610:6614   */\n      dup3\n        /* \"#utility.yul\":6588:6615   */\n      tag_323\n      jump\t// in\n    tag_464:\n        /* \"#utility.yul\":6580:6586   */\n      dup2\n        /* \"#utility.yul\":6576:6616   */\n      add\n        /* \"#utility.yul\":6718:6724   */\n      dup2\n        /* \"#utility.yul\":6706:6716   */\n      dup2\n        /* \"#utility.yul\":6703:6725   */\n      lt\n        /* \"#utility.yul\":6682:6700   */\n      0xffffffffffffffff\n        /* \"#utility.yul\":6670:6680   */\n      dup3\n        /* \"#utility.yul\":6667:6701   */\n      gt\n        /* \"#utility.yul\":6664:6726   */\n      or\n        /* \"#utility.yul\":6661:6749   */\n      iszero\n      tag_465\n      jumpi\n        /* \"#utility.yul\":6729:6747   */\n      tag_466\n      tag_333\n      jump\t// in\n    tag_466:\n        /* \"#utility.yul\":6661:6749   */\n    tag_465:\n        /* \"#utility.yul\":6769:6779   */\n      dup1\n        /* \"#utility.yul\":6765:6767   */\n      0x40\n        /* \"#utility.yul\":6758:6780   */\n      mstore\n        /* \"#utility.yul\":6548:6786   */\n      pop\n        /* \"#utility.yul\":6505:6786   */\n      pop\n      pop\n      jump\t// out\n        /* \"#utility.yul\":6792:6921   */\n    tag_335:\n        /* \"#utility.yul\":6826:6832   */\n      0x00\n        /* \"#utility.yul\":6853:6873   */\n      tag_468\n      tag_310\n      jump\t// in\n    tag_468:\n        /* \"#utility.yul\":6843:6873   */\n      swap1\n      pop\n        /* \"#utility.yul\":6882:6915   */\n      tag_469\n        /* \"#utility.yul\":6910:6914   */\n      dup3\n        /* \"#utility.yul\":6902:6908   */\n      dup3\n        /* \"#utility.yul\":6882:6915   */\n      tag_334\n      jump\t// in\n    tag_469:\n        /* \"#utility.yul\":6792:6921   */\n      swap2\n      swap1\n      pop\n      jump\t// out\n        /* \"#utility.yul\":6927:7235   */\n    tag_336:\n        /* \"#utility.yul\":6989:6993   */\n      0x00\n        /* \"#utility.yul\":7079:7097   */\n      0xffffffffffffffff\n        /* \"#utility.yul\":7071:7077   */\n      dup3\n        /* \"#utility.yul\":7068:7098   */\n      gt\n        /* \"#utility.yul\":7065:7121   */\n      iszero\n      tag_471\n      jumpi\n        /* \"#utility.yul\":7101:7119   */\n      tag_472\n      tag_333\n      jump\t// in\n    tag_472:\n        /* \"#utility.yul\":7065:7121   */\n    tag_471:\n        /* \"#utility.yul\":7139:7168   */\n      tag_473\n        /* \"#utility.yul\":7161:7167   */\n      dup3\n        /* \"#utility.yul\":7139:7168   */\n      tag_323\n      jump\t// in\n    tag_473:\n        /* \"#utility.yul\":7131:7168   */\n      swap1\n      pop\n        /* \"#utility.yul\":7223:7227   */\n      0x20\n        /* \"#utility.yul\":7217:7221   */\n      dup2\n        /* \"#utility.yul\":7213:7228   */\n      add\n        /* \"#utility.yul\":7205:7228   */\n      swap1\n      pop\n        /* \"#utility.yul\":6927:7235   */\n      swap2\n      swap1\n      pop\n      jump\t// out\n        /* \"#utility.yul\":7241:7387   */\n    tag_337:\n        /* \"#utility.yul\":7338:7344   */\n      dup3\n        /* \"#utility.yul\":7333:7336   */\n      dup2\n        /* \"#utility.yul\":7328:7331   */\n      dup4\n        /* \"#utility.yul\":7315:7345   */\n      calldatacopy\n        /* \"#utility.yul\":7379:7380   */\n      0x00\n        /* \"#utility.yul\":7370:7376   */\n      dup4\n        /* \"#utility.yul\":7365:7368   */\n      dup4\n        /* \"#utility.yul\":7361:7377   */\n      add\n        /* \"#utility.yul\":7354:7381   */\n      mstore\n        /* \"#utility.yul\":7241:7387   */\n      pop\n      pop\n      pop\n      jump\t// out\n        /* \"#utility.yul\":7393:7818   */\n    tag_338:\n        /* \"#utility.yul\":7471:7476   */\n      0x00\n        /* \"#utility.yul\":7496:7562   */\n      tag_476\n        /* \"#utility.yul\":7512:7561   */\n      tag_477\n        /* \"#utility.yul\":7554:7560   */\n      dup5\n        /* \"#utility.yul\":7512:7561   */\n      tag_336\n      jump\t// in\n    tag_477:\n        /* \"#utility.yul\":7496:7562   */\n      tag_335\n      jump\t// in\n    tag_476:\n        /* \"#utility.yul\":7487:7562   */\n      swap1\n      pop\n        /* \"#utility.yul\":7585:7591   */\n      dup3\n        /* \"#utility.yul\":7578:7583   */\n      dup2\n        /* \"#utility.yul\":7571:7592   */\n      mstore\n        /* \"#utility.yul\":7623:7627   */\n      0x20\n        /* \"#utility.yul\":7616:7621   */\n      dup2\n        /* \"#utility.yul\":7612:7628   */\n      add\n        /* \"#utility.yul\":7661:7664   */\n      dup5\n        /* \"#utility.yul\":7652:7658   */\n      dup5\n        /* \"#utility.yul\":7647:7650   */\n      dup5\n        /* \"#utility.yul\":7643:7659   */\n      add\n        /* \"#utility.yul\":7640:7665   */\n      gt\n        /* \"#utility.yul\":7637:7749   */\n      iszero\n      tag_478\n      jumpi\n        /* \"#utility.yul\":7668:7747   */\n      tag_479\n      tag_332\n      jump\t// in\n    tag_479:\n        /* \"#utility.yul\":7637:7749   */\n    tag_478:\n        /* \"#utility.yul\":7758:7812   */\n      tag_480\n        /* \"#utility.yul\":7805:7811   */\n      dup5\n        /* \"#utility.yul\":7800:7803   */\n      dup3\n        /* \"#utility.yul\":7795:7798   */\n      dup6\n        /* \"#utility.yul\":7758:7812   */\n      tag_337\n      jump\t// in\n    tag_480:\n        /* \"#utility.yul\":7477:7818   */\n      pop\n        /* \"#utility.yul\":7393:7818   */\n      swap4\n      swap3\n      pop\n      pop\n      pop\n      jump\t// out\n        /* \"#utility.yul\":7838:8178   */\n    tag_339:\n        /* \"#utility.yul\":7894:7899   */\n      0x00\n        /* \"#utility.yul\":7943:7946   */\n      dup3\n        /* \"#utility.yul\":7936:7940   */\n      0x1f\n        /* \"#utility.yul\":7928:7934   */\n      dup4\n        /* \"#utility.yul\":7924:7941   */\n      add\n        /* \"#utility.yul\":7920:7947   */\n      slt\n        /* \"#utility.yul\":7910:8032   */\n      tag_482\n      jumpi\n        /* \"#utility.yul\":7951:8030   */\n      tag_483\n      tag_331\n      jump\t// in\n    tag_483:\n        /* \"#utility.yul\":7910:8032   */\n    tag_482:\n        /* \"#utility.yul\":8068:8074   */\n      dup2\n        /* \"#utility.yul\":8055:8075   */\n      calldataload\n        /* \"#utility.yul\":8093:8172   */\n      tag_484\n        /* \"#utility.yul\":8168:8171   */\n      dup5\n        /* \"#utility.yul\":8160:8166   */\n      dup3\n        /* \"#utility.yul\":8153:8157   */\n      0x20\n        /* \"#utility.yul\":8145:8151   */\n      dup7\n        /* \"#utility.yul\":8141:8158   */\n      add\n        /* \"#utility.yul\":8093:8172   */\n      tag_338\n      jump\t// in\n    tag_484:\n        /* \"#utility.yul\":8084:8172   */\n      swap2\n      pop\n        /* \"#utility.yul\":7900:8178   */\n      pop\n        /* \"#utility.yul\":7838:8178   */\n      swap3\n      swap2\n      pop\n      pop\n      jump\t// out\n        /* \"#utility.yul\":8184:8693   */\n    tag_73:\n        /* \"#utility.yul\":8253:8259   */\n      0x00\n        /* \"#utility.yul\":8302:8304   */\n      0x20\n        /* \"#utility.yul\":8290:8299   */\n      dup3\n        /* \"#utility.yul\":8281:8288   */\n      dup5\n        /* \"#utility.yul\":8277:8300   */\n      sub\n        /* \"#utility.yul\":8273:8305   */\n      slt\n        /* \"#utility.yul\":8270:8389   */\n      iszero\n      tag_486\n      jumpi\n        /* \"#utility.yul\":8308:8387   */\n      tag_487\n      tag_311\n      jump\t// in\n    tag_487:\n        /* \"#utility.yul\":8270:8389   */\n    tag_486:\n        /* \"#utility.yul\":8456:8457   */\n      0x00\n        /* \"#utility.yul\":8445:8454   */\n      dup3\n        /* \"#utility.yul\":8441:8458   */\n      add\n        /* \"#utility.yul\":8428:8459   */\n      calldataload\n        /* \"#utility.yul\":8486:8504   */\n      0xffffffffffffffff\n        /* \"#utility.yul\":8478:8484   */\n      dup2\n        /* \"#utility.yul\":8475:8505   */\n      gt\n        /* \"#utility.yul\":8472:8589   */\n      iszero\n      tag_488\n      jumpi\n        /* \"#utility.yul\":8508:8587   */\n      tag_489\n      tag_312\n      jump\t// in\n    tag_489:\n        /* \"#utility.yul\":8472:8589   */\n    tag_488:\n        /* \"#utility.yul\":8613:8676   */\n      tag_490\n        /* \"#utility.yul\":8668:8675   */\n      dup5\n        /* \"#utility.yul\":8659:8665   */\n      dup3\n        /* \"#utility.yul\":8648:8657   */\n      dup6\n        /* \"#utility.yul\":8644:8666   */\n      add\n        /* \"#utility.yul\":8613:8676   */\n      tag_339\n      jump\t// in\n    tag_490:\n        /* \"#utility.yul\":8603:8676   */\n      swap2\n      pop\n        /* \"#utility.yul\":8399:8686   */\n      pop\n        /* \"#utility.yul\":8184:8693   */\n      swap3\n      swap2\n      pop\n      pop\n      jump\t// out\n        /* \"#utility.yul\":8699:9028   */\n    tag_80:\n        /* \"#utility.yul\":8758:8764   */\n      0x00\n        /* \"#utility.yul\":8807:8809   */\n      0x20\n        /* \"#utility.yul\":8795:8804   */\n      dup3\n        /* \"#utility.yul\":8786:8793   */\n      dup5\n        /* \"#utility.yul\":8782:8805   */\n      sub\n        /* \"#utility.yul\":8778:8810   */\n      slt\n        /* \"#utility.yul\":8775:8894   */\n      iszero\n      tag_492\n      jumpi\n        /* \"#utility.yul\":8813:8892   */\n      tag_493\n      tag_311\n      jump\t// in\n    tag_493:\n        /* \"#utility.yul\":8775:8894   */\n    tag_492:\n        /* \"#utility.yul\":8933:8934   */\n      0x00\n        /* \"#utility.yul\":8958:9011   */\n      tag_494\n        /* \"#utility.yul\":9003:9010   */\n      dup5\n        /* \"#utility.yul\":8994:9000   */\n      dup3\n        /* \"#utility.yul\":8983:8992   */\n      dup6\n        /* \"#utility.yul\":8979:9001   */\n      add\n        /* \"#utility.yul\":8958:9011   */\n      tag_326\n      jump\t// in\n    tag_494:\n        /* \"#utility.yul\":8948:9011   */\n      swap2\n      pop\n        /* \"#utility.yul\":8904:9021   */\n      pop\n        /* \"#utility.yul\":8699:9028   */\n      swap3\n      swap2\n      pop\n      pop\n      jump\t// out\n        /* \"#utility.yul\":9034:9256   */\n    tag_90:\n        /* \"#utility.yul\":9127:9131   */\n      0x00\n        /* \"#utility.yul\":9165:9167   */\n      0x20\n        /* \"#utility.yul\":9154:9163   */\n      dup3\n        /* \"#utility.yul\":9150:9168   */\n      add\n        /* \"#utility.yul\":9142:9168   */\n      swap1\n      pop\n        /* \"#utility.yul\":9178:9249   */\n      tag_496\n        /* \"#utility.yul\":9246:9247   */\n      0x00\n        /* \"#utility.yul\":9235:9244   */\n      dup4\n        /* \"#utility.yul\":9231:9248   */\n      add\n        /* \"#utility.yul\":9222:9228   */\n      dup5\n        /* \"#utility.yul\":9178:9249   */\n      tag_319\n      jump\t// in\n    tag_496:\n        /* \"#utility.yul\":9034:9256   */\n      swap3\n      swap2\n      pop\n      pop\n      jump\t// out\n        /* \"#utility.yul\":9262:9378   */\n    tag_340:\n        /* \"#utility.yul\":9332:9353   */\n      tag_498\n        /* \"#utility.yul\":9347:9352   */\n      dup2\n        /* \"#utility.yul\":9332:9353   */\n      tag_327\n      jump\t// in\n    tag_498:\n        /* \"#utility.yul\":9325:9330   */\n      dup2\n        /* \"#utility.yul\":9322:9354   */\n      eq\n        /* \"#utility.yul\":9312:9372   */\n      tag_499\n      jumpi\n        /* \"#utility.yul\":9368:9369   */\n      0x00\n        /* \"#utility.yul\":9365:9366   */\n      dup1\n        /* \"#utility.yul\":9358:9370   */\n      revert\n        /* \"#utility.yul\":9312:9372   */\n    tag_499:\n        /* \"#utility.yul\":9262:9378   */\n      pop\n      jump\t// out\n        /* \"#utility.yul\":9384:9517   */\n    tag_341:\n        /* \"#utility.yul\":9427:9432   */\n      0x00\n        /* \"#utility.yul\":9465:9471   */\n      dup2\n        /* \"#utility.yul\":9452:9472   */\n      calldataload\n        /* \"#utility.yul\":9443:9472   */\n      swap1\n      pop\n        /* \"#utility.yul\":9481:9511   */\n      tag_501\n        /* \"#utility.yul\":9505:9510   */\n      dup2\n        /* \"#utility.yul\":9481:9511   */\n      tag_340\n      jump\t// in\n    tag_501:\n        /* \"#utility.yul\":9384:9517   */\n      swap3\n      swap2\n      pop\n      pop\n      jump\t// out\n        /* \"#utility.yul\":9523:9991   */\n    tag_108:\n        /* \"#utility.yul\":9588:9594   */\n      0x00\n        /* \"#utility.yul\":9596:9602   */\n      dup1\n        /* \"#utility.yul\":9645:9647   */\n      0x40\n        /* \"#utility.yul\":9633:9642   */\n      dup4\n        /* \"#utility.yul\":9624:9631   */\n      dup6\n        /* \"#utility.yul\":9620:9643   */\n      sub\n        /* \"#utility.yul\":9616:9648   */\n      slt\n        /* \"#utility.yul\":9613:9732   */\n      iszero\n      tag_503\n      jumpi\n        /* \"#utility.yul\":9651:9730   */\n      tag_504\n      tag_311\n      jump\t// in\n    tag_504:\n        /* \"#utility.yul\":9613:9732   */\n    tag_503:\n        /* \"#utility.yul\":9771:9772   */\n      0x00\n        /* \"#utility.yul\":9796:9849   */\n      tag_505\n        /* \"#utility.yul\":9841:9848   */\n      dup6\n        /* \"#utility.yul\":9832:9838   */\n      dup3\n        /* \"#utility.yul\":9821:9830   */\n      dup7\n        /* \"#utility.yul\":9817:9839   */\n      add\n        /* \"#utility.yul\":9796:9849   */\n      tag_315\n      jump\t// in\n    tag_505:\n        /* \"#utility.yul\":9786:9849   */\n      swap3\n      pop\n        /* \"#utility.yul\":9742:9859   */\n      pop\n        /* \"#utility.yul\":9898:9900   */\n      0x20\n        /* \"#utility.yul\":9924:9974   */\n      tag_506\n        /* \"#utility.yul\":9966:9973   */\n      dup6\n        /* \"#utility.yul\":9957:9963   */\n      dup3\n        /* \"#utility.yul\":9946:9955   */\n      dup7\n        /* \"#utility.yul\":9942:9964   */\n      add\n        /* \"#utility.yul\":9924:9974   */\n      tag_341\n      jump\t// in\n    tag_506:\n        /* \"#utility.yul\":9914:9974   */\n      swap2\n      pop\n        /* \"#utility.yul\":9869:9984   */\n      pop\n        /* \"#utility.yul\":9523:9991   */\n      swap3\n      pop\n      swap3\n      swap1\n      pop\n      jump\t// out\n        /* \"#utility.yul\":9997:10471   */\n    tag_115:\n        /* \"#utility.yul\":10065:10071   */\n      0x00\n        /* \"#utility.yul\":10073:10079   */\n      dup1\n        /* \"#utility.yul\":10122:10124   */\n      0x40\n        /* \"#utility.yul\":10110:10119   */\n      dup4\n        /* \"#utility.yul\":10101:10108   */\n      dup6\n        /* \"#utility.yul\":10097:10120   */\n      sub\n        /* \"#utility.yul\":10093:10125   */\n      slt\n        /* \"#utility.yul\":10090:10209   */\n      iszero\n      tag_508\n      jumpi\n        /* \"#utility.yul\":10128:10207   */\n      tag_509\n      tag_311\n      jump\t// in\n    tag_509:\n        /* \"#utility.yul\":10090:10209   */\n    tag_508:\n        /* \"#utility.yul\":10248:10249   */\n      0x00\n        /* \"#utility.yul\":10273:10326   */\n      tag_510\n        /* \"#utility.yul\":10318:10325   */\n      dup6\n        /* \"#utility.yul\":10309:10315   */\n      dup3\n        /* \"#utility.yul\":10298:10307   */\n      dup7\n        /* \"#utility.yul\":10294:10316   */\n      add\n        /* \"#utility.yul\":10273:10326   */\n      tag_326\n      jump\t// in\n    tag_510:\n        /* \"#utility.yul\":10263:10326   */\n      swap3\n      pop\n        /* \"#utility.yul\":10219:10336   */\n      pop\n        /* \"#utility.yul\":10375:10377   */\n      0x20\n        /* \"#utility.yul\":10401:10454   */\n      tag_511\n        /* \"#utility.yul\":10446:10453   */\n      dup6\n        /* \"#utility.yul\":10437:10443   */\n      dup3\n        /* \"#utility.yul\":10426:10435   */\n      dup7\n        /* \"#utility.yul\":10422:10444   */\n      add\n        /* \"#utility.yul\":10401:10454   */\n      tag_326\n      jump\t// in\n    tag_511:\n        /* \"#utility.yul\":10391:10454   */\n      swap2\n      pop\n        /* \"#utility.yul\":10346:10464   */\n      pop\n        /* \"#utility.yul\":9997:10471   */\n      swap3\n      pop\n      swap3\n      swap1\n      pop\n      jump\t// out\n        /* \"#utility.yul\":10477:10657   */\n    tag_342:\n        /* \"#utility.yul\":10525:10602   */\n      0x4e487b7100000000000000000000000000000000000000000000000000000000\n        /* \"#utility.yul\":10522:10523   */\n      0x00\n        /* \"#utility.yul\":10515:10603   */\n      mstore\n        /* \"#utility.yul\":10622:10626   */\n      0x22\n        /* \"#utility.yul\":10619:10620   */\n      0x04\n        /* \"#utility.yul\":10612:10627   */\n      mstore\n        /* \"#utility.yul\":10646:10650   */\n      0x24\n        /* \"#utility.yul\":10643:10644   */\n      0x00\n        /* \"#utility.yul\":10636:10651   */\n      revert\n        /* \"#utility.yul\":10663:10983   */\n    tag_122:\n        /* \"#utility.yul\":10707:10713   */\n      0x00\n        /* \"#utility.yul\":10744:10745   */\n      0x02\n        /* \"#utility.yul\":10738:10742   */\n      dup3\n        /* \"#utility.yul\":10734:10746   */\n      div\n        /* \"#utility.yul\":10724:10746   */\n      swap1\n      pop\n        /* \"#utility.yul\":10791:10792   */\n      0x01\n        /* \"#utility.yul\":10785:10789   */\n      dup3\n        /* \"#utility.yul\":10781:10793   */\n      and\n        /* \"#utility.yul\":10812:10830   */\n      dup1\n        /* \"#utility.yul\":10802:10883   */\n      tag_514\n      jumpi\n        /* \"#utility.yul\":10868:10872   */\n      0x7f\n        /* \"#utility.yul\":10860:10866   */\n      dup3\n        /* \"#utility.yul\":10856:10873   */\n      and\n        /* \"#utility.yul\":10846:10873   */\n      swap2\n      pop\n        /* \"#utility.yul\":10802:10883   */\n    tag_514:\n        /* \"#utility.yul\":10930:10932   */\n      0x20\n        /* \"#utility.yul\":10922:10928   */\n      dup3\n        /* \"#utility.yul\":10919:10933   */\n      lt\n        /* \"#utility.yul\":10899:10917   */\n      dup2\n        /* \"#utility.yul\":10896:10934   */\n      sub\n        /* \"#utility.yul\":10893:10977   */\n      tag_515\n      jumpi\n        /* \"#utility.yul\":10949:10967   */\n      tag_516\n      tag_342\n      jump\t// in\n    tag_516:\n        /* \"#utility.yul\":10893:10977   */\n    tag_515:\n        /* \"#utility.yul\":10714:10983   */\n      pop\n        /* \"#utility.yul\":10663:10983   */\n      swap2\n      swap1\n      pop\n      jump\t// out\n        /* \"#utility.yul\":10989:11209   */\n    tag_343:\n        /* \"#utility.yul\":11129:11163   */\n      0x5445583a207472616e7366657220746f20746865207a65726f20616464726573\n        /* \"#utility.yul\":11125:11126   */\n      0x00\n        /* \"#utility.yul\":11117:11123   */\n      dup3\n        /* \"#utility.yul\":11113:11127   */\n      add\n        /* \"#utility.yul\":11106:11164   */\n      mstore\n        /* \"#utility.yul\":11198:11201   */\n      0x7300000000000000000000000000000000000000000000000000000000000000\n        /* \"#utility.yul\":11193:11195   */\n      0x20\n        /* \"#utility.yul\":11185:11191   */\n      dup3\n        /* \"#utility.yul\":11181:11196   */\n      add\n        /* \"#utility.yul\":11174:11202   */\n      mstore\n        /* \"#utility.yul\":10989:11209   */\n      pop\n      jump\t// out\n        /* \"#utility.yul\":11215:11581   */\n    tag_344:\n        /* \"#utility.yul\":11357:11360   */\n      0x00\n        /* \"#utility.yul\":11378:11445   */\n      tag_519\n        /* \"#utility.yul\":11442:11444   */\n      0x21\n        /* \"#utility.yul\":11437:11440   */\n      dup4\n        /* \"#utility.yul\":11378:11445   */\n      tag_321\n      jump\t// in\n    tag_519:\n        /* \"#utility.yul\":11371:11445   */\n      swap2\n      pop\n        /* \"#utility.yul\":11454:11547   */\n      tag_520\n        /* \"#utility.yul\":11543:11546   */\n      dup3\n        /* \"#utility.yul\":11454:11547   */\n      tag_343\n      jump\t// in\n    tag_520:\n        /* \"#utility.yul\":11572:11574   */\n      0x40\n        /* \"#utility.yul\":11567:11570   */\n      dup3\n        /* \"#utility.yul\":11563:11575   */\n      add\n        /* \"#utility.yul\":11556:11575   */\n      swap1\n      pop\n        /* \"#utility.yul\":11215:11581   */\n      swap2\n      swap1\n      pop\n      jump\t// out\n        /* \"#utility.yul\":11587:12006   */\n    tag_142:\n        /* \"#utility.yul\":11753:11757   */\n      0x00\n        /* \"#utility.yul\":11791:11793   */\n      0x20\n        /* \"#utility.yul\":11780:11789   */\n      dup3\n        /* \"#utility.yul\":11776:11794   */\n      add\n        /* \"#utility.yul\":11768:11794   */\n      swap1\n      pop\n        /* \"#utility.yul\":11840:11849   */\n      dup2\n        /* \"#utility.yul\":11834:11838   */\n      dup2\n        /* \"#utility.yul\":11830:11850   */\n      sub\n        /* \"#utility.yul\":11826:11827   */\n      0x00\n        /* \"#utility.yul\":11815:11824   */\n      dup4\n        /* \"#utility.yul\":11811:11828   */\n      add\n        /* \"#utility.yul\":11804:11851   */\n      mstore\n        /* \"#utility.yul\":11868:11999   */\n      tag_522\n        /* \"#utility.yul\":11994:11998   */\n      dup2\n        /* \"#utility.yul\":11868:11999   */\n      tag_344\n      jump\t// in\n    tag_522:\n        /* \"#utility.yul\":11860:11999   */\n      swap1\n      pop\n        /* \"#utility.yul\":11587:12006   */\n      swap2\n      swap1\n      pop\n      jump\t// out\n        /* \"#utility.yul\":12012:12192   */\n    tag_345:\n        /* \"#utility.yul\":12060:12137   */\n      0x4e487b7100000000000000000000000000000000000000000000000000000000\n        /* \"#utility.yul\":12057:12058   */\n      0x00\n        /* \"#utility.yul\":12050:12138   */\n      mstore\n        /* \"#utility.yul\":12157:12161   */\n      0x11\n        /* \"#utility.yul\":12154:12155   */\n      0x04\n        /* \"#utility.yul\":12147:12162   */\n      mstore\n        /* \"#utility.yul\":12181:12185   */\n      0x24\n        /* \"#utility.yul\":12178:12179   */\n      0x00\n        /* \"#utility.yul\":12171:12186   */\n      revert\n        /* \"#utility.yul\":12198:12392   */\n    tag_150:\n        /* \"#utility.yul\":12238:12242   */\n      0x00\n        /* \"#utility.yul\":12258:12278   */\n      tag_525\n        /* \"#utility.yul\":12276:12277   */\n      dup3\n        /* \"#utility.yul\":12258:12278   */\n      tag_313\n      jump\t// in\n    tag_525:\n        /* \"#utility.yul\":12253:12278   */\n      swap2\n      pop\n        /* \"#utility.yul\":12292:12312   */\n      tag_526\n        /* \"#utility.yul\":12310:12311   */\n      dup4\n        /* \"#utility.yul\":12292:12312   */\n      tag_313\n      jump\t// in\n    tag_526:\n        /* \"#utility.yul\":12287:12312   */\n      swap3\n      pop\n        /* \"#utility.yul\":12336:12337   */\n      dup3\n        /* \"#utility.yul\":12333:12334   */\n      dup3\n        /* \"#utility.yul\":12329:12338   */\n      sub\n        /* \"#utility.yul\":12321:12338   */\n      swap1\n      pop\n        /* \"#utility.yul\":12360:12361   */\n      dup2\n        /* \"#utility.yul\":12354:12358   */\n      dup2\n        /* \"#utility.yul\":12351:12362   */\n      gt\n        /* \"#utility.yul\":12348:12385   */\n      iszero\n      tag_527\n      jumpi\n        /* \"#utility.yul\":12365:12383   */\n      tag_528\n      tag_345\n      jump\t// in\n    tag_528:\n        /* \"#utility.yul\":12348:12385   */\n    tag_527:\n        /* \"#utility.yul\":12198:12392   */\n      swap3\n      swap2\n      pop\n      pop\n      jump\t// out\n        /* \"#utility.yul\":12398:12589   */\n    tag_157:\n        /* \"#utility.yul\":12438:12441   */\n      0x00\n        /* \"#utility.yul\":12457:12477   */\n      tag_530\n        /* \"#utility.yul\":12475:12476   */\n      dup3\n        /* \"#utility.yul\":12457:12477   */\n      tag_313\n      jump\t// in\n    tag_530:\n        /* \"#utility.yul\":12452:12477   */\n      swap2\n      pop\n        /* \"#utility.yul\":12491:12511   */\n      tag_531\n        /* \"#utility.yul\":12509:12510   */\n      dup4\n        /* \"#utility.yul\":12491:12511   */\n      tag_313\n      jump\t// in\n    tag_531:\n        /* \"#utility.yul\":12486:12511   */\n      swap3\n      pop\n        /* \"#utility.yul\":12534:12535   */\n      dup3\n        /* \"#utility.yul\":12531:12532   */\n      dup3\n        /* \"#utility.yul\":12527:12536   */\n      add\n        /* \"#utility.yul\":12520:12536   */\n      swap1\n      pop\n        /* \"#utility.yul\":12555:12558   */\n      dup1\n        /* \"#utility.yul\":12552:12553   */\n      dup3\n        /* \"#utility.yul\":12549:12559   */\n      gt\n        /* \"#utility.yul\":12546:12582   */\n      iszero\n      tag_532\n      jumpi\n        /* \"#utility.yul\":12562:12580   */\n      tag_533\n      tag_345\n      jump\t// in\n    tag_533:\n        /* \"#utility.yul\":12546:12582   */\n    tag_532:\n        /* \"#utility.yul\":12398:12589   */\n      swap3\n      swap2\n      pop\n      pop\n      jump\t// out\n        /* \"#utility.yul\":12595:12828   */\n    tag_175:\n        /* \"#utility.yul\":12634:12637   */\n      0x00\n        /* \"#utility.yul\":12657:12681   */\n      tag_535\n        /* \"#utility.yul\":12675:12680   */\n      dup3\n        /* \"#utility.yul\":12657:12681   */\n      tag_313\n      jump\t// in\n    tag_535:\n        /* \"#utility.yul\":12648:12681   */\n      swap2\n      pop\n        /* \"#utility.yul\":12703:12769   */\n      0xffffffffffffffffffffffffffffffffffffffffffffffffffffffffffffffff\n        /* \"#utility.yul\":12696:12701   */\n      dup3\n        /* \"#utility.yul\":12693:12770   */\n      sub\n        /* \"#utility.yul\":12690:12793   */\n      tag_536\n      jumpi\n        /* \"#utility.yul\":12773:12791   */\n      tag_537\n      tag_345\n      jump\t// in\n    tag_537:\n        /* \"#utility.yul\":12690:12793   */\n    tag_536:\n        /* \"#utility.yul\":12820:12821   */\n      0x01\n        /* \"#utility.yul\":12813:12818   */\n      dup3\n        /* \"#utility.yul\":12809:12822   */\n      add\n        /* \"#utility.yul\":12802:12822   */\n      swap1\n      pop\n        /* \"#utility.yul\":12595:12828   */\n      swap2\n      swap1\n      pop\n      jump\t// out\n        /* \"#utility.yul\":12834:12975   */\n    tag_346:\n        /* \"#utility.yul\":12883:12887   */\n      0x00\n        /* \"#utility.yul\":12906:12909   */\n      dup2\n        /* \"#utility.yul\":12898:12909   */\n      swap1\n      pop\n        /* \"#utility.yul\":12929:12932   */\n      dup2\n        /* \"#utility.yul\":12926:12927   */\n      0x00\n        /* \"#utility.yul\":12919:12933   */\n      mstore\n        /* \"#utility.yul\":12963:12967   */\n      0x20\n        /* \"#utility.yul\":12960:12961   */\n      0x00\n        /* \"#utility.yul\":12950:12968   */\n      keccak256\n        /* \"#utility.yul\":12942:12968   */\n      swap1\n      pop\n        /* \"#utility.yul\":12834:12975   */\n      swap2\n      swap1\n      pop\n      jump\t// out\n        /* \"#utility.yul\":12981:13074   */\n    tag_347:\n        /* \"#utility.yul\":13018:13024   */\n      0x00\n        /* \"#utility.yul\":13065:13067   */\n      0x20\n        /* \"#utility.yul\":13060:13062   */\n      0x1f\n        /* \"#utility.yul\":13053:13058   */\n      dup4\n        /* \"#utility.yul\":13049:13063   */\n      add\n        /* \"#utility.yul\":13045:13068   */\n      div\n        /* \"#utility.yul\":13035:13068   */\n      swap1\n      pop\n        /* \"#utility.yul\":12981:13074   */\n      swap2\n      swap1\n      pop\n      jump\t// out\n        /* \"#utility.yul\":13080:13187   */\n    tag_348:\n        /* \"#utility.yul\":13124:13132   */\n      0x00\n        /* \"#utility.yul\":13174:13179   */\n      dup3\n        /* \"#utility.yul\":13168:13172   */\n      dup3\n        /* \"#utility.yul\":13164:13180   */\n      shl\n        /* \"#utility.yul\":13143:13180   */\n      swap1\n      pop\n        /* \"#utility.yul\":13080:13187   */\n      swap3\n      swap2\n      pop\n      pop\n      jump\t// out\n        /* \"#utility.yul\":13193:13586   */\n    tag_349:\n        /* \"#utility.yul\":13262:13268   */\n      0x00\n        /* \"#utility.yul\":13312:13313   */\n      0x08\n        /* \"#utility.yul\":13300:13310   */\n      dup4\n        /* \"#utility.yul\":13296:13314   */\n      mul\n        /* \"#utility.yul\":13335:13432   */\n      tag_542\n        /* \"#utility.yul\":13365:13431   */\n      0xffffffffffffffffffffffffffffffffffffffffffffffffffffffffffffffff\n        /* \"#utility.yul\":13354:13363   */\n      dup3\n        /* \"#utility.yul\":13335:13432   */\n      tag_348\n      jump\t// in\n    tag_542:\n        /* \"#utility.yul\":13453:13492   */\n      tag_543\n        /* \"#utility.yul\":13483:13491   */\n      dup7\n        /* \"#utility.yul\":13472:13481   */\n      dup4\n        /* \"#utility.yul\":13453:13492   */\n      tag_348\n      jump\t// in\n    tag_543:\n        /* \"#utility.yul\":13441:13492   */\n      swap6\n      pop\n        /* \"#utility.yul\":13525:13529   */\n      dup1\n        /* \"#utility.yul\":13521:13530   */\n      not\n        /* \"#utility.yul\":13514:13519   */\n      dup5\n        /* \"#utility.yul\":13510:13531   */\n      and\n        /* \"#utility.yul\":13501:13531   */\n      swap4\n      pop\n        /* \"#utility.yul\":13574:13578   */\n      dup1\n        /* \"#utility.yul\":13564:13572   */\n      dup7\n        /* \"#utility.yul\":13560:13579   */\n      and\n        /* \"#utility.yul\":13553:13558   */\n      dup5\n        /* \"#utility.yul\":13550:13580   */\n      or\n        /* \"#utility.yul\":13540:13580   */\n      swap3\n      pop\n        /* \"#utility.yul\":13269:13586   */\n      pop\n      pop\n        /* \"#utility.yul\":13193:13586   */\n      swap4\n      swap3\n      pop\n      pop\n      pop\n      jump\t// out\n        /* \"#utility.yul\":13592:13652   */\n    tag_350:\n        /* \"#utility.yul\":13620:13623   */\n      0x00\n        /* \"#utility.yul\":13641:13646   */\n      dup2\n        /* \"#utility.yul\":13634:13646   */\n      swap1\n      pop\n        /* \"#utility.yul\":13592:13652   */\n      swap2\n      swap1\n      pop\n      jump\t// out\n        /* \"#utility.yul\":13658:13800   */\n    tag_351:\n        /* \"#utility.yul\":13708:13717   */\n      0x00\n        /* \"#utility.yul\":13741:13794   */\n      tag_546\n        /* \"#utility.yul\":13759:13793   */\n      tag_547\n        /* \"#utility.yul\":13768:13792   */\n      tag_548\n        /* \"#utility.yul\":13786:13791   */\n      dup5\n        /* \"#utility.yul\":13768:13792   */\n      tag_313\n      jump\t// in\n    tag_548:\n        /* \"#utility.yul\":13759:13793   */\n      tag_350\n      jump\t// in\n    tag_547:\n        /* \"#utility.yul\":13741:13794   */\n      tag_313\n      jump\t// in\n    tag_546:\n        /* \"#utility.yul\":13728:13794   */\n      swap1\n      pop\n        /* \"#utility.yul\":13658:13800   */\n      swap2\n      swap1\n      pop\n      jump\t// out\n        /* \"#utility.yul\":13806:13881   */\n    tag_352:\n        /* \"#utility.yul\":13849:13852   */\n      0x00\n        /* \"#utility.yul\":13870:13875   */\n      dup2\n        /* \"#utility.yul\":13863:13875   */\n      swap1\n      pop\n        /* \"#utility.yul\":13806:13881   */\n      swap2\n      swap1\n      pop\n      jump\t// out\n        /* \"#utility.yul\":13887:14156   */\n    tag_353:\n        /* \"#utility.yul\":13997:14036   */\n      tag_551\n        /* \"#utility.yul\":14028:14035   */\n      dup4\n        /* \"#utility.yul\":13997:14036   */\n      tag_351\n      jump\t// in\n    tag_551:\n        /* \"#utility.yul\":14058:14149   */\n      tag_552\n        /* \"#utility.yul\":14107:14148   */\n      tag_553\n        /* \"#utility.yul\":14131:14147   */\n      dup3\n        /* \"#utility.yul\":14107:14148   */\n      tag_352\n      jump\t// in\n    tag_553:\n        /* \"#utility.yul\":14099:14105   */\n      dup5\n        /* \"#utility.yul\":14092:14096   */\n      dup5\n        /* \"#utility.yul\":14086:14097   */\n      sload\n        /* \"#utility.yul\":14058:14149   */\n      tag_349\n      jump\t// in\n    tag_552:\n        /* \"#utility.yul\":14052:14056   */\n      dup3\n        /* \"#utility.yul\":14045:14150   */\n      sstore\n        /* \"#utility.yul\":13963:14156   */\n      pop\n        /* \"#utility.yul\":13887:14156   */\n      pop\n      pop\n      pop\n      jump\t// out\n        /* \"#utility.yul\":14162:14235   */\n    tag_354:\n        /* \"#utility.yul\":14207:14210   */\n      0x00\n        /* \"#utility.yul\":14162:14235   */\n      swap1\n      jump\t// out\n        /* \"#utility.yul\":14241:14430   */\n    tag_355:\n        /* \"#utility.yul\":14318:14350   */\n      tag_556\n      tag_354\n      jump\t// in\n    tag_556:\n        /* \"#utility.yul\":14359:14424   */\n      tag_557\n        /* \"#utility.yul\":14417:14423   */\n      dup2\n        /* \"#utility.yul\":14409:14415   */\n      dup5\n        /* \"#utility.yul\":14403:14407   */\n      dup5\n        /* \"#utility.yul\":14359:14424   */\n      tag_353\n      jump\t// in\n    tag_557:\n        /* \"#utility.yul\":14294:14430   */\n      pop\n        /* \"#utility.yul\":14241:14430   */\n      pop\n      pop\n      jump\t// out\n        /* \"#utility.yul\":14436:14622   */\n    tag_356:\n        /* \"#utility.yul\":14496:14616   */\n    tag_559:\n        /* \"#utility.yul\":14513:14516   */\n      dup2\n        /* \"#utility.yul\":14506:14511   */\n      dup2\n        /* \"#utility.yul\":14503:14517   */\n      lt\n        /* \"#utility.yul\":14496:14616   */\n      iszero\n      tag_561\n      jumpi\n        /* \"#utility.yul\":14567:14606   */\n      tag_562\n        /* \"#utility.yul\":14604:14605   */\n      0x00\n        /* \"#utility.yul\":14597:14602   */\n      dup3\n        /* \"#utility.yul\":14567:14606   */\n      tag_355\n      jump\t// in\n    tag_562:\n        /* \"#utility.yul\":14540:14541   */\n      0x01\n        /* \"#utility.yul\":14533:14538   */\n      dup2\n        /* \"#utility.yul\":14529:14542   */\n      add\n        /* \"#utility.yul\":14520:14542   */\n      swap1\n      pop\n        /* \"#utility.yul\":14496:14616   */\n      jump(tag_559)\n    tag_561:\n        /* \"#utility.yul\":14436:14622   */\n      pop\n      pop\n      jump\t// out\n        /* \"#utility.yul\":14628:15171   */\n    tag_357:\n        /* \"#utility.yul\":14729:14731   */\n      0x1f\n        /* \"#utility.yul\":14724:14727   */\n      dup3\n        /* \"#utility.yul\":14721:14732   */\n      gt\n        /* \"#utility.yul\":14718:15164   */\n      iszero\n      tag_564\n      jumpi\n        /* \"#utility.yul\":14763:14801   */\n      tag_565\n        /* \"#utility.yul\":14795:14800   */\n      dup2\n        /* \"#utility.yul\":14763:14801   */\n      tag_346\n      jump\t// in\n    tag_565:\n        /* \"#utility.yul\":14847:14876   */\n      tag_566\n        /* \"#utility.yul\":14865:14875   */\n      dup5\n        /* \"#utility.yul\":14847:14876   */\n      tag_347\n      jump\t// in\n    tag_566:\n        /* \"#utility.yul\":14837:14845   */\n      dup2\n        /* \"#utility.yul\":14833:14877   */\n      add\n        /* \"#utility.yul\":15030:15032   */\n      0x20\n        /* \"#utility.yul\":15018:15028   */\n      dup6\n        /* \"#utility.yul\":15015:15033   */\n      lt\n        /* \"#utility.yul\":15012:15061   */\n      iszero\n      tag_567\n      jumpi\n        /* \"#utility.yul\":15051:15059   */\n      dup2\n        /* \"#utility.yul\":15036:15059   */\n      swap1\n      pop\n        /* \"#utility.yul\":15012:15061   */\n    tag_567:\n        /* \"#utility.yul\":15074:15154   */\n      tag_568\n        /* \"#utility.yul\":15130:15152   */\n      tag_569\n        /* \"#utility.yul\":15148:15151   */\n      dup6\n        /* \"#utility.yul\":15130:15152   */\n      tag_347\n      jump\t// in\n    tag_569:\n        /* \"#utility.yul\":15120:15128   */\n      dup4\n        /* \"#utility.yul\":15116:15153   */\n      add\n        /* \"#utility.yul\":15103:15114   */\n      dup3\n        /* \"#utility.yul\":15074:15154   */\n      tag_356\n      jump\t// in\n    tag_568:\n        /* \"#utility.yul\":14733:15164   */\n      pop\n      pop\n        /* \"#utility.yul\":14718:15164   */\n    tag_564:\n        /* \"#utility.yul\":14628:15171   */\n      pop\n      pop\n      pop\n      jump\t// out\n        /* \"#utility.yul\":15177:15294   */\n    tag_358:\n        /* \"#utility.yul\":15231:15239   */\n      0x00\n        /* \"#utility.yul\":15281:15286   */\n      dup3\n        /* \"#utility.yul\":15275:15279   */\n      dup3\n        /* \"#utility.yul\":15271:15287   */\n      shr\n        /* \"#utility.yul\":15250:15287   */\n      swap1\n      pop\n        /* \"#utility.yul\":15177:15294   */\n      swap3\n      swap2\n      pop\n      pop\n      jump\t// out\n        /* \"#utility.yul\":15300:15469   */\n    tag_359:\n        /* \"#utility.yul\":15344:15350   */\n      0x00\n        /* \"#utility.yul\":15377:15428   */\n      tag_572\n        /* \"#utility.yul\":15425:15426   */\n      0x00\n        /* \"#utility.yul\":15421:15427   */\n      not\n        /* \"#utility.yul\":15413:15418   */\n      dup5\n        /* \"#utility.yul\":15410:15411   */\n      0x08\n        /* \"#utility.yul\":15406:15419   */\n      mul\n        /* \"#utility.yul\":15377:15428   */\n      tag_358\n      jump\t// in\n    tag_572:\n        /* \"#utility.yul\":15373:15429   */\n      not\n        /* \"#utility.yul\":15458:15462   */\n      dup1\n        /* \"#utility.yul\":15452:15456   */\n      dup4\n        /* \"#utility.yul\":15448:15463   */\n      and\n        /* \"#utility.yul\":15438:15463   */\n      swap2\n      pop\n        /* \"#utility.yul\":15351:15469   */\n      pop\n        /* \"#utility.yul\":15300:15469   */\n      swap3\n      swap2\n      pop\n      pop\n      jump\t// out\n        /* \"#utility.yul\":15474:15769   */\n    tag_360:\n        /* \"#utility.yul\":15550:15554   */\n      0x00\n        /* \"#utility.yul\":15696:15725   */\n      tag_574\n        /* \"#utility.yul\":15721:15724   */\n      dup4\n        /* \"#utility.yul\":15715:15719   */\n      dup4\n        /* \"#utility.yul\":15696:15725   */\n      tag_359\n      jump\t// in\n    tag_574:\n        /* \"#utility.yul\":15688:15725   */\n      swap2\n      pop\n        /* \"#utility.yul\":15758:15761   */\n      dup3\n        /* \"#utility.yul\":15755:15756   */\n      0x02\n        /* \"#utility.yul\":15751:15762   */\n      mul\n        /* \"#utility.yul\":15745:15749   */\n      dup3\n        /* \"#utility.yul\":15742:15763   */\n      or\n        /* \"#utility.yul\":15734:15763   */\n      swap1\n      pop\n        /* \"#utility.yul\":15474:15769   */\n      swap3\n      swap2\n      pop\n      pop\n      jump\t// out\n        /* \"#utility.yul\":15774:17169   */\n    tag_177:\n        /* \"#utility.yul\":15891:15928   */\n      tag_576\n        /* \"#utility.yul\":15924:15927   */\n      dup3\n        /* \"#utility.yul\":15891:15928   */\n      tag_320\n      jump\t// in\n    tag_576:\n        /* \"#utility.yul\":15993:16011   */\n      0xffffffffffffffff\n        /* \"#utility.yul\":15985:15991   */\n      dup2\n        /* \"#utility.yul\":15982:16012   */\n      gt\n        /* \"#utility.yul\":15979:16035   */\n      iszero\n      tag_577\n      jumpi\n        /* \"#utility.yul\":16015:16033   */\n      tag_578\n      tag_333\n      jump\t// in\n    tag_578:\n        /* \"#utility.yul\":15979:16035   */\n    tag_577:\n        /* \"#utility.yul\":16059:16097   */\n      tag_579\n        /* \"#utility.yul\":16091:16095   */\n      dup3\n        /* \"#utility.yul\":16085:16096   */\n      sload\n        /* \"#utility.yul\":16059:16097   */\n      tag_122\n      jump\t// in\n    tag_579:\n        /* \"#utility.yul\":16144:16211   */\n      tag_580\n        /* \"#utility.yul\":16204:16210   */\n      dup3\n        /* \"#utility.yul\":16196:16202   */\n      dup3\n        /* \"#utility.yul\":16190:16194   */\n      dup6\n        /* \"#utility.yul\":16144:16211   */\n      tag_357\n      jump\t// in\n    tag_580:\n        /* \"#utility.yul\":16238:16239   */\n      0x00\n        /* \"#utility.yul\":16262:16266   */\n      0x20\n        /* \"#utility.yul\":16249:16266   */\n      swap1\n      pop\n        /* \"#utility.yul\":16294:16296   */\n      0x1f\n        /* \"#utility.yul\":16286:16292   */\n      dup4\n        /* \"#utility.yul\":16283:16297   */\n      gt\n        /* \"#utility.yul\":16311:16312   */\n      0x01\n        /* \"#utility.yul\":16306:16924   */\n      dup2\n      eq\n      tag_582\n      jumpi\n        /* \"#utility.yul\":16968:16969   */\n      0x00\n        /* \"#utility.yul\":16985:16991   */\n      dup5\n        /* \"#utility.yul\":16982:17059   */\n      iszero\n      tag_583\n      jumpi\n        /* \"#utility.yul\":17034:17043   */\n      dup3\n        /* \"#utility.yul\":17029:17032   */\n      dup8\n        /* \"#utility.yul\":17025:17044   */\n      add\n        /* \"#utility.yul\":17019:17045   */\n      mload\n        /* \"#utility.yul\":17010:17045   */\n      swap1\n      pop\n        /* \"#utility.yul\":16982:17059   */\n    tag_583:\n        /* \"#utility.yul\":17085:17152   */\n      tag_584\n        /* \"#utility.yul\":17145:17151   */\n      dup6\n        /* \"#utility.yul\":17138:17143   */\n      dup3\n        /* \"#utility.yul\":17085:17152   */\n      tag_360\n      jump\t// in\n    tag_584:\n        /* \"#utility.yul\":17079:17083   */\n      dup7\n        /* \"#utility.yul\":17072:17153   */\n      sstore\n        /* \"#utility.yul\":16941:17163   */\n      pop\n        /* \"#utility.yul\":16276:17163   */\n      jump(tag_581)\n        /* \"#utility.yul\":16306:16924   */\n    tag_582:\n        /* \"#utility.yul\":16358:16362   */\n      0x1f\n        /* \"#utility.yul\":16354:16363   */\n      not\n        /* \"#utility.yul\":16346:16352   */\n      dup5\n        /* \"#utility.yul\":16342:16364   */\n      and\n        /* \"#utility.yul\":16392:16429   */\n      tag_585\n        /* \"#utility.yul\":16424:16428   */\n      dup7\n        /* \"#utility.yul\":16392:16429   */\n      tag_346\n      jump\t// in\n    tag_585:\n        /* \"#utility.yul\":16451:16452   */\n      0x00\n        /* \"#utility.yul\":16465:16673   */\n    tag_586:\n        /* \"#utility.yul\":16479:16486   */\n      dup3\n        /* \"#utility.yul\":16476:16477   */\n      dup2\n        /* \"#utility.yul\":16473:16487   */\n      lt\n        /* \"#utility.yul\":16465:16673   */\n      iszero\n      tag_588\n      jumpi\n        /* \"#utility.yul\":16558:16567   */\n      dup5\n        /* \"#utility.yul\":16553:16556   */\n      dup10\n        /* \"#utility.yul\":16549:16568   */\n      add\n        /* \"#utility.yul\":16543:16569   */\n      mload\n        /* \"#utility.yul\":16535:16541   */\n      dup3\n        /* \"#utility.yul\":16528:16570   */\n      sstore\n        /* \"#utility.yul\":16609:16610   */\n      0x01\n        /* \"#utility.yul\":16601:16607   */\n      dup3\n        /* \"#utility.yul\":16597:16611   */\n      add\n        /* \"#utility.yul\":16587:16611   */\n      swap2\n      pop\n        /* \"#utility.yul\":16656:16658   */\n      0x20\n        /* \"#utility.yul\":16645:16654   */\n      dup6\n        /* \"#utility.yul\":16641:16659   */\n      add\n        /* \"#utility.yul\":16628:16659   */\n      swap5\n      pop\n        /* \"#utility.yul\":16502:16506   */\n      0x20\n        /* \"#utility.yul\":16499:16500   */\n      dup2\n        /* \"#utility.yul\":16495:16507   */\n      add\n        /* \"#utility.yul\":16490:16507   */\n      swap1\n      pop\n        /* \"#utility.yul\":16465:16673   */\n      jump(tag_586)\n    tag_588:\n        /* \"#utility.yul\":16701:16707   */\n      dup7\n        /* \"#utility.yul\":16692:16699   */\n      dup4\n        /* \"#utility.yul\":16689:16708   */\n      lt\n        /* \"#utility.yul\":16686:16865   */\n      iszero\n      tag_589\n      jumpi\n        /* \"#utility.yul\":16759:16768   */\n      dup5\n        /* \"#utility.yul\":16754:16757   */\n      dup10\n        /* \"#utility.yul\":16750:16769   */\n      add\n        /* \"#utility.yul\":16744:16770   */\n      mload\n        /* \"#utility.yul\":16802:16850   */\n      tag_590\n        /* \"#utility.yul\":16844:16848   */\n      0x1f\n        /* \"#utility.yul\":16836:16842   */\n      dup10\n        /* \"#utility.yul\":16832:16849   */\n      and\n        /* \"#utility.yul\":16821:16830   */\n      dup3\n        /* \"#utility.yul\":16802:16850   */\n      tag_359\n      jump\t// in\n    tag_590:\n        /* \"#utility.yul\":16794:16800   */\n      dup4\n        /* \"#utility.yul\":16787:16851   */\n      sstore\n        /* \"#utility.yul\":16709:16865   */\n      pop\n        /* \"#utility.yul\":16686:16865   */\n    tag_589:\n        /* \"#utility.yul\":16911:16912   */\n      0x01\n        /* \"#utility.yul\":16907:16908   */\n      0x02\n        /* \"#utility.yul\":16899:16905   */\n      dup9\n        /* \"#utility.yul\":16895:16909   */\n      mul\n        /* \"#utility.yul\":16891:16913   */\n      add\n        /* \"#utility.yul\":16885:16889   */\n      dup9\n        /* \"#utility.yul\":16878:16914   */\n      sstore\n        /* \"#utility.yul\":16313:16924   */\n      pop\n      pop\n      pop\n        /* \"#utility.yul\":16276:17163   */\n    tag_581:\n      pop\n        /* \"#utility.yul\":15866:17169   */\n      pop\n      pop\n      pop\n        /* \"#utility.yul\":15774:17169   */\n      pop\n      pop\n      jump\t// out\n        /* \"#utility.yul\":17175:17399   */\n    tag_361:\n        /* \"#utility.yul\":17315:17349   */\n      0x45524332303a2064656372656173656420616c6c6f77616e63652062656c6f77\n        /* \"#utility.yul\":17311:17312   */\n      0x00\n        /* \"#utility.yul\":17303:17309   */\n      dup3\n        /* \"#utility.yul\":17299:17313   */\n      add\n        /* \"#utility.yul\":17292:17350   */\n      mstore\n        /* \"#utility.yul\":17384:17391   */\n      0x207a65726f000000000000000000000000000000000000000000000000000000\n        /* \"#utility.yul\":17379:17381   */\n      0x20\n        /* \"#utility.yul\":17371:17377   */\n      dup3\n        /* \"#utility.yul\":17367:17382   */\n      add\n        /* \"#utility.yul\":17360:17392   */\n      mstore\n        /* \"#utility.yul\":17175:17399   */\n      pop\n      jump\t// out\n        /* \"#utility.yul\":17405:17771   */\n    tag_362:\n        /* \"#utility.yul\":17547:17550   */\n      0x00\n        /* \"#utility.yul\":17568:17635   */\n      tag_593\n        /* \"#utility.yul\":17632:17634   */\n      0x25\n        /* \"#utility.yul\":17627:17630   */\n      dup4\n        /* \"#utility.yul\":17568:17635   */\n      tag_321\n      jump\t// in\n    tag_593:\n        /* \"#utility.yul\":17561:17635   */\n      swap2\n      pop\n        /* \"#utility.yul\":17644:17737   */\n      tag_594\n        /* \"#utility.yul\":17733:17736   */\n      dup3\n        /* \"#utility.yul\":17644:17737   */\n      tag_361\n      jump\t// in\n    tag_594:\n        /* \"#utility.yul\":17762:17764   */\n      0x40\n        /* \"#utility.yul\":17757:17760   */\n      dup3\n        /* \"#utility.yul\":17753:17765   */\n      add\n        /* \"#utility.yul\":17746:17765   */\n      swap1\n      pop\n        /* \"#utility.yul\":17405:17771   */\n      swap2\n      swap1\n      pop\n      jump\t// out\n        /* \"#utility.yul\":17777:18196   */\n    tag_202:\n        /* \"#utility.yul\":17943:17947   */\n      0x00\n        /* \"#utility.yul\":17981:17983   */\n      0x20\n        /* \"#utility.yul\":17970:17979   */\n      dup3\n        /* \"#utility.yul\":17966:17984   */\n      add\n        /* \"#utility.yul\":17958:17984   */\n      swap1\n      pop\n        /* \"#utility.yul\":18030:18039   */\n      dup2\n        /* \"#utility.yul\":18024:18028   */\n      dup2\n        /* \"#utility.yul\":18020:18040   */\n      sub\n        /* \"#utility.yul\":18016:18017   */\n      0x00\n        /* \"#utility.yul\":18005:18014   */\n      dup4\n        /* \"#utility.yul\":18001:18018   */\n      add\n        /* \"#utility.yul\":17994:18041   */\n      mstore\n        /* \"#utility.yul\":18058:18189   */\n      tag_596\n        /* \"#utility.yul\":18184:18188   */\n      dup2\n        /* \"#utility.yul\":18058:18189   */\n      tag_362\n      jump\t// in\n    tag_596:\n        /* \"#utility.yul\":18050:18189   */\n      swap1\n      pop\n        /* \"#utility.yul\":17777:18196   */\n      swap2\n      swap1\n      pop\n      jump\t// out\n        /* \"#utility.yul\":18202:18434   */\n    tag_363:\n        /* \"#utility.yul\":18342:18376   */\n      0x5445583a20766f7465722068617320616c726561647920766f746564206f6e20\n        /* \"#utility.yul\":18338:18339   */\n      0x00\n        /* \"#utility.yul\":18330:18336   */\n      dup3\n        /* \"#utility.yul\":18326:18340   */\n      add\n        /* \"#utility.yul\":18319:18377   */\n      mstore\n        /* \"#utility.yul\":18411:18426   */\n      0x746869732070726f706f73616c00000000000000000000000000000000000000\n        /* \"#utility.yul\":18406:18408   */\n      0x20\n        /* \"#utility.yul\":18398:18404   */\n      dup3\n        /* \"#utility.yul\":18394:18409   */\n      add\n        /* \"#utility.yul\":18387:18427   */\n      mstore\n        /* \"#utility.yul\":18202:18434   */\n      pop\n      jump\t// out\n        /* \"#utility.yul\":18440:18806   */\n    tag_364:\n        /* \"#utility.yul\":18582:18585   */\n      0x00\n        /* \"#utility.yul\":18603:18670   */\n      tag_599\n        /* \"#utility.yul\":18667:18669   */\n      0x2d\n        /* \"#utility.yul\":18662:18665   */\n      dup4\n        /* \"#utility.yul\":18603:18670   */\n      tag_321\n      jump\t// in\n    tag_599:\n        /* \"#utility.yul\":18596:18670   */\n      swap2\n      pop\n        /* \"#utility.yul\":18679:18772   */\n      tag_600\n        /* \"#utility.yul\":18768:18771   */\n      dup3\n        /* \"#utility.yul\":18679:18772   */\n      tag_363\n      jump\t// in\n    tag_600:\n        /* \"#utility.yul\":18797:18799   */\n      0x40\n        /* \"#utility.yul\":18792:18795   */\n      dup3\n        /* \"#utility.yul\":18788:18800   */\n      add\n        /* \"#utility.yul\":18781:18800   */\n      swap1\n      pop\n        /* \"#utility.yul\":18440:18806   */\n      swap2\n      swap1\n      pop\n      jump\t// out\n        /* \"#utility.yul\":18812:19231   */\n    tag_218:\n        /* \"#utility.yul\":18978:18982   */\n      0x00\n        /* \"#utility.yul\":19016:19018   */\n      0x20\n        /* \"#utility.yul\":19005:19014   */\n      dup3\n        /* \"#utility.yul\":19001:19019   */\n      add\n        /* \"#utility.yul\":18993:19019   */\n      swap1\n      pop\n        /* \"#utility.yul\":19065:19074   */\n      dup2\n        /* \"#utility.yul\":19059:19063   */\n      dup2\n        /* \"#utility.yul\":19055:19075   */\n      sub\n        /* \"#utility.yul\":19051:19052   */\n      0x00\n        /* \"#utility.yul\":19040:19049   */\n      dup4\n        /* \"#utility.yul\":19036:19053   */\n      add\n        /* \"#utility.yul\":19029:19076   */\n      mstore\n        /* \"#utility.yul\":19093:19224   */\n      tag_602\n        /* \"#utility.yul\":19219:19223   */\n      dup2\n        /* \"#utility.yul\":19093:19224   */\n      tag_364\n      jump\t// in\n    tag_602:\n        /* \"#utility.yul\":19085:19224   */\n      swap1\n      pop\n        /* \"#utility.yul\":18812:19231   */\n      swap2\n      swap1\n      pop\n      jump\t// out\n        /* \"#utility.yul\":19237:19461   */\n    tag_365:\n        /* \"#utility.yul\":19377:19411   */\n      0x5445583a20766f74657220686173206e6f20746f6b656e7320746f20766f7465\n        /* \"#utility.yul\":19373:19374   */\n      0x00\n        /* \"#utility.yul\":19365:19371   */\n      dup3\n        /* \"#utility.yul\":19361:19375   */\n      add\n        /* \"#utility.yul\":19354:19412   */\n      mstore\n        /* \"#utility.yul\":19446:19453   */\n      0x2077697468000000000000000000000000000000000000000000000000000000\n        /* \"#utility.yul\":19441:19443   */\n      0x20\n        /* \"#utility.yul\":19433:19439   */\n      dup3\n        /* \"#utility.yul\":19429:19444   */\n      add\n        /* \"#utility.yul\":19422:19454   */\n      mstore\n        /* \"#utility.yul\":19237:19461   */\n      pop\n      jump\t// out\n        /* \"#utility.yul\":19467:19833   */\n    tag_366:\n        /* \"#utility.yul\":19609:19612   */\n      0x00\n        /* \"#utility.yul\":19630:19697   */\n      tag_605\n        /* \"#utility.yul\":19694:19696   */\n      0x25\n        /* \"#utility.yul\":19689:19692   */\n      dup4\n        /* \"#utility.yul\":19630:19697   */\n      tag_321\n      jump\t// in\n    tag_605:\n        /* \"#utility.yul\":19623:19697   */\n      swap2\n      pop\n        /* \"#utility.yul\":19706:19799   */\n      tag_606\n        /* \"#utility.yul\":19795:19798   */\n      dup3\n        /* \"#utility.yul\":19706:19799   */\n      tag_365\n      jump\t// in\n    tag_606:\n        /* \"#utility.yul\":19824:19826   */\n      0x40\n        /* \"#utility.yul\":19819:19822   */\n      dup3\n        /* \"#utility.yul\":19815:19827   */\n      add\n        /* \"#utility.yul\":19808:19827   */\n      swap1\n      pop\n        /* \"#utility.yul\":19467:19833   */\n      swap2\n      swap1\n      pop\n      jump\t// out\n        /* \"#utility.yul\":19839:20258   */\n    tag_222:\n        /* \"#utility.yul\":20005:20009   */\n      0x00\n        /* \"#utility.yul\":20043:20045   */\n      0x20\n        /* \"#utility.yul\":20032:20041   */\n      dup3\n        /* \"#utility.yul\":20028:20046   */\n      add\n        /* \"#utility.yul\":20020:20046   */\n      swap1\n      pop\n        /* \"#utility.yul\":20092:20101   */\n      dup2\n        /* \"#utility.yul\":20086:20090   */\n      dup2\n        /* \"#utility.yul\":20082:20102   */\n      sub\n        /* \"#utility.yul\":20078:20079   */\n      0x00\n        /* \"#utility.yul\":20067:20076   */\n      dup4\n        /* \"#utility.yul\":20063:20080   */\n      add\n        /* \"#utility.yul\":20056:20103   */\n      mstore\n        /* \"#utility.yul\":20120:20251   */\n      tag_608\n        /* \"#utility.yul\":20246:20250   */\n      dup2\n        /* \"#utility.yul\":20120:20251   */\n      tag_366\n      jump\t// in\n    tag_608:\n        /* \"#utility.yul\":20112:20251   */\n      swap1\n      pop\n        /* \"#utility.yul\":19839:20258   */\n      swap2\n      swap1\n      pop\n      jump\t// out\n        /* \"#utility.yul\":20264:20489   */\n    tag_367:\n        /* \"#utility.yul\":20404:20438   */\n      0x4f776e61626c653a206e6577206f776e657220697320746865207a65726f2061\n        /* \"#utility.yul\":20400:20401   */\n      0x00\n        /* \"#utility.yul\":20392:20398   */\n      dup3\n        /* \"#utility.yul\":20388:20402   */\n      add\n        /* \"#utility.yul\":20381:20439   */\n      mstore\n        /* \"#utility.yul\":20473:20481   */\n      0x6464726573730000000000000000000000000000000000000000000000000000\n        /* \"#utility.yul\":20468:20470   */\n      0x20\n        /* \"#utility.yul\":20460:20466   */\n      dup3\n        /* \"#utility.yul\":20456:20471   */\n      add\n        /* \"#utility.yul\":20449:20482   */\n      mstore\n        /* \"#utility.yul\":20264:20489   */\n      pop\n      jump\t// out\n        /* \"#utility.yul\":20495:20861   */\n    tag_368:\n        /* \"#utility.yul\":20637:20640   */\n      0x00\n        /* \"#utility.yul\":20658:20725   */\n      tag_611\n        /* \"#utility.yul\":20722:20724   */\n      0x26\n        /* \"#utility.yul\":20717:20720   */\n      dup4\n        /* \"#utility.yul\":20658:20725   */\n      tag_321\n      jump\t// in\n    tag_611:\n        /* \"#utility.yul\":20651:20725   */\n      swap2\n      pop\n        /* \"#utility.yul\":20734:20827   */\n      tag_612\n        /* \"#utility.yul\":20823:20826   */\n      dup3\n        /* \"#utility.yul\":20734:20827   */\n      tag_367\n      jump\t// in\n    tag_612:\n        /* \"#utility.yul\":20852:20854   */\n      0x40\n        /* \"#utility.yul\":20847:20850   */\n      dup3\n        /* \"#utility.yul\":20843:20855   */\n      add\n        /* \"#utility.yul\":20836:20855   */\n      swap1\n      pop\n        /* \"#utility.yul\":20495:20861   */\n      swap2\n      swap1\n      pop\n      jump\t// out\n        /* \"#utility.yul\":20867:21286   */\n    tag_235:\n        /* \"#utility.yul\":21033:21037   */\n      0x00\n        /* \"#utility.yul\":21071:21073   */\n      0x20\n        /* \"#utility.yul\":21060:21069   */\n      dup3\n        /* \"#utility.yul\":21056:21074   */\n      add\n        /* \"#utility.yul\":21048:21074   */\n      swap1\n      pop\n        /* \"#utility.yul\":21120:21129   */\n      dup2\n        /* \"#utility.yul\":21114:21118   */\n      dup2\n        /* \"#utility.yul\":21110:21130   */\n      sub\n        /* \"#utility.yul\":21106:21107   */\n      0x00\n        /* \"#utility.yul\":21095:21104   */\n      dup4\n        /* \"#utility.yul\":21091:21108   */\n      add\n        /* \"#utility.yul\":21084:21131   */\n      mstore\n        /* \"#utility.yul\":21148:21279   */\n      tag_614\n        /* \"#utility.yul\":21274:21278   */\n      dup2\n        /* \"#utility.yul\":21148:21279   */\n      tag_368\n      jump\t// in\n    tag_614:\n        /* \"#utility.yul\":21140:21279   */\n      swap1\n      pop\n        /* \"#utility.yul\":20867:21286   */\n      swap2\n      swap1\n      pop\n      jump\t// out\n        /* \"#utility.yul\":21292:21515   */\n    tag_369:\n        /* \"#utility.yul\":21432:21466   */\n      0x45524332303a20617070726f76652066726f6d20746865207a65726f20616464\n        /* \"#utility.yul\":21428:21429   */\n      0x00\n        /* \"#utility.yul\":21420:21426   */\n      dup3\n        /* \"#utility.yul\":21416:21430   */\n      add\n        /* \"#utility.yul\":21409:21467   */\n      mstore\n        /* \"#utility.yul\":21501:21507   */\n      0x7265737300000000000000000000000000000000000000000000000000000000\n        /* \"#utility.yul\":21496:21498   */\n      0x20\n        /* \"#utility.yul\":21488:21494   */\n      dup3\n        /* \"#utility.yul\":21484:21499   */\n      add\n        /* \"#utility.yul\":21477:21508   */\n      mstore\n        /* \"#utility.yul\":21292:21515   */\n      pop\n      jump\t// out\n        /* \"#utility.yul\":21521:21887   */\n    tag_370:\n        /* \"#utility.yul\":21663:21666   */\n      0x00\n        /* \"#utility.yul\":21684:21751   */\n      tag_617\n        /* \"#utility.yul\":21748:21750   */\n      0x24\n        /* \"#utility.yul\":21743:21746   */\n      dup4\n        /* \"#utility.yul\":21684:21751   */\n      tag_321\n      jump\t// in\n    tag_617:\n        /* \"#utility.yul\":21677:21751   */\n      swap2\n      pop\n        /* \"#utility.yul\":21760:21853   */\n      tag_618\n        /* \"#utility.yul\":21849:21852   */\n      dup3\n        /* \"#utility.yul\":21760:21853   */\n      tag_369\n      jump\t// in\n    tag_618:\n        /* \"#utility.yul\":21878:21880   */\n      0x40\n        /* \"#utility.yul\":21873:21876   */\n      dup3\n        /* \"#utility.yul\":21869:21881   */\n      add\n        /* \"#utility.yul\":21862:21881   */\n      swap1\n      pop\n        /* \"#utility.yul\":21521:21887   */\n      swap2\n      swap1\n      pop\n      jump\t// out\n        /* \"#utility.yul\":21893:22312   */\n    tag_241:\n        /* \"#utility.yul\":22059:22063   */\n      0x00\n        /* \"#utility.yul\":22097:22099   */\n      0x20\n        /* \"#utility.yul\":22086:22095   */\n      dup3\n        /* \"#utility.yul\":22082:22100   */\n      add\n        /* \"#utility.yul\":22074:22100   */\n      swap1\n      pop\n        /* \"#utility.yul\":22146:22155   */\n      dup2\n        /* \"#utility.yul\":22140:22144   */\n      dup2\n        /* \"#utility.yul\":22136:22156   */\n      sub\n        /* \"#utility.yul\":22132:22133   */\n      0x00\n        /* \"#utility.yul\":22121:22130   */\n      dup4\n        /* \"#utility.yul\":22117:22134   */\n      add\n        /* \"#utility.yul\":22110:22157   */\n      mstore\n        /* \"#utility.yul\":22174:22305   */\n      tag_620\n        /* \"#utility.yul\":22300:22304   */\n      dup2\n        /* \"#utility.yul\":22174:22305   */\n      tag_370\n      jump\t// in\n    tag_620:\n        /* \"#utility.yul\":22166:22305   */\n      swap1\n      pop\n        /* \"#utility.yul\":21893:22312   */\n      swap2\n      swap1\n      pop\n      jump\t// out\n        /* \"#utility.yul\":22318:22539   */\n    tag_371:\n        /* \"#utility.yul\":22458:22492   */\n      0x45524332303a20617070726f766520746f20746865207a65726f206164647265\n        /* \"#utility.yul\":22454:22455   */\n      0x00\n        /* \"#utility.yul\":22446:22452   */\n      dup3\n        /* \"#utility.yul\":22442:22456   */\n      add\n        /* \"#utility.yul\":22435:22493   */\n      mstore\n        /* \"#utility.yul\":22527:22531   */\n      0x7373000000000000000000000000000000000000000000000000000000000000\n        /* \"#utility.yul\":22522:22524   */\n      0x20\n        /* \"#utility.yul\":22514:22520   */\n      dup3\n        /* \"#utility.yul\":22510:22525   */\n      add\n        /* \"#utility.yul\":22503:22532   */\n      mstore\n        /* \"#utility.yul\":22318:22539   */\n      pop\n      jump\t// out\n        /* \"#utility.yul\":22545:22911   */\n    tag_372:\n        /* \"#utility.yul\":22687:22690   */\n      0x00\n        /* \"#utility.yul\":22708:22775   */\n      tag_623\n        /* \"#utility.yul\":22772:22774   */\n      0x22\n        /* \"#utility.yul\":22767:22770   */\n      dup4\n        /* \"#utility.yul\":22708:22775   */\n      tag_321\n      jump\t// in\n    tag_623:\n        /* \"#utility.yul\":22701:22775   */\n      swap2\n      pop\n        /* \"#utility.yul\":22784:22877   */\n      tag_624\n        /* \"#utility.yul\":22873:22876   */\n      dup3\n        /* \"#utility.yul\":22784:22877   */\n      tag_371\n      jump\t// in\n    tag_624:\n        /* \"#utility.yul\":22902:22904   */\n      0x40\n        /* \"#utility.yul\":22897:22900   */\n      dup3\n        /* \"#utility.yul\":22893:22905   */\n      add\n        /* \"#utility.yul\":22886:22905   */\n      swap1\n      pop\n        /* \"#utility.yul\":22545:22911   */\n      swap2\n      swap1\n      pop\n      jump\t// out\n        /* \"#utility.yul\":22917:23336   */\n    tag_244:\n        /* \"#utility.yul\":23083:23087   */\n      0x00\n        /* \"#utility.yul\":23121:23123   */\n      0x20\n        /* \"#utility.yul\":23110:23119   */\n      dup3\n        /* \"#utility.yul\":23106:23124   */\n      add\n        /* \"#utility.yul\":23098:23124   */\n      swap1\n      pop\n        /* \"#utility.yul\":23170:23179   */\n      dup2\n        /* \"#utility.yul\":23164:23168   */\n      dup2\n        /* \"#utility.yul\":23160:23180   */\n      sub\n        /* \"#utility.yul\":23156:23157   */\n      0x00\n        /* \"#utility.yul\":23145:23154   */\n      dup4\n        /* \"#utility.yul\":23141:23158   */\n      add\n        /* \"#utility.yul\":23134:23181   */\n      mstore\n        /* \"#utility.yul\":23198:23329   */\n      tag_626\n        /* \"#utility.yul\":23324:23328   */\n      dup2\n        /* \"#utility.yul\":23198:23329   */\n      tag_372\n      jump\t// in\n    tag_626:\n        /* \"#utility.yul\":23190:23329   */\n      swap1\n      pop\n        /* \"#utility.yul\":22917:23336   */\n      swap2\n      swap1\n      pop\n      jump\t// out\n        /* \"#utility.yul\":23342:23566   */\n    tag_373:\n        /* \"#utility.yul\":23482:23516   */\n      0x45524332303a207472616e736665722066726f6d20746865207a65726f206164\n        /* \"#utility.yul\":23478:23479   */\n      0x00\n        /* \"#utility.yul\":23470:23476   */\n      dup3\n        /* \"#utility.yul\":23466:23480   */\n      add\n        /* \"#utility.yul\":23459:23517   */\n      mstore\n        /* \"#utility.yul\":23551:23558   */\n      0x6472657373000000000000000000000000000000000000000000000000000000\n        /* \"#utility.yul\":23546:23548   */\n      0x20\n        /* \"#utility.yul\":23538:23544   */\n      dup3\n        /* \"#utility.yul\":23534:23549   */\n      add\n        /* \"#utility.yul\":23527:23559   */\n      mstore\n        /* \"#utility.yul\":23342:23566   */\n      pop\n      jump\t// out\n        /* \"#utility.yul\":23572:23938   */\n    tag_374:\n        /* \"#utility.yul\":23714:23717   */\n      0x00\n        /* \"#utility.yul\":23735:23802   */\n      tag_629\n        /* \"#utility.yul\":23799:23801   */\n      0x25\n        /* \"#utility.yul\":23794:23797   */\n      dup4\n        /* \"#utility.yul\":23735:23802   */\n      tag_321\n      jump\t// in\n    tag_629:\n        /* \"#utility.yul\":23728:23802   */\n      swap2\n      pop\n        /* \"#utility.yul\":23811:23904   */\n      tag_630\n        /* \"#utility.yul\":23900:23903   */\n      dup3\n        /* \"#utility.yul\":23811:23904   */\n      tag_373\n      jump\t// in\n    tag_630:\n        /* \"#utility.yul\":23929:23931   */\n      0x40\n        /* \"#utility.yul\":23924:23927   */\n      dup3\n        /* \"#utility.yul\":23920:23932   */\n      add\n        /* \"#utility.yul\":23913:23932   */\n      swap1\n      pop\n        /* \"#utility.yul\":23572:23938   */\n      swap2\n      swap1\n      pop\n      jump\t// out\n        /* \"#utility.yul\":23944:24363   */\n    tag_249:\n        /* \"#utility.yul\":24110:24114   */\n      0x00\n        /* \"#utility.yul\":24148:24150   */\n      0x20\n        /* \"#utility.yul\":24137:24146   */\n      dup3\n        /* \"#utility.yul\":24133:24151   */\n      add\n        /* \"#utility.yul\":24125:24151   */\n      swap1\n      pop\n        /* \"#utility.yul\":24197:24206   */\n      dup2\n        /* \"#utility.yul\":24191:24195   */\n      dup2\n        /* \"#utility.yul\":24187:24207   */\n      sub\n        /* \"#utility.yul\":24183:24184   */\n      0x00\n        /* \"#utility.yul\":24172:24181   */\n      dup4\n        /* \"#utility.yul\":24168:24185   */\n      add\n        /* \"#utility.yul\":24161:24208   */\n      mstore\n        /* \"#utility.yul\":24225:24356   */\n      tag_632\n        /* \"#utility.yul\":24351:24355   */\n      dup2\n        /* \"#utility.yul\":24225:24356   */\n      tag_374\n      jump\t// in\n    tag_632:\n        /* \"#utility.yul\":24217:24356   */\n      swap1\n      pop\n        /* \"#utility.yul\":23944:24363   */\n      swap2\n      swap1\n      pop\n      jump\t// out\n        /* \"#utility.yul\":24369:24591   */\n    tag_375:\n        /* \"#utility.yul\":24509:24543   */\n      0x45524332303a207472616e7366657220746f20746865207a65726f2061646472\n        /* \"#utility.yul\":24505:24506   */\n      0x00\n        /* \"#utility.yul\":24497:24503   */\n      dup3\n        /* \"#utility.yul\":24493:24507   */\n      add\n        /* \"#utility.yul\":24486:24544   */\n      mstore\n        /* \"#utility.yul\":24578:24583   */\n      0x6573730000000000000000000000000000000000000000000000000000000000\n        /* \"#utility.yul\":24573:24575   */\n      0x20\n        /* \"#utility.yul\":24565:24571   */\n      dup3\n        /* \"#utility.yul\":24561:24576   */\n      add\n        /* \"#utility.yul\":24554:24584   */\n      mstore\n        /* \"#utility.yul\":24369:24591   */\n      pop\n      jump\t// out\n        /* \"#utility.yul\":24597:24963   */\n    tag_376:\n        /* \"#utility.yul\":24739:24742   */\n      0x00\n        /* \"#utility.yul\":24760:24827   */\n      tag_635\n        /* \"#utility.yul\":24824:24826   */\n      0x23\n        /* \"#utility.yul\":24819:24822   */\n      dup4\n        /* \"#utility.yul\":24760:24827   */\n      tag_321\n      jump\t// in\n    tag_635:\n        /* \"#utility.yul\":24753:24827   */\n      swap2\n      pop\n        /* \"#utility.yul\":24836:24929   */\n      tag_636\n        /* \"#utility.yul\":24925:24928   */\n      dup3\n        /* \"#utility.yul\":24836:24929   */\n      tag_375\n      jump\t// in\n    tag_636:\n        /* \"#utility.yul\":24954:24956   */\n      0x40\n        /* \"#utility.yul\":24949:24952   */\n      dup3\n        /* \"#utility.yul\":24945:24957   */\n      add\n        /* \"#utility.yul\":24938:24957   */\n      swap1\n      pop\n        /* \"#utility.yul\":24597:24963   */\n      swap2\n      swap1\n      pop\n      jump\t// out\n        /* \"#utility.yul\":24969:25388   */\n    tag_252:\n        /* \"#utility.yul\":25135:25139   */\n      0x00\n        /* \"#utility.yul\":25173:25175   */\n      0x20\n        /* \"#utility.yul\":25162:25171   */\n      dup3\n        /* \"#utility.yul\":25158:25176   */\n      add\n        /* \"#utility.yul\":25150:25176   */\n      swap1\n      pop\n        /* \"#utility.yul\":25222:25231   */\n      dup2\n        /* \"#utility.yul\":25216:25220   */\n      dup2\n        /* \"#utility.yul\":25212:25232   */\n      sub\n        /* \"#utility.yul\":25208:25209   */\n      0x00\n        /* \"#utility.yul\":25197:25206   */\n      dup4\n        /* \"#utility.yul\":25193:25210   */\n      add\n        /* \"#utility.yul\":25186:25233   */\n      mstore\n        /* \"#utility.yul\":25250:25381   */\n      tag_638\n        /* \"#utility.yul\":25376:25380   */\n      dup2\n        /* \"#utility.yul\":25250:25381   */\n      tag_376\n      jump\t// in\n    tag_638:\n        /* \"#utility.yul\":25242:25381   */\n      swap1\n      pop\n        /* \"#utility.yul\":24969:25388   */\n      swap2\n      swap1\n      pop\n      jump\t// out\n        /* \"#utility.yul\":25394:25619   */\n    tag_377:\n        /* \"#utility.yul\":25534:25568   */\n      0x45524332303a207472616e7366657220616d6f756e7420657863656564732062\n        /* \"#utility.yul\":25530:25531   */\n      0x00\n        /* \"#utility.yul\":25522:25528   */\n      dup3\n        /* \"#utility.yul\":25518:25532   */\n      add\n        /* \"#utility.yul\":25511:25569   */\n      mstore\n        /* \"#utility.yul\":25603:25611   */\n      0x616c616e63650000000000000000000000000000000000000000000000000000\n        /* \"#utility.yul\":25598:25600   */\n      0x20\n        /* \"#utility.yul\":25590:25596   */\n      dup3\n        /* \"#utility.yul\":25586:25601   */\n      add\n        /* \"#utility.yul\":25579:25612   */\n      mstore\n        /* \"#utility.yul\":25394:25619   */\n      pop\n      jump\t// out\n        /* \"#utility.yul\":25625:25991   */\n    tag_378:\n        /* \"#utility.yul\":25767:25770   */\n      0x00\n        /* \"#utility.yul\":25788:25855   */\n      tag_641\n        /* \"#utility.yul\":25852:25854   */\n      0x26\n        /* \"#utility.yul\":25847:25850   */\n      dup4\n        /* \"#utility.yul\":25788:25855   */\n      tag_321\n      jump\t// in\n    tag_641:\n        /* \"#utility.yul\":25781:25855   */\n      swap2\n      pop\n        /* \"#utility.yul\":25864:25957   */\n      tag_642\n        /* \"#utility.yul\":25953:25956   */\n      dup3\n        /* \"#utility.yul\":25864:25957   */\n      tag_377\n      jump\t// in\n    tag_642:\n        /* \"#utility.yul\":25982:25984   */\n      0x40\n        /* \"#utility.yul\":25977:25980   */\n      dup3\n        /* \"#utility.yul\":25973:25985   */\n      add\n        /* \"#utility.yul\":25966:25985   */\n      swap1\n      pop\n        /* \"#utility.yul\":25625:25991   */\n      swap2\n      swap1\n      pop\n      jump\t// out\n        /* \"#utility.yul\":25997:26416   */\n    tag_257:\n        /* \"#utility.yul\":26163:26167   */\n      0x00\n        /* \"#utility.yul\":26201:26203   */\n      0x20\n        /* \"#utility.yul\":26190:26199   */\n      dup3\n        /* \"#utility.yul\":26186:26204   */\n      add\n        /* \"#utility.yul\":26178:26204   */\n      swap1\n      pop\n        /* \"#utility.yul\":26250:26259   */\n      dup2\n        /* \"#utility.yul\":26244:26248   */\n      dup2\n        /* \"#utility.yul\":26240:26260   */\n      sub\n        /* \"#utility.yul\":26236:26237   */\n      0x00\n        /* \"#utility.yul\":26225:26234   */\n      dup4\n        /* \"#utility.yul\":26221:26238   */\n      add\n        /* \"#utility.yul\":26214:26261   */\n      mstore\n        /* \"#utility.yul\":26278:26409   */\n      tag_644\n        /* \"#utility.yul\":26404:26408   */\n      dup2\n        /* \"#utility.yul\":26278:26409   */\n      tag_378\n      jump\t// in\n    tag_644:\n        /* \"#utility.yul\":26270:26409   */\n      swap1\n      pop\n        /* \"#utility.yul\":25997:26416   */\n      swap2\n      swap1\n      pop\n      jump\t// out\n        /* \"#utility.yul\":26422:26604   */\n    tag_379:\n        /* \"#utility.yul\":26562:26596   */\n      0x4f776e61626c653a2063616c6c6572206973206e6f7420746865206f776e6572\n        /* \"#utility.yul\":26558:26559   */\n      0x00\n        /* \"#utility.yul\":26550:26556   */\n      dup3\n        /* \"#utility.yul\":26546:26560   */\n      add\n        /* \"#utility.yul\":26539:26597   */\n      mstore\n        /* \"#utility.yul\":26422:26604   */\n      pop\n      jump\t// out\n        /* \"#utility.yul\":26610:26976   */\n    tag_380:\n        /* \"#utility.yul\":26752:26755   */\n      0x00\n        /* \"#utility.yul\":26773:26840   */\n      tag_647\n        /* \"#utility.yul\":26837:26839   */\n      0x20\n        /* \"#utility.yul\":26832:26835   */\n      dup4\n        /* \"#utility.yul\":26773:26840   */\n      tag_321\n      jump\t// in\n    tag_647:\n        /* \"#utility.yul\":26766:26840   */\n      swap2\n      pop\n        /* \"#utility.yul\":26849:26942   */\n      tag_648\n        /* \"#utility.yul\":26938:26941   */\n      dup3\n        /* \"#utility.yul\":26849:26942   */\n      tag_379\n      jump\t// in\n    tag_648:\n        /* \"#utility.yul\":26967:26969   */\n      0x20\n        /* \"#utility.yul\":26962:26965   */\n      dup3\n        /* \"#utility.yul\":26958:26970   */\n      add\n        /* \"#utility.yul\":26951:26970   */\n      swap1\n      pop\n        /* \"#utility.yul\":26610:26976   */\n      swap2\n      swap1\n      pop\n      jump\t// out\n        /* \"#utility.yul\":26982:27401   */\n    tag_266:\n        /* \"#utility.yul\":27148:27152   */\n      0x00\n        /* \"#utility.yul\":27186:27188   */\n      0x20\n        /* \"#utility.yul\":27175:27184   */\n      dup3\n        /* \"#utility.yul\":27171:27189   */\n      add\n        /* \"#utility.yul\":27163:27189   */\n      swap1\n      pop\n        /* \"#utility.yul\":27235:27244   */\n      dup2\n        /* \"#utility.yul\":27229:27233   */\n      dup2\n        /* \"#utility.yul\":27225:27245   */\n      sub\n        /* \"#utility.yul\":27221:27222   */\n      0x00\n        /* \"#utility.yul\":27210:27219   */\n      dup4\n        /* \"#utility.yul\":27206:27223   */\n      add\n        /* \"#utility.yul\":27199:27246   */\n      mstore\n        /* \"#utility.yul\":27263:27394   */\n      tag_650\n        /* \"#utility.yul\":27389:27393   */\n      dup2\n        /* \"#utility.yul\":27263:27394   */\n      tag_380\n      jump\t// in\n    tag_650:\n        /* \"#utility.yul\":27255:27394   */\n      swap1\n      pop\n        /* \"#utility.yul\":26982:27401   */\n      swap2\n      swap1\n      pop\n      jump\t// out\n        /* \"#utility.yul\":27407:27588   */\n    tag_381:\n        /* \"#utility.yul\":27547:27580   */\n      0x45524332303a206d696e7420746f20746865207a65726f206164647265737300\n        /* \"#utility.yul\":27543:27544   */\n      0x00\n        /* \"#utility.yul\":27535:27541   */\n      dup3\n        /* \"#utility.yul\":27531:27545   */\n      add\n        /* \"#utility.yul\":27524:27581   */\n      mstore\n        /* \"#utility.yul\":27407:27588   */\n      pop\n      jump\t// out\n        /* \"#utility.yul\":27594:27960   */\n    tag_382:\n        /* \"#utility.yul\":27736:27739   */\n      0x00\n        /* \"#utility.yul\":27757:27824   */\n      tag_653\n        /* \"#utility.yul\":27821:27823   */\n      0x1f\n        /* \"#utility.yul\":27816:27819   */\n      dup4\n        /* \"#utility.yul\":27757:27824   */\n      tag_321\n      jump\t// in\n    tag_653:\n        /* \"#utility.yul\":27750:27824   */\n      swap2\n      pop\n        /* \"#utility.yul\":27833:27926   */\n      tag_654\n        /* \"#utility.yul\":27922:27925   */\n      dup3\n        /* \"#utility.yul\":27833:27926   */\n      tag_381\n      jump\t// in\n    tag_654:\n        /* \"#utility.yul\":27951:27953   */\n      0x20\n        /* \"#utility.yul\":27946:27949   */\n      dup3\n        /* \"#utility.yul\":27942:27954   */\n      add\n        /* \"#utility.yul\":27935:27954   */\n      swap1\n      pop\n        /* \"#utility.yul\":27594:27960   */\n      swap2\n      swap1\n      pop\n      jump\t// out\n        /* \"#utility.yul\":27966:28385   */\n    tag_276:\n        /* \"#utility.yul\":28132:28136   */\n      0x00\n        /* \"#utility.yul\":28170:28172   */\n      0x20\n        /* \"#utility.yul\":28159:28168   */\n      dup3\n        /* \"#utility.yul\":28155:28173   */\n      add\n        /* \"#utility.yul\":28147:28173   */\n      swap1\n      pop\n        /* \"#utility.yul\":28219:28228   */\n      dup2\n        /* \"#utility.yul\":28213:28217   */\n      dup2\n        /* \"#utility.yul\":28209:28229   */\n      sub\n        /* \"#utility.yul\":28205:28206   */\n      0x00\n        /* \"#utility.yul\":28194:28203   */\n      dup4\n        /* \"#utility.yul\":28190:28207   */\n      add\n        /* \"#utility.yul\":28183:28230   */\n      mstore\n        /* \"#utility.yul\":28247:28378   */\n      tag_656\n        /* \"#utility.yul\":28373:28377   */\n      dup2\n        /* \"#utility.yul\":28247:28378   */\n      tag_382\n      jump\t// in\n    tag_656:\n        /* \"#utility.yul\":28239:28378   */\n      swap1\n      pop\n        /* \"#utility.yul\":27966:28385   */\n      swap2\n      swap1\n      pop\n      jump\t// out\n        /* \"#utility.yul\":28391:28611   */\n    tag_383:\n        /* \"#utility.yul\":28531:28565   */\n      0x45524332303a206275726e2066726f6d20746865207a65726f20616464726573\n        /* \"#utility.yul\":28527:28528   */\n      0x00\n        /* \"#utility.yul\":28519:28525   */\n      dup3\n        /* \"#utility.yul\":28515:28529   */\n      add\n        /* \"#utility.yul\":28508:28566   */\n      mstore\n        /* \"#utility.yul\":28600:28603   */\n      0x7300000000000000000000000000000000000000000000000000000000000000\n        /* \"#utility.yul\":28595:28597   */\n      0x20\n        /* \"#utility.yul\":28587:28593   */\n      dup3\n        /* \"#utility.yul\":28583:28598   */\n      add\n        /* \"#utility.yul\":28576:28604   */\n      mstore\n        /* \"#utility.yul\":28391:28611   */\n      pop\n      jump\t// out\n        /* \"#utility.yul\":28617:28983   */\n    tag_384:\n        /* \"#utility.yul\":28759:28762   */\n      0x00\n        /* \"#utility.yul\":28780:28847   */\n      tag_659\n        /* \"#utility.yul\":28844:28846   */\n      0x21\n        /* \"#utility.yul\":28839:28842   */\n      dup4\n        /* \"#utility.yul\":28780:28847   */\n      tag_321\n      jump\t// in\n    tag_659:\n        /* \"#utility.yul\":28773:28847   */\n      swap2\n      pop\n        /* \"#utility.yul\":28856:28949   */\n      tag_660\n        /* \"#utility.yul\":28945:28948   */\n      dup3\n        /* \"#utility.yul\":28856:28949   */\n      tag_383\n      jump\t// in\n    tag_660:\n        /* \"#utility.yul\":28974:28976   */\n      0x40\n        /* \"#utility.yul\":28969:28972   */\n      dup3\n        /* \"#utility.yul\":28965:28977   */\n      add\n        /* \"#utility.yul\":28958:28977   */\n      swap1\n      pop\n        /* \"#utility.yul\":28617:28983   */\n      swap2\n      swap1\n      pop\n      jump\t// out\n        /* \"#utility.yul\":28989:29408   */\n    tag_284:\n        /* \"#utility.yul\":29155:29159   */\n      0x00\n        /* \"#utility.yul\":29193:29195   */\n      0x20\n        /* \"#utility.yul\":29182:29191   */\n      dup3\n        /* \"#utility.yul\":29178:29196   */\n      add\n        /* \"#utility.yul\":29170:29196   */\n      swap1\n      pop\n        /* \"#utility.yul\":29242:29251   */\n      dup2\n        /* \"#utility.yul\":29236:29240   */\n      dup2\n        /* \"#utility.yul\":29232:29252   */\n      sub\n        /* \"#utility.yul\":29228:29229   */\n      0x00\n        /* \"#utility.yul\":29217:29226   */\n      dup4\n        /* \"#utility.yul\":29213:29230   */\n      add\n        /* \"#utility.yul\":29206:29253   */\n      mstore\n        /* \"#utility.yul\":29270:29401   */\n      tag_662\n        /* \"#utility.yul\":29396:29400   */\n      dup2\n        /* \"#utility.yul\":29270:29401   */\n      tag_384\n      jump\t// in\n    tag_662:\n        /* \"#utility.yul\":29262:29401   */\n      swap1\n      pop\n        /* \"#utility.yul\":28989:29408   */\n      swap2\n      swap1\n      pop\n      jump\t// out\n        /* \"#utility.yul\":29414:29635   */\n    tag_385:\n        /* \"#utility.yul\":29554:29588   */\n      0x45524332303a206275726e20616d6f756e7420657863656564732062616c616e\n        /* \"#utility.yul\":29550:29551   */\n      0x00\n        /* \"#utility.yul\":29542:29548   */\n      dup3\n        /* \"#utility.yul\":29538:29552   */\n      add\n        /* \"#utility.yul\":29531:29589   */\n      mstore\n        /* \"#utility.yul\":29623:29627   */\n      0x6365000000000000000000000000000000000000000000000000000000000000\n        /* \"#utility.yul\":29618:29620   */\n      0x20\n        /* \"#utility.yul\":29610:29616   */\n      dup3\n        /* \"#utility.yul\":29606:29621   */\n      add\n        /* \"#utility.yul\":29599:29628   */\n      mstore\n        /* \"#utility.yul\":29414:29635   */\n      pop\n      jump\t// out\n        /* \"#utility.yul\":29641:30007   */\n    tag_386:\n        /* \"#utility.yul\":29783:29786   */\n      0x00\n        /* \"#utility.yul\":29804:29871   */\n      tag_665\n        /* \"#utility.yul\":29868:29870   */\n      0x22\n        /* \"#utility.yul\":29863:29866   */\n      dup4\n        /* \"#utility.yul\":29804:29871   */\n      tag_321\n      jump\t// in\n    tag_665:\n        /* \"#utility.yul\":29797:29871   */\n      swap2\n      pop\n        /* \"#utility.yul\":29880:29973   */\n      tag_666\n        /* \"#utility.yul\":29969:29972   */\n      dup3\n        /* \"#utility.yul\":29880:29973   */\n      tag_385\n      jump\t// in\n    tag_666:\n        /* \"#utility.yul\":29998:30000   */\n      0x40\n        /* \"#utility.yul\":29993:29996   */\n      dup3\n        /* \"#utility.yul\":29989:30001   */\n      add\n        /* \"#utility.yul\":29982:30001   */\n      swap1\n      pop\n        /* \"#utility.yul\":29641:30007   */\n      swap2\n      swap1\n      pop\n      jump\t// out\n        /* \"#utility.yul\":30013:30432   */\n    tag_288:\n        /* \"#utility.yul\":30179:30183   */\n      0x00\n        /* \"#utility.yul\":30217:30219   */\n      0x20\n        /* \"#utility.yul\":30206:30215   */\n      dup3\n        /* \"#utility.yul\":30202:30220   */\n      add\n        /* \"#utility.yul\":30194:30220   */\n      swap1\n      pop\n        /* \"#utility.yul\":30266:30275   */\n      dup2\n        /* \"#utility.yul\":30260:30264   */\n      dup2\n        /* \"#utility.yul\":30256:30276   */\n      sub\n        /* \"#utility.yul\":30252:30253   */\n      0x00\n        /* \"#utility.yul\":30241:30250   */\n      dup4\n        /* \"#utility.yul\":30237:30254   */\n      add\n        /* \"#utility.yul\":30230:30277   */\n      mstore\n        /* \"#utility.yul\":30294:30425   */\n      tag_668\n        /* \"#utility.yul\":30420:30424   */\n      dup2\n        /* \"#utility.yul\":30294:30425   */\n      tag_386\n      jump\t// in\n    tag_668:\n        /* \"#utility.yul\":30286:30425   */\n      swap1\n      pop\n        /* \"#utility.yul\":30013:30432   */\n      swap2\n      swap1\n      pop\n      jump\t// out\n        /* \"#utility.yul\":30438:30608   */\n    tag_387:\n        /* \"#utility.yul\":30578:30600   */\n      0x5061757361626c653a206e6f7420706175736564000000000000000000000000\n        /* \"#utility.yul\":30574:30575   */\n      0x00\n        /* \"#utility.yul\":30566:30572   */\n      dup3\n        /* \"#utility.yul\":30562:30576   */\n      add\n        /* \"#utility.yul\":30555:30601   */\n      mstore\n        /* \"#utility.yul\":30438:30608   */\n      pop\n      jump\t// out\n        /* \"#utility.yul\":30614:30980   */\n    tag_388:\n        /* \"#utility.yul\":30756:30759   */\n      0x00\n        /* \"#utility.yul\":30777:30844   */\n      tag_671\n        /* \"#utility.yul\":30841:30843   */\n      0x14\n        /* \"#utility.yul\":30836:30839   */\n      dup4\n        /* \"#utility.yul\":30777:30844   */\n      tag_321\n      jump\t// in\n    tag_671:\n        /* \"#utility.yul\":30770:30844   */\n      swap2\n      pop\n        /* \"#utility.yul\":30853:30946   */\n      tag_672\n        /* \"#utility.yul\":30942:30945   */\n      dup3\n        /* \"#utility.yul\":30853:30946   */\n      tag_387\n      jump\t// in\n    tag_672:\n        /* \"#utility.yul\":30971:30973   */\n      0x20\n        /* \"#utility.yul\":30966:30969   */\n      dup3\n        /* \"#utility.yul\":30962:30974   */\n      add\n        /* \"#utility.yul\":30955:30974   */\n      swap1\n      pop\n        /* \"#utility.yul\":30614:30980   */\n      swap2\n      swap1\n      pop\n      jump\t// out\n        /* \"#utility.yul\":30986:31405   */\n    tag_304:\n        /* \"#utility.yul\":31152:31156   */\n      0x00\n        /* \"#utility.yul\":31190:31192   */\n      0x20\n        /* \"#utility.yul\":31179:31188   */\n      dup3\n        /* \"#utility.yul\":31175:31193   */\n      add\n        /* \"#utility.yul\":31167:31193   */\n      swap1\n      pop\n        /* \"#utility.yul\":31239:31248   */\n      dup2\n        /* \"#utility.yul\":31233:31237   */\n      dup2\n        /* \"#utility.yul\":31229:31249   */\n      sub\n        /* \"#utility.yul\":31225:31226   */\n      0x00\n        /* \"#utility.yul\":31214:31223   */\n      dup4\n        /* \"#utility.yul\":31210:31227   */\n      add\n        /* \"#utility.yul\":31203:31250   */\n      mstore\n        /* \"#utility.yul\":31267:31398   */\n      tag_674\n        /* \"#utility.yul\":31393:31397   */\n      dup2\n        /* \"#utility.yul\":31267:31398   */\n      tag_388\n      jump\t// in\n    tag_674:\n        /* \"#utility.yul\":31259:31398   */\n      swap1\n      pop\n        /* \"#utility.yul\":30986:31405   */\n      swap2\n      swap1\n      pop\n      jump\t// out\n        /* \"#utility.yul\":31411:31577   */\n    tag_389:\n        /* \"#utility.yul\":31551:31569   */\n      0x5061757361626c653a2070617573656400000000000000000000000000000000\n        /* \"#utility.yul\":31547:31548   */\n      0x00\n        /* \"#utility.yul\":31539:31545   */\n      dup3\n        /* \"#utility.yul\":31535:31549   */\n      add\n        /* \"#utility.yul\":31528:31570   */\n      mstore\n        /* \"#utility.yul\":31411:31577   */\n      pop\n      jump\t// out\n        /* \"#utility.yul\":31583:31949   */\n    tag_390:\n        /* \"#utility.yul\":31725:31728   */\n      0x00\n        /* \"#utility.yul\":31746:31813   */\n      tag_677\n        /* \"#utility.yul\":31810:31812   */\n      0x10\n        /* \"#utility.yul\":31805:31808   */\n      dup4\n        /* \"#utility.yul\":31746:31813   */\n      tag_321\n      jump\t// in\n    tag_677:\n        /* \"#utility.yul\":31739:31813   */\n      swap2\n      pop\n        /* \"#utility.yul\":31822:31915   */\n      tag_678\n        /* \"#utility.yul\":31911:31914   */\n      dup3\n        /* \"#utility.yul\":31822:31915   */\n      tag_389\n      jump\t// in\n    tag_678:\n        /* \"#utility.yul\":31940:31942   */\n      0x20\n        /* \"#utility.yul\":31935:31938   */\n      dup3\n        /* \"#utility.yul\":31931:31943   */\n      add\n        /* \"#utility.yul\":31924:31943   */\n      swap1\n      pop\n        /* \"#utility.yul\":31583:31949   */\n      swap2\n      swap1\n      pop\n      jump\t// out\n        /* \"#utility.yul\":31955:32374   */\n    tag_309:\n        /* \"#utility.yul\":32121:32125   */\n      0x00\n        /* \"#utility.yul\":32159:32161   */\n      0x20\n        /* \"#utility.yul\":32148:32157   */\n      dup3\n        /* \"#utility.yul\":32144:32162   */\n      add\n        /* \"#utility.yul\":32136:32162   */\n      swap1\n      pop\n        /* \"#utility.yul\":32208:32217   */\n      dup2\n        /* \"#utility.yul\":32202:32206   */\n      dup2\n        /* \"#utility.yul\":32198:32218   */\n      sub\n        /* \"#utility.yul\":32194:32195   */\n      0x00\n        /* \"#utility.yul\":32183:32192   */\n      dup4\n        /* \"#utility.yul\":32179:32196   */\n      add\n        /* \"#utility.yul\":32172:32219   */\n      mstore\n        /* \"#utility.yul\":32236:32367   */\n      tag_680\n        /* \"#utility.yul\":32362:32366   */\n      dup2\n        /* \"#utility.yul\":32236:32367   */\n      tag_390\n      jump\t// in\n    tag_680:\n        /* \"#utility.yul\":32228:32367   */\n      swap1\n      pop\n        /* \"#utility.yul\":31955:32374   */\n      swap2\n      swap1\n      pop\n      jump\t// out\n\n    auxdata: 0xa2646970667358221220a47d14215a71498eff5fa2c5525924f6fd0a17fd67030abaa469cbe326d776d664736f6c63430008120033\n}\n",
				"bytecode": {
					"linkReferences": {},
					"object": "608060405260006006553480156200001657600080fd5b50604051620032a8380380620032a883398181016040528101906200003c9190620003b7565b6040518060400160405280601781526020017f46727569747465782043757272656e637920546f6b656e0000000000000000008152506040518060400160405280600381526020017f54455800000000000000000000000000000000000000000000000000000000008152508160039081620000b9919062000659565b508060049081620000cb919062000659565b505050620000ee620000e26200013260201b60201c565b6200013a60201b60201c565b6000600560146101000a81548160ff0219169083151502179055506200012b33620186a0836200011f91906200076f565b6200020060201b60201c565b50620008a6565b600033905090565b6000600560009054906101000a900473ffffffffffffffffffffffffffffffffffffffff16905081600560006101000a81548173ffffffffffffffffffffffffffffffffffffffff021916908373ffffffffffffffffffffffffffffffffffffffff1602179055508173ffffffffffffffffffffffffffffffffffffffff168173ffffffffffffffffffffffffffffffffffffffff167f8be0079c531659141344cd1fd0a4f28419497f9722a3daafe3b4186f6b6457e060405160405180910390a35050565b600073ffffffffffffffffffffffffffffffffffffffff168273ffffffffffffffffffffffffffffffffffffffff160362000272576040517f08c379a000000000000000000000000000000000000000000000000000000000815260040162000269906200081b565b60405180910390fd5b62000286600083836200036d60201b60201c565b80600260008282546200029a91906200083d565b92505081905550806000808473ffffffffffffffffffffffffffffffffffffffff1673ffffffffffffffffffffffffffffffffffffffff168152602001908152602001600020600082825401925050819055508173ffffffffffffffffffffffffffffffffffffffff16600073ffffffffffffffffffffffffffffffffffffffff167fddf252ad1be2c89b69c2b068fc378daa952ba7f163c4a11628f55a4df523b3ef836040516200034d919062000889565b60405180910390a362000369600083836200037260201b60201c565b5050565b505050565b505050565b600080fd5b6000819050919050565b62000391816200037c565b81146200039d57600080fd5b50565b600081519050620003b18162000386565b92915050565b600060208284031215620003d057620003cf62000377565b5b6000620003e084828501620003a0565b91505092915050565b600081519050919050565b7f4e487b7100000000000000000000000000000000000000000000000000000000600052604160045260246000fd5b7f4e487b7100000000000000000000000000000000000000000000000000000000600052602260045260246000fd5b600060028204905060018216806200046b57607f821691505b60208210810362000481576200048062000423565b5b50919050565b60008190508160005260206000209050919050565b60006020601f8301049050919050565b600082821b905092915050565b600060088302620004eb7fffffffffffffffffffffffffffffffffffffffffffffffffffffffffffffffff82620004ac565b620004f78683620004ac565b95508019841693508086168417925050509392505050565b6000819050919050565b60006200053a620005346200052e846200037c565b6200050f565b6200037c565b9050919050565b6000819050919050565b620005568362000519565b6200056e620005658262000541565b848454620004b9565b825550505050565b600090565b6200058562000576565b620005928184846200054b565b505050565b5b81811015620005ba57620005ae6000826200057b565b60018101905062000598565b5050565b601f8211156200060957620005d38162000487565b620005de846200049c565b81016020851015620005ee578190505b62000606620005fd856200049c565b83018262000597565b50505b505050565b600082821c905092915050565b60006200062e600019846008026200060e565b1980831691505092915050565b60006200064983836200061b565b9150826002028217905092915050565b6200066482620003e9565b67ffffffffffffffff81111562000680576200067f620003f4565b5b6200068c825462000452565b62000699828285620005be565b600060209050601f831160018114620006d15760008415620006bc578287015190505b620006c885826200063b565b86555062000738565b601f198416620006e18662000487565b60005b828110156200070b57848901518255600182019150602085019450602081019050620006e4565b868310156200072b578489015162000727601f8916826200061b565b8355505b6001600288020188555050505b505050505050565b7f4e487b7100000000000000000000000000000000000000000000000000000000600052601160045260246000fd5b60006200077c826200037c565b915062000789836200037c565b925082820262000799816200037c565b91508282048414831517620007b357620007b262000740565b5b5092915050565b600082825260208201905092915050565b7f45524332303a206d696e7420746f20746865207a65726f206164647265737300600082015250565b600062000803601f83620007ba565b91506200081082620007cb565b602082019050919050565b600060208201905081810360008301526200083681620007f4565b9050919050565b60006200084a826200037c565b915062000857836200037c565b925082820190508082111562000872576200087162000740565b5b92915050565b62000883816200037c565b82525050565b6000602082019050620008a0600083018462000878565b92915050565b6129f280620008b66000396000f3fe608060405234801561001057600080fd5b50600436106101585760003560e01c806370a08231116100c3578063a9059cbb1161007c578063a9059cbb146103a7578063c7f758a8146103d7578063c9d27afe1461040b578063da35c66414610427578063dd62ed3e14610445578063f2fde38b1461047557610158565b806370a08231146102f7578063715018a6146103275780638456cb59146103315780638da5cb5b1461033b57806395d89b4114610359578063a457c2d71461037757610158565b80633950935111610115578063395093511461024b5780633f4ba83a1461027b57806340c10f191461028557806342966c68146102a157806349c2a1a6146102bd5780635c975abb146102d957610158565b8063013cf08b1461015d57806306fdde0314610191578063095ea7b3146101af57806318160ddd146101df57806323b872dd146101fd578063313ce5671461022d575b600080fd5b61017760048036038101906101729190611835565b610491565b604051610188959493929190611942565b60405180910390f35b61019961056f565b6040516101a6919061199c565b60405180910390f35b6101c960048036038101906101c491906119ea565b610601565b6040516101d69190611a45565b60405180910390f35b6101e761061f565b6040516101f49190611a60565b60405180910390f35b61021760048036038101906102129190611a7b565b610629565b6040516102249190611a45565b60405180910390f35b6102356106dc565b6040516102429190611aea565b60405180910390f35b610265600480360381019061026091906119ea565b6106e5565b6040516102729190611a45565b60405180910390f35b61028361071c565b005b61029f600480360381019061029a91906119ea565b61072e565b005b6102bb60048036038101906102b69190611835565b610744565b005b6102d760048036038101906102d29190611c3a565b610758565b005b6102e16107ed565b6040516102ee9190611a45565b60405180910390f35b610311600480360381019061030c9190611c83565b610804565b60405161031e9190611a60565b60405180910390f35b61032f61084c565b005b610339610860565b005b610343610872565b6040516103509190611cb0565b60405180910390f35b61036161089c565b60405161036e919061199c565b60405180910390f35b610391600480360381019061038c91906119ea565b61092e565b60405161039e9190611a45565b60405180910390f35b6103c160048036038101906103bc91906119ea565b6109a5565b6040516103ce9190611a45565b60405180910390f35b6103f160048036038101906103ec9190611835565b610a31565b604051610402959493929190611942565b60405180910390f35b61042560048036038101906104209190611cf7565b610b28565b005b61042f610cca565b60405161043c9190611a60565b60405180910390f35b61045f600480360381019061045a9190611d37565b610cd0565b60405161046c9190611a60565b60405180910390f35b61048f600480360381019061048a9190611c83565b610d57565b005b60076020528060005260406000206000915090508060000154908060010160009054906101000a900473ffffffffffffffffffffffffffffffffffffffff16908060020180546104e090611da6565b80601f016020809104026020016040519081016040528092919081815260200182805461050c90611da6565b80156105595780601f1061052e57610100808354040283529160200191610559565b820191906000526020600020905b81548152906001019060200180831161053c57829003601f168201915b5050505050908060030154908060040154905085565b60606003805461057e90611da6565b80601f01602080910402602001604051908101604052809291908181526020018280546105aa90611da6565b80156105f75780601f106105cc576101008083540402835291602001916105f7565b820191906000526020600020905b8154815290600101906020018083116105da57829003601f168201915b5050505050905090565b600061061561060e610dda565b8484610de2565b6001905092915050565b6000600254905090565b60008073ffffffffffffffffffffffffffffffffffffffff168373ffffffffffffffffffffffffffffffffffffffff1603610699576040517f08c379a000000000000000000000000000000000000000000000000000000000815260040161069090611e49565b60405180910390fd5b6106a4848484610fab565b6106d1846106b0610dda565b846106c2886106bd610dda565b610cd0565b6106cc9190611e98565b610de2565b600190509392505050565b60006012905090565b6000806106f0610dda565b90506107118185856107028589610cd0565b61070c9190611ecc565b610de2565b600191505092915050565b610724611221565b61072c61129f565b565b610736611221565b6107408282611302565b5050565b61075561074f610dda565b82611458565b50565b6006600081548092919061076b90611f00565b9190505550600060076000600654815260200190815260200160002090506006548160000181905550338160010160006101000a81548173ffffffffffffffffffffffffffffffffffffffff021916908373ffffffffffffffffffffffffffffffffffffffff160217905550818160020190816107e891906120f4565b505050565b6000600560149054906101000a900460ff16905090565b60008060008373ffffffffffffffffffffffffffffffffffffffff1673ffffffffffffffffffffffffffffffffffffffff168152602001908152602001600020549050919050565b610854611221565b61085e6000611625565b565b610868611221565b6108706116eb565b565b6000600560009054906101000a900473ffffffffffffffffffffffffffffffffffffffff16905090565b6060600480546108ab90611da6565b80601f01602080910402602001604051908101604052809291908181526020018280546108d790611da6565b80156109245780601f106108f957610100808354040283529160200191610924565b820191906000526020600020905b81548152906001019060200180831161090757829003601f168201915b5050505050905090565b600080610939610dda565b905060006109478286610cd0565b90508381101561098c576040517f08c379a000000000000000000000000000000000000000000000000000000000815260040161098390612238565b60405180910390fd5b6109998286868403610de2565b60019250505092915050565b60008073ffffffffffffffffffffffffffffffffffffffff168373ffffffffffffffffffffffffffffffffffffffff1603610a15576040517f08c379a0000000000000000000000000000000000000000000000000000000008152600401610a0c90611e49565b60405180910390fd5b610a27610a20610dda565b8484610fab565b6001905092915050565b6000806060600080600060076000888152602001908152602001600020905080600001548160010160009054906101000a900473ffffffffffffffffffffffffffffffffffffffff168260020183600301548460040154828054610a9490611da6565b80601f0160208091040260200160405190810160405280929190818152602001828054610ac090611da6565b8015610b0d5780601f10610ae257610100808354040283529160200191610b0d565b820191906000526020600020905b815481529060010190602001808311610af057829003601f168201915b50505050509250955095509550955095505091939590929450565b60006007600084815260200190815260200160002090508060050160003373ffffffffffffffffffffffffffffffffffffffff1673ffffffffffffffffffffffffffffffffffffffff16815260200190815260200160002060009054906101000a900460ff1615610bce576040517f08c379a0000000000000000000000000000000000000000000000000000000008152600401610bc5906122ca565b60405180910390fd5b6000610bd933610804565b11610c19576040517f08c379a0000000000000000000000000000000000000000000000000000000008152600401610c109061235c565b60405180910390fd5b8115610c4757610c2833610804565b816003016000828254610c3b9190611ecc565b92505081905550610c6b565b610c5033610804565b816004016000828254610c639190611ecc565b925050819055505b60018160050160003373ffffffffffffffffffffffffffffffffffffffff1673ffffffffffffffffffffffffffffffffffffffff16815260200190815260200160002060006101000a81548160ff021916908315150217905550505050565b60065481565b6000600160008473ffffffffffffffffffffffffffffffffffffffff1673ffffffffffffffffffffffffffffffffffffffff16815260200190815260200160002060008373ffffffffffffffffffffffffffffffffffffffff1673ffffffffffffffffffffffffffffffffffffffff16815260200190815260200160002054905092915050565b610d5f611221565b600073ffffffffffffffffffffffffffffffffffffffff168173ffffffffffffffffffffffffffffffffffffffff1603610dce576040517f08c379a0000000000000000000000000000000000000000000000000000000008152600401610dc5906123ee565b60405180910390fd5b610dd781611625565b50565b600033905090565b600073ffffffffffffffffffffffffffffffffffffffff168373ffffffffffffffffffffffffffffffffffffffff1603610e51576040517f08c379a0000000000000000000000000000000000000000000000000000000008152600401610e4890612480565b60405180910390fd5b600073ffffffffffffffffffffffffffffffffffffffff168273ffffffffffffffffffffffffffffffffffffffff1603610ec0576040517f08c379a0000000000000000000000000000000000000000000000000000000008152600401610eb790612512565b60405180910390fd5b80600160008573ffffffffffffffffffffffffffffffffffffffff1673ffffffffffffffffffffffffffffffffffffffff16815260200190815260200160002060008473ffffffffffffffffffffffffffffffffffffffff1673ffffffffffffffffffffffffffffffffffffffff168152602001908152602001600020819055508173ffffffffffffffffffffffffffffffffffffffff168373ffffffffffffffffffffffffffffffffffffffff167f8c5be1e5ebec7d5bd14f71427d1e84f3dd0314c0f7b2291e5b200ac8c7c3b92583604051610f9e9190611a60565b60405180910390a3505050565b600073ffffffffffffffffffffffffffffffffffffffff168373ffffffffffffffffffffffffffffffffffffffff160361101a576040517f08c379a0000000000000000000000000000000000000000000000000000000008152600401611011906125a4565b60405180910390fd5b600073ffffffffffffffffffffffffffffffffffffffff168273ffffffffffffffffffffffffffffffffffffffff1603611089576040517f08c379a000000000000000000000000000000000000000000000000000000000815260040161108090612636565b60405180910390fd5b61109483838361174e565b60008060008573ffffffffffffffffffffffffffffffffffffffff1673ffffffffffffffffffffffffffffffffffffffff1681526020019081526020016000205490508181101561111a576040517f08c379a0000000000000000000000000000000000000000000000000000000008152600401611111906126c8565b60405180910390fd5b8181036000808673ffffffffffffffffffffffffffffffffffffffff1673ffffffffffffffffffffffffffffffffffffffff16815260200190815260200160002081905550816000808573ffffffffffffffffffffffffffffffffffffffff1673ffffffffffffffffffffffffffffffffffffffff168152602001908152602001600020600082825401925050819055508273ffffffffffffffffffffffffffffffffffffffff168473ffffffffffffffffffffffffffffffffffffffff167fddf252ad1be2c89b69c2b068fc378daa952ba7f163c4a11628f55a4df523b3ef846040516112089190611a60565b60405180910390a361121b848484611753565b50505050565b611229610dda565b73ffffffffffffffffffffffffffffffffffffffff16611247610872565b73ffffffffffffffffffffffffffffffffffffffff161461129d576040517f08c379a000000000000000000000000000000000000000000000000000000000815260040161129490612734565b60405180910390fd5b565b6112a7611758565b6000600560146101000a81548160ff0219169083151502179055507f5db9ee0a495bf2e6ff9c91a7834c1ba4fdd244a5e8aa4e537bd38aeae4b073aa6112eb610dda565b6040516112f89190611cb0565b60405180910390a1565b600073ffffffffffffffffffffffffffffffffffffffff168273ffffffffffffffffffffffffffffffffffffffff1603611371576040517f08c379a0000000000000000000000000000000000000000000000000000000008152600401611368906127a0565b60405180910390fd5b61137d6000838361174e565b806002600082825461138f9190611ecc565b92505081905550806000808473ffffffffffffffffffffffffffffffffffffffff1673ffffffffffffffffffffffffffffffffffffffff168152602001908152602001600020600082825401925050819055508173ffffffffffffffffffffffffffffffffffffffff16600073ffffffffffffffffffffffffffffffffffffffff167fddf252ad1be2c89b69c2b068fc378daa952ba7f163c4a11628f55a4df523b3ef836040516114409190611a60565b60405180910390a361145460008383611753565b5050565b600073ffffffffffffffffffffffffffffffffffffffff168273ffffffffffffffffffffffffffffffffffffffff16036114c7576040517f08c379a00000000000000000000000000000000000000000000000000000000081526004016114be90612832565b60405180910390fd5b6114d38260008361174e565b60008060008473ffffffffffffffffffffffffffffffffffffffff1673ffffffffffffffffffffffffffffffffffffffff16815260200190815260200160002054905081811015611559576040517f08c379a0000000000000000000000000000000000000000000000000000000008152600401611550906128c4565b60405180910390fd5b8181036000808573ffffffffffffffffffffffffffffffffffffffff1673ffffffffffffffffffffffffffffffffffffffff1681526020019081526020016000208190555081600260008282540392505081905550600073ffffffffffffffffffffffffffffffffffffffff168373ffffffffffffffffffffffffffffffffffffffff167fddf252ad1be2c89b69c2b068fc378daa952ba7f163c4a11628f55a4df523b3ef8460405161160c9190611a60565b60405180910390a361162083600084611753565b505050565b6000600560009054906101000a900473ffffffffffffffffffffffffffffffffffffffff16905081600560006101000a81548173ffffffffffffffffffffffffffffffffffffffff021916908373ffffffffffffffffffffffffffffffffffffffff1602179055508173ffffffffffffffffffffffffffffffffffffffff168173ffffffffffffffffffffffffffffffffffffffff167f8be0079c531659141344cd1fd0a4f28419497f9722a3daafe3b4186f6b6457e060405160405180910390a35050565b6116f36117a1565b6001600560146101000a81548160ff0219169083151502179055507f62e78cea01bee320cd4e420270b5ea74000d11b0c9f74754ebdbfc544b05a258611737610dda565b6040516117449190611cb0565b60405180910390a1565b505050565b505050565b6117606107ed565b61179f576040517f08c379a000000000000000000000000000000000000000000000000000000000815260040161179690612930565b60405180910390fd5b565b6117a96107ed565b156117e9576040517f08c379a00000000000000000000000000000000000000000000000000000000081526004016117e09061299c565b60405180910390fd5b565b6000604051905090565b600080fd5b600080fd5b6000819050919050565b611812816117ff565b811461181d57600080fd5b50565b60008135905061182f81611809565b92915050565b60006020828403121561184b5761184a6117f5565b5b600061185984828501611820565b91505092915050565b61186b816117ff565b82525050565b600073ffffffffffffffffffffffffffffffffffffffff82169050919050565b600061189c82611871565b9050919050565b6118ac81611891565b82525050565b600081519050919050565b600082825260208201905092915050565b60005b838110156118ec5780820151818401526020810190506118d1565b60008484015250505050565b6000601f19601f8301169050919050565b6000611914826118b2565b61191e81856118bd565b935061192e8185602086016118ce565b611937816118f8565b840191505092915050565b600060a0820190506119576000830188611862565b61196460208301876118a3565b81810360408301526119768186611909565b90506119856060830185611862565b6119926080830184611862565b9695505050505050565b600060208201905081810360008301526119b68184611909565b905092915050565b6119c781611891565b81146119d257600080fd5b50565b6000813590506119e4816119be565b92915050565b60008060408385031215611a0157611a006117f5565b5b6000611a0f858286016119d5565b9250506020611a2085828601611820565b9150509250929050565b60008115159050919050565b611a3f81611a2a565b82525050565b6000602082019050611a5a6000830184611a36565b92915050565b6000602082019050611a756000830184611862565b92915050565b600080600060608486031215611a9457611a936117f5565b5b6000611aa2868287016119d5565b9350506020611ab3868287016119d5565b9250506040611ac486828701611820565b9150509250925092565b600060ff82169050919050565b611ae481611ace565b82525050565b6000602082019050611aff6000830184611adb565b92915050565b600080fd5b600080fd5b7f4e487b7100000000000000000000000000000000000000000000000000000000600052604160045260246000fd5b611b47826118f8565b810181811067ffffffffffffffff82111715611b6657611b65611b0f565b5b80604052505050565b6000611b796117eb565b9050611b858282611b3e565b919050565b600067ffffffffffffffff821115611ba557611ba4611b0f565b5b611bae826118f8565b9050602081019050919050565b82818337600083830152505050565b6000611bdd611bd884611b8a565b611b6f565b905082815260208101848484011115611bf957611bf8611b0a565b5b611c04848285611bbb565b509392505050565b600082601f830112611c2157611c20611b05565b5b8135611c31848260208601611bca565b91505092915050565b600060208284031215611c5057611c4f6117f5565b5b600082013567ffffffffffffffff811115611c6e57611c6d6117fa565b5b611c7a84828501611c0c565b91505092915050565b600060208284031215611c9957611c986117f5565b5b6000611ca7848285016119d5565b91505092915050565b6000602082019050611cc560008301846118a3565b92915050565b611cd481611a2a565b8114611cdf57600080fd5b50565b600081359050611cf181611ccb565b92915050565b60008060408385031215611d0e57611d0d6117f5565b5b6000611d1c85828601611820565b9250506020611d2d85828601611ce2565b9150509250929050565b60008060408385031215611d4e57611d4d6117f5565b5b6000611d5c858286016119d5565b9250506020611d6d858286016119d5565b9150509250929050565b7f4e487b7100000000000000000000000000000000000000000000000000000000600052602260045260246000fd5b60006002820490506001821680611dbe57607f821691505b602082108103611dd157611dd0611d77565b5b50919050565b7f5445583a207472616e7366657220746f20746865207a65726f2061646472657360008201527f7300000000000000000000000000000000000000000000000000000000000000602082015250565b6000611e336021836118bd565b9150611e3e82611dd7565b604082019050919050565b60006020820190508181036000830152611e6281611e26565b9050919050565b7f4e487b7100000000000000000000000000000000000000000000000000000000600052601160045260246000fd5b6000611ea3826117ff565b9150611eae836117ff565b9250828203905081811115611ec657611ec5611e69565b5b92915050565b6000611ed7826117ff565b9150611ee2836117ff565b9250828201905080821115611efa57611ef9611e69565b5b92915050565b6000611f0b826117ff565b91507fffffffffffffffffffffffffffffffffffffffffffffffffffffffffffffffff8203611f3d57611f3c611e69565b5b600182019050919050565b60008190508160005260206000209050919050565b60006020601f8301049050919050565b600082821b905092915050565b600060088302611faa7fffffffffffffffffffffffffffffffffffffffffffffffffffffffffffffffff82611f6d565b611fb48683611f6d565b95508019841693508086168417925050509392505050565b6000819050919050565b6000611ff1611fec611fe7846117ff565b611fcc565b6117ff565b9050919050565b6000819050919050565b61200b83611fd6565b61201f61201782611ff8565b848454611f7a565b825550505050565b600090565b612034612027565b61203f818484612002565b505050565b5b818110156120635761205860008261202c565b600181019050612045565b5050565b601f8211156120a85761207981611f48565b61208284611f5d565b81016020851015612091578190505b6120a561209d85611f5d565b830182612044565b50505b505050565b600082821c905092915050565b60006120cb600019846008026120ad565b1980831691505092915050565b60006120e483836120ba565b9150826002028217905092915050565b6120fd826118b2565b67ffffffffffffffff81111561211657612115611b0f565b5b6121208254611da6565b61212b828285612067565b600060209050601f83116001811461215e576000841561214c578287015190505b61215685826120d8565b8655506121be565b601f19841661216c86611f48565b60005b828110156121945784890151825560018201915060208501945060208101905061216f565b868310156121b157848901516121ad601f8916826120ba565b8355505b6001600288020188555050505b505050505050565b7f45524332303a2064656372656173656420616c6c6f77616e63652062656c6f7760008201527f207a65726f000000000000000000000000000000000000000000000000000000602082015250565b60006122226025836118bd565b915061222d826121c6565b604082019050919050565b6000602082019050818103600083015261225181612215565b9050919050565b7f5445583a20766f7465722068617320616c726561647920766f746564206f6e2060008201527f746869732070726f706f73616c00000000000000000000000000000000000000602082015250565b60006122b4602d836118bd565b91506122bf82612258565b604082019050919050565b600060208201905081810360008301526122e3816122a7565b9050919050565b7f5445583a20766f74657220686173206e6f20746f6b656e7320746f20766f746560008201527f2077697468000000000000000000000000000000000000000000000000000000602082015250565b60006123466025836118bd565b9150612351826122ea565b604082019050919050565b6000602082019050818103600083015261237581612339565b9050919050565b7f4f776e61626c653a206e6577206f776e657220697320746865207a65726f206160008201527f6464726573730000000000000000000000000000000000000000000000000000602082015250565b60006123d86026836118bd565b91506123e38261237c565b604082019050919050565b60006020820190508181036000830152612407816123cb565b9050919050565b7f45524332303a20617070726f76652066726f6d20746865207a65726f2061646460008201527f7265737300000000000000000000000000000000000000000000000000000000602082015250565b600061246a6024836118bd565b91506124758261240e565b604082019050919050565b600060208201905081810360008301526124998161245d565b9050919050565b7f45524332303a20617070726f766520746f20746865207a65726f20616464726560008201527f7373000000000000000000000000000000000000000000000000000000000000602082015250565b60006124fc6022836118bd565b9150612507826124a0565b604082019050919050565b6000602082019050818103600083015261252b816124ef565b9050919050565b7f45524332303a207472616e736665722066726f6d20746865207a65726f20616460008201527f6472657373000000000000000000000000000000000000000000000000000000602082015250565b600061258e6025836118bd565b915061259982612532565b604082019050919050565b600060208201905081810360008301526125bd81612581565b9050919050565b7f45524332303a207472616e7366657220746f20746865207a65726f206164647260008201527f6573730000000000000000000000000000000000000000000000000000000000602082015250565b60006126206023836118bd565b915061262b826125c4565b604082019050919050565b6000602082019050818103600083015261264f81612613565b9050919050565b7f45524332303a207472616e7366657220616d6f756e742065786365656473206260008201527f616c616e63650000000000000000000000000000000000000000000000000000602082015250565b60006126b26026836118bd565b91506126bd82612656565b604082019050919050565b600060208201905081810360008301526126e1816126a5565b9050919050565b7f4f776e61626c653a2063616c6c6572206973206e6f7420746865206f776e6572600082015250565b600061271e6020836118bd565b9150612729826126e8565b602082019050919050565b6000602082019050818103600083015261274d81612711565b9050919050565b7f45524332303a206d696e7420746f20746865207a65726f206164647265737300600082015250565b600061278a601f836118bd565b915061279582612754565b602082019050919050565b600060208201905081810360008301526127b98161277d565b9050919050565b7f45524332303a206275726e2066726f6d20746865207a65726f2061646472657360008201527f7300000000000000000000000000000000000000000000000000000000000000602082015250565b600061281c6021836118bd565b9150612827826127c0565b604082019050919050565b6000602082019050818103600083015261284b8161280f565b9050919050565b7f45524332303a206275726e20616d6f756e7420657863656564732062616c616e60008201527f6365000000000000000000000000000000000000000000000000000000000000602082015250565b60006128ae6022836118bd565b91506128b982612852565b604082019050919050565b600060208201905081810360008301526128dd816128a1565b9050919050565b7f5061757361626c653a206e6f7420706175736564000000000000000000000000600082015250565b600061291a6014836118bd565b9150612925826128e4565b602082019050919050565b600060208201905081810360008301526129498161290d565b9050919050565b7f5061757361626c653a2070617573656400000000000000000000000000000000600082015250565b60006129866010836118bd565b915061299182612950565b602082019050919050565b600060208201905081810360008301526129b581612979565b905091905056fea2646970667358221220a47d14215a71498eff5fa2c5525924f6fd0a17fd67030abaa469cbe326d776d664736f6c63430008120033",
					"opcodes": "PUSH1 0x80 PUSH1 0x40 MSTORE PUSH1 0x0 PUSH1 0x6 SSTORE CALLVALUE DUP1 ISZERO PUSH3 0x16 JUMPI PUSH1 0x0 DUP1 REVERT JUMPDEST POP PUSH1 0x40 MLOAD PUSH3 0x32A8 CODESIZE SUB DUP1 PUSH3 0x32A8 DUP4 CODECOPY DUP2 DUP2 ADD PUSH1 0x40 MSTORE DUP2 ADD SWAP1 PUSH3 0x3C SWAP2 SWAP1 PUSH3 0x3B7 JUMP JUMPDEST PUSH1 0x40 MLOAD DUP1 PUSH1 0x40 ADD PUSH1 0x40 MSTORE DUP1 PUSH1 0x17 DUP2 MSTORE PUSH1 0x20 ADD PUSH32 0x46727569747465782043757272656E637920546F6B656E000000000000000000 DUP2 MSTORE POP PUSH1 0x40 MLOAD DUP1 PUSH1 0x40 ADD PUSH1 0x40 MSTORE DUP1 PUSH1 0x3 DUP2 MSTORE PUSH1 0x20 ADD PUSH32 0x5445580000000000000000000000000000000000000000000000000000000000 DUP2 MSTORE POP DUP2 PUSH1 0x3 SWAP1 DUP2 PUSH3 0xB9 SWAP2 SWAP1 PUSH3 0x659 JUMP JUMPDEST POP DUP1 PUSH1 0x4 SWAP1 DUP2 PUSH3 0xCB SWAP2 SWAP1 PUSH3 0x659 JUMP JUMPDEST POP POP POP PUSH3 0xEE PUSH3 0xE2 PUSH3 0x132 PUSH1 0x20 SHL PUSH1 0x20 SHR JUMP JUMPDEST PUSH3 0x13A PUSH1 0x20 SHL PUSH1 0x20 SHR JUMP JUMPDEST PUSH1 0x0 PUSH1 0x5 PUSH1 0x14 PUSH2 0x100 EXP DUP2 SLOAD DUP2 PUSH1 0xFF MUL NOT AND SWAP1 DUP4 ISZERO ISZERO MUL OR SWAP1 SSTORE POP PUSH3 0x12B CALLER PUSH3 0x186A0 DUP4 PUSH3 0x11F SWAP2 SWAP1 PUSH3 0x76F JUMP JUMPDEST PUSH3 0x200 PUSH1 0x20 SHL PUSH1 0x20 SHR JUMP JUMPDEST POP PUSH3 0x8A6 JUMP JUMPDEST PUSH1 0x0 CALLER SWAP1 POP SWAP1 JUMP JUMPDEST PUSH1 0x0 PUSH1 0x5 PUSH1 0x0 SWAP1 SLOAD SWAP1 PUSH2 0x100 EXP SWAP1 DIV PUSH20 0xFFFFFFFFFFFFFFFFFFFFFFFFFFFFFFFFFFFFFFFF AND SWAP1 POP DUP2 PUSH1 0x5 PUSH1 0x0 PUSH2 0x100 EXP DUP2 SLOAD DUP2 PUSH20 0xFFFFFFFFFFFFFFFFFFFFFFFFFFFFFFFFFFFFFFFF MUL NOT AND SWAP1 DUP4 PUSH20 0xFFFFFFFFFFFFFFFFFFFFFFFFFFFFFFFFFFFFFFFF AND MUL OR SWAP1 SSTORE POP DUP2 PUSH20 0xFFFFFFFFFFFFFFFFFFFFFFFFFFFFFFFFFFFFFFFF AND DUP2 PUSH20 0xFFFFFFFFFFFFFFFFFFFFFFFFFFFFFFFFFFFFFFFF AND PUSH32 0x8BE0079C531659141344CD1FD0A4F28419497F9722A3DAAFE3B4186F6B6457E0 PUSH1 0x40 MLOAD PUSH1 0x40 MLOAD DUP1 SWAP2 SUB SWAP1 LOG3 POP POP JUMP JUMPDEST PUSH1 0x0 PUSH20 0xFFFFFFFFFFFFFFFFFFFFFFFFFFFFFFFFFFFFFFFF AND DUP3 PUSH20 0xFFFFFFFFFFFFFFFFFFFFFFFFFFFFFFFFFFFFFFFF AND SUB PUSH3 0x272 JUMPI PUSH1 0x40 MLOAD PUSH32 0x8C379A000000000000000000000000000000000000000000000000000000000 DUP2 MSTORE PUSH1 0x4 ADD PUSH3 0x269 SWAP1 PUSH3 0x81B JUMP JUMPDEST PUSH1 0x40 MLOAD DUP1 SWAP2 SUB SWAP1 REVERT JUMPDEST PUSH3 0x286 PUSH1 0x0 DUP4 DUP4 PUSH3 0x36D PUSH1 0x20 SHL PUSH1 0x20 SHR JUMP JUMPDEST DUP1 PUSH1 0x2 PUSH1 0x0 DUP3 DUP3 SLOAD PUSH3 0x29A SWAP2 SWAP1 PUSH3 0x83D JUMP JUMPDEST SWAP3 POP POP DUP2 SWAP1 SSTORE POP DUP1 PUSH1 0x0 DUP1 DUP5 PUSH20 0xFFFFFFFFFFFFFFFFFFFFFFFFFFFFFFFFFFFFFFFF AND PUSH20 0xFFFFFFFFFFFFFFFFFFFFFFFFFFFFFFFFFFFFFFFF AND DUP2 MSTORE PUSH1 0x20 ADD SWAP1 DUP2 MSTORE PUSH1 0x20 ADD PUSH1 0x0 KECCAK256 PUSH1 0x0 DUP3 DUP3 SLOAD ADD SWAP3 POP POP DUP2 SWAP1 SSTORE POP DUP2 PUSH20 0xFFFFFFFFFFFFFFFFFFFFFFFFFFFFFFFFFFFFFFFF AND PUSH1 0x0 PUSH20 0xFFFFFFFFFFFFFFFFFFFFFFFFFFFFFFFFFFFFFFFF AND PUSH32 0xDDF252AD1BE2C89B69C2B068FC378DAA952BA7F163C4A11628F55A4DF523B3EF DUP4 PUSH1 0x40 MLOAD PUSH3 0x34D SWAP2 SWAP1 PUSH3 0x889 JUMP JUMPDEST PUSH1 0x40 MLOAD DUP1 SWAP2 SUB SWAP1 LOG3 PUSH3 0x369 PUSH1 0x0 DUP4 DUP4 PUSH3 0x372 PUSH1 0x20 SHL PUSH1 0x20 SHR JUMP JUMPDEST POP POP JUMP JUMPDEST POP POP POP JUMP JUMPDEST POP POP POP JUMP JUMPDEST PUSH1 0x0 DUP1 REVERT JUMPDEST PUSH1 0x0 DUP2 SWAP1 POP SWAP2 SWAP1 POP JUMP JUMPDEST PUSH3 0x391 DUP2 PUSH3 0x37C JUMP JUMPDEST DUP2 EQ PUSH3 0x39D JUMPI PUSH1 0x0 DUP1 REVERT JUMPDEST POP JUMP JUMPDEST PUSH1 0x0 DUP2 MLOAD SWAP1 POP PUSH3 0x3B1 DUP2 PUSH3 0x386 JUMP JUMPDEST SWAP3 SWAP2 POP POP JUMP JUMPDEST PUSH1 0x0 PUSH1 0x20 DUP3 DUP5 SUB SLT ISZERO PUSH3 0x3D0 JUMPI PUSH3 0x3CF PUSH3 0x377 JUMP JUMPDEST JUMPDEST PUSH1 0x0 PUSH3 0x3E0 DUP5 DUP3 DUP6 ADD PUSH3 0x3A0 JUMP JUMPDEST SWAP2 POP POP SWAP3 SWAP2 POP POP JUMP JUMPDEST PUSH1 0x0 DUP2 MLOAD SWAP1 POP SWAP2 SWAP1 POP JUMP JUMPDEST PUSH32 0x4E487B7100000000000000000000000000000000000000000000000000000000 PUSH1 0x0 MSTORE PUSH1 0x41 PUSH1 0x4 MSTORE PUSH1 0x24 PUSH1 0x0 REVERT JUMPDEST PUSH32 0x4E487B7100000000000000000000000000000000000000000000000000000000 PUSH1 0x0 MSTORE PUSH1 0x22 PUSH1 0x4 MSTORE PUSH1 0x24 PUSH1 0x0 REVERT JUMPDEST PUSH1 0x0 PUSH1 0x2 DUP3 DIV SWAP1 POP PUSH1 0x1 DUP3 AND DUP1 PUSH3 0x46B JUMPI PUSH1 0x7F DUP3 AND SWAP2 POP JUMPDEST PUSH1 0x20 DUP3 LT DUP2 SUB PUSH3 0x481 JUMPI PUSH3 0x480 PUSH3 0x423 JUMP JUMPDEST JUMPDEST POP SWAP2 SWAP1 POP JUMP JUMPDEST PUSH1 0x0 DUP2 SWAP1 POP DUP2 PUSH1 0x0 MSTORE PUSH1 0x20 PUSH1 0x0 KECCAK256 SWAP1 POP SWAP2 SWAP1 POP JUMP JUMPDEST PUSH1 0x0 PUSH1 0x20 PUSH1 0x1F DUP4 ADD DIV SWAP1 POP SWAP2 SWAP1 POP JUMP JUMPDEST PUSH1 0x0 DUP3 DUP3 SHL SWAP1 POP SWAP3 SWAP2 POP POP JUMP JUMPDEST PUSH1 0x0 PUSH1 0x8 DUP4 MUL PUSH3 0x4EB PUSH32 0xFFFFFFFFFFFFFFFFFFFFFFFFFFFFFFFFFFFFFFFFFFFFFFFFFFFFFFFFFFFFFFFF DUP3 PUSH3 0x4AC JUMP JUMPDEST PUSH3 0x4F7 DUP7 DUP4 PUSH3 0x4AC JUMP JUMPDEST SWAP6 POP DUP1 NOT DUP5 AND SWAP4 POP DUP1 DUP7 AND DUP5 OR SWAP3 POP POP POP SWAP4 SWAP3 POP POP POP JUMP JUMPDEST PUSH1 0x0 DUP2 SWAP1 POP SWAP2 SWAP1 POP JUMP JUMPDEST PUSH1 0x0 PUSH3 0x53A PUSH3 0x534 PUSH3 0x52E DUP5 PUSH3 0x37C JUMP JUMPDEST PUSH3 0x50F JUMP JUMPDEST PUSH3 0x37C JUMP JUMPDEST SWAP1 POP SWAP2 SWAP1 POP JUMP JUMPDEST PUSH1 0x0 DUP2 SWAP1 POP SWAP2 SWAP1 POP JUMP JUMPDEST PUSH3 0x556 DUP4 PUSH3 0x519 JUMP JUMPDEST PUSH3 0x56E PUSH3 0x565 DUP3 PUSH3 0x541 JUMP JUMPDEST DUP5 DUP5 SLOAD PUSH3 0x4B9 JUMP JUMPDEST DUP3 SSTORE POP POP POP POP JUMP JUMPDEST PUSH1 0x0 SWAP1 JUMP JUMPDEST PUSH3 0x585 PUSH3 0x576 JUMP JUMPDEST PUSH3 0x592 DUP2 DUP5 DUP5 PUSH3 0x54B JUMP JUMPDEST POP POP POP JUMP JUMPDEST JUMPDEST DUP2 DUP2 LT ISZERO PUSH3 0x5BA JUMPI PUSH3 0x5AE PUSH1 0x0 DUP3 PUSH3 0x57B JUMP JUMPDEST PUSH1 0x1 DUP2 ADD SWAP1 POP PUSH3 0x598 JUMP JUMPDEST POP POP JUMP JUMPDEST PUSH1 0x1F DUP3 GT ISZERO PUSH3 0x609 JUMPI PUSH3 0x5D3 DUP2 PUSH3 0x487 JUMP JUMPDEST PUSH3 0x5DE DUP5 PUSH3 0x49C JUMP JUMPDEST DUP2 ADD PUSH1 0x20 DUP6 LT ISZERO PUSH3 0x5EE JUMPI DUP2 SWAP1 POP JUMPDEST PUSH3 0x606 PUSH3 0x5FD DUP6 PUSH3 0x49C JUMP JUMPDEST DUP4 ADD DUP3 PUSH3 0x597 JUMP JUMPDEST POP POP JUMPDEST POP POP POP JUMP JUMPDEST PUSH1 0x0 DUP3 DUP3 SHR SWAP1 POP SWAP3 SWAP2 POP POP JUMP JUMPDEST PUSH1 0x0 PUSH3 0x62E PUSH1 0x0 NOT DUP5 PUSH1 0x8 MUL PUSH3 0x60E JUMP JUMPDEST NOT DUP1 DUP4 AND SWAP2 POP POP SWAP3 SWAP2 POP POP JUMP JUMPDEST PUSH1 0x0 PUSH3 0x649 DUP4 DUP4 PUSH3 0x61B JUMP JUMPDEST SWAP2 POP DUP3 PUSH1 0x2 MUL DUP3 OR SWAP1 POP SWAP3 SWAP2 POP POP JUMP JUMPDEST PUSH3 0x664 DUP3 PUSH3 0x3E9 JUMP JUMPDEST PUSH8 0xFFFFFFFFFFFFFFFF DUP2 GT ISZERO PUSH3 0x680 JUMPI PUSH3 0x67F PUSH3 0x3F4 JUMP JUMPDEST JUMPDEST PUSH3 0x68C DUP3 SLOAD PUSH3 0x452 JUMP JUMPDEST PUSH3 0x699 DUP3 DUP3 DUP6 PUSH3 0x5BE JUMP JUMPDEST PUSH1 0x0 PUSH1 0x20 SWAP1 POP PUSH1 0x1F DUP4 GT PUSH1 0x1 DUP2 EQ PUSH3 0x6D1 JUMPI PUSH1 0x0 DUP5 ISZERO PUSH3 0x6BC JUMPI DUP3 DUP8 ADD MLOAD SWAP1 POP JUMPDEST PUSH3 0x6C8 DUP6 DUP3 PUSH3 0x63B JUMP JUMPDEST DUP7 SSTORE POP PUSH3 0x738 JUMP JUMPDEST PUSH1 0x1F NOT DUP5 AND PUSH3 0x6E1 DUP7 PUSH3 0x487 JUMP JUMPDEST PUSH1 0x0 JUMPDEST DUP3 DUP2 LT ISZERO PUSH3 0x70B JUMPI DUP5 DUP10 ADD MLOAD DUP3 SSTORE PUSH1 0x1 DUP3 ADD SWAP2 POP PUSH1 0x20 DUP6 ADD SWAP5 POP PUSH1 0x20 DUP2 ADD SWAP1 POP PUSH3 0x6E4 JUMP JUMPDEST DUP7 DUP4 LT ISZERO PUSH3 0x72B JUMPI DUP5 DUP10 ADD MLOAD PUSH3 0x727 PUSH1 0x1F DUP10 AND DUP3 PUSH3 0x61B JUMP JUMPDEST DUP4 SSTORE POP JUMPDEST PUSH1 0x1 PUSH1 0x2 DUP9 MUL ADD DUP9 SSTORE POP POP POP JUMPDEST POP POP POP POP POP POP JUMP JUMPDEST PUSH32 0x4E487B7100000000000000000000000000000000000000000000000000000000 PUSH1 0x0 MSTORE PUSH1 0x11 PUSH1 0x4 MSTORE PUSH1 0x24 PUSH1 0x0 REVERT JUMPDEST PUSH1 0x0 PUSH3 0x77C DUP3 PUSH3 0x37C JUMP JUMPDEST SWAP2 POP PUSH3 0x789 DUP4 PUSH3 0x37C JUMP JUMPDEST SWAP3 POP DUP3 DUP3 MUL PUSH3 0x799 DUP2 PUSH3 0x37C JUMP JUMPDEST SWAP2 POP DUP3 DUP3 DIV DUP5 EQ DUP4 ISZERO OR PUSH3 0x7B3 JUMPI PUSH3 0x7B2 PUSH3 0x740 JUMP JUMPDEST JUMPDEST POP SWAP3 SWAP2 POP POP JUMP JUMPDEST PUSH1 0x0 DUP3 DUP3 MSTORE PUSH1 0x20 DUP3 ADD SWAP1 POP SWAP3 SWAP2 POP POP JUMP JUMPDEST PUSH32 0x45524332303A206D696E7420746F20746865207A65726F206164647265737300 PUSH1 0x0 DUP3 ADD MSTORE POP JUMP JUMPDEST PUSH1 0x0 PUSH3 0x803 PUSH1 0x1F DUP4 PUSH3 0x7BA JUMP JUMPDEST SWAP2 POP PUSH3 0x810 DUP3 PUSH3 0x7CB JUMP JUMPDEST PUSH1 0x20 DUP3 ADD SWAP1 POP SWAP2 SWAP1 POP JUMP JUMPDEST PUSH1 0x0 PUSH1 0x20 DUP3 ADD SWAP1 POP DUP2 DUP2 SUB PUSH1 0x0 DUP4 ADD MSTORE PUSH3 0x836 DUP2 PUSH3 0x7F4 JUMP JUMPDEST SWAP1 POP SWAP2 SWAP1 POP JUMP JUMPDEST PUSH1 0x0 PUSH3 0x84A DUP3 PUSH3 0x37C JUMP JUMPDEST SWAP2 POP PUSH3 0x857 DUP4 PUSH3 0x37C JUMP JUMPDEST SWAP3 POP DUP3 DUP3 ADD SWAP1 POP DUP1 DUP3 GT ISZERO PUSH3 0x872 JUMPI PUSH3 0x871 PUSH3 0x740 JUMP JUMPDEST JUMPDEST SWAP3 SWAP2 POP POP JUMP JUMPDEST PUSH3 0x883 DUP2 PUSH3 0x37C JUMP JUMPDEST DUP3 MSTORE POP POP JUMP JUMPDEST PUSH1 0x0 PUSH1 0x20 DUP3 ADD SWAP1 POP PUSH3 0x8A0 PUSH1 0x0 DUP4 ADD DUP5 PUSH3 0x878 JUMP JUMPDEST SWAP3 SWAP2 POP POP JUMP JUMPDEST PUSH2 0x29F2 DUP1 PUSH3 0x8B6 PUSH1 0x0 CODECOPY PUSH1 0x0 RETURN INVALID PUSH1 0x80 PUSH1 0x40 MSTORE CALLVALUE DUP1 ISZERO PUSH2 0x10 JUMPI PUSH1 0x0 DUP1 REVERT JUMPDEST POP PUSH1 0x4 CALLDATASIZE LT PUSH2 0x158 JUMPI PUSH1 0x0 CALLDATALOAD PUSH1 0xE0 SHR DUP1 PUSH4 0x70A08231 GT PUSH2 0xC3 JUMPI DUP1 PUSH4 0xA9059CBB GT PUSH2 0x7C JUMPI DUP1 PUSH4 0xA9059CBB EQ PUSH2 0x3A7 JUMPI DUP1 PUSH4 0xC7F758A8 EQ PUSH2 0x3D7 JUMPI DUP1 PUSH4 0xC9D27AFE EQ PUSH2 0x40B JUMPI DUP1 PUSH4 0xDA35C664 EQ PUSH2 0x427 JUMPI DUP1 PUSH4 0xDD62ED3E EQ PUSH2 0x445 JUMPI DUP1 PUSH4 0xF2FDE38B EQ PUSH2 0x475 JUMPI PUSH2 0x158 JUMP JUMPDEST DUP1 PUSH4 0x70A08231 EQ PUSH2 0x2F7 JUMPI DUP1 PUSH4 0x715018A6 EQ PUSH2 0x327 JUMPI DUP1 PUSH4 0x8456CB59 EQ PUSH2 0x331 JUMPI DUP1 PUSH4 0x8DA5CB5B EQ PUSH2 0x33B JUMPI DUP1 PUSH4 0x95D89B41 EQ PUSH2 0x359 JUMPI DUP1 PUSH4 0xA457C2D7 EQ PUSH2 0x377 JUMPI PUSH2 0x158 JUMP JUMPDEST DUP1 PUSH4 0x39509351 GT PUSH2 0x115 JUMPI DUP1 PUSH4 0x39509351 EQ PUSH2 0x24B JUMPI DUP1 PUSH4 0x3F4BA83A EQ PUSH2 0x27B JUMPI DUP1 PUSH4 0x40C10F19 EQ PUSH2 0x285 JUMPI DUP1 PUSH4 0x42966C68 EQ PUSH2 0x2A1 JUMPI DUP1 PUSH4 0x49C2A1A6 EQ PUSH2 0x2BD JUMPI DUP1 PUSH4 0x5C975ABB EQ PUSH2 0x2D9 JUMPI PUSH2 0x158 JUMP JUMPDEST DUP1 PUSH4 0x13CF08B EQ PUSH2 0x15D JUMPI DUP1 PUSH4 0x6FDDE03 EQ PUSH2 0x191 JUMPI DUP1 PUSH4 0x95EA7B3 EQ PUSH2 0x1AF JUMPI DUP1 PUSH4 0x18160DDD EQ PUSH2 0x1DF JUMPI DUP1 PUSH4 0x23B872DD EQ PUSH2 0x1FD JUMPI DUP1 PUSH4 0x313CE567 EQ PUSH2 0x22D JUMPI JUMPDEST PUSH1 0x0 DUP1 REVERT JUMPDEST PUSH2 0x177 PUSH1 0x4 DUP1 CALLDATASIZE SUB DUP2 ADD SWAP1 PUSH2 0x172 SWAP2 SWAP1 PUSH2 0x1835 JUMP JUMPDEST PUSH2 0x491 JUMP JUMPDEST PUSH1 0x40 MLOAD PUSH2 0x188 SWAP6 SWAP5 SWAP4 SWAP3 SWAP2 SWAP1 PUSH2 0x1942 JUMP JUMPDEST PUSH1 0x40 MLOAD DUP1 SWAP2 SUB SWAP1 RETURN JUMPDEST PUSH2 0x199 PUSH2 0x56F JUMP JUMPDEST PUSH1 0x40 MLOAD PUSH2 0x1A6 SWAP2 SWAP1 PUSH2 0x199C JUMP JUMPDEST PUSH1 0x40 MLOAD DUP1 SWAP2 SUB SWAP1 RETURN JUMPDEST PUSH2 0x1C9 PUSH1 0x4 DUP1 CALLDATASIZE SUB DUP2 ADD SWAP1 PUSH2 0x1C4 SWAP2 SWAP1 PUSH2 0x19EA JUMP JUMPDEST PUSH2 0x601 JUMP JUMPDEST PUSH1 0x40 MLOAD PUSH2 0x1D6 SWAP2 SWAP1 PUSH2 0x1A45 JUMP JUMPDEST PUSH1 0x40 MLOAD DUP1 SWAP2 SUB SWAP1 RETURN JUMPDEST PUSH2 0x1E7 PUSH2 0x61F JUMP JUMPDEST PUSH1 0x40 MLOAD PUSH2 0x1F4 SWAP2 SWAP1 PUSH2 0x1A60 JUMP JUMPDEST PUSH1 0x40 MLOAD DUP1 SWAP2 SUB SWAP1 RETURN JUMPDEST PUSH2 0x217 PUSH1 0x4 DUP1 CALLDATASIZE SUB DUP2 ADD SWAP1 PUSH2 0x212 SWAP2 SWAP1 PUSH2 0x1A7B JUMP JUMPDEST PUSH2 0x629 JUMP JUMPDEST PUSH1 0x40 MLOAD PUSH2 0x224 SWAP2 SWAP1 PUSH2 0x1A45 JUMP JUMPDEST PUSH1 0x40 MLOAD DUP1 SWAP2 SUB SWAP1 RETURN JUMPDEST PUSH2 0x235 PUSH2 0x6DC JUMP JUMPDEST PUSH1 0x40 MLOAD PUSH2 0x242 SWAP2 SWAP1 PUSH2 0x1AEA JUMP JUMPDEST PUSH1 0x40 MLOAD DUP1 SWAP2 SUB SWAP1 RETURN JUMPDEST PUSH2 0x265 PUSH1 0x4 DUP1 CALLDATASIZE SUB DUP2 ADD SWAP1 PUSH2 0x260 SWAP2 SWAP1 PUSH2 0x19EA JUMP JUMPDEST PUSH2 0x6E5 JUMP JUMPDEST PUSH1 0x40 MLOAD PUSH2 0x272 SWAP2 SWAP1 PUSH2 0x1A45 JUMP JUMPDEST PUSH1 0x40 MLOAD DUP1 SWAP2 SUB SWAP1 RETURN JUMPDEST PUSH2 0x283 PUSH2 0x71C JUMP JUMPDEST STOP JUMPDEST PUSH2 0x29F PUSH1 0x4 DUP1 CALLDATASIZE SUB DUP2 ADD SWAP1 PUSH2 0x29A SWAP2 SWAP1 PUSH2 0x19EA JUMP JUMPDEST PUSH2 0x72E JUMP JUMPDEST STOP JUMPDEST PUSH2 0x2BB PUSH1 0x4 DUP1 CALLDATASIZE SUB DUP2 ADD SWAP1 PUSH2 0x2B6 SWAP2 SWAP1 PUSH2 0x1835 JUMP JUMPDEST PUSH2 0x744 JUMP JUMPDEST STOP JUMPDEST PUSH2 0x2D7 PUSH1 0x4 DUP1 CALLDATASIZE SUB DUP2 ADD SWAP1 PUSH2 0x2D2 SWAP2 SWAP1 PUSH2 0x1C3A JUMP JUMPDEST PUSH2 0x758 JUMP JUMPDEST STOP JUMPDEST PUSH2 0x2E1 PUSH2 0x7ED JUMP JUMPDEST PUSH1 0x40 MLOAD PUSH2 0x2EE SWAP2 SWAP1 PUSH2 0x1A45 JUMP JUMPDEST PUSH1 0x40 MLOAD DUP1 SWAP2 SUB SWAP1 RETURN JUMPDEST PUSH2 0x311 PUSH1 0x4 DUP1 CALLDATASIZE SUB DUP2 ADD SWAP1 PUSH2 0x30C SWAP2 SWAP1 PUSH2 0x1C83 JUMP JUMPDEST PUSH2 0x804 JUMP JUMPDEST PUSH1 0x40 MLOAD PUSH2 0x31E SWAP2 SWAP1 PUSH2 0x1A60 JUMP JUMPDEST PUSH1 0x40 MLOAD DUP1 SWAP2 SUB SWAP1 RETURN JUMPDEST PUSH2 0x32F PUSH2 0x84C JUMP JUMPDEST STOP JUMPDEST PUSH2 0x339 PUSH2 0x860 JUMP JUMPDEST STOP JUMPDEST PUSH2 0x343 PUSH2 0x872 JUMP JUMPDEST PUSH1 0x40 MLOAD PUSH2 0x350 SWAP2 SWAP1 PUSH2 0x1CB0 JUMP JUMPDEST PUSH1 0x40 MLOAD DUP1 SWAP2 SUB SWAP1 RETURN JUMPDEST PUSH2 0x361 PUSH2 0x89C JUMP JUMPDEST PUSH1 0x40 MLOAD PUSH2 0x36E SWAP2 SWAP1 PUSH2 0x199C JUMP JUMPDEST PUSH1 0x40 MLOAD DUP1 SWAP2 SUB SWAP1 RETURN JUMPDEST PUSH2 0x391 PUSH1 0x4 DUP1 CALLDATASIZE SUB DUP2 ADD SWAP1 PUSH2 0x38C SWAP2 SWAP1 PUSH2 0x19EA JUMP JUMPDEST PUSH2 0x92E JUMP JUMPDEST PUSH1 0x40 MLOAD PUSH2 0x39E SWAP2 SWAP1 PUSH2 0x1A45 JUMP JUMPDEST PUSH1 0x40 MLOAD DUP1 SWAP2 SUB SWAP1 RETURN JUMPDEST PUSH2 0x3C1 PUSH1 0x4 DUP1 CALLDATASIZE SUB DUP2 ADD SWAP1 PUSH2 0x3BC SWAP2 SWAP1 PUSH2 0x19EA JUMP JUMPDEST PUSH2 0x9A5 JUMP JUMPDEST PUSH1 0x40 MLOAD PUSH2 0x3CE SWAP2 SWAP1 PUSH2 0x1A45 JUMP JUMPDEST PUSH1 0x40 MLOAD DUP1 SWAP2 SUB SWAP1 RETURN JUMPDEST PUSH2 0x3F1 PUSH1 0x4 DUP1 CALLDATASIZE SUB DUP2 ADD SWAP1 PUSH2 0x3EC SWAP2 SWAP1 PUSH2 0x1835 JUMP JUMPDEST PUSH2 0xA31 JUMP JUMPDEST PUSH1 0x40 MLOAD PUSH2 0x402 SWAP6 SWAP5 SWAP4 SWAP3 SWAP2 SWAP1 PUSH2 0x1942 JUMP JUMPDEST PUSH1 0x40 MLOAD DUP1 SWAP2 SUB SWAP1 RETURN JUMPDEST PUSH2 0x425 PUSH1 0x4 DUP1 CALLDATASIZE SUB DUP2 ADD SWAP1 PUSH2 0x420 SWAP2 SWAP1 PUSH2 0x1CF7 JUMP JUMPDEST PUSH2 0xB28 JUMP JUMPDEST STOP JUMPDEST PUSH2 0x42F PUSH2 0xCCA JUMP JUMPDEST PUSH1 0x40 MLOAD PUSH2 0x43C SWAP2 SWAP1 PUSH2 0x1A60 JUMP JUMPDEST PUSH1 0x40 MLOAD DUP1 SWAP2 SUB SWAP1 RETURN JUMPDEST PUSH2 0x45F PUSH1 0x4 DUP1 CALLDATASIZE SUB DUP2 ADD SWAP1 PUSH2 0x45A SWAP2 SWAP1 PUSH2 0x1D37 JUMP JUMPDEST PUSH2 0xCD0 JUMP JUMPDEST PUSH1 0x40 MLOAD PUSH2 0x46C SWAP2 SWAP1 PUSH2 0x1A60 JUMP JUMPDEST PUSH1 0x40 MLOAD DUP1 SWAP2 SUB SWAP1 RETURN JUMPDEST PUSH2 0x48F PUSH1 0x4 DUP1 CALLDATASIZE SUB DUP2 ADD SWAP1 PUSH2 0x48A SWAP2 SWAP1 PUSH2 0x1C83 JUMP JUMPDEST PUSH2 0xD57 JUMP JUMPDEST STOP JUMPDEST PUSH1 0x7 PUSH1 0x20 MSTORE DUP1 PUSH1 0x0 MSTORE PUSH1 0x40 PUSH1 0x0 KECCAK256 PUSH1 0x0 SWAP2 POP SWAP1 POP DUP1 PUSH1 0x0 ADD SLOAD SWAP1 DUP1 PUSH1 0x1 ADD PUSH1 0x0 SWAP1 SLOAD SWAP1 PUSH2 0x100 EXP SWAP1 DIV PUSH20 0xFFFFFFFFFFFFFFFFFFFFFFFFFFFFFFFFFFFFFFFF AND SWAP1 DUP1 PUSH1 0x2 ADD DUP1 SLOAD PUSH2 0x4E0 SWAP1 PUSH2 0x1DA6 JUMP JUMPDEST DUP1 PUSH1 0x1F ADD PUSH1 0x20 DUP1 SWAP2 DIV MUL PUSH1 0x20 ADD PUSH1 0x40 MLOAD SWAP1 DUP2 ADD PUSH1 0x40 MSTORE DUP1 SWAP3 SWAP2 SWAP1 DUP2 DUP2 MSTORE PUSH1 0x20 ADD DUP3 DUP1 SLOAD PUSH2 0x50C SWAP1 PUSH2 0x1DA6 JUMP JUMPDEST DUP1 ISZERO PUSH2 0x559 JUMPI DUP1 PUSH1 0x1F LT PUSH2 0x52E JUMPI PUSH2 0x100 DUP1 DUP4 SLOAD DIV MUL DUP4 MSTORE SWAP2 PUSH1 0x20 ADD SWAP2 PUSH2 0x559 JUMP JUMPDEST DUP3 ADD SWAP2 SWAP1 PUSH1 0x0 MSTORE PUSH1 0x20 PUSH1 0x0 KECCAK256 SWAP1 JUMPDEST DUP2 SLOAD DUP2 MSTORE SWAP1 PUSH1 0x1 ADD SWAP1 PUSH1 0x20 ADD DUP1 DUP4 GT PUSH2 0x53C JUMPI DUP3 SWAP1 SUB PUSH1 0x1F AND DUP3 ADD SWAP2 JUMPDEST POP POP POP POP POP SWAP1 DUP1 PUSH1 0x3 ADD SLOAD SWAP1 DUP1 PUSH1 0x4 ADD SLOAD SWAP1 POP DUP6 JUMP JUMPDEST PUSH1 0x60 PUSH1 0x3 DUP1 SLOAD PUSH2 0x57E SWAP1 PUSH2 0x1DA6 JUMP JUMPDEST DUP1 PUSH1 0x1F ADD PUSH1 0x20 DUP1 SWAP2 DIV MUL PUSH1 0x20 ADD PUSH1 0x40 MLOAD SWAP1 DUP2 ADD PUSH1 0x40 MSTORE DUP1 SWAP3 SWAP2 SWAP1 DUP2 DUP2 MSTORE PUSH1 0x20 ADD DUP3 DUP1 SLOAD PUSH2 0x5AA SWAP1 PUSH2 0x1DA6 JUMP JUMPDEST DUP1 ISZERO PUSH2 0x5F7 JUMPI DUP1 PUSH1 0x1F LT PUSH2 0x5CC JUMPI PUSH2 0x100 DUP1 DUP4 SLOAD DIV MUL DUP4 MSTORE SWAP2 PUSH1 0x20 ADD SWAP2 PUSH2 0x5F7 JUMP JUMPDEST DUP3 ADD SWAP2 SWAP1 PUSH1 0x0 MSTORE PUSH1 0x20 PUSH1 0x0 KECCAK256 SWAP1 JUMPDEST DUP2 SLOAD DUP2 MSTORE SWAP1 PUSH1 0x1 ADD SWAP1 PUSH1 0x20 ADD DUP1 DUP4 GT PUSH2 0x5DA JUMPI DUP3 SWAP1 SUB PUSH1 0x1F AND DUP3 ADD SWAP2 JUMPDEST POP POP POP POP POP SWAP1 POP SWAP1 JUMP JUMPDEST PUSH1 0x0 PUSH2 0x615 PUSH2 0x60E PUSH2 0xDDA JUMP JUMPDEST DUP5 DUP5 PUSH2 0xDE2 JUMP JUMPDEST PUSH1 0x1 SWAP1 POP SWAP3 SWAP2 POP POP JUMP JUMPDEST PUSH1 0x0 PUSH1 0x2 SLOAD SWAP1 POP SWAP1 JUMP JUMPDEST PUSH1 0x0 DUP1 PUSH20 0xFFFFFFFFFFFFFFFFFFFFFFFFFFFFFFFFFFFFFFFF AND DUP4 PUSH20 0xFFFFFFFFFFFFFFFFFFFFFFFFFFFFFFFFFFFFFFFF AND SUB PUSH2 0x699 JUMPI PUSH1 0x40 MLOAD PUSH32 0x8C379A000000000000000000000000000000000000000000000000000000000 DUP2 MSTORE PUSH1 0x4 ADD PUSH2 0x690 SWAP1 PUSH2 0x1E49 JUMP JUMPDEST PUSH1 0x40 MLOAD DUP1 SWAP2 SUB SWAP1 REVERT JUMPDEST PUSH2 0x6A4 DUP5 DUP5 DUP5 PUSH2 0xFAB JUMP JUMPDEST PUSH2 0x6D1 DUP5 PUSH2 0x6B0 PUSH2 0xDDA JUMP JUMPDEST DUP5 PUSH2 0x6C2 DUP9 PUSH2 0x6BD PUSH2 0xDDA JUMP JUMPDEST PUSH2 0xCD0 JUMP JUMPDEST PUSH2 0x6CC SWAP2 SWAP1 PUSH2 0x1E98 JUMP JUMPDEST PUSH2 0xDE2 JUMP JUMPDEST PUSH1 0x1 SWAP1 POP SWAP4 SWAP3 POP POP POP JUMP JUMPDEST PUSH1 0x0 PUSH1 0x12 SWAP1 POP SWAP1 JUMP JUMPDEST PUSH1 0x0 DUP1 PUSH2 0x6F0 PUSH2 0xDDA JUMP JUMPDEST SWAP1 POP PUSH2 0x711 DUP2 DUP6 DUP6 PUSH2 0x702 DUP6 DUP10 PUSH2 0xCD0 JUMP JUMPDEST PUSH2 0x70C SWAP2 SWAP1 PUSH2 0x1ECC JUMP JUMPDEST PUSH2 0xDE2 JUMP JUMPDEST PUSH1 0x1 SWAP2 POP POP SWAP3 SWAP2 POP POP JUMP JUMPDEST PUSH2 0x724 PUSH2 0x1221 JUMP JUMPDEST PUSH2 0x72C PUSH2 0x129F JUMP JUMPDEST JUMP JUMPDEST PUSH2 0x736 PUSH2 0x1221 JUMP JUMPDEST PUSH2 0x740 DUP3 DUP3 PUSH2 0x1302 JUMP JUMPDEST POP POP JUMP JUMPDEST PUSH2 0x755 PUSH2 0x74F PUSH2 0xDDA JUMP JUMPDEST DUP3 PUSH2 0x1458 JUMP JUMPDEST POP JUMP JUMPDEST PUSH1 0x6 PUSH1 0x0 DUP2 SLOAD DUP1 SWAP3 SWAP2 SWAP1 PUSH2 0x76B SWAP1 PUSH2 0x1F00 JUMP JUMPDEST SWAP2 SWAP1 POP SSTORE POP PUSH1 0x0 PUSH1 0x7 PUSH1 0x0 PUSH1 0x6 SLOAD DUP2 MSTORE PUSH1 0x20 ADD SWAP1 DUP2 MSTORE PUSH1 0x20 ADD PUSH1 0x0 KECCAK256 SWAP1 POP PUSH1 0x6 SLOAD DUP2 PUSH1 0x0 ADD DUP2 SWAP1 SSTORE POP CALLER DUP2 PUSH1 0x1 ADD PUSH1 0x0 PUSH2 0x100 EXP DUP2 SLOAD DUP2 PUSH20 0xFFFFFFFFFFFFFFFFFFFFFFFFFFFFFFFFFFFFFFFF MUL NOT AND SWAP1 DUP4 PUSH20 0xFFFFFFFFFFFFFFFFFFFFFFFFFFFFFFFFFFFFFFFF AND MUL OR SWAP1 SSTORE POP DUP2 DUP2 PUSH1 0x2 ADD SWAP1 DUP2 PUSH2 0x7E8 SWAP2 SWAP1 PUSH2 0x20F4 JUMP JUMPDEST POP POP POP JUMP JUMPDEST PUSH1 0x0 PUSH1 0x5 PUSH1 0x14 SWAP1 SLOAD SWAP1 PUSH2 0x100 EXP SWAP1 DIV PUSH1 0xFF AND SWAP1 POP SWAP1 JUMP JUMPDEST PUSH1 0x0 DUP1 PUSH1 0x0 DUP4 PUSH20 0xFFFFFFFFFFFFFFFFFFFFFFFFFFFFFFFFFFFFFFFF AND PUSH20 0xFFFFFFFFFFFFFFFFFFFFFFFFFFFFFFFFFFFFFFFF AND DUP2 MSTORE PUSH1 0x20 ADD SWAP1 DUP2 MSTORE PUSH1 0x20 ADD PUSH1 0x0 KECCAK256 SLOAD SWAP1 POP SWAP2 SWAP1 POP JUMP JUMPDEST PUSH2 0x854 PUSH2 0x1221 JUMP JUMPDEST PUSH2 0x85E PUSH1 0x0 PUSH2 0x1625 JUMP JUMPDEST JUMP JUMPDEST PUSH2 0x868 PUSH2 0x1221 JUMP JUMPDEST PUSH2 0x870 PUSH2 0x16EB JUMP JUMPDEST JUMP JUMPDEST PUSH1 0x0 PUSH1 0x5 PUSH1 0x0 SWAP1 SLOAD SWAP1 PUSH2 0x100 EXP SWAP1 DIV PUSH20 0xFFFFFFFFFFFFFFFFFFFFFFFFFFFFFFFFFFFFFFFF AND SWAP1 POP SWAP1 JUMP JUMPDEST PUSH1 0x60 PUSH1 0x4 DUP1 SLOAD PUSH2 0x8AB SWAP1 PUSH2 0x1DA6 JUMP JUMPDEST DUP1 PUSH1 0x1F ADD PUSH1 0x20 DUP1 SWAP2 DIV MUL PUSH1 0x20 ADD PUSH1 0x40 MLOAD SWAP1 DUP2 ADD PUSH1 0x40 MSTORE DUP1 SWAP3 SWAP2 SWAP1 DUP2 DUP2 MSTORE PUSH1 0x20 ADD DUP3 DUP1 SLOAD PUSH2 0x8D7 SWAP1 PUSH2 0x1DA6 JUMP JUMPDEST DUP1 ISZERO PUSH2 0x924 JUMPI DUP1 PUSH1 0x1F LT PUSH2 0x8F9 JUMPI PUSH2 0x100 DUP1 DUP4 SLOAD DIV MUL DUP4 MSTORE SWAP2 PUSH1 0x20 ADD SWAP2 PUSH2 0x924 JUMP JUMPDEST DUP3 ADD SWAP2 SWAP1 PUSH1 0x0 MSTORE PUSH1 0x20 PUSH1 0x0 KECCAK256 SWAP1 JUMPDEST DUP2 SLOAD DUP2 MSTORE SWAP1 PUSH1 0x1 ADD SWAP1 PUSH1 0x20 ADD DUP1 DUP4 GT PUSH2 0x907 JUMPI DUP3 SWAP1 SUB PUSH1 0x1F AND DUP3 ADD SWAP2 JUMPDEST POP POP POP POP POP SWAP1 POP SWAP1 JUMP JUMPDEST PUSH1 0x0 DUP1 PUSH2 0x939 PUSH2 0xDDA JUMP JUMPDEST SWAP1 POP PUSH1 0x0 PUSH2 0x947 DUP3 DUP7 PUSH2 0xCD0 JUMP JUMPDEST SWAP1 POP DUP4 DUP2 LT ISZERO PUSH2 0x98C JUMPI PUSH1 0x40 MLOAD PUSH32 0x8C379A000000000000000000000000000000000000000000000000000000000 DUP2 MSTORE PUSH1 0x4 ADD PUSH2 0x983 SWAP1 PUSH2 0x2238 JUMP JUMPDEST PUSH1 0x40 MLOAD DUP1 SWAP2 SUB SWAP1 REVERT JUMPDEST PUSH2 0x999 DUP3 DUP7 DUP7 DUP5 SUB PUSH2 0xDE2 JUMP JUMPDEST PUSH1 0x1 SWAP3 POP POP POP SWAP3 SWAP2 POP POP JUMP JUMPDEST PUSH1 0x0 DUP1 PUSH20 0xFFFFFFFFFFFFFFFFFFFFFFFFFFFFFFFFFFFFFFFF AND DUP4 PUSH20 0xFFFFFFFFFFFFFFFFFFFFFFFFFFFFFFFFFFFFFFFF AND SUB PUSH2 0xA15 JUMPI PUSH1 0x40 MLOAD PUSH32 0x8C379A000000000000000000000000000000000000000000000000000000000 DUP2 MSTORE PUSH1 0x4 ADD PUSH2 0xA0C SWAP1 PUSH2 0x1E49 JUMP JUMPDEST PUSH1 0x40 MLOAD DUP1 SWAP2 SUB SWAP1 REVERT JUMPDEST PUSH2 0xA27 PUSH2 0xA20 PUSH2 0xDDA JUMP JUMPDEST DUP5 DUP5 PUSH2 0xFAB JUMP JUMPDEST PUSH1 0x1 SWAP1 POP SWAP3 SWAP2 POP POP JUMP JUMPDEST PUSH1 0x0 DUP1 PUSH1 0x60 PUSH1 0x0 DUP1 PUSH1 0x0 PUSH1 0x7 PUSH1 0x0 DUP9 DUP2 MSTORE PUSH1 0x20 ADD SWAP1 DUP2 MSTORE PUSH1 0x20 ADD PUSH1 0x0 KECCAK256 SWAP1 POP DUP1 PUSH1 0x0 ADD SLOAD DUP2 PUSH1 0x1 ADD PUSH1 0x0 SWAP1 SLOAD SWAP1 PUSH2 0x100 EXP SWAP1 DIV PUSH20 0xFFFFFFFFFFFFFFFFFFFFFFFFFFFFFFFFFFFFFFFF AND DUP3 PUSH1 0x2 ADD DUP4 PUSH1 0x3 ADD SLOAD DUP5 PUSH1 0x4 ADD SLOAD DUP3 DUP1 SLOAD PUSH2 0xA94 SWAP1 PUSH2 0x1DA6 JUMP JUMPDEST DUP1 PUSH1 0x1F ADD PUSH1 0x20 DUP1 SWAP2 DIV MUL PUSH1 0x20 ADD PUSH1 0x40 MLOAD SWAP1 DUP2 ADD PUSH1 0x40 MSTORE DUP1 SWAP3 SWAP2 SWAP1 DUP2 DUP2 MSTORE PUSH1 0x20 ADD DUP3 DUP1 SLOAD PUSH2 0xAC0 SWAP1 PUSH2 0x1DA6 JUMP JUMPDEST DUP1 ISZERO PUSH2 0xB0D JUMPI DUP1 PUSH1 0x1F LT PUSH2 0xAE2 JUMPI PUSH2 0x100 DUP1 DUP4 SLOAD DIV MUL DUP4 MSTORE SWAP2 PUSH1 0x20 ADD SWAP2 PUSH2 0xB0D JUMP JUMPDEST DUP3 ADD SWAP2 SWAP1 PUSH1 0x0 MSTORE PUSH1 0x20 PUSH1 0x0 KECCAK256 SWAP1 JUMPDEST DUP2 SLOAD DUP2 MSTORE SWAP1 PUSH1 0x1 ADD SWAP1 PUSH1 0x20 ADD DUP1 DUP4 GT PUSH2 0xAF0 JUMPI DUP3 SWAP1 SUB PUSH1 0x1F AND DUP3 ADD SWAP2 JUMPDEST POP POP POP POP POP SWAP3 POP SWAP6 POP SWAP6 POP SWAP6 POP SWAP6 POP SWAP6 POP POP SWAP2 SWAP4 SWAP6 SWAP1 SWAP3 SWAP5 POP JUMP JUMPDEST PUSH1 0x0 PUSH1 0x7 PUSH1 0x0 DUP5 DUP2 MSTORE PUSH1 0x20 ADD SWAP1 DUP2 MSTORE PUSH1 0x20 ADD PUSH1 0x0 KECCAK256 SWAP1 POP DUP1 PUSH1 0x5 ADD PUSH1 0x0 CALLER PUSH20 0xFFFFFFFFFFFFFFFFFFFFFFFFFFFFFFFFFFFFFFFF AND PUSH20 0xFFFFFFFFFFFFFFFFFFFFFFFFFFFFFFFFFFFFFFFF AND DUP2 MSTORE PUSH1 0x20 ADD SWAP1 DUP2 MSTORE PUSH1 0x20 ADD PUSH1 0x0 KECCAK256 PUSH1 0x0 SWAP1 SLOAD SWAP1 PUSH2 0x100 EXP SWAP1 DIV PUSH1 0xFF AND ISZERO PUSH2 0xBCE JUMPI PUSH1 0x40 MLOAD PUSH32 0x8C379A000000000000000000000000000000000000000000000000000000000 DUP2 MSTORE PUSH1 0x4 ADD PUSH2 0xBC5 SWAP1 PUSH2 0x22CA JUMP JUMPDEST PUSH1 0x40 MLOAD DUP1 SWAP2 SUB SWAP1 REVERT JUMPDEST PUSH1 0x0 PUSH2 0xBD9 CALLER PUSH2 0x804 JUMP JUMPDEST GT PUSH2 0xC19 JUMPI PUSH1 0x40 MLOAD PUSH32 0x8C379A000000000000000000000000000000000000000000000000000000000 DUP2 MSTORE PUSH1 0x4 ADD PUSH2 0xC10 SWAP1 PUSH2 0x235C JUMP JUMPDEST PUSH1 0x40 MLOAD DUP1 SWAP2 SUB SWAP1 REVERT JUMPDEST DUP2 ISZERO PUSH2 0xC47 JUMPI PUSH2 0xC28 CALLER PUSH2 0x804 JUMP JUMPDEST DUP2 PUSH1 0x3 ADD PUSH1 0x0 DUP3 DUP3 SLOAD PUSH2 0xC3B SWAP2 SWAP1 PUSH2 0x1ECC JUMP JUMPDEST SWAP3 POP POP DUP2 SWAP1 SSTORE POP PUSH2 0xC6B JUMP JUMPDEST PUSH2 0xC50 CALLER PUSH2 0x804 JUMP JUMPDEST DUP2 PUSH1 0x4 ADD PUSH1 0x0 DUP3 DUP3 SLOAD PUSH2 0xC63 SWAP2 SWAP1 PUSH2 0x1ECC JUMP JUMPDEST SWAP3 POP POP DUP2 SWAP1 SSTORE POP JUMPDEST PUSH1 0x1 DUP2 PUSH1 0x5 ADD PUSH1 0x0 CALLER PUSH20 0xFFFFFFFFFFFFFFFFFFFFFFFFFFFFFFFFFFFFFFFF AND PUSH20 0xFFFFFFFFFFFFFFFFFFFFFFFFFFFFFFFFFFFFFFFF AND DUP2 MSTORE PUSH1 0x20 ADD SWAP1 DUP2 MSTORE PUSH1 0x20 ADD PUSH1 0x0 KECCAK256 PUSH1 0x0 PUSH2 0x100 EXP DUP2 SLOAD DUP2 PUSH1 0xFF MUL NOT AND SWAP1 DUP4 ISZERO ISZERO MUL OR SWAP1 SSTORE POP POP POP POP JUMP JUMPDEST PUSH1 0x6 SLOAD DUP2 JUMP JUMPDEST PUSH1 0x0 PUSH1 0x1 PUSH1 0x0 DUP5 PUSH20 0xFFFFFFFFFFFFFFFFFFFFFFFFFFFFFFFFFFFFFFFF AND PUSH20 0xFFFFFFFFFFFFFFFFFFFFFFFFFFFFFFFFFFFFFFFF AND DUP2 MSTORE PUSH1 0x20 ADD SWAP1 DUP2 MSTORE PUSH1 0x20 ADD PUSH1 0x0 KECCAK256 PUSH1 0x0 DUP4 PUSH20 0xFFFFFFFFFFFFFFFFFFFFFFFFFFFFFFFFFFFFFFFF AND PUSH20 0xFFFFFFFFFFFFFFFFFFFFFFFFFFFFFFFFFFFFFFFF AND DUP2 MSTORE PUSH1 0x20 ADD SWAP1 DUP2 MSTORE PUSH1 0x20 ADD PUSH1 0x0 KECCAK256 SLOAD SWAP1 POP SWAP3 SWAP2 POP POP JUMP JUMPDEST PUSH2 0xD5F PUSH2 0x1221 JUMP JUMPDEST PUSH1 0x0 PUSH20 0xFFFFFFFFFFFFFFFFFFFFFFFFFFFFFFFFFFFFFFFF AND DUP2 PUSH20 0xFFFFFFFFFFFFFFFFFFFFFFFFFFFFFFFFFFFFFFFF AND SUB PUSH2 0xDCE JUMPI PUSH1 0x40 MLOAD PUSH32 0x8C379A000000000000000000000000000000000000000000000000000000000 DUP2 MSTORE PUSH1 0x4 ADD PUSH2 0xDC5 SWAP1 PUSH2 0x23EE JUMP JUMPDEST PUSH1 0x40 MLOAD DUP1 SWAP2 SUB SWAP1 REVERT JUMPDEST PUSH2 0xDD7 DUP2 PUSH2 0x1625 JUMP JUMPDEST POP JUMP JUMPDEST PUSH1 0x0 CALLER SWAP1 POP SWAP1 JUMP JUMPDEST PUSH1 0x0 PUSH20 0xFFFFFFFFFFFFFFFFFFFFFFFFFFFFFFFFFFFFFFFF AND DUP4 PUSH20 0xFFFFFFFFFFFFFFFFFFFFFFFFFFFFFFFFFFFFFFFF AND SUB PUSH2 0xE51 JUMPI PUSH1 0x40 MLOAD PUSH32 0x8C379A000000000000000000000000000000000000000000000000000000000 DUP2 MSTORE PUSH1 0x4 ADD PUSH2 0xE48 SWAP1 PUSH2 0x2480 JUMP JUMPDEST PUSH1 0x40 MLOAD DUP1 SWAP2 SUB SWAP1 REVERT JUMPDEST PUSH1 0x0 PUSH20 0xFFFFFFFFFFFFFFFFFFFFFFFFFFFFFFFFFFFFFFFF AND DUP3 PUSH20 0xFFFFFFFFFFFFFFFFFFFFFFFFFFFFFFFFFFFFFFFF AND SUB PUSH2 0xEC0 JUMPI PUSH1 0x40 MLOAD PUSH32 0x8C379A000000000000000000000000000000000000000000000000000000000 DUP2 MSTORE PUSH1 0x4 ADD PUSH2 0xEB7 SWAP1 PUSH2 0x2512 JUMP JUMPDEST PUSH1 0x40 MLOAD DUP1 SWAP2 SUB SWAP1 REVERT JUMPDEST DUP1 PUSH1 0x1 PUSH1 0x0 DUP6 PUSH20 0xFFFFFFFFFFFFFFFFFFFFFFFFFFFFFFFFFFFFFFFF AND PUSH20 0xFFFFFFFFFFFFFFFFFFFFFFFFFFFFFFFFFFFFFFFF AND DUP2 MSTORE PUSH1 0x20 ADD SWAP1 DUP2 MSTORE PUSH1 0x20 ADD PUSH1 0x0 KECCAK256 PUSH1 0x0 DUP5 PUSH20 0xFFFFFFFFFFFFFFFFFFFFFFFFFFFFFFFFFFFFFFFF AND PUSH20 0xFFFFFFFFFFFFFFFFFFFFFFFFFFFFFFFFFFFFFFFF AND DUP2 MSTORE PUSH1 0x20 ADD SWAP1 DUP2 MSTORE PUSH1 0x20 ADD PUSH1 0x0 KECCAK256 DUP2 SWAP1 SSTORE POP DUP2 PUSH20 0xFFFFFFFFFFFFFFFFFFFFFFFFFFFFFFFFFFFFFFFF AND DUP4 PUSH20 0xFFFFFFFFFFFFFFFFFFFFFFFFFFFFFFFFFFFFFFFF AND PUSH32 0x8C5BE1E5EBEC7D5BD14F71427D1E84F3DD0314C0F7B2291E5B200AC8C7C3B925 DUP4 PUSH1 0x40 MLOAD PUSH2 0xF9E SWAP2 SWAP1 PUSH2 0x1A60 JUMP JUMPDEST PUSH1 0x40 MLOAD DUP1 SWAP2 SUB SWAP1 LOG3 POP POP POP JUMP JUMPDEST PUSH1 0x0 PUSH20 0xFFFFFFFFFFFFFFFFFFFFFFFFFFFFFFFFFFFFFFFF AND DUP4 PUSH20 0xFFFFFFFFFFFFFFFFFFFFFFFFFFFFFFFFFFFFFFFF AND SUB PUSH2 0x101A JUMPI PUSH1 0x40 MLOAD PUSH32 0x8C379A000000000000000000000000000000000000000000000000000000000 DUP2 MSTORE PUSH1 0x4 ADD PUSH2 0x1011 SWAP1 PUSH2 0x25A4 JUMP JUMPDEST PUSH1 0x40 MLOAD DUP1 SWAP2 SUB SWAP1 REVERT JUMPDEST PUSH1 0x0 PUSH20 0xFFFFFFFFFFFFFFFFFFFFFFFFFFFFFFFFFFFFFFFF AND DUP3 PUSH20 0xFFFFFFFFFFFFFFFFFFFFFFFFFFFFFFFFFFFFFFFF AND SUB PUSH2 0x1089 JUMPI PUSH1 0x40 MLOAD PUSH32 0x8C379A000000000000000000000000000000000000000000000000000000000 DUP2 MSTORE PUSH1 0x4 ADD PUSH2 0x1080 SWAP1 PUSH2 0x2636 JUMP JUMPDEST PUSH1 0x40 MLOAD DUP1 SWAP2 SUB SWAP1 REVERT JUMPDEST PUSH2 0x1094 DUP4 DUP4 DUP4 PUSH2 0x174E JUMP JUMPDEST PUSH1 0x0 DUP1 PUSH1 0x0 DUP6 PUSH20 0xFFFFFFFFFFFFFFFFFFFFFFFFFFFFFFFFFFFFFFFF AND PUSH20 0xFFFFFFFFFFFFFFFFFFFFFFFFFFFFFFFFFFFFFFFF AND DUP2 MSTORE PUSH1 0x20 ADD SWAP1 DUP2 MSTORE PUSH1 0x20 ADD PUSH1 0x0 KECCAK256 SLOAD SWAP1 POP DUP2 DUP2 LT ISZERO PUSH2 0x111A JUMPI PUSH1 0x40 MLOAD PUSH32 0x8C379A000000000000000000000000000000000000000000000000000000000 DUP2 MSTORE PUSH1 0x4 ADD PUSH2 0x1111 SWAP1 PUSH2 0x26C8 JUMP JUMPDEST PUSH1 0x40 MLOAD DUP1 SWAP2 SUB SWAP1 REVERT JUMPDEST DUP2 DUP2 SUB PUSH1 0x0 DUP1 DUP7 PUSH20 0xFFFFFFFFFFFFFFFFFFFFFFFFFFFFFFFFFFFFFFFF AND PUSH20 0xFFFFFFFFFFFFFFFFFFFFFFFFFFFFFFFFFFFFFFFF AND DUP2 MSTORE PUSH1 0x20 ADD SWAP1 DUP2 MSTORE PUSH1 0x20 ADD PUSH1 0x0 KECCAK256 DUP2 SWAP1 SSTORE POP DUP2 PUSH1 0x0 DUP1 DUP6 PUSH20 0xFFFFFFFFFFFFFFFFFFFFFFFFFFFFFFFFFFFFFFFF AND PUSH20 0xFFFFFFFFFFFFFFFFFFFFFFFFFFFFFFFFFFFFFFFF AND DUP2 MSTORE PUSH1 0x20 ADD SWAP1 DUP2 MSTORE PUSH1 0x20 ADD PUSH1 0x0 KECCAK256 PUSH1 0x0 DUP3 DUP3 SLOAD ADD SWAP3 POP POP DUP2 SWAP1 SSTORE POP DUP3 PUSH20 0xFFFFFFFFFFFFFFFFFFFFFFFFFFFFFFFFFFFFFFFF AND DUP5 PUSH20 0xFFFFFFFFFFFFFFFFFFFFFFFFFFFFFFFFFFFFFFFF AND PUSH32 0xDDF252AD1BE2C89B69C2B068FC378DAA952BA7F163C4A11628F55A4DF523B3EF DUP5 PUSH1 0x40 MLOAD PUSH2 0x1208 SWAP2 SWAP1 PUSH2 0x1A60 JUMP JUMPDEST PUSH1 0x40 MLOAD DUP1 SWAP2 SUB SWAP1 LOG3 PUSH2 0x121B DUP5 DUP5 DUP5 PUSH2 0x1753 JUMP JUMPDEST POP POP POP POP JUMP JUMPDEST PUSH2 0x1229 PUSH2 0xDDA JUMP JUMPDEST PUSH20 0xFFFFFFFFFFFFFFFFFFFFFFFFFFFFFFFFFFFFFFFF AND PUSH2 0x1247 PUSH2 0x872 JUMP JUMPDEST PUSH20 0xFFFFFFFFFFFFFFFFFFFFFFFFFFFFFFFFFFFFFFFF AND EQ PUSH2 0x129D JUMPI PUSH1 0x40 MLOAD PUSH32 0x8C379A000000000000000000000000000000000000000000000000000000000 DUP2 MSTORE PUSH1 0x4 ADD PUSH2 0x1294 SWAP1 PUSH2 0x2734 JUMP JUMPDEST PUSH1 0x40 MLOAD DUP1 SWAP2 SUB SWAP1 REVERT JUMPDEST JUMP JUMPDEST PUSH2 0x12A7 PUSH2 0x1758 JUMP JUMPDEST PUSH1 0x0 PUSH1 0x5 PUSH1 0x14 PUSH2 0x100 EXP DUP2 SLOAD DUP2 PUSH1 0xFF MUL NOT AND SWAP1 DUP4 ISZERO ISZERO MUL OR SWAP1 SSTORE POP PUSH32 0x5DB9EE0A495BF2E6FF9C91A7834C1BA4FDD244A5E8AA4E537BD38AEAE4B073AA PUSH2 0x12EB PUSH2 0xDDA JUMP JUMPDEST PUSH1 0x40 MLOAD PUSH2 0x12F8 SWAP2 SWAP1 PUSH2 0x1CB0 JUMP JUMPDEST PUSH1 0x40 MLOAD DUP1 SWAP2 SUB SWAP1 LOG1 JUMP JUMPDEST PUSH1 0x0 PUSH20 0xFFFFFFFFFFFFFFFFFFFFFFFFFFFFFFFFFFFFFFFF AND DUP3 PUSH20 0xFFFFFFFFFFFFFFFFFFFFFFFFFFFFFFFFFFFFFFFF AND SUB PUSH2 0x1371 JUMPI PUSH1 0x40 MLOAD PUSH32 0x8C379A000000000000000000000000000000000000000000000000000000000 DUP2 MSTORE PUSH1 0x4 ADD PUSH2 0x1368 SWAP1 PUSH2 0x27A0 JUMP JUMPDEST PUSH1 0x40 MLOAD DUP1 SWAP2 SUB SWAP1 REVERT JUMPDEST PUSH2 0x137D PUSH1 0x0 DUP4 DUP4 PUSH2 0x174E JUMP JUMPDEST DUP1 PUSH1 0x2 PUSH1 0x0 DUP3 DUP3 SLOAD PUSH2 0x138F SWAP2 SWAP1 PUSH2 0x1ECC JUMP JUMPDEST SWAP3 POP POP DUP2 SWAP1 SSTORE POP DUP1 PUSH1 0x0 DUP1 DUP5 PUSH20 0xFFFFFFFFFFFFFFFFFFFFFFFFFFFFFFFFFFFFFFFF AND PUSH20 0xFFFFFFFFFFFFFFFFFFFFFFFFFFFFFFFFFFFFFFFF AND DUP2 MSTORE PUSH1 0x20 ADD SWAP1 DUP2 MSTORE PUSH1 0x20 ADD PUSH1 0x0 KECCAK256 PUSH1 0x0 DUP3 DUP3 SLOAD ADD SWAP3 POP POP DUP2 SWAP1 SSTORE POP DUP2 PUSH20 0xFFFFFFFFFFFFFFFFFFFFFFFFFFFFFFFFFFFFFFFF AND PUSH1 0x0 PUSH20 0xFFFFFFFFFFFFFFFFFFFFFFFFFFFFFFFFFFFFFFFF AND PUSH32 0xDDF252AD1BE2C89B69C2B068FC378DAA952BA7F163C4A11628F55A4DF523B3EF DUP4 PUSH1 0x40 MLOAD PUSH2 0x1440 SWAP2 SWAP1 PUSH2 0x1A60 JUMP JUMPDEST PUSH1 0x40 MLOAD DUP1 SWAP2 SUB SWAP1 LOG3 PUSH2 0x1454 PUSH1 0x0 DUP4 DUP4 PUSH2 0x1753 JUMP JUMPDEST POP POP JUMP JUMPDEST PUSH1 0x0 PUSH20 0xFFFFFFFFFFFFFFFFFFFFFFFFFFFFFFFFFFFFFFFF AND DUP3 PUSH20 0xFFFFFFFFFFFFFFFFFFFFFFFFFFFFFFFFFFFFFFFF AND SUB PUSH2 0x14C7 JUMPI PUSH1 0x40 MLOAD PUSH32 0x8C379A000000000000000000000000000000000000000000000000000000000 DUP2 MSTORE PUSH1 0x4 ADD PUSH2 0x14BE SWAP1 PUSH2 0x2832 JUMP JUMPDEST PUSH1 0x40 MLOAD DUP1 SWAP2 SUB SWAP1 REVERT JUMPDEST PUSH2 0x14D3 DUP3 PUSH1 0x0 DUP4 PUSH2 0x174E JUMP JUMPDEST PUSH1 0x0 DUP1 PUSH1 0x0 DUP5 PUSH20 0xFFFFFFFFFFFFFFFFFFFFFFFFFFFFFFFFFFFFFFFF AND PUSH20 0xFFFFFFFFFFFFFFFFFFFFFFFFFFFFFFFFFFFFFFFF AND DUP2 MSTORE PUSH1 0x20 ADD SWAP1 DUP2 MSTORE PUSH1 0x20 ADD PUSH1 0x0 KECCAK256 SLOAD SWAP1 POP DUP2 DUP2 LT ISZERO PUSH2 0x1559 JUMPI PUSH1 0x40 MLOAD PUSH32 0x8C379A000000000000000000000000000000000000000000000000000000000 DUP2 MSTORE PUSH1 0x4 ADD PUSH2 0x1550 SWAP1 PUSH2 0x28C4 JUMP JUMPDEST PUSH1 0x40 MLOAD DUP1 SWAP2 SUB SWAP1 REVERT JUMPDEST DUP2 DUP2 SUB PUSH1 0x0 DUP1 DUP6 PUSH20 0xFFFFFFFFFFFFFFFFFFFFFFFFFFFFFFFFFFFFFFFF AND PUSH20 0xFFFFFFFFFFFFFFFFFFFFFFFFFFFFFFFFFFFFFFFF AND DUP2 MSTORE PUSH1 0x20 ADD SWAP1 DUP2 MSTORE PUSH1 0x20 ADD PUSH1 0x0 KECCAK256 DUP2 SWAP1 SSTORE POP DUP2 PUSH1 0x2 PUSH1 0x0 DUP3 DUP3 SLOAD SUB SWAP3 POP POP DUP2 SWAP1 SSTORE POP PUSH1 0x0 PUSH20 0xFFFFFFFFFFFFFFFFFFFFFFFFFFFFFFFFFFFFFFFF AND DUP4 PUSH20 0xFFFFFFFFFFFFFFFFFFFFFFFFFFFFFFFFFFFFFFFF AND PUSH32 0xDDF252AD1BE2C89B69C2B068FC378DAA952BA7F163C4A11628F55A4DF523B3EF DUP5 PUSH1 0x40 MLOAD PUSH2 0x160C SWAP2 SWAP1 PUSH2 0x1A60 JUMP JUMPDEST PUSH1 0x40 MLOAD DUP1 SWAP2 SUB SWAP1 LOG3 PUSH2 0x1620 DUP4 PUSH1 0x0 DUP5 PUSH2 0x1753 JUMP JUMPDEST POP POP POP JUMP JUMPDEST PUSH1 0x0 PUSH1 0x5 PUSH1 0x0 SWAP1 SLOAD SWAP1 PUSH2 0x100 EXP SWAP1 DIV PUSH20 0xFFFFFFFFFFFFFFFFFFFFFFFFFFFFFFFFFFFFFFFF AND SWAP1 POP DUP2 PUSH1 0x5 PUSH1 0x0 PUSH2 0x100 EXP DUP2 SLOAD DUP2 PUSH20 0xFFFFFFFFFFFFFFFFFFFFFFFFFFFFFFFFFFFFFFFF MUL NOT AND SWAP1 DUP4 PUSH20 0xFFFFFFFFFFFFFFFFFFFFFFFFFFFFFFFFFFFFFFFF AND MUL OR SWAP1 SSTORE POP DUP2 PUSH20 0xFFFFFFFFFFFFFFFFFFFFFFFFFFFFFFFFFFFFFFFF AND DUP2 PUSH20 0xFFFFFFFFFFFFFFFFFFFFFFFFFFFFFFFFFFFFFFFF AND PUSH32 0x8BE0079C531659141344CD1FD0A4F28419497F9722A3DAAFE3B4186F6B6457E0 PUSH1 0x40 MLOAD PUSH1 0x40 MLOAD DUP1 SWAP2 SUB SWAP1 LOG3 POP POP JUMP JUMPDEST PUSH2 0x16F3 PUSH2 0x17A1 JUMP JUMPDEST PUSH1 0x1 PUSH1 0x5 PUSH1 0x14 PUSH2 0x100 EXP DUP2 SLOAD DUP2 PUSH1 0xFF MUL NOT AND SWAP1 DUP4 ISZERO ISZERO MUL OR SWAP1 SSTORE POP PUSH32 0x62E78CEA01BEE320CD4E420270B5EA74000D11B0C9F74754EBDBFC544B05A258 PUSH2 0x1737 PUSH2 0xDDA JUMP JUMPDEST PUSH1 0x40 MLOAD PUSH2 0x1744 SWAP2 SWAP1 PUSH2 0x1CB0 JUMP JUMPDEST PUSH1 0x40 MLOAD DUP1 SWAP2 SUB SWAP1 LOG1 JUMP JUMPDEST POP POP POP JUMP JUMPDEST POP POP POP JUMP JUMPDEST PUSH2 0x1760 PUSH2 0x7ED JUMP JUMPDEST PUSH2 0x179F JUMPI PUSH1 0x40 MLOAD PUSH32 0x8C379A000000000000000000000000000000000000000000000000000000000 DUP2 MSTORE PUSH1 0x4 ADD PUSH2 0x1796 SWAP1 PUSH2 0x2930 JUMP JUMPDEST PUSH1 0x40 MLOAD DUP1 SWAP2 SUB SWAP1 REVERT JUMPDEST JUMP JUMPDEST PUSH2 0x17A9 PUSH2 0x7ED JUMP JUMPDEST ISZERO PUSH2 0x17E9 JUMPI PUSH1 0x40 MLOAD PUSH32 0x8C379A000000000000000000000000000000000000000000000000000000000 DUP2 MSTORE PUSH1 0x4 ADD PUSH2 0x17E0 SWAP1 PUSH2 0x299C JUMP JUMPDEST PUSH1 0x40 MLOAD DUP1 SWAP2 SUB SWAP1 REVERT JUMPDEST JUMP JUMPDEST PUSH1 0x0 PUSH1 0x40 MLOAD SWAP1 POP SWAP1 JUMP JUMPDEST PUSH1 0x0 DUP1 REVERT JUMPDEST PUSH1 0x0 DUP1 REVERT JUMPDEST PUSH1 0x0 DUP2 SWAP1 POP SWAP2 SWAP1 POP JUMP JUMPDEST PUSH2 0x1812 DUP2 PUSH2 0x17FF JUMP JUMPDEST DUP2 EQ PUSH2 0x181D JUMPI PUSH1 0x0 DUP1 REVERT JUMPDEST POP JUMP JUMPDEST PUSH1 0x0 DUP2 CALLDATALOAD SWAP1 POP PUSH2 0x182F DUP2 PUSH2 0x1809 JUMP JUMPDEST SWAP3 SWAP2 POP POP JUMP JUMPDEST PUSH1 0x0 PUSH1 0x20 DUP3 DUP5 SUB SLT ISZERO PUSH2 0x184B JUMPI PUSH2 0x184A PUSH2 0x17F5 JUMP JUMPDEST JUMPDEST PUSH1 0x0 PUSH2 0x1859 DUP5 DUP3 DUP6 ADD PUSH2 0x1820 JUMP JUMPDEST SWAP2 POP POP SWAP3 SWAP2 POP POP JUMP JUMPDEST PUSH2 0x186B DUP2 PUSH2 0x17FF JUMP JUMPDEST DUP3 MSTORE POP POP JUMP JUMPDEST PUSH1 0x0 PUSH20 0xFFFFFFFFFFFFFFFFFFFFFFFFFFFFFFFFFFFFFFFF DUP3 AND SWAP1 POP SWAP2 SWAP1 POP JUMP JUMPDEST PUSH1 0x0 PUSH2 0x189C DUP3 PUSH2 0x1871 JUMP JUMPDEST SWAP1 POP SWAP2 SWAP1 POP JUMP JUMPDEST PUSH2 0x18AC DUP2 PUSH2 0x1891 JUMP JUMPDEST DUP3 MSTORE POP POP JUMP JUMPDEST PUSH1 0x0 DUP2 MLOAD SWAP1 POP SWAP2 SWAP1 POP JUMP JUMPDEST PUSH1 0x0 DUP3 DUP3 MSTORE PUSH1 0x20 DUP3 ADD SWAP1 POP SWAP3 SWAP2 POP POP JUMP JUMPDEST PUSH1 0x0 JUMPDEST DUP4 DUP2 LT ISZERO PUSH2 0x18EC JUMPI DUP1 DUP3 ADD MLOAD DUP2 DUP5 ADD MSTORE PUSH1 0x20 DUP2 ADD SWAP1 POP PUSH2 0x18D1 JUMP JUMPDEST PUSH1 0x0 DUP5 DUP5 ADD MSTORE POP POP POP POP JUMP JUMPDEST PUSH1 0x0 PUSH1 0x1F NOT PUSH1 0x1F DUP4 ADD AND SWAP1 POP SWAP2 SWAP1 POP JUMP JUMPDEST PUSH1 0x0 PUSH2 0x1914 DUP3 PUSH2 0x18B2 JUMP JUMPDEST PUSH2 0x191E DUP2 DUP6 PUSH2 0x18BD JUMP JUMPDEST SWAP4 POP PUSH2 0x192E DUP2 DUP6 PUSH1 0x20 DUP7 ADD PUSH2 0x18CE JUMP JUMPDEST PUSH2 0x1937 DUP2 PUSH2 0x18F8 JUMP JUMPDEST DUP5 ADD SWAP2 POP POP SWAP3 SWAP2 POP POP JUMP JUMPDEST PUSH1 0x0 PUSH1 0xA0 DUP3 ADD SWAP1 POP PUSH2 0x1957 PUSH1 0x0 DUP4 ADD DUP9 PUSH2 0x1862 JUMP JUMPDEST PUSH2 0x1964 PUSH1 0x20 DUP4 ADD DUP8 PUSH2 0x18A3 JUMP JUMPDEST DUP2 DUP2 SUB PUSH1 0x40 DUP4 ADD MSTORE PUSH2 0x1976 DUP2 DUP7 PUSH2 0x1909 JUMP JUMPDEST SWAP1 POP PUSH2 0x1985 PUSH1 0x60 DUP4 ADD DUP6 PUSH2 0x1862 JUMP JUMPDEST PUSH2 0x1992 PUSH1 0x80 DUP4 ADD DUP5 PUSH2 0x1862 JUMP JUMPDEST SWAP7 SWAP6 POP POP POP POP POP POP JUMP JUMPDEST PUSH1 0x0 PUSH1 0x20 DUP3 ADD SWAP1 POP DUP2 DUP2 SUB PUSH1 0x0 DUP4 ADD MSTORE PUSH2 0x19B6 DUP2 DUP5 PUSH2 0x1909 JUMP JUMPDEST SWAP1 POP SWAP3 SWAP2 POP POP JUMP JUMPDEST PUSH2 0x19C7 DUP2 PUSH2 0x1891 JUMP JUMPDEST DUP2 EQ PUSH2 0x19D2 JUMPI PUSH1 0x0 DUP1 REVERT JUMPDEST POP JUMP JUMPDEST PUSH1 0x0 DUP2 CALLDATALOAD SWAP1 POP PUSH2 0x19E4 DUP2 PUSH2 0x19BE JUMP JUMPDEST SWAP3 SWAP2 POP POP JUMP JUMPDEST PUSH1 0x0 DUP1 PUSH1 0x40 DUP4 DUP6 SUB SLT ISZERO PUSH2 0x1A01 JUMPI PUSH2 0x1A00 PUSH2 0x17F5 JUMP JUMPDEST JUMPDEST PUSH1 0x0 PUSH2 0x1A0F DUP6 DUP3 DUP7 ADD PUSH2 0x19D5 JUMP JUMPDEST SWAP3 POP POP PUSH1 0x20 PUSH2 0x1A20 DUP6 DUP3 DUP7 ADD PUSH2 0x1820 JUMP JUMPDEST SWAP2 POP POP SWAP3 POP SWAP3 SWAP1 POP JUMP JUMPDEST PUSH1 0x0 DUP2 ISZERO ISZERO SWAP1 POP SWAP2 SWAP1 POP JUMP JUMPDEST PUSH2 0x1A3F DUP2 PUSH2 0x1A2A JUMP JUMPDEST DUP3 MSTORE POP POP JUMP JUMPDEST PUSH1 0x0 PUSH1 0x20 DUP3 ADD SWAP1 POP PUSH2 0x1A5A PUSH1 0x0 DUP4 ADD DUP5 PUSH2 0x1A36 JUMP JUMPDEST SWAP3 SWAP2 POP POP JUMP JUMPDEST PUSH1 0x0 PUSH1 0x20 DUP3 ADD SWAP1 POP PUSH2 0x1A75 PUSH1 0x0 DUP4 ADD DUP5 PUSH2 0x1862 JUMP JUMPDEST SWAP3 SWAP2 POP POP JUMP JUMPDEST PUSH1 0x0 DUP1 PUSH1 0x0 PUSH1 0x60 DUP5 DUP7 SUB SLT ISZERO PUSH2 0x1A94 JUMPI PUSH2 0x1A93 PUSH2 0x17F5 JUMP JUMPDEST JUMPDEST PUSH1 0x0 PUSH2 0x1AA2 DUP7 DUP3 DUP8 ADD PUSH2 0x19D5 JUMP JUMPDEST SWAP4 POP POP PUSH1 0x20 PUSH2 0x1AB3 DUP7 DUP3 DUP8 ADD PUSH2 0x19D5 JUMP JUMPDEST SWAP3 POP POP PUSH1 0x40 PUSH2 0x1AC4 DUP7 DUP3 DUP8 ADD PUSH2 0x1820 JUMP JUMPDEST SWAP2 POP POP SWAP3 POP SWAP3 POP SWAP3 JUMP JUMPDEST PUSH1 0x0 PUSH1 0xFF DUP3 AND SWAP1 POP SWAP2 SWAP1 POP JUMP JUMPDEST PUSH2 0x1AE4 DUP2 PUSH2 0x1ACE JUMP JUMPDEST DUP3 MSTORE POP POP JUMP JUMPDEST PUSH1 0x0 PUSH1 0x20 DUP3 ADD SWAP1 POP PUSH2 0x1AFF PUSH1 0x0 DUP4 ADD DUP5 PUSH2 0x1ADB JUMP JUMPDEST SWAP3 SWAP2 POP POP JUMP JUMPDEST PUSH1 0x0 DUP1 REVERT JUMPDEST PUSH1 0x0 DUP1 REVERT JUMPDEST PUSH32 0x4E487B7100000000000000000000000000000000000000000000000000000000 PUSH1 0x0 MSTORE PUSH1 0x41 PUSH1 0x4 MSTORE PUSH1 0x24 PUSH1 0x0 REVERT JUMPDEST PUSH2 0x1B47 DUP3 PUSH2 0x18F8 JUMP JUMPDEST DUP2 ADD DUP2 DUP2 LT PUSH8 0xFFFFFFFFFFFFFFFF DUP3 GT OR ISZERO PUSH2 0x1B66 JUMPI PUSH2 0x1B65 PUSH2 0x1B0F JUMP JUMPDEST JUMPDEST DUP1 PUSH1 0x40 MSTORE POP POP POP JUMP JUMPDEST PUSH1 0x0 PUSH2 0x1B79 PUSH2 0x17EB JUMP JUMPDEST SWAP1 POP PUSH2 0x1B85 DUP3 DUP3 PUSH2 0x1B3E JUMP JUMPDEST SWAP2 SWAP1 POP JUMP JUMPDEST PUSH1 0x0 PUSH8 0xFFFFFFFFFFFFFFFF DUP3 GT ISZERO PUSH2 0x1BA5 JUMPI PUSH2 0x1BA4 PUSH2 0x1B0F JUMP JUMPDEST JUMPDEST PUSH2 0x1BAE DUP3 PUSH2 0x18F8 JUMP JUMPDEST SWAP1 POP PUSH1 0x20 DUP2 ADD SWAP1 POP SWAP2 SWAP1 POP JUMP JUMPDEST DUP3 DUP2 DUP4 CALLDATACOPY PUSH1 0x0 DUP4 DUP4 ADD MSTORE POP POP POP JUMP JUMPDEST PUSH1 0x0 PUSH2 0x1BDD PUSH2 0x1BD8 DUP5 PUSH2 0x1B8A JUMP JUMPDEST PUSH2 0x1B6F JUMP JUMPDEST SWAP1 POP DUP3 DUP2 MSTORE PUSH1 0x20 DUP2 ADD DUP5 DUP5 DUP5 ADD GT ISZERO PUSH2 0x1BF9 JUMPI PUSH2 0x1BF8 PUSH2 0x1B0A JUMP JUMPDEST JUMPDEST PUSH2 0x1C04 DUP5 DUP3 DUP6 PUSH2 0x1BBB JUMP JUMPDEST POP SWAP4 SWAP3 POP POP POP JUMP JUMPDEST PUSH1 0x0 DUP3 PUSH1 0x1F DUP4 ADD SLT PUSH2 0x1C21 JUMPI PUSH2 0x1C20 PUSH2 0x1B05 JUMP JUMPDEST JUMPDEST DUP2 CALLDATALOAD PUSH2 0x1C31 DUP5 DUP3 PUSH1 0x20 DUP7 ADD PUSH2 0x1BCA JUMP JUMPDEST SWAP2 POP POP SWAP3 SWAP2 POP POP JUMP JUMPDEST PUSH1 0x0 PUSH1 0x20 DUP3 DUP5 SUB SLT ISZERO PUSH2 0x1C50 JUMPI PUSH2 0x1C4F PUSH2 0x17F5 JUMP JUMPDEST JUMPDEST PUSH1 0x0 DUP3 ADD CALLDATALOAD PUSH8 0xFFFFFFFFFFFFFFFF DUP2 GT ISZERO PUSH2 0x1C6E JUMPI PUSH2 0x1C6D PUSH2 0x17FA JUMP JUMPDEST JUMPDEST PUSH2 0x1C7A DUP5 DUP3 DUP6 ADD PUSH2 0x1C0C JUMP JUMPDEST SWAP2 POP POP SWAP3 SWAP2 POP POP JUMP JUMPDEST PUSH1 0x0 PUSH1 0x20 DUP3 DUP5 SUB SLT ISZERO PUSH2 0x1C99 JUMPI PUSH2 0x1C98 PUSH2 0x17F5 JUMP JUMPDEST JUMPDEST PUSH1 0x0 PUSH2 0x1CA7 DUP5 DUP3 DUP6 ADD PUSH2 0x19D5 JUMP JUMPDEST SWAP2 POP POP SWAP3 SWAP2 POP POP JUMP JUMPDEST PUSH1 0x0 PUSH1 0x20 DUP3 ADD SWAP1 POP PUSH2 0x1CC5 PUSH1 0x0 DUP4 ADD DUP5 PUSH2 0x18A3 JUMP JUMPDEST SWAP3 SWAP2 POP POP JUMP JUMPDEST PUSH2 0x1CD4 DUP2 PUSH2 0x1A2A JUMP JUMPDEST DUP2 EQ PUSH2 0x1CDF JUMPI PUSH1 0x0 DUP1 REVERT JUMPDEST POP JUMP JUMPDEST PUSH1 0x0 DUP2 CALLDATALOAD SWAP1 POP PUSH2 0x1CF1 DUP2 PUSH2 0x1CCB JUMP JUMPDEST SWAP3 SWAP2 POP POP JUMP JUMPDEST PUSH1 0x0 DUP1 PUSH1 0x40 DUP4 DUP6 SUB SLT ISZERO PUSH2 0x1D0E JUMPI PUSH2 0x1D0D PUSH2 0x17F5 JUMP JUMPDEST JUMPDEST PUSH1 0x0 PUSH2 0x1D1C DUP6 DUP3 DUP7 ADD PUSH2 0x1820 JUMP JUMPDEST SWAP3 POP POP PUSH1 0x20 PUSH2 0x1D2D DUP6 DUP3 DUP7 ADD PUSH2 0x1CE2 JUMP JUMPDEST SWAP2 POP POP SWAP3 POP SWAP3 SWAP1 POP JUMP JUMPDEST PUSH1 0x0 DUP1 PUSH1 0x40 DUP4 DUP6 SUB SLT ISZERO PUSH2 0x1D4E JUMPI PUSH2 0x1D4D PUSH2 0x17F5 JUMP JUMPDEST JUMPDEST PUSH1 0x0 PUSH2 0x1D5C DUP6 DUP3 DUP7 ADD PUSH2 0x19D5 JUMP JUMPDEST SWAP3 POP POP PUSH1 0x20 PUSH2 0x1D6D DUP6 DUP3 DUP7 ADD PUSH2 0x19D5 JUMP JUMPDEST SWAP2 POP POP SWAP3 POP SWAP3 SWAP1 POP JUMP JUMPDEST PUSH32 0x4E487B7100000000000000000000000000000000000000000000000000000000 PUSH1 0x0 MSTORE PUSH1 0x22 PUSH1 0x4 MSTORE PUSH1 0x24 PUSH1 0x0 REVERT JUMPDEST PUSH1 0x0 PUSH1 0x2 DUP3 DIV SWAP1 POP PUSH1 0x1 DUP3 AND DUP1 PUSH2 0x1DBE JUMPI PUSH1 0x7F DUP3 AND SWAP2 POP JUMPDEST PUSH1 0x20 DUP3 LT DUP2 SUB PUSH2 0x1DD1 JUMPI PUSH2 0x1DD0 PUSH2 0x1D77 JUMP JUMPDEST JUMPDEST POP SWAP2 SWAP1 POP JUMP JUMPDEST PUSH32 0x5445583A207472616E7366657220746F20746865207A65726F20616464726573 PUSH1 0x0 DUP3 ADD MSTORE PUSH32 0x7300000000000000000000000000000000000000000000000000000000000000 PUSH1 0x20 DUP3 ADD MSTORE POP JUMP JUMPDEST PUSH1 0x0 PUSH2 0x1E33 PUSH1 0x21 DUP4 PUSH2 0x18BD JUMP JUMPDEST SWAP2 POP PUSH2 0x1E3E DUP3 PUSH2 0x1DD7 JUMP JUMPDEST PUSH1 0x40 DUP3 ADD SWAP1 POP SWAP2 SWAP1 POP JUMP JUMPDEST PUSH1 0x0 PUSH1 0x20 DUP3 ADD SWAP1 POP DUP2 DUP2 SUB PUSH1 0x0 DUP4 ADD MSTORE PUSH2 0x1E62 DUP2 PUSH2 0x1E26 JUMP JUMPDEST SWAP1 POP SWAP2 SWAP1 POP JUMP JUMPDEST PUSH32 0x4E487B7100000000000000000000000000000000000000000000000000000000 PUSH1 0x0 MSTORE PUSH1 0x11 PUSH1 0x4 MSTORE PUSH1 0x24 PUSH1 0x0 REVERT JUMPDEST PUSH1 0x0 PUSH2 0x1EA3 DUP3 PUSH2 0x17FF JUMP JUMPDEST SWAP2 POP PUSH2 0x1EAE DUP4 PUSH2 0x17FF JUMP JUMPDEST SWAP3 POP DUP3 DUP3 SUB SWAP1 POP DUP2 DUP2 GT ISZERO PUSH2 0x1EC6 JUMPI PUSH2 0x1EC5 PUSH2 0x1E69 JUMP JUMPDEST JUMPDEST SWAP3 SWAP2 POP POP JUMP JUMPDEST PUSH1 0x0 PUSH2 0x1ED7 DUP3 PUSH2 0x17FF JUMP JUMPDEST SWAP2 POP PUSH2 0x1EE2 DUP4 PUSH2 0x17FF JUMP JUMPDEST SWAP3 POP DUP3 DUP3 ADD SWAP1 POP DUP1 DUP3 GT ISZERO PUSH2 0x1EFA JUMPI PUSH2 0x1EF9 PUSH2 0x1E69 JUMP JUMPDEST JUMPDEST SWAP3 SWAP2 POP POP JUMP JUMPDEST PUSH1 0x0 PUSH2 0x1F0B DUP3 PUSH2 0x17FF JUMP JUMPDEST SWAP2 POP PUSH32 0xFFFFFFFFFFFFFFFFFFFFFFFFFFFFFFFFFFFFFFFFFFFFFFFFFFFFFFFFFFFFFFFF DUP3 SUB PUSH2 0x1F3D JUMPI PUSH2 0x1F3C PUSH2 0x1E69 JUMP JUMPDEST JUMPDEST PUSH1 0x1 DUP3 ADD SWAP1 POP SWAP2 SWAP1 POP JUMP JUMPDEST PUSH1 0x0 DUP2 SWAP1 POP DUP2 PUSH1 0x0 MSTORE PUSH1 0x20 PUSH1 0x0 KECCAK256 SWAP1 POP SWAP2 SWAP1 POP JUMP JUMPDEST PUSH1 0x0 PUSH1 0x20 PUSH1 0x1F DUP4 ADD DIV SWAP1 POP SWAP2 SWAP1 POP JUMP JUMPDEST PUSH1 0x0 DUP3 DUP3 SHL SWAP1 POP SWAP3 SWAP2 POP POP JUMP JUMPDEST PUSH1 0x0 PUSH1 0x8 DUP4 MUL PUSH2 0x1FAA PUSH32 0xFFFFFFFFFFFFFFFFFFFFFFFFFFFFFFFFFFFFFFFFFFFFFFFFFFFFFFFFFFFFFFFF DUP3 PUSH2 0x1F6D JUMP JUMPDEST PUSH2 0x1FB4 DUP7 DUP4 PUSH2 0x1F6D JUMP JUMPDEST SWAP6 POP DUP1 NOT DUP5 AND SWAP4 POP DUP1 DUP7 AND DUP5 OR SWAP3 POP POP POP SWAP4 SWAP3 POP POP POP JUMP JUMPDEST PUSH1 0x0 DUP2 SWAP1 POP SWAP2 SWAP1 POP JUMP JUMPDEST PUSH1 0x0 PUSH2 0x1FF1 PUSH2 0x1FEC PUSH2 0x1FE7 DUP5 PUSH2 0x17FF JUMP JUMPDEST PUSH2 0x1FCC JUMP JUMPDEST PUSH2 0x17FF JUMP JUMPDEST SWAP1 POP SWAP2 SWAP1 POP JUMP JUMPDEST PUSH1 0x0 DUP2 SWAP1 POP SWAP2 SWAP1 POP JUMP JUMPDEST PUSH2 0x200B DUP4 PUSH2 0x1FD6 JUMP JUMPDEST PUSH2 0x201F PUSH2 0x2017 DUP3 PUSH2 0x1FF8 JUMP JUMPDEST DUP5 DUP5 SLOAD PUSH2 0x1F7A JUMP JUMPDEST DUP3 SSTORE POP POP POP POP JUMP JUMPDEST PUSH1 0x0 SWAP1 JUMP JUMPDEST PUSH2 0x2034 PUSH2 0x2027 JUMP JUMPDEST PUSH2 0x203F DUP2 DUP5 DUP5 PUSH2 0x2002 JUMP JUMPDEST POP POP POP JUMP JUMPDEST JUMPDEST DUP2 DUP2 LT ISZERO PUSH2 0x2063 JUMPI PUSH2 0x2058 PUSH1 0x0 DUP3 PUSH2 0x202C JUMP JUMPDEST PUSH1 0x1 DUP2 ADD SWAP1 POP PUSH2 0x2045 JUMP JUMPDEST POP POP JUMP JUMPDEST PUSH1 0x1F DUP3 GT ISZERO PUSH2 0x20A8 JUMPI PUSH2 0x2079 DUP2 PUSH2 0x1F48 JUMP JUMPDEST PUSH2 0x2082 DUP5 PUSH2 0x1F5D JUMP JUMPDEST DUP2 ADD PUSH1 0x20 DUP6 LT ISZERO PUSH2 0x2091 JUMPI DUP2 SWAP1 POP JUMPDEST PUSH2 0x20A5 PUSH2 0x209D DUP6 PUSH2 0x1F5D JUMP JUMPDEST DUP4 ADD DUP3 PUSH2 0x2044 JUMP JUMPDEST POP POP JUMPDEST POP POP POP JUMP JUMPDEST PUSH1 0x0 DUP3 DUP3 SHR SWAP1 POP SWAP3 SWAP2 POP POP JUMP JUMPDEST PUSH1 0x0 PUSH2 0x20CB PUSH1 0x0 NOT DUP5 PUSH1 0x8 MUL PUSH2 0x20AD JUMP JUMPDEST NOT DUP1 DUP4 AND SWAP2 POP POP SWAP3 SWAP2 POP POP JUMP JUMPDEST PUSH1 0x0 PUSH2 0x20E4 DUP4 DUP4 PUSH2 0x20BA JUMP JUMPDEST SWAP2 POP DUP3 PUSH1 0x2 MUL DUP3 OR SWAP1 POP SWAP3 SWAP2 POP POP JUMP JUMPDEST PUSH2 0x20FD DUP3 PUSH2 0x18B2 JUMP JUMPDEST PUSH8 0xFFFFFFFFFFFFFFFF DUP2 GT ISZERO PUSH2 0x2116 JUMPI PUSH2 0x2115 PUSH2 0x1B0F JUMP JUMPDEST JUMPDEST PUSH2 0x2120 DUP3 SLOAD PUSH2 0x1DA6 JUMP JUMPDEST PUSH2 0x212B DUP3 DUP3 DUP6 PUSH2 0x2067 JUMP JUMPDEST PUSH1 0x0 PUSH1 0x20 SWAP1 POP PUSH1 0x1F DUP4 GT PUSH1 0x1 DUP2 EQ PUSH2 0x215E JUMPI PUSH1 0x0 DUP5 ISZERO PUSH2 0x214C JUMPI DUP3 DUP8 ADD MLOAD SWAP1 POP JUMPDEST PUSH2 0x2156 DUP6 DUP3 PUSH2 0x20D8 JUMP JUMPDEST DUP7 SSTORE POP PUSH2 0x21BE JUMP JUMPDEST PUSH1 0x1F NOT DUP5 AND PUSH2 0x216C DUP7 PUSH2 0x1F48 JUMP JUMPDEST PUSH1 0x0 JUMPDEST DUP3 DUP2 LT ISZERO PUSH2 0x2194 JUMPI DUP5 DUP10 ADD MLOAD DUP3 SSTORE PUSH1 0x1 DUP3 ADD SWAP2 POP PUSH1 0x20 DUP6 ADD SWAP5 POP PUSH1 0x20 DUP2 ADD SWAP1 POP PUSH2 0x216F JUMP JUMPDEST DUP7 DUP4 LT ISZERO PUSH2 0x21B1 JUMPI DUP5 DUP10 ADD MLOAD PUSH2 0x21AD PUSH1 0x1F DUP10 AND DUP3 PUSH2 0x20BA JUMP JUMPDEST DUP4 SSTORE POP JUMPDEST PUSH1 0x1 PUSH1 0x2 DUP9 MUL ADD DUP9 SSTORE POP POP POP JUMPDEST POP POP POP POP POP POP JUMP JUMPDEST PUSH32 0x45524332303A2064656372656173656420616C6C6F77616E63652062656C6F77 PUSH1 0x0 DUP3 ADD MSTORE PUSH32 0x207A65726F000000000000000000000000000000000000000000000000000000 PUSH1 0x20 DUP3 ADD MSTORE POP JUMP JUMPDEST PUSH1 0x0 PUSH2 0x2222 PUSH1 0x25 DUP4 PUSH2 0x18BD JUMP JUMPDEST SWAP2 POP PUSH2 0x222D DUP3 PUSH2 0x21C6 JUMP JUMPDEST PUSH1 0x40 DUP3 ADD SWAP1 POP SWAP2 SWAP1 POP JUMP JUMPDEST PUSH1 0x0 PUSH1 0x20 DUP3 ADD SWAP1 POP DUP2 DUP2 SUB PUSH1 0x0 DUP4 ADD MSTORE PUSH2 0x2251 DUP2 PUSH2 0x2215 JUMP JUMPDEST SWAP1 POP SWAP2 SWAP1 POP JUMP JUMPDEST PUSH32 0x5445583A20766F7465722068617320616C726561647920766F746564206F6E20 PUSH1 0x0 DUP3 ADD MSTORE PUSH32 0x746869732070726F706F73616C00000000000000000000000000000000000000 PUSH1 0x20 DUP3 ADD MSTORE POP JUMP JUMPDEST PUSH1 0x0 PUSH2 0x22B4 PUSH1 0x2D DUP4 PUSH2 0x18BD JUMP JUMPDEST SWAP2 POP PUSH2 0x22BF DUP3 PUSH2 0x2258 JUMP JUMPDEST PUSH1 0x40 DUP3 ADD SWAP1 POP SWAP2 SWAP1 POP JUMP JUMPDEST PUSH1 0x0 PUSH1 0x20 DUP3 ADD SWAP1 POP DUP2 DUP2 SUB PUSH1 0x0 DUP4 ADD MSTORE PUSH2 0x22E3 DUP2 PUSH2 0x22A7 JUMP JUMPDEST SWAP1 POP SWAP2 SWAP1 POP JUMP JUMPDEST PUSH32 0x5445583A20766F74657220686173206E6F20746F6B656E7320746F20766F7465 PUSH1 0x0 DUP3 ADD MSTORE PUSH32 0x2077697468000000000000000000000000000000000000000000000000000000 PUSH1 0x20 DUP3 ADD MSTORE POP JUMP JUMPDEST PUSH1 0x0 PUSH2 0x2346 PUSH1 0x25 DUP4 PUSH2 0x18BD JUMP JUMPDEST SWAP2 POP PUSH2 0x2351 DUP3 PUSH2 0x22EA JUMP JUMPDEST PUSH1 0x40 DUP3 ADD SWAP1 POP SWAP2 SWAP1 POP JUMP JUMPDEST PUSH1 0x0 PUSH1 0x20 DUP3 ADD SWAP1 POP DUP2 DUP2 SUB PUSH1 0x0 DUP4 ADD MSTORE PUSH2 0x2375 DUP2 PUSH2 0x2339 JUMP JUMPDEST SWAP1 POP SWAP2 SWAP1 POP JUMP JUMPDEST PUSH32 0x4F776E61626C653A206E6577206F776E657220697320746865207A65726F2061 PUSH1 0x0 DUP3 ADD MSTORE PUSH32 0x6464726573730000000000000000000000000000000000000000000000000000 PUSH1 0x20 DUP3 ADD MSTORE POP JUMP JUMPDEST PUSH1 0x0 PUSH2 0x23D8 PUSH1 0x26 DUP4 PUSH2 0x18BD JUMP JUMPDEST SWAP2 POP PUSH2 0x23E3 DUP3 PUSH2 0x237C JUMP JUMPDEST PUSH1 0x40 DUP3 ADD SWAP1 POP SWAP2 SWAP1 POP JUMP JUMPDEST PUSH1 0x0 PUSH1 0x20 DUP3 ADD SWAP1 POP DUP2 DUP2 SUB PUSH1 0x0 DUP4 ADD MSTORE PUSH2 0x2407 DUP2 PUSH2 0x23CB JUMP JUMPDEST SWAP1 POP SWAP2 SWAP1 POP JUMP JUMPDEST PUSH32 0x45524332303A20617070726F76652066726F6D20746865207A65726F20616464 PUSH1 0x0 DUP3 ADD MSTORE PUSH32 0x7265737300000000000000000000000000000000000000000000000000000000 PUSH1 0x20 DUP3 ADD MSTORE POP JUMP JUMPDEST PUSH1 0x0 PUSH2 0x246A PUSH1 0x24 DUP4 PUSH2 0x18BD JUMP JUMPDEST SWAP2 POP PUSH2 0x2475 DUP3 PUSH2 0x240E JUMP JUMPDEST PUSH1 0x40 DUP3 ADD SWAP1 POP SWAP2 SWAP1 POP JUMP JUMPDEST PUSH1 0x0 PUSH1 0x20 DUP3 ADD SWAP1 POP DUP2 DUP2 SUB PUSH1 0x0 DUP4 ADD MSTORE PUSH2 0x2499 DUP2 PUSH2 0x245D JUMP JUMPDEST SWAP1 POP SWAP2 SWAP1 POP JUMP JUMPDEST PUSH32 0x45524332303A20617070726F766520746F20746865207A65726F206164647265 PUSH1 0x0 DUP3 ADD MSTORE PUSH32 0x7373000000000000000000000000000000000000000000000000000000000000 PUSH1 0x20 DUP3 ADD MSTORE POP JUMP JUMPDEST PUSH1 0x0 PUSH2 0x24FC PUSH1 0x22 DUP4 PUSH2 0x18BD JUMP JUMPDEST SWAP2 POP PUSH2 0x2507 DUP3 PUSH2 0x24A0 JUMP JUMPDEST PUSH1 0x40 DUP3 ADD SWAP1 POP SWAP2 SWAP1 POP JUMP JUMPDEST PUSH1 0x0 PUSH1 0x20 DUP3 ADD SWAP1 POP DUP2 DUP2 SUB PUSH1 0x0 DUP4 ADD MSTORE PUSH2 0x252B DUP2 PUSH2 0x24EF JUMP JUMPDEST SWAP1 POP SWAP2 SWAP1 POP JUMP JUMPDEST PUSH32 0x45524332303A207472616E736665722066726F6D20746865207A65726F206164 PUSH1 0x0 DUP3 ADD MSTORE PUSH32 0x6472657373000000000000000000000000000000000000000000000000000000 PUSH1 0x20 DUP3 ADD MSTORE POP JUMP JUMPDEST PUSH1 0x0 PUSH2 0x258E PUSH1 0x25 DUP4 PUSH2 0x18BD JUMP JUMPDEST SWAP2 POP PUSH2 0x2599 DUP3 PUSH2 0x2532 JUMP JUMPDEST PUSH1 0x40 DUP3 ADD SWAP1 POP SWAP2 SWAP1 POP JUMP JUMPDEST PUSH1 0x0 PUSH1 0x20 DUP3 ADD SWAP1 POP DUP2 DUP2 SUB PUSH1 0x0 DUP4 ADD MSTORE PUSH2 0x25BD DUP2 PUSH2 0x2581 JUMP JUMPDEST SWAP1 POP SWAP2 SWAP1 POP JUMP JUMPDEST PUSH32 0x45524332303A207472616E7366657220746F20746865207A65726F2061646472 PUSH1 0x0 DUP3 ADD MSTORE PUSH32 0x6573730000000000000000000000000000000000000000000000000000000000 PUSH1 0x20 DUP3 ADD MSTORE POP JUMP JUMPDEST PUSH1 0x0 PUSH2 0x2620 PUSH1 0x23 DUP4 PUSH2 0x18BD JUMP JUMPDEST SWAP2 POP PUSH2 0x262B DUP3 PUSH2 0x25C4 JUMP JUMPDEST PUSH1 0x40 DUP3 ADD SWAP1 POP SWAP2 SWAP1 POP JUMP JUMPDEST PUSH1 0x0 PUSH1 0x20 DUP3 ADD SWAP1 POP DUP2 DUP2 SUB PUSH1 0x0 DUP4 ADD MSTORE PUSH2 0x264F DUP2 PUSH2 0x2613 JUMP JUMPDEST SWAP1 POP SWAP2 SWAP1 POP JUMP JUMPDEST PUSH32 0x45524332303A207472616E7366657220616D6F756E7420657863656564732062 PUSH1 0x0 DUP3 ADD MSTORE PUSH32 0x616C616E63650000000000000000000000000000000000000000000000000000 PUSH1 0x20 DUP3 ADD MSTORE POP JUMP JUMPDEST PUSH1 0x0 PUSH2 0x26B2 PUSH1 0x26 DUP4 PUSH2 0x18BD JUMP JUMPDEST SWAP2 POP PUSH2 0x26BD DUP3 PUSH2 0x2656 JUMP JUMPDEST PUSH1 0x40 DUP3 ADD SWAP1 POP SWAP2 SWAP1 POP JUMP JUMPDEST PUSH1 0x0 PUSH1 0x20 DUP3 ADD SWAP1 POP DUP2 DUP2 SUB PUSH1 0x0 DUP4 ADD MSTORE PUSH2 0x26E1 DUP2 PUSH2 0x26A5 JUMP JUMPDEST SWAP1 POP SWAP2 SWAP1 POP JUMP JUMPDEST PUSH32 0x4F776E61626C653A2063616C6C6572206973206E6F7420746865206F776E6572 PUSH1 0x0 DUP3 ADD MSTORE POP JUMP JUMPDEST PUSH1 0x0 PUSH2 0x271E PUSH1 0x20 DUP4 PUSH2 0x18BD JUMP JUMPDEST SWAP2 POP PUSH2 0x2729 DUP3 PUSH2 0x26E8 JUMP JUMPDEST PUSH1 0x20 DUP3 ADD SWAP1 POP SWAP2 SWAP1 POP JUMP JUMPDEST PUSH1 0x0 PUSH1 0x20 DUP3 ADD SWAP1 POP DUP2 DUP2 SUB PUSH1 0x0 DUP4 ADD MSTORE PUSH2 0x274D DUP2 PUSH2 0x2711 JUMP JUMPDEST SWAP1 POP SWAP2 SWAP1 POP JUMP JUMPDEST PUSH32 0x45524332303A206D696E7420746F20746865207A65726F206164647265737300 PUSH1 0x0 DUP3 ADD MSTORE POP JUMP JUMPDEST PUSH1 0x0 PUSH2 0x278A PUSH1 0x1F DUP4 PUSH2 0x18BD JUMP JUMPDEST SWAP2 POP PUSH2 0x2795 DUP3 PUSH2 0x2754 JUMP JUMPDEST PUSH1 0x20 DUP3 ADD SWAP1 POP SWAP2 SWAP1 POP JUMP JUMPDEST PUSH1 0x0 PUSH1 0x20 DUP3 ADD SWAP1 POP DUP2 DUP2 SUB PUSH1 0x0 DUP4 ADD MSTORE PUSH2 0x27B9 DUP2 PUSH2 0x277D JUMP JUMPDEST SWAP1 POP SWAP2 SWAP1 POP JUMP JUMPDEST PUSH32 0x45524332303A206275726E2066726F6D20746865207A65726F20616464726573 PUSH1 0x0 DUP3 ADD MSTORE PUSH32 0x7300000000000000000000000000000000000000000000000000000000000000 PUSH1 0x20 DUP3 ADD MSTORE POP JUMP JUMPDEST PUSH1 0x0 PUSH2 0x281C PUSH1 0x21 DUP4 PUSH2 0x18BD JUMP JUMPDEST SWAP2 POP PUSH2 0x2827 DUP3 PUSH2 0x27C0 JUMP JUMPDEST PUSH1 0x40 DUP3 ADD SWAP1 POP SWAP2 SWAP1 POP JUMP JUMPDEST PUSH1 0x0 PUSH1 0x20 DUP3 ADD SWAP1 POP DUP2 DUP2 SUB PUSH1 0x0 DUP4 ADD MSTORE PUSH2 0x284B DUP2 PUSH2 0x280F JUMP JUMPDEST SWAP1 POP SWAP2 SWAP1 POP JUMP JUMPDEST PUSH32 0x45524332303A206275726E20616D6F756E7420657863656564732062616C616E PUSH1 0x0 DUP3 ADD MSTORE PUSH32 0x6365000000000000000000000000000000000000000000000000000000000000 PUSH1 0x20 DUP3 ADD MSTORE POP JUMP JUMPDEST PUSH1 0x0 PUSH2 0x28AE PUSH1 0x22 DUP4 PUSH2 0x18BD JUMP JUMPDEST SWAP2 POP PUSH2 0x28B9 DUP3 PUSH2 0x2852 JUMP JUMPDEST PUSH1 0x40 DUP3 ADD SWAP1 POP SWAP2 SWAP1 POP JUMP JUMPDEST PUSH1 0x0 PUSH1 0x20 DUP3 ADD SWAP1 POP DUP2 DUP2 SUB PUSH1 0x0 DUP4 ADD MSTORE PUSH2 0x28DD DUP2 PUSH2 0x28A1 JUMP JUMPDEST SWAP1 POP SWAP2 SWAP1 POP JUMP JUMPDEST PUSH32 0x5061757361626C653A206E6F7420706175736564000000000000000000000000 PUSH1 0x0 DUP3 ADD MSTORE POP JUMP JUMPDEST PUSH1 0x0 PUSH2 0x291A PUSH1 0x14 DUP4 PUSH2 0x18BD JUMP JUMPDEST SWAP2 POP PUSH2 0x2925 DUP3 PUSH2 0x28E4 JUMP JUMPDEST PUSH1 0x20 DUP3 ADD SWAP1 POP SWAP2 SWAP1 POP JUMP JUMPDEST PUSH1 0x0 PUSH1 0x20 DUP3 ADD SWAP1 POP DUP2 DUP2 SUB PUSH1 0x0 DUP4 ADD MSTORE PUSH2 0x2949 DUP2 PUSH2 0x290D JUMP JUMPDEST SWAP1 POP SWAP2 SWAP1 POP JUMP JUMPDEST PUSH32 0x5061757361626C653A2070617573656400000000000000000000000000000000 PUSH1 0x0 DUP3 ADD MSTORE POP JUMP JUMPDEST PUSH1 0x0 PUSH2 0x2986 PUSH1 0x10 DUP4 PUSH2 0x18BD JUMP JUMPDEST SWAP2 POP PUSH2 0x2991 DUP3 PUSH2 0x2950 JUMP JUMPDEST PUSH1 0x20 DUP3 ADD SWAP1 POP SWAP2 SWAP1 POP JUMP JUMPDEST PUSH1 0x0 PUSH1 0x20 DUP3 ADD SWAP1 POP DUP2 DUP2 SUB PUSH1 0x0 DUP4 ADD MSTORE PUSH2 0x29B5 DUP2 PUSH2 0x2979 JUMP JUMPDEST SWAP1 POP SWAP2 SWAP1 POP JUMP INVALID LOG2 PUSH5 0x6970667358 0x22 SLT KECCAK256 LOG4 PUSH30 0x14215A71498EFF5FA2C5525924F6FD0A17FD67030ABAA469CBE326D776D6 PUSH5 0x736F6C6343 STOP ADDMOD SLT STOP CALLER "
				},
				"gasEstimates": {
					"creation": {
						"codeDepositCost": "2147600",
						"executionCost": "infinite",
						"totalCost": "infinite"
					},
					"external": {
						"allowance(address,address)": "infinite",
						"approve(address,uint256)": "infinite",
						"balanceOf(address)": "2864",
						"burn(uint256)": "infinite",
						"createProposal(string)": "infinite",
						"decimals()": "477",
						"decreaseAllowance(address,uint256)": "infinite",
						"getProposal(uint256)": "infinite",
						"increaseAllowance(address,uint256)": "infinite",
						"mint(address,uint256)": "infinite",
						"name()": "infinite",
						"owner()": "2611",
						"pause()": "infinite",
						"paused()": "2662",
						"proposalCount()": "2517",
						"proposals(uint256)": "infinite",
						"renounceOwnership()": "30443",
						"symbol()": "infinite",
						"totalSupply()": "2527",
						"transfer(address,uint256)": "infinite",
						"transferFrom(address,address,uint256)": "infinite",
						"transferOwnership(address)": "30876",
						"unpause()": "infinite",
						"vote(uint256,bool)": "infinite"
					}
				},
				"methodIdentifiers": {
					"allowance(address,address)": "dd62ed3e",
					"approve(address,uint256)": "095ea7b3",
					"balanceOf(address)": "70a08231",
					"burn(uint256)": "42966c68",
					"createProposal(string)": "49c2a1a6",
					"decimals()": "313ce567",
					"decreaseAllowance(address,uint256)": "a457c2d7",
					"getProposal(uint256)": "c7f758a8",
					"increaseAllowance(address,uint256)": "39509351",
					"mint(address,uint256)": "40c10f19",
					"name()": "06fdde03",
					"owner()": "8da5cb5b",
					"pause()": "8456cb59",
					"paused()": "5c975abb",
					"proposalCount()": "da35c664",
					"proposals(uint256)": "013cf08b",
					"renounceOwnership()": "715018a6",
					"symbol()": "95d89b41",
					"totalSupply()": "18160ddd",
					"transfer(address,uint256)": "a9059cbb",
					"transferFrom(address,address,uint256)": "23b872dd",
					"transferOwnership(address)": "f2fde38b",
					"unpause()": "3f4ba83a",
					"vote(uint256,bool)": "c9d27afe"
				}
			},
			"storageLayout": {
				"storage": [
					{
						"astId": 236,
						"contract": "contracts/TEX.sol:TEX",
						"label": "_balances",
						"offset": 0,
						"slot": "0",
						"type": "t_mapping(t_address,t_uint256)"
					},
					{
						"astId": 242,
						"contract": "contracts/TEX.sol:TEX",
						"label": "_allowances",
						"offset": 0,
						"slot": "1",
						"type": "t_mapping(t_address,t_mapping(t_address,t_uint256))"
					},
					{
						"astId": 244,
						"contract": "contracts/TEX.sol:TEX",
						"label": "_totalSupply",
						"offset": 0,
						"slot": "2",
						"type": "t_uint256"
					},
					{
						"astId": 246,
						"contract": "contracts/TEX.sol:TEX",
						"label": "_name",
						"offset": 0,
						"slot": "3",
						"type": "t_string_storage"
					},
					{
						"astId": 248,
						"contract": "contracts/TEX.sol:TEX",
						"label": "_symbol",
						"offset": 0,
						"slot": "4",
						"type": "t_string_storage"
					},
					{
						"astId": 7,
						"contract": "contracts/TEX.sol:TEX",
						"label": "_owner",
						"offset": 0,
						"slot": "5",
						"type": "t_address"
					},
					{
						"astId": 130,
						"contract": "contracts/TEX.sol:TEX",
						"label": "_paused",
						"offset": 20,
						"slot": "5",
						"type": "t_bool"
					},
					{
						"astId": 961,
						"contract": "contracts/TEX.sol:TEX",
						"label": "proposalCount",
						"offset": 0,
						"slot": "6",
						"type": "t_uint256"
					},
					{
						"astId": 966,
						"contract": "contracts/TEX.sol:TEX",
						"label": "proposals",
						"offset": 0,
						"slot": "7",
						"type": "t_mapping(t_uint256,t_struct(Proposal)958_storage)"
					}
				],
				"types": {
					"t_address": {
						"encoding": "inplace",
						"label": "address",
						"numberOfBytes": "20"
					},
					"t_bool": {
						"encoding": "inplace",
						"label": "bool",
						"numberOfBytes": "1"
					},
					"t_mapping(t_address,t_bool)": {
						"encoding": "mapping",
						"key": "t_address",
						"label": "mapping(address => bool)",
						"numberOfBytes": "32",
						"value": "t_bool"
					},
					"t_mapping(t_address,t_mapping(t_address,t_uint256))": {
						"encoding": "mapping",
						"key": "t_address",
						"label": "mapping(address => mapping(address => uint256))",
						"numberOfBytes": "32",
						"value": "t_mapping(t_address,t_uint256)"
					},
					"t_mapping(t_address,t_uint256)": {
						"encoding": "mapping",
						"key": "t_address",
						"label": "mapping(address => uint256)",
						"numberOfBytes": "32",
						"value": "t_uint256"
					},
					"t_mapping(t_uint256,t_struct(Proposal)958_storage)": {
						"encoding": "mapping",
						"key": "t_uint256",
						"label": "mapping(uint256 => struct TEX.Proposal)",
						"numberOfBytes": "32",
						"value": "t_struct(Proposal)958_storage"
					},
					"t_string_storage": {
						"encoding": "bytes",
						"label": "string",
						"numberOfBytes": "32"
					},
					"t_struct(Proposal)958_storage": {
						"encoding": "inplace",
						"label": "struct TEX.Proposal",
						"members": [
							{
								"astId": 945,
								"contract": "contracts/TEX.sol:TEX",
								"label": "id",
								"offset": 0,
								"slot": "0",
								"type": "t_uint256"
							},
							{
								"astId": 947,
								"contract": "contracts/TEX.sol:TEX",
								"label": "creator",
								"offset": 0,
								"slot": "1",
								"type": "t_address"
							},
							{
								"astId": 949,
								"contract": "contracts/TEX.sol:TEX",
								"label": "description",
								"offset": 0,
								"slot": "2",
								"type": "t_string_storage"
							},
							{
								"astId": 951,
								"contract": "contracts/TEX.sol:TEX",
								"label": "yesVotes",
								"offset": 0,
								"slot": "3",
								"type": "t_uint256"
							},
							{
								"astId": 953,
								"contract": "contracts/TEX.sol:TEX",
								"label": "noVotes",
								"offset": 0,
								"slot": "4",
								"type": "t_uint256"
							},
							{
								"astId": 957,
								"contract": "contracts/TEX.sol:TEX",
								"label": "voted",
								"offset": 0,
								"slot": "5",
								"type": "t_mapping(t_address,t_bool)"
							}
						],
						"numberOfBytes": "192"
					},
					"t_uint256": {
						"encoding": "inplace",
						"label": "uint256",
						"numberOfBytes": "32"
					}
				}
			},
			"userdoc": {
				"kind": "user",
				"methods": {},
				"version": 1
			}
		}
	}
}