{
	"data": {
		"bytecode": {
			"linkReferences": {},
			"object": "60806040526014805460ff60a01b191690553480156200001e57600080fd5b5060405162004b6038038062004b60833981016040819052620000419162000174565b6040518060400160405280600e81526020016d467275697474657820547265657360901b8152506040518060400160405280600381526020016211951560ea1b815250816000908162000095919062000270565b506001620000a4828262000270565b505050620000c1620000bb6200011e60201b60201c565b62000122565b6006805460ff60a01b191690556001600755600980546001600160a01b039096166001600160a01b0319968716179055600d93909355600e919091556016556018556010805482163317905560138054909116301790556200033c565b3390565b600680546001600160a01b038381166001600160a01b0319831681179093556040519116919082907f8be0079c531659141344cd1fd0a4f28419497f9722a3daafe3b4186f6b6457e090600090a35050565b600080600080600060a086880312156200018d57600080fd5b85516001600160a01b0381168114620001a557600080fd5b602087015160408801516060890151608090990151929a91995097965090945092505050565b634e487b7160e01b600052604160045260246000fd5b600181811c90821680620001f657607f821691505b6020821081036200021757634e487b7160e01b600052602260045260246000fd5b50919050565b601f8211156200026b57600081815260208120601f850160051c81016020861015620002465750805b601f850160051c820191505b81811015620002675782815560010162000252565b5050505b505050565b81516001600160401b038111156200028c576200028c620001cb565b620002a4816200029d8454620001e1565b846200021d565b602080601f831160018114620002dc5760008415620002c35750858301515b600019600386901b1c1916600185901b17855562000267565b600085815260208120601f198616915b828110156200030d57888601518255948401946001909101908401620002ec565b50858210156200032c5787850151600019600388901b60f8161c191681555b5050505050600190811b01905550565b614814806200034c6000396000f3fe6080604052600436106103b85760003560e01c80636fae274d116101f2578063b485a58a1161010d578063d6f795bc116100a0578063ea7deade1161006f578063ea7deade14610aeb578063eb2c022314610b0b578063f2fde38b14610b2b578063f522ff2614610b4b57600080fd5b8063d6f795bc14610a6b578063de55278614610a8b578063e24f356a14610aab578063e985e9c514610acb57600080fd5b8063c87b56dd116100dc578063c87b56dd146109e9578063cd90ab4b14610a09578063d43f2ef914610a36578063d6e47d1014610a4b57600080fd5b8063b485a58a1461095a578063b88d4fde1461097a578063c303a6a71461099a578063c57fcf7a146109c957600080fd5b80638456cb591161018557806395d89b411161015457806395d89b41146108fb578063a22cb46514610910578063af7bec6814610930578063b3bbd0171461094557600080fd5b80638456cb59146108885780638da5cb5b1461089d5780638f347fa3146108bb578063958070fc146108db57600080fd5b806374ce6335116101c157806374ce63351461081757806378524d4c146108375780637ce87b431461084a578063840f33021461086857600080fd5b80636fae274d146107bc578063706ff617146107cf57806370a08231146107e2578063715018a61461080257600080fd5b80633f4ba83a116102e257806353aa43b0116102755780635c975abb116102445780635c975abb1461073d5780635e7e9af21461075c5780636352211e1461077c5780636af04a571461079c57600080fd5b806353aa43b0146106bb57806355f804b3146106db578063566af573146106fb57806359d236b21461071b57600080fd5b80634c3f6bbf116102b15780634c3f6bbf146106485780634c58eaa314610668578063524bc6f91461067b57806352d70f891461069b57600080fd5b80633f4ba83a146105dc57806342842e0e146105f157806342c80fc914610611578063498055551461063257600080fd5b8063238a47091161035a5780632f745c59116103295780632f745c591461055e57806332a2c5d01461057e57806336bfc2641461059c5780633f2ad2e3146105bc57600080fd5b8063238a4709146104de57806323b872dd146104fe5780632e1a7d4d1461051e5780632f3a7f0f1461053e57600080fd5b8063081812fc11610396578063081812fc14610441578063095ea7b31461047957806318160ddd1461049b57806323374de3146104be57600080fd5b806301ffc9a7146103bd5780630698c1e9146103f257806306fdde031461041f575b600080fd5b3480156103c957600080fd5b506103dd6103d8366004613d7a565b610b60565b60405190151581526020015b60405180910390f35b3480156103fe57600080fd5b5061041261040d366004613d97565b610bb2565b6040516103e99190613de8565b34801561042b57600080fd5b50610434610c84565b6040516103e99190613e46565b34801561044d57600080fd5b5061046161045c366004613d97565b610d16565b6040516001600160a01b0390911681526020016103e9565b34801561048557600080fd5b50610499610494366004613e6e565b610d3d565b005b3480156104a757600080fd5b506104b0610e52565b6040519081526020016103e9565b3480156104ca57600080fd5b506104996104d9366004613e9a565b610e62565b3480156104ea57600080fd5b506104996104f9366004613d97565b610eb1565b34801561050a57600080fd5b50610499610519366004613eb7565b610f13565b34801561052a57600080fd5b50610499610539366004613d97565b610f9d565b34801561054a57600080fd5b50610499610559366004613e9a565b6110a1565b34801561056a57600080fd5b506104b0610579366004613e6e565b6110cb565b34801561058a57600080fd5b506013546001600160a01b0316610461565b3480156105a857600080fd5b506104996105b7366004613e9a565b6111f4565b3480156105c857600080fd5b506104346105d7366004613d97565b611273565b3480156105e857600080fd5b50610499611338565b3480156105fd57600080fd5b5061049961060c366004613eb7565b61134a565b34801561061d57600080fd5b506014546103dd90600160a01b900460ff1681565b34801561063e57600080fd5b506104b060175481565b34801561065457600080fd5b506103dd610663366004613e9a565b611365565b610499610676366004613ef8565b611382565b34801561068757600080fd5b50610499610696366004613d97565b6116d9565b3480156106a757600080fd5b506104b06106b6366004613ef8565b611730565b3480156106c757600080fd5b506104996106d6366004613e9a565b61177b565b3480156106e757600080fd5b506104996106f6366004613fd7565b6117c3565b34801561070757600080fd5b506104b0610716366004613e6e565b6117db565b34801561072757600080fd5b50610730611854565b6040516103e9919061400b565b34801561074957600080fd5b50600654600160a01b900460ff166103dd565b34801561076857600080fd5b50610499610777366004613ef8565b611a2e565b34801561078857600080fd5b50610461610797366004613d97565b611a48565b3480156107a857600080fd5b50601454610461906001600160a01b031681565b6104996107ca3660046140d8565b611aa8565b6104996107dd366004614132565b611e3d565b3480156107ee57600080fd5b506104b06107fd366004613e9a565b61224c565b34801561080e57600080fd5b506104996122d2565b34801561082357600080fd5b50610730610832366004614171565b6122e4565b6104996108453660046141a1565b6124e7565b34801561085657600080fd5b506010546001600160a01b0316610461565b34801561087457600080fd5b50610499610883366004613d97565b6128d5565b34801561089457600080fd5b506104996129b3565b3480156108a957600080fd5b506006546001600160a01b0316610461565b3480156108c757600080fd5b506104b06108d6366004613d97565b6129c3565b3480156108e757600080fd5b506107306108f6366004613e9a565b612a49565b34801561090757600080fd5b50610434612b58565b34801561091c57600080fd5b5061049961092b3660046141e5565b612b67565b34801561093c57600080fd5b50610461612b72565b34801561095157600080fd5b506018546104b0565b34801561096657600080fd5b50610499610975366004614218565b612be9565b34801561098657600080fd5b5061049961099536600461425e565b612c2e565b3480156109a657600080fd5b506103dd6109b5366004613e9a565b600f546001600160a01b0391821691161490565b3480156109d557600080fd5b506104b06109e4366004613e9a565b612cf1565b3480156109f557600080fd5b50610434610a04366004613d97565b612d50565b348015610a1557600080fd5b506104b0610a24366004613d97565b6000908152600c602052604090205490565b348015610a4257600080fd5b506104b0612ef2565b348015610a5757600080fd5b50610499610a66366004613e9a565b612f39565b348015610a7757600080fd5b50610730610a86366004613d97565b612fb4565b348015610a9757600080fd5b50610499610aa6366004613d97565b613198565b348015610ab757600080fd5b506104b0610ac6366004613e9a565b6131ef565b348015610ad757600080fd5b506103dd610ae63660046142dd565b613247565b348015610af757600080fd5b506104b0610b06366004613d97565b613275565b348015610b1757600080fd5b50610499610b26366004613e9a565b6132af565b348015610b3757600080fd5b50610499610b46366004613e9a565b61330f565b348015610b5757600080fd5b506016546104b0565b60006001600160e01b031982166380ac58cd60e01b1480610b9157506001600160e01b03198216635b5e139f60e01b145b80610bac57506301ffc9a760e01b6001600160e01b03198316145b92915050565b610bba613d2a565b610bc382613385565b610c145760405162461bcd60e51b815260206004820152601860248201527f46545420746f6b656e20646f6573206e6f74206578697374000000000000000060448201526064015b60405180910390fd5b610c1c613d2a565b6040518060a00160405280610c3d856000908152600c602052604090205490565b8152602001848152602001600a6000868152602001908152602001600020548152602001610c6a85611a48565b6001600160a01b0316815260006020909101529392505050565b606060008054610c939061430b565b80601f0160208091040260200160405190810160405280929190818152602001828054610cbf9061430b565b8015610d0c5780601f10610ce157610100808354040283529160200191610d0c565b820191906000526020600020905b815481529060010190602001808311610cef57829003601f168201915b5050505050905090565b6000610d21826133a2565b506000908152600460205260409020546001600160a01b031690565b6000610d4882611a48565b9050806001600160a01b0316836001600160a01b031603610db55760405162461bcd60e51b815260206004820152602160248201527f4552433732313a20617070726f76616c20746f2063757272656e74206f776e656044820152603960f91b6064820152608401610c0b565b336001600160a01b0382161480610dd15750610dd18133613247565b610e435760405162461bcd60e51b815260206004820152603d60248201527f4552433732313a20617070726f76652063616c6c6572206973206e6f7420746f60448201527f6b656e206f776e6572206f7220617070726f76656420666f7220616c6c0000006064820152608401610c0b565b610e4d83836133f2565b505050565b6000610e5d60085490565b905090565b610e6d816001612b67565b60405130815233906001600160a01b038316907f6eb6a21d36d037099a01eb9d70157937d458ff377b0fae85e1cce9fffae4617d906020015b60405180910390a350565b610eb9613460565b600e8190556006546001600160a01b03166001600160a01b03167f4c54c55777e76f8f632c0d6bfe99d436ade32dd1ac531e854fda56e81bbcb42b3330600e54604051610f089392919061433f565b60405180910390a250565b610f1e8383836134ba565b6000818152600c602052604081205490610f3783613275565b604080516001600160a01b03888116825287166020820152308183015260608101859052608081018390529051919250339185917f3a38d2eacbeeedbc6d452e58e4f1b0ceff4e07f20ae7b3ac27acfb256697b02a919081900360a00190a35050505050565b610fa5613460565b610fad6134eb565b478111156110095760405162461bcd60e51b8152602060048201526024808201527f4654543a20576974686472617720616d6f756e7420657863656564732062616c604482015263616e636560e01b6064820152608401610c0b565b6006546040516001600160a01b039091169082156108fc029083906000818181858888f19350505050158015611043573d6000803e3d6000fd5b506006546001600160a01b03166001600160a01b03167fcc7320d7ac24f61b5790719a3c0d7c3cdb569d0affd3996fd075136aa97fb51633308460405161108c9392919061433f565b60405180910390a261109e6001600755565b50565b6110a9613460565b601580546001600160a01b0319166001600160a01b0392909216919091179055565b60006110d68361224c565b82106111245760405162461bcd60e51b815260206004820152601860248201527f4654543a20496e646578206f7574206f6620626f756e647300000000000000006044820152606401610c0b565b600060015b6008548111611198578061113c81613385565b80156111615750856001600160a01b031661115682611a48565b6001600160a01b0316145b1561118557848303611177579250610bac915050565b8261118181614379565b9350505b508061119081614379565b915050611129565b5060405162461bcd60e51b815260206004820152602a60248201527f4654543a204e6f20746f6b656e20666f756e6420666f72207468652070726f766044820152690d2c8cac840d2dcc8caf60b31b6064820152608401610c0b565b6111fc613460565b601080546001600160a01b0383166001600160a01b031990911617905561122b6006546001600160a01b031690565b601054604080513381523060208201526001600160a01b0393841693909216917f4a873df842ec05fed926b149cd74b039bac57cf3e52d37ffdc588331fc053d5a9101610ea6565b606061127e82613385565b61129a5760405162461bcd60e51b8152600401610c0b90614392565b600082815260126020526040902080546112b39061430b565b80601f01602080910402602001604051908101604052809291908181526020018280546112df9061430b565b801561132c5780601f106113015761010080835404028352916020019161132c565b820191906000526020600020905b81548152906001019060200180831161130f57829003601f168201915b50505050509050919050565b611340613460565b611348613544565b565b610e4d83838360405180602001604052806000815250612c2e565b6000610bac61137c6006546001600160a01b031690565b83613247565b61138a613599565b61139382613385565b6113af5760405162461bcd60e51b8152600401610c0b906143c9565b336113b983611a48565b6001600160a01b0316146113df5760405162461bcd60e51b8152600401610c0b90614400565b6000811161142f5760405162461bcd60e51b815260206004820152601c60248201527f4654543a20496e76616c6964206e657720746f6b656e20636f756e74000000006044820152606401610c0b565b6000828152600a60205260409020546114488282614458565b156114bb5760405162461bcd60e51b815260206004820152603760248201527f4654543a205472656520636f756e74206973206e6f7420646976697369626c6560448201527f20627920746865206e657720746f6b656e20636f756e740000000000000000006064820152608401610c0b565b60006114c7838361446c565b6000858152600c60205260408120549192505b848110156115a25760006114ed60085490565b6114f8906001614480565b905061150433826135e6565b611512600880546001019055565b6000818152600a60209081526040808320879055600b8252808320879055600c8252808320869055898352918290205460165483518881523093810193909352928201526060810191909152339082907f9a0ae64c2ba4b3ca76b7199c9d310121f01feff438f93c3623f6964696037f409060800160405180910390a3508061159a81614379565b9150506114da565b506000846016546115b39190614493565b9050803410156116055760405162461bcd60e51b815260206004820152601b60248201527f4654543a20496e73756666696369656e742073706c69742066656500000000006044820152606401610c0b565b6010546040516001600160a01b039091169082156108fc029083906000818181858888f1935050505015801561163f573d6000803e3d6000fd5b506000868152600c60209081526040918290205482518781523092810192909252818301529051339188917fec48241f774e89ada9b8473337c48faf5aed96597e725cc36146a7fe464a17089181900360600190a36000868152600c60205260408120556116ac86613753565b50505060009283525050600a60209081526040808320839055600b8252808320839055600c909152812055565b6116e1613460565b60168190556006546001600160a01b03166001600160a01b03167f72e195b0c4646bbf918f0e0709755a80f1dca9447f44e237e680c392824e67ff3330601654604051610f089392919061433f565b60008061173d838561446c565b9050600061174b8486614458565b905080156117615761175e600183614480565b91505b600082600e546117719190614493565b9695505050505050565b611786816000612b67565b60405130815233906001600160a01b038316907f394821f7ea9547f7a4dff919c8325a0a74866d7045fdefba1f96b4cb13e7ac8590602001610ea6565b6117cb613460565b60196117d782826144f8565b5050565b6000806117e78461224c565b90506000805b8281101561184b57600061180187836110cb565b6000818152600c6020526040902054909150868103611836576000828152600a60205260409020546118339085614480565b93505b5050808061184390614379565b9150506117ed565b50949350505050565b6060600061186160085490565b90506000816001600160401b0381111561187d5761187d613f1a565b6040519080825280602002602001820160405280156118b657816020015b6118a3613d2a565b81526020019060019003908161189b5790505b509050600060015b838111611973576118ce81613385565b15611961576000818152600a6020526040812054906118ec83611a48565b6000848152600c6020526040812054919250506040518060a00160405280828152602001858152602001848152602001836001600160a01b0316815260200160001515815250868681518110611944576119446145b7565b6020026020010181905250848061195a90614379565b9550505050505b8061196b81614379565b9150506118be565b5082811015611a27576000816001600160401b0381111561199657611996613f1a565b6040519080825280602002602001820160405280156119cf57816020015b6119bc613d2a565b8152602001906001900390816119b45790505b50905060005b8281101561184b578381815181106119ef576119ef6145b7565b6020026020010151828281518110611a0957611a096145b7565b60200260200101819052508080611a1f90614379565b9150506119d5565b5092915050565b611a36613460565b6000918252600a602052604090912055565b6000818152600260205260408120546001600160a01b031680610bac5760405162461bcd60e51b8152602060048201526018602482015277115490cdcc8c4e881a5b9d985b1a59081d1bdad95b88125160421b6044820152606401610c0b565b611ab0613599565b6009546040516322f0772f60e01b8152600481018590526000916001600160a01b0316906322f0772f90602401602060405180830381865afa158015611afa573d6000803e3d6000fd5b505050506040513d601f19601f82011682018060405250810190611b1e91906145cd565b11611b675760405162461bcd60e51b81526020600482015260196024820152781195150e88125b9d985b1a5908119513c81d1bdad95b881251603a1b6044820152606401610c0b565b6000611b7382856117db565b6009546040516322f0772f60e01b81526004810187905291925060009183916001600160a01b0316906322f0772f90602401602060405180830381865afa158015611bc2573d6000803e3d6000fd5b505050506040513d601f19601f82011682018060405250810190611be691906145cd565b611bf091906145e6565b905060008451600e54611c039190614493565b905080341015611c515760405162461bcd60e51b81526020600482015260196024820152781195150e88125b9cdd59999a58da595b9d081c185e5b595b9d603a1b6044820152606401610c0b565b6010546040516001600160a01b039091169082156108fc029083906000818181858888f19350505050158015611c8b573d6000803e3d6000fd5b506010546040518281526001600160a01b039091169033907fc6ad30c5a19e45b7468e8dd0050c67ffa72a6c0093110f19eb78cf5ff4faaf679060200160405180910390a36000611cdb60085490565b611ce6906001614480565b905060005b8651811015611e33576000878281518110611d0857611d086145b7565b6020026020010151905060008111611d5c5760405162461bcd60e51b81526020600482015260176024820152761195150e88125b9d985b1a59081d1c99594818dbdd5b9d604a1b6044820152606401610c0b565b84811115611d7c5760405162461bcd60e51b8152600401610c0b906145f9565b611d8687846135e6565b611d94600880546001019055565b6000838152600a60209081526040808320849055600b825280832060019055600c8252918290208b9055600e54825184815230928101929092528183018c9052606082015290516001600160a01b0389169185917fbbbdfe45cb5ac7ffa59e4de633d3bb7a7c24ab1c211582eb5b47314f0bd7f04d9181900360800190a382611e1c81614379565b935050508080611e2b90614379565b915050611ceb565b5050505050505050565b611e45613599565b6009546040516322f0772f60e01b8152600481018690526000916001600160a01b0316906322f0772f90602401602060405180830381865afa158015611e8f573d6000803e3d6000fd5b505050506040513d601f19601f82011682018060405250810190611eb391906145cd565b11611efc5760405162461bcd60e51b81526020600482015260196024820152781195150e88125b9d985b1a5908119513c81d1bdad95b881251603a1b6044820152606401610c0b565b60008311611f465760405162461bcd60e51b81526020600482015260176024820152761195150e88125b9d985b1a59081d1c99594818dbdd5b9d604a1b6044820152606401610c0b565b60008111611f965760405162461bcd60e51b815260206004820152601a60248201527f4654543a20496e76616c696420747265657320706572204654540000000000006044820152606401610c0b565b6000611fa283866117db565b6009546040516322f0772f60e01b81526004810188905291925060009183916001600160a01b0316906322f0772f90602401602060405180830381865afa158015611ff1573d6000803e3d6000fd5b505050506040513d601f19601f8201168201806040525081019061201591906145cd565b61201f91906145e6565b9050808511156120415760405162461bcd60e51b8152600401610c0b906145f9565b600061204d848761446c565b9050600061205b8588614458565b905080156120715761206e600183614480565b91505b600082600e546120819190614493565b9050803410156120cf5760405162461bcd60e51b81526020600482015260196024820152781195150e88125b9cdd59999a58da595b9d081c185e5b595b9d603a1b6044820152606401610c0b565b6010546040516001600160a01b039091169082156108fc029083906000818181858888f19350505050158015612109573d6000803e3d6000fd5b506010546040518281526001600160a01b039091169033907fc6ad30c5a19e45b7468e8dd0050c67ffa72a6c0093110f19eb78cf5ff4faaf679060200160405180910390a360005b838110156122405760006121666001866145e6565b821480156121745750600084115b61217e5787612180565b835b9050600061218d60085490565b612198906001614480565b90506121a48a826135e6565b6121b2600880546001019055565b6000818152600a60209081526040808320859055600b82528083208c9055600c90915290208c9055600e5481908d907fcb8892199b4280486d5b893d048c9e1e67031db974484ce61a1a00767891a4f59085908e90309061221287612d50565b604051612223959493929190614642565b60405180910390a35050808061223890614379565b915050612151565b50505050505050505050565b60006001600160a01b0382166122b65760405162461bcd60e51b815260206004820152602960248201527f4552433732313a2061646472657373207a65726f206973206e6f7420612076616044820152683634b21037bbb732b960b91b6064820152608401610c0b565b506001600160a01b031660009081526003602052604090205490565b6122da613460565b61134860006137e8565b606060006122f160085490565b90506000816001600160401b0381111561230d5761230d613f1a565b60405190808252806020026020018201604052801561234657816020015b612333613d2a565b81526020019060019003908161232b5790505b509050600060015b8381116124285761235e81613385565b15612416576000818152600a60205260408120549061237c83611a48565b6000848152600c602052604090205490915089811480156123ae5750886001600160a01b0316826001600160a01b0316145b15612412576040518060a00160405280828152602001858152602001848152602001836001600160a01b03168152602001600015158152508686815181106123f8576123f86145b7565b6020026020010181905250848061240e90614379565b9550505b5050505b8061242081614379565b91505061234e565b508281101561184b576000816001600160401b0381111561244b5761244b613f1a565b60405190808252806020026020018201604052801561248457816020015b612471613d2a565b8152602001906001900390816124695790505b50905060005b828110156124dc578381815181106124a4576124a46145b7565b60200260200101518282815181106124be576124be6145b7565b602002602001018190525080806124d490614379565b91505061248a565b509695505050505050565b6124ef613599565b60018251116125515760405162461bcd60e51b815260206004820152602860248201527f4654543a204d7573742070726f76696465206174206c656173742074776f20746044820152676f6b656e2049447360c01b6064820152608401610c0b565b61255a81613385565b6125b25760405162461bcd60e51b815260206004820152602360248201527f4654543a204d657267656420746f6b656e20494420646f6573206e6f742065786044820152621a5cdd60ea1b6064820152608401610c0b565b600080600c6000856000815181106125cc576125cc6145b7565b6020026020010151815260200190815260200160002054905060005b84518110156127a9576000858281518110612605576126056145b7565b6020026020010151905061261881613385565b6126645760405162461bcd60e51b815260206004820152601c60248201527f4654543a20546f6b656e20494420646f6573206e6f74206578697374000000006044820152606401610c0b565b3361266e82611a48565b6001600160a01b0316146126945760405162461bcd60e51b8152600401610c0b90614400565b6000818152600c602052604090205483146127015760405162461bcd60e51b815260206004820152602760248201527f4654543a20546f6b656e73206d7573742062656c6f6e6720746f207468652073604482015266616d652046544f60c81b6064820152608401610c0b565b6000818152600a602052604090205461271a8186614480565b945061272582613753565b6000828152600a60209081526040808320839055600b8252808320839055600c8252808320929092558151848152908101839052308183015260608101869052905133917f7366375985c0b04c4b024fa1376fcc4bb5c56809811de4e05b43f70dd790ef32919081900360800190a2505080806127a190614379565b9150506125e8565b506000838152600c6020526040902081905560185434101561280d5760405162461bcd60e51b815260206004820152601b60248201527f4654543a20496e73756666696369656e74206d657267652066656500000000006044820152606401610c0b565b6010546018546040516001600160a01b039092169181156108fc0291906000818181858888f19350505050158015612849573d6000803e3d6000fd5b506000838152600a602052604081208054849290612868908490614480565b90915550506000838152600a6020908152604091829020546018548351878152928301919091523082840152606082018490526080820152905133917f97a05b6d8ef7b1d4e66d2247fc80679577c6614e2a12541529c0f210283ed7f6919081900360a00190a250505050565b6128de81613385565b6128fa5760405162461bcd60e51b8152600401610c0b906143c9565b3361290482611a48565b6001600160a01b03161461292a5760405162461bcd60e51b8152600401610c0b90614400565b61293381613753565b6000818152600a60209081526040808320839055600b8252808320839055600c9091528120819055600061296683613275565b60408051828152306020820152908101849052909150339084907fbea83f804b4f634240c86208336fe94bcc52335d6ae25191d3df96f53dfc601d906060015b60405180910390a3505050565b6129bb613460565b61134861383a565b6000818152600c602052604081205481906009546040516322f0772f60e01b8152600481018390529192506001600160a01b0316906322f0772f90602401602060405180830381865afa158015612a1e573d6000803e3d6000fd5b505050506040513d601f19601f82011682018060405250810190612a4291906145cd565b9392505050565b60606000612a568361224c565b90506000816001600160401b03811115612a7257612a72613f1a565b604051908082528060200260200182016040528015612aab57816020015b612a98613d2a565b815260200190600190039081612a905790505b50905060005b82811015612b50576000612ac586836110cb565b6000818152600c6020526040812054919250506040518060a00160405280828152602001838152602001600a6000858152602001908152602001600020548152602001886001600160a01b0316815260200160001515815250848481518110612b3057612b306145b7565b602002602001018190525050508080612b4890614379565b915050612ab1565b509392505050565b606060018054610c939061430b565b6117d733838361387d565b601454600090600160a01b900460ff16612bd95760405162461bcd60e51b815260206004820152602260248201527f436f6e747261637420686173206e6f74206265656e2075706772616465642079604482015261195d60f21b6064820152608401610c0b565b506014546001600160a01b031690565b612bf1613460565b612bfa82613385565b612c165760405162461bcd60e51b8152600401610c0b90614392565b6000828152601260205260409020610e4d82826144f8565b6000828152600a6020908152604080832054600b909252909120541480612c5f5750600f546001600160a01b031633145b612cdf5760405162461bcd60e51b8152602060048201526044602482018190527f4654543a2043616e206f6e6c79207472616e7366657220656e74697265204654908201527f5420746f6b656e73206f72207370656e646572206d75737420626520617070726064820152631bdd995960e21b608482015260a401610c0b565b612ceb84848484613943565b50505050565b60008080612cfe8461224c565b905060005b81811015612d47576000612d1786836110cb565b90506000612d2482613975565b9050612d308186614480565b945050508080612d3f90614379565b915050612d03565b50909392505050565b6060612d5b82613385565b612d775760405162461bcd60e51b8152600401610c0b90614392565b600060198054612d869061430b565b80601f0160208091040260200160405190810160405280929190818152602001828054612db29061430b565b8015612dff5780601f10612dd457610100808354040283529160200191612dff565b820191906000526020600020905b815481529060010190602001808311612de257829003601f168201915b505050505090506000601260008581526020019081526020016000208054612e269061430b565b80601f0160208091040260200160405190810160405280929190818152602001828054612e529061430b565b8015612e9f5780601f10612e7457610100808354040283529160200191612e9f565b820191906000526020600020905b815481529060010190602001808311612e8257829003601f168201915b50505050509050600081511115612edb578181604051602001612ec392919061467b565b60405160208183030381529060405292505050919050565b505060408051602081019091526000815292915050565b60008060015b612f00610e52565b8111612f33576000818152600a6020526040902054612f1f9083614480565b915080612f2b81614379565b915050612ef8565b50919050565b612f41613460565b600f80546001600160a01b0383166001600160a01b0319909116179055612f706006546001600160a01b031690565b604080513381523060208201526001600160a01b03928316928416917fc0f64df9179e4c09e6af809199c489223f6ab5e85bd066c731edaaec0e6213cf9101610ea6565b60606000612fc160085490565b90506000816001600160401b03811115612fdd57612fdd613f1a565b60405190808252806020026020018201604052801561301657816020015b613003613d2a565b815260200190600190039081612ffb5790505b509050600060015b8381116130da5761302e81613385565b156130c8576000818152600a60205260408120549061304c83611a48565b6000848152600c60205260409020549091508881036130c4576040518060a00160405280828152602001858152602001848152602001836001600160a01b03168152602001600015158152508686815181106130aa576130aa6145b7565b602002602001018190525084806130c090614379565b9550505b5050505b806130d281614379565b91505061301e565b5082811015612b50576000816001600160401b038111156130fd576130fd613f1a565b60405190808252806020026020018201604052801561313657816020015b613123613d2a565b81526020019060019003908161311b5790505b50905060005b8281101561318e57838181518110613156576131566145b7565b6020026020010151828281518110613170576131706145b7565b6020026020010181905250808061318690614379565b91505061313c565b5095945050505050565b6131a0613460565b60188190556006546001600160a01b03166001600160a01b03167f2948106994032aaf0deb1741017d491a5b57160c8dca62d074b7d0e8262c014e3330601854604051610f089392919061433f565b6000806131fb8361224c565b90506000805b82811015612b5057600061321586836110cb565b6000818152600a60205260409020549091506132319084614480565b925050808061323f90614379565b915050613201565b6001600160a01b03918216600090815260056020908152604080832093909416825291909152205460ff1690565b600061328082613385565b61329c5760405162461bcd60e51b8152600401610c0b906143c9565b506000908152600a602052604090205490565b6132b7613460565b601480546001600160a81b0319166001600160a01b0380841691909117600160a01b179182905560405191169030907f2e4cc16c100f0b55e2df82ab0b1a7e294aa9cbd01b48fbaf622683fbc0507a4990600090a350565b613317613460565b6001600160a01b03811661337c5760405162461bcd60e51b815260206004820152602660248201527f4f776e61626c653a206e6577206f776e657220697320746865207a65726f206160448201526564647265737360d01b6064820152608401610c0b565b61109e816137e8565b6000908152600260205260409020546001600160a01b0316151590565b6133ab81613385565b61109e5760405162461bcd60e51b8152602060048201526018602482015277115490cdcc8c4e881a5b9d985b1a59081d1bdad95b88125160421b6044820152606401610c0b565b600081815260046020526040902080546001600160a01b0319166001600160a01b038416908117909155819061342782611a48565b6001600160a01b03167f8c5be1e5ebec7d5bd14f71427d1e84f3dd0314c0f7b2291e5b200ac8c7c3b92560405160405180910390a45050565b6006546001600160a01b031633146113485760405162461bcd60e51b815260206004820181905260248201527f4f776e61626c653a2063616c6c6572206973206e6f7420746865206f776e65726044820152606401610c0b565b6134c433826139e3565b6134e05760405162461bcd60e51b8152600401610c0b906146aa565b610e4d838383613a42565b60026007540361353d5760405162461bcd60e51b815260206004820152601f60248201527f5265656e7472616e637947756172643a207265656e7472616e742063616c6c006044820152606401610c0b565b6002600755565b61354c613ba6565b6006805460ff60a01b191690557f5db9ee0a495bf2e6ff9c91a7834c1ba4fdd244a5e8aa4e537bd38aeae4b073aa335b6040516001600160a01b03909116815260200160405180910390a1565b600654600160a01b900460ff16156113485760405162461bcd60e51b815260206004820152601060248201526f14185d5cd8589b194e881c185d5cd95960821b6044820152606401610c0b565b6001600160a01b03821661363c5760405162461bcd60e51b815260206004820181905260248201527f4552433732313a206d696e7420746f20746865207a65726f20616464726573736044820152606401610c0b565b61364581613385565b156136925760405162461bcd60e51b815260206004820152601c60248201527f4552433732313a20746f6b656e20616c7265616479206d696e746564000000006044820152606401610c0b565b61369b81613385565b156136e85760405162461bcd60e51b815260206004820152601c60248201527f4552433732313a20746f6b656e20616c7265616479206d696e746564000000006044820152606401610c0b565b6001600160a01b038216600081815260036020908152604080832080546001019055848352600290915280822080546001600160a01b0319168417905551839291907fddf252ad1be2c89b69c2b068fc378daa952ba7f163c4a11628f55a4df523b3ef908290a45050565b600061375e82611a48565b905061376982611a48565b600083815260046020908152604080832080546001600160a01b03199081169091556001600160a01b0385168085526003845282852080546000190190558785526002909352818420805490911690555192935084927fddf252ad1be2c89b69c2b068fc378daa952ba7f163c4a11628f55a4df523b3ef908390a45050565b600680546001600160a01b038381166001600160a01b0319831681179093556040519116919082907f8be0079c531659141344cd1fd0a4f28419497f9722a3daafe3b4186f6b6457e090600090a35050565b613842613599565b6006805460ff60a01b1916600160a01b1790557f62e78cea01bee320cd4e420270b5ea74000d11b0c9f74754ebdbfc544b05a25861357c3390565b816001600160a01b0316836001600160a01b0316036138de5760405162461bcd60e51b815260206004820152601960248201527f4552433732313a20617070726f766520746f2063616c6c6572000000000000006044820152606401610c0b565b6001600160a01b03838116600081815260056020908152604080832094871680845294825291829020805460ff191686151590811790915591519182527f17307eab39ab6107e8899845ad3d59bd9653f200f220920489ca2b5937696c3191016129a6565b61394d33836139e3565b6139695760405162461bcd60e51b8152600401610c0b906146aa565b612ceb84848484613bf6565b6000808061398260085490565b905060015b818111612d475761399781613385565b80156139b057506000818152600c602052604090205485145b156139d1576000818152600a60205260409020546139ce9084614480565b92505b806139db81614379565b915050613987565b6000806139ef83611a48565b9050806001600160a01b0316846001600160a01b03161480613a165750613a168185613247565b80613a3a5750836001600160a01b0316613a2f84610d16565b6001600160a01b0316145b949350505050565b826001600160a01b0316613a5582611a48565b6001600160a01b031614613a7b5760405162461bcd60e51b8152600401610c0b906146f7565b6001600160a01b038216613add5760405162461bcd60e51b8152602060048201526024808201527f4552433732313a207472616e7366657220746f20746865207a65726f206164646044820152637265737360e01b6064820152608401610c0b565b826001600160a01b0316613af082611a48565b6001600160a01b031614613b165760405162461bcd60e51b8152600401610c0b906146f7565b600081815260046020908152604080832080546001600160a01b03199081169091556001600160a01b0387811680865260038552838620805460001901905590871680865283862080546001019055868652600290945282852080549092168417909155905184937fddf252ad1be2c89b69c2b068fc378daa952ba7f163c4a11628f55a4df523b3ef91a4505050565b600654600160a01b900460ff166113485760405162461bcd60e51b815260206004820152601460248201527314185d5cd8589b194e881b9bdd081c185d5cd95960621b6044820152606401610c0b565b613c01848484613a42565b613c0d84848484613c29565b612ceb5760405162461bcd60e51b8152600401610c0b9061473c565b60006001600160a01b0384163b15613d1f57604051630a85bd0160e11b81526001600160a01b0385169063150b7a0290613c6d90339089908890889060040161478e565b6020604051808303816000875af1925050508015613ca8575060408051601f3d908101601f19168201909252613ca5918101906147c1565b60015b613d05573d808015613cd6576040519150601f19603f3d011682016040523d82523d6000602084013e613cdb565b606091505b508051600003613cfd5760405162461bcd60e51b8152600401610c0b9061473c565b805181602001fd5b6001600160e01b031916630a85bd0160e11b149050613a3a565b506001949350505050565b6040518060a0016040528060008152602001600081526020016000815260200160006001600160a01b031681526020016000151581525090565b6001600160e01b03198116811461109e57600080fd5b600060208284031215613d8c57600080fd5b8135612a4281613d64565b600060208284031215613da957600080fd5b5035919050565b8051825260208082015190830152604080820151908301526060808201516001600160a01b0316908301526080908101511515910152565b60a08101610bac8284613db0565b60005b83811015613e11578181015183820152602001613df9565b50506000910152565b60008151808452613e32816020860160208601613df6565b601f01601f19169290920160200192915050565b602081526000612a426020830184613e1a565b6001600160a01b038116811461109e57600080fd5b60008060408385031215613e8157600080fd5b8235613e8c81613e59565b946020939093013593505050565b600060208284031215613eac57600080fd5b8135612a4281613e59565b600080600060608486031215613ecc57600080fd5b8335613ed781613e59565b92506020840135613ee781613e59565b929592945050506040919091013590565b60008060408385031215613f0b57600080fd5b50508035926020909101359150565b634e487b7160e01b600052604160045260246000fd5b604051601f8201601f191681016001600160401b0381118282101715613f5857613f58613f1a565b604052919050565b60006001600160401b03831115613f7957613f79613f1a565b613f8c601f8401601f1916602001613f30565b9050828152838383011115613fa057600080fd5b828260208301376000602084830101529392505050565b600082601f830112613fc857600080fd5b612a4283833560208501613f60565b600060208284031215613fe957600080fd5b81356001600160401b03811115613fff57600080fd5b613a3a84828501613fb7565b6020808252825182820181905260009190848201906040850190845b8181101561404d5761403a838551613db0565b9284019260a09290920191600101614027565b50909695505050505050565b600082601f83011261406a57600080fd5b813560206001600160401b0382111561408557614085613f1a565b8160051b614094828201613f30565b92835284810182019282810190878511156140ae57600080fd5b83870192505b848310156140cd578235825291830191908301906140b4565b979650505050505050565b6000806000606084860312156140ed57600080fd5b8335925060208401356001600160401b0381111561410a57600080fd5b61411686828701614059565b925050604084013561412781613e59565b809150509250925092565b6000806000806080858703121561414857600080fd5b8435935060208501359250604085013561416181613e59565b9396929550929360600135925050565b6000806040838503121561418457600080fd5b82359150602083013561419681613e59565b809150509250929050565b600080604083850312156141b457600080fd5b82356001600160401b038111156141ca57600080fd5b6141d685828601614059565b95602094909401359450505050565b600080604083850312156141f857600080fd5b823561420381613e59565b91506020830135801515811461419657600080fd5b6000806040838503121561422b57600080fd5b8235915060208301356001600160401b0381111561424857600080fd5b61425485828601613fb7565b9150509250929050565b6000806000806080858703121561427457600080fd5b843561427f81613e59565b9350602085013561428f81613e59565b92506040850135915060608501356001600160401b038111156142b157600080fd5b8501601f810187136142c257600080fd5b6142d187823560208401613f60565b91505092959194509250565b600080604083850312156142f057600080fd5b82356142fb81613e59565b9150602083013561419681613e59565b600181811c9082168061431f57607f821691505b602082108103612f3357634e487b7160e01b600052602260045260246000fd5b6001600160a01b039384168152919092166020820152604081019190915260600190565b634e487b7160e01b600052601160045260246000fd5b60006001820161438b5761438b614363565b5060010190565b60208082526019908201527f46544f3a20546f6b656e20646f6573206e6f7420657869737400000000000000604082015260600190565b60208082526019908201527f4654543a20546f6b656e20646f6573206e6f7420657869737400000000000000604082015260600190565b60208082526022908201527f4654543a2053656e64657220646f6573206e6f74206f776e2074686520746f6b60408201526132b760f11b606082015260800190565b634e487b7160e01b600052601260045260246000fd5b60008261446757614467614442565b500690565b60008261447b5761447b614442565b500490565b80820180821115610bac57610bac614363565b8082028115828204841417610bac57610bac614363565b601f821115610e4d57600081815260208120601f850160051c810160208610156144d15750805b601f850160051c820191505b818110156144f0578281556001016144dd565b505050505050565b81516001600160401b0381111561451157614511613f1a565b6145258161451f845461430b565b846144aa565b602080601f83116001811461455a57600084156145425750858301515b600019600386901b1c1916600185901b1785556144f0565b600085815260208120601f198616915b828110156145895788860151825594840194600190910190840161456a565b50858210156145a75787850151600019600388901b60f8161c191681555b5050505050600190811b01905550565b634e487b7160e01b600052603260045260246000fd5b6000602082840312156145df57600080fd5b5051919050565b81810381811115610bac57610bac614363565b60208082526029908201527f4654543a204578636565647320617661696c61626c65207472656520636f756e6040820152687420666f722046544f60b81b606082015260800190565b8581526001600160a01b038581166020830152841660408201526060810183905260a0608082018190526000906140cd90830184613e1a565b6000835161468d818460208801613df6565b8351908301906146a1818360208801613df6565b01949350505050565b6020808252602d908201527f4552433732313a2063616c6c6572206973206e6f7420746f6b656e206f776e6560408201526c1c881bdc88185c1c1c9bdd9959609a1b606082015260800190565b60208082526025908201527f4552433732313a207472616e736665722066726f6d20696e636f72726563742060408201526437bbb732b960d91b606082015260800190565b60208082526032908201527f4552433732313a207472616e7366657220746f206e6f6e20455243373231526560408201527131b2b4bb32b91034b6b83632b6b2b73a32b960711b606082015260800190565b6001600160a01b038581168252841660208201526040810183905260806060820181905260009061177190830184613e1a565b6000602082840312156147d357600080fd5b8151612a4281613d6456fea26469706673582212205d538a9844fed1454db4574de754d30ee0b01d21c3a331e863f8f4859ea12acd64736f6c63430008120033",
			"opcodes": "PUSH1 0x80 PUSH1 0x40 MSTORE PUSH1 0x14 DUP1 SLOAD PUSH1 0xFF PUSH1 0xA0 SHL NOT AND SWAP1 SSTORE CALLVALUE DUP1 ISZERO PUSH3 0x1E JUMPI PUSH1 0x0 DUP1 REVERT JUMPDEST POP PUSH1 0x40 MLOAD PUSH3 0x4B60 CODESIZE SUB DUP1 PUSH3 0x4B60 DUP4 CODECOPY DUP2 ADD PUSH1 0x40 DUP2 SWAP1 MSTORE PUSH3 0x41 SWAP2 PUSH3 0x174 JUMP JUMPDEST PUSH1 0x40 MLOAD DUP1 PUSH1 0x40 ADD PUSH1 0x40 MSTORE DUP1 PUSH1 0xE DUP2 MSTORE PUSH1 0x20 ADD PUSH14 0x4672756974746578205472656573 PUSH1 0x90 SHL DUP2 MSTORE POP PUSH1 0x40 MLOAD DUP1 PUSH1 0x40 ADD PUSH1 0x40 MSTORE DUP1 PUSH1 0x3 DUP2 MSTORE PUSH1 0x20 ADD PUSH3 0x119515 PUSH1 0xEA SHL DUP2 MSTORE POP DUP2 PUSH1 0x0 SWAP1 DUP2 PUSH3 0x95 SWAP2 SWAP1 PUSH3 0x270 JUMP JUMPDEST POP PUSH1 0x1 PUSH3 0xA4 DUP3 DUP3 PUSH3 0x270 JUMP JUMPDEST POP POP POP PUSH3 0xC1 PUSH3 0xBB PUSH3 0x11E PUSH1 0x20 SHL PUSH1 0x20 SHR JUMP JUMPDEST PUSH3 0x122 JUMP JUMPDEST PUSH1 0x6 DUP1 SLOAD PUSH1 0xFF PUSH1 0xA0 SHL NOT AND SWAP1 SSTORE PUSH1 0x1 PUSH1 0x7 SSTORE PUSH1 0x9 DUP1 SLOAD PUSH1 0x1 PUSH1 0x1 PUSH1 0xA0 SHL SUB SWAP1 SWAP7 AND PUSH1 0x1 PUSH1 0x1 PUSH1 0xA0 SHL SUB NOT SWAP7 DUP8 AND OR SWAP1 SSTORE PUSH1 0xD SWAP4 SWAP1 SWAP4 SSTORE PUSH1 0xE SWAP2 SWAP1 SWAP2 SSTORE PUSH1 0x16 SSTORE PUSH1 0x18 SSTORE PUSH1 0x10 DUP1 SLOAD DUP3 AND CALLER OR SWAP1 SSTORE PUSH1 0x13 DUP1 SLOAD SWAP1 SWAP2 AND ADDRESS OR SWAP1 SSTORE PUSH3 0x33C JUMP JUMPDEST CALLER SWAP1 JUMP JUMPDEST PUSH1 0x6 DUP1 SLOAD PUSH1 0x1 PUSH1 0x1 PUSH1 0xA0 SHL SUB DUP4 DUP2 AND PUSH1 0x1 PUSH1 0x1 PUSH1 0xA0 SHL SUB NOT DUP4 AND DUP2 OR SWAP1 SWAP4 SSTORE PUSH1 0x40 MLOAD SWAP2 AND SWAP2 SWAP1 DUP3 SWAP1 PUSH32 0x8BE0079C531659141344CD1FD0A4F28419497F9722A3DAAFE3B4186F6B6457E0 SWAP1 PUSH1 0x0 SWAP1 LOG3 POP POP JUMP JUMPDEST PUSH1 0x0 DUP1 PUSH1 0x0 DUP1 PUSH1 0x0 PUSH1 0xA0 DUP7 DUP9 SUB SLT ISZERO PUSH3 0x18D JUMPI PUSH1 0x0 DUP1 REVERT JUMPDEST DUP6 MLOAD PUSH1 0x1 PUSH1 0x1 PUSH1 0xA0 SHL SUB DUP2 AND DUP2 EQ PUSH3 0x1A5 JUMPI PUSH1 0x0 DUP1 REVERT JUMPDEST PUSH1 0x20 DUP8 ADD MLOAD PUSH1 0x40 DUP9 ADD MLOAD PUSH1 0x60 DUP10 ADD MLOAD PUSH1 0x80 SWAP1 SWAP10 ADD MLOAD SWAP3 SWAP11 SWAP2 SWAP10 POP SWAP8 SWAP7 POP SWAP1 SWAP5 POP SWAP3 POP POP POP JUMP JUMPDEST PUSH4 0x4E487B71 PUSH1 0xE0 SHL PUSH1 0x0 MSTORE PUSH1 0x41 PUSH1 0x4 MSTORE PUSH1 0x24 PUSH1 0x0 REVERT JUMPDEST PUSH1 0x1 DUP2 DUP2 SHR SWAP1 DUP3 AND DUP1 PUSH3 0x1F6 JUMPI PUSH1 0x7F DUP3 AND SWAP2 POP JUMPDEST PUSH1 0x20 DUP3 LT DUP2 SUB PUSH3 0x217 JUMPI PUSH4 0x4E487B71 PUSH1 0xE0 SHL PUSH1 0x0 MSTORE PUSH1 0x22 PUSH1 0x4 MSTORE PUSH1 0x24 PUSH1 0x0 REVERT JUMPDEST POP SWAP2 SWAP1 POP JUMP JUMPDEST PUSH1 0x1F DUP3 GT ISZERO PUSH3 0x26B JUMPI PUSH1 0x0 DUP2 DUP2 MSTORE PUSH1 0x20 DUP2 KECCAK256 PUSH1 0x1F DUP6 ADD PUSH1 0x5 SHR DUP2 ADD PUSH1 0x20 DUP7 LT ISZERO PUSH3 0x246 JUMPI POP DUP1 JUMPDEST PUSH1 0x1F DUP6 ADD PUSH1 0x5 SHR DUP3 ADD SWAP2 POP JUMPDEST DUP2 DUP2 LT ISZERO PUSH3 0x267 JUMPI DUP3 DUP2 SSTORE PUSH1 0x1 ADD PUSH3 0x252 JUMP JUMPDEST POP POP POP JUMPDEST POP POP POP JUMP JUMPDEST DUP2 MLOAD PUSH1 0x1 PUSH1 0x1 PUSH1 0x40 SHL SUB DUP2 GT ISZERO PUSH3 0x28C JUMPI PUSH3 0x28C PUSH3 0x1CB JUMP JUMPDEST PUSH3 0x2A4 DUP2 PUSH3 0x29D DUP5 SLOAD PUSH3 0x1E1 JUMP JUMPDEST DUP5 PUSH3 0x21D JUMP JUMPDEST PUSH1 0x20 DUP1 PUSH1 0x1F DUP4 GT PUSH1 0x1 DUP2 EQ PUSH3 0x2DC JUMPI PUSH1 0x0 DUP5 ISZERO PUSH3 0x2C3 JUMPI POP DUP6 DUP4 ADD MLOAD JUMPDEST PUSH1 0x0 NOT PUSH1 0x3 DUP7 SWAP1 SHL SHR NOT AND PUSH1 0x1 DUP6 SWAP1 SHL OR DUP6 SSTORE PUSH3 0x267 JUMP JUMPDEST PUSH1 0x0 DUP6 DUP2 MSTORE PUSH1 0x20 DUP2 KECCAK256 PUSH1 0x1F NOT DUP7 AND SWAP2 JUMPDEST DUP3 DUP2 LT ISZERO PUSH3 0x30D JUMPI DUP9 DUP7 ADD MLOAD DUP3 SSTORE SWAP5 DUP5 ADD SWAP5 PUSH1 0x1 SWAP1 SWAP2 ADD SWAP1 DUP5 ADD PUSH3 0x2EC JUMP JUMPDEST POP DUP6 DUP3 LT ISZERO PUSH3 0x32C JUMPI DUP8 DUP6 ADD MLOAD PUSH1 0x0 NOT PUSH1 0x3 DUP9 SWAP1 SHL PUSH1 0xF8 AND SHR NOT AND DUP2 SSTORE JUMPDEST POP POP POP POP POP PUSH1 0x1 SWAP1 DUP2 SHL ADD SWAP1 SSTORE POP JUMP JUMPDEST PUSH2 0x4814 DUP1 PUSH3 0x34C PUSH1 0x0 CODECOPY PUSH1 0x0 RETURN INVALID PUSH1 0x80 PUSH1 0x40 MSTORE PUSH1 0x4 CALLDATASIZE LT PUSH2 0x3B8 JUMPI PUSH1 0x0 CALLDATALOAD PUSH1 0xE0 SHR DUP1 PUSH4 0x6FAE274D GT PUSH2 0x1F2 JUMPI DUP1 PUSH4 0xB485A58A GT PUSH2 0x10D JUMPI DUP1 PUSH4 0xD6F795BC GT PUSH2 0xA0 JUMPI DUP1 PUSH4 0xEA7DEADE GT PUSH2 0x6F JUMPI DUP1 PUSH4 0xEA7DEADE EQ PUSH2 0xAEB JUMPI DUP1 PUSH4 0xEB2C0223 EQ PUSH2 0xB0B JUMPI DUP1 PUSH4 0xF2FDE38B EQ PUSH2 0xB2B JUMPI DUP1 PUSH4 0xF522FF26 EQ PUSH2 0xB4B JUMPI PUSH1 0x0 DUP1 REVERT JUMPDEST DUP1 PUSH4 0xD6F795BC EQ PUSH2 0xA6B JUMPI DUP1 PUSH4 0xDE552786 EQ PUSH2 0xA8B JUMPI DUP1 PUSH4 0xE24F356A EQ PUSH2 0xAAB JUMPI DUP1 PUSH4 0xE985E9C5 EQ PUSH2 0xACB JUMPI PUSH1 0x0 DUP1 REVERT JUMPDEST DUP1 PUSH4 0xC87B56DD GT PUSH2 0xDC JUMPI DUP1 PUSH4 0xC87B56DD EQ PUSH2 0x9E9 JUMPI DUP1 PUSH4 0xCD90AB4B EQ PUSH2 0xA09 JUMPI DUP1 PUSH4 0xD43F2EF9 EQ PUSH2 0xA36 JUMPI DUP1 PUSH4 0xD6E47D10 EQ PUSH2 0xA4B JUMPI PUSH1 0x0 DUP1 REVERT JUMPDEST DUP1 PUSH4 0xB485A58A EQ PUSH2 0x95A JUMPI DUP1 PUSH4 0xB88D4FDE EQ PUSH2 0x97A JUMPI DUP1 PUSH4 0xC303A6A7 EQ PUSH2 0x99A JUMPI DUP1 PUSH4 0xC57FCF7A EQ PUSH2 0x9C9 JUMPI PUSH1 0x0 DUP1 REVERT JUMPDEST DUP1 PUSH4 0x8456CB59 GT PUSH2 0x185 JUMPI DUP1 PUSH4 0x95D89B41 GT PUSH2 0x154 JUMPI DUP1 PUSH4 0x95D89B41 EQ PUSH2 0x8FB JUMPI DUP1 PUSH4 0xA22CB465 EQ PUSH2 0x910 JUMPI DUP1 PUSH4 0xAF7BEC68 EQ PUSH2 0x930 JUMPI DUP1 PUSH4 0xB3BBD017 EQ PUSH2 0x945 JUMPI PUSH1 0x0 DUP1 REVERT JUMPDEST DUP1 PUSH4 0x8456CB59 EQ PUSH2 0x888 JUMPI DUP1 PUSH4 0x8DA5CB5B EQ PUSH2 0x89D JUMPI DUP1 PUSH4 0x8F347FA3 EQ PUSH2 0x8BB JUMPI DUP1 PUSH4 0x958070FC EQ PUSH2 0x8DB JUMPI PUSH1 0x0 DUP1 REVERT JUMPDEST DUP1 PUSH4 0x74CE6335 GT PUSH2 0x1C1 JUMPI DUP1 PUSH4 0x74CE6335 EQ PUSH2 0x817 JUMPI DUP1 PUSH4 0x78524D4C EQ PUSH2 0x837 JUMPI DUP1 PUSH4 0x7CE87B43 EQ PUSH2 0x84A JUMPI DUP1 PUSH4 0x840F3302 EQ PUSH2 0x868 JUMPI PUSH1 0x0 DUP1 REVERT JUMPDEST DUP1 PUSH4 0x6FAE274D EQ PUSH2 0x7BC JUMPI DUP1 PUSH4 0x706FF617 EQ PUSH2 0x7CF JUMPI DUP1 PUSH4 0x70A08231 EQ PUSH2 0x7E2 JUMPI DUP1 PUSH4 0x715018A6 EQ PUSH2 0x802 JUMPI PUSH1 0x0 DUP1 REVERT JUMPDEST DUP1 PUSH4 0x3F4BA83A GT PUSH2 0x2E2 JUMPI DUP1 PUSH4 0x53AA43B0 GT PUSH2 0x275 JUMPI DUP1 PUSH4 0x5C975ABB GT PUSH2 0x244 JUMPI DUP1 PUSH4 0x5C975ABB EQ PUSH2 0x73D JUMPI DUP1 PUSH4 0x5E7E9AF2 EQ PUSH2 0x75C JUMPI DUP1 PUSH4 0x6352211E EQ PUSH2 0x77C JUMPI DUP1 PUSH4 0x6AF04A57 EQ PUSH2 0x79C JUMPI PUSH1 0x0 DUP1 REVERT JUMPDEST DUP1 PUSH4 0x53AA43B0 EQ PUSH2 0x6BB JUMPI DUP1 PUSH4 0x55F804B3 EQ PUSH2 0x6DB JUMPI DUP1 PUSH4 0x566AF573 EQ PUSH2 0x6FB JUMPI DUP1 PUSH4 0x59D236B2 EQ PUSH2 0x71B JUMPI PUSH1 0x0 DUP1 REVERT JUMPDEST DUP1 PUSH4 0x4C3F6BBF GT PUSH2 0x2B1 JUMPI DUP1 PUSH4 0x4C3F6BBF EQ PUSH2 0x648 JUMPI DUP1 PUSH4 0x4C58EAA3 EQ PUSH2 0x668 JUMPI DUP1 PUSH4 0x524BC6F9 EQ PUSH2 0x67B JUMPI DUP1 PUSH4 0x52D70F89 EQ PUSH2 0x69B JUMPI PUSH1 0x0 DUP1 REVERT JUMPDEST DUP1 PUSH4 0x3F4BA83A EQ PUSH2 0x5DC JUMPI DUP1 PUSH4 0x42842E0E EQ PUSH2 0x5F1 JUMPI DUP1 PUSH4 0x42C80FC9 EQ PUSH2 0x611 JUMPI DUP1 PUSH4 0x49805555 EQ PUSH2 0x632 JUMPI PUSH1 0x0 DUP1 REVERT JUMPDEST DUP1 PUSH4 0x238A4709 GT PUSH2 0x35A JUMPI DUP1 PUSH4 0x2F745C59 GT PUSH2 0x329 JUMPI DUP1 PUSH4 0x2F745C59 EQ PUSH2 0x55E JUMPI DUP1 PUSH4 0x32A2C5D0 EQ PUSH2 0x57E JUMPI DUP1 PUSH4 0x36BFC264 EQ PUSH2 0x59C JUMPI DUP1 PUSH4 0x3F2AD2E3 EQ PUSH2 0x5BC JUMPI PUSH1 0x0 DUP1 REVERT JUMPDEST DUP1 PUSH4 0x238A4709 EQ PUSH2 0x4DE JUMPI DUP1 PUSH4 0x23B872DD EQ PUSH2 0x4FE JUMPI DUP1 PUSH4 0x2E1A7D4D EQ PUSH2 0x51E JUMPI DUP1 PUSH4 0x2F3A7F0F EQ PUSH2 0x53E JUMPI PUSH1 0x0 DUP1 REVERT JUMPDEST DUP1 PUSH4 0x81812FC GT PUSH2 0x396 JUMPI DUP1 PUSH4 0x81812FC EQ PUSH2 0x441 JUMPI DUP1 PUSH4 0x95EA7B3 EQ PUSH2 0x479 JUMPI DUP1 PUSH4 0x18160DDD EQ PUSH2 0x49B JUMPI DUP1 PUSH4 0x23374DE3 EQ PUSH2 0x4BE JUMPI PUSH1 0x0 DUP1 REVERT JUMPDEST DUP1 PUSH4 0x1FFC9A7 EQ PUSH2 0x3BD JUMPI DUP1 PUSH4 0x698C1E9 EQ PUSH2 0x3F2 JUMPI DUP1 PUSH4 0x6FDDE03 EQ PUSH2 0x41F JUMPI JUMPDEST PUSH1 0x0 DUP1 REVERT JUMPDEST CALLVALUE DUP1 ISZERO PUSH2 0x3C9 JUMPI PUSH1 0x0 DUP1 REVERT JUMPDEST POP PUSH2 0x3DD PUSH2 0x3D8 CALLDATASIZE PUSH1 0x4 PUSH2 0x3D7A JUMP JUMPDEST PUSH2 0xB60 JUMP JUMPDEST PUSH1 0x40 MLOAD SWAP1 ISZERO ISZERO DUP2 MSTORE PUSH1 0x20 ADD JUMPDEST PUSH1 0x40 MLOAD DUP1 SWAP2 SUB SWAP1 RETURN JUMPDEST CALLVALUE DUP1 ISZERO PUSH2 0x3FE JUMPI PUSH1 0x0 DUP1 REVERT JUMPDEST POP PUSH2 0x412 PUSH2 0x40D CALLDATASIZE PUSH1 0x4 PUSH2 0x3D97 JUMP JUMPDEST PUSH2 0xBB2 JUMP JUMPDEST PUSH1 0x40 MLOAD PUSH2 0x3E9 SWAP2 SWAP1 PUSH2 0x3DE8 JUMP JUMPDEST CALLVALUE DUP1 ISZERO PUSH2 0x42B JUMPI PUSH1 0x0 DUP1 REVERT JUMPDEST POP PUSH2 0x434 PUSH2 0xC84 JUMP JUMPDEST PUSH1 0x40 MLOAD PUSH2 0x3E9 SWAP2 SWAP1 PUSH2 0x3E46 JUMP JUMPDEST CALLVALUE DUP1 ISZERO PUSH2 0x44D JUMPI PUSH1 0x0 DUP1 REVERT JUMPDEST POP PUSH2 0x461 PUSH2 0x45C CALLDATASIZE PUSH1 0x4 PUSH2 0x3D97 JUMP JUMPDEST PUSH2 0xD16 JUMP JUMPDEST PUSH1 0x40 MLOAD PUSH1 0x1 PUSH1 0x1 PUSH1 0xA0 SHL SUB SWAP1 SWAP2 AND DUP2 MSTORE PUSH1 0x20 ADD PUSH2 0x3E9 JUMP JUMPDEST CALLVALUE DUP1 ISZERO PUSH2 0x485 JUMPI PUSH1 0x0 DUP1 REVERT JUMPDEST POP PUSH2 0x499 PUSH2 0x494 CALLDATASIZE PUSH1 0x4 PUSH2 0x3E6E JUMP JUMPDEST PUSH2 0xD3D JUMP JUMPDEST STOP JUMPDEST CALLVALUE DUP1 ISZERO PUSH2 0x4A7 JUMPI PUSH1 0x0 DUP1 REVERT JUMPDEST POP PUSH2 0x4B0 PUSH2 0xE52 JUMP JUMPDEST PUSH1 0x40 MLOAD SWAP1 DUP2 MSTORE PUSH1 0x20 ADD PUSH2 0x3E9 JUMP JUMPDEST CALLVALUE DUP1 ISZERO PUSH2 0x4CA JUMPI PUSH1 0x0 DUP1 REVERT JUMPDEST POP PUSH2 0x499 PUSH2 0x4D9 CALLDATASIZE PUSH1 0x4 PUSH2 0x3E9A JUMP JUMPDEST PUSH2 0xE62 JUMP JUMPDEST CALLVALUE DUP1 ISZERO PUSH2 0x4EA JUMPI PUSH1 0x0 DUP1 REVERT JUMPDEST POP PUSH2 0x499 PUSH2 0x4F9 CALLDATASIZE PUSH1 0x4 PUSH2 0x3D97 JUMP JUMPDEST PUSH2 0xEB1 JUMP JUMPDEST CALLVALUE DUP1 ISZERO PUSH2 0x50A JUMPI PUSH1 0x0 DUP1 REVERT JUMPDEST POP PUSH2 0x499 PUSH2 0x519 CALLDATASIZE PUSH1 0x4 PUSH2 0x3EB7 JUMP JUMPDEST PUSH2 0xF13 JUMP JUMPDEST CALLVALUE DUP1 ISZERO PUSH2 0x52A JUMPI PUSH1 0x0 DUP1 REVERT JUMPDEST POP PUSH2 0x499 PUSH2 0x539 CALLDATASIZE PUSH1 0x4 PUSH2 0x3D97 JUMP JUMPDEST PUSH2 0xF9D JUMP JUMPDEST CALLVALUE DUP1 ISZERO PUSH2 0x54A JUMPI PUSH1 0x0 DUP1 REVERT JUMPDEST POP PUSH2 0x499 PUSH2 0x559 CALLDATASIZE PUSH1 0x4 PUSH2 0x3E9A JUMP JUMPDEST PUSH2 0x10A1 JUMP JUMPDEST CALLVALUE DUP1 ISZERO PUSH2 0x56A JUMPI PUSH1 0x0 DUP1 REVERT JUMPDEST POP PUSH2 0x4B0 PUSH2 0x579 CALLDATASIZE PUSH1 0x4 PUSH2 0x3E6E JUMP JUMPDEST PUSH2 0x10CB JUMP JUMPDEST CALLVALUE DUP1 ISZERO PUSH2 0x58A JUMPI PUSH1 0x0 DUP1 REVERT JUMPDEST POP PUSH1 0x13 SLOAD PUSH1 0x1 PUSH1 0x1 PUSH1 0xA0 SHL SUB AND PUSH2 0x461 JUMP JUMPDEST CALLVALUE DUP1 ISZERO PUSH2 0x5A8 JUMPI PUSH1 0x0 DUP1 REVERT JUMPDEST POP PUSH2 0x499 PUSH2 0x5B7 CALLDATASIZE PUSH1 0x4 PUSH2 0x3E9A JUMP JUMPDEST PUSH2 0x11F4 JUMP JUMPDEST CALLVALUE DUP1 ISZERO PUSH2 0x5C8 JUMPI PUSH1 0x0 DUP1 REVERT JUMPDEST POP PUSH2 0x434 PUSH2 0x5D7 CALLDATASIZE PUSH1 0x4 PUSH2 0x3D97 JUMP JUMPDEST PUSH2 0x1273 JUMP JUMPDEST CALLVALUE DUP1 ISZERO PUSH2 0x5E8 JUMPI PUSH1 0x0 DUP1 REVERT JUMPDEST POP PUSH2 0x499 PUSH2 0x1338 JUMP JUMPDEST CALLVALUE DUP1 ISZERO PUSH2 0x5FD JUMPI PUSH1 0x0 DUP1 REVERT JUMPDEST POP PUSH2 0x499 PUSH2 0x60C CALLDATASIZE PUSH1 0x4 PUSH2 0x3EB7 JUMP JUMPDEST PUSH2 0x134A JUMP JUMPDEST CALLVALUE DUP1 ISZERO PUSH2 0x61D JUMPI PUSH1 0x0 DUP1 REVERT JUMPDEST POP PUSH1 0x14 SLOAD PUSH2 0x3DD SWAP1 PUSH1 0x1 PUSH1 0xA0 SHL SWAP1 DIV PUSH1 0xFF AND DUP2 JUMP JUMPDEST CALLVALUE DUP1 ISZERO PUSH2 0x63E JUMPI PUSH1 0x0 DUP1 REVERT JUMPDEST POP PUSH2 0x4B0 PUSH1 0x17 SLOAD DUP2 JUMP JUMPDEST CALLVALUE DUP1 ISZERO PUSH2 0x654 JUMPI PUSH1 0x0 DUP1 REVERT JUMPDEST POP PUSH2 0x3DD PUSH2 0x663 CALLDATASIZE PUSH1 0x4 PUSH2 0x3E9A JUMP JUMPDEST PUSH2 0x1365 JUMP JUMPDEST PUSH2 0x499 PUSH2 0x676 CALLDATASIZE PUSH1 0x4 PUSH2 0x3EF8 JUMP JUMPDEST PUSH2 0x1382 JUMP JUMPDEST CALLVALUE DUP1 ISZERO PUSH2 0x687 JUMPI PUSH1 0x0 DUP1 REVERT JUMPDEST POP PUSH2 0x499 PUSH2 0x696 CALLDATASIZE PUSH1 0x4 PUSH2 0x3D97 JUMP JUMPDEST PUSH2 0x16D9 JUMP JUMPDEST CALLVALUE DUP1 ISZERO PUSH2 0x6A7 JUMPI PUSH1 0x0 DUP1 REVERT JUMPDEST POP PUSH2 0x4B0 PUSH2 0x6B6 CALLDATASIZE PUSH1 0x4 PUSH2 0x3EF8 JUMP JUMPDEST PUSH2 0x1730 JUMP JUMPDEST CALLVALUE DUP1 ISZERO PUSH2 0x6C7 JUMPI PUSH1 0x0 DUP1 REVERT JUMPDEST POP PUSH2 0x499 PUSH2 0x6D6 CALLDATASIZE PUSH1 0x4 PUSH2 0x3E9A JUMP JUMPDEST PUSH2 0x177B JUMP JUMPDEST CALLVALUE DUP1 ISZERO PUSH2 0x6E7 JUMPI PUSH1 0x0 DUP1 REVERT JUMPDEST POP PUSH2 0x499 PUSH2 0x6F6 CALLDATASIZE PUSH1 0x4 PUSH2 0x3FD7 JUMP JUMPDEST PUSH2 0x17C3 JUMP JUMPDEST CALLVALUE DUP1 ISZERO PUSH2 0x707 JUMPI PUSH1 0x0 DUP1 REVERT JUMPDEST POP PUSH2 0x4B0 PUSH2 0x716 CALLDATASIZE PUSH1 0x4 PUSH2 0x3E6E JUMP JUMPDEST PUSH2 0x17DB JUMP JUMPDEST CALLVALUE DUP1 ISZERO PUSH2 0x727 JUMPI PUSH1 0x0 DUP1 REVERT JUMPDEST POP PUSH2 0x730 PUSH2 0x1854 JUMP JUMPDEST PUSH1 0x40 MLOAD PUSH2 0x3E9 SWAP2 SWAP1 PUSH2 0x400B JUMP JUMPDEST CALLVALUE DUP1 ISZERO PUSH2 0x749 JUMPI PUSH1 0x0 DUP1 REVERT JUMPDEST POP PUSH1 0x6 SLOAD PUSH1 0x1 PUSH1 0xA0 SHL SWAP1 DIV PUSH1 0xFF AND PUSH2 0x3DD JUMP JUMPDEST CALLVALUE DUP1 ISZERO PUSH2 0x768 JUMPI PUSH1 0x0 DUP1 REVERT JUMPDEST POP PUSH2 0x499 PUSH2 0x777 CALLDATASIZE PUSH1 0x4 PUSH2 0x3EF8 JUMP JUMPDEST PUSH2 0x1A2E JUMP JUMPDEST CALLVALUE DUP1 ISZERO PUSH2 0x788 JUMPI PUSH1 0x0 DUP1 REVERT JUMPDEST POP PUSH2 0x461 PUSH2 0x797 CALLDATASIZE PUSH1 0x4 PUSH2 0x3D97 JUMP JUMPDEST PUSH2 0x1A48 JUMP JUMPDEST CALLVALUE DUP1 ISZERO PUSH2 0x7A8 JUMPI PUSH1 0x0 DUP1 REVERT JUMPDEST POP PUSH1 0x14 SLOAD PUSH2 0x461 SWAP1 PUSH1 0x1 PUSH1 0x1 PUSH1 0xA0 SHL SUB AND DUP2 JUMP JUMPDEST PUSH2 0x499 PUSH2 0x7CA CALLDATASIZE PUSH1 0x4 PUSH2 0x40D8 JUMP JUMPDEST PUSH2 0x1AA8 JUMP JUMPDEST PUSH2 0x499 PUSH2 0x7DD CALLDATASIZE PUSH1 0x4 PUSH2 0x4132 JUMP JUMPDEST PUSH2 0x1E3D JUMP JUMPDEST CALLVALUE DUP1 ISZERO PUSH2 0x7EE JUMPI PUSH1 0x0 DUP1 REVERT JUMPDEST POP PUSH2 0x4B0 PUSH2 0x7FD CALLDATASIZE PUSH1 0x4 PUSH2 0x3E9A JUMP JUMPDEST PUSH2 0x224C JUMP JUMPDEST CALLVALUE DUP1 ISZERO PUSH2 0x80E JUMPI PUSH1 0x0 DUP1 REVERT JUMPDEST POP PUSH2 0x499 PUSH2 0x22D2 JUMP JUMPDEST CALLVALUE DUP1 ISZERO PUSH2 0x823 JUMPI PUSH1 0x0 DUP1 REVERT JUMPDEST POP PUSH2 0x730 PUSH2 0x832 CALLDATASIZE PUSH1 0x4 PUSH2 0x4171 JUMP JUMPDEST PUSH2 0x22E4 JUMP JUMPDEST PUSH2 0x499 PUSH2 0x845 CALLDATASIZE PUSH1 0x4 PUSH2 0x41A1 JUMP JUMPDEST PUSH2 0x24E7 JUMP JUMPDEST CALLVALUE DUP1 ISZERO PUSH2 0x856 JUMPI PUSH1 0x0 DUP1 REVERT JUMPDEST POP PUSH1 0x10 SLOAD PUSH1 0x1 PUSH1 0x1 PUSH1 0xA0 SHL SUB AND PUSH2 0x461 JUMP JUMPDEST CALLVALUE DUP1 ISZERO PUSH2 0x874 JUMPI PUSH1 0x0 DUP1 REVERT JUMPDEST POP PUSH2 0x499 PUSH2 0x883 CALLDATASIZE PUSH1 0x4 PUSH2 0x3D97 JUMP JUMPDEST PUSH2 0x28D5 JUMP JUMPDEST CALLVALUE DUP1 ISZERO PUSH2 0x894 JUMPI PUSH1 0x0 DUP1 REVERT JUMPDEST POP PUSH2 0x499 PUSH2 0x29B3 JUMP JUMPDEST CALLVALUE DUP1 ISZERO PUSH2 0x8A9 JUMPI PUSH1 0x0 DUP1 REVERT JUMPDEST POP PUSH1 0x6 SLOAD PUSH1 0x1 PUSH1 0x1 PUSH1 0xA0 SHL SUB AND PUSH2 0x461 JUMP JUMPDEST CALLVALUE DUP1 ISZERO PUSH2 0x8C7 JUMPI PUSH1 0x0 DUP1 REVERT JUMPDEST POP PUSH2 0x4B0 PUSH2 0x8D6 CALLDATASIZE PUSH1 0x4 PUSH2 0x3D97 JUMP JUMPDEST PUSH2 0x29C3 JUMP JUMPDEST CALLVALUE DUP1 ISZERO PUSH2 0x8E7 JUMPI PUSH1 0x0 DUP1 REVERT JUMPDEST POP PUSH2 0x730 PUSH2 0x8F6 CALLDATASIZE PUSH1 0x4 PUSH2 0x3E9A JUMP JUMPDEST PUSH2 0x2A49 JUMP JUMPDEST CALLVALUE DUP1 ISZERO PUSH2 0x907 JUMPI PUSH1 0x0 DUP1 REVERT JUMPDEST POP PUSH2 0x434 PUSH2 0x2B58 JUMP JUMPDEST CALLVALUE DUP1 ISZERO PUSH2 0x91C JUMPI PUSH1 0x0 DUP1 REVERT JUMPDEST POP PUSH2 0x499 PUSH2 0x92B CALLDATASIZE PUSH1 0x4 PUSH2 0x41E5 JUMP JUMPDEST PUSH2 0x2B67 JUMP JUMPDEST CALLVALUE DUP1 ISZERO PUSH2 0x93C JUMPI PUSH1 0x0 DUP1 REVERT JUMPDEST POP PUSH2 0x461 PUSH2 0x2B72 JUMP JUMPDEST CALLVALUE DUP1 ISZERO PUSH2 0x951 JUMPI PUSH1 0x0 DUP1 REVERT JUMPDEST POP PUSH1 0x18 SLOAD PUSH2 0x4B0 JUMP JUMPDEST CALLVALUE DUP1 ISZERO PUSH2 0x966 JUMPI PUSH1 0x0 DUP1 REVERT JUMPDEST POP PUSH2 0x499 PUSH2 0x975 CALLDATASIZE PUSH1 0x4 PUSH2 0x4218 JUMP JUMPDEST PUSH2 0x2BE9 JUMP JUMPDEST CALLVALUE DUP1 ISZERO PUSH2 0x986 JUMPI PUSH1 0x0 DUP1 REVERT JUMPDEST POP PUSH2 0x499 PUSH2 0x995 CALLDATASIZE PUSH1 0x4 PUSH2 0x425E JUMP JUMPDEST PUSH2 0x2C2E JUMP JUMPDEST CALLVALUE DUP1 ISZERO PUSH2 0x9A6 JUMPI PUSH1 0x0 DUP1 REVERT JUMPDEST POP PUSH2 0x3DD PUSH2 0x9B5 CALLDATASIZE PUSH1 0x4 PUSH2 0x3E9A JUMP JUMPDEST PUSH1 0xF SLOAD PUSH1 0x1 PUSH1 0x1 PUSH1 0xA0 SHL SUB SWAP2 DUP3 AND SWAP2 AND EQ SWAP1 JUMP JUMPDEST CALLVALUE DUP1 ISZERO PUSH2 0x9D5 JUMPI PUSH1 0x0 DUP1 REVERT JUMPDEST POP PUSH2 0x4B0 PUSH2 0x9E4 CALLDATASIZE PUSH1 0x4 PUSH2 0x3E9A JUMP JUMPDEST PUSH2 0x2CF1 JUMP JUMPDEST CALLVALUE DUP1 ISZERO PUSH2 0x9F5 JUMPI PUSH1 0x0 DUP1 REVERT JUMPDEST POP PUSH2 0x434 PUSH2 0xA04 CALLDATASIZE PUSH1 0x4 PUSH2 0x3D97 JUMP JUMPDEST PUSH2 0x2D50 JUMP JUMPDEST CALLVALUE DUP1 ISZERO PUSH2 0xA15 JUMPI PUSH1 0x0 DUP1 REVERT JUMPDEST POP PUSH2 0x4B0 PUSH2 0xA24 CALLDATASIZE PUSH1 0x4 PUSH2 0x3D97 JUMP JUMPDEST PUSH1 0x0 SWAP1 DUP2 MSTORE PUSH1 0xC PUSH1 0x20 MSTORE PUSH1 0x40 SWAP1 KECCAK256 SLOAD SWAP1 JUMP JUMPDEST CALLVALUE DUP1 ISZERO PUSH2 0xA42 JUMPI PUSH1 0x0 DUP1 REVERT JUMPDEST POP PUSH2 0x4B0 PUSH2 0x2EF2 JUMP JUMPDEST CALLVALUE DUP1 ISZERO PUSH2 0xA57 JUMPI PUSH1 0x0 DUP1 REVERT JUMPDEST POP PUSH2 0x499 PUSH2 0xA66 CALLDATASIZE PUSH1 0x4 PUSH2 0x3E9A JUMP JUMPDEST PUSH2 0x2F39 JUMP JUMPDEST CALLVALUE DUP1 ISZERO PUSH2 0xA77 JUMPI PUSH1 0x0 DUP1 REVERT JUMPDEST POP PUSH2 0x730 PUSH2 0xA86 CALLDATASIZE PUSH1 0x4 PUSH2 0x3D97 JUMP JUMPDEST PUSH2 0x2FB4 JUMP JUMPDEST CALLVALUE DUP1 ISZERO PUSH2 0xA97 JUMPI PUSH1 0x0 DUP1 REVERT JUMPDEST POP PUSH2 0x499 PUSH2 0xAA6 CALLDATASIZE PUSH1 0x4 PUSH2 0x3D97 JUMP JUMPDEST PUSH2 0x3198 JUMP JUMPDEST CALLVALUE DUP1 ISZERO PUSH2 0xAB7 JUMPI PUSH1 0x0 DUP1 REVERT JUMPDEST POP PUSH2 0x4B0 PUSH2 0xAC6 CALLDATASIZE PUSH1 0x4 PUSH2 0x3E9A JUMP JUMPDEST PUSH2 0x31EF JUMP JUMPDEST CALLVALUE DUP1 ISZERO PUSH2 0xAD7 JUMPI PUSH1 0x0 DUP1 REVERT JUMPDEST POP PUSH2 0x3DD PUSH2 0xAE6 CALLDATASIZE PUSH1 0x4 PUSH2 0x42DD JUMP JUMPDEST PUSH2 0x3247 JUMP JUMPDEST CALLVALUE DUP1 ISZERO PUSH2 0xAF7 JUMPI PUSH1 0x0 DUP1 REVERT JUMPDEST POP PUSH2 0x4B0 PUSH2 0xB06 CALLDATASIZE PUSH1 0x4 PUSH2 0x3D97 JUMP JUMPDEST PUSH2 0x3275 JUMP JUMPDEST CALLVALUE DUP1 ISZERO PUSH2 0xB17 JUMPI PUSH1 0x0 DUP1 REVERT JUMPDEST POP PUSH2 0x499 PUSH2 0xB26 CALLDATASIZE PUSH1 0x4 PUSH2 0x3E9A JUMP JUMPDEST PUSH2 0x32AF JUMP JUMPDEST CALLVALUE DUP1 ISZERO PUSH2 0xB37 JUMPI PUSH1 0x0 DUP1 REVERT JUMPDEST POP PUSH2 0x499 PUSH2 0xB46 CALLDATASIZE PUSH1 0x4 PUSH2 0x3E9A JUMP JUMPDEST PUSH2 0x330F JUMP JUMPDEST CALLVALUE DUP1 ISZERO PUSH2 0xB57 JUMPI PUSH1 0x0 DUP1 REVERT JUMPDEST POP PUSH1 0x16 SLOAD PUSH2 0x4B0 JUMP JUMPDEST PUSH1 0x0 PUSH1 0x1 PUSH1 0x1 PUSH1 0xE0 SHL SUB NOT DUP3 AND PUSH4 0x80AC58CD PUSH1 0xE0 SHL EQ DUP1 PUSH2 0xB91 JUMPI POP PUSH1 0x1 PUSH1 0x1 PUSH1 0xE0 SHL SUB NOT DUP3 AND PUSH4 0x5B5E139F PUSH1 0xE0 SHL EQ JUMPDEST DUP1 PUSH2 0xBAC JUMPI POP PUSH4 0x1FFC9A7 PUSH1 0xE0 SHL PUSH1 0x1 PUSH1 0x1 PUSH1 0xE0 SHL SUB NOT DUP4 AND EQ JUMPDEST SWAP3 SWAP2 POP POP JUMP JUMPDEST PUSH2 0xBBA PUSH2 0x3D2A JUMP JUMPDEST PUSH2 0xBC3 DUP3 PUSH2 0x3385 JUMP JUMPDEST PUSH2 0xC14 JUMPI PUSH1 0x40 MLOAD PUSH3 0x461BCD PUSH1 0xE5 SHL DUP2 MSTORE PUSH1 0x20 PUSH1 0x4 DUP3 ADD MSTORE PUSH1 0x18 PUSH1 0x24 DUP3 ADD MSTORE PUSH32 0x46545420746F6B656E20646F6573206E6F742065786973740000000000000000 PUSH1 0x44 DUP3 ADD MSTORE PUSH1 0x64 ADD JUMPDEST PUSH1 0x40 MLOAD DUP1 SWAP2 SUB SWAP1 REVERT JUMPDEST PUSH2 0xC1C PUSH2 0x3D2A JUMP JUMPDEST PUSH1 0x40 MLOAD DUP1 PUSH1 0xA0 ADD PUSH1 0x40 MSTORE DUP1 PUSH2 0xC3D DUP6 PUSH1 0x0 SWAP1 DUP2 MSTORE PUSH1 0xC PUSH1 0x20 MSTORE PUSH1 0x40 SWAP1 KECCAK256 SLOAD SWAP1 JUMP JUMPDEST DUP2 MSTORE PUSH1 0x20 ADD DUP5 DUP2 MSTORE PUSH1 0x20 ADD PUSH1 0xA PUSH1 0x0 DUP7 DUP2 MSTORE PUSH1 0x20 ADD SWAP1 DUP2 MSTORE PUSH1 0x20 ADD PUSH1 0x0 KECCAK256 SLOAD DUP2 MSTORE PUSH1 0x20 ADD PUSH2 0xC6A DUP6 PUSH2 0x1A48 JUMP JUMPDEST PUSH1 0x1 PUSH1 0x1 PUSH1 0xA0 SHL SUB AND DUP2 MSTORE PUSH1 0x0 PUSH1 0x20 SWAP1 SWAP2 ADD MSTORE SWAP4 SWAP3 POP POP POP JUMP JUMPDEST PUSH1 0x60 PUSH1 0x0 DUP1 SLOAD PUSH2 0xC93 SWAP1 PUSH2 0x430B JUMP JUMPDEST DUP1 PUSH1 0x1F ADD PUSH1 0x20 DUP1 SWAP2 DIV MUL PUSH1 0x20 ADD PUSH1 0x40 MLOAD SWAP1 DUP2 ADD PUSH1 0x40 MSTORE DUP1 SWAP3 SWAP2 SWAP1 DUP2 DUP2 MSTORE PUSH1 0x20 ADD DUP3 DUP1 SLOAD PUSH2 0xCBF SWAP1 PUSH2 0x430B JUMP JUMPDEST DUP1 ISZERO PUSH2 0xD0C JUMPI DUP1 PUSH1 0x1F LT PUSH2 0xCE1 JUMPI PUSH2 0x100 DUP1 DUP4 SLOAD DIV MUL DUP4 MSTORE SWAP2 PUSH1 0x20 ADD SWAP2 PUSH2 0xD0C JUMP JUMPDEST DUP3 ADD SWAP2 SWAP1 PUSH1 0x0 MSTORE PUSH1 0x20 PUSH1 0x0 KECCAK256 SWAP1 JUMPDEST DUP2 SLOAD DUP2 MSTORE SWAP1 PUSH1 0x1 ADD SWAP1 PUSH1 0x20 ADD DUP1 DUP4 GT PUSH2 0xCEF JUMPI DUP3 SWAP1 SUB PUSH1 0x1F AND DUP3 ADD SWAP2 JUMPDEST POP POP POP POP POP SWAP1 POP SWAP1 JUMP JUMPDEST PUSH1 0x0 PUSH2 0xD21 DUP3 PUSH2 0x33A2 JUMP JUMPDEST POP PUSH1 0x0 SWAP1 DUP2 MSTORE PUSH1 0x4 PUSH1 0x20 MSTORE PUSH1 0x40 SWAP1 KECCAK256 SLOAD PUSH1 0x1 PUSH1 0x1 PUSH1 0xA0 SHL SUB AND SWAP1 JUMP JUMPDEST PUSH1 0x0 PUSH2 0xD48 DUP3 PUSH2 0x1A48 JUMP JUMPDEST SWAP1 POP DUP1 PUSH1 0x1 PUSH1 0x1 PUSH1 0xA0 SHL SUB AND DUP4 PUSH1 0x1 PUSH1 0x1 PUSH1 0xA0 SHL SUB AND SUB PUSH2 0xDB5 JUMPI PUSH1 0x40 MLOAD PUSH3 0x461BCD PUSH1 0xE5 SHL DUP2 MSTORE PUSH1 0x20 PUSH1 0x4 DUP3 ADD MSTORE PUSH1 0x21 PUSH1 0x24 DUP3 ADD MSTORE PUSH32 0x4552433732313A20617070726F76616C20746F2063757272656E74206F776E65 PUSH1 0x44 DUP3 ADD MSTORE PUSH1 0x39 PUSH1 0xF9 SHL PUSH1 0x64 DUP3 ADD MSTORE PUSH1 0x84 ADD PUSH2 0xC0B JUMP JUMPDEST CALLER PUSH1 0x1 PUSH1 0x1 PUSH1 0xA0 SHL SUB DUP3 AND EQ DUP1 PUSH2 0xDD1 JUMPI POP PUSH2 0xDD1 DUP2 CALLER PUSH2 0x3247 JUMP JUMPDEST PUSH2 0xE43 JUMPI PUSH1 0x40 MLOAD PUSH3 0x461BCD PUSH1 0xE5 SHL DUP2 MSTORE PUSH1 0x20 PUSH1 0x4 DUP3 ADD MSTORE PUSH1 0x3D PUSH1 0x24 DUP3 ADD MSTORE PUSH32 0x4552433732313A20617070726F76652063616C6C6572206973206E6F7420746F PUSH1 0x44 DUP3 ADD MSTORE PUSH32 0x6B656E206F776E6572206F7220617070726F76656420666F7220616C6C000000 PUSH1 0x64 DUP3 ADD MSTORE PUSH1 0x84 ADD PUSH2 0xC0B JUMP JUMPDEST PUSH2 0xE4D DUP4 DUP4 PUSH2 0x33F2 JUMP JUMPDEST POP POP POP JUMP JUMPDEST PUSH1 0x0 PUSH2 0xE5D PUSH1 0x8 SLOAD SWAP1 JUMP JUMPDEST SWAP1 POP SWAP1 JUMP JUMPDEST PUSH2 0xE6D DUP2 PUSH1 0x1 PUSH2 0x2B67 JUMP JUMPDEST PUSH1 0x40 MLOAD ADDRESS DUP2 MSTORE CALLER SWAP1 PUSH1 0x1 PUSH1 0x1 PUSH1 0xA0 SHL SUB DUP4 AND SWAP1 PUSH32 0x6EB6A21D36D037099A01EB9D70157937D458FF377B0FAE85E1CCE9FFFAE4617D SWAP1 PUSH1 0x20 ADD JUMPDEST PUSH1 0x40 MLOAD DUP1 SWAP2 SUB SWAP1 LOG3 POP JUMP JUMPDEST PUSH2 0xEB9 PUSH2 0x3460 JUMP JUMPDEST PUSH1 0xE DUP2 SWAP1 SSTORE PUSH1 0x6 SLOAD PUSH1 0x1 PUSH1 0x1 PUSH1 0xA0 SHL SUB AND PUSH1 0x1 PUSH1 0x1 PUSH1 0xA0 SHL SUB AND PUSH32 0x4C54C55777E76F8F632C0D6BFE99D436ADE32DD1AC531E854FDA56E81BBCB42B CALLER ADDRESS PUSH1 0xE SLOAD PUSH1 0x40 MLOAD PUSH2 0xF08 SWAP4 SWAP3 SWAP2 SWAP1 PUSH2 0x433F JUMP JUMPDEST PUSH1 0x40 MLOAD DUP1 SWAP2 SUB SWAP1 LOG2 POP JUMP JUMPDEST PUSH2 0xF1E DUP4 DUP4 DUP4 PUSH2 0x34BA JUMP JUMPDEST PUSH1 0x0 DUP2 DUP2 MSTORE PUSH1 0xC PUSH1 0x20 MSTORE PUSH1 0x40 DUP2 KECCAK256 SLOAD SWAP1 PUSH2 0xF37 DUP4 PUSH2 0x3275 JUMP JUMPDEST PUSH1 0x40 DUP1 MLOAD PUSH1 0x1 PUSH1 0x1 PUSH1 0xA0 SHL SUB DUP9 DUP2 AND DUP3 MSTORE DUP8 AND PUSH1 0x20 DUP3 ADD MSTORE ADDRESS DUP2 DUP4 ADD MSTORE PUSH1 0x60 DUP2 ADD DUP6 SWAP1 MSTORE PUSH1 0x80 DUP2 ADD DUP4 SWAP1 MSTORE SWAP1 MLOAD SWAP2 SWAP3 POP CALLER SWAP2 DUP6 SWAP2 PUSH32 0x3A38D2EACBEEEDBC6D452E58E4F1B0CEFF4E07F20AE7B3AC27ACFB256697B02A SWAP2 SWAP1 DUP2 SWAP1 SUB PUSH1 0xA0 ADD SWAP1 LOG3 POP POP POP POP POP JUMP JUMPDEST PUSH2 0xFA5 PUSH2 0x3460 JUMP JUMPDEST PUSH2 0xFAD PUSH2 0x34EB JUMP JUMPDEST SELFBALANCE DUP2 GT ISZERO PUSH2 0x1009 JUMPI PUSH1 0x40 MLOAD PUSH3 0x461BCD PUSH1 0xE5 SHL DUP2 MSTORE PUSH1 0x20 PUSH1 0x4 DUP3 ADD MSTORE PUSH1 0x24 DUP1 DUP3 ADD MSTORE PUSH32 0x4654543A20576974686472617720616D6F756E7420657863656564732062616C PUSH1 0x44 DUP3 ADD MSTORE PUSH4 0x616E6365 PUSH1 0xE0 SHL PUSH1 0x64 DUP3 ADD MSTORE PUSH1 0x84 ADD PUSH2 0xC0B JUMP JUMPDEST PUSH1 0x6 SLOAD PUSH1 0x40 MLOAD PUSH1 0x1 PUSH1 0x1 PUSH1 0xA0 SHL SUB SWAP1 SWAP2 AND SWAP1 DUP3 ISZERO PUSH2 0x8FC MUL SWAP1 DUP4 SWAP1 PUSH1 0x0 DUP2 DUP2 DUP2 DUP6 DUP9 DUP9 CALL SWAP4 POP POP POP POP ISZERO DUP1 ISZERO PUSH2 0x1043 JUMPI RETURNDATASIZE PUSH1 0x0 DUP1 RETURNDATACOPY RETURNDATASIZE PUSH1 0x0 REVERT JUMPDEST POP PUSH1 0x6 SLOAD PUSH1 0x1 PUSH1 0x1 PUSH1 0xA0 SHL SUB AND PUSH1 0x1 PUSH1 0x1 PUSH1 0xA0 SHL SUB AND PUSH32 0xCC7320D7AC24F61B5790719A3C0D7C3CDB569D0AFFD3996FD075136AA97FB516 CALLER ADDRESS DUP5 PUSH1 0x40 MLOAD PUSH2 0x108C SWAP4 SWAP3 SWAP2 SWAP1 PUSH2 0x433F JUMP JUMPDEST PUSH1 0x40 MLOAD DUP1 SWAP2 SUB SWAP1 LOG2 PUSH2 0x109E PUSH1 0x1 PUSH1 0x7 SSTORE JUMP JUMPDEST POP JUMP JUMPDEST PUSH2 0x10A9 PUSH2 0x3460 JUMP JUMPDEST PUSH1 0x15 DUP1 SLOAD PUSH1 0x1 PUSH1 0x1 PUSH1 0xA0 SHL SUB NOT AND PUSH1 0x1 PUSH1 0x1 PUSH1 0xA0 SHL SUB SWAP3 SWAP1 SWAP3 AND SWAP2 SWAP1 SWAP2 OR SWAP1 SSTORE JUMP JUMPDEST PUSH1 0x0 PUSH2 0x10D6 DUP4 PUSH2 0x224C JUMP JUMPDEST DUP3 LT PUSH2 0x1124 JUMPI PUSH1 0x40 MLOAD PUSH3 0x461BCD PUSH1 0xE5 SHL DUP2 MSTORE PUSH1 0x20 PUSH1 0x4 DUP3 ADD MSTORE PUSH1 0x18 PUSH1 0x24 DUP3 ADD MSTORE PUSH32 0x4654543A20496E646578206F7574206F6620626F756E64730000000000000000 PUSH1 0x44 DUP3 ADD MSTORE PUSH1 0x64 ADD PUSH2 0xC0B JUMP JUMPDEST PUSH1 0x0 PUSH1 0x1 JUMPDEST PUSH1 0x8 SLOAD DUP2 GT PUSH2 0x1198 JUMPI DUP1 PUSH2 0x113C DUP2 PUSH2 0x3385 JUMP JUMPDEST DUP1 ISZERO PUSH2 0x1161 JUMPI POP DUP6 PUSH1 0x1 PUSH1 0x1 PUSH1 0xA0 SHL SUB AND PUSH2 0x1156 DUP3 PUSH2 0x1A48 JUMP JUMPDEST PUSH1 0x1 PUSH1 0x1 PUSH1 0xA0 SHL SUB AND EQ JUMPDEST ISZERO PUSH2 0x1185 JUMPI DUP5 DUP4 SUB PUSH2 0x1177 JUMPI SWAP3 POP PUSH2 0xBAC SWAP2 POP POP JUMP JUMPDEST DUP3 PUSH2 0x1181 DUP2 PUSH2 0x4379 JUMP JUMPDEST SWAP4 POP POP JUMPDEST POP DUP1 PUSH2 0x1190 DUP2 PUSH2 0x4379 JUMP JUMPDEST SWAP2 POP POP PUSH2 0x1129 JUMP JUMPDEST POP PUSH1 0x40 MLOAD PUSH3 0x461BCD PUSH1 0xE5 SHL DUP2 MSTORE PUSH1 0x20 PUSH1 0x4 DUP3 ADD MSTORE PUSH1 0x2A PUSH1 0x24 DUP3 ADD MSTORE PUSH32 0x4654543A204E6F20746F6B656E20666F756E6420666F72207468652070726F76 PUSH1 0x44 DUP3 ADD MSTORE PUSH10 0xD2C8CAC840D2DCC8CAF PUSH1 0xB3 SHL PUSH1 0x64 DUP3 ADD MSTORE PUSH1 0x84 ADD PUSH2 0xC0B JUMP JUMPDEST PUSH2 0x11FC PUSH2 0x3460 JUMP JUMPDEST PUSH1 0x10 DUP1 SLOAD PUSH1 0x1 PUSH1 0x1 PUSH1 0xA0 SHL SUB DUP4 AND PUSH1 0x1 PUSH1 0x1 PUSH1 0xA0 SHL SUB NOT SWAP1 SWAP2 AND OR SWAP1 SSTORE PUSH2 0x122B PUSH1 0x6 SLOAD PUSH1 0x1 PUSH1 0x1 PUSH1 0xA0 SHL SUB AND SWAP1 JUMP JUMPDEST PUSH1 0x10 SLOAD PUSH1 0x40 DUP1 MLOAD CALLER DUP2 MSTORE ADDRESS PUSH1 0x20 DUP3 ADD MSTORE PUSH1 0x1 PUSH1 0x1 PUSH1 0xA0 SHL SUB SWAP4 DUP5 AND SWAP4 SWAP1 SWAP3 AND SWAP2 PUSH32 0x4A873DF842EC05FED926B149CD74B039BAC57CF3E52D37FFDC588331FC053D5A SWAP2 ADD PUSH2 0xEA6 JUMP JUMPDEST PUSH1 0x60 PUSH2 0x127E DUP3 PUSH2 0x3385 JUMP JUMPDEST PUSH2 0x129A JUMPI PUSH1 0x40 MLOAD PUSH3 0x461BCD PUSH1 0xE5 SHL DUP2 MSTORE PUSH1 0x4 ADD PUSH2 0xC0B SWAP1 PUSH2 0x4392 JUMP JUMPDEST PUSH1 0x0 DUP3 DUP2 MSTORE PUSH1 0x12 PUSH1 0x20 MSTORE PUSH1 0x40 SWAP1 KECCAK256 DUP1 SLOAD PUSH2 0x12B3 SWAP1 PUSH2 0x430B JUMP JUMPDEST DUP1 PUSH1 0x1F ADD PUSH1 0x20 DUP1 SWAP2 DIV MUL PUSH1 0x20 ADD PUSH1 0x40 MLOAD SWAP1 DUP2 ADD PUSH1 0x40 MSTORE DUP1 SWAP3 SWAP2 SWAP1 DUP2 DUP2 MSTORE PUSH1 0x20 ADD DUP3 DUP1 SLOAD PUSH2 0x12DF SWAP1 PUSH2 0x430B JUMP JUMPDEST DUP1 ISZERO PUSH2 0x132C JUMPI DUP1 PUSH1 0x1F LT PUSH2 0x1301 JUMPI PUSH2 0x100 DUP1 DUP4 SLOAD DIV MUL DUP4 MSTORE SWAP2 PUSH1 0x20 ADD SWAP2 PUSH2 0x132C JUMP JUMPDEST DUP3 ADD SWAP2 SWAP1 PUSH1 0x0 MSTORE PUSH1 0x20 PUSH1 0x0 KECCAK256 SWAP1 JUMPDEST DUP2 SLOAD DUP2 MSTORE SWAP1 PUSH1 0x1 ADD SWAP1 PUSH1 0x20 ADD DUP1 DUP4 GT PUSH2 0x130F JUMPI DUP3 SWAP1 SUB PUSH1 0x1F AND DUP3 ADD SWAP2 JUMPDEST POP POP POP POP POP SWAP1 POP SWAP2 SWAP1 POP JUMP JUMPDEST PUSH2 0x1340 PUSH2 0x3460 JUMP JUMPDEST PUSH2 0x1348 PUSH2 0x3544 JUMP JUMPDEST JUMP JUMPDEST PUSH2 0xE4D DUP4 DUP4 DUP4 PUSH1 0x40 MLOAD DUP1 PUSH1 0x20 ADD PUSH1 0x40 MSTORE DUP1 PUSH1 0x0 DUP2 MSTORE POP PUSH2 0x2C2E JUMP JUMPDEST PUSH1 0x0 PUSH2 0xBAC PUSH2 0x137C PUSH1 0x6 SLOAD PUSH1 0x1 PUSH1 0x1 PUSH1 0xA0 SHL SUB AND SWAP1 JUMP JUMPDEST DUP4 PUSH2 0x3247 JUMP JUMPDEST PUSH2 0x138A PUSH2 0x3599 JUMP JUMPDEST PUSH2 0x1393 DUP3 PUSH2 0x3385 JUMP JUMPDEST PUSH2 0x13AF JUMPI PUSH1 0x40 MLOAD PUSH3 0x461BCD PUSH1 0xE5 SHL DUP2 MSTORE PUSH1 0x4 ADD PUSH2 0xC0B SWAP1 PUSH2 0x43C9 JUMP JUMPDEST CALLER PUSH2 0x13B9 DUP4 PUSH2 0x1A48 JUMP JUMPDEST PUSH1 0x1 PUSH1 0x1 PUSH1 0xA0 SHL SUB AND EQ PUSH2 0x13DF JUMPI PUSH1 0x40 MLOAD PUSH3 0x461BCD PUSH1 0xE5 SHL DUP2 MSTORE PUSH1 0x4 ADD PUSH2 0xC0B SWAP1 PUSH2 0x4400 JUMP JUMPDEST PUSH1 0x0 DUP2 GT PUSH2 0x142F JUMPI PUSH1 0x40 MLOAD PUSH3 0x461BCD PUSH1 0xE5 SHL DUP2 MSTORE PUSH1 0x20 PUSH1 0x4 DUP3 ADD MSTORE PUSH1 0x1C PUSH1 0x24 DUP3 ADD MSTORE PUSH32 0x4654543A20496E76616C6964206E657720746F6B656E20636F756E7400000000 PUSH1 0x44 DUP3 ADD MSTORE PUSH1 0x64 ADD PUSH2 0xC0B JUMP JUMPDEST PUSH1 0x0 DUP3 DUP2 MSTORE PUSH1 0xA PUSH1 0x20 MSTORE PUSH1 0x40 SWAP1 KECCAK256 SLOAD PUSH2 0x1448 DUP3 DUP3 PUSH2 0x4458 JUMP JUMPDEST ISZERO PUSH2 0x14BB JUMPI PUSH1 0x40 MLOAD PUSH3 0x461BCD PUSH1 0xE5 SHL DUP2 MSTORE PUSH1 0x20 PUSH1 0x4 DUP3 ADD MSTORE PUSH1 0x37 PUSH1 0x24 DUP3 ADD MSTORE PUSH32 0x4654543A205472656520636F756E74206973206E6F7420646976697369626C65 PUSH1 0x44 DUP3 ADD MSTORE PUSH32 0x20627920746865206E657720746F6B656E20636F756E74000000000000000000 PUSH1 0x64 DUP3 ADD MSTORE PUSH1 0x84 ADD PUSH2 0xC0B JUMP JUMPDEST PUSH1 0x0 PUSH2 0x14C7 DUP4 DUP4 PUSH2 0x446C JUMP JUMPDEST PUSH1 0x0 DUP6 DUP2 MSTORE PUSH1 0xC PUSH1 0x20 MSTORE PUSH1 0x40 DUP2 KECCAK256 SLOAD SWAP2 SWAP3 POP JUMPDEST DUP5 DUP2 LT ISZERO PUSH2 0x15A2 JUMPI PUSH1 0x0 PUSH2 0x14ED PUSH1 0x8 SLOAD SWAP1 JUMP JUMPDEST PUSH2 0x14F8 SWAP1 PUSH1 0x1 PUSH2 0x4480 JUMP JUMPDEST SWAP1 POP PUSH2 0x1504 CALLER DUP3 PUSH2 0x35E6 JUMP JUMPDEST PUSH2 0x1512 PUSH1 0x8 DUP1 SLOAD PUSH1 0x1 ADD SWAP1 SSTORE JUMP JUMPDEST PUSH1 0x0 DUP2 DUP2 MSTORE PUSH1 0xA PUSH1 0x20 SWAP1 DUP2 MSTORE PUSH1 0x40 DUP1 DUP4 KECCAK256 DUP8 SWAP1 SSTORE PUSH1 0xB DUP3 MSTORE DUP1 DUP4 KECCAK256 DUP8 SWAP1 SSTORE PUSH1 0xC DUP3 MSTORE DUP1 DUP4 KECCAK256 DUP7 SWAP1 SSTORE DUP10 DUP4 MSTORE SWAP2 DUP3 SWAP1 KECCAK256 SLOAD PUSH1 0x16 SLOAD DUP4 MLOAD DUP9 DUP2 MSTORE ADDRESS SWAP4 DUP2 ADD SWAP4 SWAP1 SWAP4 MSTORE SWAP3 DUP3 ADD MSTORE PUSH1 0x60 DUP2 ADD SWAP2 SWAP1 SWAP2 MSTORE CALLER SWAP1 DUP3 SWAP1 PUSH32 0x9A0AE64C2BA4B3CA76B7199C9D310121F01FEFF438F93C3623F6964696037F40 SWAP1 PUSH1 0x80 ADD PUSH1 0x40 MLOAD DUP1 SWAP2 SUB SWAP1 LOG3 POP DUP1 PUSH2 0x159A DUP2 PUSH2 0x4379 JUMP JUMPDEST SWAP2 POP POP PUSH2 0x14DA JUMP JUMPDEST POP PUSH1 0x0 DUP5 PUSH1 0x16 SLOAD PUSH2 0x15B3 SWAP2 SWAP1 PUSH2 0x4493 JUMP JUMPDEST SWAP1 POP DUP1 CALLVALUE LT ISZERO PUSH2 0x1605 JUMPI PUSH1 0x40 MLOAD PUSH3 0x461BCD PUSH1 0xE5 SHL DUP2 MSTORE PUSH1 0x20 PUSH1 0x4 DUP3 ADD MSTORE PUSH1 0x1B PUSH1 0x24 DUP3 ADD MSTORE PUSH32 0x4654543A20496E73756666696369656E742073706C6974206665650000000000 PUSH1 0x44 DUP3 ADD MSTORE PUSH1 0x64 ADD PUSH2 0xC0B JUMP JUMPDEST PUSH1 0x10 SLOAD PUSH1 0x40 MLOAD PUSH1 0x1 PUSH1 0x1 PUSH1 0xA0 SHL SUB SWAP1 SWAP2 AND SWAP1 DUP3 ISZERO PUSH2 0x8FC MUL SWAP1 DUP4 SWAP1 PUSH1 0x0 DUP2 DUP2 DUP2 DUP6 DUP9 DUP9 CALL SWAP4 POP POP POP POP ISZERO DUP1 ISZERO PUSH2 0x163F JUMPI RETURNDATASIZE PUSH1 0x0 DUP1 RETURNDATACOPY RETURNDATASIZE PUSH1 0x0 REVERT JUMPDEST POP PUSH1 0x0 DUP7 DUP2 MSTORE PUSH1 0xC PUSH1 0x20 SWAP1 DUP2 MSTORE PUSH1 0x40 SWAP2 DUP3 SWAP1 KECCAK256 SLOAD DUP3 MLOAD DUP8 DUP2 MSTORE ADDRESS SWAP3 DUP2 ADD SWAP3 SWAP1 SWAP3 MSTORE DUP2 DUP4 ADD MSTORE SWAP1 MLOAD CALLER SWAP2 DUP9 SWAP2 PUSH32 0xEC48241F774E89ADA9B8473337C48FAF5AED96597E725CC36146A7FE464A1708 SWAP2 DUP2 SWAP1 SUB PUSH1 0x60 ADD SWAP1 LOG3 PUSH1 0x0 DUP7 DUP2 MSTORE PUSH1 0xC PUSH1 0x20 MSTORE PUSH1 0x40 DUP2 KECCAK256 SSTORE PUSH2 0x16AC DUP7 PUSH2 0x3753 JUMP JUMPDEST POP POP POP PUSH1 0x0 SWAP3 DUP4 MSTORE POP POP PUSH1 0xA PUSH1 0x20 SWAP1 DUP2 MSTORE PUSH1 0x40 DUP1 DUP4 KECCAK256 DUP4 SWAP1 SSTORE PUSH1 0xB DUP3 MSTORE DUP1 DUP4 KECCAK256 DUP4 SWAP1 SSTORE PUSH1 0xC SWAP1 SWAP2 MSTORE DUP2 KECCAK256 SSTORE JUMP JUMPDEST PUSH2 0x16E1 PUSH2 0x3460 JUMP JUMPDEST PUSH1 0x16 DUP2 SWAP1 SSTORE PUSH1 0x6 SLOAD PUSH1 0x1 PUSH1 0x1 PUSH1 0xA0 SHL SUB AND PUSH1 0x1 PUSH1 0x1 PUSH1 0xA0 SHL SUB AND PUSH32 0x72E195B0C4646BBF918F0E0709755A80F1DCA9447F44E237E680C392824E67FF CALLER ADDRESS PUSH1 0x16 SLOAD PUSH1 0x40 MLOAD PUSH2 0xF08 SWAP4 SWAP3 SWAP2 SWAP1 PUSH2 0x433F JUMP JUMPDEST PUSH1 0x0 DUP1 PUSH2 0x173D DUP4 DUP6 PUSH2 0x446C JUMP JUMPDEST SWAP1 POP PUSH1 0x0 PUSH2 0x174B DUP5 DUP7 PUSH2 0x4458 JUMP JUMPDEST SWAP1 POP DUP1 ISZERO PUSH2 0x1761 JUMPI PUSH2 0x175E PUSH1 0x1 DUP4 PUSH2 0x4480 JUMP JUMPDEST SWAP2 POP JUMPDEST PUSH1 0x0 DUP3 PUSH1 0xE SLOAD PUSH2 0x1771 SWAP2 SWAP1 PUSH2 0x4493 JUMP JUMPDEST SWAP7 SWAP6 POP POP POP POP POP POP JUMP JUMPDEST PUSH2 0x1786 DUP2 PUSH1 0x0 PUSH2 0x2B67 JUMP JUMPDEST PUSH1 0x40 MLOAD ADDRESS DUP2 MSTORE CALLER SWAP1 PUSH1 0x1 PUSH1 0x1 PUSH1 0xA0 SHL SUB DUP4 AND SWAP1 PUSH32 0x394821F7EA9547F7A4DFF919C8325A0A74866D7045FDEFBA1F96B4CB13E7AC85 SWAP1 PUSH1 0x20 ADD PUSH2 0xEA6 JUMP JUMPDEST PUSH2 0x17CB PUSH2 0x3460 JUMP JUMPDEST PUSH1 0x19 PUSH2 0x17D7 DUP3 DUP3 PUSH2 0x44F8 JUMP JUMPDEST POP POP JUMP JUMPDEST PUSH1 0x0 DUP1 PUSH2 0x17E7 DUP5 PUSH2 0x224C JUMP JUMPDEST SWAP1 POP PUSH1 0x0 DUP1 JUMPDEST DUP3 DUP2 LT ISZERO PUSH2 0x184B JUMPI PUSH1 0x0 PUSH2 0x1801 DUP8 DUP4 PUSH2 0x10CB JUMP JUMPDEST PUSH1 0x0 DUP2 DUP2 MSTORE PUSH1 0xC PUSH1 0x20 MSTORE PUSH1 0x40 SWAP1 KECCAK256 SLOAD SWAP1 SWAP2 POP DUP7 DUP2 SUB PUSH2 0x1836 JUMPI PUSH1 0x0 DUP3 DUP2 MSTORE PUSH1 0xA PUSH1 0x20 MSTORE PUSH1 0x40 SWAP1 KECCAK256 SLOAD PUSH2 0x1833 SWAP1 DUP6 PUSH2 0x4480 JUMP JUMPDEST SWAP4 POP JUMPDEST POP POP DUP1 DUP1 PUSH2 0x1843 SWAP1 PUSH2 0x4379 JUMP JUMPDEST SWAP2 POP POP PUSH2 0x17ED JUMP JUMPDEST POP SWAP5 SWAP4 POP POP POP POP JUMP JUMPDEST PUSH1 0x60 PUSH1 0x0 PUSH2 0x1861 PUSH1 0x8 SLOAD SWAP1 JUMP JUMPDEST SWAP1 POP PUSH1 0x0 DUP2 PUSH1 0x1 PUSH1 0x1 PUSH1 0x40 SHL SUB DUP2 GT ISZERO PUSH2 0x187D JUMPI PUSH2 0x187D PUSH2 0x3F1A JUMP JUMPDEST PUSH1 0x40 MLOAD SWAP1 DUP1 DUP3 MSTORE DUP1 PUSH1 0x20 MUL PUSH1 0x20 ADD DUP3 ADD PUSH1 0x40 MSTORE DUP1 ISZERO PUSH2 0x18B6 JUMPI DUP2 PUSH1 0x20 ADD JUMPDEST PUSH2 0x18A3 PUSH2 0x3D2A JUMP JUMPDEST DUP2 MSTORE PUSH1 0x20 ADD SWAP1 PUSH1 0x1 SWAP1 SUB SWAP1 DUP2 PUSH2 0x189B JUMPI SWAP1 POP JUMPDEST POP SWAP1 POP PUSH1 0x0 PUSH1 0x1 JUMPDEST DUP4 DUP2 GT PUSH2 0x1973 JUMPI PUSH2 0x18CE DUP2 PUSH2 0x3385 JUMP JUMPDEST ISZERO PUSH2 0x1961 JUMPI PUSH1 0x0 DUP2 DUP2 MSTORE PUSH1 0xA PUSH1 0x20 MSTORE PUSH1 0x40 DUP2 KECCAK256 SLOAD SWAP1 PUSH2 0x18EC DUP4 PUSH2 0x1A48 JUMP JUMPDEST PUSH1 0x0 DUP5 DUP2 MSTORE PUSH1 0xC PUSH1 0x20 MSTORE PUSH1 0x40 DUP2 KECCAK256 SLOAD SWAP2 SWAP3 POP POP PUSH1 0x40 MLOAD DUP1 PUSH1 0xA0 ADD PUSH1 0x40 MSTORE DUP1 DUP3 DUP2 MSTORE PUSH1 0x20 ADD DUP6 DUP2 MSTORE PUSH1 0x20 ADD DUP5 DUP2 MSTORE PUSH1 0x20 ADD DUP4 PUSH1 0x1 PUSH1 0x1 PUSH1 0xA0 SHL SUB AND DUP2 MSTORE PUSH1 0x20 ADD PUSH1 0x0 ISZERO ISZERO DUP2 MSTORE POP DUP7 DUP7 DUP2 MLOAD DUP2 LT PUSH2 0x1944 JUMPI PUSH2 0x1944 PUSH2 0x45B7 JUMP JUMPDEST PUSH1 0x20 MUL PUSH1 0x20 ADD ADD DUP2 SWAP1 MSTORE POP DUP5 DUP1 PUSH2 0x195A SWAP1 PUSH2 0x4379 JUMP JUMPDEST SWAP6 POP POP POP POP POP JUMPDEST DUP1 PUSH2 0x196B DUP2 PUSH2 0x4379 JUMP JUMPDEST SWAP2 POP POP PUSH2 0x18BE JUMP JUMPDEST POP DUP3 DUP2 LT ISZERO PUSH2 0x1A27 JUMPI PUSH1 0x0 DUP2 PUSH1 0x1 PUSH1 0x1 PUSH1 0x40 SHL SUB DUP2 GT ISZERO PUSH2 0x1996 JUMPI PUSH2 0x1996 PUSH2 0x3F1A JUMP JUMPDEST PUSH1 0x40 MLOAD SWAP1 DUP1 DUP3 MSTORE DUP1 PUSH1 0x20 MUL PUSH1 0x20 ADD DUP3 ADD PUSH1 0x40 MSTORE DUP1 ISZERO PUSH2 0x19CF JUMPI DUP2 PUSH1 0x20 ADD JUMPDEST PUSH2 0x19BC PUSH2 0x3D2A JUMP JUMPDEST DUP2 MSTORE PUSH1 0x20 ADD SWAP1 PUSH1 0x1 SWAP1 SUB SWAP1 DUP2 PUSH2 0x19B4 JUMPI SWAP1 POP JUMPDEST POP SWAP1 POP PUSH1 0x0 JUMPDEST DUP3 DUP2 LT ISZERO PUSH2 0x184B JUMPI DUP4 DUP2 DUP2 MLOAD DUP2 LT PUSH2 0x19EF JUMPI PUSH2 0x19EF PUSH2 0x45B7 JUMP JUMPDEST PUSH1 0x20 MUL PUSH1 0x20 ADD ADD MLOAD DUP3 DUP3 DUP2 MLOAD DUP2 LT PUSH2 0x1A09 JUMPI PUSH2 0x1A09 PUSH2 0x45B7 JUMP JUMPDEST PUSH1 0x20 MUL PUSH1 0x20 ADD ADD DUP2 SWAP1 MSTORE POP DUP1 DUP1 PUSH2 0x1A1F SWAP1 PUSH2 0x4379 JUMP JUMPDEST SWAP2 POP POP PUSH2 0x19D5 JUMP JUMPDEST POP SWAP3 SWAP2 POP POP JUMP JUMPDEST PUSH2 0x1A36 PUSH2 0x3460 JUMP JUMPDEST PUSH1 0x0 SWAP2 DUP3 MSTORE PUSH1 0xA PUSH1 0x20 MSTORE PUSH1 0x40 SWAP1 SWAP2 KECCAK256 SSTORE JUMP JUMPDEST PUSH1 0x0 DUP2 DUP2 MSTORE PUSH1 0x2 PUSH1 0x20 MSTORE PUSH1 0x40 DUP2 KECCAK256 SLOAD PUSH1 0x1 PUSH1 0x1 PUSH1 0xA0 SHL SUB AND DUP1 PUSH2 0xBAC JUMPI PUSH1 0x40 MLOAD PUSH3 0x461BCD PUSH1 0xE5 SHL DUP2 MSTORE PUSH1 0x20 PUSH1 0x4 DUP3 ADD MSTORE PUSH1 0x18 PUSH1 0x24 DUP3 ADD MSTORE PUSH24 0x115490CDCC8C4E881A5B9D985B1A59081D1BDAD95B881251 PUSH1 0x42 SHL PUSH1 0x44 DUP3 ADD MSTORE PUSH1 0x64 ADD PUSH2 0xC0B JUMP JUMPDEST PUSH2 0x1AB0 PUSH2 0x3599 JUMP JUMPDEST PUSH1 0x9 SLOAD PUSH1 0x40 MLOAD PUSH4 0x22F0772F PUSH1 0xE0 SHL DUP2 MSTORE PUSH1 0x4 DUP2 ADD DUP6 SWAP1 MSTORE PUSH1 0x0 SWAP2 PUSH1 0x1 PUSH1 0x1 PUSH1 0xA0 SHL SUB AND SWAP1 PUSH4 0x22F0772F SWAP1 PUSH1 0x24 ADD PUSH1 0x20 PUSH1 0x40 MLOAD DUP1 DUP4 SUB DUP2 DUP7 GAS STATICCALL ISZERO DUP1 ISZERO PUSH2 0x1AFA JUMPI RETURNDATASIZE PUSH1 0x0 DUP1 RETURNDATACOPY RETURNDATASIZE PUSH1 0x0 REVERT JUMPDEST POP POP POP POP PUSH1 0x40 MLOAD RETURNDATASIZE PUSH1 0x1F NOT PUSH1 0x1F DUP3 ADD AND DUP3 ADD DUP1 PUSH1 0x40 MSTORE POP DUP2 ADD SWAP1 PUSH2 0x1B1E SWAP2 SWAP1 PUSH2 0x45CD JUMP JUMPDEST GT PUSH2 0x1B67 JUMPI PUSH1 0x40 MLOAD PUSH3 0x461BCD PUSH1 0xE5 SHL DUP2 MSTORE PUSH1 0x20 PUSH1 0x4 DUP3 ADD MSTORE PUSH1 0x19 PUSH1 0x24 DUP3 ADD MSTORE PUSH25 0x1195150E88125B9D985B1A5908119513C81D1BDAD95B881251 PUSH1 0x3A SHL PUSH1 0x44 DUP3 ADD MSTORE PUSH1 0x64 ADD PUSH2 0xC0B JUMP JUMPDEST PUSH1 0x0 PUSH2 0x1B73 DUP3 DUP6 PUSH2 0x17DB JUMP JUMPDEST PUSH1 0x9 SLOAD PUSH1 0x40 MLOAD PUSH4 0x22F0772F PUSH1 0xE0 SHL DUP2 MSTORE PUSH1 0x4 DUP2 ADD DUP8 SWAP1 MSTORE SWAP2 SWAP3 POP PUSH1 0x0 SWAP2 DUP4 SWAP2 PUSH1 0x1 PUSH1 0x1 PUSH1 0xA0 SHL SUB AND SWAP1 PUSH4 0x22F0772F SWAP1 PUSH1 0x24 ADD PUSH1 0x20 PUSH1 0x40 MLOAD DUP1 DUP4 SUB DUP2 DUP7 GAS STATICCALL ISZERO DUP1 ISZERO PUSH2 0x1BC2 JUMPI RETURNDATASIZE PUSH1 0x0 DUP1 RETURNDATACOPY RETURNDATASIZE PUSH1 0x0 REVERT JUMPDEST POP POP POP POP PUSH1 0x40 MLOAD RETURNDATASIZE PUSH1 0x1F NOT PUSH1 0x1F DUP3 ADD AND DUP3 ADD DUP1 PUSH1 0x40 MSTORE POP DUP2 ADD SWAP1 PUSH2 0x1BE6 SWAP2 SWAP1 PUSH2 0x45CD JUMP JUMPDEST PUSH2 0x1BF0 SWAP2 SWAP1 PUSH2 0x45E6 JUMP JUMPDEST SWAP1 POP PUSH1 0x0 DUP5 MLOAD PUSH1 0xE SLOAD PUSH2 0x1C03 SWAP2 SWAP1 PUSH2 0x4493 JUMP JUMPDEST SWAP1 POP DUP1 CALLVALUE LT ISZERO PUSH2 0x1C51 JUMPI PUSH1 0x40 MLOAD PUSH3 0x461BCD PUSH1 0xE5 SHL DUP2 MSTORE PUSH1 0x20 PUSH1 0x4 DUP3 ADD MSTORE PUSH1 0x19 PUSH1 0x24 DUP3 ADD MSTORE PUSH25 0x1195150E88125B9CDD59999A58DA595B9D081C185E5B595B9D PUSH1 0x3A SHL PUSH1 0x44 DUP3 ADD MSTORE PUSH1 0x64 ADD PUSH2 0xC0B JUMP JUMPDEST PUSH1 0x10 SLOAD PUSH1 0x40 MLOAD PUSH1 0x1 PUSH1 0x1 PUSH1 0xA0 SHL SUB SWAP1 SWAP2 AND SWAP1 DUP3 ISZERO PUSH2 0x8FC MUL SWAP1 DUP4 SWAP1 PUSH1 0x0 DUP2 DUP2 DUP2 DUP6 DUP9 DUP9 CALL SWAP4 POP POP POP POP ISZERO DUP1 ISZERO PUSH2 0x1C8B JUMPI RETURNDATASIZE PUSH1 0x0 DUP1 RETURNDATACOPY RETURNDATASIZE PUSH1 0x0 REVERT JUMPDEST POP PUSH1 0x10 SLOAD PUSH1 0x40 MLOAD DUP3 DUP2 MSTORE PUSH1 0x1 PUSH1 0x1 PUSH1 0xA0 SHL SUB SWAP1 SWAP2 AND SWAP1 CALLER SWAP1 PUSH32 0xC6AD30C5A19E45B7468E8DD0050C67FFA72A6C0093110F19EB78CF5FF4FAAF67 SWAP1 PUSH1 0x20 ADD PUSH1 0x40 MLOAD DUP1 SWAP2 SUB SWAP1 LOG3 PUSH1 0x0 PUSH2 0x1CDB PUSH1 0x8 SLOAD SWAP1 JUMP JUMPDEST PUSH2 0x1CE6 SWAP1 PUSH1 0x1 PUSH2 0x4480 JUMP JUMPDEST SWAP1 POP PUSH1 0x0 JUMPDEST DUP7 MLOAD DUP2 LT ISZERO PUSH2 0x1E33 JUMPI PUSH1 0x0 DUP8 DUP3 DUP2 MLOAD DUP2 LT PUSH2 0x1D08 JUMPI PUSH2 0x1D08 PUSH2 0x45B7 JUMP JUMPDEST PUSH1 0x20 MUL PUSH1 0x20 ADD ADD MLOAD SWAP1 POP PUSH1 0x0 DUP2 GT PUSH2 0x1D5C JUMPI PUSH1 0x40 MLOAD PUSH3 0x461BCD PUSH1 0xE5 SHL DUP2 MSTORE PUSH1 0x20 PUSH1 0x4 DUP3 ADD MSTORE PUSH1 0x17 PUSH1 0x24 DUP3 ADD MSTORE PUSH23 0x1195150E88125B9D985B1A59081D1C99594818DBDD5B9D PUSH1 0x4A SHL PUSH1 0x44 DUP3 ADD MSTORE PUSH1 0x64 ADD PUSH2 0xC0B JUMP JUMPDEST DUP5 DUP2 GT ISZERO PUSH2 0x1D7C JUMPI PUSH1 0x40 MLOAD PUSH3 0x461BCD PUSH1 0xE5 SHL DUP2 MSTORE PUSH1 0x4 ADD PUSH2 0xC0B SWAP1 PUSH2 0x45F9 JUMP JUMPDEST PUSH2 0x1D86 DUP8 DUP5 PUSH2 0x35E6 JUMP JUMPDEST PUSH2 0x1D94 PUSH1 0x8 DUP1 SLOAD PUSH1 0x1 ADD SWAP1 SSTORE JUMP JUMPDEST PUSH1 0x0 DUP4 DUP2 MSTORE PUSH1 0xA PUSH1 0x20 SWAP1 DUP2 MSTORE PUSH1 0x40 DUP1 DUP4 KECCAK256 DUP5 SWAP1 SSTORE PUSH1 0xB DUP3 MSTORE DUP1 DUP4 KECCAK256 PUSH1 0x1 SWAP1 SSTORE PUSH1 0xC DUP3 MSTORE SWAP2 DUP3 SWAP1 KECCAK256 DUP12 SWAP1 SSTORE PUSH1 0xE SLOAD DUP3 MLOAD DUP5 DUP2 MSTORE ADDRESS SWAP3 DUP2 ADD SWAP3 SWAP1 SWAP3 MSTORE DUP2 DUP4 ADD DUP13 SWAP1 MSTORE PUSH1 0x60 DUP3 ADD MSTORE SWAP1 MLOAD PUSH1 0x1 PUSH1 0x1 PUSH1 0xA0 SHL SUB DUP10 AND SWAP2 DUP6 SWAP2 PUSH32 0xBBBDFE45CB5AC7FFA59E4DE633D3BB7A7C24AB1C211582EB5B47314F0BD7F04D SWAP2 DUP2 SWAP1 SUB PUSH1 0x80 ADD SWAP1 LOG3 DUP3 PUSH2 0x1E1C DUP2 PUSH2 0x4379 JUMP JUMPDEST SWAP4 POP POP POP DUP1 DUP1 PUSH2 0x1E2B SWAP1 PUSH2 0x4379 JUMP JUMPDEST SWAP2 POP POP PUSH2 0x1CEB JUMP JUMPDEST POP POP POP POP POP POP POP POP JUMP JUMPDEST PUSH2 0x1E45 PUSH2 0x3599 JUMP JUMPDEST PUSH1 0x9 SLOAD PUSH1 0x40 MLOAD PUSH4 0x22F0772F PUSH1 0xE0 SHL DUP2 MSTORE PUSH1 0x4 DUP2 ADD DUP7 SWAP1 MSTORE PUSH1 0x0 SWAP2 PUSH1 0x1 PUSH1 0x1 PUSH1 0xA0 SHL SUB AND SWAP1 PUSH4 0x22F0772F SWAP1 PUSH1 0x24 ADD PUSH1 0x20 PUSH1 0x40 MLOAD DUP1 DUP4 SUB DUP2 DUP7 GAS STATICCALL ISZERO DUP1 ISZERO PUSH2 0x1E8F JUMPI RETURNDATASIZE PUSH1 0x0 DUP1 RETURNDATACOPY RETURNDATASIZE PUSH1 0x0 REVERT JUMPDEST POP POP POP POP PUSH1 0x40 MLOAD RETURNDATASIZE PUSH1 0x1F NOT PUSH1 0x1F DUP3 ADD AND DUP3 ADD DUP1 PUSH1 0x40 MSTORE POP DUP2 ADD SWAP1 PUSH2 0x1EB3 SWAP2 SWAP1 PUSH2 0x45CD JUMP JUMPDEST GT PUSH2 0x1EFC JUMPI PUSH1 0x40 MLOAD PUSH3 0x461BCD PUSH1 0xE5 SHL DUP2 MSTORE PUSH1 0x20 PUSH1 0x4 DUP3 ADD MSTORE PUSH1 0x19 PUSH1 0x24 DUP3 ADD MSTORE PUSH25 0x1195150E88125B9D985B1A5908119513C81D1BDAD95B881251 PUSH1 0x3A SHL PUSH1 0x44 DUP3 ADD MSTORE PUSH1 0x64 ADD PUSH2 0xC0B JUMP JUMPDEST PUSH1 0x0 DUP4 GT PUSH2 0x1F46 JUMPI PUSH1 0x40 MLOAD PUSH3 0x461BCD PUSH1 0xE5 SHL DUP2 MSTORE PUSH1 0x20 PUSH1 0x4 DUP3 ADD MSTORE PUSH1 0x17 PUSH1 0x24 DUP3 ADD MSTORE PUSH23 0x1195150E88125B9D985B1A59081D1C99594818DBDD5B9D PUSH1 0x4A SHL PUSH1 0x44 DUP3 ADD MSTORE PUSH1 0x64 ADD PUSH2 0xC0B JUMP JUMPDEST PUSH1 0x0 DUP2 GT PUSH2 0x1F96 JUMPI PUSH1 0x40 MLOAD PUSH3 0x461BCD PUSH1 0xE5 SHL DUP2 MSTORE PUSH1 0x20 PUSH1 0x4 DUP3 ADD MSTORE PUSH1 0x1A PUSH1 0x24 DUP3 ADD MSTORE PUSH32 0x4654543A20496E76616C69642074726565732070657220465454000000000000 PUSH1 0x44 DUP3 ADD MSTORE PUSH1 0x64 ADD PUSH2 0xC0B JUMP JUMPDEST PUSH1 0x0 PUSH2 0x1FA2 DUP4 DUP7 PUSH2 0x17DB JUMP JUMPDEST PUSH1 0x9 SLOAD PUSH1 0x40 MLOAD PUSH4 0x22F0772F PUSH1 0xE0 SHL DUP2 MSTORE PUSH1 0x4 DUP2 ADD DUP9 SWAP1 MSTORE SWAP2 SWAP3 POP PUSH1 0x0 SWAP2 DUP4 SWAP2 PUSH1 0x1 PUSH1 0x1 PUSH1 0xA0 SHL SUB AND SWAP1 PUSH4 0x22F0772F SWAP1 PUSH1 0x24 ADD PUSH1 0x20 PUSH1 0x40 MLOAD DUP1 DUP4 SUB DUP2 DUP7 GAS STATICCALL ISZERO DUP1 ISZERO PUSH2 0x1FF1 JUMPI RETURNDATASIZE PUSH1 0x0 DUP1 RETURNDATACOPY RETURNDATASIZE PUSH1 0x0 REVERT JUMPDEST POP POP POP POP PUSH1 0x40 MLOAD RETURNDATASIZE PUSH1 0x1F NOT PUSH1 0x1F DUP3 ADD AND DUP3 ADD DUP1 PUSH1 0x40 MSTORE POP DUP2 ADD SWAP1 PUSH2 0x2015 SWAP2 SWAP1 PUSH2 0x45CD JUMP JUMPDEST PUSH2 0x201F SWAP2 SWAP1 PUSH2 0x45E6 JUMP JUMPDEST SWAP1 POP DUP1 DUP6 GT ISZERO PUSH2 0x2041 JUMPI PUSH1 0x40 MLOAD PUSH3 0x461BCD PUSH1 0xE5 SHL DUP2 MSTORE PUSH1 0x4 ADD PUSH2 0xC0B SWAP1 PUSH2 0x45F9 JUMP JUMPDEST PUSH1 0x0 PUSH2 0x204D DUP5 DUP8 PUSH2 0x446C JUMP JUMPDEST SWAP1 POP PUSH1 0x0 PUSH2 0x205B DUP6 DUP9 PUSH2 0x4458 JUMP JUMPDEST SWAP1 POP DUP1 ISZERO PUSH2 0x2071 JUMPI PUSH2 0x206E PUSH1 0x1 DUP4 PUSH2 0x4480 JUMP JUMPDEST SWAP2 POP JUMPDEST PUSH1 0x0 DUP3 PUSH1 0xE SLOAD PUSH2 0x2081 SWAP2 SWAP1 PUSH2 0x4493 JUMP JUMPDEST SWAP1 POP DUP1 CALLVALUE LT ISZERO PUSH2 0x20CF JUMPI PUSH1 0x40 MLOAD PUSH3 0x461BCD PUSH1 0xE5 SHL DUP2 MSTORE PUSH1 0x20 PUSH1 0x4 DUP3 ADD MSTORE PUSH1 0x19 PUSH1 0x24 DUP3 ADD MSTORE PUSH25 0x1195150E88125B9CDD59999A58DA595B9D081C185E5B595B9D PUSH1 0x3A SHL PUSH1 0x44 DUP3 ADD MSTORE PUSH1 0x64 ADD PUSH2 0xC0B JUMP JUMPDEST PUSH1 0x10 SLOAD PUSH1 0x40 MLOAD PUSH1 0x1 PUSH1 0x1 PUSH1 0xA0 SHL SUB SWAP1 SWAP2 AND SWAP1 DUP3 ISZERO PUSH2 0x8FC MUL SWAP1 DUP4 SWAP1 PUSH1 0x0 DUP2 DUP2 DUP2 DUP6 DUP9 DUP9 CALL SWAP4 POP POP POP POP ISZERO DUP1 ISZERO PUSH2 0x2109 JUMPI RETURNDATASIZE PUSH1 0x0 DUP1 RETURNDATACOPY RETURNDATASIZE PUSH1 0x0 REVERT JUMPDEST POP PUSH1 0x10 SLOAD PUSH1 0x40 MLOAD DUP3 DUP2 MSTORE PUSH1 0x1 PUSH1 0x1 PUSH1 0xA0 SHL SUB SWAP1 SWAP2 AND SWAP1 CALLER SWAP1 PUSH32 0xC6AD30C5A19E45B7468E8DD0050C67FFA72A6C0093110F19EB78CF5FF4FAAF67 SWAP1 PUSH1 0x20 ADD PUSH1 0x40 MLOAD DUP1 SWAP2 SUB SWAP1 LOG3 PUSH1 0x0 JUMPDEST DUP4 DUP2 LT ISZERO PUSH2 0x2240 JUMPI PUSH1 0x0 PUSH2 0x2166 PUSH1 0x1 DUP7 PUSH2 0x45E6 JUMP JUMPDEST DUP3 EQ DUP1 ISZERO PUSH2 0x2174 JUMPI POP PUSH1 0x0 DUP5 GT JUMPDEST PUSH2 0x217E JUMPI DUP8 PUSH2 0x2180 JUMP JUMPDEST DUP4 JUMPDEST SWAP1 POP PUSH1 0x0 PUSH2 0x218D PUSH1 0x8 SLOAD SWAP1 JUMP JUMPDEST PUSH2 0x2198 SWAP1 PUSH1 0x1 PUSH2 0x4480 JUMP JUMPDEST SWAP1 POP PUSH2 0x21A4 DUP11 DUP3 PUSH2 0x35E6 JUMP JUMPDEST PUSH2 0x21B2 PUSH1 0x8 DUP1 SLOAD PUSH1 0x1 ADD SWAP1 SSTORE JUMP JUMPDEST PUSH1 0x0 DUP2 DUP2 MSTORE PUSH1 0xA PUSH1 0x20 SWAP1 DUP2 MSTORE PUSH1 0x40 DUP1 DUP4 KECCAK256 DUP6 SWAP1 SSTORE PUSH1 0xB DUP3 MSTORE DUP1 DUP4 KECCAK256 DUP13 SWAP1 SSTORE PUSH1 0xC SWAP1 SWAP2 MSTORE SWAP1 KECCAK256 DUP13 SWAP1 SSTORE PUSH1 0xE SLOAD DUP2 SWAP1 DUP14 SWAP1 PUSH32 0xCB8892199B4280486D5B893D048C9E1E67031DB974484CE61A1A00767891A4F5 SWAP1 DUP6 SWAP1 DUP15 SWAP1 ADDRESS SWAP1 PUSH2 0x2212 DUP8 PUSH2 0x2D50 JUMP JUMPDEST PUSH1 0x40 MLOAD PUSH2 0x2223 SWAP6 SWAP5 SWAP4 SWAP3 SWAP2 SWAP1 PUSH2 0x4642 JUMP JUMPDEST PUSH1 0x40 MLOAD DUP1 SWAP2 SUB SWAP1 LOG3 POP POP DUP1 DUP1 PUSH2 0x2238 SWAP1 PUSH2 0x4379 JUMP JUMPDEST SWAP2 POP POP PUSH2 0x2151 JUMP JUMPDEST POP POP POP POP POP POP POP POP POP POP JUMP JUMPDEST PUSH1 0x0 PUSH1 0x1 PUSH1 0x1 PUSH1 0xA0 SHL SUB DUP3 AND PUSH2 0x22B6 JUMPI PUSH1 0x40 MLOAD PUSH3 0x461BCD PUSH1 0xE5 SHL DUP2 MSTORE PUSH1 0x20 PUSH1 0x4 DUP3 ADD MSTORE PUSH1 0x29 PUSH1 0x24 DUP3 ADD MSTORE PUSH32 0x4552433732313A2061646472657373207A65726F206973206E6F742061207661 PUSH1 0x44 DUP3 ADD MSTORE PUSH9 0x3634B21037BBB732B9 PUSH1 0xB9 SHL PUSH1 0x64 DUP3 ADD MSTORE PUSH1 0x84 ADD PUSH2 0xC0B JUMP JUMPDEST POP PUSH1 0x1 PUSH1 0x1 PUSH1 0xA0 SHL SUB AND PUSH1 0x0 SWAP1 DUP2 MSTORE PUSH1 0x3 PUSH1 0x20 MSTORE PUSH1 0x40 SWAP1 KECCAK256 SLOAD SWAP1 JUMP JUMPDEST PUSH2 0x22DA PUSH2 0x3460 JUMP JUMPDEST PUSH2 0x1348 PUSH1 0x0 PUSH2 0x37E8 JUMP JUMPDEST PUSH1 0x60 PUSH1 0x0 PUSH2 0x22F1 PUSH1 0x8 SLOAD SWAP1 JUMP JUMPDEST SWAP1 POP PUSH1 0x0 DUP2 PUSH1 0x1 PUSH1 0x1 PUSH1 0x40 SHL SUB DUP2 GT ISZERO PUSH2 0x230D JUMPI PUSH2 0x230D PUSH2 0x3F1A JUMP JUMPDEST PUSH1 0x40 MLOAD SWAP1 DUP1 DUP3 MSTORE DUP1 PUSH1 0x20 MUL PUSH1 0x20 ADD DUP3 ADD PUSH1 0x40 MSTORE DUP1 ISZERO PUSH2 0x2346 JUMPI DUP2 PUSH1 0x20 ADD JUMPDEST PUSH2 0x2333 PUSH2 0x3D2A JUMP JUMPDEST DUP2 MSTORE PUSH1 0x20 ADD SWAP1 PUSH1 0x1 SWAP1 SUB SWAP1 DUP2 PUSH2 0x232B JUMPI SWAP1 POP JUMPDEST POP SWAP1 POP PUSH1 0x0 PUSH1 0x1 JUMPDEST DUP4 DUP2 GT PUSH2 0x2428 JUMPI PUSH2 0x235E DUP2 PUSH2 0x3385 JUMP JUMPDEST ISZERO PUSH2 0x2416 JUMPI PUSH1 0x0 DUP2 DUP2 MSTORE PUSH1 0xA PUSH1 0x20 MSTORE PUSH1 0x40 DUP2 KECCAK256 SLOAD SWAP1 PUSH2 0x237C DUP4 PUSH2 0x1A48 JUMP JUMPDEST PUSH1 0x0 DUP5 DUP2 MSTORE PUSH1 0xC PUSH1 0x20 MSTORE PUSH1 0x40 SWAP1 KECCAK256 SLOAD SWAP1 SWAP2 POP DUP10 DUP2 EQ DUP1 ISZERO PUSH2 0x23AE JUMPI POP DUP9 PUSH1 0x1 PUSH1 0x1 PUSH1 0xA0 SHL SUB AND DUP3 PUSH1 0x1 PUSH1 0x1 PUSH1 0xA0 SHL SUB AND EQ JUMPDEST ISZERO PUSH2 0x2412 JUMPI PUSH1 0x40 MLOAD DUP1 PUSH1 0xA0 ADD PUSH1 0x40 MSTORE DUP1 DUP3 DUP2 MSTORE PUSH1 0x20 ADD DUP6 DUP2 MSTORE PUSH1 0x20 ADD DUP5 DUP2 MSTORE PUSH1 0x20 ADD DUP4 PUSH1 0x1 PUSH1 0x1 PUSH1 0xA0 SHL SUB AND DUP2 MSTORE PUSH1 0x20 ADD PUSH1 0x0 ISZERO ISZERO DUP2 MSTORE POP DUP7 DUP7 DUP2 MLOAD DUP2 LT PUSH2 0x23F8 JUMPI PUSH2 0x23F8 PUSH2 0x45B7 JUMP JUMPDEST PUSH1 0x20 MUL PUSH1 0x20 ADD ADD DUP2 SWAP1 MSTORE POP DUP5 DUP1 PUSH2 0x240E SWAP1 PUSH2 0x4379 JUMP JUMPDEST SWAP6 POP POP JUMPDEST POP POP POP JUMPDEST DUP1 PUSH2 0x2420 DUP2 PUSH2 0x4379 JUMP JUMPDEST SWAP2 POP POP PUSH2 0x234E JUMP JUMPDEST POP DUP3 DUP2 LT ISZERO PUSH2 0x184B JUMPI PUSH1 0x0 DUP2 PUSH1 0x1 PUSH1 0x1 PUSH1 0x40 SHL SUB DUP2 GT ISZERO PUSH2 0x244B JUMPI PUSH2 0x244B PUSH2 0x3F1A JUMP JUMPDEST PUSH1 0x40 MLOAD SWAP1 DUP1 DUP3 MSTORE DUP1 PUSH1 0x20 MUL PUSH1 0x20 ADD DUP3 ADD PUSH1 0x40 MSTORE DUP1 ISZERO PUSH2 0x2484 JUMPI DUP2 PUSH1 0x20 ADD JUMPDEST PUSH2 0x2471 PUSH2 0x3D2A JUMP JUMPDEST DUP2 MSTORE PUSH1 0x20 ADD SWAP1 PUSH1 0x1 SWAP1 SUB SWAP1 DUP2 PUSH2 0x2469 JUMPI SWAP1 POP JUMPDEST POP SWAP1 POP PUSH1 0x0 JUMPDEST DUP3 DUP2 LT ISZERO PUSH2 0x24DC JUMPI DUP4 DUP2 DUP2 MLOAD DUP2 LT PUSH2 0x24A4 JUMPI PUSH2 0x24A4 PUSH2 0x45B7 JUMP JUMPDEST PUSH1 0x20 MUL PUSH1 0x20 ADD ADD MLOAD DUP3 DUP3 DUP2 MLOAD DUP2 LT PUSH2 0x24BE JUMPI PUSH2 0x24BE PUSH2 0x45B7 JUMP JUMPDEST PUSH1 0x20 MUL PUSH1 0x20 ADD ADD DUP2 SWAP1 MSTORE POP DUP1 DUP1 PUSH2 0x24D4 SWAP1 PUSH2 0x4379 JUMP JUMPDEST SWAP2 POP POP PUSH2 0x248A JUMP JUMPDEST POP SWAP7 SWAP6 POP POP POP POP POP POP JUMP JUMPDEST PUSH2 0x24EF PUSH2 0x3599 JUMP JUMPDEST PUSH1 0x1 DUP3 MLOAD GT PUSH2 0x2551 JUMPI PUSH1 0x40 MLOAD PUSH3 0x461BCD PUSH1 0xE5 SHL DUP2 MSTORE PUSH1 0x20 PUSH1 0x4 DUP3 ADD MSTORE PUSH1 0x28 PUSH1 0x24 DUP3 ADD MSTORE PUSH32 0x4654543A204D7573742070726F76696465206174206C656173742074776F2074 PUSH1 0x44 DUP3 ADD MSTORE PUSH8 0x6F6B656E20494473 PUSH1 0xC0 SHL PUSH1 0x64 DUP3 ADD MSTORE PUSH1 0x84 ADD PUSH2 0xC0B JUMP JUMPDEST PUSH2 0x255A DUP2 PUSH2 0x3385 JUMP JUMPDEST PUSH2 0x25B2 JUMPI PUSH1 0x40 MLOAD PUSH3 0x461BCD PUSH1 0xE5 SHL DUP2 MSTORE PUSH1 0x20 PUSH1 0x4 DUP3 ADD MSTORE PUSH1 0x23 PUSH1 0x24 DUP3 ADD MSTORE PUSH32 0x4654543A204D657267656420746F6B656E20494420646F6573206E6F74206578 PUSH1 0x44 DUP3 ADD MSTORE PUSH3 0x1A5CDD PUSH1 0xEA SHL PUSH1 0x64 DUP3 ADD MSTORE PUSH1 0x84 ADD PUSH2 0xC0B JUMP JUMPDEST PUSH1 0x0 DUP1 PUSH1 0xC PUSH1 0x0 DUP6 PUSH1 0x0 DUP2 MLOAD DUP2 LT PUSH2 0x25CC JUMPI PUSH2 0x25CC PUSH2 0x45B7 JUMP JUMPDEST PUSH1 0x20 MUL PUSH1 0x20 ADD ADD MLOAD DUP2 MSTORE PUSH1 0x20 ADD SWAP1 DUP2 MSTORE PUSH1 0x20 ADD PUSH1 0x0 KECCAK256 SLOAD SWAP1 POP PUSH1 0x0 JUMPDEST DUP5 MLOAD DUP2 LT ISZERO PUSH2 0x27A9 JUMPI PUSH1 0x0 DUP6 DUP3 DUP2 MLOAD DUP2 LT PUSH2 0x2605 JUMPI PUSH2 0x2605 PUSH2 0x45B7 JUMP JUMPDEST PUSH1 0x20 MUL PUSH1 0x20 ADD ADD MLOAD SWAP1 POP PUSH2 0x2618 DUP2 PUSH2 0x3385 JUMP JUMPDEST PUSH2 0x2664 JUMPI PUSH1 0x40 MLOAD PUSH3 0x461BCD PUSH1 0xE5 SHL DUP2 MSTORE PUSH1 0x20 PUSH1 0x4 DUP3 ADD MSTORE PUSH1 0x1C PUSH1 0x24 DUP3 ADD MSTORE PUSH32 0x4654543A20546F6B656E20494420646F6573206E6F7420657869737400000000 PUSH1 0x44 DUP3 ADD MSTORE PUSH1 0x64 ADD PUSH2 0xC0B JUMP JUMPDEST CALLER PUSH2 0x266E DUP3 PUSH2 0x1A48 JUMP JUMPDEST PUSH1 0x1 PUSH1 0x1 PUSH1 0xA0 SHL SUB AND EQ PUSH2 0x2694 JUMPI PUSH1 0x40 MLOAD PUSH3 0x461BCD PUSH1 0xE5 SHL DUP2 MSTORE PUSH1 0x4 ADD PUSH2 0xC0B SWAP1 PUSH2 0x4400 JUMP JUMPDEST PUSH1 0x0 DUP2 DUP2 MSTORE PUSH1 0xC PUSH1 0x20 MSTORE PUSH1 0x40 SWAP1 KECCAK256 SLOAD DUP4 EQ PUSH2 0x2701 JUMPI PUSH1 0x40 MLOAD PUSH3 0x461BCD PUSH1 0xE5 SHL DUP2 MSTORE PUSH1 0x20 PUSH1 0x4 DUP3 ADD MSTORE PUSH1 0x27 PUSH1 0x24 DUP3 ADD MSTORE PUSH32 0x4654543A20546F6B656E73206D7573742062656C6F6E6720746F207468652073 PUSH1 0x44 DUP3 ADD MSTORE PUSH7 0x616D652046544F PUSH1 0xC8 SHL PUSH1 0x64 DUP3 ADD MSTORE PUSH1 0x84 ADD PUSH2 0xC0B JUMP JUMPDEST PUSH1 0x0 DUP2 DUP2 MSTORE PUSH1 0xA PUSH1 0x20 MSTORE PUSH1 0x40 SWAP1 KECCAK256 SLOAD PUSH2 0x271A DUP2 DUP7 PUSH2 0x4480 JUMP JUMPDEST SWAP5 POP PUSH2 0x2725 DUP3 PUSH2 0x3753 JUMP JUMPDEST PUSH1 0x0 DUP3 DUP2 MSTORE PUSH1 0xA PUSH1 0x20 SWAP1 DUP2 MSTORE PUSH1 0x40 DUP1 DUP4 KECCAK256 DUP4 SWAP1 SSTORE PUSH1 0xB DUP3 MSTORE DUP1 DUP4 KECCAK256 DUP4 SWAP1 SSTORE PUSH1 0xC DUP3 MSTORE DUP1 DUP4 KECCAK256 SWAP3 SWAP1 SWAP3 SSTORE DUP2 MLOAD DUP5 DUP2 MSTORE SWAP1 DUP2 ADD DUP4 SWAP1 MSTORE ADDRESS DUP2 DUP4 ADD MSTORE PUSH1 0x60 DUP2 ADD DUP7 SWAP1 MSTORE SWAP1 MLOAD CALLER SWAP2 PUSH32 0x7366375985C0B04C4B024FA1376FCC4BB5C56809811DE4E05B43F70DD790EF32 SWAP2 SWAP1 DUP2 SWAP1 SUB PUSH1 0x80 ADD SWAP1 LOG2 POP POP DUP1 DUP1 PUSH2 0x27A1 SWAP1 PUSH2 0x4379 JUMP JUMPDEST SWAP2 POP POP PUSH2 0x25E8 JUMP JUMPDEST POP PUSH1 0x0 DUP4 DUP2 MSTORE PUSH1 0xC PUSH1 0x20 MSTORE PUSH1 0x40 SWAP1 KECCAK256 DUP2 SWAP1 SSTORE PUSH1 0x18 SLOAD CALLVALUE LT ISZERO PUSH2 0x280D JUMPI PUSH1 0x40 MLOAD PUSH3 0x461BCD PUSH1 0xE5 SHL DUP2 MSTORE PUSH1 0x20 PUSH1 0x4 DUP3 ADD MSTORE PUSH1 0x1B PUSH1 0x24 DUP3 ADD MSTORE PUSH32 0x4654543A20496E73756666696369656E74206D65726765206665650000000000 PUSH1 0x44 DUP3 ADD MSTORE PUSH1 0x64 ADD PUSH2 0xC0B JUMP JUMPDEST PUSH1 0x10 SLOAD PUSH1 0x18 SLOAD PUSH1 0x40 MLOAD PUSH1 0x1 PUSH1 0x1 PUSH1 0xA0 SHL SUB SWAP1 SWAP3 AND SWAP2 DUP2 ISZERO PUSH2 0x8FC MUL SWAP2 SWAP1 PUSH1 0x0 DUP2 DUP2 DUP2 DUP6 DUP9 DUP9 CALL SWAP4 POP POP POP POP ISZERO DUP1 ISZERO PUSH2 0x2849 JUMPI RETURNDATASIZE PUSH1 0x0 DUP1 RETURNDATACOPY RETURNDATASIZE PUSH1 0x0 REVERT JUMPDEST POP PUSH1 0x0 DUP4 DUP2 MSTORE PUSH1 0xA PUSH1 0x20 MSTORE PUSH1 0x40 DUP2 KECCAK256 DUP1 SLOAD DUP5 SWAP3 SWAP1 PUSH2 0x2868 SWAP1 DUP5 SWAP1 PUSH2 0x4480 JUMP JUMPDEST SWAP1 SWAP2 SSTORE POP POP PUSH1 0x0 DUP4 DUP2 MSTORE PUSH1 0xA PUSH1 0x20 SWAP1 DUP2 MSTORE PUSH1 0x40 SWAP2 DUP3 SWAP1 KECCAK256 SLOAD PUSH1 0x18 SLOAD DUP4 MLOAD DUP8 DUP2 MSTORE SWAP3 DUP4 ADD SWAP2 SWAP1 SWAP2 MSTORE ADDRESS DUP3 DUP5 ADD MSTORE PUSH1 0x60 DUP3 ADD DUP5 SWAP1 MSTORE PUSH1 0x80 DUP3 ADD MSTORE SWAP1 MLOAD CALLER SWAP2 PUSH32 0x97A05B6D8EF7B1D4E66D2247FC80679577C6614E2A12541529C0F210283ED7F6 SWAP2 SWAP1 DUP2 SWAP1 SUB PUSH1 0xA0 ADD SWAP1 LOG2 POP POP POP POP JUMP JUMPDEST PUSH2 0x28DE DUP2 PUSH2 0x3385 JUMP JUMPDEST PUSH2 0x28FA JUMPI PUSH1 0x40 MLOAD PUSH3 0x461BCD PUSH1 0xE5 SHL DUP2 MSTORE PUSH1 0x4 ADD PUSH2 0xC0B SWAP1 PUSH2 0x43C9 JUMP JUMPDEST CALLER PUSH2 0x2904 DUP3 PUSH2 0x1A48 JUMP JUMPDEST PUSH1 0x1 PUSH1 0x1 PUSH1 0xA0 SHL SUB AND EQ PUSH2 0x292A JUMPI PUSH1 0x40 MLOAD PUSH3 0x461BCD PUSH1 0xE5 SHL DUP2 MSTORE PUSH1 0x4 ADD PUSH2 0xC0B SWAP1 PUSH2 0x4400 JUMP JUMPDEST PUSH2 0x2933 DUP2 PUSH2 0x3753 JUMP JUMPDEST PUSH1 0x0 DUP2 DUP2 MSTORE PUSH1 0xA PUSH1 0x20 SWAP1 DUP2 MSTORE PUSH1 0x40 DUP1 DUP4 KECCAK256 DUP4 SWAP1 SSTORE PUSH1 0xB DUP3 MSTORE DUP1 DUP4 KECCAK256 DUP4 SWAP1 SSTORE PUSH1 0xC SWAP1 SWAP2 MSTORE DUP2 KECCAK256 DUP2 SWAP1 SSTORE PUSH1 0x0 PUSH2 0x2966 DUP4 PUSH2 0x3275 JUMP JUMPDEST PUSH1 0x40 DUP1 MLOAD DUP3 DUP2 MSTORE ADDRESS PUSH1 0x20 DUP3 ADD MSTORE SWAP1 DUP2 ADD DUP5 SWAP1 MSTORE SWAP1 SWAP2 POP CALLER SWAP1 DUP5 SWAP1 PUSH32 0xBEA83F804B4F634240C86208336FE94BCC52335D6AE25191D3DF96F53DFC601D SWAP1 PUSH1 0x60 ADD JUMPDEST PUSH1 0x40 MLOAD DUP1 SWAP2 SUB SWAP1 LOG3 POP POP POP JUMP JUMPDEST PUSH2 0x29BB PUSH2 0x3460 JUMP JUMPDEST PUSH2 0x1348 PUSH2 0x383A JUMP JUMPDEST PUSH1 0x0 DUP2 DUP2 MSTORE PUSH1 0xC PUSH1 0x20 MSTORE PUSH1 0x40 DUP2 KECCAK256 SLOAD DUP2 SWAP1 PUSH1 0x9 SLOAD PUSH1 0x40 MLOAD PUSH4 0x22F0772F PUSH1 0xE0 SHL DUP2 MSTORE PUSH1 0x4 DUP2 ADD DUP4 SWAP1 MSTORE SWAP2 SWAP3 POP PUSH1 0x1 PUSH1 0x1 PUSH1 0xA0 SHL SUB AND SWAP1 PUSH4 0x22F0772F SWAP1 PUSH1 0x24 ADD PUSH1 0x20 PUSH1 0x40 MLOAD DUP1 DUP4 SUB DUP2 DUP7 GAS STATICCALL ISZERO DUP1 ISZERO PUSH2 0x2A1E JUMPI RETURNDATASIZE PUSH1 0x0 DUP1 RETURNDATACOPY RETURNDATASIZE PUSH1 0x0 REVERT JUMPDEST POP POP POP POP PUSH1 0x40 MLOAD RETURNDATASIZE PUSH1 0x1F NOT PUSH1 0x1F DUP3 ADD AND DUP3 ADD DUP1 PUSH1 0x40 MSTORE POP DUP2 ADD SWAP1 PUSH2 0x2A42 SWAP2 SWAP1 PUSH2 0x45CD JUMP JUMPDEST SWAP4 SWAP3 POP POP POP JUMP JUMPDEST PUSH1 0x60 PUSH1 0x0 PUSH2 0x2A56 DUP4 PUSH2 0x224C JUMP JUMPDEST SWAP1 POP PUSH1 0x0 DUP2 PUSH1 0x1 PUSH1 0x1 PUSH1 0x40 SHL SUB DUP2 GT ISZERO PUSH2 0x2A72 JUMPI PUSH2 0x2A72 PUSH2 0x3F1A JUMP JUMPDEST PUSH1 0x40 MLOAD SWAP1 DUP1 DUP3 MSTORE DUP1 PUSH1 0x20 MUL PUSH1 0x20 ADD DUP3 ADD PUSH1 0x40 MSTORE DUP1 ISZERO PUSH2 0x2AAB JUMPI DUP2 PUSH1 0x20 ADD JUMPDEST PUSH2 0x2A98 PUSH2 0x3D2A JUMP JUMPDEST DUP2 MSTORE PUSH1 0x20 ADD SWAP1 PUSH1 0x1 SWAP1 SUB SWAP1 DUP2 PUSH2 0x2A90 JUMPI SWAP1 POP JUMPDEST POP SWAP1 POP PUSH1 0x0 JUMPDEST DUP3 DUP2 LT ISZERO PUSH2 0x2B50 JUMPI PUSH1 0x0 PUSH2 0x2AC5 DUP7 DUP4 PUSH2 0x10CB JUMP JUMPDEST PUSH1 0x0 DUP2 DUP2 MSTORE PUSH1 0xC PUSH1 0x20 MSTORE PUSH1 0x40 DUP2 KECCAK256 SLOAD SWAP2 SWAP3 POP POP PUSH1 0x40 MLOAD DUP1 PUSH1 0xA0 ADD PUSH1 0x40 MSTORE DUP1 DUP3 DUP2 MSTORE PUSH1 0x20 ADD DUP4 DUP2 MSTORE PUSH1 0x20 ADD PUSH1 0xA PUSH1 0x0 DUP6 DUP2 MSTORE PUSH1 0x20 ADD SWAP1 DUP2 MSTORE PUSH1 0x20 ADD PUSH1 0x0 KECCAK256 SLOAD DUP2 MSTORE PUSH1 0x20 ADD DUP9 PUSH1 0x1 PUSH1 0x1 PUSH1 0xA0 SHL SUB AND DUP2 MSTORE PUSH1 0x20 ADD PUSH1 0x0 ISZERO ISZERO DUP2 MSTORE POP DUP5 DUP5 DUP2 MLOAD DUP2 LT PUSH2 0x2B30 JUMPI PUSH2 0x2B30 PUSH2 0x45B7 JUMP JUMPDEST PUSH1 0x20 MUL PUSH1 0x20 ADD ADD DUP2 SWAP1 MSTORE POP POP POP DUP1 DUP1 PUSH2 0x2B48 SWAP1 PUSH2 0x4379 JUMP JUMPDEST SWAP2 POP POP PUSH2 0x2AB1 JUMP JUMPDEST POP SWAP4 SWAP3 POP POP POP JUMP JUMPDEST PUSH1 0x60 PUSH1 0x1 DUP1 SLOAD PUSH2 0xC93 SWAP1 PUSH2 0x430B JUMP JUMPDEST PUSH2 0x17D7 CALLER DUP4 DUP4 PUSH2 0x387D JUMP JUMPDEST PUSH1 0x14 SLOAD PUSH1 0x0 SWAP1 PUSH1 0x1 PUSH1 0xA0 SHL SWAP1 DIV PUSH1 0xFF AND PUSH2 0x2BD9 JUMPI PUSH1 0x40 MLOAD PUSH3 0x461BCD PUSH1 0xE5 SHL DUP2 MSTORE PUSH1 0x20 PUSH1 0x4 DUP3 ADD MSTORE PUSH1 0x22 PUSH1 0x24 DUP3 ADD MSTORE PUSH32 0x436F6E747261637420686173206E6F74206265656E2075706772616465642079 PUSH1 0x44 DUP3 ADD MSTORE PUSH2 0x195D PUSH1 0xF2 SHL PUSH1 0x64 DUP3 ADD MSTORE PUSH1 0x84 ADD PUSH2 0xC0B JUMP JUMPDEST POP PUSH1 0x14 SLOAD PUSH1 0x1 PUSH1 0x1 PUSH1 0xA0 SHL SUB AND SWAP1 JUMP JUMPDEST PUSH2 0x2BF1 PUSH2 0x3460 JUMP JUMPDEST PUSH2 0x2BFA DUP3 PUSH2 0x3385 JUMP JUMPDEST PUSH2 0x2C16 JUMPI PUSH1 0x40 MLOAD PUSH3 0x461BCD PUSH1 0xE5 SHL DUP2 MSTORE PUSH1 0x4 ADD PUSH2 0xC0B SWAP1 PUSH2 0x4392 JUMP JUMPDEST PUSH1 0x0 DUP3 DUP2 MSTORE PUSH1 0x12 PUSH1 0x20 MSTORE PUSH1 0x40 SWAP1 KECCAK256 PUSH2 0xE4D DUP3 DUP3 PUSH2 0x44F8 JUMP JUMPDEST PUSH1 0x0 DUP3 DUP2 MSTORE PUSH1 0xA PUSH1 0x20 SWAP1 DUP2 MSTORE PUSH1 0x40 DUP1 DUP4 KECCAK256 SLOAD PUSH1 0xB SWAP1 SWAP3 MSTORE SWAP1 SWAP2 KECCAK256 SLOAD EQ DUP1 PUSH2 0x2C5F JUMPI POP PUSH1 0xF SLOAD PUSH1 0x1 PUSH1 0x1 PUSH1 0xA0 SHL SUB AND CALLER EQ JUMPDEST PUSH2 0x2CDF JUMPI PUSH1 0x40 MLOAD PUSH3 0x461BCD PUSH1 0xE5 SHL DUP2 MSTORE PUSH1 0x20 PUSH1 0x4 DUP3 ADD MSTORE PUSH1 0x44 PUSH1 0x24 DUP3 ADD DUP2 SWAP1 MSTORE PUSH32 0x4654543A2043616E206F6E6C79207472616E7366657220656E74697265204654 SWAP1 DUP3 ADD MSTORE PUSH32 0x5420746F6B656E73206F72207370656E646572206D7573742062652061707072 PUSH1 0x64 DUP3 ADD MSTORE PUSH4 0x1BDD9959 PUSH1 0xE2 SHL PUSH1 0x84 DUP3 ADD MSTORE PUSH1 0xA4 ADD PUSH2 0xC0B JUMP JUMPDEST PUSH2 0x2CEB DUP5 DUP5 DUP5 DUP5 PUSH2 0x3943 JUMP JUMPDEST POP POP POP POP JUMP JUMPDEST PUSH1 0x0 DUP1 DUP1 PUSH2 0x2CFE DUP5 PUSH2 0x224C JUMP JUMPDEST SWAP1 POP PUSH1 0x0 JUMPDEST DUP2 DUP2 LT ISZERO PUSH2 0x2D47 JUMPI PUSH1 0x0 PUSH2 0x2D17 DUP7 DUP4 PUSH2 0x10CB JUMP JUMPDEST SWAP1 POP PUSH1 0x0 PUSH2 0x2D24 DUP3 PUSH2 0x3975 JUMP JUMPDEST SWAP1 POP PUSH2 0x2D30 DUP2 DUP7 PUSH2 0x4480 JUMP JUMPDEST SWAP5 POP POP POP DUP1 DUP1 PUSH2 0x2D3F SWAP1 PUSH2 0x4379 JUMP JUMPDEST SWAP2 POP POP PUSH2 0x2D03 JUMP JUMPDEST POP SWAP1 SWAP4 SWAP3 POP POP POP JUMP JUMPDEST PUSH1 0x60 PUSH2 0x2D5B DUP3 PUSH2 0x3385 JUMP JUMPDEST PUSH2 0x2D77 JUMPI PUSH1 0x40 MLOAD PUSH3 0x461BCD PUSH1 0xE5 SHL DUP2 MSTORE PUSH1 0x4 ADD PUSH2 0xC0B SWAP1 PUSH2 0x4392 JUMP JUMPDEST PUSH1 0x0 PUSH1 0x19 DUP1 SLOAD PUSH2 0x2D86 SWAP1 PUSH2 0x430B JUMP JUMPDEST DUP1 PUSH1 0x1F ADD PUSH1 0x20 DUP1 SWAP2 DIV MUL PUSH1 0x20 ADD PUSH1 0x40 MLOAD SWAP1 DUP2 ADD PUSH1 0x40 MSTORE DUP1 SWAP3 SWAP2 SWAP1 DUP2 DUP2 MSTORE PUSH1 0x20 ADD DUP3 DUP1 SLOAD PUSH2 0x2DB2 SWAP1 PUSH2 0x430B JUMP JUMPDEST DUP1 ISZERO PUSH2 0x2DFF JUMPI DUP1 PUSH1 0x1F LT PUSH2 0x2DD4 JUMPI PUSH2 0x100 DUP1 DUP4 SLOAD DIV MUL DUP4 MSTORE SWAP2 PUSH1 0x20 ADD SWAP2 PUSH2 0x2DFF JUMP JUMPDEST DUP3 ADD SWAP2 SWAP1 PUSH1 0x0 MSTORE PUSH1 0x20 PUSH1 0x0 KECCAK256 SWAP1 JUMPDEST DUP2 SLOAD DUP2 MSTORE SWAP1 PUSH1 0x1 ADD SWAP1 PUSH1 0x20 ADD DUP1 DUP4 GT PUSH2 0x2DE2 JUMPI DUP3 SWAP1 SUB PUSH1 0x1F AND DUP3 ADD SWAP2 JUMPDEST POP POP POP POP POP SWAP1 POP PUSH1 0x0 PUSH1 0x12 PUSH1 0x0 DUP6 DUP2 MSTORE PUSH1 0x20 ADD SWAP1 DUP2 MSTORE PUSH1 0x20 ADD PUSH1 0x0 KECCAK256 DUP1 SLOAD PUSH2 0x2E26 SWAP1 PUSH2 0x430B JUMP JUMPDEST DUP1 PUSH1 0x1F ADD PUSH1 0x20 DUP1 SWAP2 DIV MUL PUSH1 0x20 ADD PUSH1 0x40 MLOAD SWAP1 DUP2 ADD PUSH1 0x40 MSTORE DUP1 SWAP3 SWAP2 SWAP1 DUP2 DUP2 MSTORE PUSH1 0x20 ADD DUP3 DUP1 SLOAD PUSH2 0x2E52 SWAP1 PUSH2 0x430B JUMP JUMPDEST DUP1 ISZERO PUSH2 0x2E9F JUMPI DUP1 PUSH1 0x1F LT PUSH2 0x2E74 JUMPI PUSH2 0x100 DUP1 DUP4 SLOAD DIV MUL DUP4 MSTORE SWAP2 PUSH1 0x20 ADD SWAP2 PUSH2 0x2E9F JUMP JUMPDEST DUP3 ADD SWAP2 SWAP1 PUSH1 0x0 MSTORE PUSH1 0x20 PUSH1 0x0 KECCAK256 SWAP1 JUMPDEST DUP2 SLOAD DUP2 MSTORE SWAP1 PUSH1 0x1 ADD SWAP1 PUSH1 0x20 ADD DUP1 DUP4 GT PUSH2 0x2E82 JUMPI DUP3 SWAP1 SUB PUSH1 0x1F AND DUP3 ADD SWAP2 JUMPDEST POP POP POP POP POP SWAP1 POP PUSH1 0x0 DUP2 MLOAD GT ISZERO PUSH2 0x2EDB JUMPI DUP2 DUP2 PUSH1 0x40 MLOAD PUSH1 0x20 ADD PUSH2 0x2EC3 SWAP3 SWAP2 SWAP1 PUSH2 0x467B JUMP JUMPDEST PUSH1 0x40 MLOAD PUSH1 0x20 DUP2 DUP4 SUB SUB DUP2 MSTORE SWAP1 PUSH1 0x40 MSTORE SWAP3 POP POP POP SWAP2 SWAP1 POP JUMP JUMPDEST POP POP PUSH1 0x40 DUP1 MLOAD PUSH1 0x20 DUP2 ADD SWAP1 SWAP2 MSTORE PUSH1 0x0 DUP2 MSTORE SWAP3 SWAP2 POP POP JUMP JUMPDEST PUSH1 0x0 DUP1 PUSH1 0x1 JUMPDEST PUSH2 0x2F00 PUSH2 0xE52 JUMP JUMPDEST DUP2 GT PUSH2 0x2F33 JUMPI PUSH1 0x0 DUP2 DUP2 MSTORE PUSH1 0xA PUSH1 0x20 MSTORE PUSH1 0x40 SWAP1 KECCAK256 SLOAD PUSH2 0x2F1F SWAP1 DUP4 PUSH2 0x4480 JUMP JUMPDEST SWAP2 POP DUP1 PUSH2 0x2F2B DUP2 PUSH2 0x4379 JUMP JUMPDEST SWAP2 POP POP PUSH2 0x2EF8 JUMP JUMPDEST POP SWAP2 SWAP1 POP JUMP JUMPDEST PUSH2 0x2F41 PUSH2 0x3460 JUMP JUMPDEST PUSH1 0xF DUP1 SLOAD PUSH1 0x1 PUSH1 0x1 PUSH1 0xA0 SHL SUB DUP4 AND PUSH1 0x1 PUSH1 0x1 PUSH1 0xA0 SHL SUB NOT SWAP1 SWAP2 AND OR SWAP1 SSTORE PUSH2 0x2F70 PUSH1 0x6 SLOAD PUSH1 0x1 PUSH1 0x1 PUSH1 0xA0 SHL SUB AND SWAP1 JUMP JUMPDEST PUSH1 0x40 DUP1 MLOAD CALLER DUP2 MSTORE ADDRESS PUSH1 0x20 DUP3 ADD MSTORE PUSH1 0x1 PUSH1 0x1 PUSH1 0xA0 SHL SUB SWAP3 DUP4 AND SWAP3 DUP5 AND SWAP2 PUSH32 0xC0F64DF9179E4C09E6AF809199C489223F6AB5E85BD066C731EDAAEC0E6213CF SWAP2 ADD PUSH2 0xEA6 JUMP JUMPDEST PUSH1 0x60 PUSH1 0x0 PUSH2 0x2FC1 PUSH1 0x8 SLOAD SWAP1 JUMP JUMPDEST SWAP1 POP PUSH1 0x0 DUP2 PUSH1 0x1 PUSH1 0x1 PUSH1 0x40 SHL SUB DUP2 GT ISZERO PUSH2 0x2FDD JUMPI PUSH2 0x2FDD PUSH2 0x3F1A JUMP JUMPDEST PUSH1 0x40 MLOAD SWAP1 DUP1 DUP3 MSTORE DUP1 PUSH1 0x20 MUL PUSH1 0x20 ADD DUP3 ADD PUSH1 0x40 MSTORE DUP1 ISZERO PUSH2 0x3016 JUMPI DUP2 PUSH1 0x20 ADD JUMPDEST PUSH2 0x3003 PUSH2 0x3D2A JUMP JUMPDEST DUP2 MSTORE PUSH1 0x20 ADD SWAP1 PUSH1 0x1 SWAP1 SUB SWAP1 DUP2 PUSH2 0x2FFB JUMPI SWAP1 POP JUMPDEST POP SWAP1 POP PUSH1 0x0 PUSH1 0x1 JUMPDEST DUP4 DUP2 GT PUSH2 0x30DA JUMPI PUSH2 0x302E DUP2 PUSH2 0x3385 JUMP JUMPDEST ISZERO PUSH2 0x30C8 JUMPI PUSH1 0x0 DUP2 DUP2 MSTORE PUSH1 0xA PUSH1 0x20 MSTORE PUSH1 0x40 DUP2 KECCAK256 SLOAD SWAP1 PUSH2 0x304C DUP4 PUSH2 0x1A48 JUMP JUMPDEST PUSH1 0x0 DUP5 DUP2 MSTORE PUSH1 0xC PUSH1 0x20 MSTORE PUSH1 0x40 SWAP1 KECCAK256 SLOAD SWAP1 SWAP2 POP DUP9 DUP2 SUB PUSH2 0x30C4 JUMPI PUSH1 0x40 MLOAD DUP1 PUSH1 0xA0 ADD PUSH1 0x40 MSTORE DUP1 DUP3 DUP2 MSTORE PUSH1 0x20 ADD DUP6 DUP2 MSTORE PUSH1 0x20 ADD DUP5 DUP2 MSTORE PUSH1 0x20 ADD DUP4 PUSH1 0x1 PUSH1 0x1 PUSH1 0xA0 SHL SUB AND DUP2 MSTORE PUSH1 0x20 ADD PUSH1 0x0 ISZERO ISZERO DUP2 MSTORE POP DUP7 DUP7 DUP2 MLOAD DUP2 LT PUSH2 0x30AA JUMPI PUSH2 0x30AA PUSH2 0x45B7 JUMP JUMPDEST PUSH1 0x20 MUL PUSH1 0x20 ADD ADD DUP2 SWAP1 MSTORE POP DUP5 DUP1 PUSH2 0x30C0 SWAP1 PUSH2 0x4379 JUMP JUMPDEST SWAP6 POP POP JUMPDEST POP POP POP JUMPDEST DUP1 PUSH2 0x30D2 DUP2 PUSH2 0x4379 JUMP JUMPDEST SWAP2 POP POP PUSH2 0x301E JUMP JUMPDEST POP DUP3 DUP2 LT ISZERO PUSH2 0x2B50 JUMPI PUSH1 0x0 DUP2 PUSH1 0x1 PUSH1 0x1 PUSH1 0x40 SHL SUB DUP2 GT ISZERO PUSH2 0x30FD JUMPI PUSH2 0x30FD PUSH2 0x3F1A JUMP JUMPDEST PUSH1 0x40 MLOAD SWAP1 DUP1 DUP3 MSTORE DUP1 PUSH1 0x20 MUL PUSH1 0x20 ADD DUP3 ADD PUSH1 0x40 MSTORE DUP1 ISZERO PUSH2 0x3136 JUMPI DUP2 PUSH1 0x20 ADD JUMPDEST PUSH2 0x3123 PUSH2 0x3D2A JUMP JUMPDEST DUP2 MSTORE PUSH1 0x20 ADD SWAP1 PUSH1 0x1 SWAP1 SUB SWAP1 DUP2 PUSH2 0x311B JUMPI SWAP1 POP JUMPDEST POP SWAP1 POP PUSH1 0x0 JUMPDEST DUP3 DUP2 LT ISZERO PUSH2 0x318E JUMPI DUP4 DUP2 DUP2 MLOAD DUP2 LT PUSH2 0x3156 JUMPI PUSH2 0x3156 PUSH2 0x45B7 JUMP JUMPDEST PUSH1 0x20 MUL PUSH1 0x20 ADD ADD MLOAD DUP3 DUP3 DUP2 MLOAD DUP2 LT PUSH2 0x3170 JUMPI PUSH2 0x3170 PUSH2 0x45B7 JUMP JUMPDEST PUSH1 0x20 MUL PUSH1 0x20 ADD ADD DUP2 SWAP1 MSTORE POP DUP1 DUP1 PUSH2 0x3186 SWAP1 PUSH2 0x4379 JUMP JUMPDEST SWAP2 POP POP PUSH2 0x313C JUMP JUMPDEST POP SWAP6 SWAP5 POP POP POP POP POP JUMP JUMPDEST PUSH2 0x31A0 PUSH2 0x3460 JUMP JUMPDEST PUSH1 0x18 DUP2 SWAP1 SSTORE PUSH1 0x6 SLOAD PUSH1 0x1 PUSH1 0x1 PUSH1 0xA0 SHL SUB AND PUSH1 0x1 PUSH1 0x1 PUSH1 0xA0 SHL SUB AND PUSH32 0x2948106994032AAF0DEB1741017D491A5B57160C8DCA62D074B7D0E8262C014E CALLER ADDRESS PUSH1 0x18 SLOAD PUSH1 0x40 MLOAD PUSH2 0xF08 SWAP4 SWAP3 SWAP2 SWAP1 PUSH2 0x433F JUMP JUMPDEST PUSH1 0x0 DUP1 PUSH2 0x31FB DUP4 PUSH2 0x224C JUMP JUMPDEST SWAP1 POP PUSH1 0x0 DUP1 JUMPDEST DUP3 DUP2 LT ISZERO PUSH2 0x2B50 JUMPI PUSH1 0x0 PUSH2 0x3215 DUP7 DUP4 PUSH2 0x10CB JUMP JUMPDEST PUSH1 0x0 DUP2 DUP2 MSTORE PUSH1 0xA PUSH1 0x20 MSTORE PUSH1 0x40 SWAP1 KECCAK256 SLOAD SWAP1 SWAP2 POP PUSH2 0x3231 SWAP1 DUP5 PUSH2 0x4480 JUMP JUMPDEST SWAP3 POP POP DUP1 DUP1 PUSH2 0x323F SWAP1 PUSH2 0x4379 JUMP JUMPDEST SWAP2 POP POP PUSH2 0x3201 JUMP JUMPDEST PUSH1 0x1 PUSH1 0x1 PUSH1 0xA0 SHL SUB SWAP2 DUP3 AND PUSH1 0x0 SWAP1 DUP2 MSTORE PUSH1 0x5 PUSH1 0x20 SWAP1 DUP2 MSTORE PUSH1 0x40 DUP1 DUP4 KECCAK256 SWAP4 SWAP1 SWAP5 AND DUP3 MSTORE SWAP2 SWAP1 SWAP2 MSTORE KECCAK256 SLOAD PUSH1 0xFF AND SWAP1 JUMP JUMPDEST PUSH1 0x0 PUSH2 0x3280 DUP3 PUSH2 0x3385 JUMP JUMPDEST PUSH2 0x329C JUMPI PUSH1 0x40 MLOAD PUSH3 0x461BCD PUSH1 0xE5 SHL DUP2 MSTORE PUSH1 0x4 ADD PUSH2 0xC0B SWAP1 PUSH2 0x43C9 JUMP JUMPDEST POP PUSH1 0x0 SWAP1 DUP2 MSTORE PUSH1 0xA PUSH1 0x20 MSTORE PUSH1 0x40 SWAP1 KECCAK256 SLOAD SWAP1 JUMP JUMPDEST PUSH2 0x32B7 PUSH2 0x3460 JUMP JUMPDEST PUSH1 0x14 DUP1 SLOAD PUSH1 0x1 PUSH1 0x1 PUSH1 0xA8 SHL SUB NOT AND PUSH1 0x1 PUSH1 0x1 PUSH1 0xA0 SHL SUB DUP1 DUP5 AND SWAP2 SWAP1 SWAP2 OR PUSH1 0x1 PUSH1 0xA0 SHL OR SWAP2 DUP3 SWAP1 SSTORE PUSH1 0x40 MLOAD SWAP2 AND SWAP1 ADDRESS SWAP1 PUSH32 0x2E4CC16C100F0B55E2DF82AB0B1A7E294AA9CBD01B48FBAF622683FBC0507A49 SWAP1 PUSH1 0x0 SWAP1 LOG3 POP JUMP JUMPDEST PUSH2 0x3317 PUSH2 0x3460 JUMP JUMPDEST PUSH1 0x1 PUSH1 0x1 PUSH1 0xA0 SHL SUB DUP2 AND PUSH2 0x337C JUMPI PUSH1 0x40 MLOAD PUSH3 0x461BCD PUSH1 0xE5 SHL DUP2 MSTORE PUSH1 0x20 PUSH1 0x4 DUP3 ADD MSTORE PUSH1 0x26 PUSH1 0x24 DUP3 ADD MSTORE PUSH32 0x4F776E61626C653A206E6577206F776E657220697320746865207A65726F2061 PUSH1 0x44 DUP3 ADD MSTORE PUSH6 0x646472657373 PUSH1 0xD0 SHL PUSH1 0x64 DUP3 ADD MSTORE PUSH1 0x84 ADD PUSH2 0xC0B JUMP JUMPDEST PUSH2 0x109E DUP2 PUSH2 0x37E8 JUMP JUMPDEST PUSH1 0x0 SWAP1 DUP2 MSTORE PUSH1 0x2 PUSH1 0x20 MSTORE PUSH1 0x40 SWAP1 KECCAK256 SLOAD PUSH1 0x1 PUSH1 0x1 PUSH1 0xA0 SHL SUB AND ISZERO ISZERO SWAP1 JUMP JUMPDEST PUSH2 0x33AB DUP2 PUSH2 0x3385 JUMP JUMPDEST PUSH2 0x109E JUMPI PUSH1 0x40 MLOAD PUSH3 0x461BCD PUSH1 0xE5 SHL DUP2 MSTORE PUSH1 0x20 PUSH1 0x4 DUP3 ADD MSTORE PUSH1 0x18 PUSH1 0x24 DUP3 ADD MSTORE PUSH24 0x115490CDCC8C4E881A5B9D985B1A59081D1BDAD95B881251 PUSH1 0x42 SHL PUSH1 0x44 DUP3 ADD MSTORE PUSH1 0x64 ADD PUSH2 0xC0B JUMP JUMPDEST PUSH1 0x0 DUP2 DUP2 MSTORE PUSH1 0x4 PUSH1 0x20 MSTORE PUSH1 0x40 SWAP1 KECCAK256 DUP1 SLOAD PUSH1 0x1 PUSH1 0x1 PUSH1 0xA0 SHL SUB NOT AND PUSH1 0x1 PUSH1 0x1 PUSH1 0xA0 SHL SUB DUP5 AND SWAP1 DUP2 OR SWAP1 SWAP2 SSTORE DUP2 SWAP1 PUSH2 0x3427 DUP3 PUSH2 0x1A48 JUMP JUMPDEST PUSH1 0x1 PUSH1 0x1 PUSH1 0xA0 SHL SUB AND PUSH32 0x8C5BE1E5EBEC7D5BD14F71427D1E84F3DD0314C0F7B2291E5B200AC8C7C3B925 PUSH1 0x40 MLOAD PUSH1 0x40 MLOAD DUP1 SWAP2 SUB SWAP1 LOG4 POP POP JUMP JUMPDEST PUSH1 0x6 SLOAD PUSH1 0x1 PUSH1 0x1 PUSH1 0xA0 SHL SUB AND CALLER EQ PUSH2 0x1348 JUMPI PUSH1 0x40 MLOAD PUSH3 0x461BCD PUSH1 0xE5 SHL DUP2 MSTORE PUSH1 0x20 PUSH1 0x4 DUP3 ADD DUP2 SWAP1 MSTORE PUSH1 0x24 DUP3 ADD MSTORE PUSH32 0x4F776E61626C653A2063616C6C6572206973206E6F7420746865206F776E6572 PUSH1 0x44 DUP3 ADD MSTORE PUSH1 0x64 ADD PUSH2 0xC0B JUMP JUMPDEST PUSH2 0x34C4 CALLER DUP3 PUSH2 0x39E3 JUMP JUMPDEST PUSH2 0x34E0 JUMPI PUSH1 0x40 MLOAD PUSH3 0x461BCD PUSH1 0xE5 SHL DUP2 MSTORE PUSH1 0x4 ADD PUSH2 0xC0B SWAP1 PUSH2 0x46AA JUMP JUMPDEST PUSH2 0xE4D DUP4 DUP4 DUP4 PUSH2 0x3A42 JUMP JUMPDEST PUSH1 0x2 PUSH1 0x7 SLOAD SUB PUSH2 0x353D JUMPI PUSH1 0x40 MLOAD PUSH3 0x461BCD PUSH1 0xE5 SHL DUP2 MSTORE PUSH1 0x20 PUSH1 0x4 DUP3 ADD MSTORE PUSH1 0x1F PUSH1 0x24 DUP3 ADD MSTORE PUSH32 0x5265656E7472616E637947756172643A207265656E7472616E742063616C6C00 PUSH1 0x44 DUP3 ADD MSTORE PUSH1 0x64 ADD PUSH2 0xC0B JUMP JUMPDEST PUSH1 0x2 PUSH1 0x7 SSTORE JUMP JUMPDEST PUSH2 0x354C PUSH2 0x3BA6 JUMP JUMPDEST PUSH1 0x6 DUP1 SLOAD PUSH1 0xFF PUSH1 0xA0 SHL NOT AND SWAP1 SSTORE PUSH32 0x5DB9EE0A495BF2E6FF9C91A7834C1BA4FDD244A5E8AA4E537BD38AEAE4B073AA CALLER JUMPDEST PUSH1 0x40 MLOAD PUSH1 0x1 PUSH1 0x1 PUSH1 0xA0 SHL SUB SWAP1 SWAP2 AND DUP2 MSTORE PUSH1 0x20 ADD PUSH1 0x40 MLOAD DUP1 SWAP2 SUB SWAP1 LOG1 JUMP JUMPDEST PUSH1 0x6 SLOAD PUSH1 0x1 PUSH1 0xA0 SHL SWAP1 DIV PUSH1 0xFF AND ISZERO PUSH2 0x1348 JUMPI PUSH1 0x40 MLOAD PUSH3 0x461BCD PUSH1 0xE5 SHL DUP2 MSTORE PUSH1 0x20 PUSH1 0x4 DUP3 ADD MSTORE PUSH1 0x10 PUSH1 0x24 DUP3 ADD MSTORE PUSH16 0x14185D5CD8589B194E881C185D5CD959 PUSH1 0x82 SHL PUSH1 0x44 DUP3 ADD MSTORE PUSH1 0x64 ADD PUSH2 0xC0B JUMP JUMPDEST PUSH1 0x1 PUSH1 0x1 PUSH1 0xA0 SHL SUB DUP3 AND PUSH2 0x363C JUMPI PUSH1 0x40 MLOAD PUSH3 0x461BCD PUSH1 0xE5 SHL DUP2 MSTORE PUSH1 0x20 PUSH1 0x4 DUP3 ADD DUP2 SWAP1 MSTORE PUSH1 0x24 DUP3 ADD MSTORE PUSH32 0x4552433732313A206D696E7420746F20746865207A65726F2061646472657373 PUSH1 0x44 DUP3 ADD MSTORE PUSH1 0x64 ADD PUSH2 0xC0B JUMP JUMPDEST PUSH2 0x3645 DUP2 PUSH2 0x3385 JUMP JUMPDEST ISZERO PUSH2 0x3692 JUMPI PUSH1 0x40 MLOAD PUSH3 0x461BCD PUSH1 0xE5 SHL DUP2 MSTORE PUSH1 0x20 PUSH1 0x4 DUP3 ADD MSTORE PUSH1 0x1C PUSH1 0x24 DUP3 ADD MSTORE PUSH32 0x4552433732313A20746F6B656E20616C7265616479206D696E74656400000000 PUSH1 0x44 DUP3 ADD MSTORE PUSH1 0x64 ADD PUSH2 0xC0B JUMP JUMPDEST PUSH2 0x369B DUP2 PUSH2 0x3385 JUMP JUMPDEST ISZERO PUSH2 0x36E8 JUMPI PUSH1 0x40 MLOAD PUSH3 0x461BCD PUSH1 0xE5 SHL DUP2 MSTORE PUSH1 0x20 PUSH1 0x4 DUP3 ADD MSTORE PUSH1 0x1C PUSH1 0x24 DUP3 ADD MSTORE PUSH32 0x4552433732313A20746F6B656E20616C7265616479206D696E74656400000000 PUSH1 0x44 DUP3 ADD MSTORE PUSH1 0x64 ADD PUSH2 0xC0B JUMP JUMPDEST PUSH1 0x1 PUSH1 0x1 PUSH1 0xA0 SHL SUB DUP3 AND PUSH1 0x0 DUP2 DUP2 MSTORE PUSH1 0x3 PUSH1 0x20 SWAP1 DUP2 MSTORE PUSH1 0x40 DUP1 DUP4 KECCAK256 DUP1 SLOAD PUSH1 0x1 ADD SWAP1 SSTORE DUP5 DUP4 MSTORE PUSH1 0x2 SWAP1 SWAP2 MSTORE DUP1 DUP3 KECCAK256 DUP1 SLOAD PUSH1 0x1 PUSH1 0x1 PUSH1 0xA0 SHL SUB NOT AND DUP5 OR SWAP1 SSTORE MLOAD DUP4 SWAP3 SWAP2 SWAP1 PUSH32 0xDDF252AD1BE2C89B69C2B068FC378DAA952BA7F163C4A11628F55A4DF523B3EF SWAP1 DUP3 SWAP1 LOG4 POP POP JUMP JUMPDEST PUSH1 0x0 PUSH2 0x375E DUP3 PUSH2 0x1A48 JUMP JUMPDEST SWAP1 POP PUSH2 0x3769 DUP3 PUSH2 0x1A48 JUMP JUMPDEST PUSH1 0x0 DUP4 DUP2 MSTORE PUSH1 0x4 PUSH1 0x20 SWAP1 DUP2 MSTORE PUSH1 0x40 DUP1 DUP4 KECCAK256 DUP1 SLOAD PUSH1 0x1 PUSH1 0x1 PUSH1 0xA0 SHL SUB NOT SWAP1 DUP2 AND SWAP1 SWAP2 SSTORE PUSH1 0x1 PUSH1 0x1 PUSH1 0xA0 SHL SUB DUP6 AND DUP1 DUP6 MSTORE PUSH1 0x3 DUP5 MSTORE DUP3 DUP6 KECCAK256 DUP1 SLOAD PUSH1 0x0 NOT ADD SWAP1 SSTORE DUP8 DUP6 MSTORE PUSH1 0x2 SWAP1 SWAP4 MSTORE DUP2 DUP5 KECCAK256 DUP1 SLOAD SWAP1 SWAP2 AND SWAP1 SSTORE MLOAD SWAP3 SWAP4 POP DUP5 SWAP3 PUSH32 0xDDF252AD1BE2C89B69C2B068FC378DAA952BA7F163C4A11628F55A4DF523B3EF SWAP1 DUP4 SWAP1 LOG4 POP POP JUMP JUMPDEST PUSH1 0x6 DUP1 SLOAD PUSH1 0x1 PUSH1 0x1 PUSH1 0xA0 SHL SUB DUP4 DUP2 AND PUSH1 0x1 PUSH1 0x1 PUSH1 0xA0 SHL SUB NOT DUP4 AND DUP2 OR SWAP1 SWAP4 SSTORE PUSH1 0x40 MLOAD SWAP2 AND SWAP2 SWAP1 DUP3 SWAP1 PUSH32 0x8BE0079C531659141344CD1FD0A4F28419497F9722A3DAAFE3B4186F6B6457E0 SWAP1 PUSH1 0x0 SWAP1 LOG3 POP POP JUMP JUMPDEST PUSH2 0x3842 PUSH2 0x3599 JUMP JUMPDEST PUSH1 0x6 DUP1 SLOAD PUSH1 0xFF PUSH1 0xA0 SHL NOT AND PUSH1 0x1 PUSH1 0xA0 SHL OR SWAP1 SSTORE PUSH32 0x62E78CEA01BEE320CD4E420270B5EA74000D11B0C9F74754EBDBFC544B05A258 PUSH2 0x357C CALLER SWAP1 JUMP JUMPDEST DUP2 PUSH1 0x1 PUSH1 0x1 PUSH1 0xA0 SHL SUB AND DUP4 PUSH1 0x1 PUSH1 0x1 PUSH1 0xA0 SHL SUB AND SUB PUSH2 0x38DE JUMPI PUSH1 0x40 MLOAD PUSH3 0x461BCD PUSH1 0xE5 SHL DUP2 MSTORE PUSH1 0x20 PUSH1 0x4 DUP3 ADD MSTORE PUSH1 0x19 PUSH1 0x24 DUP3 ADD MSTORE PUSH32 0x4552433732313A20617070726F766520746F2063616C6C657200000000000000 PUSH1 0x44 DUP3 ADD MSTORE PUSH1 0x64 ADD PUSH2 0xC0B JUMP JUMPDEST PUSH1 0x1 PUSH1 0x1 PUSH1 0xA0 SHL SUB DUP4 DUP2 AND PUSH1 0x0 DUP2 DUP2 MSTORE PUSH1 0x5 PUSH1 0x20 SWAP1 DUP2 MSTORE PUSH1 0x40 DUP1 DUP4 KECCAK256 SWAP5 DUP8 AND DUP1 DUP5 MSTORE SWAP5 DUP3 MSTORE SWAP2 DUP3 SWAP1 KECCAK256 DUP1 SLOAD PUSH1 0xFF NOT AND DUP7 ISZERO ISZERO SWAP1 DUP2 OR SWAP1 SWAP2 SSTORE SWAP2 MLOAD SWAP2 DUP3 MSTORE PUSH32 0x17307EAB39AB6107E8899845AD3D59BD9653F200F220920489CA2B5937696C31 SWAP2 ADD PUSH2 0x29A6 JUMP JUMPDEST PUSH2 0x394D CALLER DUP4 PUSH2 0x39E3 JUMP JUMPDEST PUSH2 0x3969 JUMPI PUSH1 0x40 MLOAD PUSH3 0x461BCD PUSH1 0xE5 SHL DUP2 MSTORE PUSH1 0x4 ADD PUSH2 0xC0B SWAP1 PUSH2 0x46AA JUMP JUMPDEST PUSH2 0x2CEB DUP5 DUP5 DUP5 DUP5 PUSH2 0x3BF6 JUMP JUMPDEST PUSH1 0x0 DUP1 DUP1 PUSH2 0x3982 PUSH1 0x8 SLOAD SWAP1 JUMP JUMPDEST SWAP1 POP PUSH1 0x1 JUMPDEST DUP2 DUP2 GT PUSH2 0x2D47 JUMPI PUSH2 0x3997 DUP2 PUSH2 0x3385 JUMP JUMPDEST DUP1 ISZERO PUSH2 0x39B0 JUMPI POP PUSH1 0x0 DUP2 DUP2 MSTORE PUSH1 0xC PUSH1 0x20 MSTORE PUSH1 0x40 SWAP1 KECCAK256 SLOAD DUP6 EQ JUMPDEST ISZERO PUSH2 0x39D1 JUMPI PUSH1 0x0 DUP2 DUP2 MSTORE PUSH1 0xA PUSH1 0x20 MSTORE PUSH1 0x40 SWAP1 KECCAK256 SLOAD PUSH2 0x39CE SWAP1 DUP5 PUSH2 0x4480 JUMP JUMPDEST SWAP3 POP JUMPDEST DUP1 PUSH2 0x39DB DUP2 PUSH2 0x4379 JUMP JUMPDEST SWAP2 POP POP PUSH2 0x3987 JUMP JUMPDEST PUSH1 0x0 DUP1 PUSH2 0x39EF DUP4 PUSH2 0x1A48 JUMP JUMPDEST SWAP1 POP DUP1 PUSH1 0x1 PUSH1 0x1 PUSH1 0xA0 SHL SUB AND DUP5 PUSH1 0x1 PUSH1 0x1 PUSH1 0xA0 SHL SUB AND EQ DUP1 PUSH2 0x3A16 JUMPI POP PUSH2 0x3A16 DUP2 DUP6 PUSH2 0x3247 JUMP JUMPDEST DUP1 PUSH2 0x3A3A JUMPI POP DUP4 PUSH1 0x1 PUSH1 0x1 PUSH1 0xA0 SHL SUB AND PUSH2 0x3A2F DUP5 PUSH2 0xD16 JUMP JUMPDEST PUSH1 0x1 PUSH1 0x1 PUSH1 0xA0 SHL SUB AND EQ JUMPDEST SWAP5 SWAP4 POP POP POP POP JUMP JUMPDEST DUP3 PUSH1 0x1 PUSH1 0x1 PUSH1 0xA0 SHL SUB AND PUSH2 0x3A55 DUP3 PUSH2 0x1A48 JUMP JUMPDEST PUSH1 0x1 PUSH1 0x1 PUSH1 0xA0 SHL SUB AND EQ PUSH2 0x3A7B JUMPI PUSH1 0x40 MLOAD PUSH3 0x461BCD PUSH1 0xE5 SHL DUP2 MSTORE PUSH1 0x4 ADD PUSH2 0xC0B SWAP1 PUSH2 0x46F7 JUMP JUMPDEST PUSH1 0x1 PUSH1 0x1 PUSH1 0xA0 SHL SUB DUP3 AND PUSH2 0x3ADD JUMPI PUSH1 0x40 MLOAD PUSH3 0x461BCD PUSH1 0xE5 SHL DUP2 MSTORE PUSH1 0x20 PUSH1 0x4 DUP3 ADD MSTORE PUSH1 0x24 DUP1 DUP3 ADD MSTORE PUSH32 0x4552433732313A207472616E7366657220746F20746865207A65726F20616464 PUSH1 0x44 DUP3 ADD MSTORE PUSH4 0x72657373 PUSH1 0xE0 SHL PUSH1 0x64 DUP3 ADD MSTORE PUSH1 0x84 ADD PUSH2 0xC0B JUMP JUMPDEST DUP3 PUSH1 0x1 PUSH1 0x1 PUSH1 0xA0 SHL SUB AND PUSH2 0x3AF0 DUP3 PUSH2 0x1A48 JUMP JUMPDEST PUSH1 0x1 PUSH1 0x1 PUSH1 0xA0 SHL SUB AND EQ PUSH2 0x3B16 JUMPI PUSH1 0x40 MLOAD PUSH3 0x461BCD PUSH1 0xE5 SHL DUP2 MSTORE PUSH1 0x4 ADD PUSH2 0xC0B SWAP1 PUSH2 0x46F7 JUMP JUMPDEST PUSH1 0x0 DUP2 DUP2 MSTORE PUSH1 0x4 PUSH1 0x20 SWAP1 DUP2 MSTORE PUSH1 0x40 DUP1 DUP4 KECCAK256 DUP1 SLOAD PUSH1 0x1 PUSH1 0x1 PUSH1 0xA0 SHL SUB NOT SWAP1 DUP2 AND SWAP1 SWAP2 SSTORE PUSH1 0x1 PUSH1 0x1 PUSH1 0xA0 SHL SUB DUP8 DUP2 AND DUP1 DUP7 MSTORE PUSH1 0x3 DUP6 MSTORE DUP4 DUP7 KECCAK256 DUP1 SLOAD PUSH1 0x0 NOT ADD SWAP1 SSTORE SWAP1 DUP8 AND DUP1 DUP7 MSTORE DUP4 DUP7 KECCAK256 DUP1 SLOAD PUSH1 0x1 ADD SWAP1 SSTORE DUP7 DUP7 MSTORE PUSH1 0x2 SWAP1 SWAP5 MSTORE DUP3 DUP6 KECCAK256 DUP1 SLOAD SWAP1 SWAP3 AND DUP5 OR SWAP1 SWAP2 SSTORE SWAP1 MLOAD DUP5 SWAP4 PUSH32 0xDDF252AD1BE2C89B69C2B068FC378DAA952BA7F163C4A11628F55A4DF523B3EF SWAP2 LOG4 POP POP POP JUMP JUMPDEST PUSH1 0x6 SLOAD PUSH1 0x1 PUSH1 0xA0 SHL SWAP1 DIV PUSH1 0xFF AND PUSH2 0x1348 JUMPI PUSH1 0x40 MLOAD PUSH3 0x461BCD PUSH1 0xE5 SHL DUP2 MSTORE PUSH1 0x20 PUSH1 0x4 DUP3 ADD MSTORE PUSH1 0x14 PUSH1 0x24 DUP3 ADD MSTORE PUSH20 0x14185D5CD8589B194E881B9BDD081C185D5CD959 PUSH1 0x62 SHL PUSH1 0x44 DUP3 ADD MSTORE PUSH1 0x64 ADD PUSH2 0xC0B JUMP JUMPDEST PUSH2 0x3C01 DUP5 DUP5 DUP5 PUSH2 0x3A42 JUMP JUMPDEST PUSH2 0x3C0D DUP5 DUP5 DUP5 DUP5 PUSH2 0x3C29 JUMP JUMPDEST PUSH2 0x2CEB JUMPI PUSH1 0x40 MLOAD PUSH3 0x461BCD PUSH1 0xE5 SHL DUP2 MSTORE PUSH1 0x4 ADD PUSH2 0xC0B SWAP1 PUSH2 0x473C JUMP JUMPDEST PUSH1 0x0 PUSH1 0x1 PUSH1 0x1 PUSH1 0xA0 SHL SUB DUP5 AND EXTCODESIZE ISZERO PUSH2 0x3D1F JUMPI PUSH1 0x40 MLOAD PUSH4 0xA85BD01 PUSH1 0xE1 SHL DUP2 MSTORE PUSH1 0x1 PUSH1 0x1 PUSH1 0xA0 SHL SUB DUP6 AND SWAP1 PUSH4 0x150B7A02 SWAP1 PUSH2 0x3C6D SWAP1 CALLER SWAP1 DUP10 SWAP1 DUP9 SWAP1 DUP9 SWAP1 PUSH1 0x4 ADD PUSH2 0x478E JUMP JUMPDEST PUSH1 0x20 PUSH1 0x40 MLOAD DUP1 DUP4 SUB DUP2 PUSH1 0x0 DUP8 GAS CALL SWAP3 POP POP POP DUP1 ISZERO PUSH2 0x3CA8 JUMPI POP PUSH1 0x40 DUP1 MLOAD PUSH1 0x1F RETURNDATASIZE SWAP1 DUP2 ADD PUSH1 0x1F NOT AND DUP3 ADD SWAP1 SWAP3 MSTORE PUSH2 0x3CA5 SWAP2 DUP2 ADD SWAP1 PUSH2 0x47C1 JUMP JUMPDEST PUSH1 0x1 JUMPDEST PUSH2 0x3D05 JUMPI RETURNDATASIZE DUP1 DUP1 ISZERO PUSH2 0x3CD6 JUMPI PUSH1 0x40 MLOAD SWAP2 POP PUSH1 0x1F NOT PUSH1 0x3F RETURNDATASIZE ADD AND DUP3 ADD PUSH1 0x40 MSTORE RETURNDATASIZE DUP3 MSTORE RETURNDATASIZE PUSH1 0x0 PUSH1 0x20 DUP5 ADD RETURNDATACOPY PUSH2 0x3CDB JUMP JUMPDEST PUSH1 0x60 SWAP2 POP JUMPDEST POP DUP1 MLOAD PUSH1 0x0 SUB PUSH2 0x3CFD JUMPI PUSH1 0x40 MLOAD PUSH3 0x461BCD PUSH1 0xE5 SHL DUP2 MSTORE PUSH1 0x4 ADD PUSH2 0xC0B SWAP1 PUSH2 0x473C JUMP JUMPDEST DUP1 MLOAD DUP2 PUSH1 0x20 ADD REVERT JUMPDEST PUSH1 0x1 PUSH1 0x1 PUSH1 0xE0 SHL SUB NOT AND PUSH4 0xA85BD01 PUSH1 0xE1 SHL EQ SWAP1 POP PUSH2 0x3A3A JUMP JUMPDEST POP PUSH1 0x1 SWAP5 SWAP4 POP POP POP POP JUMP JUMPDEST PUSH1 0x40 MLOAD DUP1 PUSH1 0xA0 ADD PUSH1 0x40 MSTORE DUP1 PUSH1 0x0 DUP2 MSTORE PUSH1 0x20 ADD PUSH1 0x0 DUP2 MSTORE PUSH1 0x20 ADD PUSH1 0x0 DUP2 MSTORE PUSH1 0x20 ADD PUSH1 0x0 PUSH1 0x1 PUSH1 0x1 PUSH1 0xA0 SHL SUB AND DUP2 MSTORE PUSH1 0x20 ADD PUSH1 0x0 ISZERO ISZERO DUP2 MSTORE POP SWAP1 JUMP JUMPDEST PUSH1 0x1 PUSH1 0x1 PUSH1 0xE0 SHL SUB NOT DUP2 AND DUP2 EQ PUSH2 0x109E JUMPI PUSH1 0x0 DUP1 REVERT JUMPDEST PUSH1 0x0 PUSH1 0x20 DUP3 DUP5 SUB SLT ISZERO PUSH2 0x3D8C JUMPI PUSH1 0x0 DUP1 REVERT JUMPDEST DUP2 CALLDATALOAD PUSH2 0x2A42 DUP2 PUSH2 0x3D64 JUMP JUMPDEST PUSH1 0x0 PUSH1 0x20 DUP3 DUP5 SUB SLT ISZERO PUSH2 0x3DA9 JUMPI PUSH1 0x0 DUP1 REVERT JUMPDEST POP CALLDATALOAD SWAP2 SWAP1 POP JUMP JUMPDEST DUP1 MLOAD DUP3 MSTORE PUSH1 0x20 DUP1 DUP3 ADD MLOAD SWAP1 DUP4 ADD MSTORE PUSH1 0x40 DUP1 DUP3 ADD MLOAD SWAP1 DUP4 ADD MSTORE PUSH1 0x60 DUP1 DUP3 ADD MLOAD PUSH1 0x1 PUSH1 0x1 PUSH1 0xA0 SHL SUB AND SWAP1 DUP4 ADD MSTORE PUSH1 0x80 SWAP1 DUP2 ADD MLOAD ISZERO ISZERO SWAP2 ADD MSTORE JUMP JUMPDEST PUSH1 0xA0 DUP2 ADD PUSH2 0xBAC DUP3 DUP5 PUSH2 0x3DB0 JUMP JUMPDEST PUSH1 0x0 JUMPDEST DUP4 DUP2 LT ISZERO PUSH2 0x3E11 JUMPI DUP2 DUP2 ADD MLOAD DUP4 DUP3 ADD MSTORE PUSH1 0x20 ADD PUSH2 0x3DF9 JUMP JUMPDEST POP POP PUSH1 0x0 SWAP2 ADD MSTORE JUMP JUMPDEST PUSH1 0x0 DUP2 MLOAD DUP1 DUP5 MSTORE PUSH2 0x3E32 DUP2 PUSH1 0x20 DUP7 ADD PUSH1 0x20 DUP7 ADD PUSH2 0x3DF6 JUMP JUMPDEST PUSH1 0x1F ADD PUSH1 0x1F NOT AND SWAP3 SWAP1 SWAP3 ADD PUSH1 0x20 ADD SWAP3 SWAP2 POP POP JUMP JUMPDEST PUSH1 0x20 DUP2 MSTORE PUSH1 0x0 PUSH2 0x2A42 PUSH1 0x20 DUP4 ADD DUP5 PUSH2 0x3E1A JUMP JUMPDEST PUSH1 0x1 PUSH1 0x1 PUSH1 0xA0 SHL SUB DUP2 AND DUP2 EQ PUSH2 0x109E JUMPI PUSH1 0x0 DUP1 REVERT JUMPDEST PUSH1 0x0 DUP1 PUSH1 0x40 DUP4 DUP6 SUB SLT ISZERO PUSH2 0x3E81 JUMPI PUSH1 0x0 DUP1 REVERT JUMPDEST DUP3 CALLDATALOAD PUSH2 0x3E8C DUP2 PUSH2 0x3E59 JUMP JUMPDEST SWAP5 PUSH1 0x20 SWAP4 SWAP1 SWAP4 ADD CALLDATALOAD SWAP4 POP POP POP JUMP JUMPDEST PUSH1 0x0 PUSH1 0x20 DUP3 DUP5 SUB SLT ISZERO PUSH2 0x3EAC JUMPI PUSH1 0x0 DUP1 REVERT JUMPDEST DUP2 CALLDATALOAD PUSH2 0x2A42 DUP2 PUSH2 0x3E59 JUMP JUMPDEST PUSH1 0x0 DUP1 PUSH1 0x0 PUSH1 0x60 DUP5 DUP7 SUB SLT ISZERO PUSH2 0x3ECC JUMPI PUSH1 0x0 DUP1 REVERT JUMPDEST DUP4 CALLDATALOAD PUSH2 0x3ED7 DUP2 PUSH2 0x3E59 JUMP JUMPDEST SWAP3 POP PUSH1 0x20 DUP5 ADD CALLDATALOAD PUSH2 0x3EE7 DUP2 PUSH2 0x3E59 JUMP JUMPDEST SWAP3 SWAP6 SWAP3 SWAP5 POP POP POP PUSH1 0x40 SWAP2 SWAP1 SWAP2 ADD CALLDATALOAD SWAP1 JUMP JUMPDEST PUSH1 0x0 DUP1 PUSH1 0x40 DUP4 DUP6 SUB SLT ISZERO PUSH2 0x3F0B JUMPI PUSH1 0x0 DUP1 REVERT JUMPDEST POP POP DUP1 CALLDATALOAD SWAP3 PUSH1 0x20 SWAP1 SWAP2 ADD CALLDATALOAD SWAP2 POP JUMP JUMPDEST PUSH4 0x4E487B71 PUSH1 0xE0 SHL PUSH1 0x0 MSTORE PUSH1 0x41 PUSH1 0x4 MSTORE PUSH1 0x24 PUSH1 0x0 REVERT JUMPDEST PUSH1 0x40 MLOAD PUSH1 0x1F DUP3 ADD PUSH1 0x1F NOT AND DUP2 ADD PUSH1 0x1 PUSH1 0x1 PUSH1 0x40 SHL SUB DUP2 GT DUP3 DUP3 LT OR ISZERO PUSH2 0x3F58 JUMPI PUSH2 0x3F58 PUSH2 0x3F1A JUMP JUMPDEST PUSH1 0x40 MSTORE SWAP2 SWAP1 POP JUMP JUMPDEST PUSH1 0x0 PUSH1 0x1 PUSH1 0x1 PUSH1 0x40 SHL SUB DUP4 GT ISZERO PUSH2 0x3F79 JUMPI PUSH2 0x3F79 PUSH2 0x3F1A JUMP JUMPDEST PUSH2 0x3F8C PUSH1 0x1F DUP5 ADD PUSH1 0x1F NOT AND PUSH1 0x20 ADD PUSH2 0x3F30 JUMP JUMPDEST SWAP1 POP DUP3 DUP2 MSTORE DUP4 DUP4 DUP4 ADD GT ISZERO PUSH2 0x3FA0 JUMPI PUSH1 0x0 DUP1 REVERT JUMPDEST DUP3 DUP3 PUSH1 0x20 DUP4 ADD CALLDATACOPY PUSH1 0x0 PUSH1 0x20 DUP5 DUP4 ADD ADD MSTORE SWAP4 SWAP3 POP POP POP JUMP JUMPDEST PUSH1 0x0 DUP3 PUSH1 0x1F DUP4 ADD SLT PUSH2 0x3FC8 JUMPI PUSH1 0x0 DUP1 REVERT JUMPDEST PUSH2 0x2A42 DUP4 DUP4 CALLDATALOAD PUSH1 0x20 DUP6 ADD PUSH2 0x3F60 JUMP JUMPDEST PUSH1 0x0 PUSH1 0x20 DUP3 DUP5 SUB SLT ISZERO PUSH2 0x3FE9 JUMPI PUSH1 0x0 DUP1 REVERT JUMPDEST DUP2 CALLDATALOAD PUSH1 0x1 PUSH1 0x1 PUSH1 0x40 SHL SUB DUP2 GT ISZERO PUSH2 0x3FFF JUMPI PUSH1 0x0 DUP1 REVERT JUMPDEST PUSH2 0x3A3A DUP5 DUP3 DUP6 ADD PUSH2 0x3FB7 JUMP JUMPDEST PUSH1 0x20 DUP1 DUP3 MSTORE DUP3 MLOAD DUP3 DUP3 ADD DUP2 SWAP1 MSTORE PUSH1 0x0 SWAP2 SWAP1 DUP5 DUP3 ADD SWAP1 PUSH1 0x40 DUP6 ADD SWAP1 DUP5 JUMPDEST DUP2 DUP2 LT ISZERO PUSH2 0x404D JUMPI PUSH2 0x403A DUP4 DUP6 MLOAD PUSH2 0x3DB0 JUMP JUMPDEST SWAP3 DUP5 ADD SWAP3 PUSH1 0xA0 SWAP3 SWAP1 SWAP3 ADD SWAP2 PUSH1 0x1 ADD PUSH2 0x4027 JUMP JUMPDEST POP SWAP1 SWAP7 SWAP6 POP POP POP POP POP POP JUMP JUMPDEST PUSH1 0x0 DUP3 PUSH1 0x1F DUP4 ADD SLT PUSH2 0x406A JUMPI PUSH1 0x0 DUP1 REVERT JUMPDEST DUP2 CALLDATALOAD PUSH1 0x20 PUSH1 0x1 PUSH1 0x1 PUSH1 0x40 SHL SUB DUP3 GT ISZERO PUSH2 0x4085 JUMPI PUSH2 0x4085 PUSH2 0x3F1A JUMP JUMPDEST DUP2 PUSH1 0x5 SHL PUSH2 0x4094 DUP3 DUP3 ADD PUSH2 0x3F30 JUMP JUMPDEST SWAP3 DUP4 MSTORE DUP5 DUP2 ADD DUP3 ADD SWAP3 DUP3 DUP2 ADD SWAP1 DUP8 DUP6 GT ISZERO PUSH2 0x40AE JUMPI PUSH1 0x0 DUP1 REVERT JUMPDEST DUP4 DUP8 ADD SWAP3 POP JUMPDEST DUP5 DUP4 LT ISZERO PUSH2 0x40CD JUMPI DUP3 CALLDATALOAD DUP3 MSTORE SWAP2 DUP4 ADD SWAP2 SWAP1 DUP4 ADD SWAP1 PUSH2 0x40B4 JUMP JUMPDEST SWAP8 SWAP7 POP POP POP POP POP POP POP JUMP JUMPDEST PUSH1 0x0 DUP1 PUSH1 0x0 PUSH1 0x60 DUP5 DUP7 SUB SLT ISZERO PUSH2 0x40ED JUMPI PUSH1 0x0 DUP1 REVERT JUMPDEST DUP4 CALLDATALOAD SWAP3 POP PUSH1 0x20 DUP5 ADD CALLDATALOAD PUSH1 0x1 PUSH1 0x1 PUSH1 0x40 SHL SUB DUP2 GT ISZERO PUSH2 0x410A JUMPI PUSH1 0x0 DUP1 REVERT JUMPDEST PUSH2 0x4116 DUP7 DUP3 DUP8 ADD PUSH2 0x4059 JUMP JUMPDEST SWAP3 POP POP PUSH1 0x40 DUP5 ADD CALLDATALOAD PUSH2 0x4127 DUP2 PUSH2 0x3E59 JUMP JUMPDEST DUP1 SWAP2 POP POP SWAP3 POP SWAP3 POP SWAP3 JUMP JUMPDEST PUSH1 0x0 DUP1 PUSH1 0x0 DUP1 PUSH1 0x80 DUP6 DUP8 SUB SLT ISZERO PUSH2 0x4148 JUMPI PUSH1 0x0 DUP1 REVERT JUMPDEST DUP5 CALLDATALOAD SWAP4 POP PUSH1 0x20 DUP6 ADD CALLDATALOAD SWAP3 POP PUSH1 0x40 DUP6 ADD CALLDATALOAD PUSH2 0x4161 DUP2 PUSH2 0x3E59 JUMP JUMPDEST SWAP4 SWAP7 SWAP3 SWAP6 POP SWAP3 SWAP4 PUSH1 0x60 ADD CALLDATALOAD SWAP3 POP POP JUMP JUMPDEST PUSH1 0x0 DUP1 PUSH1 0x40 DUP4 DUP6 SUB SLT ISZERO PUSH2 0x4184 JUMPI PUSH1 0x0 DUP1 REVERT JUMPDEST DUP3 CALLDATALOAD SWAP2 POP PUSH1 0x20 DUP4 ADD CALLDATALOAD PUSH2 0x4196 DUP2 PUSH2 0x3E59 JUMP JUMPDEST DUP1 SWAP2 POP POP SWAP3 POP SWAP3 SWAP1 POP JUMP JUMPDEST PUSH1 0x0 DUP1 PUSH1 0x40 DUP4 DUP6 SUB SLT ISZERO PUSH2 0x41B4 JUMPI PUSH1 0x0 DUP1 REVERT JUMPDEST DUP3 CALLDATALOAD PUSH1 0x1 PUSH1 0x1 PUSH1 0x40 SHL SUB DUP2 GT ISZERO PUSH2 0x41CA JUMPI PUSH1 0x0 DUP1 REVERT JUMPDEST PUSH2 0x41D6 DUP6 DUP3 DUP7 ADD PUSH2 0x4059 JUMP JUMPDEST SWAP6 PUSH1 0x20 SWAP5 SWAP1 SWAP5 ADD CALLDATALOAD SWAP5 POP POP POP POP JUMP JUMPDEST PUSH1 0x0 DUP1 PUSH1 0x40 DUP4 DUP6 SUB SLT ISZERO PUSH2 0x41F8 JUMPI PUSH1 0x0 DUP1 REVERT JUMPDEST DUP3 CALLDATALOAD PUSH2 0x4203 DUP2 PUSH2 0x3E59 JUMP JUMPDEST SWAP2 POP PUSH1 0x20 DUP4 ADD CALLDATALOAD DUP1 ISZERO ISZERO DUP2 EQ PUSH2 0x4196 JUMPI PUSH1 0x0 DUP1 REVERT JUMPDEST PUSH1 0x0 DUP1 PUSH1 0x40 DUP4 DUP6 SUB SLT ISZERO PUSH2 0x422B JUMPI PUSH1 0x0 DUP1 REVERT JUMPDEST DUP3 CALLDATALOAD SWAP2 POP PUSH1 0x20 DUP4 ADD CALLDATALOAD PUSH1 0x1 PUSH1 0x1 PUSH1 0x40 SHL SUB DUP2 GT ISZERO PUSH2 0x4248 JUMPI PUSH1 0x0 DUP1 REVERT JUMPDEST PUSH2 0x4254 DUP6 DUP3 DUP7 ADD PUSH2 0x3FB7 JUMP JUMPDEST SWAP2 POP POP SWAP3 POP SWAP3 SWAP1 POP JUMP JUMPDEST PUSH1 0x0 DUP1 PUSH1 0x0 DUP1 PUSH1 0x80 DUP6 DUP8 SUB SLT ISZERO PUSH2 0x4274 JUMPI PUSH1 0x0 DUP1 REVERT JUMPDEST DUP5 CALLDATALOAD PUSH2 0x427F DUP2 PUSH2 0x3E59 JUMP JUMPDEST SWAP4 POP PUSH1 0x20 DUP6 ADD CALLDATALOAD PUSH2 0x428F DUP2 PUSH2 0x3E59 JUMP JUMPDEST SWAP3 POP PUSH1 0x40 DUP6 ADD CALLDATALOAD SWAP2 POP PUSH1 0x60 DUP6 ADD CALLDATALOAD PUSH1 0x1 PUSH1 0x1 PUSH1 0x40 SHL SUB DUP2 GT ISZERO PUSH2 0x42B1 JUMPI PUSH1 0x0 DUP1 REVERT JUMPDEST DUP6 ADD PUSH1 0x1F DUP2 ADD DUP8 SGT PUSH2 0x42C2 JUMPI PUSH1 0x0 DUP1 REVERT JUMPDEST PUSH2 0x42D1 DUP8 DUP3 CALLDATALOAD PUSH1 0x20 DUP5 ADD PUSH2 0x3F60 JUMP JUMPDEST SWAP2 POP POP SWAP3 SWAP6 SWAP2 SWAP5 POP SWAP3 POP JUMP JUMPDEST PUSH1 0x0 DUP1 PUSH1 0x40 DUP4 DUP6 SUB SLT ISZERO PUSH2 0x42F0 JUMPI PUSH1 0x0 DUP1 REVERT JUMPDEST DUP3 CALLDATALOAD PUSH2 0x42FB DUP2 PUSH2 0x3E59 JUMP JUMPDEST SWAP2 POP PUSH1 0x20 DUP4 ADD CALLDATALOAD PUSH2 0x4196 DUP2 PUSH2 0x3E59 JUMP JUMPDEST PUSH1 0x1 DUP2 DUP2 SHR SWAP1 DUP3 AND DUP1 PUSH2 0x431F JUMPI PUSH1 0x7F DUP3 AND SWAP2 POP JUMPDEST PUSH1 0x20 DUP3 LT DUP2 SUB PUSH2 0x2F33 JUMPI PUSH4 0x4E487B71 PUSH1 0xE0 SHL PUSH1 0x0 MSTORE PUSH1 0x22 PUSH1 0x4 MSTORE PUSH1 0x24 PUSH1 0x0 REVERT JUMPDEST PUSH1 0x1 PUSH1 0x1 PUSH1 0xA0 SHL SUB SWAP4 DUP5 AND DUP2 MSTORE SWAP2 SWAP1 SWAP3 AND PUSH1 0x20 DUP3 ADD MSTORE PUSH1 0x40 DUP2 ADD SWAP2 SWAP1 SWAP2 MSTORE PUSH1 0x60 ADD SWAP1 JUMP JUMPDEST PUSH4 0x4E487B71 PUSH1 0xE0 SHL PUSH1 0x0 MSTORE PUSH1 0x11 PUSH1 0x4 MSTORE PUSH1 0x24 PUSH1 0x0 REVERT JUMPDEST PUSH1 0x0 PUSH1 0x1 DUP3 ADD PUSH2 0x438B JUMPI PUSH2 0x438B PUSH2 0x4363 JUMP JUMPDEST POP PUSH1 0x1 ADD SWAP1 JUMP JUMPDEST PUSH1 0x20 DUP1 DUP3 MSTORE PUSH1 0x19 SWAP1 DUP3 ADD MSTORE PUSH32 0x46544F3A20546F6B656E20646F6573206E6F7420657869737400000000000000 PUSH1 0x40 DUP3 ADD MSTORE PUSH1 0x60 ADD SWAP1 JUMP JUMPDEST PUSH1 0x20 DUP1 DUP3 MSTORE PUSH1 0x19 SWAP1 DUP3 ADD MSTORE PUSH32 0x4654543A20546F6B656E20646F6573206E6F7420657869737400000000000000 PUSH1 0x40 DUP3 ADD MSTORE PUSH1 0x60 ADD SWAP1 JUMP JUMPDEST PUSH1 0x20 DUP1 DUP3 MSTORE PUSH1 0x22 SWAP1 DUP3 ADD MSTORE PUSH32 0x4654543A2053656E64657220646F6573206E6F74206F776E2074686520746F6B PUSH1 0x40 DUP3 ADD MSTORE PUSH2 0x32B7 PUSH1 0xF1 SHL PUSH1 0x60 DUP3 ADD MSTORE PUSH1 0x80 ADD SWAP1 JUMP JUMPDEST PUSH4 0x4E487B71 PUSH1 0xE0 SHL PUSH1 0x0 MSTORE PUSH1 0x12 PUSH1 0x4 MSTORE PUSH1 0x24 PUSH1 0x0 REVERT JUMPDEST PUSH1 0x0 DUP3 PUSH2 0x4467 JUMPI PUSH2 0x4467 PUSH2 0x4442 JUMP JUMPDEST POP MOD SWAP1 JUMP JUMPDEST PUSH1 0x0 DUP3 PUSH2 0x447B JUMPI PUSH2 0x447B PUSH2 0x4442 JUMP JUMPDEST POP DIV SWAP1 JUMP JUMPDEST DUP1 DUP3 ADD DUP1 DUP3 GT ISZERO PUSH2 0xBAC JUMPI PUSH2 0xBAC PUSH2 0x4363 JUMP JUMPDEST DUP1 DUP3 MUL DUP2 ISZERO DUP3 DUP3 DIV DUP5 EQ OR PUSH2 0xBAC JUMPI PUSH2 0xBAC PUSH2 0x4363 JUMP JUMPDEST PUSH1 0x1F DUP3 GT ISZERO PUSH2 0xE4D JUMPI PUSH1 0x0 DUP2 DUP2 MSTORE PUSH1 0x20 DUP2 KECCAK256 PUSH1 0x1F DUP6 ADD PUSH1 0x5 SHR DUP2 ADD PUSH1 0x20 DUP7 LT ISZERO PUSH2 0x44D1 JUMPI POP DUP1 JUMPDEST PUSH1 0x1F DUP6 ADD PUSH1 0x5 SHR DUP3 ADD SWAP2 POP JUMPDEST DUP2 DUP2 LT ISZERO PUSH2 0x44F0 JUMPI DUP3 DUP2 SSTORE PUSH1 0x1 ADD PUSH2 0x44DD JUMP JUMPDEST POP POP POP POP POP POP JUMP JUMPDEST DUP2 MLOAD PUSH1 0x1 PUSH1 0x1 PUSH1 0x40 SHL SUB DUP2 GT ISZERO PUSH2 0x4511 JUMPI PUSH2 0x4511 PUSH2 0x3F1A JUMP JUMPDEST PUSH2 0x4525 DUP2 PUSH2 0x451F DUP5 SLOAD PUSH2 0x430B JUMP JUMPDEST DUP5 PUSH2 0x44AA JUMP JUMPDEST PUSH1 0x20 DUP1 PUSH1 0x1F DUP4 GT PUSH1 0x1 DUP2 EQ PUSH2 0x455A JUMPI PUSH1 0x0 DUP5 ISZERO PUSH2 0x4542 JUMPI POP DUP6 DUP4 ADD MLOAD JUMPDEST PUSH1 0x0 NOT PUSH1 0x3 DUP7 SWAP1 SHL SHR NOT AND PUSH1 0x1 DUP6 SWAP1 SHL OR DUP6 SSTORE PUSH2 0x44F0 JUMP JUMPDEST PUSH1 0x0 DUP6 DUP2 MSTORE PUSH1 0x20 DUP2 KECCAK256 PUSH1 0x1F NOT DUP7 AND SWAP2 JUMPDEST DUP3 DUP2 LT ISZERO PUSH2 0x4589 JUMPI DUP9 DUP7 ADD MLOAD DUP3 SSTORE SWAP5 DUP5 ADD SWAP5 PUSH1 0x1 SWAP1 SWAP2 ADD SWAP1 DUP5 ADD PUSH2 0x456A JUMP JUMPDEST POP DUP6 DUP3 LT ISZERO PUSH2 0x45A7 JUMPI DUP8 DUP6 ADD MLOAD PUSH1 0x0 NOT PUSH1 0x3 DUP9 SWAP1 SHL PUSH1 0xF8 AND SHR NOT AND DUP2 SSTORE JUMPDEST POP POP POP POP POP PUSH1 0x1 SWAP1 DUP2 SHL ADD SWAP1 SSTORE POP JUMP JUMPDEST PUSH4 0x4E487B71 PUSH1 0xE0 SHL PUSH1 0x0 MSTORE PUSH1 0x32 PUSH1 0x4 MSTORE PUSH1 0x24 PUSH1 0x0 REVERT JUMPDEST PUSH1 0x0 PUSH1 0x20 DUP3 DUP5 SUB SLT ISZERO PUSH2 0x45DF JUMPI PUSH1 0x0 DUP1 REVERT JUMPDEST POP MLOAD SWAP2 SWAP1 POP JUMP JUMPDEST DUP2 DUP2 SUB DUP2 DUP2 GT ISZERO PUSH2 0xBAC JUMPI PUSH2 0xBAC PUSH2 0x4363 JUMP JUMPDEST PUSH1 0x20 DUP1 DUP3 MSTORE PUSH1 0x29 SWAP1 DUP3 ADD MSTORE PUSH32 0x4654543A204578636565647320617661696C61626C65207472656520636F756E PUSH1 0x40 DUP3 ADD MSTORE PUSH9 0x7420666F722046544F PUSH1 0xB8 SHL PUSH1 0x60 DUP3 ADD MSTORE PUSH1 0x80 ADD SWAP1 JUMP JUMPDEST DUP6 DUP2 MSTORE PUSH1 0x1 PUSH1 0x1 PUSH1 0xA0 SHL SUB DUP6 DUP2 AND PUSH1 0x20 DUP4 ADD MSTORE DUP5 AND PUSH1 0x40 DUP3 ADD MSTORE PUSH1 0x60 DUP2 ADD DUP4 SWAP1 MSTORE PUSH1 0xA0 PUSH1 0x80 DUP3 ADD DUP2 SWAP1 MSTORE PUSH1 0x0 SWAP1 PUSH2 0x40CD SWAP1 DUP4 ADD DUP5 PUSH2 0x3E1A JUMP JUMPDEST PUSH1 0x0 DUP4 MLOAD PUSH2 0x468D DUP2 DUP5 PUSH1 0x20 DUP9 ADD PUSH2 0x3DF6 JUMP JUMPDEST DUP4 MLOAD SWAP1 DUP4 ADD SWAP1 PUSH2 0x46A1 DUP2 DUP4 PUSH1 0x20 DUP9 ADD PUSH2 0x3DF6 JUMP JUMPDEST ADD SWAP5 SWAP4 POP POP POP POP JUMP JUMPDEST PUSH1 0x20 DUP1 DUP3 MSTORE PUSH1 0x2D SWAP1 DUP3 ADD MSTORE PUSH32 0x4552433732313A2063616C6C6572206973206E6F7420746F6B656E206F776E65 PUSH1 0x40 DUP3 ADD MSTORE PUSH13 0x1C881BDC88185C1C1C9BDD9959 PUSH1 0x9A SHL PUSH1 0x60 DUP3 ADD MSTORE PUSH1 0x80 ADD SWAP1 JUMP JUMPDEST PUSH1 0x20 DUP1 DUP3 MSTORE PUSH1 0x25 SWAP1 DUP3 ADD MSTORE PUSH32 0x4552433732313A207472616E736665722066726F6D20696E636F727265637420 PUSH1 0x40 DUP3 ADD MSTORE PUSH5 0x37BBB732B9 PUSH1 0xD9 SHL PUSH1 0x60 DUP3 ADD MSTORE PUSH1 0x80 ADD SWAP1 JUMP JUMPDEST PUSH1 0x20 DUP1 DUP3 MSTORE PUSH1 0x32 SWAP1 DUP3 ADD MSTORE PUSH32 0x4552433732313A207472616E7366657220746F206E6F6E204552433732315265 PUSH1 0x40 DUP3 ADD MSTORE PUSH18 0x31B2B4BB32B91034B6B83632B6B2B73A32B9 PUSH1 0x71 SHL PUSH1 0x60 DUP3 ADD MSTORE PUSH1 0x80 ADD SWAP1 JUMP JUMPDEST PUSH1 0x1 PUSH1 0x1 PUSH1 0xA0 SHL SUB DUP6 DUP2 AND DUP3 MSTORE DUP5 AND PUSH1 0x20 DUP3 ADD MSTORE PUSH1 0x40 DUP2 ADD DUP4 SWAP1 MSTORE PUSH1 0x80 PUSH1 0x60 DUP3 ADD DUP2 SWAP1 MSTORE PUSH1 0x0 SWAP1 PUSH2 0x1771 SWAP1 DUP4 ADD DUP5 PUSH2 0x3E1A JUMP JUMPDEST PUSH1 0x0 PUSH1 0x20 DUP3 DUP5 SUB SLT ISZERO PUSH2 0x47D3 JUMPI PUSH1 0x0 DUP1 REVERT JUMPDEST DUP2 MLOAD PUSH2 0x2A42 DUP2 PUSH2 0x3D64 JUMP INVALID LOG2 PUSH5 0x6970667358 0x22 SLT KECCAK256 0x5D MSTORE8 DUP11 SWAP9 PREVRANDAO INVALID 0xD1 GASLIMIT 0x4D 0xB4 JUMPI 0x4D 0xE7 SLOAD 0xD3 0xE 0xE0 0xB0 SAR 0x21 0xC3 LOG3 BALANCE 0xE8 PUSH4 0xF8F4859E LOG1 0x2A 0xCD PUSH5 0x736F6C6343 STOP ADDMOD SLT STOP CALLER "
		},
		"gasEstimates": {
			"creation": {
				"codeDepositCost": "3690400",
				"executionCost": "infinite",
				"totalCost": "infinite"
			},
			"external": {
				"approve(address,uint256)": "infinite",
				"approveFTTMarketPlaceOnce(address)": "28626",
				"balanceOf(address)": "2696",
				"burnFTT(uint256)": "infinite",
				"countTotalTreesByOwner(address)": "infinite",
				"disapproveFTTMarketPlaceOnce(address)": "28570",
				"getApprovalStatus(address)": "4875",
				"getApproved(uint256)": "4829",
				"getContractAddress()": "2421",
				"getFTTDataByTokenId(uint256)": "infinite",
				"getFTTsByOwner(address)": "infinite",
				"getFtoTokenId(uint256)": "2527",
				"getFtoTreeCount(uint256)": "infinite",
				"getMergeFee()": "2425",
				"getMintingFee(uint256,uint256)": "2812",
				"getNewContractAddress()": "4605",
				"getRecipientAddress()": "2443",
				"getSplitFee()": "2424",
				"getTokenIPFSHash(uint256)": "infinite",
				"getTotalFTTmintedByFtoOwner(address)": "infinite",
				"getTotalFTTtreeCount()": "infinite",
				"getTotalTreeCount(uint256)": "4758",
				"getTotalTreeCountByFto(address,uint256)": "infinite",
				"isApprovedForAll(address,address)": "infinite",
				"isApprovedSpender(address)": "2587",
				"isUpgraded()": "2429",
				"listAllFTTs()": "infinite",
				"listAllFTTsByFto(uint256)": "infinite",
				"listAllOwnerFTTsByFto(uint256,address)": "infinite",
				"mergeFTT(uint256[],uint256)": "infinite",
				"mint(uint256,uint256,address,uint256)": "infinite",
				"mintBulk(uint256,uint256[],address)": "infinite",
				"name()": "infinite",
				"newContractAddress()": "2470",
				"owner()": "2421",
				"ownerOf(uint256)": "2649",
				"pause()": "infinite",
				"paused()": "2377",
				"renounceOwnership()": "infinite",
				"safeTransferFrom(address,address,uint256)": "infinite",
				"safeTransferFrom(address,address,uint256,bytes)": "infinite",
				"setApprovalForAll(address,bool)": "26778",
				"setApprovedSpender(address)": "31118",
				"setBaseURI(string)": "infinite",
				"setFtoContractAddress(address)": "26864",
				"setMergeFee(uint256)": "30883",
				"setMintingFee(uint256)": "30863",
				"setRecipientAddress(address)": "33203",
				"setSplitFee(uint256)": "30906",
				"setTokenIPFSHash(uint256,string)": "infinite",
				"setTreeCount(uint256,uint256)": "24669",
				"splitFTT(uint256,uint256)": "infinite",
				"splitFee()": "2430",
				"supportsInterface(bytes4)": "580",
				"symbol()": "infinite",
				"tokenOfOwnerByIndex(address,uint256)": "infinite",
				"tokenURI(uint256)": "infinite",
				"totalSupply()": "2443",
				"transferFrom(address,address,uint256)": "infinite",
				"transferOwnership(address)": "infinite",
				"unpause()": "infinite",
				"upgradeContract(address)": "28366",
				"withdraw(uint256)": "infinite"
			},
			"internal": {
				"_setTokenURI(uint256,string memory)": "infinite",
				"getTreesInFTT(uint256)": "infinite",
				"uintToString(uint256)": "infinite"
			}
		},
		"methodIdentifiers": {
			"approve(address,uint256)": "095ea7b3",
			"approveFTTMarketPlaceOnce(address)": "23374de3",
			"balanceOf(address)": "70a08231",
			"burnFTT(uint256)": "840f3302",
			"countTotalTreesByOwner(address)": "e24f356a",
			"disapproveFTTMarketPlaceOnce(address)": "53aa43b0",
			"getApprovalStatus(address)": "4c3f6bbf",
			"getApproved(uint256)": "081812fc",
			"getContractAddress()": "32a2c5d0",
			"getFTTDataByTokenId(uint256)": "0698c1e9",
			"getFTTsByOwner(address)": "958070fc",
			"getFtoTokenId(uint256)": "cd90ab4b",
			"getFtoTreeCount(uint256)": "8f347fa3",
			"getMergeFee()": "b3bbd017",
			"getMintingFee(uint256,uint256)": "52d70f89",
			"getNewContractAddress()": "af7bec68",
			"getRecipientAddress()": "7ce87b43",
			"getSplitFee()": "f522ff26",
			"getTokenIPFSHash(uint256)": "3f2ad2e3",
			"getTotalFTTmintedByFtoOwner(address)": "c57fcf7a",
			"getTotalFTTtreeCount()": "d43f2ef9",
			"getTotalTreeCount(uint256)": "ea7deade",
			"getTotalTreeCountByFto(address,uint256)": "566af573",
			"isApprovedForAll(address,address)": "e985e9c5",
			"isApprovedSpender(address)": "c303a6a7",
			"isUpgraded()": "42c80fc9",
			"listAllFTTs()": "59d236b2",
			"listAllFTTsByFto(uint256)": "d6f795bc",
			"listAllOwnerFTTsByFto(uint256,address)": "74ce6335",
			"mergeFTT(uint256[],uint256)": "78524d4c",
			"mint(uint256,uint256,address,uint256)": "706ff617",
			"mintBulk(uint256,uint256[],address)": "6fae274d",
			"name()": "06fdde03",
			"newContractAddress()": "6af04a57",
			"owner()": "8da5cb5b",
			"ownerOf(uint256)": "6352211e",
			"pause()": "8456cb59",
			"paused()": "5c975abb",
			"renounceOwnership()": "715018a6",
			"safeTransferFrom(address,address,uint256)": "42842e0e",
			"safeTransferFrom(address,address,uint256,bytes)": "b88d4fde",
			"setApprovalForAll(address,bool)": "a22cb465",
			"setApprovedSpender(address)": "d6e47d10",
			"setBaseURI(string)": "55f804b3",
			"setFtoContractAddress(address)": "2f3a7f0f",
			"setMergeFee(uint256)": "de552786",
			"setMintingFee(uint256)": "238a4709",
			"setRecipientAddress(address)": "36bfc264",
			"setSplitFee(uint256)": "524bc6f9",
			"setTokenIPFSHash(uint256,string)": "b485a58a",
			"setTreeCount(uint256,uint256)": "5e7e9af2",
			"splitFTT(uint256,uint256)": "4c58eaa3",
			"splitFee()": "49805555",
			"supportsInterface(bytes4)": "01ffc9a7",
			"symbol()": "95d89b41",
			"tokenOfOwnerByIndex(address,uint256)": "2f745c59",
			"tokenURI(uint256)": "c87b56dd",
			"totalSupply()": "18160ddd",
			"transferFrom(address,address,uint256)": "23b872dd",
			"transferOwnership(address)": "f2fde38b",
			"unpause()": "3f4ba83a",
			"upgradeContract(address)": "eb2c0223",
			"withdraw(uint256)": "2e1a7d4d"
		}
	},
	"abi": [
		{
			"inputs": [
				{
					"internalType": "address",
					"name": "ftoContractAddress",
					"type": "address"
				},
				{
					"internalType": "uint256",
					"name": "maxTreesPerFTO",
					"type": "uint256"
				},
				{
					"internalType": "uint256",
					"name": "mintingFeeInWei",
					"type": "uint256"
				},
				{
					"internalType": "uint256",
					"name": "feeToSplit",
					"type": "uint256"
				},
				{
					"internalType": "uint256",
					"name": "feeToMerge",
					"type": "uint256"
				}
			],
			"stateMutability": "nonpayable",
			"type": "constructor"
		},
		{
			"anonymous": false,
			"inputs": [
				{
					"indexed": true,
					"internalType": "address",
					"name": "owner",
					"type": "address"
				},
				{
					"indexed": true,
					"internalType": "address",
					"name": "approved",
					"type": "address"
				},
				{
					"indexed": true,
					"internalType": "uint256",
					"name": "tokenId",
					"type": "uint256"
				}
			],
			"name": "Approval",
			"type": "event"
		},
		{
			"anonymous": false,
			"inputs": [
				{
					"indexed": true,
					"internalType": "address",
					"name": "owner",
					"type": "address"
				},
				{
					"indexed": true,
					"internalType": "address",
					"name": "operator",
					"type": "address"
				},
				{
					"indexed": false,
					"internalType": "bool",
					"name": "approved",
					"type": "bool"
				}
			],
			"name": "ApprovalForAll",
			"type": "event"
		},
		{
			"anonymous": false,
			"inputs": [
				{
					"indexed": true,
					"internalType": "address",
					"name": "oldContractAddress",
					"type": "address"
				},
				{
					"indexed": true,
					"internalType": "address",
					"name": "newContractAddress",
					"type": "address"
				}
			],
			"name": "ContractUpgraded",
			"type": "event"
		},
		{
			"anonymous": false,
			"inputs": [
				{
					"indexed": true,
					"internalType": "uint256",
					"name": "ftoTokenId",
					"type": "uint256"
				},
				{
					"indexed": true,
					"internalType": "uint256",
					"name": "tokenId",
					"type": "uint256"
				},
				{
					"indexed": false,
					"internalType": "uint256",
					"name": "treeCount",
					"type": "uint256"
				},
				{
					"indexed": false,
					"internalType": "address",
					"name": "owner",
					"type": "address"
				},
				{
					"indexed": false,
					"internalType": "address",
					"name": "contractAddress",
					"type": "address"
				},
				{
					"indexed": false,
					"internalType": "uint256",
					"name": "_mintingFee",
					"type": "uint256"
				},
				{
					"indexed": false,
					"internalType": "string",
					"name": "tokenURI",
					"type": "string"
				}
			],
			"name": "MintEvent",
			"type": "event"
		},
		{
			"anonymous": false,
			"inputs": [
				{
					"indexed": true,
					"internalType": "address",
					"name": "payer",
					"type": "address"
				},
				{
					"indexed": true,
					"internalType": "address",
					"name": "recipient",
					"type": "address"
				},
				{
					"indexed": false,
					"internalType": "uint256",
					"name": "amount",
					"type": "uint256"
				}
			],
			"name": "MintingFeePaid",
			"type": "event"
		},
		{
			"anonymous": false,
			"inputs": [
				{
					"indexed": true,
					"internalType": "address",
					"name": "previousOwner",
					"type": "address"
				},
				{
					"indexed": true,
					"internalType": "address",
					"name": "newOwner",
					"type": "address"
				}
			],
			"name": "OwnershipTransferred",
			"type": "event"
		},
		{
			"anonymous": false,
			"inputs": [
				{
					"indexed": false,
					"internalType": "address",
					"name": "account",
					"type": "address"
				}
			],
			"name": "Paused",
			"type": "event"
		},
		{
			"anonymous": false,
			"inputs": [
				{
					"indexed": true,
					"internalType": "address",
					"name": "from",
					"type": "address"
				},
				{
					"indexed": true,
					"internalType": "address",
					"name": "to",
					"type": "address"
				},
				{
					"indexed": true,
					"internalType": "uint256",
					"name": "tokenId",
					"type": "uint256"
				}
			],
			"name": "Transfer",
			"type": "event"
		},
		{
			"anonymous": false,
			"inputs": [
				{
					"indexed": false,
					"internalType": "address",
					"name": "account",
					"type": "address"
				}
			],
			"name": "Unpaused",
			"type": "event"
		},
		{
			"anonymous": false,
			"inputs": [
				{
					"indexed": true,
					"internalType": "address",
					"name": "FTTMarketPlaceAddress",
					"type": "address"
				},
				{
					"indexed": true,
					"internalType": "address",
					"name": "owner",
					"type": "address"
				},
				{
					"indexed": false,
					"internalType": "address",
					"name": "contractAddress",
					"type": "address"
				}
			],
			"name": "approveFTTMarketPlaceOnceEvent",
			"type": "event"
		},
		{
			"anonymous": false,
			"inputs": [
				{
					"indexed": true,
					"internalType": "uint256",
					"name": "tokenId",
					"type": "uint256"
				},
				{
					"indexed": false,
					"internalType": "uint256",
					"name": "treeCount",
					"type": "uint256"
				},
				{
					"indexed": true,
					"internalType": "address",
					"name": "owner",
					"type": "address"
				},
				{
					"indexed": false,
					"internalType": "address",
					"name": "contractAddress",
					"type": "address"
				},
				{
					"indexed": false,
					"internalType": "uint256",
					"name": "ftoTokenId",
					"type": "uint256"
				},
				{
					"indexed": false,
					"internalType": "uint256",
					"name": "_mintingFee",
					"type": "uint256"
				}
			],
			"name": "bulkTokensMinted",
			"type": "event"
		},
		{
			"anonymous": false,
			"inputs": [
				{
					"indexed": true,
					"internalType": "uint256",
					"name": "tokenId",
					"type": "uint256"
				},
				{
					"indexed": false,
					"internalType": "uint256",
					"name": "treeCount",
					"type": "uint256"
				},
				{
					"indexed": false,
					"internalType": "address",
					"name": "contractAddress",
					"type": "address"
				},
				{
					"indexed": true,
					"internalType": "address",
					"name": "owner",
					"type": "address"
				},
				{
					"indexed": false,
					"internalType": "uint256",
					"name": "ftoTokenId",
					"type": "uint256"
				}
			],
			"name": "burnFTTEvent",
			"type": "event"
		},
		{
			"anonymous": false,
			"inputs": [
				{
					"indexed": true,
					"internalType": "address",
					"name": "FTTMarketPlaceAddress",
					"type": "address"
				},
				{
					"indexed": true,
					"internalType": "address",
					"name": "owner",
					"type": "address"
				},
				{
					"indexed": false,
					"internalType": "address",
					"name": "contractAddress",
					"type": "address"
				}
			],
			"name": "disapproveFTTMarketPlaceOnceEvent",
			"type": "event"
		},
		{
			"anonymous": false,
			"inputs": [
				{
					"indexed": false,
					"internalType": "uint256",
					"name": "mergedTokenId",
					"type": "uint256"
				},
				{
					"indexed": false,
					"internalType": "uint256",
					"name": "treeCount",
					"type": "uint256"
				},
				{
					"indexed": false,
					"internalType": "address",
					"name": "contractAddress",
					"type": "address"
				},
				{
					"indexed": true,
					"internalType": "address",
					"name": "owner",
					"type": "address"
				},
				{
					"indexed": false,
					"internalType": "uint256",
					"name": "ftoTokenId",
					"type": "uint256"
				},
				{
					"indexed": false,
					"internalType": "uint256",
					"name": "_mergeFee",
					"type": "uint256"
				}
			],
			"name": "mergeTokenAdjusted",
			"type": "event"
		},
		{
			"anonymous": false,
			"inputs": [
				{
					"indexed": false,
					"internalType": "uint256",
					"name": "burnedTokenId",
					"type": "uint256"
				},
				{
					"indexed": false,
					"internalType": "uint256",
					"name": "treeCount",
					"type": "uint256"
				},
				{
					"indexed": false,
					"internalType": "address",
					"name": "contractAddress",
					"type": "address"
				},
				{
					"indexed": true,
					"internalType": "address",
					"name": "owner",
					"type": "address"
				},
				{
					"indexed": false,
					"internalType": "uint256",
					"name": "ftoTokenId",
					"type": "uint256"
				}
			],
			"name": "mergeTokenBurned",
			"type": "event"
		},
		{
			"anonymous": false,
			"inputs": [
				{
					"indexed": true,
					"internalType": "address",
					"name": "spender",
					"type": "address"
				},
				{
					"indexed": false,
					"internalType": "address",
					"name": "fromAddress",
					"type": "address"
				},
				{
					"indexed": true,
					"internalType": "address",
					"name": "owner",
					"type": "address"
				},
				{
					"indexed": false,
					"internalType": "address",
					"name": "contractAddress",
					"type": "address"
				}
			],
			"name": "setApprovedSpenderEvent",
			"type": "event"
		},
		{
			"anonymous": false,
			"inputs": [
				{
					"indexed": false,
					"internalType": "address",
					"name": "fromAddress",
					"type": "address"
				},
				{
					"indexed": true,
					"internalType": "address",
					"name": "owner",
					"type": "address"
				},
				{
					"indexed": false,
					"internalType": "address",
					"name": "contractAddress",
					"type": "address"
				},
				{
					"indexed": false,
					"internalType": "uint256",
					"name": "mergeFee",
					"type": "uint256"
				}
			],
			"name": "setMergeFeeEvent",
			"type": "event"
		},
		{
			"anonymous": false,
			"inputs": [
				{
					"indexed": false,
					"internalType": "address",
					"name": "fromAddress",
					"type": "address"
				},
				{
					"indexed": true,
					"internalType": "address",
					"name": "owner",
					"type": "address"
				},
				{
					"indexed": false,
					"internalType": "address",
					"name": "contractAddress",
					"type": "address"
				},
				{
					"indexed": false,
					"internalType": "uint256",
					"name": "mintingFee",
					"type": "uint256"
				}
			],
			"name": "setMintingFeeEvent",
			"type": "event"
		},
		{
			"anonymous": false,
			"inputs": [
				{
					"indexed": true,
					"internalType": "address",
					"name": "recipientAddress",
					"type": "address"
				},
				{
					"indexed": false,
					"internalType": "address",
					"name": "fromAddress",
					"type": "address"
				},
				{
					"indexed": true,
					"internalType": "address",
					"name": "owner",
					"type": "address"
				},
				{
					"indexed": false,
					"internalType": "address",
					"name": "contractAddress",
					"type": "address"
				}
			],
			"name": "setRecipientAddressEvent",
			"type": "event"
		},
		{
			"anonymous": false,
			"inputs": [
				{
					"indexed": false,
					"internalType": "address",
					"name": "fromAddress",
					"type": "address"
				},
				{
					"indexed": true,
					"internalType": "address",
					"name": "owner",
					"type": "address"
				},
				{
					"indexed": false,
					"internalType": "address",
					"name": "contractAddress",
					"type": "address"
				},
				{
					"indexed": false,
					"internalType": "uint256",
					"name": "splitFee",
					"type": "uint256"
				}
			],
			"name": "setSplitFeeEvent",
			"type": "event"
		},
		{
			"anonymous": false,
			"inputs": [
				{
					"indexed": true,
					"internalType": "uint256",
					"name": "tokenId",
					"type": "uint256"
				},
				{
					"indexed": false,
					"internalType": "uint256",
					"name": "treeCount",
					"type": "uint256"
				},
				{
					"indexed": true,
					"internalType": "address",
					"name": "owner",
					"type": "address"
				},
				{
					"indexed": false,
					"internalType": "address",
					"name": "contractAddress",
					"type": "address"
				},
				{
					"indexed": false,
					"internalType": "uint256",
					"name": "ftoTokenId",
					"type": "uint256"
				}
			],
			"name": "splitTokenBurned",
			"type": "event"
		},
		{
			"anonymous": false,
			"inputs": [
				{
					"indexed": true,
					"internalType": "uint256",
					"name": "tokenId",
					"type": "uint256"
				},
				{
					"indexed": false,
					"internalType": "uint256",
					"name": "treeCount",
					"type": "uint256"
				},
				{
					"indexed": true,
					"internalType": "address",
					"name": "owner",
					"type": "address"
				},
				{
					"indexed": false,
					"internalType": "address",
					"name": "contractAddress",
					"type": "address"
				},
				{
					"indexed": false,
					"internalType": "uint256",
					"name": "ftoTokenId",
					"type": "uint256"
				},
				{
					"indexed": false,
					"internalType": "uint256",
					"name": "_splitFee",
					"type": "uint256"
				}
			],
			"name": "splitTokensCreated",
			"type": "event"
		},
		{
			"anonymous": false,
			"inputs": [
				{
					"indexed": false,
					"internalType": "address",
					"name": "from",
					"type": "address"
				},
				{
					"indexed": false,
					"internalType": "address",
					"name": "to",
					"type": "address"
				},
				{
					"indexed": true,
					"internalType": "uint256",
					"name": "tokenId",
					"type": "uint256"
				},
				{
					"indexed": true,
					"internalType": "address",
					"name": "owner",
					"type": "address"
				},
				{
					"indexed": false,
					"internalType": "address",
					"name": "contractAddress",
					"type": "address"
				},
				{
					"indexed": false,
					"internalType": "uint256",
					"name": "ftoTokenId",
					"type": "uint256"
				},
				{
					"indexed": false,
					"internalType": "uint256",
					"name": "totalTrees",
					"type": "uint256"
				}
			],
			"name": "transferFromEvent",
			"type": "event"
		},
		{
			"anonymous": false,
			"inputs": [
				{
					"indexed": false,
					"internalType": "address",
					"name": "fromAddress",
					"type": "address"
				},
				{
					"indexed": true,
					"internalType": "address",
					"name": "recipientAddress",
					"type": "address"
				},
				{
					"indexed": false,
					"internalType": "address",
					"name": "contractAddress",
					"type": "address"
				},
				{
					"indexed": false,
					"internalType": "uint256",
					"name": "amount",
					"type": "uint256"
				}
			],
			"name": "withdrawEvent",
			"type": "event"
		},
		{
			"inputs": [
				{
					"internalType": "address",
					"name": "to",
					"type": "address"
				},
				{
					"internalType": "uint256",
					"name": "tokenId",
					"type": "uint256"
				}
			],
			"name": "approve",
			"outputs": [],
			"stateMutability": "nonpayable",
			"type": "function"
		},
		{
			"inputs": [
				{
					"internalType": "address payable",
					"name": "FTTMarketPlaceAddress",
					"type": "address"
				}
			],
			"name": "approveFTTMarketPlaceOnce",
			"outputs": [],
			"stateMutability": "nonpayable",
			"type": "function"
		},
		{
			"inputs": [
				{
					"internalType": "address",
					"name": "owner",
					"type": "address"
				}
			],
			"name": "balanceOf",
			"outputs": [
				{
					"internalType": "uint256",
					"name": "",
					"type": "uint256"
				}
			],
			"stateMutability": "view",
			"type": "function"
		},
		{
			"inputs": [
				{
					"internalType": "uint256",
					"name": "tokenId",
					"type": "uint256"
				}
			],
			"name": "burnFTT",
			"outputs": [],
			"stateMutability": "nonpayable",
			"type": "function"
		},
		{
			"inputs": [
				{
					"internalType": "address",
					"name": "owner",
					"type": "address"
				}
			],
			"name": "countTotalTreesByOwner",
			"outputs": [
				{
					"internalType": "uint256",
					"name": "",
					"type": "uint256"
				}
			],
			"stateMutability": "view",
			"type": "function"
		},
		{
			"inputs": [
				{
					"internalType": "address",
					"name": "FTTMarketPlaceAddress",
					"type": "address"
				}
			],
			"name": "disapproveFTTMarketPlaceOnce",
			"outputs": [],
			"stateMutability": "nonpayable",
			"type": "function"
		},
		{
			"inputs": [
				{
					"internalType": "address",
					"name": "FTTMarketPlaceAddress",
					"type": "address"
				}
			],
			"name": "getApprovalStatus",
			"outputs": [
				{
					"internalType": "bool",
					"name": "",
					"type": "bool"
				}
			],
			"stateMutability": "view",
			"type": "function"
		},
		{
			"inputs": [
				{
					"internalType": "uint256",
					"name": "tokenId",
					"type": "uint256"
				}
			],
			"name": "getApproved",
			"outputs": [
				{
					"internalType": "address",
					"name": "",
					"type": "address"
				}
			],
			"stateMutability": "view",
			"type": "function"
		},
		{
			"inputs": [],
			"name": "getContractAddress",
			"outputs": [
				{
					"internalType": "address",
					"name": "",
					"type": "address"
				}
			],
			"stateMutability": "view",
			"type": "function"
		},
		{
			"inputs": [
				{
					"internalType": "uint256",
					"name": "fttTokenId",
					"type": "uint256"
				}
			],
			"name": "getFTTDataByTokenId",
			"outputs": [
				{
					"components": [
						{
							"internalType": "uint256",
							"name": "ftoTokenId",
							"type": "uint256"
						},
						{
							"internalType": "uint256",
							"name": "fttTokenId",
							"type": "uint256"
						},
						{
							"internalType": "uint256",
							"name": "treeCount",
							"type": "uint256"
						},
						{
							"internalType": "address",
							"name": "owner",
							"type": "address"
						},
						{
							"internalType": "bool",
							"name": "isSold",
							"type": "bool"
						}
					],
					"internalType": "struct FTT.FTTData",
					"name": "",
					"type": "tuple"
				}
			],
			"stateMutability": "view",
			"type": "function"
		},
		{
			"inputs": [
				{
					"internalType": "address",
					"name": "owner",
					"type": "address"
				}
			],
			"name": "getFTTsByOwner",
			"outputs": [
				{
					"components": [
						{
							"internalType": "uint256",
							"name": "ftoTokenId",
							"type": "uint256"
						},
						{
							"internalType": "uint256",
							"name": "fttTokenId",
							"type": "uint256"
						},
						{
							"internalType": "uint256",
							"name": "treeCount",
							"type": "uint256"
						},
						{
							"internalType": "address",
							"name": "owner",
							"type": "address"
						},
						{
							"internalType": "bool",
							"name": "isSold",
							"type": "bool"
						}
					],
					"internalType": "struct FTT.FTTData[]",
					"name": "",
					"type": "tuple[]"
				}
			],
			"stateMutability": "view",
			"type": "function"
		},
		{
			"inputs": [
				{
					"internalType": "uint256",
					"name": "fttTokenId",
					"type": "uint256"
				}
			],
			"name": "getFtoTokenId",
			"outputs": [
				{
					"internalType": "uint256",
					"name": "",
					"type": "uint256"
				}
			],
			"stateMutability": "view",
			"type": "function"
		},
		{
			"inputs": [
				{
					"internalType": "uint256",
					"name": "tokenId",
					"type": "uint256"
				}
			],
			"name": "getFtoTreeCount",
			"outputs": [
				{
					"internalType": "uint256",
					"name": "",
					"type": "uint256"
				}
			],
			"stateMutability": "view",
			"type": "function"
		},
		{
			"inputs": [],
			"name": "getMergeFee",
			"outputs": [
				{
					"internalType": "uint256",
					"name": "",
					"type": "uint256"
				}
			],
			"stateMutability": "view",
			"type": "function"
		},
		{
			"inputs": [
				{
					"internalType": "uint256",
					"name": "treeCount",
					"type": "uint256"
				},
				{
					"internalType": "uint256",
					"name": "treesPerFTT",
					"type": "uint256"
				}
			],
			"name": "getMintingFee",
			"outputs": [
				{
					"internalType": "uint256",
					"name": "",
					"type": "uint256"
				}
			],
			"stateMutability": "view",
			"type": "function"
		},
		{
			"inputs": [],
			"name": "getNewContractAddress",
			"outputs": [
				{
					"internalType": "address",
					"name": "",
					"type": "address"
				}
			],
			"stateMutability": "view",
			"type": "function"
		},
		{
			"inputs": [],
			"name": "getRecipientAddress",
			"outputs": [
				{
					"internalType": "address payable",
					"name": "",
					"type": "address"
				}
			],
			"stateMutability": "view",
			"type": "function"
		},
		{
			"inputs": [],
			"name": "getSplitFee",
			"outputs": [
				{
					"internalType": "uint256",
					"name": "",
					"type": "uint256"
				}
			],
			"stateMutability": "view",
			"type": "function"
		},
		{
			"inputs": [
				{
					"internalType": "uint256",
					"name": "tokenId",
					"type": "uint256"
				}
			],
			"name": "getTokenIPFSHash",
			"outputs": [
				{
					"internalType": "string",
					"name": "",
					"type": "string"
				}
			],
			"stateMutability": "view",
			"type": "function"
		},
		{
			"inputs": [
				{
					"internalType": "address",
					"name": "owner",
					"type": "address"
				}
			],
			"name": "getTotalFTTmintedByFtoOwner",
			"outputs": [
				{
					"internalType": "uint256",
					"name": "",
					"type": "uint256"
				}
			],
			"stateMutability": "view",
			"type": "function"
		},
		{
			"inputs": [],
			"name": "getTotalFTTtreeCount",
			"outputs": [
				{
					"internalType": "uint256",
					"name": "",
					"type": "uint256"
				}
			],
			"stateMutability": "view",
			"type": "function"
		},
		{
			"inputs": [
				{
					"internalType": "uint256",
					"name": "tokenId",
					"type": "uint256"
				}
			],
			"name": "getTotalTreeCount",
			"outputs": [
				{
					"internalType": "uint256",
					"name": "",
					"type": "uint256"
				}
			],
			"stateMutability": "view",
			"type": "function"
		},
		{
			"inputs": [
				{
					"internalType": "address",
					"name": "owner",
					"type": "address"
				},
				{
					"internalType": "uint256",
					"name": "ftoTokenId",
					"type": "uint256"
				}
			],
			"name": "getTotalTreeCountByFto",
			"outputs": [
				{
					"internalType": "uint256",
					"name": "",
					"type": "uint256"
				}
			],
			"stateMutability": "view",
			"type": "function"
		},
		{
			"inputs": [
				{
					"internalType": "address",
					"name": "owner",
					"type": "address"
				},
				{
					"internalType": "address",
					"name": "operator",
					"type": "address"
				}
			],
			"name": "isApprovedForAll",
			"outputs": [
				{
					"internalType": "bool",
					"name": "",
					"type": "bool"
				}
			],
			"stateMutability": "view",
			"type": "function"
		},
		{
			"inputs": [
				{
					"internalType": "address",
					"name": "spender",
					"type": "address"
				}
			],
			"name": "isApprovedSpender",
			"outputs": [
				{
					"internalType": "bool",
					"name": "",
					"type": "bool"
				}
			],
			"stateMutability": "view",
			"type": "function"
		},
		{
			"inputs": [],
			"name": "isUpgraded",
			"outputs": [
				{
					"internalType": "bool",
					"name": "",
					"type": "bool"
				}
			],
			"stateMutability": "view",
			"type": "function"
		},
		{
			"inputs": [],
			"name": "listAllFTTs",
			"outputs": [
				{
					"components": [
						{
							"internalType": "uint256",
							"name": "ftoTokenId",
							"type": "uint256"
						},
						{
							"internalType": "uint256",
							"name": "fttTokenId",
							"type": "uint256"
						},
						{
							"internalType": "uint256",
							"name": "treeCount",
							"type": "uint256"
						},
						{
							"internalType": "address",
							"name": "owner",
							"type": "address"
						},
						{
							"internalType": "bool",
							"name": "isSold",
							"type": "bool"
						}
					],
					"internalType": "struct FTT.FTTData[]",
					"name": "",
					"type": "tuple[]"
				}
			],
			"stateMutability": "view",
			"type": "function"
		},
		{
			"inputs": [
				{
					"internalType": "uint256",
					"name": "ftoTokenId",
					"type": "uint256"
				}
			],
			"name": "listAllFTTsByFto",
			"outputs": [
				{
					"components": [
						{
							"internalType": "uint256",
							"name": "ftoTokenId",
							"type": "uint256"
						},
						{
							"internalType": "uint256",
							"name": "fttTokenId",
							"type": "uint256"
						},
						{
							"internalType": "uint256",
							"name": "treeCount",
							"type": "uint256"
						},
						{
							"internalType": "address",
							"name": "owner",
							"type": "address"
						},
						{
							"internalType": "bool",
							"name": "isSold",
							"type": "bool"
						}
					],
					"internalType": "struct FTT.FTTData[]",
					"name": "",
					"type": "tuple[]"
				}
			],
			"stateMutability": "view",
			"type": "function"
		},
		{
			"inputs": [
				{
					"internalType": "uint256",
					"name": "ftoTokenId",
					"type": "uint256"
				},
				{
					"internalType": "address",
					"name": "walletAddress",
					"type": "address"
				}
			],
			"name": "listAllOwnerFTTsByFto",
			"outputs": [
				{
					"components": [
						{
							"internalType": "uint256",
							"name": "ftoTokenId",
							"type": "uint256"
						},
						{
							"internalType": "uint256",
							"name": "fttTokenId",
							"type": "uint256"
						},
						{
							"internalType": "uint256",
							"name": "treeCount",
							"type": "uint256"
						},
						{
							"internalType": "address",
							"name": "owner",
							"type": "address"
						},
						{
							"internalType": "bool",
							"name": "isSold",
							"type": "bool"
						}
					],
					"internalType": "struct FTT.FTTData[]",
					"name": "",
					"type": "tuple[]"
				}
			],
			"stateMutability": "view",
			"type": "function"
		},
		{
			"inputs": [
				{
					"internalType": "uint256[]",
					"name": "tokenIds",
					"type": "uint256[]"
				},
				{
					"internalType": "uint256",
					"name": "mergedTokenId",
					"type": "uint256"
				}
			],
			"name": "mergeFTT",
			"outputs": [],
			"stateMutability": "payable",
			"type": "function"
		},
		{
			"inputs": [
				{
					"internalType": "uint256",
					"name": "ftoTokenId",
					"type": "uint256"
				},
				{
					"internalType": "uint256",
					"name": "treeCount",
					"type": "uint256"
				},
				{
					"internalType": "address",
					"name": "owner",
					"type": "address"
				},
				{
					"internalType": "uint256",
					"name": "treesPerFTT",
					"type": "uint256"
				}
			],
			"name": "mint",
			"outputs": [],
			"stateMutability": "payable",
			"type": "function"
		},
		{
			"inputs": [
				{
					"internalType": "uint256",
					"name": "ftoTokenId",
					"type": "uint256"
				},
				{
					"internalType": "uint256[]",
					"name": "treeCounts",
					"type": "uint256[]"
				},
				{
					"internalType": "address",
					"name": "owner",
					"type": "address"
				}
			],
			"name": "mintBulk",
			"outputs": [],
			"stateMutability": "payable",
			"type": "function"
		},
		{
			"inputs": [],
			"name": "name",
			"outputs": [
				{
					"internalType": "string",
					"name": "",
					"type": "string"
				}
			],
			"stateMutability": "view",
			"type": "function"
		},
		{
			"inputs": [],
			"name": "newContractAddress",
			"outputs": [
				{
					"internalType": "address",
					"name": "",
					"type": "address"
				}
			],
			"stateMutability": "view",
			"type": "function"
		},
		{
			"inputs": [],
			"name": "owner",
			"outputs": [
				{
					"internalType": "address",
					"name": "",
					"type": "address"
				}
			],
			"stateMutability": "view",
			"type": "function"
		},
		{
			"inputs": [
				{
					"internalType": "uint256",
					"name": "tokenId",
					"type": "uint256"
				}
			],
			"name": "ownerOf",
			"outputs": [
				{
					"internalType": "address",
					"name": "",
					"type": "address"
				}
			],
			"stateMutability": "view",
			"type": "function"
		},
		{
			"inputs": [],
			"name": "pause",
			"outputs": [],
			"stateMutability": "nonpayable",
			"type": "function"
		},
		{
			"inputs": [],
			"name": "paused",
			"outputs": [
				{
					"internalType": "bool",
					"name": "",
					"type": "bool"
				}
			],
			"stateMutability": "view",
			"type": "function"
		},
		{
			"inputs": [],
			"name": "renounceOwnership",
			"outputs": [],
			"stateMutability": "nonpayable",
			"type": "function"
		},
		{
			"inputs": [
				{
					"internalType": "address",
					"name": "from",
					"type": "address"
				},
				{
					"internalType": "address",
					"name": "to",
					"type": "address"
				},
				{
					"internalType": "uint256",
					"name": "tokenId",
					"type": "uint256"
				}
			],
			"name": "safeTransferFrom",
			"outputs": [],
			"stateMutability": "nonpayable",
			"type": "function"
		},
		{
			"inputs": [
				{
					"internalType": "address",
					"name": "from",
					"type": "address"
				},
				{
					"internalType": "address",
					"name": "to",
					"type": "address"
				},
				{
					"internalType": "uint256",
					"name": "tokenId",
					"type": "uint256"
				},
				{
					"internalType": "bytes",
					"name": "_data",
					"type": "bytes"
				}
			],
			"name": "safeTransferFrom",
			"outputs": [],
			"stateMutability": "nonpayable",
			"type": "function"
		},
		{
			"inputs": [
				{
					"internalType": "address",
					"name": "operator",
					"type": "address"
				},
				{
					"internalType": "bool",
					"name": "approved",
					"type": "bool"
				}
			],
			"name": "setApprovalForAll",
			"outputs": [],
			"stateMutability": "nonpayable",
			"type": "function"
		},
		{
			"inputs": [
				{
					"internalType": "address",
					"name": "spender",
					"type": "address"
				}
			],
			"name": "setApprovedSpender",
			"outputs": [],
			"stateMutability": "nonpayable",
			"type": "function"
		},
		{
			"inputs": [
				{
					"internalType": "string",
					"name": "baseTokenURI",
					"type": "string"
				}
			],
			"name": "setBaseURI",
			"outputs": [],
			"stateMutability": "nonpayable",
			"type": "function"
		},
		{
			"inputs": [
				{
					"internalType": "address",
					"name": "ftoContractAddress",
					"type": "address"
				}
			],
			"name": "setFtoContractAddress",
			"outputs": [],
			"stateMutability": "nonpayable",
			"type": "function"
		},
		{
			"inputs": [
				{
					"internalType": "uint256",
					"name": "feeToMerge",
					"type": "uint256"
				}
			],
			"name": "setMergeFee",
			"outputs": [],
			"stateMutability": "nonpayable",
			"type": "function"
		},
		{
			"inputs": [
				{
					"internalType": "uint256",
					"name": "feeInWei",
					"type": "uint256"
				}
			],
			"name": "setMintingFee",
			"outputs": [],
			"stateMutability": "nonpayable",
			"type": "function"
		},
		{
			"inputs": [
				{
					"internalType": "address payable",
					"name": "newRecipientAddress",
					"type": "address"
				}
			],
			"name": "setRecipientAddress",
			"outputs": [],
			"stateMutability": "nonpayable",
			"type": "function"
		},
		{
			"inputs": [
				{
					"internalType": "uint256",
					"name": "feeToSplit",
					"type": "uint256"
				}
			],
			"name": "setSplitFee",
			"outputs": [],
			"stateMutability": "nonpayable",
			"type": "function"
		},
		{
			"inputs": [
				{
					"internalType": "uint256",
					"name": "tokenId",
					"type": "uint256"
				},
				{
					"internalType": "string",
					"name": "ipfsHash",
					"type": "string"
				}
			],
			"name": "setTokenIPFSHash",
			"outputs": [],
			"stateMutability": "nonpayable",
			"type": "function"
		},
		{
			"inputs": [
				{
					"internalType": "uint256",
					"name": "tokenId",
					"type": "uint256"
				},
				{
					"internalType": "uint256",
					"name": "treeCount",
					"type": "uint256"
				}
			],
			"name": "setTreeCount",
			"outputs": [],
			"stateMutability": "nonpayable",
			"type": "function"
		},
		{
			"inputs": [
				{
					"internalType": "uint256",
					"name": "tokenId",
					"type": "uint256"
				},
				{
					"internalType": "uint256",
					"name": "newTokenCount",
					"type": "uint256"
				}
			],
			"name": "splitFTT",
			"outputs": [],
			"stateMutability": "payable",
			"type": "function"
		},
		{
			"inputs": [],
			"name": "splitFee",
			"outputs": [
				{
					"internalType": "uint256",
					"name": "",
					"type": "uint256"
				}
			],
			"stateMutability": "view",
			"type": "function"
		},
		{
			"inputs": [
				{
					"internalType": "bytes4",
					"name": "interfaceId",
					"type": "bytes4"
				}
			],
			"name": "supportsInterface",
			"outputs": [
				{
					"internalType": "bool",
					"name": "",
					"type": "bool"
				}
			],
			"stateMutability": "view",
			"type": "function"
		},
		{
			"inputs": [],
			"name": "symbol",
			"outputs": [
				{
					"internalType": "string",
					"name": "",
					"type": "string"
				}
			],
			"stateMutability": "view",
			"type": "function"
		},
		{
			"inputs": [
				{
					"internalType": "address",
					"name": "owner",
					"type": "address"
				},
				{
					"internalType": "uint256",
					"name": "index",
					"type": "uint256"
				}
			],
			"name": "tokenOfOwnerByIndex",
			"outputs": [
				{
					"internalType": "uint256",
					"name": "",
					"type": "uint256"
				}
			],
			"stateMutability": "view",
			"type": "function"
		},
		{
			"inputs": [
				{
					"internalType": "uint256",
					"name": "tokenId",
					"type": "uint256"
				}
			],
			"name": "tokenURI",
			"outputs": [
				{
					"internalType": "string",
					"name": "",
					"type": "string"
				}
			],
			"stateMutability": "view",
			"type": "function"
		},
		{
			"inputs": [],
			"name": "totalSupply",
			"outputs": [
				{
					"internalType": "uint256",
					"name": "",
					"type": "uint256"
				}
			],
			"stateMutability": "view",
			"type": "function"
		},
		{
			"inputs": [
				{
					"internalType": "address",
					"name": "from",
					"type": "address"
				},
				{
					"internalType": "address",
					"name": "to",
					"type": "address"
				},
				{
					"internalType": "uint256",
					"name": "tokenId",
					"type": "uint256"
				}
			],
			"name": "transferFrom",
			"outputs": [],
			"stateMutability": "nonpayable",
			"type": "function"
		},
		{
			"inputs": [
				{
					"internalType": "address",
					"name": "newOwner",
					"type": "address"
				}
			],
			"name": "transferOwnership",
			"outputs": [],
			"stateMutability": "nonpayable",
			"type": "function"
		},
		{
			"inputs": [],
			"name": "unpause",
			"outputs": [],
			"stateMutability": "nonpayable",
			"type": "function"
		},
		{
			"inputs": [
				{
					"internalType": "address",
					"name": "_newContractAddress",
					"type": "address"
				}
			],
			"name": "upgradeContract",
			"outputs": [],
			"stateMutability": "nonpayable",
			"type": "function"
		},
		{
			"inputs": [
				{
					"internalType": "uint256",
					"name": "amount",
					"type": "uint256"
				}
			],
			"name": "withdraw",
			"outputs": [],
			"stateMutability": "nonpayable",
			"type": "function"
		}
	]
}