{
	"data": {
		"bytecode": {
			"linkReferences": {},
			"object": "6080604052624f1a00600a553480156200001857600080fd5b5060405162003189380380620031898339810160408190526200003b91620000cf565b62000046336200007f565b600380546001600160a01b039094166001600160a01b031994851617905560079190915560088054909216331790915560095562000114565b600080546001600160a01b038381166001600160a01b0319831681178455604051919092169283917f8be0079c531659141344cd1fd0a4f28419497f9722a3daafe3b4186f6b6457e09190a35050565b600080600060608486031215620000e557600080fd5b83516001600160a01b0381168114620000fd57600080fd5b602085015160409095015190969495509392505050565b61306580620001246000396000f3fe60806040526004361061023f5760003560e01c80637665beea1161012e578063c457fb37116100ab578063e686df8c1161006f578063e686df8c146107d0578063e98c89f9146107f0578063f2fde38b14610810578063fb76694e14610830578063fc6e33ee1461085057600080fd5b8063c457fb371461069e578063d09ef241146106ce578063d6e4358514610740578063d92491e414610783578063da6a0bee146107b057600080fd5b806397583564116100f25780639758356414610623578063a8db716f14610650578063a8ef32fb14610665578063a983ab6714610678578063a9e7c2e51461068b57600080fd5b80637665beea1461056f5780637b672860146105a557806388647742146105c55780638da5cb5b146105e5578063958070fc1461060357600080fd5b806345cf084b116101bc578063546377b611610180578063546377b6146104c55780635756eeee146104da5780635aef2447146104ef57806365e4e1c014610545578063715018a61461055a57600080fd5b806345cf084b146103d657806348edea7d14610438578063514fcac714610465578063533761fe14610485578063544318a9146104a557600080fd5b806328695d301161020357806328695d30146103315780632d296bf11461037757806336bfc2641461038c5780633ccfd60b146103ac57806343bbc006146103c157600080fd5b806305e891fd146102845780630ac9f6f2146102ba5780632406e677146102f957806324a0923b1461033157806326e798d01461036157600080fd5b3661027f5760408051348152600060208201527f3aad5bf86a4c254558c515448b369454eaa49dd13efe7b83364dc589b9305063910160405180910390a1005b600080fd5b34801561029057600080fd5b506102a461029f366004612873565b610866565b6040516102b1919061288c565b60405180910390f35b3480156102c657600080fd5b506102eb6102d5366004612873565b6000908152600560208190526040909120015490565b6040519081526020016102b1565b34801561030557600080fd5b506103196103143660046128d0565b610a62565b6040516001600160a01b0390911681526020016102b1565b34801561033d57600080fd5b506102eb61034c366004612873565b60009081526005602052604090206002015490565b34801561036d57600080fd5b506102eb60095481565b61038a610385366004612873565b610cda565b005b34801561039857600080fd5b5061038a6103a7366004612907565b610f56565b3480156103b857600080fd5b5061038a610f80565b3480156103cd57600080fd5b506007546102eb565b3480156103e257600080fd5b506104186103f1366004612873565b600b6020526000908152604090208054600182015460028301546003909301549192909184565b6040805194855260208501939093529183015260608201526080016102b1565b34801561044457600080fd5b50610458610453366004612873565b61101e565b6040516102b1919061295c565b34801561047157600080fd5b5061038a610480366004612873565b611091565b34801561049157600080fd5b5061038a6104a0366004612873565b6111c8565b3480156104b157600080fd5b5061038a6104c0366004612873565b6111d5565b3480156104d157600080fd5b506102eb61123e565b3480156104e657600080fd5b506104586112a8565b3480156104fb57600080fd5b5061050f61050a366004612873565b61131f565b604080519687526020870195909552938501929092526001600160a01b03166060840152608083015260a082015260c0016102b1565b34801561055157600080fd5b506102a4611431565b34801561056657600080fd5b5061038a6115a2565b34801561057b57600080fd5b5061031961058a366004612873565b6000908152600560205260409020546001600160a01b031690565b3480156105b157600080fd5b506102eb6105c0366004612873565b6115b6565b3480156105d157600080fd5b506102eb6105e0366004612873565b611688565b3480156105f157600080fd5b506000546001600160a01b0316610319565b34801561060f57600080fd5b5061045861061e366004612907565b6116f6565b34801561062f57600080fd5b5061064361063e366004612873565b611729565b6040516102b1919061299e565b34801561065c57600080fd5b506102eb6117d3565b61038a6106733660046129ac565b6117de565b61038a610686366004612ab4565b611b1f565b61038a610699366004612873565b611e8c565b3480156106aa57600080fd5b506102eb6106b9366004612873565b60009081526005602052604090206003015490565b3480156106da57600080fd5b506106ee6106e9366004612873565b612062565b6040516102b1919081516001600160a01b0316815260208083015190820152604080830151908201526060808301519082015260808083015115159082015260a0918201519181019190915260c00190565b34801561074c57600080fd5b5061077361075b366004612873565b60009081526005602052604090206004015460ff1690565b60405190151581526020016102b1565b34801561078f57600080fd5b506107a361079e366004612873565b61210a565b6040516102b19190612b61565b3480156107bc57600080fd5b5061038a6107cb366004612873565b612322565b3480156107dc57600080fd5b506102eb6107eb366004612873565b61232f565b3480156107fc57600080fd5b506107a361080b366004612bf9565b61237c565b34801561081c57600080fd5b5061038a61082b366004612907565b612726565b34801561083c57600080fd5b5061038a61084b366004612907565b61279f565b34801561085c57600080fd5b506102eb600a5481565b6060600061087360065490565b67ffffffffffffffff81111561088b5761088b6129de565b6040519080825280602002602001820160405280156108b4578160200160208202803683370190505b509050600060015b60065481116109ba5760008181526005602052604090206004015460ff16801561096457506003546000828152600560205260409081902060010154905163cd90ab4b60e01b8152600481019190915286916001600160a01b03169063cd90ab4b90602401602060405180830381865afa15801561093e573d6000803e3d6000fd5b505050506040513d601f19601f820116820180604052508101906109629190612c16565b145b156109a857600081815260056020526040902060010154835184908490811061098f5761098f612c2f565b6020908102919091010152816109a481612c5b565b9250505b806109b281612c5b565b9150506108bc565b5080825260008167ffffffffffffffff8111156109d9576109d96129de565b604051908082528060200260200182016040528015610a02578160200160208202803683370190505b50905060005b82811015610a5957838181518110610a2257610a22612c2f565b6020026020010151828281518110610a3c57610a3c612c2f565b602090810291909101015280610a5181612c5b565b915050610a08565b50949350505050565b6000828152600560205260408120600a548290610a7f9042612c74565b9050600a5442610a8f9190612c74565b811115610ab75760405162461bcd60e51b8152600401610aae90612c87565b60405180910390fd5b600482015460ff16610adb5760405162461bcd60e51b8152600401610aae90612ce4565b81546001600160a01b03163314610b475760405162461bcd60e51b815260206004820152602a60248201527f465454204d61726b657420506c6163653a2043616c6c6572206973206e6f74206044820152693a34329039b2b63632b960b11b6064820152608401610aae565b60008411610b975760405162461bcd60e51b815260206004820152601f60248201527f465454204d61726b657420506c6163653a20496e76616c6964207072696365006044820152606401610aae565b83826003015403610c105760405162461bcd60e51b815260206004820152603760248201527f465454204d61726b657420506c6163653a204f7264657220697320616c72656160448201527f6479206c697374656420617420746869732070726963650000000000000000006064820152608401610aae565b6003808301859055604080516080810182528781526002808601805460208085019182528486018b81526060860189815260008e8152600b90935291879020955186559151600186015590519284019290925590519190930155905460058401549151339288927f226cfead5b348cb0bbeec0711057a037d01a7cd48398473621e26fa6801c80cf92610cc6928a9130919093845260208401929092526001600160a01b03166040830152606082015260800190565b60405180910390a330925050505b92915050565b600081815260056020526040812060028101546003820154919291610cff9190612d29565b90506000606460095483610d139190612d29565b610d1d9190612d40565b90506000610d2b8284612d62565b600485015490915060ff16610d825760405162461bcd60e51b815260206004820181905260248201527f4654542054726164696e673a204f72646572206973206e6f74206163746976656044820152606401610aae565b8354336001600160a01b0390911603610dad5760405162461bcd60e51b8152600401610aae90612d75565b823414610dcc5760405162461bcd60e51b8152600401610aae90612db6565b60035484546040516323b872dd60e01b81526001600160a01b039182166004820152336024820152604481018890529116906323b872dd90606401600060405180830381600087803b158015610e2157600080fd5b505af1158015610e35573d6000803e3d6000fd5b50506008546040516001600160a01b03909116925084156108fc02915084906000818181858888f19350505050158015610e73573d6000803e3d6000fd5b5083546040516001600160a01b039091169082156108fc029083906000818181858888f19350505050158015610ead573d6000803e3d6000fd5b506004848101805460ff191690553360008181526020928352604080822080546001810182559083529184902090910188905586546002880154600389015483519182529481019490945290830186905260608301849052608083018590523060a084015290916001600160a01b039091169087907f9a222d6ba4bc4d651e937dc475de72fed21463a1513fc5a39ad48fc564dec5d49060c00160405180910390a45050505050565b610f5e6127c9565b600880546001600160a01b0319166001600160a01b0392909216919091179055565b610f886127c9565b6008546001600160a01b0316610fe05760405162461bcd60e51b815260206004820152601960248201527f526563697069656e742061646472657373206e6f7420736574000000000000006044820152606401610aae565b60085460405147916001600160a01b03169082156108fc029083906000818181858888f1935050505015801561101a573d6000803e3d6000fd5b5050565b6003546040516335bde56f60e21b8152600481018390526060916001600160a01b03169063d6f795bc906024015b600060405180830381865afa158015611069573d6000803e3d6000fd5b505050506040513d6000823e601f3d908101601f19168201604052610cd49190810190612e7a565b6000818152600560205260409020600481015460ff166111065760405162461bcd60e51b815260206004820152602a60248201527f4672756974746578204d61726b657420506c6163653a204f72646572206973206044820152696e6f742061637469766560b01b6064820152608401610aae565b80546001600160a01b031633146111775760405162461bcd60e51b815260206004820152602f60248201527f4672756974746578204d61726b657420506c6163653a2043616c6c657220697360448201526e103737ba103a34329039b2b63632b960891b6064820152608401610aae565b60048101805460ff19169055600281015460408051918252306020830152339184917f8cde700af1ac7d45c769adcac68abbe49fcba4714cd374e40af876967f435aeb910160405180910390a35050565b6111d06127c9565b600a55565b6111dd6127c9565b60648111156112395760405162461bcd60e51b815260206004820152602260248201527f4654544d61726b6574506c6163653a20496e76616c69642070657263656e7461604482015261676560f01b6064820152608401610aae565b600955565b60008060015b60065481116112a2576000818152600560205260409020600481015460ff168015611278575080546001600160a01b031615155b1561128f57600281015461128c9084612c74565b92505b508061129a81612c5b565b915050611244565b50919050565b60035460408051632ce91b5960e11b815290516060926001600160a01b0316916359d236b29160048083019260009291908290030181865afa1580156112f2573d6000803e3d6000fd5b505050506040513d6000823e601f3d908101601f1916820160405261131a9190810190612e7a565b905090565b6000818152600160205260408120600501548190819081908190819060ff1661139f5760405162461bcd60e51b815260206004820152602c60248201527f4672756974746578204d61726b657420506c6163653a20546f6b656e20636c6160448201526b1a5b481b9bdd08199bdd5b9960a21b6064820152608401610aae565b6000878152600160208181526040808420815160c08101835281546001600160a01b03168152938101549284019290925260028201549083015260038101546060830152600481015460808301526005015460ff16151560a08201529061140589611688565b6020830151604084015160608501518551608090960151929d919c509a50939850965094509092505050565b6060600061143e60065490565b67ffffffffffffffff811115611456576114566129de565b60405190808252806020026020018201604052801561147f578160200160208202803683370190505b509050600060015b60065481116114fb5760008181526005602052604090206004015460ff16156114e95760008181526005602052604090206001015483518490849081106114d0576114d0612c2f565b6020908102919091010152816114e581612c5b565b9250505b806114f381612c5b565b915050611487565b5080825260008167ffffffffffffffff81111561151a5761151a6129de565b604051908082528060200260200182016040528015611543578160200160208202803683370190505b50905060005b8281101561159a5783818151811061156357611563612c2f565b602002602001015182828151811061157d5761157d612c2f565b60209081029190910101528061159281612c5b565b915050611549565b509392505050565b6115aa6127c9565b6115b46000612823565b565b60008060015b6006548111611681576000818152600560205260409020600481015460ff1680156116575750600354600182015460405163cd90ab4b60e01b8152600481019190915286916001600160a01b03169063cd90ab4b90602401602060405180830381865afa158015611631573d6000803e3d6000fd5b505050506040513d601f19601f820116820180604052508101906116559190612c16565b145b1561166e57600281015461166b9084612c74565b92505b508061167981612c5b565b9150506115bc565b5092915050565b60035460405163cd90ab4b60e01b8152600481018390526000916001600160a01b03169063cd90ab4b90602401602060405180830381865afa1580156116d2573d6000803e3d6000fd5b505050506040513d601f19601f82011682018060405250810190610cd49190612c16565b6003546040516325601c3f60e21b81526001600160a01b038381166004830152606092169063958070fc9060240161104c565b6117666040518060a0016040528060008152602001600081526020016000815260200160006001600160a01b031681526020016000151581525090565b600354604051630698c1e960e01b8152600481018490526001600160a01b0390911690630698c1e99060240160a060405180830381865afa1580156117af573d6000803e3d6000fd5b505050506040513d601f19601f82011682018060405250810190610cd49190612f14565b600061131a60065490565b600083116117fe5760405162461bcd60e51b8152600401610aae90612f30565b6000821161185a5760405162461bcd60e51b8152602060048201526024808201527f4672756974746578204d61726b657420506c6163653a20496e76616c696420706044820152637269636560e01b6064820152608401610aae565b6003546040516331a9108f60e11b8152600481018690526000916001600160a01b031690636352211e90602401602060405180830381865afa1580156118a4573d6000803e3d6000fd5b505050506040513d601f19601f820116820180604052508101906118c89190612f79565b6001600160a01b0316036118ee5760405162461bcd60e51b8152600401610aae90612f96565b6003546040516331a9108f60e11b81526004810186905233916001600160a01b031690636352211e90602401602060405180830381865afa158015611937573d6000803e3d6000fd5b505050506040513d601f19601f8201168201806040525081019061195b9190612f79565b6001600160a01b0316146119815760405162461bcd60e51b8152600401610aae90612fdc565b60006119908262015180612d29565b61199a9042612c74565b9050600a548211156119be5760405162461bcd60e51b8152600401610aae90612c87565b600085815260056020819052604090912080546001600160a01b031916331781556001808201889055600282018790556003820186905591810183905560048101805460ff1916909217909155611a19600680546001019055565b6000611a2460075490565b905080341015611a8a5760405162461bcd60e51b815260206004820152602b60248201527f4654544d61726b65742053656c6c696e67204665653a20496e7375666669636960448201526a195b9d081c185e5b595b9d60aa1b6064820152608401610aae565b6008546040516001600160a01b039091169082156108fc029083906000818181858888f19350505050158015611ac4573d6000803e3d6000fd5b506040805187815260208101879052308183015260608101859052608081018390529051339189917f1b2e974a4809910e8fd8745d449784a89d78c74154f822e308b77e5739bf0eea9181900360a00190a350505050505050565b82518451148015611b31575081518351145b8015611b3e575080518251145b611b9e5760405162461bcd60e51b815260206004820152602b60248201527f4672756974746578204d61726b657420506c6163653a20496e76616c6964206960448201526a6e7075742061727261797360a81b6064820152608401610aae565b60005b8451811015611e85576000858281518110611bbe57611bbe612c2f565b602002602001015190506000858381518110611bdc57611bdc612c2f565b602002602001015190506000858481518110611bfa57611bfa612c2f565b602002602001015190506000858581518110611c1857611c18612c2f565b6020026020010151905060008311611c425760405162461bcd60e51b8152600401610aae90612f30565b6003546040516331a9108f60e11b8152600481018690526000916001600160a01b031690636352211e90602401602060405180830381865afa158015611c8c573d6000803e3d6000fd5b505050506040513d601f19601f82011682018060405250810190611cb09190612f79565b6001600160a01b031603611cd65760405162461bcd60e51b8152600401610aae90612f96565b6003546040516331a9108f60e11b81526004810186905233916001600160a01b031690636352211e90602401602060405180830381865afa158015611d1f573d6000803e3d6000fd5b505050506040513d601f19601f82011682018060405250810190611d439190612f79565b6001600160a01b031614611d695760405162461bcd60e51b8152600401610aae90612fdc565b6040805160c08101825233815260208082018781528284018781526060840187815260808501878152600160a0870181815260008d81529682905297909520955186546001600160a01b0319166001600160a01b039091161786559251858501559051600285015551600384015551600483015591516005909101805460ff1916911515919091179055600680549091019055604080518481526020810184905233918101919091526060810182905230608082015284907f88b93f38cc905bc2c90186d4b0c39554248dc3cce357d15cffb05b9c192a87e79060a00160405180910390a26000908152600260209081526040822080546001810182559083529120019290925550819050611e7d81612c5b565b915050611ba1565b5050505050565b600081815260016020526040812060028101546003820154919291611eb19190612d29565b600583015490915060ff16611f085760405162461bcd60e51b815260206004820181905260248201527f4654542054726164696e673a20436c61696d206973206e6f74206163746976656044820152606401610aae565b8154336001600160a01b0390911603611f335760405162461bcd60e51b8152600401610aae90612d75565b803414611f525760405162461bcd60e51b8152600401610aae90612db6565b60035482546040516323b872dd60e01b81526001600160a01b039182166004820152336024820152604481018690529116906323b872dd90606401600060405180830381600087803b158015611fa757600080fd5b505af1158015611fbb573d6000803e3d6000fd5b5050505060058201805460ff1916905533600081815260046020818152604083208054600181018255908452922090910185905583549084015460028501546001600160a01b039092169186917fad2c422ffd1872360b3bea3b84381832683fbced2483b1899ba553c3c9fb45a7918661203485611688565b60408051948552602085019390935291830152606082015230608082015260a00160405180910390a4505050565b6120a66040518060c0016040528060006001600160a01b03168152602001600081526020016000815260200160008152602001600015158152602001600081525090565b50600090815260056020818152604092839020835160c08101855281546001600160a01b0316815260018201549281019290925260028101549382019390935260038301546060820152600483015460ff161515608082015291015460a082015290565b600081815260026020526040812080546060929067ffffffffffffffff811115612136576121366129de565b60405190808252806020026020018201604052801561216957816020015b60608152602001906001900390816121545790505b50905060005b825481101561159a57600083828154811061218c5761218c612c2f565b60009182526020909120015460408051600480825260a08201909252919250816020016020820280368337019050508383815181106121cd576121cd612c2f565b6020026020010181905250808383815181106121eb576121eb612c2f565b602002602001015160008151811061220557612205612c2f565b602002602001018181525050600160008281526020019081526020016000206002015483838151811061223a5761223a612c2f565b602002602001015160018151811061225457612254612c2f565b602002602001018181525050600160008281526020019081526020016000206003015483838151811061228957612289612c2f565b60200260200101516002815181106122a3576122a3612c2f565b60209081029190910181019190915260008281526001909152604090206005015460ff166122d25760006122d5565b60015b60ff168383815181106122ea576122ea612c2f565b602002602001015160038151811061230457612304612c2f565b6020908102919091010152508061231a81612c5b565b91505061216f565b61232a6127c9565b600755565b6000818152600560205260408120600481015460ff166123615760405162461bcd60e51b8152600401610aae90612ce4565b806002015481600301546123759190612d29565b9392505050565b6060600061238960065490565b905060606000805b838110156123e45760006123a6826001612c74565b60008181526001602052604090206005015490915060ff16156123d157826123cd81612c5b565b9350505b50806123dc81612c5b565b915050612391565b50841561243f578067ffffffffffffffff811115612404576124046129de565b60405190808252806020026020018201604052801561243757816020015b60608152602001906001900390816124225790505b50915061248f565b8267ffffffffffffffff811115612458576124586129de565b60405190808252806020026020018201604052801561248b57816020015b60608152602001906001900390816124765790505b5091505b6000805b8481101561271b5760006124a8826001612c74565b60008181526001602052604090206005015490915060ff16806124c9575087155b156127085760408051600680825260e08201909252906020820160c080368337019050508584815181106124ff576124ff612c2f565b60200260200101819052508085848151811061251d5761251d612c2f565b602002602001015160008151811061253757612537612c2f565b602002602001018181525050600160008281526020019081526020016000206002015485848151811061256c5761256c612c2f565b602002602001015160018151811061258657612586612c2f565b60200260200101818152505060016000828152602001908152602001600020600301548584815181106125bb576125bb612c2f565b60200260200101516002815181106125d5576125d5612c2f565b60209081029190910181019190915260008281526001909152604090206005015460ff16612604576000612607565b60015b60ff1685848151811061261c5761261c612c2f565b602002602001015160038151811061263657612636612c2f565b60200260200101818152505061264b81611729565b6020015185848151811061266157612661612c2f565b602002602001015160048151811061267b5761267b612c2f565b6020026020010181815250506126c385848151811061269c5761269c612c2f565b60200260200101516004815181106126b6576126b6612c2f565b6020026020010151611688565b8584815181106126d5576126d5612c2f565b60200260200101516005815181106126ef576126ef612c2f565b60209081029190910101528261270481612c5b565b9350505b508061271381612c5b565b915050612493565b509195945050505050565b61272e6127c9565b6001600160a01b0381166127935760405162461bcd60e51b815260206004820152602660248201527f4f776e61626c653a206e6577206f776e657220697320746865207a65726f206160448201526564647265737360d01b6064820152608401610aae565b61279c81612823565b50565b6127a76127c9565b600380546001600160a01b0319166001600160a01b0392909216919091179055565b6000546001600160a01b031633146115b45760405162461bcd60e51b815260206004820181905260248201527f4f776e61626c653a2063616c6c6572206973206e6f7420746865206f776e65726044820152606401610aae565b600080546001600160a01b038381166001600160a01b0319831681178455604051919092169283917f8be0079c531659141344cd1fd0a4f28419497f9722a3daafe3b4186f6b6457e09190a35050565b60006020828403121561288557600080fd5b5035919050565b6020808252825182820181905260009190848201906040850190845b818110156128c4578351835292840192918401916001016128a8565b50909695505050505050565b600080604083850312156128e357600080fd5b50508035926020909101359150565b6001600160a01b038116811461279c57600080fd5b60006020828403121561291957600080fd5b8135612375816128f2565b8051825260208082015190830152604080820151908301526060808201516001600160a01b0316908301526080908101511515910152565b6020808252825182820181905260009190848201906040850190845b818110156128c45761298b838551612924565b9284019260a09290920191600101612978565b60a08101610cd48284612924565b600080600080608085870312156129c257600080fd5b5050823594602084013594506040840135936060013592509050565b634e487b7160e01b600052604160045260246000fd5b604051601f8201601f1916810167ffffffffffffffff81118282101715612a1d57612a1d6129de565b604052919050565b600067ffffffffffffffff821115612a3f57612a3f6129de565b5060051b60200190565b600082601f830112612a5a57600080fd5b81356020612a6f612a6a83612a25565b6129f4565b82815260059290921b84018101918181019086841115612a8e57600080fd5b8286015b84811015612aa95780358352918301918301612a92565b509695505050505050565b60008060008060808587031215612aca57600080fd5b843567ffffffffffffffff80821115612ae257600080fd5b612aee88838901612a49565b95506020870135915080821115612b0457600080fd5b612b1088838901612a49565b94506040870135915080821115612b2657600080fd5b612b3288838901612a49565b93506060870135915080821115612b4857600080fd5b50612b5587828801612a49565b91505092959194509250565b6000602080830181845280855180835260408601915060408160051b87010192508387016000805b83811015612bdd57888603603f19018552825180518088529088019088880190845b81811015612bc75783518352928a0192918a0191600101612bab565b5090975050509386019391860191600101612b89565b509398975050505050505050565b801515811461279c57600080fd5b600060208284031215612c0b57600080fd5b813561237581612beb565b600060208284031215612c2857600080fd5b5051919050565b634e487b7160e01b600052603260045260246000fd5b634e487b7160e01b600052601160045260246000fd5b600060018201612c6d57612c6d612c45565b5060010190565b80820180821115610cd457610cd4612c45565b60208082526038908201527f546f6b656e2073616c65206475726174696f6e2065786365656473207468652060408201527f6d6178696d756d206c696d6974206f6620363020646179730000000000000000606082015260800190565b60208082526025908201527f465454204d61726b657420506c6163653a204f72646572206973206e6f742061604082015264637469766560d81b606082015260800190565b8082028115828204841417610cd457610cd4612c45565b600082612d5d57634e487b7160e01b600052601260045260246000fd5b500490565b81810381811115610cd457610cd4612c45565b60208082526021908201527f4654542054726164696e673a2043616c6c6572206973207468652073656c6c656040820152603960f91b606082015260800190565b60208082526021908201527f4654542054726164696e673a20496e636f72726563742045544820616d6f756e6040820152601d60fa1b606082015260800190565b600060a08284031215612e0957600080fd5b60405160a0810181811067ffffffffffffffff82111715612e2c57612e2c6129de565b80604052508091508251815260208301516020820152604083015160408201526060830151612e5a816128f2565b60608201526080830151612e6d81612beb565b6080919091015292915050565b60006020808385031215612e8d57600080fd5b825167ffffffffffffffff811115612ea457600080fd5b8301601f81018513612eb557600080fd5b8051612ec3612a6a82612a25565b81815260a09182028301840191848201919088841115612ee257600080fd5b938501935b83851015612f0857612ef98986612df7565b83529384019391850191612ee7565b50979650505050505050565b600060a08284031215612f2657600080fd5b6123758383612df7565b60208082526029908201527f4672756974746578204d61726b657420506c6163653a20496e76616c696420746040820152681c99594818dbdd5b9d60ba1b606082015260800190565b600060208284031215612f8b57600080fd5b8151612375816128f2565b60208082526026908201527f465454204d61726b657420506c6163653a20496e76616c69642046545420746f6040820152651ad95b88125160d21b606082015260800190565b60208082526033908201527f465454204d61726b657420506c6163653a204f6e6c7920746865206f776e65726040820152721031b0b710383630b1b29030b71037b93232b960691b60608201526080019056fea264697066735822122044505f480fe6758eee48d5199c42251083a1720412b6bc24b1f1bae22806eb0664736f6c63430008120033",
			"opcodes": "PUSH1 0x80 PUSH1 0x40 MSTORE PUSH3 0x4F1A00 PUSH1 0xA SSTORE CALLVALUE DUP1 ISZERO PUSH3 0x18 JUMPI PUSH1 0x0 DUP1 REVERT JUMPDEST POP PUSH1 0x40 MLOAD PUSH3 0x3189 CODESIZE SUB DUP1 PUSH3 0x3189 DUP4 CODECOPY DUP2 ADD PUSH1 0x40 DUP2 SWAP1 MSTORE PUSH3 0x3B SWAP2 PUSH3 0xCF JUMP JUMPDEST PUSH3 0x46 CALLER PUSH3 0x7F JUMP JUMPDEST PUSH1 0x3 DUP1 SLOAD PUSH1 0x1 PUSH1 0x1 PUSH1 0xA0 SHL SUB SWAP1 SWAP5 AND PUSH1 0x1 PUSH1 0x1 PUSH1 0xA0 SHL SUB NOT SWAP5 DUP6 AND OR SWAP1 SSTORE PUSH1 0x7 SWAP2 SWAP1 SWAP2 SSTORE PUSH1 0x8 DUP1 SLOAD SWAP1 SWAP3 AND CALLER OR SWAP1 SWAP2 SSTORE PUSH1 0x9 SSTORE PUSH3 0x114 JUMP JUMPDEST PUSH1 0x0 DUP1 SLOAD PUSH1 0x1 PUSH1 0x1 PUSH1 0xA0 SHL SUB DUP4 DUP2 AND PUSH1 0x1 PUSH1 0x1 PUSH1 0xA0 SHL SUB NOT DUP4 AND DUP2 OR DUP5 SSTORE PUSH1 0x40 MLOAD SWAP2 SWAP1 SWAP3 AND SWAP3 DUP4 SWAP2 PUSH32 0x8BE0079C531659141344CD1FD0A4F28419497F9722A3DAAFE3B4186F6B6457E0 SWAP2 SWAP1 LOG3 POP POP JUMP JUMPDEST PUSH1 0x0 DUP1 PUSH1 0x0 PUSH1 0x60 DUP5 DUP7 SUB SLT ISZERO PUSH3 0xE5 JUMPI PUSH1 0x0 DUP1 REVERT JUMPDEST DUP4 MLOAD PUSH1 0x1 PUSH1 0x1 PUSH1 0xA0 SHL SUB DUP2 AND DUP2 EQ PUSH3 0xFD JUMPI PUSH1 0x0 DUP1 REVERT JUMPDEST PUSH1 0x20 DUP6 ADD MLOAD PUSH1 0x40 SWAP1 SWAP6 ADD MLOAD SWAP1 SWAP7 SWAP5 SWAP6 POP SWAP4 SWAP3 POP POP POP JUMP JUMPDEST PUSH2 0x3065 DUP1 PUSH3 0x124 PUSH1 0x0 CODECOPY PUSH1 0x0 RETURN INVALID PUSH1 0x80 PUSH1 0x40 MSTORE PUSH1 0x4 CALLDATASIZE LT PUSH2 0x23F JUMPI PUSH1 0x0 CALLDATALOAD PUSH1 0xE0 SHR DUP1 PUSH4 0x7665BEEA GT PUSH2 0x12E JUMPI DUP1 PUSH4 0xC457FB37 GT PUSH2 0xAB JUMPI DUP1 PUSH4 0xE686DF8C GT PUSH2 0x6F JUMPI DUP1 PUSH4 0xE686DF8C EQ PUSH2 0x7D0 JUMPI DUP1 PUSH4 0xE98C89F9 EQ PUSH2 0x7F0 JUMPI DUP1 PUSH4 0xF2FDE38B EQ PUSH2 0x810 JUMPI DUP1 PUSH4 0xFB76694E EQ PUSH2 0x830 JUMPI DUP1 PUSH4 0xFC6E33EE EQ PUSH2 0x850 JUMPI PUSH1 0x0 DUP1 REVERT JUMPDEST DUP1 PUSH4 0xC457FB37 EQ PUSH2 0x69E JUMPI DUP1 PUSH4 0xD09EF241 EQ PUSH2 0x6CE JUMPI DUP1 PUSH4 0xD6E43585 EQ PUSH2 0x740 JUMPI DUP1 PUSH4 0xD92491E4 EQ PUSH2 0x783 JUMPI DUP1 PUSH4 0xDA6A0BEE EQ PUSH2 0x7B0 JUMPI PUSH1 0x0 DUP1 REVERT JUMPDEST DUP1 PUSH4 0x97583564 GT PUSH2 0xF2 JUMPI DUP1 PUSH4 0x97583564 EQ PUSH2 0x623 JUMPI DUP1 PUSH4 0xA8DB716F EQ PUSH2 0x650 JUMPI DUP1 PUSH4 0xA8EF32FB EQ PUSH2 0x665 JUMPI DUP1 PUSH4 0xA983AB67 EQ PUSH2 0x678 JUMPI DUP1 PUSH4 0xA9E7C2E5 EQ PUSH2 0x68B JUMPI PUSH1 0x0 DUP1 REVERT JUMPDEST DUP1 PUSH4 0x7665BEEA EQ PUSH2 0x56F JUMPI DUP1 PUSH4 0x7B672860 EQ PUSH2 0x5A5 JUMPI DUP1 PUSH4 0x88647742 EQ PUSH2 0x5C5 JUMPI DUP1 PUSH4 0x8DA5CB5B EQ PUSH2 0x5E5 JUMPI DUP1 PUSH4 0x958070FC EQ PUSH2 0x603 JUMPI PUSH1 0x0 DUP1 REVERT JUMPDEST DUP1 PUSH4 0x45CF084B GT PUSH2 0x1BC JUMPI DUP1 PUSH4 0x546377B6 GT PUSH2 0x180 JUMPI DUP1 PUSH4 0x546377B6 EQ PUSH2 0x4C5 JUMPI DUP1 PUSH4 0x5756EEEE EQ PUSH2 0x4DA JUMPI DUP1 PUSH4 0x5AEF2447 EQ PUSH2 0x4EF JUMPI DUP1 PUSH4 0x65E4E1C0 EQ PUSH2 0x545 JUMPI DUP1 PUSH4 0x715018A6 EQ PUSH2 0x55A JUMPI PUSH1 0x0 DUP1 REVERT JUMPDEST DUP1 PUSH4 0x45CF084B EQ PUSH2 0x3D6 JUMPI DUP1 PUSH4 0x48EDEA7D EQ PUSH2 0x438 JUMPI DUP1 PUSH4 0x514FCAC7 EQ PUSH2 0x465 JUMPI DUP1 PUSH4 0x533761FE EQ PUSH2 0x485 JUMPI DUP1 PUSH4 0x544318A9 EQ PUSH2 0x4A5 JUMPI PUSH1 0x0 DUP1 REVERT JUMPDEST DUP1 PUSH4 0x28695D30 GT PUSH2 0x203 JUMPI DUP1 PUSH4 0x28695D30 EQ PUSH2 0x331 JUMPI DUP1 PUSH4 0x2D296BF1 EQ PUSH2 0x377 JUMPI DUP1 PUSH4 0x36BFC264 EQ PUSH2 0x38C JUMPI DUP1 PUSH4 0x3CCFD60B EQ PUSH2 0x3AC JUMPI DUP1 PUSH4 0x43BBC006 EQ PUSH2 0x3C1 JUMPI PUSH1 0x0 DUP1 REVERT JUMPDEST DUP1 PUSH4 0x5E891FD EQ PUSH2 0x284 JUMPI DUP1 PUSH4 0xAC9F6F2 EQ PUSH2 0x2BA JUMPI DUP1 PUSH4 0x2406E677 EQ PUSH2 0x2F9 JUMPI DUP1 PUSH4 0x24A0923B EQ PUSH2 0x331 JUMPI DUP1 PUSH4 0x26E798D0 EQ PUSH2 0x361 JUMPI PUSH1 0x0 DUP1 REVERT JUMPDEST CALLDATASIZE PUSH2 0x27F JUMPI PUSH1 0x40 DUP1 MLOAD CALLVALUE DUP2 MSTORE PUSH1 0x0 PUSH1 0x20 DUP3 ADD MSTORE PUSH32 0x3AAD5BF86A4C254558C515448B369454EAA49DD13EFE7B83364DC589B9305063 SWAP2 ADD PUSH1 0x40 MLOAD DUP1 SWAP2 SUB SWAP1 LOG1 STOP JUMPDEST PUSH1 0x0 DUP1 REVERT JUMPDEST CALLVALUE DUP1 ISZERO PUSH2 0x290 JUMPI PUSH1 0x0 DUP1 REVERT JUMPDEST POP PUSH2 0x2A4 PUSH2 0x29F CALLDATASIZE PUSH1 0x4 PUSH2 0x2873 JUMP JUMPDEST PUSH2 0x866 JUMP JUMPDEST PUSH1 0x40 MLOAD PUSH2 0x2B1 SWAP2 SWAP1 PUSH2 0x288C JUMP JUMPDEST PUSH1 0x40 MLOAD DUP1 SWAP2 SUB SWAP1 RETURN JUMPDEST CALLVALUE DUP1 ISZERO PUSH2 0x2C6 JUMPI PUSH1 0x0 DUP1 REVERT JUMPDEST POP PUSH2 0x2EB PUSH2 0x2D5 CALLDATASIZE PUSH1 0x4 PUSH2 0x2873 JUMP JUMPDEST PUSH1 0x0 SWAP1 DUP2 MSTORE PUSH1 0x5 PUSH1 0x20 DUP2 SWAP1 MSTORE PUSH1 0x40 SWAP1 SWAP2 KECCAK256 ADD SLOAD SWAP1 JUMP JUMPDEST PUSH1 0x40 MLOAD SWAP1 DUP2 MSTORE PUSH1 0x20 ADD PUSH2 0x2B1 JUMP JUMPDEST CALLVALUE DUP1 ISZERO PUSH2 0x305 JUMPI PUSH1 0x0 DUP1 REVERT JUMPDEST POP PUSH2 0x319 PUSH2 0x314 CALLDATASIZE PUSH1 0x4 PUSH2 0x28D0 JUMP JUMPDEST PUSH2 0xA62 JUMP JUMPDEST PUSH1 0x40 MLOAD PUSH1 0x1 PUSH1 0x1 PUSH1 0xA0 SHL SUB SWAP1 SWAP2 AND DUP2 MSTORE PUSH1 0x20 ADD PUSH2 0x2B1 JUMP JUMPDEST CALLVALUE DUP1 ISZERO PUSH2 0x33D JUMPI PUSH1 0x0 DUP1 REVERT JUMPDEST POP PUSH2 0x2EB PUSH2 0x34C CALLDATASIZE PUSH1 0x4 PUSH2 0x2873 JUMP JUMPDEST PUSH1 0x0 SWAP1 DUP2 MSTORE PUSH1 0x5 PUSH1 0x20 MSTORE PUSH1 0x40 SWAP1 KECCAK256 PUSH1 0x2 ADD SLOAD SWAP1 JUMP JUMPDEST CALLVALUE DUP1 ISZERO PUSH2 0x36D JUMPI PUSH1 0x0 DUP1 REVERT JUMPDEST POP PUSH2 0x2EB PUSH1 0x9 SLOAD DUP2 JUMP JUMPDEST PUSH2 0x38A PUSH2 0x385 CALLDATASIZE PUSH1 0x4 PUSH2 0x2873 JUMP JUMPDEST PUSH2 0xCDA JUMP JUMPDEST STOP JUMPDEST CALLVALUE DUP1 ISZERO PUSH2 0x398 JUMPI PUSH1 0x0 DUP1 REVERT JUMPDEST POP PUSH2 0x38A PUSH2 0x3A7 CALLDATASIZE PUSH1 0x4 PUSH2 0x2907 JUMP JUMPDEST PUSH2 0xF56 JUMP JUMPDEST CALLVALUE DUP1 ISZERO PUSH2 0x3B8 JUMPI PUSH1 0x0 DUP1 REVERT JUMPDEST POP PUSH2 0x38A PUSH2 0xF80 JUMP JUMPDEST CALLVALUE DUP1 ISZERO PUSH2 0x3CD JUMPI PUSH1 0x0 DUP1 REVERT JUMPDEST POP PUSH1 0x7 SLOAD PUSH2 0x2EB JUMP JUMPDEST CALLVALUE DUP1 ISZERO PUSH2 0x3E2 JUMPI PUSH1 0x0 DUP1 REVERT JUMPDEST POP PUSH2 0x418 PUSH2 0x3F1 CALLDATASIZE PUSH1 0x4 PUSH2 0x2873 JUMP JUMPDEST PUSH1 0xB PUSH1 0x20 MSTORE PUSH1 0x0 SWAP1 DUP2 MSTORE PUSH1 0x40 SWAP1 KECCAK256 DUP1 SLOAD PUSH1 0x1 DUP3 ADD SLOAD PUSH1 0x2 DUP4 ADD SLOAD PUSH1 0x3 SWAP1 SWAP4 ADD SLOAD SWAP2 SWAP3 SWAP1 SWAP2 DUP5 JUMP JUMPDEST PUSH1 0x40 DUP1 MLOAD SWAP5 DUP6 MSTORE PUSH1 0x20 DUP6 ADD SWAP4 SWAP1 SWAP4 MSTORE SWAP2 DUP4 ADD MSTORE PUSH1 0x60 DUP3 ADD MSTORE PUSH1 0x80 ADD PUSH2 0x2B1 JUMP JUMPDEST CALLVALUE DUP1 ISZERO PUSH2 0x444 JUMPI PUSH1 0x0 DUP1 REVERT JUMPDEST POP PUSH2 0x458 PUSH2 0x453 CALLDATASIZE PUSH1 0x4 PUSH2 0x2873 JUMP JUMPDEST PUSH2 0x101E JUMP JUMPDEST PUSH1 0x40 MLOAD PUSH2 0x2B1 SWAP2 SWAP1 PUSH2 0x295C JUMP JUMPDEST CALLVALUE DUP1 ISZERO PUSH2 0x471 JUMPI PUSH1 0x0 DUP1 REVERT JUMPDEST POP PUSH2 0x38A PUSH2 0x480 CALLDATASIZE PUSH1 0x4 PUSH2 0x2873 JUMP JUMPDEST PUSH2 0x1091 JUMP JUMPDEST CALLVALUE DUP1 ISZERO PUSH2 0x491 JUMPI PUSH1 0x0 DUP1 REVERT JUMPDEST POP PUSH2 0x38A PUSH2 0x4A0 CALLDATASIZE PUSH1 0x4 PUSH2 0x2873 JUMP JUMPDEST PUSH2 0x11C8 JUMP JUMPDEST CALLVALUE DUP1 ISZERO PUSH2 0x4B1 JUMPI PUSH1 0x0 DUP1 REVERT JUMPDEST POP PUSH2 0x38A PUSH2 0x4C0 CALLDATASIZE PUSH1 0x4 PUSH2 0x2873 JUMP JUMPDEST PUSH2 0x11D5 JUMP JUMPDEST CALLVALUE DUP1 ISZERO PUSH2 0x4D1 JUMPI PUSH1 0x0 DUP1 REVERT JUMPDEST POP PUSH2 0x2EB PUSH2 0x123E JUMP JUMPDEST CALLVALUE DUP1 ISZERO PUSH2 0x4E6 JUMPI PUSH1 0x0 DUP1 REVERT JUMPDEST POP PUSH2 0x458 PUSH2 0x12A8 JUMP JUMPDEST CALLVALUE DUP1 ISZERO PUSH2 0x4FB JUMPI PUSH1 0x0 DUP1 REVERT JUMPDEST POP PUSH2 0x50F PUSH2 0x50A CALLDATASIZE PUSH1 0x4 PUSH2 0x2873 JUMP JUMPDEST PUSH2 0x131F JUMP JUMPDEST PUSH1 0x40 DUP1 MLOAD SWAP7 DUP8 MSTORE PUSH1 0x20 DUP8 ADD SWAP6 SWAP1 SWAP6 MSTORE SWAP4 DUP6 ADD SWAP3 SWAP1 SWAP3 MSTORE PUSH1 0x1 PUSH1 0x1 PUSH1 0xA0 SHL SUB AND PUSH1 0x60 DUP5 ADD MSTORE PUSH1 0x80 DUP4 ADD MSTORE PUSH1 0xA0 DUP3 ADD MSTORE PUSH1 0xC0 ADD PUSH2 0x2B1 JUMP JUMPDEST CALLVALUE DUP1 ISZERO PUSH2 0x551 JUMPI PUSH1 0x0 DUP1 REVERT JUMPDEST POP PUSH2 0x2A4 PUSH2 0x1431 JUMP JUMPDEST CALLVALUE DUP1 ISZERO PUSH2 0x566 JUMPI PUSH1 0x0 DUP1 REVERT JUMPDEST POP PUSH2 0x38A PUSH2 0x15A2 JUMP JUMPDEST CALLVALUE DUP1 ISZERO PUSH2 0x57B JUMPI PUSH1 0x0 DUP1 REVERT JUMPDEST POP PUSH2 0x319 PUSH2 0x58A CALLDATASIZE PUSH1 0x4 PUSH2 0x2873 JUMP JUMPDEST PUSH1 0x0 SWAP1 DUP2 MSTORE PUSH1 0x5 PUSH1 0x20 MSTORE PUSH1 0x40 SWAP1 KECCAK256 SLOAD PUSH1 0x1 PUSH1 0x1 PUSH1 0xA0 SHL SUB AND SWAP1 JUMP JUMPDEST CALLVALUE DUP1 ISZERO PUSH2 0x5B1 JUMPI PUSH1 0x0 DUP1 REVERT JUMPDEST POP PUSH2 0x2EB PUSH2 0x5C0 CALLDATASIZE PUSH1 0x4 PUSH2 0x2873 JUMP JUMPDEST PUSH2 0x15B6 JUMP JUMPDEST CALLVALUE DUP1 ISZERO PUSH2 0x5D1 JUMPI PUSH1 0x0 DUP1 REVERT JUMPDEST POP PUSH2 0x2EB PUSH2 0x5E0 CALLDATASIZE PUSH1 0x4 PUSH2 0x2873 JUMP JUMPDEST PUSH2 0x1688 JUMP JUMPDEST CALLVALUE DUP1 ISZERO PUSH2 0x5F1 JUMPI PUSH1 0x0 DUP1 REVERT JUMPDEST POP PUSH1 0x0 SLOAD PUSH1 0x1 PUSH1 0x1 PUSH1 0xA0 SHL SUB AND PUSH2 0x319 JUMP JUMPDEST CALLVALUE DUP1 ISZERO PUSH2 0x60F JUMPI PUSH1 0x0 DUP1 REVERT JUMPDEST POP PUSH2 0x458 PUSH2 0x61E CALLDATASIZE PUSH1 0x4 PUSH2 0x2907 JUMP JUMPDEST PUSH2 0x16F6 JUMP JUMPDEST CALLVALUE DUP1 ISZERO PUSH2 0x62F JUMPI PUSH1 0x0 DUP1 REVERT JUMPDEST POP PUSH2 0x643 PUSH2 0x63E CALLDATASIZE PUSH1 0x4 PUSH2 0x2873 JUMP JUMPDEST PUSH2 0x1729 JUMP JUMPDEST PUSH1 0x40 MLOAD PUSH2 0x2B1 SWAP2 SWAP1 PUSH2 0x299E JUMP JUMPDEST CALLVALUE DUP1 ISZERO PUSH2 0x65C JUMPI PUSH1 0x0 DUP1 REVERT JUMPDEST POP PUSH2 0x2EB PUSH2 0x17D3 JUMP JUMPDEST PUSH2 0x38A PUSH2 0x673 CALLDATASIZE PUSH1 0x4 PUSH2 0x29AC JUMP JUMPDEST PUSH2 0x17DE JUMP JUMPDEST PUSH2 0x38A PUSH2 0x686 CALLDATASIZE PUSH1 0x4 PUSH2 0x2AB4 JUMP JUMPDEST PUSH2 0x1B1F JUMP JUMPDEST PUSH2 0x38A PUSH2 0x699 CALLDATASIZE PUSH1 0x4 PUSH2 0x2873 JUMP JUMPDEST PUSH2 0x1E8C JUMP JUMPDEST CALLVALUE DUP1 ISZERO PUSH2 0x6AA JUMPI PUSH1 0x0 DUP1 REVERT JUMPDEST POP PUSH2 0x2EB PUSH2 0x6B9 CALLDATASIZE PUSH1 0x4 PUSH2 0x2873 JUMP JUMPDEST PUSH1 0x0 SWAP1 DUP2 MSTORE PUSH1 0x5 PUSH1 0x20 MSTORE PUSH1 0x40 SWAP1 KECCAK256 PUSH1 0x3 ADD SLOAD SWAP1 JUMP JUMPDEST CALLVALUE DUP1 ISZERO PUSH2 0x6DA JUMPI PUSH1 0x0 DUP1 REVERT JUMPDEST POP PUSH2 0x6EE PUSH2 0x6E9 CALLDATASIZE PUSH1 0x4 PUSH2 0x2873 JUMP JUMPDEST PUSH2 0x2062 JUMP JUMPDEST PUSH1 0x40 MLOAD PUSH2 0x2B1 SWAP2 SWAP1 DUP2 MLOAD PUSH1 0x1 PUSH1 0x1 PUSH1 0xA0 SHL SUB AND DUP2 MSTORE PUSH1 0x20 DUP1 DUP4 ADD MLOAD SWAP1 DUP3 ADD MSTORE PUSH1 0x40 DUP1 DUP4 ADD MLOAD SWAP1 DUP3 ADD MSTORE PUSH1 0x60 DUP1 DUP4 ADD MLOAD SWAP1 DUP3 ADD MSTORE PUSH1 0x80 DUP1 DUP4 ADD MLOAD ISZERO ISZERO SWAP1 DUP3 ADD MSTORE PUSH1 0xA0 SWAP2 DUP3 ADD MLOAD SWAP2 DUP2 ADD SWAP2 SWAP1 SWAP2 MSTORE PUSH1 0xC0 ADD SWAP1 JUMP JUMPDEST CALLVALUE DUP1 ISZERO PUSH2 0x74C JUMPI PUSH1 0x0 DUP1 REVERT JUMPDEST POP PUSH2 0x773 PUSH2 0x75B CALLDATASIZE PUSH1 0x4 PUSH2 0x2873 JUMP JUMPDEST PUSH1 0x0 SWAP1 DUP2 MSTORE PUSH1 0x5 PUSH1 0x20 MSTORE PUSH1 0x40 SWAP1 KECCAK256 PUSH1 0x4 ADD SLOAD PUSH1 0xFF AND SWAP1 JUMP JUMPDEST PUSH1 0x40 MLOAD SWAP1 ISZERO ISZERO DUP2 MSTORE PUSH1 0x20 ADD PUSH2 0x2B1 JUMP JUMPDEST CALLVALUE DUP1 ISZERO PUSH2 0x78F JUMPI PUSH1 0x0 DUP1 REVERT JUMPDEST POP PUSH2 0x7A3 PUSH2 0x79E CALLDATASIZE PUSH1 0x4 PUSH2 0x2873 JUMP JUMPDEST PUSH2 0x210A JUMP JUMPDEST PUSH1 0x40 MLOAD PUSH2 0x2B1 SWAP2 SWAP1 PUSH2 0x2B61 JUMP JUMPDEST CALLVALUE DUP1 ISZERO PUSH2 0x7BC JUMPI PUSH1 0x0 DUP1 REVERT JUMPDEST POP PUSH2 0x38A PUSH2 0x7CB CALLDATASIZE PUSH1 0x4 PUSH2 0x2873 JUMP JUMPDEST PUSH2 0x2322 JUMP JUMPDEST CALLVALUE DUP1 ISZERO PUSH2 0x7DC JUMPI PUSH1 0x0 DUP1 REVERT JUMPDEST POP PUSH2 0x2EB PUSH2 0x7EB CALLDATASIZE PUSH1 0x4 PUSH2 0x2873 JUMP JUMPDEST PUSH2 0x232F JUMP JUMPDEST CALLVALUE DUP1 ISZERO PUSH2 0x7FC JUMPI PUSH1 0x0 DUP1 REVERT JUMPDEST POP PUSH2 0x7A3 PUSH2 0x80B CALLDATASIZE PUSH1 0x4 PUSH2 0x2BF9 JUMP JUMPDEST PUSH2 0x237C JUMP JUMPDEST CALLVALUE DUP1 ISZERO PUSH2 0x81C JUMPI PUSH1 0x0 DUP1 REVERT JUMPDEST POP PUSH2 0x38A PUSH2 0x82B CALLDATASIZE PUSH1 0x4 PUSH2 0x2907 JUMP JUMPDEST PUSH2 0x2726 JUMP JUMPDEST CALLVALUE DUP1 ISZERO PUSH2 0x83C JUMPI PUSH1 0x0 DUP1 REVERT JUMPDEST POP PUSH2 0x38A PUSH2 0x84B CALLDATASIZE PUSH1 0x4 PUSH2 0x2907 JUMP JUMPDEST PUSH2 0x279F JUMP JUMPDEST CALLVALUE DUP1 ISZERO PUSH2 0x85C JUMPI PUSH1 0x0 DUP1 REVERT JUMPDEST POP PUSH2 0x2EB PUSH1 0xA SLOAD DUP2 JUMP JUMPDEST PUSH1 0x60 PUSH1 0x0 PUSH2 0x873 PUSH1 0x6 SLOAD SWAP1 JUMP JUMPDEST PUSH8 0xFFFFFFFFFFFFFFFF DUP2 GT ISZERO PUSH2 0x88B JUMPI PUSH2 0x88B PUSH2 0x29DE JUMP JUMPDEST PUSH1 0x40 MLOAD SWAP1 DUP1 DUP3 MSTORE DUP1 PUSH1 0x20 MUL PUSH1 0x20 ADD DUP3 ADD PUSH1 0x40 MSTORE DUP1 ISZERO PUSH2 0x8B4 JUMPI DUP2 PUSH1 0x20 ADD PUSH1 0x20 DUP3 MUL DUP1 CALLDATASIZE DUP4 CALLDATACOPY ADD SWAP1 POP JUMPDEST POP SWAP1 POP PUSH1 0x0 PUSH1 0x1 JUMPDEST PUSH1 0x6 SLOAD DUP2 GT PUSH2 0x9BA JUMPI PUSH1 0x0 DUP2 DUP2 MSTORE PUSH1 0x5 PUSH1 0x20 MSTORE PUSH1 0x40 SWAP1 KECCAK256 PUSH1 0x4 ADD SLOAD PUSH1 0xFF AND DUP1 ISZERO PUSH2 0x964 JUMPI POP PUSH1 0x3 SLOAD PUSH1 0x0 DUP3 DUP2 MSTORE PUSH1 0x5 PUSH1 0x20 MSTORE PUSH1 0x40 SWAP1 DUP2 SWAP1 KECCAK256 PUSH1 0x1 ADD SLOAD SWAP1 MLOAD PUSH4 0xCD90AB4B PUSH1 0xE0 SHL DUP2 MSTORE PUSH1 0x4 DUP2 ADD SWAP2 SWAP1 SWAP2 MSTORE DUP7 SWAP2 PUSH1 0x1 PUSH1 0x1 PUSH1 0xA0 SHL SUB AND SWAP1 PUSH4 0xCD90AB4B SWAP1 PUSH1 0x24 ADD PUSH1 0x20 PUSH1 0x40 MLOAD DUP1 DUP4 SUB DUP2 DUP7 GAS STATICCALL ISZERO DUP1 ISZERO PUSH2 0x93E JUMPI RETURNDATASIZE PUSH1 0x0 DUP1 RETURNDATACOPY RETURNDATASIZE PUSH1 0x0 REVERT JUMPDEST POP POP POP POP PUSH1 0x40 MLOAD RETURNDATASIZE PUSH1 0x1F NOT PUSH1 0x1F DUP3 ADD AND DUP3 ADD DUP1 PUSH1 0x40 MSTORE POP DUP2 ADD SWAP1 PUSH2 0x962 SWAP2 SWAP1 PUSH2 0x2C16 JUMP JUMPDEST EQ JUMPDEST ISZERO PUSH2 0x9A8 JUMPI PUSH1 0x0 DUP2 DUP2 MSTORE PUSH1 0x5 PUSH1 0x20 MSTORE PUSH1 0x40 SWAP1 KECCAK256 PUSH1 0x1 ADD SLOAD DUP4 MLOAD DUP5 SWAP1 DUP5 SWAP1 DUP2 LT PUSH2 0x98F JUMPI PUSH2 0x98F PUSH2 0x2C2F JUMP JUMPDEST PUSH1 0x20 SWAP1 DUP2 MUL SWAP2 SWAP1 SWAP2 ADD ADD MSTORE DUP2 PUSH2 0x9A4 DUP2 PUSH2 0x2C5B JUMP JUMPDEST SWAP3 POP POP JUMPDEST DUP1 PUSH2 0x9B2 DUP2 PUSH2 0x2C5B JUMP JUMPDEST SWAP2 POP POP PUSH2 0x8BC JUMP JUMPDEST POP DUP1 DUP3 MSTORE PUSH1 0x0 DUP2 PUSH8 0xFFFFFFFFFFFFFFFF DUP2 GT ISZERO PUSH2 0x9D9 JUMPI PUSH2 0x9D9 PUSH2 0x29DE JUMP JUMPDEST PUSH1 0x40 MLOAD SWAP1 DUP1 DUP3 MSTORE DUP1 PUSH1 0x20 MUL PUSH1 0x20 ADD DUP3 ADD PUSH1 0x40 MSTORE DUP1 ISZERO PUSH2 0xA02 JUMPI DUP2 PUSH1 0x20 ADD PUSH1 0x20 DUP3 MUL DUP1 CALLDATASIZE DUP4 CALLDATACOPY ADD SWAP1 POP JUMPDEST POP SWAP1 POP PUSH1 0x0 JUMPDEST DUP3 DUP2 LT ISZERO PUSH2 0xA59 JUMPI DUP4 DUP2 DUP2 MLOAD DUP2 LT PUSH2 0xA22 JUMPI PUSH2 0xA22 PUSH2 0x2C2F JUMP JUMPDEST PUSH1 0x20 MUL PUSH1 0x20 ADD ADD MLOAD DUP3 DUP3 DUP2 MLOAD DUP2 LT PUSH2 0xA3C JUMPI PUSH2 0xA3C PUSH2 0x2C2F JUMP JUMPDEST PUSH1 0x20 SWAP1 DUP2 MUL SWAP2 SWAP1 SWAP2 ADD ADD MSTORE DUP1 PUSH2 0xA51 DUP2 PUSH2 0x2C5B JUMP JUMPDEST SWAP2 POP POP PUSH2 0xA08 JUMP JUMPDEST POP SWAP5 SWAP4 POP POP POP POP JUMP JUMPDEST PUSH1 0x0 DUP3 DUP2 MSTORE PUSH1 0x5 PUSH1 0x20 MSTORE PUSH1 0x40 DUP2 KECCAK256 PUSH1 0xA SLOAD DUP3 SWAP1 PUSH2 0xA7F SWAP1 TIMESTAMP PUSH2 0x2C74 JUMP JUMPDEST SWAP1 POP PUSH1 0xA SLOAD TIMESTAMP PUSH2 0xA8F SWAP2 SWAP1 PUSH2 0x2C74 JUMP JUMPDEST DUP2 GT ISZERO PUSH2 0xAB7 JUMPI PUSH1 0x40 MLOAD PUSH3 0x461BCD PUSH1 0xE5 SHL DUP2 MSTORE PUSH1 0x4 ADD PUSH2 0xAAE SWAP1 PUSH2 0x2C87 JUMP JUMPDEST PUSH1 0x40 MLOAD DUP1 SWAP2 SUB SWAP1 REVERT JUMPDEST PUSH1 0x4 DUP3 ADD SLOAD PUSH1 0xFF AND PUSH2 0xADB JUMPI PUSH1 0x40 MLOAD PUSH3 0x461BCD PUSH1 0xE5 SHL DUP2 MSTORE PUSH1 0x4 ADD PUSH2 0xAAE SWAP1 PUSH2 0x2CE4 JUMP JUMPDEST DUP2 SLOAD PUSH1 0x1 PUSH1 0x1 PUSH1 0xA0 SHL SUB AND CALLER EQ PUSH2 0xB47 JUMPI PUSH1 0x40 MLOAD PUSH3 0x461BCD PUSH1 0xE5 SHL DUP2 MSTORE PUSH1 0x20 PUSH1 0x4 DUP3 ADD MSTORE PUSH1 0x2A PUSH1 0x24 DUP3 ADD MSTORE PUSH32 0x465454204D61726B657420506C6163653A2043616C6C6572206973206E6F7420 PUSH1 0x44 DUP3 ADD MSTORE PUSH10 0x3A34329039B2B63632B9 PUSH1 0xB1 SHL PUSH1 0x64 DUP3 ADD MSTORE PUSH1 0x84 ADD PUSH2 0xAAE JUMP JUMPDEST PUSH1 0x0 DUP5 GT PUSH2 0xB97 JUMPI PUSH1 0x40 MLOAD PUSH3 0x461BCD PUSH1 0xE5 SHL DUP2 MSTORE PUSH1 0x20 PUSH1 0x4 DUP3 ADD MSTORE PUSH1 0x1F PUSH1 0x24 DUP3 ADD MSTORE PUSH32 0x465454204D61726B657420506C6163653A20496E76616C696420707269636500 PUSH1 0x44 DUP3 ADD MSTORE PUSH1 0x64 ADD PUSH2 0xAAE JUMP JUMPDEST DUP4 DUP3 PUSH1 0x3 ADD SLOAD SUB PUSH2 0xC10 JUMPI PUSH1 0x40 MLOAD PUSH3 0x461BCD PUSH1 0xE5 SHL DUP2 MSTORE PUSH1 0x20 PUSH1 0x4 DUP3 ADD MSTORE PUSH1 0x37 PUSH1 0x24 DUP3 ADD MSTORE PUSH32 0x465454204D61726B657420506C6163653A204F7264657220697320616C726561 PUSH1 0x44 DUP3 ADD MSTORE PUSH32 0x6479206C69737465642061742074686973207072696365000000000000000000 PUSH1 0x64 DUP3 ADD MSTORE PUSH1 0x84 ADD PUSH2 0xAAE JUMP JUMPDEST PUSH1 0x3 DUP1 DUP4 ADD DUP6 SWAP1 SSTORE PUSH1 0x40 DUP1 MLOAD PUSH1 0x80 DUP2 ADD DUP3 MSTORE DUP8 DUP2 MSTORE PUSH1 0x2 DUP1 DUP7 ADD DUP1 SLOAD PUSH1 0x20 DUP1 DUP6 ADD SWAP2 DUP3 MSTORE DUP5 DUP7 ADD DUP12 DUP2 MSTORE PUSH1 0x60 DUP7 ADD DUP10 DUP2 MSTORE PUSH1 0x0 DUP15 DUP2 MSTORE PUSH1 0xB SWAP1 SWAP4 MSTORE SWAP2 DUP8 SWAP1 KECCAK256 SWAP6 MLOAD DUP7 SSTORE SWAP2 MLOAD PUSH1 0x1 DUP7 ADD SSTORE SWAP1 MLOAD SWAP3 DUP5 ADD SWAP3 SWAP1 SWAP3 SSTORE SWAP1 MLOAD SWAP2 SWAP1 SWAP4 ADD SSTORE SWAP1 SLOAD PUSH1 0x5 DUP5 ADD SLOAD SWAP2 MLOAD CALLER SWAP3 DUP9 SWAP3 PUSH32 0x226CFEAD5B348CB0BBEEC0711057A037D01A7CD48398473621E26FA6801C80CF SWAP3 PUSH2 0xCC6 SWAP3 DUP11 SWAP2 ADDRESS SWAP2 SWAP1 SWAP4 DUP5 MSTORE PUSH1 0x20 DUP5 ADD SWAP3 SWAP1 SWAP3 MSTORE PUSH1 0x1 PUSH1 0x1 PUSH1 0xA0 SHL SUB AND PUSH1 0x40 DUP4 ADD MSTORE PUSH1 0x60 DUP3 ADD MSTORE PUSH1 0x80 ADD SWAP1 JUMP JUMPDEST PUSH1 0x40 MLOAD DUP1 SWAP2 SUB SWAP1 LOG3 ADDRESS SWAP3 POP POP POP JUMPDEST SWAP3 SWAP2 POP POP JUMP JUMPDEST PUSH1 0x0 DUP2 DUP2 MSTORE PUSH1 0x5 PUSH1 0x20 MSTORE PUSH1 0x40 DUP2 KECCAK256 PUSH1 0x2 DUP2 ADD SLOAD PUSH1 0x3 DUP3 ADD SLOAD SWAP2 SWAP3 SWAP2 PUSH2 0xCFF SWAP2 SWAP1 PUSH2 0x2D29 JUMP JUMPDEST SWAP1 POP PUSH1 0x0 PUSH1 0x64 PUSH1 0x9 SLOAD DUP4 PUSH2 0xD13 SWAP2 SWAP1 PUSH2 0x2D29 JUMP JUMPDEST PUSH2 0xD1D SWAP2 SWAP1 PUSH2 0x2D40 JUMP JUMPDEST SWAP1 POP PUSH1 0x0 PUSH2 0xD2B DUP3 DUP5 PUSH2 0x2D62 JUMP JUMPDEST PUSH1 0x4 DUP6 ADD SLOAD SWAP1 SWAP2 POP PUSH1 0xFF AND PUSH2 0xD82 JUMPI PUSH1 0x40 MLOAD PUSH3 0x461BCD PUSH1 0xE5 SHL DUP2 MSTORE PUSH1 0x20 PUSH1 0x4 DUP3 ADD DUP2 SWAP1 MSTORE PUSH1 0x24 DUP3 ADD MSTORE PUSH32 0x4654542054726164696E673A204F72646572206973206E6F7420616374697665 PUSH1 0x44 DUP3 ADD MSTORE PUSH1 0x64 ADD PUSH2 0xAAE JUMP JUMPDEST DUP4 SLOAD CALLER PUSH1 0x1 PUSH1 0x1 PUSH1 0xA0 SHL SUB SWAP1 SWAP2 AND SUB PUSH2 0xDAD JUMPI PUSH1 0x40 MLOAD PUSH3 0x461BCD PUSH1 0xE5 SHL DUP2 MSTORE PUSH1 0x4 ADD PUSH2 0xAAE SWAP1 PUSH2 0x2D75 JUMP JUMPDEST DUP3 CALLVALUE EQ PUSH2 0xDCC JUMPI PUSH1 0x40 MLOAD PUSH3 0x461BCD PUSH1 0xE5 SHL DUP2 MSTORE PUSH1 0x4 ADD PUSH2 0xAAE SWAP1 PUSH2 0x2DB6 JUMP JUMPDEST PUSH1 0x3 SLOAD DUP5 SLOAD PUSH1 0x40 MLOAD PUSH4 0x23B872DD PUSH1 0xE0 SHL DUP2 MSTORE PUSH1 0x1 PUSH1 0x1 PUSH1 0xA0 SHL SUB SWAP2 DUP3 AND PUSH1 0x4 DUP3 ADD MSTORE CALLER PUSH1 0x24 DUP3 ADD MSTORE PUSH1 0x44 DUP2 ADD DUP9 SWAP1 MSTORE SWAP2 AND SWAP1 PUSH4 0x23B872DD SWAP1 PUSH1 0x64 ADD PUSH1 0x0 PUSH1 0x40 MLOAD DUP1 DUP4 SUB DUP2 PUSH1 0x0 DUP8 DUP1 EXTCODESIZE ISZERO DUP1 ISZERO PUSH2 0xE21 JUMPI PUSH1 0x0 DUP1 REVERT JUMPDEST POP GAS CALL ISZERO DUP1 ISZERO PUSH2 0xE35 JUMPI RETURNDATASIZE PUSH1 0x0 DUP1 RETURNDATACOPY RETURNDATASIZE PUSH1 0x0 REVERT JUMPDEST POP POP PUSH1 0x8 SLOAD PUSH1 0x40 MLOAD PUSH1 0x1 PUSH1 0x1 PUSH1 0xA0 SHL SUB SWAP1 SWAP2 AND SWAP3 POP DUP5 ISZERO PUSH2 0x8FC MUL SWAP2 POP DUP5 SWAP1 PUSH1 0x0 DUP2 DUP2 DUP2 DUP6 DUP9 DUP9 CALL SWAP4 POP POP POP POP ISZERO DUP1 ISZERO PUSH2 0xE73 JUMPI RETURNDATASIZE PUSH1 0x0 DUP1 RETURNDATACOPY RETURNDATASIZE PUSH1 0x0 REVERT JUMPDEST POP DUP4 SLOAD PUSH1 0x40 MLOAD PUSH1 0x1 PUSH1 0x1 PUSH1 0xA0 SHL SUB SWAP1 SWAP2 AND SWAP1 DUP3 ISZERO PUSH2 0x8FC MUL SWAP1 DUP4 SWAP1 PUSH1 0x0 DUP2 DUP2 DUP2 DUP6 DUP9 DUP9 CALL SWAP4 POP POP POP POP ISZERO DUP1 ISZERO PUSH2 0xEAD JUMPI RETURNDATASIZE PUSH1 0x0 DUP1 RETURNDATACOPY RETURNDATASIZE PUSH1 0x0 REVERT JUMPDEST POP PUSH1 0x4 DUP5 DUP2 ADD DUP1 SLOAD PUSH1 0xFF NOT AND SWAP1 SSTORE CALLER PUSH1 0x0 DUP2 DUP2 MSTORE PUSH1 0x20 SWAP3 DUP4 MSTORE PUSH1 0x40 DUP1 DUP3 KECCAK256 DUP1 SLOAD PUSH1 0x1 DUP2 ADD DUP3 SSTORE SWAP1 DUP4 MSTORE SWAP2 DUP5 SWAP1 KECCAK256 SWAP1 SWAP2 ADD DUP9 SWAP1 SSTORE DUP7 SLOAD PUSH1 0x2 DUP9 ADD SLOAD PUSH1 0x3 DUP10 ADD SLOAD DUP4 MLOAD SWAP2 DUP3 MSTORE SWAP5 DUP2 ADD SWAP5 SWAP1 SWAP5 MSTORE SWAP1 DUP4 ADD DUP7 SWAP1 MSTORE PUSH1 0x60 DUP4 ADD DUP5 SWAP1 MSTORE PUSH1 0x80 DUP4 ADD DUP6 SWAP1 MSTORE ADDRESS PUSH1 0xA0 DUP5 ADD MSTORE SWAP1 SWAP2 PUSH1 0x1 PUSH1 0x1 PUSH1 0xA0 SHL SUB SWAP1 SWAP2 AND SWAP1 DUP8 SWAP1 PUSH32 0x9A222D6BA4BC4D651E937DC475DE72FED21463A1513FC5A39AD48FC564DEC5D4 SWAP1 PUSH1 0xC0 ADD PUSH1 0x40 MLOAD DUP1 SWAP2 SUB SWAP1 LOG4 POP POP POP POP POP JUMP JUMPDEST PUSH2 0xF5E PUSH2 0x27C9 JUMP JUMPDEST PUSH1 0x8 DUP1 SLOAD PUSH1 0x1 PUSH1 0x1 PUSH1 0xA0 SHL SUB NOT AND PUSH1 0x1 PUSH1 0x1 PUSH1 0xA0 SHL SUB SWAP3 SWAP1 SWAP3 AND SWAP2 SWAP1 SWAP2 OR SWAP1 SSTORE JUMP JUMPDEST PUSH2 0xF88 PUSH2 0x27C9 JUMP JUMPDEST PUSH1 0x8 SLOAD PUSH1 0x1 PUSH1 0x1 PUSH1 0xA0 SHL SUB AND PUSH2 0xFE0 JUMPI PUSH1 0x40 MLOAD PUSH3 0x461BCD PUSH1 0xE5 SHL DUP2 MSTORE PUSH1 0x20 PUSH1 0x4 DUP3 ADD MSTORE PUSH1 0x19 PUSH1 0x24 DUP3 ADD MSTORE PUSH32 0x526563697069656E742061646472657373206E6F742073657400000000000000 PUSH1 0x44 DUP3 ADD MSTORE PUSH1 0x64 ADD PUSH2 0xAAE JUMP JUMPDEST PUSH1 0x8 SLOAD PUSH1 0x40 MLOAD SELFBALANCE SWAP2 PUSH1 0x1 PUSH1 0x1 PUSH1 0xA0 SHL SUB AND SWAP1 DUP3 ISZERO PUSH2 0x8FC MUL SWAP1 DUP4 SWAP1 PUSH1 0x0 DUP2 DUP2 DUP2 DUP6 DUP9 DUP9 CALL SWAP4 POP POP POP POP ISZERO DUP1 ISZERO PUSH2 0x101A JUMPI RETURNDATASIZE PUSH1 0x0 DUP1 RETURNDATACOPY RETURNDATASIZE PUSH1 0x0 REVERT JUMPDEST POP POP JUMP JUMPDEST PUSH1 0x3 SLOAD PUSH1 0x40 MLOAD PUSH4 0x35BDE56F PUSH1 0xE2 SHL DUP2 MSTORE PUSH1 0x4 DUP2 ADD DUP4 SWAP1 MSTORE PUSH1 0x60 SWAP2 PUSH1 0x1 PUSH1 0x1 PUSH1 0xA0 SHL SUB AND SWAP1 PUSH4 0xD6F795BC SWAP1 PUSH1 0x24 ADD JUMPDEST PUSH1 0x0 PUSH1 0x40 MLOAD DUP1 DUP4 SUB DUP2 DUP7 GAS STATICCALL ISZERO DUP1 ISZERO PUSH2 0x1069 JUMPI RETURNDATASIZE PUSH1 0x0 DUP1 RETURNDATACOPY RETURNDATASIZE PUSH1 0x0 REVERT JUMPDEST POP POP POP POP PUSH1 0x40 MLOAD RETURNDATASIZE PUSH1 0x0 DUP3 RETURNDATACOPY PUSH1 0x1F RETURNDATASIZE SWAP1 DUP2 ADD PUSH1 0x1F NOT AND DUP3 ADD PUSH1 0x40 MSTORE PUSH2 0xCD4 SWAP2 SWAP1 DUP2 ADD SWAP1 PUSH2 0x2E7A JUMP JUMPDEST PUSH1 0x0 DUP2 DUP2 MSTORE PUSH1 0x5 PUSH1 0x20 MSTORE PUSH1 0x40 SWAP1 KECCAK256 PUSH1 0x4 DUP2 ADD SLOAD PUSH1 0xFF AND PUSH2 0x1106 JUMPI PUSH1 0x40 MLOAD PUSH3 0x461BCD PUSH1 0xE5 SHL DUP2 MSTORE PUSH1 0x20 PUSH1 0x4 DUP3 ADD MSTORE PUSH1 0x2A PUSH1 0x24 DUP3 ADD MSTORE PUSH32 0x4672756974746578204D61726B657420506C6163653A204F7264657220697320 PUSH1 0x44 DUP3 ADD MSTORE PUSH10 0x6E6F7420616374697665 PUSH1 0xB0 SHL PUSH1 0x64 DUP3 ADD MSTORE PUSH1 0x84 ADD PUSH2 0xAAE JUMP JUMPDEST DUP1 SLOAD PUSH1 0x1 PUSH1 0x1 PUSH1 0xA0 SHL SUB AND CALLER EQ PUSH2 0x1177 JUMPI PUSH1 0x40 MLOAD PUSH3 0x461BCD PUSH1 0xE5 SHL DUP2 MSTORE PUSH1 0x20 PUSH1 0x4 DUP3 ADD MSTORE PUSH1 0x2F PUSH1 0x24 DUP3 ADD MSTORE PUSH32 0x4672756974746578204D61726B657420506C6163653A2043616C6C6572206973 PUSH1 0x44 DUP3 ADD MSTORE PUSH15 0x103737BA103A34329039B2B63632B9 PUSH1 0x89 SHL PUSH1 0x64 DUP3 ADD MSTORE PUSH1 0x84 ADD PUSH2 0xAAE JUMP JUMPDEST PUSH1 0x4 DUP2 ADD DUP1 SLOAD PUSH1 0xFF NOT AND SWAP1 SSTORE PUSH1 0x2 DUP2 ADD SLOAD PUSH1 0x40 DUP1 MLOAD SWAP2 DUP3 MSTORE ADDRESS PUSH1 0x20 DUP4 ADD MSTORE CALLER SWAP2 DUP5 SWAP2 PUSH32 0x8CDE700AF1AC7D45C769ADCAC68ABBE49FCBA4714CD374E40AF876967F435AEB SWAP2 ADD PUSH1 0x40 MLOAD DUP1 SWAP2 SUB SWAP1 LOG3 POP POP JUMP JUMPDEST PUSH2 0x11D0 PUSH2 0x27C9 JUMP JUMPDEST PUSH1 0xA SSTORE JUMP JUMPDEST PUSH2 0x11DD PUSH2 0x27C9 JUMP JUMPDEST PUSH1 0x64 DUP2 GT ISZERO PUSH2 0x1239 JUMPI PUSH1 0x40 MLOAD PUSH3 0x461BCD PUSH1 0xE5 SHL DUP2 MSTORE PUSH1 0x20 PUSH1 0x4 DUP3 ADD MSTORE PUSH1 0x22 PUSH1 0x24 DUP3 ADD MSTORE PUSH32 0x4654544D61726B6574506C6163653A20496E76616C69642070657263656E7461 PUSH1 0x44 DUP3 ADD MSTORE PUSH2 0x6765 PUSH1 0xF0 SHL PUSH1 0x64 DUP3 ADD MSTORE PUSH1 0x84 ADD PUSH2 0xAAE JUMP JUMPDEST PUSH1 0x9 SSTORE JUMP JUMPDEST PUSH1 0x0 DUP1 PUSH1 0x1 JUMPDEST PUSH1 0x6 SLOAD DUP2 GT PUSH2 0x12A2 JUMPI PUSH1 0x0 DUP2 DUP2 MSTORE PUSH1 0x5 PUSH1 0x20 MSTORE PUSH1 0x40 SWAP1 KECCAK256 PUSH1 0x4 DUP2 ADD SLOAD PUSH1 0xFF AND DUP1 ISZERO PUSH2 0x1278 JUMPI POP DUP1 SLOAD PUSH1 0x1 PUSH1 0x1 PUSH1 0xA0 SHL SUB AND ISZERO ISZERO JUMPDEST ISZERO PUSH2 0x128F JUMPI PUSH1 0x2 DUP2 ADD SLOAD PUSH2 0x128C SWAP1 DUP5 PUSH2 0x2C74 JUMP JUMPDEST SWAP3 POP JUMPDEST POP DUP1 PUSH2 0x129A DUP2 PUSH2 0x2C5B JUMP JUMPDEST SWAP2 POP POP PUSH2 0x1244 JUMP JUMPDEST POP SWAP2 SWAP1 POP JUMP JUMPDEST PUSH1 0x3 SLOAD PUSH1 0x40 DUP1 MLOAD PUSH4 0x2CE91B59 PUSH1 0xE1 SHL DUP2 MSTORE SWAP1 MLOAD PUSH1 0x60 SWAP3 PUSH1 0x1 PUSH1 0x1 PUSH1 0xA0 SHL SUB AND SWAP2 PUSH4 0x59D236B2 SWAP2 PUSH1 0x4 DUP1 DUP4 ADD SWAP3 PUSH1 0x0 SWAP3 SWAP2 SWAP1 DUP3 SWAP1 SUB ADD DUP2 DUP7 GAS STATICCALL ISZERO DUP1 ISZERO PUSH2 0x12F2 JUMPI RETURNDATASIZE PUSH1 0x0 DUP1 RETURNDATACOPY RETURNDATASIZE PUSH1 0x0 REVERT JUMPDEST POP POP POP POP PUSH1 0x40 MLOAD RETURNDATASIZE PUSH1 0x0 DUP3 RETURNDATACOPY PUSH1 0x1F RETURNDATASIZE SWAP1 DUP2 ADD PUSH1 0x1F NOT AND DUP3 ADD PUSH1 0x40 MSTORE PUSH2 0x131A SWAP2 SWAP1 DUP2 ADD SWAP1 PUSH2 0x2E7A JUMP JUMPDEST SWAP1 POP SWAP1 JUMP JUMPDEST PUSH1 0x0 DUP2 DUP2 MSTORE PUSH1 0x1 PUSH1 0x20 MSTORE PUSH1 0x40 DUP2 KECCAK256 PUSH1 0x5 ADD SLOAD DUP2 SWAP1 DUP2 SWAP1 DUP2 SWAP1 DUP2 SWAP1 DUP2 SWAP1 PUSH1 0xFF AND PUSH2 0x139F JUMPI PUSH1 0x40 MLOAD PUSH3 0x461BCD PUSH1 0xE5 SHL DUP2 MSTORE PUSH1 0x20 PUSH1 0x4 DUP3 ADD MSTORE PUSH1 0x2C PUSH1 0x24 DUP3 ADD MSTORE PUSH32 0x4672756974746578204D61726B657420506C6163653A20546F6B656E20636C61 PUSH1 0x44 DUP3 ADD MSTORE PUSH12 0x1A5B481B9BDD08199BDD5B99 PUSH1 0xA2 SHL PUSH1 0x64 DUP3 ADD MSTORE PUSH1 0x84 ADD PUSH2 0xAAE JUMP JUMPDEST PUSH1 0x0 DUP8 DUP2 MSTORE PUSH1 0x1 PUSH1 0x20 DUP2 DUP2 MSTORE PUSH1 0x40 DUP1 DUP5 KECCAK256 DUP2 MLOAD PUSH1 0xC0 DUP2 ADD DUP4 MSTORE DUP2 SLOAD PUSH1 0x1 PUSH1 0x1 PUSH1 0xA0 SHL SUB AND DUP2 MSTORE SWAP4 DUP2 ADD SLOAD SWAP3 DUP5 ADD SWAP3 SWAP1 SWAP3 MSTORE PUSH1 0x2 DUP3 ADD SLOAD SWAP1 DUP4 ADD MSTORE PUSH1 0x3 DUP2 ADD SLOAD PUSH1 0x60 DUP4 ADD MSTORE PUSH1 0x4 DUP2 ADD SLOAD PUSH1 0x80 DUP4 ADD MSTORE PUSH1 0x5 ADD SLOAD PUSH1 0xFF AND ISZERO ISZERO PUSH1 0xA0 DUP3 ADD MSTORE SWAP1 PUSH2 0x1405 DUP10 PUSH2 0x1688 JUMP JUMPDEST PUSH1 0x20 DUP4 ADD MLOAD PUSH1 0x40 DUP5 ADD MLOAD PUSH1 0x60 DUP6 ADD MLOAD DUP6 MLOAD PUSH1 0x80 SWAP1 SWAP7 ADD MLOAD SWAP3 SWAP14 SWAP2 SWAP13 POP SWAP11 POP SWAP4 SWAP9 POP SWAP7 POP SWAP5 POP SWAP1 SWAP3 POP POP POP JUMP JUMPDEST PUSH1 0x60 PUSH1 0x0 PUSH2 0x143E PUSH1 0x6 SLOAD SWAP1 JUMP JUMPDEST PUSH8 0xFFFFFFFFFFFFFFFF DUP2 GT ISZERO PUSH2 0x1456 JUMPI PUSH2 0x1456 PUSH2 0x29DE JUMP JUMPDEST PUSH1 0x40 MLOAD SWAP1 DUP1 DUP3 MSTORE DUP1 PUSH1 0x20 MUL PUSH1 0x20 ADD DUP3 ADD PUSH1 0x40 MSTORE DUP1 ISZERO PUSH2 0x147F JUMPI DUP2 PUSH1 0x20 ADD PUSH1 0x20 DUP3 MUL DUP1 CALLDATASIZE DUP4 CALLDATACOPY ADD SWAP1 POP JUMPDEST POP SWAP1 POP PUSH1 0x0 PUSH1 0x1 JUMPDEST PUSH1 0x6 SLOAD DUP2 GT PUSH2 0x14FB JUMPI PUSH1 0x0 DUP2 DUP2 MSTORE PUSH1 0x5 PUSH1 0x20 MSTORE PUSH1 0x40 SWAP1 KECCAK256 PUSH1 0x4 ADD SLOAD PUSH1 0xFF AND ISZERO PUSH2 0x14E9 JUMPI PUSH1 0x0 DUP2 DUP2 MSTORE PUSH1 0x5 PUSH1 0x20 MSTORE PUSH1 0x40 SWAP1 KECCAK256 PUSH1 0x1 ADD SLOAD DUP4 MLOAD DUP5 SWAP1 DUP5 SWAP1 DUP2 LT PUSH2 0x14D0 JUMPI PUSH2 0x14D0 PUSH2 0x2C2F JUMP JUMPDEST PUSH1 0x20 SWAP1 DUP2 MUL SWAP2 SWAP1 SWAP2 ADD ADD MSTORE DUP2 PUSH2 0x14E5 DUP2 PUSH2 0x2C5B JUMP JUMPDEST SWAP3 POP POP JUMPDEST DUP1 PUSH2 0x14F3 DUP2 PUSH2 0x2C5B JUMP JUMPDEST SWAP2 POP POP PUSH2 0x1487 JUMP JUMPDEST POP DUP1 DUP3 MSTORE PUSH1 0x0 DUP2 PUSH8 0xFFFFFFFFFFFFFFFF DUP2 GT ISZERO PUSH2 0x151A JUMPI PUSH2 0x151A PUSH2 0x29DE JUMP JUMPDEST PUSH1 0x40 MLOAD SWAP1 DUP1 DUP3 MSTORE DUP1 PUSH1 0x20 MUL PUSH1 0x20 ADD DUP3 ADD PUSH1 0x40 MSTORE DUP1 ISZERO PUSH2 0x1543 JUMPI DUP2 PUSH1 0x20 ADD PUSH1 0x20 DUP3 MUL DUP1 CALLDATASIZE DUP4 CALLDATACOPY ADD SWAP1 POP JUMPDEST POP SWAP1 POP PUSH1 0x0 JUMPDEST DUP3 DUP2 LT ISZERO PUSH2 0x159A JUMPI DUP4 DUP2 DUP2 MLOAD DUP2 LT PUSH2 0x1563 JUMPI PUSH2 0x1563 PUSH2 0x2C2F JUMP JUMPDEST PUSH1 0x20 MUL PUSH1 0x20 ADD ADD MLOAD DUP3 DUP3 DUP2 MLOAD DUP2 LT PUSH2 0x157D JUMPI PUSH2 0x157D PUSH2 0x2C2F JUMP JUMPDEST PUSH1 0x20 SWAP1 DUP2 MUL SWAP2 SWAP1 SWAP2 ADD ADD MSTORE DUP1 PUSH2 0x1592 DUP2 PUSH2 0x2C5B JUMP JUMPDEST SWAP2 POP POP PUSH2 0x1549 JUMP JUMPDEST POP SWAP4 SWAP3 POP POP POP JUMP JUMPDEST PUSH2 0x15AA PUSH2 0x27C9 JUMP JUMPDEST PUSH2 0x15B4 PUSH1 0x0 PUSH2 0x2823 JUMP JUMPDEST JUMP JUMPDEST PUSH1 0x0 DUP1 PUSH1 0x1 JUMPDEST PUSH1 0x6 SLOAD DUP2 GT PUSH2 0x1681 JUMPI PUSH1 0x0 DUP2 DUP2 MSTORE PUSH1 0x5 PUSH1 0x20 MSTORE PUSH1 0x40 SWAP1 KECCAK256 PUSH1 0x4 DUP2 ADD SLOAD PUSH1 0xFF AND DUP1 ISZERO PUSH2 0x1657 JUMPI POP PUSH1 0x3 SLOAD PUSH1 0x1 DUP3 ADD SLOAD PUSH1 0x40 MLOAD PUSH4 0xCD90AB4B PUSH1 0xE0 SHL DUP2 MSTORE PUSH1 0x4 DUP2 ADD SWAP2 SWAP1 SWAP2 MSTORE DUP7 SWAP2 PUSH1 0x1 PUSH1 0x1 PUSH1 0xA0 SHL SUB AND SWAP1 PUSH4 0xCD90AB4B SWAP1 PUSH1 0x24 ADD PUSH1 0x20 PUSH1 0x40 MLOAD DUP1 DUP4 SUB DUP2 DUP7 GAS STATICCALL ISZERO DUP1 ISZERO PUSH2 0x1631 JUMPI RETURNDATASIZE PUSH1 0x0 DUP1 RETURNDATACOPY RETURNDATASIZE PUSH1 0x0 REVERT JUMPDEST POP POP POP POP PUSH1 0x40 MLOAD RETURNDATASIZE PUSH1 0x1F NOT PUSH1 0x1F DUP3 ADD AND DUP3 ADD DUP1 PUSH1 0x40 MSTORE POP DUP2 ADD SWAP1 PUSH2 0x1655 SWAP2 SWAP1 PUSH2 0x2C16 JUMP JUMPDEST EQ JUMPDEST ISZERO PUSH2 0x166E JUMPI PUSH1 0x2 DUP2 ADD SLOAD PUSH2 0x166B SWAP1 DUP5 PUSH2 0x2C74 JUMP JUMPDEST SWAP3 POP JUMPDEST POP DUP1 PUSH2 0x1679 DUP2 PUSH2 0x2C5B JUMP JUMPDEST SWAP2 POP POP PUSH2 0x15BC JUMP JUMPDEST POP SWAP3 SWAP2 POP POP JUMP JUMPDEST PUSH1 0x3 SLOAD PUSH1 0x40 MLOAD PUSH4 0xCD90AB4B PUSH1 0xE0 SHL DUP2 MSTORE PUSH1 0x4 DUP2 ADD DUP4 SWAP1 MSTORE PUSH1 0x0 SWAP2 PUSH1 0x1 PUSH1 0x1 PUSH1 0xA0 SHL SUB AND SWAP1 PUSH4 0xCD90AB4B SWAP1 PUSH1 0x24 ADD PUSH1 0x20 PUSH1 0x40 MLOAD DUP1 DUP4 SUB DUP2 DUP7 GAS STATICCALL ISZERO DUP1 ISZERO PUSH2 0x16D2 JUMPI RETURNDATASIZE PUSH1 0x0 DUP1 RETURNDATACOPY RETURNDATASIZE PUSH1 0x0 REVERT JUMPDEST POP POP POP POP PUSH1 0x40 MLOAD RETURNDATASIZE PUSH1 0x1F NOT PUSH1 0x1F DUP3 ADD AND DUP3 ADD DUP1 PUSH1 0x40 MSTORE POP DUP2 ADD SWAP1 PUSH2 0xCD4 SWAP2 SWAP1 PUSH2 0x2C16 JUMP JUMPDEST PUSH1 0x3 SLOAD PUSH1 0x40 MLOAD PUSH4 0x25601C3F PUSH1 0xE2 SHL DUP2 MSTORE PUSH1 0x1 PUSH1 0x1 PUSH1 0xA0 SHL SUB DUP4 DUP2 AND PUSH1 0x4 DUP4 ADD MSTORE PUSH1 0x60 SWAP3 AND SWAP1 PUSH4 0x958070FC SWAP1 PUSH1 0x24 ADD PUSH2 0x104C JUMP JUMPDEST PUSH2 0x1766 PUSH1 0x40 MLOAD DUP1 PUSH1 0xA0 ADD PUSH1 0x40 MSTORE DUP1 PUSH1 0x0 DUP2 MSTORE PUSH1 0x20 ADD PUSH1 0x0 DUP2 MSTORE PUSH1 0x20 ADD PUSH1 0x0 DUP2 MSTORE PUSH1 0x20 ADD PUSH1 0x0 PUSH1 0x1 PUSH1 0x1 PUSH1 0xA0 SHL SUB AND DUP2 MSTORE PUSH1 0x20 ADD PUSH1 0x0 ISZERO ISZERO DUP2 MSTORE POP SWAP1 JUMP JUMPDEST PUSH1 0x3 SLOAD PUSH1 0x40 MLOAD PUSH4 0x698C1E9 PUSH1 0xE0 SHL DUP2 MSTORE PUSH1 0x4 DUP2 ADD DUP5 SWAP1 MSTORE PUSH1 0x1 PUSH1 0x1 PUSH1 0xA0 SHL SUB SWAP1 SWAP2 AND SWAP1 PUSH4 0x698C1E9 SWAP1 PUSH1 0x24 ADD PUSH1 0xA0 PUSH1 0x40 MLOAD DUP1 DUP4 SUB DUP2 DUP7 GAS STATICCALL ISZERO DUP1 ISZERO PUSH2 0x17AF JUMPI RETURNDATASIZE PUSH1 0x0 DUP1 RETURNDATACOPY RETURNDATASIZE PUSH1 0x0 REVERT JUMPDEST POP POP POP POP PUSH1 0x40 MLOAD RETURNDATASIZE PUSH1 0x1F NOT PUSH1 0x1F DUP3 ADD AND DUP3 ADD DUP1 PUSH1 0x40 MSTORE POP DUP2 ADD SWAP1 PUSH2 0xCD4 SWAP2 SWAP1 PUSH2 0x2F14 JUMP JUMPDEST PUSH1 0x0 PUSH2 0x131A PUSH1 0x6 SLOAD SWAP1 JUMP JUMPDEST PUSH1 0x0 DUP4 GT PUSH2 0x17FE JUMPI PUSH1 0x40 MLOAD PUSH3 0x461BCD PUSH1 0xE5 SHL DUP2 MSTORE PUSH1 0x4 ADD PUSH2 0xAAE SWAP1 PUSH2 0x2F30 JUMP JUMPDEST PUSH1 0x0 DUP3 GT PUSH2 0x185A JUMPI PUSH1 0x40 MLOAD PUSH3 0x461BCD PUSH1 0xE5 SHL DUP2 MSTORE PUSH1 0x20 PUSH1 0x4 DUP3 ADD MSTORE PUSH1 0x24 DUP1 DUP3 ADD MSTORE PUSH32 0x4672756974746578204D61726B657420506C6163653A20496E76616C69642070 PUSH1 0x44 DUP3 ADD MSTORE PUSH4 0x72696365 PUSH1 0xE0 SHL PUSH1 0x64 DUP3 ADD MSTORE PUSH1 0x84 ADD PUSH2 0xAAE JUMP JUMPDEST PUSH1 0x3 SLOAD PUSH1 0x40 MLOAD PUSH4 0x31A9108F PUSH1 0xE1 SHL DUP2 MSTORE PUSH1 0x4 DUP2 ADD DUP7 SWAP1 MSTORE PUSH1 0x0 SWAP2 PUSH1 0x1 PUSH1 0x1 PUSH1 0xA0 SHL SUB AND SWAP1 PUSH4 0x6352211E SWAP1 PUSH1 0x24 ADD PUSH1 0x20 PUSH1 0x40 MLOAD DUP1 DUP4 SUB DUP2 DUP7 GAS STATICCALL ISZERO DUP1 ISZERO PUSH2 0x18A4 JUMPI RETURNDATASIZE PUSH1 0x0 DUP1 RETURNDATACOPY RETURNDATASIZE PUSH1 0x0 REVERT JUMPDEST POP POP POP POP PUSH1 0x40 MLOAD RETURNDATASIZE PUSH1 0x1F NOT PUSH1 0x1F DUP3 ADD AND DUP3 ADD DUP1 PUSH1 0x40 MSTORE POP DUP2 ADD SWAP1 PUSH2 0x18C8 SWAP2 SWAP1 PUSH2 0x2F79 JUMP JUMPDEST PUSH1 0x1 PUSH1 0x1 PUSH1 0xA0 SHL SUB AND SUB PUSH2 0x18EE JUMPI PUSH1 0x40 MLOAD PUSH3 0x461BCD PUSH1 0xE5 SHL DUP2 MSTORE PUSH1 0x4 ADD PUSH2 0xAAE SWAP1 PUSH2 0x2F96 JUMP JUMPDEST PUSH1 0x3 SLOAD PUSH1 0x40 MLOAD PUSH4 0x31A9108F PUSH1 0xE1 SHL DUP2 MSTORE PUSH1 0x4 DUP2 ADD DUP7 SWAP1 MSTORE CALLER SWAP2 PUSH1 0x1 PUSH1 0x1 PUSH1 0xA0 SHL SUB AND SWAP1 PUSH4 0x6352211E SWAP1 PUSH1 0x24 ADD PUSH1 0x20 PUSH1 0x40 MLOAD DUP1 DUP4 SUB DUP2 DUP7 GAS STATICCALL ISZERO DUP1 ISZERO PUSH2 0x1937 JUMPI RETURNDATASIZE PUSH1 0x0 DUP1 RETURNDATACOPY RETURNDATASIZE PUSH1 0x0 REVERT JUMPDEST POP POP POP POP PUSH1 0x40 MLOAD RETURNDATASIZE PUSH1 0x1F NOT PUSH1 0x1F DUP3 ADD AND DUP3 ADD DUP1 PUSH1 0x40 MSTORE POP DUP2 ADD SWAP1 PUSH2 0x195B SWAP2 SWAP1 PUSH2 0x2F79 JUMP JUMPDEST PUSH1 0x1 PUSH1 0x1 PUSH1 0xA0 SHL SUB AND EQ PUSH2 0x1981 JUMPI PUSH1 0x40 MLOAD PUSH3 0x461BCD PUSH1 0xE5 SHL DUP2 MSTORE PUSH1 0x4 ADD PUSH2 0xAAE SWAP1 PUSH2 0x2FDC JUMP JUMPDEST PUSH1 0x0 PUSH2 0x1990 DUP3 PUSH3 0x15180 PUSH2 0x2D29 JUMP JUMPDEST PUSH2 0x199A SWAP1 TIMESTAMP PUSH2 0x2C74 JUMP JUMPDEST SWAP1 POP PUSH1 0xA SLOAD DUP3 GT ISZERO PUSH2 0x19BE JUMPI PUSH1 0x40 MLOAD PUSH3 0x461BCD PUSH1 0xE5 SHL DUP2 MSTORE PUSH1 0x4 ADD PUSH2 0xAAE SWAP1 PUSH2 0x2C87 JUMP JUMPDEST PUSH1 0x0 DUP6 DUP2 MSTORE PUSH1 0x5 PUSH1 0x20 DUP2 SWAP1 MSTORE PUSH1 0x40 SWAP1 SWAP2 KECCAK256 DUP1 SLOAD PUSH1 0x1 PUSH1 0x1 PUSH1 0xA0 SHL SUB NOT AND CALLER OR DUP2 SSTORE PUSH1 0x1 DUP1 DUP3 ADD DUP9 SWAP1 SSTORE PUSH1 0x2 DUP3 ADD DUP8 SWAP1 SSTORE PUSH1 0x3 DUP3 ADD DUP7 SWAP1 SSTORE SWAP2 DUP2 ADD DUP4 SWAP1 SSTORE PUSH1 0x4 DUP2 ADD DUP1 SLOAD PUSH1 0xFF NOT AND SWAP1 SWAP3 OR SWAP1 SWAP2 SSTORE PUSH2 0x1A19 PUSH1 0x6 DUP1 SLOAD PUSH1 0x1 ADD SWAP1 SSTORE JUMP JUMPDEST PUSH1 0x0 PUSH2 0x1A24 PUSH1 0x7 SLOAD SWAP1 JUMP JUMPDEST SWAP1 POP DUP1 CALLVALUE LT ISZERO PUSH2 0x1A8A JUMPI PUSH1 0x40 MLOAD PUSH3 0x461BCD PUSH1 0xE5 SHL DUP2 MSTORE PUSH1 0x20 PUSH1 0x4 DUP3 ADD MSTORE PUSH1 0x2B PUSH1 0x24 DUP3 ADD MSTORE PUSH32 0x4654544D61726B65742053656C6C696E67204665653A20496E73756666696369 PUSH1 0x44 DUP3 ADD MSTORE PUSH11 0x195B9D081C185E5B595B9D PUSH1 0xAA SHL PUSH1 0x64 DUP3 ADD MSTORE PUSH1 0x84 ADD PUSH2 0xAAE JUMP JUMPDEST PUSH1 0x8 SLOAD PUSH1 0x40 MLOAD PUSH1 0x1 PUSH1 0x1 PUSH1 0xA0 SHL SUB SWAP1 SWAP2 AND SWAP1 DUP3 ISZERO PUSH2 0x8FC MUL SWAP1 DUP4 SWAP1 PUSH1 0x0 DUP2 DUP2 DUP2 DUP6 DUP9 DUP9 CALL SWAP4 POP POP POP POP ISZERO DUP1 ISZERO PUSH2 0x1AC4 JUMPI RETURNDATASIZE PUSH1 0x0 DUP1 RETURNDATACOPY RETURNDATASIZE PUSH1 0x0 REVERT JUMPDEST POP PUSH1 0x40 DUP1 MLOAD DUP8 DUP2 MSTORE PUSH1 0x20 DUP2 ADD DUP8 SWAP1 MSTORE ADDRESS DUP2 DUP4 ADD MSTORE PUSH1 0x60 DUP2 ADD DUP6 SWAP1 MSTORE PUSH1 0x80 DUP2 ADD DUP4 SWAP1 MSTORE SWAP1 MLOAD CALLER SWAP2 DUP10 SWAP2 PUSH32 0x1B2E974A4809910E8FD8745D449784A89D78C74154F822E308B77E5739BF0EEA SWAP2 DUP2 SWAP1 SUB PUSH1 0xA0 ADD SWAP1 LOG3 POP POP POP POP POP POP POP JUMP JUMPDEST DUP3 MLOAD DUP5 MLOAD EQ DUP1 ISZERO PUSH2 0x1B31 JUMPI POP DUP2 MLOAD DUP4 MLOAD EQ JUMPDEST DUP1 ISZERO PUSH2 0x1B3E JUMPI POP DUP1 MLOAD DUP3 MLOAD EQ JUMPDEST PUSH2 0x1B9E JUMPI PUSH1 0x40 MLOAD PUSH3 0x461BCD PUSH1 0xE5 SHL DUP2 MSTORE PUSH1 0x20 PUSH1 0x4 DUP3 ADD MSTORE PUSH1 0x2B PUSH1 0x24 DUP3 ADD MSTORE PUSH32 0x4672756974746578204D61726B657420506C6163653A20496E76616C69642069 PUSH1 0x44 DUP3 ADD MSTORE PUSH11 0x6E70757420617272617973 PUSH1 0xA8 SHL PUSH1 0x64 DUP3 ADD MSTORE PUSH1 0x84 ADD PUSH2 0xAAE JUMP JUMPDEST PUSH1 0x0 JUMPDEST DUP5 MLOAD DUP2 LT ISZERO PUSH2 0x1E85 JUMPI PUSH1 0x0 DUP6 DUP3 DUP2 MLOAD DUP2 LT PUSH2 0x1BBE JUMPI PUSH2 0x1BBE PUSH2 0x2C2F JUMP JUMPDEST PUSH1 0x20 MUL PUSH1 0x20 ADD ADD MLOAD SWAP1 POP PUSH1 0x0 DUP6 DUP4 DUP2 MLOAD DUP2 LT PUSH2 0x1BDC JUMPI PUSH2 0x1BDC PUSH2 0x2C2F JUMP JUMPDEST PUSH1 0x20 MUL PUSH1 0x20 ADD ADD MLOAD SWAP1 POP PUSH1 0x0 DUP6 DUP5 DUP2 MLOAD DUP2 LT PUSH2 0x1BFA JUMPI PUSH2 0x1BFA PUSH2 0x2C2F JUMP JUMPDEST PUSH1 0x20 MUL PUSH1 0x20 ADD ADD MLOAD SWAP1 POP PUSH1 0x0 DUP6 DUP6 DUP2 MLOAD DUP2 LT PUSH2 0x1C18 JUMPI PUSH2 0x1C18 PUSH2 0x2C2F JUMP JUMPDEST PUSH1 0x20 MUL PUSH1 0x20 ADD ADD MLOAD SWAP1 POP PUSH1 0x0 DUP4 GT PUSH2 0x1C42 JUMPI PUSH1 0x40 MLOAD PUSH3 0x461BCD PUSH1 0xE5 SHL DUP2 MSTORE PUSH1 0x4 ADD PUSH2 0xAAE SWAP1 PUSH2 0x2F30 JUMP JUMPDEST PUSH1 0x3 SLOAD PUSH1 0x40 MLOAD PUSH4 0x31A9108F PUSH1 0xE1 SHL DUP2 MSTORE PUSH1 0x4 DUP2 ADD DUP7 SWAP1 MSTORE PUSH1 0x0 SWAP2 PUSH1 0x1 PUSH1 0x1 PUSH1 0xA0 SHL SUB AND SWAP1 PUSH4 0x6352211E SWAP1 PUSH1 0x24 ADD PUSH1 0x20 PUSH1 0x40 MLOAD DUP1 DUP4 SUB DUP2 DUP7 GAS STATICCALL ISZERO DUP1 ISZERO PUSH2 0x1C8C JUMPI RETURNDATASIZE PUSH1 0x0 DUP1 RETURNDATACOPY RETURNDATASIZE PUSH1 0x0 REVERT JUMPDEST POP POP POP POP PUSH1 0x40 MLOAD RETURNDATASIZE PUSH1 0x1F NOT PUSH1 0x1F DUP3 ADD AND DUP3 ADD DUP1 PUSH1 0x40 MSTORE POP DUP2 ADD SWAP1 PUSH2 0x1CB0 SWAP2 SWAP1 PUSH2 0x2F79 JUMP JUMPDEST PUSH1 0x1 PUSH1 0x1 PUSH1 0xA0 SHL SUB AND SUB PUSH2 0x1CD6 JUMPI PUSH1 0x40 MLOAD PUSH3 0x461BCD PUSH1 0xE5 SHL DUP2 MSTORE PUSH1 0x4 ADD PUSH2 0xAAE SWAP1 PUSH2 0x2F96 JUMP JUMPDEST PUSH1 0x3 SLOAD PUSH1 0x40 MLOAD PUSH4 0x31A9108F PUSH1 0xE1 SHL DUP2 MSTORE PUSH1 0x4 DUP2 ADD DUP7 SWAP1 MSTORE CALLER SWAP2 PUSH1 0x1 PUSH1 0x1 PUSH1 0xA0 SHL SUB AND SWAP1 PUSH4 0x6352211E SWAP1 PUSH1 0x24 ADD PUSH1 0x20 PUSH1 0x40 MLOAD DUP1 DUP4 SUB DUP2 DUP7 GAS STATICCALL ISZERO DUP1 ISZERO PUSH2 0x1D1F JUMPI RETURNDATASIZE PUSH1 0x0 DUP1 RETURNDATACOPY RETURNDATASIZE PUSH1 0x0 REVERT JUMPDEST POP POP POP POP PUSH1 0x40 MLOAD RETURNDATASIZE PUSH1 0x1F NOT PUSH1 0x1F DUP3 ADD AND DUP3 ADD DUP1 PUSH1 0x40 MSTORE POP DUP2 ADD SWAP1 PUSH2 0x1D43 SWAP2 SWAP1 PUSH2 0x2F79 JUMP JUMPDEST PUSH1 0x1 PUSH1 0x1 PUSH1 0xA0 SHL SUB AND EQ PUSH2 0x1D69 JUMPI PUSH1 0x40 MLOAD PUSH3 0x461BCD PUSH1 0xE5 SHL DUP2 MSTORE PUSH1 0x4 ADD PUSH2 0xAAE SWAP1 PUSH2 0x2FDC JUMP JUMPDEST PUSH1 0x40 DUP1 MLOAD PUSH1 0xC0 DUP2 ADD DUP3 MSTORE CALLER DUP2 MSTORE PUSH1 0x20 DUP1 DUP3 ADD DUP8 DUP2 MSTORE DUP3 DUP5 ADD DUP8 DUP2 MSTORE PUSH1 0x60 DUP5 ADD DUP8 DUP2 MSTORE PUSH1 0x80 DUP6 ADD DUP8 DUP2 MSTORE PUSH1 0x1 PUSH1 0xA0 DUP8 ADD DUP2 DUP2 MSTORE PUSH1 0x0 DUP14 DUP2 MSTORE SWAP7 DUP3 SWAP1 MSTORE SWAP8 SWAP1 SWAP6 KECCAK256 SWAP6 MLOAD DUP7 SLOAD PUSH1 0x1 PUSH1 0x1 PUSH1 0xA0 SHL SUB NOT AND PUSH1 0x1 PUSH1 0x1 PUSH1 0xA0 SHL SUB SWAP1 SWAP2 AND OR DUP7 SSTORE SWAP3 MLOAD DUP6 DUP6 ADD SSTORE SWAP1 MLOAD PUSH1 0x2 DUP6 ADD SSTORE MLOAD PUSH1 0x3 DUP5 ADD SSTORE MLOAD PUSH1 0x4 DUP4 ADD SSTORE SWAP2 MLOAD PUSH1 0x5 SWAP1 SWAP2 ADD DUP1 SLOAD PUSH1 0xFF NOT AND SWAP2 ISZERO ISZERO SWAP2 SWAP1 SWAP2 OR SWAP1 SSTORE PUSH1 0x6 DUP1 SLOAD SWAP1 SWAP2 ADD SWAP1 SSTORE PUSH1 0x40 DUP1 MLOAD DUP5 DUP2 MSTORE PUSH1 0x20 DUP2 ADD DUP5 SWAP1 MSTORE CALLER SWAP2 DUP2 ADD SWAP2 SWAP1 SWAP2 MSTORE PUSH1 0x60 DUP2 ADD DUP3 SWAP1 MSTORE ADDRESS PUSH1 0x80 DUP3 ADD MSTORE DUP5 SWAP1 PUSH32 0x88B93F38CC905BC2C90186D4B0C39554248DC3CCE357D15CFFB05B9C192A87E7 SWAP1 PUSH1 0xA0 ADD PUSH1 0x40 MLOAD DUP1 SWAP2 SUB SWAP1 LOG2 PUSH1 0x0 SWAP1 DUP2 MSTORE PUSH1 0x2 PUSH1 0x20 SWAP1 DUP2 MSTORE PUSH1 0x40 DUP3 KECCAK256 DUP1 SLOAD PUSH1 0x1 DUP2 ADD DUP3 SSTORE SWAP1 DUP4 MSTORE SWAP2 KECCAK256 ADD SWAP3 SWAP1 SWAP3 SSTORE POP DUP2 SWAP1 POP PUSH2 0x1E7D DUP2 PUSH2 0x2C5B JUMP JUMPDEST SWAP2 POP POP PUSH2 0x1BA1 JUMP JUMPDEST POP POP POP POP POP JUMP JUMPDEST PUSH1 0x0 DUP2 DUP2 MSTORE PUSH1 0x1 PUSH1 0x20 MSTORE PUSH1 0x40 DUP2 KECCAK256 PUSH1 0x2 DUP2 ADD SLOAD PUSH1 0x3 DUP3 ADD SLOAD SWAP2 SWAP3 SWAP2 PUSH2 0x1EB1 SWAP2 SWAP1 PUSH2 0x2D29 JUMP JUMPDEST PUSH1 0x5 DUP4 ADD SLOAD SWAP1 SWAP2 POP PUSH1 0xFF AND PUSH2 0x1F08 JUMPI PUSH1 0x40 MLOAD PUSH3 0x461BCD PUSH1 0xE5 SHL DUP2 MSTORE PUSH1 0x20 PUSH1 0x4 DUP3 ADD DUP2 SWAP1 MSTORE PUSH1 0x24 DUP3 ADD MSTORE PUSH32 0x4654542054726164696E673A20436C61696D206973206E6F7420616374697665 PUSH1 0x44 DUP3 ADD MSTORE PUSH1 0x64 ADD PUSH2 0xAAE JUMP JUMPDEST DUP2 SLOAD CALLER PUSH1 0x1 PUSH1 0x1 PUSH1 0xA0 SHL SUB SWAP1 SWAP2 AND SUB PUSH2 0x1F33 JUMPI PUSH1 0x40 MLOAD PUSH3 0x461BCD PUSH1 0xE5 SHL DUP2 MSTORE PUSH1 0x4 ADD PUSH2 0xAAE SWAP1 PUSH2 0x2D75 JUMP JUMPDEST DUP1 CALLVALUE EQ PUSH2 0x1F52 JUMPI PUSH1 0x40 MLOAD PUSH3 0x461BCD PUSH1 0xE5 SHL DUP2 MSTORE PUSH1 0x4 ADD PUSH2 0xAAE SWAP1 PUSH2 0x2DB6 JUMP JUMPDEST PUSH1 0x3 SLOAD DUP3 SLOAD PUSH1 0x40 MLOAD PUSH4 0x23B872DD PUSH1 0xE0 SHL DUP2 MSTORE PUSH1 0x1 PUSH1 0x1 PUSH1 0xA0 SHL SUB SWAP2 DUP3 AND PUSH1 0x4 DUP3 ADD MSTORE CALLER PUSH1 0x24 DUP3 ADD MSTORE PUSH1 0x44 DUP2 ADD DUP7 SWAP1 MSTORE SWAP2 AND SWAP1 PUSH4 0x23B872DD SWAP1 PUSH1 0x64 ADD PUSH1 0x0 PUSH1 0x40 MLOAD DUP1 DUP4 SUB DUP2 PUSH1 0x0 DUP8 DUP1 EXTCODESIZE ISZERO DUP1 ISZERO PUSH2 0x1FA7 JUMPI PUSH1 0x0 DUP1 REVERT JUMPDEST POP GAS CALL ISZERO DUP1 ISZERO PUSH2 0x1FBB JUMPI RETURNDATASIZE PUSH1 0x0 DUP1 RETURNDATACOPY RETURNDATASIZE PUSH1 0x0 REVERT JUMPDEST POP POP POP POP PUSH1 0x5 DUP3 ADD DUP1 SLOAD PUSH1 0xFF NOT AND SWAP1 SSTORE CALLER PUSH1 0x0 DUP2 DUP2 MSTORE PUSH1 0x4 PUSH1 0x20 DUP2 DUP2 MSTORE PUSH1 0x40 DUP4 KECCAK256 DUP1 SLOAD PUSH1 0x1 DUP2 ADD DUP3 SSTORE SWAP1 DUP5 MSTORE SWAP3 KECCAK256 SWAP1 SWAP2 ADD DUP6 SWAP1 SSTORE DUP4 SLOAD SWAP1 DUP5 ADD SLOAD PUSH1 0x2 DUP6 ADD SLOAD PUSH1 0x1 PUSH1 0x1 PUSH1 0xA0 SHL SUB SWAP1 SWAP3 AND SWAP2 DUP7 SWAP2 PUSH32 0xAD2C422FFD1872360B3BEA3B84381832683FBCED2483B1899BA553C3C9FB45A7 SWAP2 DUP7 PUSH2 0x2034 DUP6 PUSH2 0x1688 JUMP JUMPDEST PUSH1 0x40 DUP1 MLOAD SWAP5 DUP6 MSTORE PUSH1 0x20 DUP6 ADD SWAP4 SWAP1 SWAP4 MSTORE SWAP2 DUP4 ADD MSTORE PUSH1 0x60 DUP3 ADD MSTORE ADDRESS PUSH1 0x80 DUP3 ADD MSTORE PUSH1 0xA0 ADD PUSH1 0x40 MLOAD DUP1 SWAP2 SUB SWAP1 LOG4 POP POP POP JUMP JUMPDEST PUSH2 0x20A6 PUSH1 0x40 MLOAD DUP1 PUSH1 0xC0 ADD PUSH1 0x40 MSTORE DUP1 PUSH1 0x0 PUSH1 0x1 PUSH1 0x1 PUSH1 0xA0 SHL SUB AND DUP2 MSTORE PUSH1 0x20 ADD PUSH1 0x0 DUP2 MSTORE PUSH1 0x20 ADD PUSH1 0x0 DUP2 MSTORE PUSH1 0x20 ADD PUSH1 0x0 DUP2 MSTORE PUSH1 0x20 ADD PUSH1 0x0 ISZERO ISZERO DUP2 MSTORE PUSH1 0x20 ADD PUSH1 0x0 DUP2 MSTORE POP SWAP1 JUMP JUMPDEST POP PUSH1 0x0 SWAP1 DUP2 MSTORE PUSH1 0x5 PUSH1 0x20 DUP2 DUP2 MSTORE PUSH1 0x40 SWAP3 DUP4 SWAP1 KECCAK256 DUP4 MLOAD PUSH1 0xC0 DUP2 ADD DUP6 MSTORE DUP2 SLOAD PUSH1 0x1 PUSH1 0x1 PUSH1 0xA0 SHL SUB AND DUP2 MSTORE PUSH1 0x1 DUP3 ADD SLOAD SWAP3 DUP2 ADD SWAP3 SWAP1 SWAP3 MSTORE PUSH1 0x2 DUP2 ADD SLOAD SWAP4 DUP3 ADD SWAP4 SWAP1 SWAP4 MSTORE PUSH1 0x3 DUP4 ADD SLOAD PUSH1 0x60 DUP3 ADD MSTORE PUSH1 0x4 DUP4 ADD SLOAD PUSH1 0xFF AND ISZERO ISZERO PUSH1 0x80 DUP3 ADD MSTORE SWAP2 ADD SLOAD PUSH1 0xA0 DUP3 ADD MSTORE SWAP1 JUMP JUMPDEST PUSH1 0x0 DUP2 DUP2 MSTORE PUSH1 0x2 PUSH1 0x20 MSTORE PUSH1 0x40 DUP2 KECCAK256 DUP1 SLOAD PUSH1 0x60 SWAP3 SWAP1 PUSH8 0xFFFFFFFFFFFFFFFF DUP2 GT ISZERO PUSH2 0x2136 JUMPI PUSH2 0x2136 PUSH2 0x29DE JUMP JUMPDEST PUSH1 0x40 MLOAD SWAP1 DUP1 DUP3 MSTORE DUP1 PUSH1 0x20 MUL PUSH1 0x20 ADD DUP3 ADD PUSH1 0x40 MSTORE DUP1 ISZERO PUSH2 0x2169 JUMPI DUP2 PUSH1 0x20 ADD JUMPDEST PUSH1 0x60 DUP2 MSTORE PUSH1 0x20 ADD SWAP1 PUSH1 0x1 SWAP1 SUB SWAP1 DUP2 PUSH2 0x2154 JUMPI SWAP1 POP JUMPDEST POP SWAP1 POP PUSH1 0x0 JUMPDEST DUP3 SLOAD DUP2 LT ISZERO PUSH2 0x159A JUMPI PUSH1 0x0 DUP4 DUP3 DUP2 SLOAD DUP2 LT PUSH2 0x218C JUMPI PUSH2 0x218C PUSH2 0x2C2F JUMP JUMPDEST PUSH1 0x0 SWAP2 DUP3 MSTORE PUSH1 0x20 SWAP1 SWAP2 KECCAK256 ADD SLOAD PUSH1 0x40 DUP1 MLOAD PUSH1 0x4 DUP1 DUP3 MSTORE PUSH1 0xA0 DUP3 ADD SWAP1 SWAP3 MSTORE SWAP2 SWAP3 POP DUP2 PUSH1 0x20 ADD PUSH1 0x20 DUP3 MUL DUP1 CALLDATASIZE DUP4 CALLDATACOPY ADD SWAP1 POP POP DUP4 DUP4 DUP2 MLOAD DUP2 LT PUSH2 0x21CD JUMPI PUSH2 0x21CD PUSH2 0x2C2F JUMP JUMPDEST PUSH1 0x20 MUL PUSH1 0x20 ADD ADD DUP2 SWAP1 MSTORE POP DUP1 DUP4 DUP4 DUP2 MLOAD DUP2 LT PUSH2 0x21EB JUMPI PUSH2 0x21EB PUSH2 0x2C2F JUMP JUMPDEST PUSH1 0x20 MUL PUSH1 0x20 ADD ADD MLOAD PUSH1 0x0 DUP2 MLOAD DUP2 LT PUSH2 0x2205 JUMPI PUSH2 0x2205 PUSH2 0x2C2F JUMP JUMPDEST PUSH1 0x20 MUL PUSH1 0x20 ADD ADD DUP2 DUP2 MSTORE POP POP PUSH1 0x1 PUSH1 0x0 DUP3 DUP2 MSTORE PUSH1 0x20 ADD SWAP1 DUP2 MSTORE PUSH1 0x20 ADD PUSH1 0x0 KECCAK256 PUSH1 0x2 ADD SLOAD DUP4 DUP4 DUP2 MLOAD DUP2 LT PUSH2 0x223A JUMPI PUSH2 0x223A PUSH2 0x2C2F JUMP JUMPDEST PUSH1 0x20 MUL PUSH1 0x20 ADD ADD MLOAD PUSH1 0x1 DUP2 MLOAD DUP2 LT PUSH2 0x2254 JUMPI PUSH2 0x2254 PUSH2 0x2C2F JUMP JUMPDEST PUSH1 0x20 MUL PUSH1 0x20 ADD ADD DUP2 DUP2 MSTORE POP POP PUSH1 0x1 PUSH1 0x0 DUP3 DUP2 MSTORE PUSH1 0x20 ADD SWAP1 DUP2 MSTORE PUSH1 0x20 ADD PUSH1 0x0 KECCAK256 PUSH1 0x3 ADD SLOAD DUP4 DUP4 DUP2 MLOAD DUP2 LT PUSH2 0x2289 JUMPI PUSH2 0x2289 PUSH2 0x2C2F JUMP JUMPDEST PUSH1 0x20 MUL PUSH1 0x20 ADD ADD MLOAD PUSH1 0x2 DUP2 MLOAD DUP2 LT PUSH2 0x22A3 JUMPI PUSH2 0x22A3 PUSH2 0x2C2F JUMP JUMPDEST PUSH1 0x20 SWAP1 DUP2 MUL SWAP2 SWAP1 SWAP2 ADD DUP2 ADD SWAP2 SWAP1 SWAP2 MSTORE PUSH1 0x0 DUP3 DUP2 MSTORE PUSH1 0x1 SWAP1 SWAP2 MSTORE PUSH1 0x40 SWAP1 KECCAK256 PUSH1 0x5 ADD SLOAD PUSH1 0xFF AND PUSH2 0x22D2 JUMPI PUSH1 0x0 PUSH2 0x22D5 JUMP JUMPDEST PUSH1 0x1 JUMPDEST PUSH1 0xFF AND DUP4 DUP4 DUP2 MLOAD DUP2 LT PUSH2 0x22EA JUMPI PUSH2 0x22EA PUSH2 0x2C2F JUMP JUMPDEST PUSH1 0x20 MUL PUSH1 0x20 ADD ADD MLOAD PUSH1 0x3 DUP2 MLOAD DUP2 LT PUSH2 0x2304 JUMPI PUSH2 0x2304 PUSH2 0x2C2F JUMP JUMPDEST PUSH1 0x20 SWAP1 DUP2 MUL SWAP2 SWAP1 SWAP2 ADD ADD MSTORE POP DUP1 PUSH2 0x231A DUP2 PUSH2 0x2C5B JUMP JUMPDEST SWAP2 POP POP PUSH2 0x216F JUMP JUMPDEST PUSH2 0x232A PUSH2 0x27C9 JUMP JUMPDEST PUSH1 0x7 SSTORE JUMP JUMPDEST PUSH1 0x0 DUP2 DUP2 MSTORE PUSH1 0x5 PUSH1 0x20 MSTORE PUSH1 0x40 DUP2 KECCAK256 PUSH1 0x4 DUP2 ADD SLOAD PUSH1 0xFF AND PUSH2 0x2361 JUMPI PUSH1 0x40 MLOAD PUSH3 0x461BCD PUSH1 0xE5 SHL DUP2 MSTORE PUSH1 0x4 ADD PUSH2 0xAAE SWAP1 PUSH2 0x2CE4 JUMP JUMPDEST DUP1 PUSH1 0x2 ADD SLOAD DUP2 PUSH1 0x3 ADD SLOAD PUSH2 0x2375 SWAP2 SWAP1 PUSH2 0x2D29 JUMP JUMPDEST SWAP4 SWAP3 POP POP POP JUMP JUMPDEST PUSH1 0x60 PUSH1 0x0 PUSH2 0x2389 PUSH1 0x6 SLOAD SWAP1 JUMP JUMPDEST SWAP1 POP PUSH1 0x60 PUSH1 0x0 DUP1 JUMPDEST DUP4 DUP2 LT ISZERO PUSH2 0x23E4 JUMPI PUSH1 0x0 PUSH2 0x23A6 DUP3 PUSH1 0x1 PUSH2 0x2C74 JUMP JUMPDEST PUSH1 0x0 DUP2 DUP2 MSTORE PUSH1 0x1 PUSH1 0x20 MSTORE PUSH1 0x40 SWAP1 KECCAK256 PUSH1 0x5 ADD SLOAD SWAP1 SWAP2 POP PUSH1 0xFF AND ISZERO PUSH2 0x23D1 JUMPI DUP3 PUSH2 0x23CD DUP2 PUSH2 0x2C5B JUMP JUMPDEST SWAP4 POP POP JUMPDEST POP DUP1 PUSH2 0x23DC DUP2 PUSH2 0x2C5B JUMP JUMPDEST SWAP2 POP POP PUSH2 0x2391 JUMP JUMPDEST POP DUP5 ISZERO PUSH2 0x243F JUMPI DUP1 PUSH8 0xFFFFFFFFFFFFFFFF DUP2 GT ISZERO PUSH2 0x2404 JUMPI PUSH2 0x2404 PUSH2 0x29DE JUMP JUMPDEST PUSH1 0x40 MLOAD SWAP1 DUP1 DUP3 MSTORE DUP1 PUSH1 0x20 MUL PUSH1 0x20 ADD DUP3 ADD PUSH1 0x40 MSTORE DUP1 ISZERO PUSH2 0x2437 JUMPI DUP2 PUSH1 0x20 ADD JUMPDEST PUSH1 0x60 DUP2 MSTORE PUSH1 0x20 ADD SWAP1 PUSH1 0x1 SWAP1 SUB SWAP1 DUP2 PUSH2 0x2422 JUMPI SWAP1 POP JUMPDEST POP SWAP2 POP PUSH2 0x248F JUMP JUMPDEST DUP3 PUSH8 0xFFFFFFFFFFFFFFFF DUP2 GT ISZERO PUSH2 0x2458 JUMPI PUSH2 0x2458 PUSH2 0x29DE JUMP JUMPDEST PUSH1 0x40 MLOAD SWAP1 DUP1 DUP3 MSTORE DUP1 PUSH1 0x20 MUL PUSH1 0x20 ADD DUP3 ADD PUSH1 0x40 MSTORE DUP1 ISZERO PUSH2 0x248B JUMPI DUP2 PUSH1 0x20 ADD JUMPDEST PUSH1 0x60 DUP2 MSTORE PUSH1 0x20 ADD SWAP1 PUSH1 0x1 SWAP1 SUB SWAP1 DUP2 PUSH2 0x2476 JUMPI SWAP1 POP JUMPDEST POP SWAP2 POP JUMPDEST PUSH1 0x0 DUP1 JUMPDEST DUP5 DUP2 LT ISZERO PUSH2 0x271B JUMPI PUSH1 0x0 PUSH2 0x24A8 DUP3 PUSH1 0x1 PUSH2 0x2C74 JUMP JUMPDEST PUSH1 0x0 DUP2 DUP2 MSTORE PUSH1 0x1 PUSH1 0x20 MSTORE PUSH1 0x40 SWAP1 KECCAK256 PUSH1 0x5 ADD SLOAD SWAP1 SWAP2 POP PUSH1 0xFF AND DUP1 PUSH2 0x24C9 JUMPI POP DUP8 ISZERO JUMPDEST ISZERO PUSH2 0x2708 JUMPI PUSH1 0x40 DUP1 MLOAD PUSH1 0x6 DUP1 DUP3 MSTORE PUSH1 0xE0 DUP3 ADD SWAP1 SWAP3 MSTORE SWAP1 PUSH1 0x20 DUP3 ADD PUSH1 0xC0 DUP1 CALLDATASIZE DUP4 CALLDATACOPY ADD SWAP1 POP POP DUP6 DUP5 DUP2 MLOAD DUP2 LT PUSH2 0x24FF JUMPI PUSH2 0x24FF PUSH2 0x2C2F JUMP JUMPDEST PUSH1 0x20 MUL PUSH1 0x20 ADD ADD DUP2 SWAP1 MSTORE POP DUP1 DUP6 DUP5 DUP2 MLOAD DUP2 LT PUSH2 0x251D JUMPI PUSH2 0x251D PUSH2 0x2C2F JUMP JUMPDEST PUSH1 0x20 MUL PUSH1 0x20 ADD ADD MLOAD PUSH1 0x0 DUP2 MLOAD DUP2 LT PUSH2 0x2537 JUMPI PUSH2 0x2537 PUSH2 0x2C2F JUMP JUMPDEST PUSH1 0x20 MUL PUSH1 0x20 ADD ADD DUP2 DUP2 MSTORE POP POP PUSH1 0x1 PUSH1 0x0 DUP3 DUP2 MSTORE PUSH1 0x20 ADD SWAP1 DUP2 MSTORE PUSH1 0x20 ADD PUSH1 0x0 KECCAK256 PUSH1 0x2 ADD SLOAD DUP6 DUP5 DUP2 MLOAD DUP2 LT PUSH2 0x256C JUMPI PUSH2 0x256C PUSH2 0x2C2F JUMP JUMPDEST PUSH1 0x20 MUL PUSH1 0x20 ADD ADD MLOAD PUSH1 0x1 DUP2 MLOAD DUP2 LT PUSH2 0x2586 JUMPI PUSH2 0x2586 PUSH2 0x2C2F JUMP JUMPDEST PUSH1 0x20 MUL PUSH1 0x20 ADD ADD DUP2 DUP2 MSTORE POP POP PUSH1 0x1 PUSH1 0x0 DUP3 DUP2 MSTORE PUSH1 0x20 ADD SWAP1 DUP2 MSTORE PUSH1 0x20 ADD PUSH1 0x0 KECCAK256 PUSH1 0x3 ADD SLOAD DUP6 DUP5 DUP2 MLOAD DUP2 LT PUSH2 0x25BB JUMPI PUSH2 0x25BB PUSH2 0x2C2F JUMP JUMPDEST PUSH1 0x20 MUL PUSH1 0x20 ADD ADD MLOAD PUSH1 0x2 DUP2 MLOAD DUP2 LT PUSH2 0x25D5 JUMPI PUSH2 0x25D5 PUSH2 0x2C2F JUMP JUMPDEST PUSH1 0x20 SWAP1 DUP2 MUL SWAP2 SWAP1 SWAP2 ADD DUP2 ADD SWAP2 SWAP1 SWAP2 MSTORE PUSH1 0x0 DUP3 DUP2 MSTORE PUSH1 0x1 SWAP1 SWAP2 MSTORE PUSH1 0x40 SWAP1 KECCAK256 PUSH1 0x5 ADD SLOAD PUSH1 0xFF AND PUSH2 0x2604 JUMPI PUSH1 0x0 PUSH2 0x2607 JUMP JUMPDEST PUSH1 0x1 JUMPDEST PUSH1 0xFF AND DUP6 DUP5 DUP2 MLOAD DUP2 LT PUSH2 0x261C JUMPI PUSH2 0x261C PUSH2 0x2C2F JUMP JUMPDEST PUSH1 0x20 MUL PUSH1 0x20 ADD ADD MLOAD PUSH1 0x3 DUP2 MLOAD DUP2 LT PUSH2 0x2636 JUMPI PUSH2 0x2636 PUSH2 0x2C2F JUMP JUMPDEST PUSH1 0x20 MUL PUSH1 0x20 ADD ADD DUP2 DUP2 MSTORE POP POP PUSH2 0x264B DUP2 PUSH2 0x1729 JUMP JUMPDEST PUSH1 0x20 ADD MLOAD DUP6 DUP5 DUP2 MLOAD DUP2 LT PUSH2 0x2661 JUMPI PUSH2 0x2661 PUSH2 0x2C2F JUMP JUMPDEST PUSH1 0x20 MUL PUSH1 0x20 ADD ADD MLOAD PUSH1 0x4 DUP2 MLOAD DUP2 LT PUSH2 0x267B JUMPI PUSH2 0x267B PUSH2 0x2C2F JUMP JUMPDEST PUSH1 0x20 MUL PUSH1 0x20 ADD ADD DUP2 DUP2 MSTORE POP POP PUSH2 0x26C3 DUP6 DUP5 DUP2 MLOAD DUP2 LT PUSH2 0x269C JUMPI PUSH2 0x269C PUSH2 0x2C2F JUMP JUMPDEST PUSH1 0x20 MUL PUSH1 0x20 ADD ADD MLOAD PUSH1 0x4 DUP2 MLOAD DUP2 LT PUSH2 0x26B6 JUMPI PUSH2 0x26B6 PUSH2 0x2C2F JUMP JUMPDEST PUSH1 0x20 MUL PUSH1 0x20 ADD ADD MLOAD PUSH2 0x1688 JUMP JUMPDEST DUP6 DUP5 DUP2 MLOAD DUP2 LT PUSH2 0x26D5 JUMPI PUSH2 0x26D5 PUSH2 0x2C2F JUMP JUMPDEST PUSH1 0x20 MUL PUSH1 0x20 ADD ADD MLOAD PUSH1 0x5 DUP2 MLOAD DUP2 LT PUSH2 0x26EF JUMPI PUSH2 0x26EF PUSH2 0x2C2F JUMP JUMPDEST PUSH1 0x20 SWAP1 DUP2 MUL SWAP2 SWAP1 SWAP2 ADD ADD MSTORE DUP3 PUSH2 0x2704 DUP2 PUSH2 0x2C5B JUMP JUMPDEST SWAP4 POP POP JUMPDEST POP DUP1 PUSH2 0x2713 DUP2 PUSH2 0x2C5B JUMP JUMPDEST SWAP2 POP POP PUSH2 0x2493 JUMP JUMPDEST POP SWAP2 SWAP6 SWAP5 POP POP POP POP POP JUMP JUMPDEST PUSH2 0x272E PUSH2 0x27C9 JUMP JUMPDEST PUSH1 0x1 PUSH1 0x1 PUSH1 0xA0 SHL SUB DUP2 AND PUSH2 0x2793 JUMPI PUSH1 0x40 MLOAD PUSH3 0x461BCD PUSH1 0xE5 SHL DUP2 MSTORE PUSH1 0x20 PUSH1 0x4 DUP3 ADD MSTORE PUSH1 0x26 PUSH1 0x24 DUP3 ADD MSTORE PUSH32 0x4F776E61626C653A206E6577206F776E657220697320746865207A65726F2061 PUSH1 0x44 DUP3 ADD MSTORE PUSH6 0x646472657373 PUSH1 0xD0 SHL PUSH1 0x64 DUP3 ADD MSTORE PUSH1 0x84 ADD PUSH2 0xAAE JUMP JUMPDEST PUSH2 0x279C DUP2 PUSH2 0x2823 JUMP JUMPDEST POP JUMP JUMPDEST PUSH2 0x27A7 PUSH2 0x27C9 JUMP JUMPDEST PUSH1 0x3 DUP1 SLOAD PUSH1 0x1 PUSH1 0x1 PUSH1 0xA0 SHL SUB NOT AND PUSH1 0x1 PUSH1 0x1 PUSH1 0xA0 SHL SUB SWAP3 SWAP1 SWAP3 AND SWAP2 SWAP1 SWAP2 OR SWAP1 SSTORE JUMP JUMPDEST PUSH1 0x0 SLOAD PUSH1 0x1 PUSH1 0x1 PUSH1 0xA0 SHL SUB AND CALLER EQ PUSH2 0x15B4 JUMPI PUSH1 0x40 MLOAD PUSH3 0x461BCD PUSH1 0xE5 SHL DUP2 MSTORE PUSH1 0x20 PUSH1 0x4 DUP3 ADD DUP2 SWAP1 MSTORE PUSH1 0x24 DUP3 ADD MSTORE PUSH32 0x4F776E61626C653A2063616C6C6572206973206E6F7420746865206F776E6572 PUSH1 0x44 DUP3 ADD MSTORE PUSH1 0x64 ADD PUSH2 0xAAE JUMP JUMPDEST PUSH1 0x0 DUP1 SLOAD PUSH1 0x1 PUSH1 0x1 PUSH1 0xA0 SHL SUB DUP4 DUP2 AND PUSH1 0x1 PUSH1 0x1 PUSH1 0xA0 SHL SUB NOT DUP4 AND DUP2 OR DUP5 SSTORE PUSH1 0x40 MLOAD SWAP2 SWAP1 SWAP3 AND SWAP3 DUP4 SWAP2 PUSH32 0x8BE0079C531659141344CD1FD0A4F28419497F9722A3DAAFE3B4186F6B6457E0 SWAP2 SWAP1 LOG3 POP POP JUMP JUMPDEST PUSH1 0x0 PUSH1 0x20 DUP3 DUP5 SUB SLT ISZERO PUSH2 0x2885 JUMPI PUSH1 0x0 DUP1 REVERT JUMPDEST POP CALLDATALOAD SWAP2 SWAP1 POP JUMP JUMPDEST PUSH1 0x20 DUP1 DUP3 MSTORE DUP3 MLOAD DUP3 DUP3 ADD DUP2 SWAP1 MSTORE PUSH1 0x0 SWAP2 SWAP1 DUP5 DUP3 ADD SWAP1 PUSH1 0x40 DUP6 ADD SWAP1 DUP5 JUMPDEST DUP2 DUP2 LT ISZERO PUSH2 0x28C4 JUMPI DUP4 MLOAD DUP4 MSTORE SWAP3 DUP5 ADD SWAP3 SWAP2 DUP5 ADD SWAP2 PUSH1 0x1 ADD PUSH2 0x28A8 JUMP JUMPDEST POP SWAP1 SWAP7 SWAP6 POP POP POP POP POP POP JUMP JUMPDEST PUSH1 0x0 DUP1 PUSH1 0x40 DUP4 DUP6 SUB SLT ISZERO PUSH2 0x28E3 JUMPI PUSH1 0x0 DUP1 REVERT JUMPDEST POP POP DUP1 CALLDATALOAD SWAP3 PUSH1 0x20 SWAP1 SWAP2 ADD CALLDATALOAD SWAP2 POP JUMP JUMPDEST PUSH1 0x1 PUSH1 0x1 PUSH1 0xA0 SHL SUB DUP2 AND DUP2 EQ PUSH2 0x279C JUMPI PUSH1 0x0 DUP1 REVERT JUMPDEST PUSH1 0x0 PUSH1 0x20 DUP3 DUP5 SUB SLT ISZERO PUSH2 0x2919 JUMPI PUSH1 0x0 DUP1 REVERT JUMPDEST DUP2 CALLDATALOAD PUSH2 0x2375 DUP2 PUSH2 0x28F2 JUMP JUMPDEST DUP1 MLOAD DUP3 MSTORE PUSH1 0x20 DUP1 DUP3 ADD MLOAD SWAP1 DUP4 ADD MSTORE PUSH1 0x40 DUP1 DUP3 ADD MLOAD SWAP1 DUP4 ADD MSTORE PUSH1 0x60 DUP1 DUP3 ADD MLOAD PUSH1 0x1 PUSH1 0x1 PUSH1 0xA0 SHL SUB AND SWAP1 DUP4 ADD MSTORE PUSH1 0x80 SWAP1 DUP2 ADD MLOAD ISZERO ISZERO SWAP2 ADD MSTORE JUMP JUMPDEST PUSH1 0x20 DUP1 DUP3 MSTORE DUP3 MLOAD DUP3 DUP3 ADD DUP2 SWAP1 MSTORE PUSH1 0x0 SWAP2 SWAP1 DUP5 DUP3 ADD SWAP1 PUSH1 0x40 DUP6 ADD SWAP1 DUP5 JUMPDEST DUP2 DUP2 LT ISZERO PUSH2 0x28C4 JUMPI PUSH2 0x298B DUP4 DUP6 MLOAD PUSH2 0x2924 JUMP JUMPDEST SWAP3 DUP5 ADD SWAP3 PUSH1 0xA0 SWAP3 SWAP1 SWAP3 ADD SWAP2 PUSH1 0x1 ADD PUSH2 0x2978 JUMP JUMPDEST PUSH1 0xA0 DUP2 ADD PUSH2 0xCD4 DUP3 DUP5 PUSH2 0x2924 JUMP JUMPDEST PUSH1 0x0 DUP1 PUSH1 0x0 DUP1 PUSH1 0x80 DUP6 DUP8 SUB SLT ISZERO PUSH2 0x29C2 JUMPI PUSH1 0x0 DUP1 REVERT JUMPDEST POP POP DUP3 CALLDATALOAD SWAP5 PUSH1 0x20 DUP5 ADD CALLDATALOAD SWAP5 POP PUSH1 0x40 DUP5 ADD CALLDATALOAD SWAP4 PUSH1 0x60 ADD CALLDATALOAD SWAP3 POP SWAP1 POP JUMP JUMPDEST PUSH4 0x4E487B71 PUSH1 0xE0 SHL PUSH1 0x0 MSTORE PUSH1 0x41 PUSH1 0x4 MSTORE PUSH1 0x24 PUSH1 0x0 REVERT JUMPDEST PUSH1 0x40 MLOAD PUSH1 0x1F DUP3 ADD PUSH1 0x1F NOT AND DUP2 ADD PUSH8 0xFFFFFFFFFFFFFFFF DUP2 GT DUP3 DUP3 LT OR ISZERO PUSH2 0x2A1D JUMPI PUSH2 0x2A1D PUSH2 0x29DE JUMP JUMPDEST PUSH1 0x40 MSTORE SWAP2 SWAP1 POP JUMP JUMPDEST PUSH1 0x0 PUSH8 0xFFFFFFFFFFFFFFFF DUP3 GT ISZERO PUSH2 0x2A3F JUMPI PUSH2 0x2A3F PUSH2 0x29DE JUMP JUMPDEST POP PUSH1 0x5 SHL PUSH1 0x20 ADD SWAP1 JUMP JUMPDEST PUSH1 0x0 DUP3 PUSH1 0x1F DUP4 ADD SLT PUSH2 0x2A5A JUMPI PUSH1 0x0 DUP1 REVERT JUMPDEST DUP2 CALLDATALOAD PUSH1 0x20 PUSH2 0x2A6F PUSH2 0x2A6A DUP4 PUSH2 0x2A25 JUMP JUMPDEST PUSH2 0x29F4 JUMP JUMPDEST DUP3 DUP2 MSTORE PUSH1 0x5 SWAP3 SWAP1 SWAP3 SHL DUP5 ADD DUP2 ADD SWAP2 DUP2 DUP2 ADD SWAP1 DUP7 DUP5 GT ISZERO PUSH2 0x2A8E JUMPI PUSH1 0x0 DUP1 REVERT JUMPDEST DUP3 DUP7 ADD JUMPDEST DUP5 DUP2 LT ISZERO PUSH2 0x2AA9 JUMPI DUP1 CALLDATALOAD DUP4 MSTORE SWAP2 DUP4 ADD SWAP2 DUP4 ADD PUSH2 0x2A92 JUMP JUMPDEST POP SWAP7 SWAP6 POP POP POP POP POP POP JUMP JUMPDEST PUSH1 0x0 DUP1 PUSH1 0x0 DUP1 PUSH1 0x80 DUP6 DUP8 SUB SLT ISZERO PUSH2 0x2ACA JUMPI PUSH1 0x0 DUP1 REVERT JUMPDEST DUP5 CALLDATALOAD PUSH8 0xFFFFFFFFFFFFFFFF DUP1 DUP3 GT ISZERO PUSH2 0x2AE2 JUMPI PUSH1 0x0 DUP1 REVERT JUMPDEST PUSH2 0x2AEE DUP9 DUP4 DUP10 ADD PUSH2 0x2A49 JUMP JUMPDEST SWAP6 POP PUSH1 0x20 DUP8 ADD CALLDATALOAD SWAP2 POP DUP1 DUP3 GT ISZERO PUSH2 0x2B04 JUMPI PUSH1 0x0 DUP1 REVERT JUMPDEST PUSH2 0x2B10 DUP9 DUP4 DUP10 ADD PUSH2 0x2A49 JUMP JUMPDEST SWAP5 POP PUSH1 0x40 DUP8 ADD CALLDATALOAD SWAP2 POP DUP1 DUP3 GT ISZERO PUSH2 0x2B26 JUMPI PUSH1 0x0 DUP1 REVERT JUMPDEST PUSH2 0x2B32 DUP9 DUP4 DUP10 ADD PUSH2 0x2A49 JUMP JUMPDEST SWAP4 POP PUSH1 0x60 DUP8 ADD CALLDATALOAD SWAP2 POP DUP1 DUP3 GT ISZERO PUSH2 0x2B48 JUMPI PUSH1 0x0 DUP1 REVERT JUMPDEST POP PUSH2 0x2B55 DUP8 DUP3 DUP9 ADD PUSH2 0x2A49 JUMP JUMPDEST SWAP2 POP POP SWAP3 SWAP6 SWAP2 SWAP5 POP SWAP3 POP JUMP JUMPDEST PUSH1 0x0 PUSH1 0x20 DUP1 DUP4 ADD DUP2 DUP5 MSTORE DUP1 DUP6 MLOAD DUP1 DUP4 MSTORE PUSH1 0x40 DUP7 ADD SWAP2 POP PUSH1 0x40 DUP2 PUSH1 0x5 SHL DUP8 ADD ADD SWAP3 POP DUP4 DUP8 ADD PUSH1 0x0 DUP1 JUMPDEST DUP4 DUP2 LT ISZERO PUSH2 0x2BDD JUMPI DUP9 DUP7 SUB PUSH1 0x3F NOT ADD DUP6 MSTORE DUP3 MLOAD DUP1 MLOAD DUP1 DUP9 MSTORE SWAP1 DUP9 ADD SWAP1 DUP9 DUP9 ADD SWAP1 DUP5 JUMPDEST DUP2 DUP2 LT ISZERO PUSH2 0x2BC7 JUMPI DUP4 MLOAD DUP4 MSTORE SWAP3 DUP11 ADD SWAP3 SWAP2 DUP11 ADD SWAP2 PUSH1 0x1 ADD PUSH2 0x2BAB JUMP JUMPDEST POP SWAP1 SWAP8 POP POP POP SWAP4 DUP7 ADD SWAP4 SWAP2 DUP7 ADD SWAP2 PUSH1 0x1 ADD PUSH2 0x2B89 JUMP JUMPDEST POP SWAP4 SWAP9 SWAP8 POP POP POP POP POP POP POP POP JUMP JUMPDEST DUP1 ISZERO ISZERO DUP2 EQ PUSH2 0x279C JUMPI PUSH1 0x0 DUP1 REVERT JUMPDEST PUSH1 0x0 PUSH1 0x20 DUP3 DUP5 SUB SLT ISZERO PUSH2 0x2C0B JUMPI PUSH1 0x0 DUP1 REVERT JUMPDEST DUP2 CALLDATALOAD PUSH2 0x2375 DUP2 PUSH2 0x2BEB JUMP JUMPDEST PUSH1 0x0 PUSH1 0x20 DUP3 DUP5 SUB SLT ISZERO PUSH2 0x2C28 JUMPI PUSH1 0x0 DUP1 REVERT JUMPDEST POP MLOAD SWAP2 SWAP1 POP JUMP JUMPDEST PUSH4 0x4E487B71 PUSH1 0xE0 SHL PUSH1 0x0 MSTORE PUSH1 0x32 PUSH1 0x4 MSTORE PUSH1 0x24 PUSH1 0x0 REVERT JUMPDEST PUSH4 0x4E487B71 PUSH1 0xE0 SHL PUSH1 0x0 MSTORE PUSH1 0x11 PUSH1 0x4 MSTORE PUSH1 0x24 PUSH1 0x0 REVERT JUMPDEST PUSH1 0x0 PUSH1 0x1 DUP3 ADD PUSH2 0x2C6D JUMPI PUSH2 0x2C6D PUSH2 0x2C45 JUMP JUMPDEST POP PUSH1 0x1 ADD SWAP1 JUMP JUMPDEST DUP1 DUP3 ADD DUP1 DUP3 GT ISZERO PUSH2 0xCD4 JUMPI PUSH2 0xCD4 PUSH2 0x2C45 JUMP JUMPDEST PUSH1 0x20 DUP1 DUP3 MSTORE PUSH1 0x38 SWAP1 DUP3 ADD MSTORE PUSH32 0x546F6B656E2073616C65206475726174696F6E20657863656564732074686520 PUSH1 0x40 DUP3 ADD MSTORE PUSH32 0x6D6178696D756D206C696D6974206F6620363020646179730000000000000000 PUSH1 0x60 DUP3 ADD MSTORE PUSH1 0x80 ADD SWAP1 JUMP JUMPDEST PUSH1 0x20 DUP1 DUP3 MSTORE PUSH1 0x25 SWAP1 DUP3 ADD MSTORE PUSH32 0x465454204D61726B657420506C6163653A204F72646572206973206E6F742061 PUSH1 0x40 DUP3 ADD MSTORE PUSH5 0x6374697665 PUSH1 0xD8 SHL PUSH1 0x60 DUP3 ADD MSTORE PUSH1 0x80 ADD SWAP1 JUMP JUMPDEST DUP1 DUP3 MUL DUP2 ISZERO DUP3 DUP3 DIV DUP5 EQ OR PUSH2 0xCD4 JUMPI PUSH2 0xCD4 PUSH2 0x2C45 JUMP JUMPDEST PUSH1 0x0 DUP3 PUSH2 0x2D5D JUMPI PUSH4 0x4E487B71 PUSH1 0xE0 SHL PUSH1 0x0 MSTORE PUSH1 0x12 PUSH1 0x4 MSTORE PUSH1 0x24 PUSH1 0x0 REVERT JUMPDEST POP DIV SWAP1 JUMP JUMPDEST DUP2 DUP2 SUB DUP2 DUP2 GT ISZERO PUSH2 0xCD4 JUMPI PUSH2 0xCD4 PUSH2 0x2C45 JUMP JUMPDEST PUSH1 0x20 DUP1 DUP3 MSTORE PUSH1 0x21 SWAP1 DUP3 ADD MSTORE PUSH32 0x4654542054726164696E673A2043616C6C6572206973207468652073656C6C65 PUSH1 0x40 DUP3 ADD MSTORE PUSH1 0x39 PUSH1 0xF9 SHL PUSH1 0x60 DUP3 ADD MSTORE PUSH1 0x80 ADD SWAP1 JUMP JUMPDEST PUSH1 0x20 DUP1 DUP3 MSTORE PUSH1 0x21 SWAP1 DUP3 ADD MSTORE PUSH32 0x4654542054726164696E673A20496E636F72726563742045544820616D6F756E PUSH1 0x40 DUP3 ADD MSTORE PUSH1 0x1D PUSH1 0xFA SHL PUSH1 0x60 DUP3 ADD MSTORE PUSH1 0x80 ADD SWAP1 JUMP JUMPDEST PUSH1 0x0 PUSH1 0xA0 DUP3 DUP5 SUB SLT ISZERO PUSH2 0x2E09 JUMPI PUSH1 0x0 DUP1 REVERT JUMPDEST PUSH1 0x40 MLOAD PUSH1 0xA0 DUP2 ADD DUP2 DUP2 LT PUSH8 0xFFFFFFFFFFFFFFFF DUP3 GT OR ISZERO PUSH2 0x2E2C JUMPI PUSH2 0x2E2C PUSH2 0x29DE JUMP JUMPDEST DUP1 PUSH1 0x40 MSTORE POP DUP1 SWAP2 POP DUP3 MLOAD DUP2 MSTORE PUSH1 0x20 DUP4 ADD MLOAD PUSH1 0x20 DUP3 ADD MSTORE PUSH1 0x40 DUP4 ADD MLOAD PUSH1 0x40 DUP3 ADD MSTORE PUSH1 0x60 DUP4 ADD MLOAD PUSH2 0x2E5A DUP2 PUSH2 0x28F2 JUMP JUMPDEST PUSH1 0x60 DUP3 ADD MSTORE PUSH1 0x80 DUP4 ADD MLOAD PUSH2 0x2E6D DUP2 PUSH2 0x2BEB JUMP JUMPDEST PUSH1 0x80 SWAP2 SWAP1 SWAP2 ADD MSTORE SWAP3 SWAP2 POP POP JUMP JUMPDEST PUSH1 0x0 PUSH1 0x20 DUP1 DUP4 DUP6 SUB SLT ISZERO PUSH2 0x2E8D JUMPI PUSH1 0x0 DUP1 REVERT JUMPDEST DUP3 MLOAD PUSH8 0xFFFFFFFFFFFFFFFF DUP2 GT ISZERO PUSH2 0x2EA4 JUMPI PUSH1 0x0 DUP1 REVERT JUMPDEST DUP4 ADD PUSH1 0x1F DUP2 ADD DUP6 SGT PUSH2 0x2EB5 JUMPI PUSH1 0x0 DUP1 REVERT JUMPDEST DUP1 MLOAD PUSH2 0x2EC3 PUSH2 0x2A6A DUP3 PUSH2 0x2A25 JUMP JUMPDEST DUP2 DUP2 MSTORE PUSH1 0xA0 SWAP2 DUP3 MUL DUP4 ADD DUP5 ADD SWAP2 DUP5 DUP3 ADD SWAP2 SWAP1 DUP9 DUP5 GT ISZERO PUSH2 0x2EE2 JUMPI PUSH1 0x0 DUP1 REVERT JUMPDEST SWAP4 DUP6 ADD SWAP4 JUMPDEST DUP4 DUP6 LT ISZERO PUSH2 0x2F08 JUMPI PUSH2 0x2EF9 DUP10 DUP7 PUSH2 0x2DF7 JUMP JUMPDEST DUP4 MSTORE SWAP4 DUP5 ADD SWAP4 SWAP2 DUP6 ADD SWAP2 PUSH2 0x2EE7 JUMP JUMPDEST POP SWAP8 SWAP7 POP POP POP POP POP POP POP JUMP JUMPDEST PUSH1 0x0 PUSH1 0xA0 DUP3 DUP5 SUB SLT ISZERO PUSH2 0x2F26 JUMPI PUSH1 0x0 DUP1 REVERT JUMPDEST PUSH2 0x2375 DUP4 DUP4 PUSH2 0x2DF7 JUMP JUMPDEST PUSH1 0x20 DUP1 DUP3 MSTORE PUSH1 0x29 SWAP1 DUP3 ADD MSTORE PUSH32 0x4672756974746578204D61726B657420506C6163653A20496E76616C69642074 PUSH1 0x40 DUP3 ADD MSTORE PUSH9 0x1C99594818DBDD5B9D PUSH1 0xBA SHL PUSH1 0x60 DUP3 ADD MSTORE PUSH1 0x80 ADD SWAP1 JUMP JUMPDEST PUSH1 0x0 PUSH1 0x20 DUP3 DUP5 SUB SLT ISZERO PUSH2 0x2F8B JUMPI PUSH1 0x0 DUP1 REVERT JUMPDEST DUP2 MLOAD PUSH2 0x2375 DUP2 PUSH2 0x28F2 JUMP JUMPDEST PUSH1 0x20 DUP1 DUP3 MSTORE PUSH1 0x26 SWAP1 DUP3 ADD MSTORE PUSH32 0x465454204D61726B657420506C6163653A20496E76616C69642046545420746F PUSH1 0x40 DUP3 ADD MSTORE PUSH6 0x1AD95B881251 PUSH1 0xD2 SHL PUSH1 0x60 DUP3 ADD MSTORE PUSH1 0x80 ADD SWAP1 JUMP JUMPDEST PUSH1 0x20 DUP1 DUP3 MSTORE PUSH1 0x33 SWAP1 DUP3 ADD MSTORE PUSH32 0x465454204D61726B657420506C6163653A204F6E6C7920746865206F776E6572 PUSH1 0x40 DUP3 ADD MSTORE PUSH19 0x1031B0B710383630B1B29030B71037B93232B9 PUSH1 0x69 SHL PUSH1 0x60 DUP3 ADD MSTORE PUSH1 0x80 ADD SWAP1 JUMP INVALID LOG2 PUSH5 0x6970667358 0x22 SLT KECCAK256 PREVRANDAO POP 0x5F BASEFEE 0xF 0xE6 PUSH22 0x8EEE48D5199C42251083A1720412B6BC24B1F1BAE228 MOD 0xEB MOD PUSH5 0x736F6C6343 STOP ADDMOD SLT STOP CALLER "
		},
		"gasEstimates": {
			"creation": {
				"codeDepositCost": "2477800",
				"executionCost": "infinite",
				"totalCost": "infinite"
			},
			"external": {
				"CreateBulkClaimableTokens(uint256[],uint256[],uint256[],uint256[])": "infinite",
				"MAX_SALE_DURATION()": "2427",
				"_fulfillFeePercentage()": "2430",
				"_getFTTDataByTokenId(uint256)": "infinite",
				"_getFtoTokenId(uint256)": "infinite",
				"buyToken(uint256)": "infinite",
				"cancelOrder(uint256)": "33077",
				"claimToken(uint256)": "infinite",
				"getClaim(uint256)": "infinite",
				"getFTTsByOwner(address)": "infinite",
				"getListAllFTTs()": "infinite",
				"getListAllFTTsByFto(uint256)": "infinite",
				"getOrder(uint256)": "13591",
				"getOrderTotalAmount(uint256)": "6841",
				"getSellingFee()": "2426",
				"getTokenIdTracker()": "2397",
				"getTokenPrice(uint256)": "2489",
				"getTokenSaleEndTime(uint256)": "2519",
				"getTokenSeller(uint256)": "2523",
				"getTokenTreeCount(uint256)": "2490",
				"getTokensForSale()": "infinite",
				"getTokensForSaleByFTO(uint256)": "infinite",
				"isOrderActive(uint256)": "2545",
				"listAllClaimableTokens(bool)": "infinite",
				"listClaimableTokensUserId(uint256)": "infinite",
				"listTokenForSale(uint256,uint256)": "infinite",
				"owner()": "2443",
				"placeOrder(uint256,uint256,uint256,uint256)": "infinite",
				"renounceOwnership()": "infinite",
				"setFTTContractAddress(address)": "26839",
				"setFulfillFeePercentage(uint256)": "24648",
				"setMaxSaleDuration(uint256)": "24600",
				"setRecipientAddress(address)": "26819",
				"setSellingFee(uint256)": "24621",
				"tokenSales(uint256)": "8886",
				"totalTrees(uint256)": "2557",
				"totalTreesForSale()": "infinite",
				"totalTreesForSaleByFTO(uint256)": "infinite",
				"transferOwnership(address)": "infinite",
				"withdraw()": "infinite"
			}
		},
		"methodIdentifiers": {
			"CreateBulkClaimableTokens(uint256[],uint256[],uint256[],uint256[])": "a983ab67",
			"MAX_SALE_DURATION()": "fc6e33ee",
			"_fulfillFeePercentage()": "26e798d0",
			"_getFTTDataByTokenId(uint256)": "97583564",
			"_getFtoTokenId(uint256)": "88647742",
			"buyToken(uint256)": "2d296bf1",
			"cancelOrder(uint256)": "514fcac7",
			"claimToken(uint256)": "a9e7c2e5",
			"getClaim(uint256)": "5aef2447",
			"getFTTsByOwner(address)": "958070fc",
			"getListAllFTTs()": "5756eeee",
			"getListAllFTTsByFto(uint256)": "48edea7d",
			"getOrder(uint256)": "d09ef241",
			"getOrderTotalAmount(uint256)": "e686df8c",
			"getSellingFee()": "43bbc006",
			"getTokenIdTracker()": "a8db716f",
			"getTokenPrice(uint256)": "c457fb37",
			"getTokenSaleEndTime(uint256)": "0ac9f6f2",
			"getTokenSeller(uint256)": "7665beea",
			"getTokenTreeCount(uint256)": "28695d30",
			"getTokensForSale()": "65e4e1c0",
			"getTokensForSaleByFTO(uint256)": "05e891fd",
			"isOrderActive(uint256)": "d6e43585",
			"listAllClaimableTokens(bool)": "e98c89f9",
			"listClaimableTokensUserId(uint256)": "d92491e4",
			"listTokenForSale(uint256,uint256)": "2406e677",
			"owner()": "8da5cb5b",
			"placeOrder(uint256,uint256,uint256,uint256)": "a8ef32fb",
			"renounceOwnership()": "715018a6",
			"setFTTContractAddress(address)": "fb76694e",
			"setFulfillFeePercentage(uint256)": "544318a9",
			"setMaxSaleDuration(uint256)": "533761fe",
			"setRecipientAddress(address)": "36bfc264",
			"setSellingFee(uint256)": "da6a0bee",
			"tokenSales(uint256)": "45cf084b",
			"totalTrees(uint256)": "24a0923b",
			"totalTreesForSale()": "546377b6",
			"totalTreesForSaleByFTO(uint256)": "7b672860",
			"transferOwnership(address)": "f2fde38b",
			"withdraw()": "3ccfd60b"
		}
	},
	"abi": [
		{
			"inputs": [
				{
					"internalType": "address payable",
					"name": "fttContractAddress",
					"type": "address"
				},
				{
					"internalType": "uint256",
					"name": "sellingFeeInWei",
					"type": "uint256"
				},
				{
					"internalType": "uint256",
					"name": "fulfillFeePercentage",
					"type": "uint256"
				}
			],
			"stateMutability": "nonpayable",
			"type": "constructor"
		},
		{
			"anonymous": false,
			"inputs": [
				{
					"indexed": true,
					"internalType": "address",
					"name": "previousOwner",
					"type": "address"
				},
				{
					"indexed": true,
					"internalType": "address",
					"name": "newOwner",
					"type": "address"
				}
			],
			"name": "OwnershipTransferred",
			"type": "event"
		},
		{
			"anonymous": false,
			"inputs": [
				{
					"indexed": false,
					"internalType": "uint256",
					"name": "msgValue",
					"type": "uint256"
				},
				{
					"indexed": false,
					"internalType": "uint256",
					"name": "totalAmount",
					"type": "uint256"
				}
			],
			"name": "buyTokenValuesEvent",
			"type": "event"
		},
		{
			"anonymous": false,
			"inputs": [
				{
					"indexed": true,
					"internalType": "uint256",
					"name": "tokenId",
					"type": "uint256"
				},
				{
					"indexed": false,
					"internalType": "uint256",
					"name": "userId",
					"type": "uint256"
				},
				{
					"indexed": false,
					"internalType": "uint256",
					"name": "treeCount",
					"type": "uint256"
				},
				{
					"indexed": true,
					"internalType": "address",
					"name": "seller",
					"type": "address"
				},
				{
					"indexed": true,
					"internalType": "address",
					"name": "buyer",
					"type": "address"
				},
				{
					"indexed": false,
					"internalType": "uint256",
					"name": "totalAmount",
					"type": "uint256"
				},
				{
					"indexed": false,
					"internalType": "uint256",
					"name": "ftoTokenId",
					"type": "uint256"
				},
				{
					"indexed": false,
					"internalType": "address",
					"name": "contractAddress",
					"type": "address"
				}
			],
			"name": "claimFulfilledEvent",
			"type": "event"
		},
		{
			"anonymous": false,
			"inputs": [
				{
					"indexed": true,
					"internalType": "uint256",
					"name": "tokenId",
					"type": "uint256"
				},
				{
					"indexed": false,
					"internalType": "uint256",
					"name": "treeCount",
					"type": "uint256"
				},
				{
					"indexed": false,
					"internalType": "uint256",
					"name": "totalAmount",
					"type": "uint256"
				},
				{
					"indexed": false,
					"internalType": "address",
					"name": "seller",
					"type": "address"
				},
				{
					"indexed": false,
					"internalType": "uint256",
					"name": "userId",
					"type": "uint256"
				},
				{
					"indexed": false,
					"internalType": "address",
					"name": "contractAddress",
					"type": "address"
				}
			],
			"name": "claimableTokensCreatedEvent",
			"type": "event"
		},
		{
			"anonymous": false,
			"inputs": [
				{
					"indexed": true,
					"internalType": "uint256",
					"name": "tokenId",
					"type": "uint256"
				},
				{
					"indexed": false,
					"internalType": "uint256",
					"name": "treeCount",
					"type": "uint256"
				},
				{
					"indexed": true,
					"internalType": "address",
					"name": "seller",
					"type": "address"
				},
				{
					"indexed": false,
					"internalType": "address",
					"name": "contractAddress",
					"type": "address"
				}
			],
			"name": "orderCancelledEvent",
			"type": "event"
		},
		{
			"anonymous": false,
			"inputs": [
				{
					"indexed": true,
					"internalType": "uint256",
					"name": "tokenId",
					"type": "uint256"
				},
				{
					"indexed": false,
					"internalType": "uint256",
					"name": "treeCount",
					"type": "uint256"
				},
				{
					"indexed": false,
					"internalType": "uint256",
					"name": "treeSellingPrice",
					"type": "uint256"
				},
				{
					"indexed": true,
					"internalType": "address",
					"name": "seller",
					"type": "address"
				},
				{
					"indexed": true,
					"internalType": "address",
					"name": "buyer",
					"type": "address"
				},
				{
					"indexed": false,
					"internalType": "uint256",
					"name": "totalAmount",
					"type": "uint256"
				},
				{
					"indexed": false,
					"internalType": "uint256",
					"name": "sellerAmount",
					"type": "uint256"
				},
				{
					"indexed": false,
					"internalType": "uint256",
					"name": "fulfillFee",
					"type": "uint256"
				},
				{
					"indexed": false,
					"internalType": "address",
					"name": "contractAddress",
					"type": "address"
				}
			],
			"name": "orderFulfilledEvent",
			"type": "event"
		},
		{
			"anonymous": false,
			"inputs": [
				{
					"indexed": true,
					"internalType": "uint256",
					"name": "tokenId",
					"type": "uint256"
				},
				{
					"indexed": false,
					"internalType": "uint256",
					"name": "treeCount",
					"type": "uint256"
				},
				{
					"indexed": false,
					"internalType": "uint256",
					"name": "price",
					"type": "uint256"
				},
				{
					"indexed": true,
					"internalType": "address",
					"name": "seller",
					"type": "address"
				},
				{
					"indexed": false,
					"internalType": "address",
					"name": "contractAddress",
					"type": "address"
				},
				{
					"indexed": false,
					"internalType": "uint256",
					"name": "saleEndTime",
					"type": "uint256"
				},
				{
					"indexed": false,
					"internalType": "uint256",
					"name": "listingFee",
					"type": "uint256"
				}
			],
			"name": "orderPlacedEvent",
			"type": "event"
		},
		{
			"anonymous": false,
			"inputs": [
				{
					"indexed": true,
					"internalType": "uint256",
					"name": "tokenId",
					"type": "uint256"
				},
				{
					"indexed": false,
					"internalType": "uint256",
					"name": "treeCount",
					"type": "uint256"
				},
				{
					"indexed": false,
					"internalType": "uint256",
					"name": "price",
					"type": "uint256"
				},
				{
					"indexed": true,
					"internalType": "address",
					"name": "seller",
					"type": "address"
				},
				{
					"indexed": false,
					"internalType": "address",
					"name": "contractAddress",
					"type": "address"
				},
				{
					"indexed": false,
					"internalType": "uint256",
					"name": "saleEndTime",
					"type": "uint256"
				}
			],
			"name": "orderPriceUpdatedEvent",
			"type": "event"
		},
		{
			"inputs": [
				{
					"internalType": "uint256[]",
					"name": "fttTokenIds",
					"type": "uint256[]"
				},
				{
					"internalType": "uint256[]",
					"name": "treeCounts",
					"type": "uint256[]"
				},
				{
					"internalType": "uint256[]",
					"name": "prices",
					"type": "uint256[]"
				},
				{
					"internalType": "uint256[]",
					"name": "userIds",
					"type": "uint256[]"
				}
			],
			"name": "CreateBulkClaimableTokens",
			"outputs": [],
			"stateMutability": "payable",
			"type": "function"
		},
		{
			"inputs": [],
			"name": "MAX_SALE_DURATION",
			"outputs": [
				{
					"internalType": "uint256",
					"name": "",
					"type": "uint256"
				}
			],
			"stateMutability": "view",
			"type": "function"
		},
		{
			"inputs": [],
			"name": "_fulfillFeePercentage",
			"outputs": [
				{
					"internalType": "uint256",
					"name": "",
					"type": "uint256"
				}
			],
			"stateMutability": "view",
			"type": "function"
		},
		{
			"inputs": [
				{
					"internalType": "uint256",
					"name": "tokenId",
					"type": "uint256"
				}
			],
			"name": "_getFTTDataByTokenId",
			"outputs": [
				{
					"components": [
						{
							"internalType": "uint256",
							"name": "ftoTokenId",
							"type": "uint256"
						},
						{
							"internalType": "uint256",
							"name": "fttTokenId",
							"type": "uint256"
						},
						{
							"internalType": "uint256",
							"name": "treeCount",
							"type": "uint256"
						},
						{
							"internalType": "address",
							"name": "owner",
							"type": "address"
						},
						{
							"internalType": "bool",
							"name": "isSold",
							"type": "bool"
						}
					],
					"internalType": "struct FTT.FTTData",
					"name": "",
					"type": "tuple"
				}
			],
			"stateMutability": "view",
			"type": "function"
		},
		{
			"inputs": [
				{
					"internalType": "uint256",
					"name": "fttTokenId",
					"type": "uint256"
				}
			],
			"name": "_getFtoTokenId",
			"outputs": [
				{
					"internalType": "uint256",
					"name": "",
					"type": "uint256"
				}
			],
			"stateMutability": "view",
			"type": "function"
		},
		{
			"inputs": [
				{
					"internalType": "uint256",
					"name": "tokenId",
					"type": "uint256"
				}
			],
			"name": "buyToken",
			"outputs": [],
			"stateMutability": "payable",
			"type": "function"
		},
		{
			"inputs": [
				{
					"internalType": "uint256",
					"name": "tokenId",
					"type": "uint256"
				}
			],
			"name": "cancelOrder",
			"outputs": [],
			"stateMutability": "nonpayable",
			"type": "function"
		},
		{
			"inputs": [
				{
					"internalType": "uint256",
					"name": "tokenId",
					"type": "uint256"
				}
			],
			"name": "claimToken",
			"outputs": [],
			"stateMutability": "payable",
			"type": "function"
		},
		{
			"inputs": [
				{
					"internalType": "uint256",
					"name": "tokenId",
					"type": "uint256"
				}
			],
			"name": "getClaim",
			"outputs": [
				{
					"internalType": "uint256",
					"name": "",
					"type": "uint256"
				},
				{
					"internalType": "uint256",
					"name": "",
					"type": "uint256"
				},
				{
					"internalType": "uint256",
					"name": "",
					"type": "uint256"
				},
				{
					"internalType": "address",
					"name": "",
					"type": "address"
				},
				{
					"internalType": "uint256",
					"name": "",
					"type": "uint256"
				},
				{
					"internalType": "uint256",
					"name": "",
					"type": "uint256"
				}
			],
			"stateMutability": "view",
			"type": "function"
		},
		{
			"inputs": [
				{
					"internalType": "address",
					"name": "owner",
					"type": "address"
				}
			],
			"name": "getFTTsByOwner",
			"outputs": [
				{
					"components": [
						{
							"internalType": "uint256",
							"name": "ftoTokenId",
							"type": "uint256"
						},
						{
							"internalType": "uint256",
							"name": "fttTokenId",
							"type": "uint256"
						},
						{
							"internalType": "uint256",
							"name": "treeCount",
							"type": "uint256"
						},
						{
							"internalType": "address",
							"name": "owner",
							"type": "address"
						},
						{
							"internalType": "bool",
							"name": "isSold",
							"type": "bool"
						}
					],
					"internalType": "struct FTT.FTTData[]",
					"name": "",
					"type": "tuple[]"
				}
			],
			"stateMutability": "view",
			"type": "function"
		},
		{
			"inputs": [],
			"name": "getListAllFTTs",
			"outputs": [
				{
					"components": [
						{
							"internalType": "uint256",
							"name": "ftoTokenId",
							"type": "uint256"
						},
						{
							"internalType": "uint256",
							"name": "fttTokenId",
							"type": "uint256"
						},
						{
							"internalType": "uint256",
							"name": "treeCount",
							"type": "uint256"
						},
						{
							"internalType": "address",
							"name": "owner",
							"type": "address"
						},
						{
							"internalType": "bool",
							"name": "isSold",
							"type": "bool"
						}
					],
					"internalType": "struct FTT.FTTData[]",
					"name": "",
					"type": "tuple[]"
				}
			],
			"stateMutability": "view",
			"type": "function"
		},
		{
			"inputs": [
				{
					"internalType": "uint256",
					"name": "ftoTokenId",
					"type": "uint256"
				}
			],
			"name": "getListAllFTTsByFto",
			"outputs": [
				{
					"components": [
						{
							"internalType": "uint256",
							"name": "ftoTokenId",
							"type": "uint256"
						},
						{
							"internalType": "uint256",
							"name": "fttTokenId",
							"type": "uint256"
						},
						{
							"internalType": "uint256",
							"name": "treeCount",
							"type": "uint256"
						},
						{
							"internalType": "address",
							"name": "owner",
							"type": "address"
						},
						{
							"internalType": "bool",
							"name": "isSold",
							"type": "bool"
						}
					],
					"internalType": "struct FTT.FTTData[]",
					"name": "",
					"type": "tuple[]"
				}
			],
			"stateMutability": "view",
			"type": "function"
		},
		{
			"inputs": [
				{
					"internalType": "uint256",
					"name": "tokenId",
					"type": "uint256"
				}
			],
			"name": "getOrder",
			"outputs": [
				{
					"components": [
						{
							"internalType": "address",
							"name": "seller",
							"type": "address"
						},
						{
							"internalType": "uint256",
							"name": "tokenId",
							"type": "uint256"
						},
						{
							"internalType": "uint256",
							"name": "treeCount",
							"type": "uint256"
						},
						{
							"internalType": "uint256",
							"name": "price",
							"type": "uint256"
						},
						{
							"internalType": "bool",
							"name": "active",
							"type": "bool"
						},
						{
							"internalType": "uint256",
							"name": "saleEndTime",
							"type": "uint256"
						}
					],
					"internalType": "struct FTTMarketPlace.Order",
					"name": "",
					"type": "tuple"
				}
			],
			"stateMutability": "view",
			"type": "function"
		},
		{
			"inputs": [
				{
					"internalType": "uint256",
					"name": "tokenId",
					"type": "uint256"
				}
			],
			"name": "getOrderTotalAmount",
			"outputs": [
				{
					"internalType": "uint256",
					"name": "",
					"type": "uint256"
				}
			],
			"stateMutability": "view",
			"type": "function"
		},
		{
			"inputs": [],
			"name": "getSellingFee",
			"outputs": [
				{
					"internalType": "uint256",
					"name": "",
					"type": "uint256"
				}
			],
			"stateMutability": "view",
			"type": "function"
		},
		{
			"inputs": [],
			"name": "getTokenIdTracker",
			"outputs": [
				{
					"internalType": "uint256",
					"name": "",
					"type": "uint256"
				}
			],
			"stateMutability": "view",
			"type": "function"
		},
		{
			"inputs": [
				{
					"internalType": "uint256",
					"name": "tokenId",
					"type": "uint256"
				}
			],
			"name": "getTokenPrice",
			"outputs": [
				{
					"internalType": "uint256",
					"name": "",
					"type": "uint256"
				}
			],
			"stateMutability": "view",
			"type": "function"
		},
		{
			"inputs": [
				{
					"internalType": "uint256",
					"name": "tokenId",
					"type": "uint256"
				}
			],
			"name": "getTokenSaleEndTime",
			"outputs": [
				{
					"internalType": "uint256",
					"name": "",
					"type": "uint256"
				}
			],
			"stateMutability": "view",
			"type": "function"
		},
		{
			"inputs": [
				{
					"internalType": "uint256",
					"name": "tokenId",
					"type": "uint256"
				}
			],
			"name": "getTokenSeller",
			"outputs": [
				{
					"internalType": "address",
					"name": "",
					"type": "address"
				}
			],
			"stateMutability": "view",
			"type": "function"
		},
		{
			"inputs": [
				{
					"internalType": "uint256",
					"name": "tokenId",
					"type": "uint256"
				}
			],
			"name": "getTokenTreeCount",
			"outputs": [
				{
					"internalType": "uint256",
					"name": "",
					"type": "uint256"
				}
			],
			"stateMutability": "view",
			"type": "function"
		},
		{
			"inputs": [],
			"name": "getTokensForSale",
			"outputs": [
				{
					"internalType": "uint256[]",
					"name": "",
					"type": "uint256[]"
				}
			],
			"stateMutability": "view",
			"type": "function"
		},
		{
			"inputs": [
				{
					"internalType": "uint256",
					"name": "ftoTokenId",
					"type": "uint256"
				}
			],
			"name": "getTokensForSaleByFTO",
			"outputs": [
				{
					"internalType": "uint256[]",
					"name": "",
					"type": "uint256[]"
				}
			],
			"stateMutability": "view",
			"type": "function"
		},
		{
			"inputs": [
				{
					"internalType": "uint256",
					"name": "tokenId",
					"type": "uint256"
				}
			],
			"name": "isOrderActive",
			"outputs": [
				{
					"internalType": "bool",
					"name": "",
					"type": "bool"
				}
			],
			"stateMutability": "view",
			"type": "function"
		},
		{
			"inputs": [
				{
					"internalType": "bool",
					"name": "onlyActive",
					"type": "bool"
				}
			],
			"name": "listAllClaimableTokens",
			"outputs": [
				{
					"internalType": "uint256[][]",
					"name": "",
					"type": "uint256[][]"
				}
			],
			"stateMutability": "view",
			"type": "function"
		},
		{
			"inputs": [
				{
					"internalType": "uint256",
					"name": "userId",
					"type": "uint256"
				}
			],
			"name": "listClaimableTokensUserId",
			"outputs": [
				{
					"internalType": "uint256[][]",
					"name": "",
					"type": "uint256[][]"
				}
			],
			"stateMutability": "view",
			"type": "function"
		},
		{
			"inputs": [
				{
					"internalType": "uint256",
					"name": "tokenId",
					"type": "uint256"
				},
				{
					"internalType": "uint256",
					"name": "price",
					"type": "uint256"
				}
			],
			"name": "listTokenForSale",
			"outputs": [
				{
					"internalType": "address",
					"name": "",
					"type": "address"
				}
			],
			"stateMutability": "nonpayable",
			"type": "function"
		},
		{
			"inputs": [],
			"name": "owner",
			"outputs": [
				{
					"internalType": "address",
					"name": "",
					"type": "address"
				}
			],
			"stateMutability": "view",
			"type": "function"
		},
		{
			"inputs": [
				{
					"internalType": "uint256",
					"name": "fttTokenId",
					"type": "uint256"
				},
				{
					"internalType": "uint256",
					"name": "treeCount",
					"type": "uint256"
				},
				{
					"internalType": "uint256",
					"name": "price",
					"type": "uint256"
				},
				{
					"internalType": "uint256",
					"name": "saleDuration",
					"type": "uint256"
				}
			],
			"name": "placeOrder",
			"outputs": [],
			"stateMutability": "payable",
			"type": "function"
		},
		{
			"inputs": [],
			"name": "renounceOwnership",
			"outputs": [],
			"stateMutability": "nonpayable",
			"type": "function"
		},
		{
			"inputs": [
				{
					"internalType": "address payable",
					"name": "fttContractAddress",
					"type": "address"
				}
			],
			"name": "setFTTContractAddress",
			"outputs": [],
			"stateMutability": "nonpayable",
			"type": "function"
		},
		{
			"inputs": [
				{
					"internalType": "uint256",
					"name": "percentage",
					"type": "uint256"
				}
			],
			"name": "setFulfillFeePercentage",
			"outputs": [],
			"stateMutability": "nonpayable",
			"type": "function"
		},
		{
			"inputs": [
				{
					"internalType": "uint256",
					"name": "duration",
					"type": "uint256"
				}
			],
			"name": "setMaxSaleDuration",
			"outputs": [],
			"stateMutability": "nonpayable",
			"type": "function"
		},
		{
			"inputs": [
				{
					"internalType": "address payable",
					"name": "newRecipientAddress",
					"type": "address"
				}
			],
			"name": "setRecipientAddress",
			"outputs": [],
			"stateMutability": "nonpayable",
			"type": "function"
		},
		{
			"inputs": [
				{
					"internalType": "uint256",
					"name": "feeInWei",
					"type": "uint256"
				}
			],
			"name": "setSellingFee",
			"outputs": [],
			"stateMutability": "nonpayable",
			"type": "function"
		},
		{
			"inputs": [
				{
					"internalType": "uint256",
					"name": "",
					"type": "uint256"
				}
			],
			"name": "tokenSales",
			"outputs": [
				{
					"internalType": "uint256",
					"name": "tokenId",
					"type": "uint256"
				},
				{
					"internalType": "uint256",
					"name": "quantity",
					"type": "uint256"
				},
				{
					"internalType": "uint256",
					"name": "price",
					"type": "uint256"
				},
				{
					"internalType": "uint256",
					"name": "saleEndTime",
					"type": "uint256"
				}
			],
			"stateMutability": "view",
			"type": "function"
		},
		{
			"inputs": [
				{
					"internalType": "uint256",
					"name": "tokenId",
					"type": "uint256"
				}
			],
			"name": "totalTrees",
			"outputs": [
				{
					"internalType": "uint256",
					"name": "",
					"type": "uint256"
				}
			],
			"stateMutability": "view",
			"type": "function"
		},
		{
			"inputs": [],
			"name": "totalTreesForSale",
			"outputs": [
				{
					"internalType": "uint256",
					"name": "",
					"type": "uint256"
				}
			],
			"stateMutability": "view",
			"type": "function"
		},
		{
			"inputs": [
				{
					"internalType": "uint256",
					"name": "ftoTokenId",
					"type": "uint256"
				}
			],
			"name": "totalTreesForSaleByFTO",
			"outputs": [
				{
					"internalType": "uint256",
					"name": "",
					"type": "uint256"
				}
			],
			"stateMutability": "view",
			"type": "function"
		},
		{
			"inputs": [
				{
					"internalType": "address",
					"name": "newOwner",
					"type": "address"
				}
			],
			"name": "transferOwnership",
			"outputs": [],
			"stateMutability": "nonpayable",
			"type": "function"
		},
		{
			"inputs": [],
			"name": "withdraw",
			"outputs": [],
			"stateMutability": "nonpayable",
			"type": "function"
		},
		{
			"stateMutability": "payable",
			"type": "receive"
		}
	]
}